{
  "contractName": "ActivePool",
  "abi": [
    {
      "anonymous": false,
      "inputs": [
        {
          "indexed": false,
          "internalType": "address",
          "name": "_collateral",
          "type": "address"
        },
        {
          "indexed": false,
          "internalType": "uint256",
          "name": "_amount",
          "type": "uint256"
        }
      ],
      "name": "ActivePoolBalanceUpdated",
      "type": "event"
    },
    {
      "anonymous": false,
      "inputs": [
        {
          "indexed": false,
          "internalType": "uint256",
          "name": "_SUSDDebt",
          "type": "uint256"
        }
      ],
      "name": "ActivePoolSUSDDebtUpdated",
      "type": "event"
    },
    {
      "anonymous": false,
      "inputs": [
        {
          "indexed": true,
          "internalType": "address",
          "name": "previousOwner",
          "type": "address"
        },
        {
          "indexed": true,
          "internalType": "address",
          "name": "newOwner",
          "type": "address"
        }
      ],
      "name": "OwnershipTransferred",
      "type": "event"
    },
    {
      "inputs": [],
      "name": "DECIMAL_PRECISION",
      "outputs": [
        {
          "internalType": "uint256",
          "name": "",
          "type": "uint256"
        }
      ],
      "stateMutability": "view",
      "type": "function"
    },
    {
      "inputs": [],
      "name": "NAME",
      "outputs": [
        {
          "internalType": "bytes32",
          "name": "",
          "type": "bytes32"
        }
      ],
      "stateMutability": "view",
      "type": "function"
    },
    {
      "inputs": [],
      "name": "isOwner",
      "outputs": [
        {
          "internalType": "bool",
          "name": "",
          "type": "bool"
        }
      ],
      "stateMutability": "view",
      "type": "function"
    },
    {
      "inputs": [],
      "name": "owner",
      "outputs": [
        {
          "internalType": "address",
          "name": "",
          "type": "address"
        }
      ],
      "stateMutability": "view",
      "type": "function"
    },
    {
      "inputs": [
        {
          "internalType": "address",
          "name": "_borrowerOperationsAddress",
          "type": "address"
        },
        {
          "internalType": "address",
          "name": "_troveManagerAddress",
          "type": "address"
        },
        {
          "internalType": "address",
          "name": "_stabilityPoolAddress",
          "type": "address"
        },
        {
          "internalType": "address",
          "name": "_defaultPoolAddress",
          "type": "address"
        },
        {
          "internalType": "address",
          "name": "_whitelistAddress",
          "type": "address"
        },
        {
          "internalType": "address",
          "name": "_troveManagerLiquidationsAddress",
          "type": "address"
        },
        {
          "internalType": "address",
          "name": "_troveManagerRedemptionsAddress",
          "type": "address"
        },
        {
          "internalType": "address",
          "name": "_collSurplusPoolAddress",
          "type": "address"
        }
      ],
      "name": "setAddresses",
      "outputs": [],
      "stateMutability": "nonpayable",
      "type": "function"
    },
    {
      "inputs": [
        {
          "internalType": "address",
          "name": "_collateral",
          "type": "address"
        }
      ],
      "name": "getCollateral",
      "outputs": [
        {
          "internalType": "uint256",
          "name": "",
          "type": "uint256"
        }
      ],
      "stateMutability": "view",
      "type": "function"
    },
    {
      "inputs": [],
      "name": "getSUSDDebt",
      "outputs": [
        {
          "internalType": "uint256",
          "name": "",
          "type": "uint256"
        }
      ],
      "stateMutability": "view",
      "type": "function"
    },
    {
      "inputs": [
        {
          "internalType": "address",
          "name": "_to",
          "type": "address"
        },
        {
          "internalType": "address[]",
          "name": "_tokens",
          "type": "address[]"
        },
        {
          "internalType": "uint256[]",
          "name": "_amounts",
          "type": "uint256[]"
        }
      ],
      "name": "sendCollaterals",
      "outputs": [],
      "stateMutability": "nonpayable",
      "type": "function"
    },
    {
      "inputs": [
        {
          "internalType": "address",
          "name": "_to",
          "type": "address"
        },
        {
          "internalType": "address",
          "name": "_token",
          "type": "address"
        },
        {
          "internalType": "uint256",
          "name": "_amount",
          "type": "uint256"
        }
      ],
      "name": "sendSingleCollateral",
      "outputs": [],
      "stateMutability": "nonpayable",
      "type": "function"
    },
    {
      "inputs": [
        {
          "internalType": "uint256",
          "name": "_amount",
          "type": "uint256"
        }
      ],
      "name": "increaseSUSDDebt",
      "outputs": [],
      "stateMutability": "nonpayable",
      "type": "function"
    },
    {
      "inputs": [
        {
          "internalType": "uint256",
          "name": "_amount",
          "type": "uint256"
        }
      ],
      "name": "decreaseSUSDDebt",
      "outputs": [],
      "stateMutability": "nonpayable",
      "type": "function"
    },
    {
      "inputs": [
        {
          "internalType": "address[]",
          "name": "_tokens",
          "type": "address[]"
        },
        {
          "internalType": "uint256[]",
          "name": "_amounts",
          "type": "uint256[]"
        }
      ],
      "name": "receiveCollateral",
      "outputs": [],
      "stateMutability": "nonpayable",
      "type": "function"
    },
    {
      "inputs": [
        {
          "internalType": "address",
          "name": "_collateral",
          "type": "address"
        }
      ],
      "name": "addCollateralType",
      "outputs": [],
      "stateMutability": "nonpayable",
      "type": "function"
    }
  ],
  "bytecode": "0x608060405234801561001057600080fd5b50336000806101000a81548173ffffffffffffffffffffffffffffffffffffffff021916908373ffffffffffffffffffffffffffffffffffffffff1602179055503373ffffffffffffffffffffffffffffffffffffffff16600073ffffffffffffffffffffffffffffffffffffffff167f8be0079c531659141344cd1fd0a4f28419497f9722a3daafe3b4186f6b6457e060405160405180910390a3612301806100bb6000396000f3fe608060405234801561001057600080fd5b50600436106100cf5760003560e01c8063a3f4df7e1161008c578063d0d8c20d11610066578063d0d8c20d1461035c578063d733cfd01461044a578063eae6f9081461056f578063ec0d5e0c1461059d576100cf565b8063a3f4df7e14610252578063a7a24edd14610270578063c24103641461033e576100cf565b806362f6105b146100d45780638da5cb5b146101425780638f32d59b1461018c578063949f5c03146101ae5780639b56d6c9146101dc578063a20baee614610234575b600080fd5b610140600480360360608110156100ea57600080fd5b81019080803573ffffffffffffffffffffffffffffffffffffffff169060200190929190803573ffffffffffffffffffffffffffffffffffffffff169060200190929190803590602001909291905050506105e1565b005b61014a6105f9565b604051808273ffffffffffffffffffffffffffffffffffffffff1673ffffffffffffffffffffffffffffffffffffffff16815260200191505060405180910390f35b610194610622565b604051808215151515815260200191505060405180910390f35b6101da600480360360208110156101c457600080fd5b8101908080359060200190929190505050610679565b005b61021e600480360360208110156101f257600080fd5b81019080803573ffffffffffffffffffffffffffffffffffffffff1690602001909291905050506106d8565b6040518082815260200191505060405180910390f35b61023c6107d5565b6040518082815260200191505060405180910390f35b61025a6107e1565b6040518082815260200191505060405180910390f35b61033c6004803603604081101561028657600080fd5b81019080803590602001906401000000008111156102a357600080fd5b8201836020820111156102b557600080fd5b803590602001918460208302840111640100000000831117156102d757600080fd5b9091929391929390803590602001906401000000008111156102f857600080fd5b82018360208201111561030a57600080fd5b8035906020019184602083028401116401000000008311171561032c57600080fd5b9091929391929390505050610805565b005b6103466109ab565b6040518082815260200191505060405180910390f35b6104486004803603606081101561037257600080fd5b81019080803573ffffffffffffffffffffffffffffffffffffffff169060200190929190803590602001906401000000008111156103af57600080fd5b8201836020820111156103c157600080fd5b803590602001918460208302840111640100000000831117156103e357600080fd5b90919293919293908035906020019064010000000081111561040457600080fd5b82018360208201111561041657600080fd5b8035906020019184602083028401116401000000008311171561043857600080fd5b90919293919293905050506109b5565b005b61056d600480360361010081101561046157600080fd5b81019080803573ffffffffffffffffffffffffffffffffffffffff169060200190929190803573ffffffffffffffffffffffffffffffffffffffff169060200190929190803573ffffffffffffffffffffffffffffffffffffffff169060200190929190803573ffffffffffffffffffffffffffffffffffffffff169060200190929190803573ffffffffffffffffffffffffffffffffffffffff169060200190929190803573ffffffffffffffffffffffffffffffffffffffff169060200190929190803573ffffffffffffffffffffffffffffffffffffffff169060200190929190803573ffffffffffffffffffffffffffffffffffffffff169060200190929190505050610b90565b005b61059b6004803603602081101561058557600080fd5b8101908080359060200190929190505050610e6c565b005b6105df600480360360208110156105b357600080fd5b81019080803573ffffffffffffffffffffffffffffffffffffffff169060200190929190505050610ecb565b005b6105e9610f69565b6105f4838383610fc9565b505050565b60008060009054906101000a900473ffffffffffffffffffffffffffffffffffffffff16905090565b60008060009054906101000a900473ffffffffffffffffffffffffffffffffffffffff1673ffffffffffffffffffffffffffffffffffffffff163373ffffffffffffffffffffffffffffffffffffffff1614905090565b61068161118e565b61069681600b5461124a90919063ffffffff16565b600b819055507face53959fd696bdc506c052ca7e2a7b383fd0f2c33246f4311f95a057645a22e600b546040518082815260200191505060405180910390a150565b60006009600101600160009054906101000a900473ffffffffffffffffffffffffffffffffffffffff1673ffffffffffffffffffffffffffffffffffffffff1663b31610db846040518263ffffffff1660e01b8152600401808273ffffffffffffffffffffffffffffffffffffffff1673ffffffffffffffffffffffffffffffffffffffff16815260200191505060206040518083038186803b15801561077e57600080fd5b505afa158015610792573d6000803e3d6000fd5b505050506040513d60208110156107a857600080fd5b8101908080519060200190929190505050815481106107c357fe5b90600052602060002001549050919050565b670de0b6b3a764000081565b7f416374697665506f6f6c0000000000000000000000000000000000000000000081565b61080d6112d2565b61098c6009604051806040016040529081600082018054806020026020016040519081016040528092919081815260200182805480156108a257602002820191906000526020600020905b8160009054906101000a900473ffffffffffffffffffffffffffffffffffffffff1673ffffffffffffffffffffffffffffffffffffffff1681526020019060010190808311610858575b50505050508152602001600182018054806020026020016040519081016040528092919081815260200182805480156108fa57602002820191906000526020600020905b8154815260200190600101908083116108e6575b505050505081525050858580806020026020016040519081016040528093929190818152602001838360200280828437600081840152601f19601f82011690508083019250505050505050848480806020026020016040519081016040528093929190818152602001838360200280828437600081840152601f19601f8201169050808301925050505050505061138e565b600960010190805190602001906109a4929190612209565b5050505050565b6000600b54905090565b6109bd611524565b6000848490509050828290508114610a3d576040517f08c379a000000000000000000000000000000000000000000000000000000000815260040180806020018281038252600a8152602001807f41503a4c656e677468730000000000000000000000000000000000000000000081525060200191505060405180910390fd5b60005b81811015610aa7576000848483818110610a5657fe5b90506020020135905060008114610a9b57610a9a88888885818110610a7757fe5b9050602002013573ffffffffffffffffffffffffffffffffffffffff1683610fc9565b5b50806001019050610a40565b50610ab1866116ee565b15610b88578573ffffffffffffffffffffffffffffffffffffffff1663a7a24edd868686866040518563ffffffff1660e01b81526004018080602001806020018381038352878782818152602001925060200280828437600081840152601f19601f8201169050808301925050508381038252858582818152602001925060200280828437600081840152601f19601f8201169050808301925050509650505050505050600060405180830381600087803b158015610b6f57600080fd5b505af1158015610b83573d6000803e3d6000fd5b505050505b505050505050565b610b98610622565b610c0a576040517f08c379a000000000000000000000000000000000000000000000000000000000815260040180806020018281038252600e8152602001807f43616c6c65724e6f744f776e657200000000000000000000000000000000000081525060200191505060405180910390fd5b610c13886117f8565b610c1c876117f8565b610c25866117f8565b610c2e856117f8565b610c37846117f8565b610c40836117f8565b610c49826117f8565b610c52816117f8565b87600260006101000a81548173ffffffffffffffffffffffffffffffffffffffff021916908373ffffffffffffffffffffffffffffffffffffffff16021790555086600360006101000a81548173ffffffffffffffffffffffffffffffffffffffff021916908373ffffffffffffffffffffffffffffffffffffffff16021790555085600460006101000a81548173ffffffffffffffffffffffffffffffffffffffff021916908373ffffffffffffffffffffffffffffffffffffffff16021790555084600560006101000a81548173ffffffffffffffffffffffffffffffffffffffff021916908373ffffffffffffffffffffffffffffffffffffffff16021790555083600160006101000a81548173ffffffffffffffffffffffffffffffffffffffff021916908373ffffffffffffffffffffffffffffffffffffffff16021790555082600660006101000a81548173ffffffffffffffffffffffffffffffffffffffff021916908373ffffffffffffffffffffffffffffffffffffffff16021790555081600760006101000a81548173ffffffffffffffffffffffffffffffffffffffff021916908373ffffffffffffffffffffffffffffffffffffffff16021790555080600860006101000a81548173ffffffffffffffffffffffffffffffffffffffff021916908373ffffffffffffffffffffffffffffffffffffffff160217905550610e6261191c565b5050505050505050565b610e746119db565b610e8981600b54611b4b90919063ffffffff16565b600b819055507face53959fd696bdc506c052ca7e2a7b383fd0f2c33246f4311f95a057645a22e600b546040518082815260200191505060405180910390a150565b610ed3611b95565b6009600001819080600181540180825580915050600190039060005260206000200160009091909190916101000a81548173ffffffffffffffffffffffffffffffffffffffff021916908373ffffffffffffffffffffffffffffffffffffffff16021790555060096001016000908060018154018082558091505060019003906000526020600020016000909190919091505550565b600260009054906101000a900473ffffffffffffffffffffffffffffffffffffffff1673ffffffffffffffffffffffffffffffffffffffff163373ffffffffffffffffffffffffffffffffffffffff1614610fc757610fc6611bf5565b5b565b6000600160009054906101000a900473ffffffffffffffffffffffffffffffffffffffff1673ffffffffffffffffffffffffffffffffffffffff1663b31610db846040518263ffffffff1660e01b8152600401808273ffffffffffffffffffffffffffffffffffffffff1673ffffffffffffffffffffffffffffffffffffffff16815260200191505060206040518083038186803b15801561106a57600080fd5b505afa15801561107e573d6000803e3d6000fd5b505050506040513d602081101561109457600080fd5b810190808051906020019092919050505090506110d482600960010183815481106110bb57fe5b9060005260206000200154611b4b90919063ffffffff16565b600960010182815481106110e457fe5b906000526020600020018190555061111d84838573ffffffffffffffffffffffffffffffffffffffff16611c639092919063ffffffff16565b7f380f306dd9bdd7d6dd695acb17985ed81b341c83579529030caf30bb5689bc198383604051808373ffffffffffffffffffffffffffffffffffffffff1673ffffffffffffffffffffffffffffffffffffffff1681526020018281526020019250505060405180910390a150505050565b600260009054906101000a900473ffffffffffffffffffffffffffffffffffffffff1673ffffffffffffffffffffffffffffffffffffffff163373ffffffffffffffffffffffffffffffffffffffff161415801561123a5750600360009054906101000a900473ffffffffffffffffffffffffffffffffffffffff1673ffffffffffffffffffffffffffffffffffffffff163373ffffffffffffffffffffffffffffffffffffffff1614155b1561124857611247611bf5565b5b565b6000808284019050838110156112c8576040517f08c379a000000000000000000000000000000000000000000000000000000000815260040180806020018281038252600c8152602001807f616464206f766572666c6f77000000000000000000000000000000000000000081525060200191505060405180910390fd5b8091505092915050565b600260009054906101000a900473ffffffffffffffffffffffffffffffffffffffff1673ffffffffffffffffffffffffffffffffffffffff163373ffffffffffffffffffffffffffffffffffffffff161415801561137e5750600560009054906101000a900473ffffffffffffffffffffffffffffffffffffffff1673ffffffffffffffffffffffffffffffffffffffff163373ffffffffffffffffffffffffffffffffffffffff1614155b1561138c5761138b611bf5565b5b565b60606000825114156113a6578360200151905061151d565b60606113b58560200151611d1b565b905060008451905060005b81811015611516576000600160009054906101000a900473ffffffffffffffffffffffffffffffffffffffff1673ffffffffffffffffffffffffffffffffffffffff1663b31610db88848151811061141457fe5b60200260200101516040518263ffffffff1660e01b8152600401808273ffffffffffffffffffffffffffffffffffffffff1673ffffffffffffffffffffffffffffffffffffffff16815260200191505060206040518083038186803b15801561147c57600080fd5b505afa158015611490573d6000803e3d6000fd5b505050506040513d60208110156114a657600080fd5b810190808051906020019092919050505090506114f28683815181106114c857fe5b60200260200101518583815181106114dc57fe5b602002602001015161124a90919063ffffffff16565b8482815181106114fe57fe5b602002602001018181525050508060010190506113c0565b5081925050505b9392505050565b600260009054906101000a900473ffffffffffffffffffffffffffffffffffffffff1673ffffffffffffffffffffffffffffffffffffffff163373ffffffffffffffffffffffffffffffffffffffff16141580156115d05750600360009054906101000a900473ffffffffffffffffffffffffffffffffffffffff1673ffffffffffffffffffffffffffffffffffffffff163373ffffffffffffffffffffffffffffffffffffffff1614155b801561162a5750600460009054906101000a900473ffffffffffffffffffffffffffffffffffffffff1673ffffffffffffffffffffffffffffffffffffffff163373ffffffffffffffffffffffffffffffffffffffff1614155b80156116845750600660009054906101000a900473ffffffffffffffffffffffffffffffffffffffff1673ffffffffffffffffffffffffffffffffffffffff163373ffffffffffffffffffffffffffffffffffffffff1614155b80156116de5750600760009054906101000a900473ffffffffffffffffffffffffffffffffffffffff1673ffffffffffffffffffffffffffffffffffffffff163373ffffffffffffffffffffffffffffffffffffffff1614155b156116ec576116eb611bf5565b5b565b6000600560009054906101000a900473ffffffffffffffffffffffffffffffffffffffff1673ffffffffffffffffffffffffffffffffffffffff168273ffffffffffffffffffffffffffffffffffffffff1614806117995750600460009054906101000a900473ffffffffffffffffffffffffffffffffffffffff1673ffffffffffffffffffffffffffffffffffffffff168273ffffffffffffffffffffffffffffffffffffffff16145b806117f15750600860009054906101000a900473ffffffffffffffffffffffffffffffffffffffff1673ffffffffffffffffffffffffffffffffffffffff168273ffffffffffffffffffffffffffffffffffffffff16145b9050919050565b600073ffffffffffffffffffffffffffffffffffffffff168173ffffffffffffffffffffffffffffffffffffffff16141561189b576040517f08c379a000000000000000000000000000000000000000000000000000000000815260040180806020018281038252601e8152602001807f4163636f756e742063616e6e6f74206265207a65726f2061646472657373000081525060200191505060405180910390fd5b6000813b90506000811415611918576040517f08c379a00000000000000000000000000000000000000000000000000000000081526004018080602001828103825260208152602001807f4163636f756e7420636f64652073697a652063616e6e6f74206265207a65726f81525060200191505060405180910390fd5b5050565b600073ffffffffffffffffffffffffffffffffffffffff166000809054906101000a900473ffffffffffffffffffffffffffffffffffffffff1673ffffffffffffffffffffffffffffffffffffffff167f8be0079c531659141344cd1fd0a4f28419497f9722a3daafe3b4186f6b6457e060405160405180910390a360008060006101000a81548173ffffffffffffffffffffffffffffffffffffffff021916908373ffffffffffffffffffffffffffffffffffffffff160217905550565b600260009054906101000a900473ffffffffffffffffffffffffffffffffffffffff1673ffffffffffffffffffffffffffffffffffffffff163373ffffffffffffffffffffffffffffffffffffffff1614158015611a875750600360009054906101000a900473ffffffffffffffffffffffffffffffffffffffff1673ffffffffffffffffffffffffffffffffffffffff163373ffffffffffffffffffffffffffffffffffffffff1614155b8015611ae15750600460009054906101000a900473ffffffffffffffffffffffffffffffffffffffff1673ffffffffffffffffffffffffffffffffffffffff163373ffffffffffffffffffffffffffffffffffffffff1614155b8015611b3b5750600760009054906101000a900473ffffffffffffffffffffffffffffffffffffffff1673ffffffffffffffffffffffffffffffffffffffff163373ffffffffffffffffffffffffffffffffffffffff1614155b15611b4957611b48611bf5565b5b565b6000611b8d83836040518060400160405280600c81526020017f737562206f766572666c6f770000000000000000000000000000000000000000815250611dbb565b905092915050565b600160009054906101000a900473ffffffffffffffffffffffffffffffffffffffff1673ffffffffffffffffffffffffffffffffffffffff163373ffffffffffffffffffffffffffffffffffffffff1614611bf357611bf2611bf5565b5b565b6040517f08c379a000000000000000000000000000000000000000000000000000000000815260040180806020018281038252601f8152602001807f41503a2045787465726e616c2063616c6c6572206e6f7420616c6c6f7765640081525060200191505060405180910390fd5b611d168363a9059cbb60e01b8484604051602401808373ffffffffffffffffffffffffffffffffffffffff1673ffffffffffffffffffffffffffffffffffffffff16815260200182815260200192505050604051602081830303815290604052907bffffffffffffffffffffffffffffffffffffffffffffffffffffffff19166020820180517bffffffffffffffffffffffffffffffffffffffffffffffffffffffff8381831617835250505050611e7b565b505050565b606060008251905060608167ffffffffffffffff81118015611d3c57600080fd5b50604051908082528060200260200182016040528015611d6b5781602001602082028036833780820191505090505b50905060005b82811015611db057848181518110611d8557fe5b6020026020010151828281518110611d9957fe5b602002602001018181525050806001019050611d71565b508092505050919050565b6000838311158290611e68576040517f08c379a00000000000000000000000000000000000000000000000000000000081526004018080602001828103825283818151815260200191508051906020019080838360005b83811015611e2d578082015181840152602081019050611e12565b50505050905090810190601f168015611e5a5780820380516001836020036101000a031916815260200191505b509250505060405180910390fd5b5060008385039050809150509392505050565b6060611edd826040518060400160405280602081526020017f5361666545524332303a206c6f772d6c6576656c2063616c6c206661696c65648152508573ffffffffffffffffffffffffffffffffffffffff16611f699092919063ffffffff16565b90506000815114611f6457808060200190516020811015611efd57600080fd5b8101908080519060200190929190505050611f63576040517f08c379a000000000000000000000000000000000000000000000000000000000815260040180806020018281038252602a8152602001806122a2602a913960400191505060405180910390fd5b5b505050565b6060611f788484600085611f81565b90509392505050565b606082471015611fdc576040517f08c379a000000000000000000000000000000000000000000000000000000000815260040180806020018281038252602681526020018061227c6026913960400191505060405180910390fd5b611fe58561212a565b612057576040517f08c379a000000000000000000000000000000000000000000000000000000000815260040180806020018281038252601d8152602001807f416464726573733a2063616c6c20746f206e6f6e2d636f6e747261637400000081525060200191505060405180910390fd5b600060608673ffffffffffffffffffffffffffffffffffffffff1685876040518082805190602001908083835b602083106120a75780518252602082019150602081019050602083039250612084565b6001836020036101000a03801982511681845116808217855250505050505090500191505060006040518083038185875af1925050503d8060008114612109576040519150601f19603f3d011682016040523d82523d6000602084013e61210e565b606091505b509150915061211e82828661213e565b92505050949350505050565b600080823b90506000811415915050919050565b6060831561214e57829050612202565b60008351146121605782518084602001fd5b816040517f08c379a00000000000000000000000000000000000000000000000000000000081526004018080602001828103825283818151815260200191508051906020019080838360005b838110156121c75780820151818401526020810190506121ac565b50505050905090810190601f1680156121f45780820380516001836020036101000a031916815260200191505b509250505060405180910390fd5b9392505050565b828054828255906000526020600020908101928215612245579160200282015b82811115612244578251825591602001919060010190612229565b5b5090506122529190612256565b5090565b61227891905b8082111561227457600081600090555060010161225c565b5090565b9056fe416464726573733a20696e73756666696369656e742062616c616e636520666f722063616c6c5361666545524332303a204552433230206f7065726174696f6e20646964206e6f742073756363656564a2646970667358221220c058aaa7237ef0b3ff932bd71dad7a18d698da3a327f27b6904dd2cb3e2a69d564736f6c634300060b0033",
  "immutableReferences": {},
  "source": "// SPDX-License-Identifier: UNLICENSED\npragma solidity 0.6.11;\n\n// Import this file to use console.log\n//import \"hardhat/console.sol\";\nimport \"../Interfaces/IActivePool.sol\"; ///Users/phaxsam/Stability HardHat/Interfaces/IActivePool.sol\nimport \"../Interfaces/IWhitelist.sol\";\nimport \"../Interfaces/IERC20.sol\";\nimport \"../Interfaces/IWAsset.sol\";\nimport \"../Interfaces/IDefaultPool.sol\";\nimport \"../Dependencies/SafeMath.sol\";\nimport \"../Dependencies/Ownable.sol\";\nimport \"../Dependencies/CheckContract.sol\";\nimport \"../Dependencies/PoolBase2.sol\";\nimport \"../Dependencies/SafeERC20.sol\";\n\nimport \"../Interfaces/IDefaultPool.sol\";\n\n\ncontract ActivePool is Ownable, CheckContract,  PoolBase2 {\n      using SafeMath for uint256;\n    using SafeERC20 for IERC20;\n\n    bytes32 constant public NAME = \"ActivePool\";\n\n    address internal borrowerOperationsAddress;\n    address internal troveManagerAddress;\n    address internal stabilityPoolAddress;\n    address internal defaultPoolAddress;\n     address internal troveManagerLiquidationsAddress;\n    address internal troveManagerRedemptionsAddress;\n    address internal collSurplusPoolAddress;\n\n    \n    // deposited collateral tracker. Colls is always the whitelist list of all collateral tokens. Amounts \n    newColls internal poolColl;\n\n    // YUSD Debt tracker. Tracker of all debt in the system. \n    uint256 internal SUSDDebt;\n\n\n\n     // --- Events ---\n\n   // event BorrowerOperationsAddressChanged(address _newBorrowerOperationsAddress);\n   // event TroveManagerAddressChanged(address _newTroveManagerAddress);\n   //  event StabilityPoolAddressChanged(_stabilityPoolAddress);\n   // event DefaultPoolAddressChanged(_defaultPoolAddress);\n   //  event WhitelistAddressChanged(_whitelistAddress);\n\n    event ActivePoolSUSDDebtUpdated(uint _SUSDDebt);\n    event ActivePoolBalanceUpdated(address _collateral, uint _amount);\n\n\n\n    function setAddresses(\n        address _borrowerOperationsAddress,\n        address _troveManagerAddress,\n        address _stabilityPoolAddress,\n        address _defaultPoolAddress,\n        address _whitelistAddress,\n       address _troveManagerLiquidationsAddress,\n       address _troveManagerRedemptionsAddress,\n        address _collSurplusPoolAddress\n    )\n        external\n        onlyOwner\n    {\n        checkContract(_borrowerOperationsAddress);\n        checkContract(_troveManagerAddress);\n        checkContract(_stabilityPoolAddress);\n        checkContract(_defaultPoolAddress);\n        checkContract(_whitelistAddress);\n       checkContract(_troveManagerLiquidationsAddress);\n       checkContract(_troveManagerRedemptionsAddress);\n        checkContract(_collSurplusPoolAddress);\n\n        borrowerOperationsAddress = _borrowerOperationsAddress;\n        troveManagerAddress = _troveManagerAddress;\n        stabilityPoolAddress = _stabilityPoolAddress;\n        defaultPoolAddress = _defaultPoolAddress;\n        whitelist = IWhitelist(_whitelistAddress);\n        troveManagerLiquidationsAddress = _troveManagerLiquidationsAddress;\n       troveManagerRedemptionsAddress = _troveManagerRedemptionsAddress;\n        collSurplusPoolAddress = _collSurplusPoolAddress;\n\n      //  emit BorrowerOperationsAddressChanged(_borrowerOperationsAddress);\n       // emit TroveManagerAddressChanged(_troveManagerAddress);\n       // emit StabilityPoolAddressChanged(_stabilityPoolAddress);\n       // emit DefaultPoolAddressChanged(_defaultPoolAddress);\n       // emit WhitelistAddressChanged(_whitelistAddress);\n\n        _renounceOwnership();\n    }\n\n     // --- Internal Functions ---\n\n    // --- Getters for public variables. Required by IPool interface ---\n\n    /*\n    * Returns the amount of a given collateral in state. Not necessarily the contract's actual balance.\n    */\n    function getCollateral(address _collateral) public view  returns (uint) {\n        return poolColl.amounts[whitelist.getIndex(_collateral)];\n    }\n\n      // Debt that this pool holds. \n    function getSUSDDebt() external view  returns (uint) {\n        return SUSDDebt;\n    }\n\n\n      // --- Pool functionality ---\n\n    // Internal function to send collateral to a different pool. \n    function _sendCollateral(address _to, address _collateral, uint _amount) internal {\n        uint index = whitelist.getIndex(_collateral);\n        poolColl.amounts[index] = poolColl.amounts[index].sub(_amount);\n        IERC20(_collateral).safeTransfer(_to, _amount);\n\n        emit ActivePoolBalanceUpdated(_collateral, _amount);\n      //  emit CollateralSent(_collateral, _to, _amount);\n    }\n\n    // Function sends collaterals from active pool.\n    // Must be called by borrower operations, trove manager, or stability pool.\n    function sendCollaterals(address _to, address[] calldata _tokens, uint[] calldata _amounts) external  {\n        _requireCallerIsBOorTroveMorTMLorSP();\n        uint256 len = _tokens.length;\n        require(len == _amounts.length, \"AP:Lengths\");\n        for (uint256 i; i < len; ++i) {\n            uint256 thisAmount = _amounts[i];\n            if (thisAmount != 0) {\n                _sendCollateral(_to, _tokens[i], thisAmount); // reverts if send fails\n            }\n        }\n\n        if (_needsUpdateCollateral(_to)) {\n            ICollateralReceiver(_to).receiveCollateral(_tokens, _amounts);\n        }\n\n        //emit CollateralSent(_tokens, _amounts, _to);\n    }\n\n      // Function for sending single collateral. Currently only used by borrower operations unlever up functionality\n    function sendSingleCollateral(address _to, address _token, uint256 _amount) external  {\n        _requireCallerIsBorrowerOperations();\n        _sendCollateral(_to, _token, _amount); // reverts if send fails\n    }\n\n    // View function that returns if the contract transferring to needs to have its balances updated. \n    function _needsUpdateCollateral(address _contractAddress) internal view returns (bool) {\n        return ((_contractAddress == defaultPoolAddress) || (_contractAddress == stabilityPoolAddress) || (_contractAddress == collSurplusPoolAddress));\n    }\n\n        // Increases the YUSD Debt of this pool. \n    function increaseSUSDDebt(uint _amount) external  {\n        _requireCallerIsBOorTroveM();\n        SUSDDebt  = SUSDDebt.add(_amount);\n        emit ActivePoolSUSDDebtUpdated(SUSDDebt);\n    }\n\n    // Decreases the YUSD Debt of this pool. \n    function decreaseSUSDDebt(uint _amount) external  {\n        _requireCallerIsBOorTroveMorSP();\n        SUSDDebt = SUSDDebt.sub(_amount);\n        emit ActivePoolSUSDDebtUpdated(SUSDDebt);\n    }\n\n    // --- 'require' functions ---\n\n    function _requireCallerIsBOorTroveMorTMLorSP() internal view {\n        if (\n            msg.sender != borrowerOperationsAddress &&\n            msg.sender != troveManagerAddress &&\n            msg.sender != stabilityPoolAddress &&\n            msg.sender != troveManagerLiquidationsAddress &&\n            msg.sender != troveManagerRedemptionsAddress) {\n                _revertWrongFuncCaller();\n            }\n    }\n\n    function _requireCallerIsBorrowerOperationsOrDefaultPool() internal view {\n        if (msg.sender != borrowerOperationsAddress &&\n            msg.sender != defaultPoolAddress) {\n                _revertWrongFuncCaller();\n            }\n    }\n\n    function _requireCallerIsBorrowerOperations() internal view {\n        if (msg.sender != borrowerOperationsAddress) {\n                _revertWrongFuncCaller();\n            }\n    }\n\n    function _requireCallerIsBOorTroveMorSP() internal view {\n        if (msg.sender != borrowerOperationsAddress &&\n            msg.sender != troveManagerAddress &&\n            msg.sender != stabilityPoolAddress &&\n            msg.sender != troveManagerRedemptionsAddress) {\n                _revertWrongFuncCaller();\n            }\n    }\n\n    function _requireCallerIsBOorTroveM() internal view {\n        if (msg.sender != borrowerOperationsAddress &&\n            msg.sender != troveManagerAddress) {\n                _revertWrongFuncCaller();\n            }\n    }\n\n    function _requireCallerIsWhitelist() internal view {\n        if (msg.sender != address(whitelist)) {\n            _revertWrongFuncCaller();\n        }\n    }\n\n    function _revertWrongFuncCaller() internal pure {\n        revert(\"AP: External caller not allowed\");\n    }\n\n    // should be called by BorrowerOperations or DefaultPool\n    // __after__ collateral is transferred to this contract.\n    function receiveCollateral(address[] calldata _tokens, uint[] calldata _amounts) external  {\n        _requireCallerIsBorrowerOperationsOrDefaultPool();\n        poolColl.amounts = _leftSumColls(poolColl, _tokens, _amounts);\n        //emit ActivePoolBalanceUpdated(_tokens, _amounts);\n    }\n\n    // Adds collateral type from whitelist. \n    function addCollateralType(address _collateral) external  {\n        _requireCallerIsWhitelist();\n        poolColl.tokens.push(_collateral);\n        poolColl.amounts.push(0);\n    }\n}\n",
  "sourcePath": "/Users/phaxsam/Core-Stability_Truffle/contracts/ActivePool.sol",
  "compiler": {
    "name": "solc",
    "version": "0.6.11+commit.5ef660b1.Emscripten.clang"
  },
  "schemaVersion": "3.4.9",
  "updatedAt": "2022-08-15T22:38:51.768Z",
  "devdoc": {
    "kind": "dev",
    "methods": {
      "isOwner()": {
        "details": "Returns true if the caller is the current owner."
      },
      "owner()": {
        "details": "Returns the address of the current owner."
      }
    },
    "version": 1
  },
  "userdoc": {
    "kind": "user",
    "methods": {},
    "version": 1
  }
}