{
  "contractName": "CollSurplusPool",
  "abi": [
    {
      "anonymous": false,
      "inputs": [
        {
          "indexed": false,
          "internalType": "address",
          "name": "_newActivePoolAddress",
          "type": "address"
        }
      ],
      "name": "ActivePoolAddressChanged",
      "type": "event"
    },
    {
      "anonymous": false,
      "inputs": [
        {
          "indexed": false,
          "internalType": "address",
          "name": "_newBorrowerOperationsAddress",
          "type": "address"
        }
      ],
      "name": "BorrowerOperationsAddressChanged",
      "type": "event"
    },
    {
      "anonymous": false,
      "inputs": [
        {
          "indexed": true,
          "internalType": "address",
          "name": "_account",
          "type": "address"
        }
      ],
      "name": "CollBalanceUpdated",
      "type": "event"
    },
    {
      "anonymous": false,
      "inputs": [
        {
          "indexed": false,
          "internalType": "address",
          "name": "_to",
          "type": "address"
        }
      ],
      "name": "CollateralSent",
      "type": "event"
    },
    {
      "anonymous": false,
      "inputs": [
        {
          "indexed": true,
          "internalType": "address",
          "name": "previousOwner",
          "type": "address"
        },
        {
          "indexed": true,
          "internalType": "address",
          "name": "newOwner",
          "type": "address"
        }
      ],
      "name": "OwnershipTransferred",
      "type": "event"
    },
    {
      "anonymous": false,
      "inputs": [
        {
          "indexed": false,
          "internalType": "address",
          "name": "_newTroveManagerAddress",
          "type": "address"
        }
      ],
      "name": "TroveManagerAddressChanged",
      "type": "event"
    },
    {
      "inputs": [],
      "name": "BORROWING_FEE_FLOOR",
      "outputs": [
        {
          "internalType": "uint256",
          "name": "",
          "type": "uint256"
        }
      ],
      "stateMutability": "view",
      "type": "function"
    },
    {
      "inputs": [],
      "name": "CCR",
      "outputs": [
        {
          "internalType": "uint256",
          "name": "",
          "type": "uint256"
        }
      ],
      "stateMutability": "view",
      "type": "function"
    },
    {
      "inputs": [],
      "name": "DECIMAL_PRECISION",
      "outputs": [
        {
          "internalType": "uint256",
          "name": "",
          "type": "uint256"
        }
      ],
      "stateMutability": "view",
      "type": "function"
    },
    {
      "inputs": [],
      "name": "MCR",
      "outputs": [
        {
          "internalType": "uint256",
          "name": "",
          "type": "uint256"
        }
      ],
      "stateMutability": "view",
      "type": "function"
    },
    {
      "inputs": [],
      "name": "MIN_NET_DEBT",
      "outputs": [
        {
          "internalType": "uint256",
          "name": "",
          "type": "uint256"
        }
      ],
      "stateMutability": "view",
      "type": "function"
    },
    {
      "inputs": [],
      "name": "NAME",
      "outputs": [
        {
          "internalType": "string",
          "name": "",
          "type": "string"
        }
      ],
      "stateMutability": "view",
      "type": "function"
    },
    {
      "inputs": [],
      "name": "REDEMPTION_FEE_FLOOR",
      "outputs": [
        {
          "internalType": "uint256",
          "name": "",
          "type": "uint256"
        }
      ],
      "stateMutability": "view",
      "type": "function"
    },
    {
      "inputs": [],
      "name": "SUSD_GAS_COMPENSATION",
      "outputs": [
        {
          "internalType": "uint256",
          "name": "",
          "type": "uint256"
        }
      ],
      "stateMutability": "view",
      "type": "function"
    },
    {
      "inputs": [],
      "name": "getEntireSystemColl",
      "outputs": [
        {
          "internalType": "uint256",
          "name": "",
          "type": "uint256"
        }
      ],
      "stateMutability": "view",
      "type": "function"
    },
    {
      "inputs": [],
      "name": "getEntireSystemDebt",
      "outputs": [
        {
          "internalType": "uint256",
          "name": "",
          "type": "uint256"
        }
      ],
      "stateMutability": "view",
      "type": "function"
    },
    {
      "inputs": [],
      "name": "isOwner",
      "outputs": [
        {
          "internalType": "bool",
          "name": "",
          "type": "bool"
        }
      ],
      "stateMutability": "view",
      "type": "function"
    },
    {
      "inputs": [],
      "name": "owner",
      "outputs": [
        {
          "internalType": "address",
          "name": "",
          "type": "address"
        }
      ],
      "stateMutability": "view",
      "type": "function"
    },
    {
      "inputs": [
        {
          "internalType": "address",
          "name": "_borrowerOperationsAddress",
          "type": "address"
        },
        {
          "internalType": "address",
          "name": "_troveManagerAddress",
          "type": "address"
        },
        {
          "internalType": "address",
          "name": "_troveManagerRedemptionsAddress",
          "type": "address"
        },
        {
          "internalType": "address",
          "name": "_activePoolAddress",
          "type": "address"
        },
        {
          "internalType": "address",
          "name": "_whitelistAddress",
          "type": "address"
        }
      ],
      "name": "setAddresses",
      "outputs": [],
      "stateMutability": "nonpayable",
      "type": "function"
    },
    {
      "inputs": [],
      "name": "getCollVC",
      "outputs": [
        {
          "internalType": "uint256",
          "name": "",
          "type": "uint256"
        }
      ],
      "stateMutability": "view",
      "type": "function"
    },
    {
      "inputs": [
        {
          "internalType": "address",
          "name": "_account",
          "type": "address"
        },
        {
          "internalType": "address",
          "name": "_collateral",
          "type": "address"
        }
      ],
      "name": "getAmountClaimable",
      "outputs": [
        {
          "internalType": "uint256",
          "name": "",
          "type": "uint256"
        }
      ],
      "stateMutability": "view",
      "type": "function"
    },
    {
      "inputs": [
        {
          "internalType": "address",
          "name": "_collateral",
          "type": "address"
        }
      ],
      "name": "getCollateral",
      "outputs": [
        {
          "internalType": "uint256",
          "name": "",
          "type": "uint256"
        }
      ],
      "stateMutability": "view",
      "type": "function"
    },
    {
      "inputs": [],
      "name": "getAllCollateral",
      "outputs": [
        {
          "internalType": "address[]",
          "name": "",
          "type": "address[]"
        },
        {
          "internalType": "uint256[]",
          "name": "",
          "type": "uint256[]"
        }
      ],
      "stateMutability": "view",
      "type": "function"
    },
    {
      "inputs": [
        {
          "internalType": "address",
          "name": "_account",
          "type": "address"
        },
        {
          "internalType": "address[]",
          "name": "_tokens",
          "type": "address[]"
        },
        {
          "internalType": "uint256[]",
          "name": "_amounts",
          "type": "uint256[]"
        }
      ],
      "name": "accountSurplus",
      "outputs": [],
      "stateMutability": "nonpayable",
      "type": "function"
    },
    {
      "inputs": [
        {
          "internalType": "address",
          "name": "_account",
          "type": "address"
        }
      ],
      "name": "claim",
      "outputs": [],
      "stateMutability": "nonpayable",
      "type": "function"
    },
    {
      "inputs": [
        {
          "internalType": "address[]",
          "name": "_tokens",
          "type": "address[]"
        },
        {
          "internalType": "uint256[]",
          "name": "_amounts",
          "type": "uint256[]"
        }
      ],
      "name": "receiveCollateral",
      "outputs": [],
      "stateMutability": "nonpayable",
      "type": "function"
    },
    {
      "inputs": [
        {
          "internalType": "address",
          "name": "_collateral",
          "type": "address"
        }
      ],
      "name": "addCollateralType",
      "outputs": [],
      "stateMutability": "nonpayable",
      "type": "function"
    }
  ],
  "bytecode": "0x608060405234801561001057600080fd5b50336000806101000a81548173ffffffffffffffffffffffffffffffffffffffff021916908373ffffffffffffffffffffffffffffffffffffffff1602179055503373ffffffffffffffffffffffffffffffffffffffff16600073ffffffffffffffffffffffffffffffffffffffff167f8be0079c531659141344cd1fd0a4f28419497f9722a3daafe3b4186f6b6457e060405160405180910390a361361f806100bb6000396000f3fe608060405234801561001057600080fd5b50600436106101375760003560e01c80638da5cb5b116100b8578063a3f4df7e1161007c578063a3f4df7e146105dc578063a7a24edd1461065f578063c6ba0936146107ab578063dd33cf0314610852578063ec0d5e0c14610870578063f92d3433146108b457610137565b80638da5cb5b1461038e5780638f32d59b146103d85780639b56d6c9146103fa5780639efc9e2014610452578063a20baee6146105be57610137565b806361721554116100ff578063617215541461029e578063794e572414610316578063795d26c31461033457806387dc665614610352578063887105d31461037057610137565b80631bf435551461013c5780631e83409a1461015a57806328d28b5b1461019e5780635733d58f146101bc5780635dd68acd146101da575b600080fd5b6101446108d2565b6040518082815260200191505060405180910390f35b61019c6004803603602081101561017057600080fd5b81019080803573ffffffffffffffffffffffffffffffffffffffff1690602001909291905050506108df565b005b6101a6610d13565b6040518082815260200191505060405180910390f35b6101c4610d2d565b6040518082815260200191505060405180910390f35b61029c600480360360a08110156101f057600080fd5b81019080803573ffffffffffffffffffffffffffffffffffffffff169060200190929190803573ffffffffffffffffffffffffffffffffffffffff169060200190929190803573ffffffffffffffffffffffffffffffffffffffff169060200190929190803573ffffffffffffffffffffffffffffffffffffffff169060200190929190803573ffffffffffffffffffffffffffffffffffffffff169060200190929190505050610d39565b005b610300600480360360408110156102b457600080fd5b81019080803573ffffffffffffffffffffffffffffffffffffffff169060200190929190803573ffffffffffffffffffffffffffffffffffffffff16906020019092919050505061105d565b6040518082815260200191505060405180910390f35b61031e6111f5565b6040518082815260200191505060405180910390f35b61033c611201565b6040518082815260200191505060405180910390f35b61035a61136a565b6040518082815260200191505060405180910390f35b610378611377565b6040518082815260200191505060405180910390f35b610396611421565b604051808273ffffffffffffffffffffffffffffffffffffffff1673ffffffffffffffffffffffffffffffffffffffff16815260200191505060405180910390f35b6103e061144a565b604051808215151515815260200191505060405180910390f35b61043c6004803603602081101561041057600080fd5b81019080803573ffffffffffffffffffffffffffffffffffffffff1690602001909291905050506114a1565b6040518082815260200191505060405180910390f35b6105bc6004803603606081101561046857600080fd5b81019080803573ffffffffffffffffffffffffffffffffffffffff169060200190929190803590602001906401000000008111156104a557600080fd5b8201836020820111156104b757600080fd5b803590602001918460208302840111640100000000831117156104d957600080fd5b919080806020026020016040519081016040528093929190818152602001838360200280828437600081840152601f19601f8201169050808301925050505050505091929192908035906020019064010000000081111561053957600080fd5b82018360208201111561054b57600080fd5b8035906020019184602083028401116401000000008311171561056d57600080fd5b919080806020026020016040519081016040528093929190818152602001838360200280828437600081840152601f19601f8201169050808301925050505050505091929192905050506115a3565b005b6105c66117bc565b6040518082815260200191505060405180910390f35b6105e46117c8565b6040518080602001828103825283818151815260200191508051906020019080838360005b83811015610624578082015181840152602081019050610609565b50505050905090810190601f1680156106515780820380516001836020036101000a031916815260200191505b509250505060405180910390f35b6107a96004803603604081101561067557600080fd5b810190808035906020019064010000000081111561069257600080fd5b8201836020820111156106a457600080fd5b803590602001918460208302840111640100000000831117156106c657600080fd5b919080806020026020016040519081016040528093929190818152602001838360200280828437600081840152601f19601f8201169050808301925050505050505091929192908035906020019064010000000081111561072657600080fd5b82018360208201111561073857600080fd5b8035906020019184602083028401116401000000008311171561075a57600080fd5b919080806020026020016040519081016040528093929190818152602001838360200280828437600081840152601f19601f820116905080830192505050505050509192919290505050611801565b005b6107b3611923565b604051808060200180602001838103835285818151815260200191508051906020019060200280838360005b838110156107fa5780820151818401526020810190506107df565b50505050905001838103825284818151815260200191508051906020019060200280838360005b8381101561083c578082015181840152602081019050610821565b5050505090500194505050505060405180910390f35b61085a611a12565b6040518082815260200191505060405180910390f35b6108b26004803603602081101561088657600080fd5b81019080803573ffffffffffffffffffffffffffffffffffffffff169060200190929190505050611b14565b005b6108bc611bb2565b6040518082815260200191505060405180910390f35b68056bc75e2d6310000081565b6108e7611bcc565b6108ef613440565b600a60008373ffffffffffffffffffffffffffffffffffffffff1673ffffffffffffffffffffffffffffffffffffffff168152602001908152602001600020604051806040016040529081600082018054806020026020016040519081016040528092919081815260200182805480156109be57602002820191906000526020600020905b8160009054906101000a900473ffffffffffffffffffffffffffffffffffffffff1673ffffffffffffffffffffffffffffffffffffffff1681526020019060010190808311610974575b5050505050815260200160018201805480602002602001604051908101604052809291908181526020018280548015610a1657602002820191906000526020600020905b815481526020019060010190808311610a02575b5050505050815250509050610a2a81611c2c565b610a9c576040517f08c379a000000000000000000000000000000000000000000000000000000000815260040180806020018281038252601c8152602001807f4353503a204e6f20636f6c6c61746572616c20617661696c61626c650000000081525060200191505060405180910390fd5b60086000018054905067ffffffffffffffff81118015610abb57600080fd5b50604051908082528060200260200182016040528015610aea5781602001602082028036833780820191505090505b50600a60008473ffffffffffffffffffffffffffffffffffffffff1673ffffffffffffffffffffffffffffffffffffffff1681526020019081526020016000206001019080519060200190610b4092919061345a565b508173ffffffffffffffffffffffffffffffffffffffff167f6b2ad5b68fc200b778014cdb888224cf17eb4dde84391e0664599b723958b84660405160405180910390a2610c89600860405180604001604052908160008201805480602002602001604051908101604052809291908181526020018280548015610c1957602002820191906000526020600020905b8160009054906101000a900473ffffffffffffffffffffffffffffffffffffffff1673ffffffffffffffffffffffffffffffffffffffff1681526020019060010190808311610bcf575b5050505050815260200160018201805480602002602001604051908101604052809291908181526020018280548015610c7157602002820191906000526020600020905b815481526020019060010190808311610c5d575b50505050508152505082600001518360200151611c83565b60086001019080519060200190610ca192919061345a565b507f7636482499a16d29b05db7b6a6f35d00f2df69ce1104c82d1f6d288e68ef15eb82604051808273ffffffffffffffffffffffffffffffffffffffff1673ffffffffffffffffffffffffffffffffffffffff16815260200191505060405180910390a1610d0f8282611e19565b5050565b60056103e8670de0b6b3a764000081610d2857fe5b040281565b6714d1120d7b16000081565b610d4161144a565b610db3576040517f08c379a000000000000000000000000000000000000000000000000000000000815260040180806020018281038252600e8152602001807f43616c6c65724e6f744f776e657200000000000000000000000000000000000081525060200191505060405180910390fd5b610dbc8561206d565b610dc58461206d565b610dce8361206d565b610dd78261206d565b610de08161206d565b84600460006101000a81548173ffffffffffffffffffffffffffffffffffffffff021916908373ffffffffffffffffffffffffffffffffffffffff16021790555083600560006101000a81548173ffffffffffffffffffffffffffffffffffffffff021916908373ffffffffffffffffffffffffffffffffffffffff16021790555082600660006101000a81548173ffffffffffffffffffffffffffffffffffffffff021916908373ffffffffffffffffffffffffffffffffffffffff16021790555081600760006101000a81548173ffffffffffffffffffffffffffffffffffffffff021916908373ffffffffffffffffffffffffffffffffffffffff16021790555080600160006101000a81548173ffffffffffffffffffffffffffffffffffffffff021916908373ffffffffffffffffffffffffffffffffffffffff1602179055507f3ca631ffcd2a9b5d9ae18543fc82f58eb4ca33af9e6ab01b7a8e95331e6ed98585604051808273ffffffffffffffffffffffffffffffffffffffff1673ffffffffffffffffffffffffffffffffffffffff16815260200191505060405180910390a17f143219c9e69b09e07e095fcc889b43d8f46ca892bba65f08dc3a0050869a567884604051808273ffffffffffffffffffffffffffffffffffffffff1673ffffffffffffffffffffffffffffffffffffffff16815260200191505060405180910390a17f78f058b189175430c48dc02699e3a0031ea4ff781536dc2fab847de4babdd88282604051808273ffffffffffffffffffffffffffffffffffffffff1673ffffffffffffffffffffffffffffffffffffffff16815260200191505060405180910390a1611056612191565b5050505050565b600080600160009054906101000a900473ffffffffffffffffffffffffffffffffffffffff1673ffffffffffffffffffffffffffffffffffffffff1663b31610db846040518263ffffffff1660e01b8152600401808273ffffffffffffffffffffffffffffffffffffffff1673ffffffffffffffffffffffffffffffffffffffff16815260200191505060206040518083038186803b1580156110ff57600080fd5b505afa158015611113573d6000803e3d6000fd5b505050506040513d602081101561112957600080fd5b8101908080519060200190929190505050905080600a60008673ffffffffffffffffffffffffffffffffffffffff1673ffffffffffffffffffffffffffffffffffffffff1681526020019081526020016000206001018054905011156111e957600a60008573ffffffffffffffffffffffffffffffffffffffff1673ffffffffffffffffffffffffffffffffffffffff16815260200190815260200160002060010181815481106111d657fe5b90600052602060002001549150506111ef565b60009150505b92915050565b670f43fc2c04ee000081565b600080600260009054906101000a900473ffffffffffffffffffffffffffffffffffffffff1673ffffffffffffffffffffffffffffffffffffffff1663c24103646040518163ffffffff1660e01b815260040160206040518083038186803b15801561126c57600080fd5b505afa158015611280573d6000803e3d6000fd5b505050506040513d602081101561129657600080fd5b810190808051906020019092919050505090506000600360009054906101000a900473ffffffffffffffffffffffffffffffffffffffff1673ffffffffffffffffffffffffffffffffffffffff1663c24103646040518163ffffffff1660e01b815260040160206040518083038186803b15801561131357600080fd5b505afa158015611327573d6000803e3d6000fd5b505050506040513d602081101561133d57600080fd5b81019080805190602001909291905050509050611363818361225090919063ffffffff16565b9250505090565b6802b5e3af16b188000081565b6000600260009054906101000a900473ffffffffffffffffffffffffffffffffffffffff1673ffffffffffffffffffffffffffffffffffffffff1663651340c46040518163ffffffff1660e01b815260040160206040518083038186803b1580156113e157600080fd5b505afa1580156113f5573d6000803e3d6000fd5b505050506040513d602081101561140b57600080fd5b8101908080519060200190929190505050905090565b60008060009054906101000a900473ffffffffffffffffffffffffffffffffffffffff16905090565b60008060009054906101000a900473ffffffffffffffffffffffffffffffffffffffff1673ffffffffffffffffffffffffffffffffffffffff163373ffffffffffffffffffffffffffffffffffffffff1614905090565b600080600160009054906101000a900473ffffffffffffffffffffffffffffffffffffffff1673ffffffffffffffffffffffffffffffffffffffff1663b31610db846040518263ffffffff1660e01b8152600401808273ffffffffffffffffffffffffffffffffffffffff1673ffffffffffffffffffffffffffffffffffffffff16815260200191505060206040518083038186803b15801561154357600080fd5b505afa158015611557573d6000803e3d6000fd5b505050506040513d602081101561156d57600080fd5b810190808051906020019092919050505090506008600101818154811061159057fe5b9060005260206000200154915050919050565b6115ab6122d8565b6116f8600a60008573ffffffffffffffffffffffffffffffffffffffff1673ffffffffffffffffffffffffffffffffffffffff1681526020019081526020016000206040518060400160405290816000820180548060200260200160405190810160405280929190818152602001828054801561167d57602002820191906000526020600020905b8160009054906101000a900473ffffffffffffffffffffffffffffffffffffffff1673ffffffffffffffffffffffffffffffffffffffff1681526020019060010190808311611633575b50505050508152602001600182018054806020026020016040519081016040528092919081815260200182805480156116d557602002820191906000526020600020905b8154815260200190600101908083116116c1575b505050505081525050604051806040016040528085815260200184815250612394565b600a60008573ffffffffffffffffffffffffffffffffffffffff1673ffffffffffffffffffffffffffffffffffffffff16815260200190815260200160002060008201518160000190805190602001906117539291906134a7565b50602082015181600101908051906020019061177092919061345a565b509050508273ffffffffffffffffffffffffffffffffffffffff167f6b2ad5b68fc200b778014cdb888224cf17eb4dde84391e0664599b723958b84660405160405180910390a2505050565b670de0b6b3a764000081565b6040518060400160405280600f81526020017f436f6c6c537572706c7573506f6f6c000000000000000000000000000000000081525081565b611809612a43565b61190660086040518060400160405290816000820180548060200260200160405190810160405280929190818152602001828054801561189e57602002820191906000526020600020905b8160009054906101000a900473ffffffffffffffffffffffffffffffffffffffff1673ffffffffffffffffffffffffffffffffffffffff1681526020019060010190808311611854575b50505050508152602001600182018054806020026020016040519081016040528092919081815260200182805480156118f657602002820191906000526020600020905b8154815260200190600101908083116118e2575b5050505050815250508383612aa3565b6008600101908051906020019061191e92919061345a565b505050565b60608060086000016008600101818054806020026020016040519081016040528092919081815260200182805480156119b157602002820191906000526020600020905b8160009054906101000a900473ffffffffffffffffffffffffffffffffffffffff1673ffffffffffffffffffffffffffffffffffffffff1681526020019060010190808311611967575b5050505050915080805480602002602001604051908101604052809291908181526020018280548015611a0357602002820191906000526020600020905b8154815260200190600101908083116119ef575b50505050509050915091509091565b6000611b0f600860405180604001604052908160008201805480602002602001604051908101604052809291908181526020018280548015611aa957602002820191906000526020600020905b8160009054906101000a900473ffffffffffffffffffffffffffffffffffffffff1673ffffffffffffffffffffffffffffffffffffffff1681526020019060010190808311611a5f575b5050505050815260200160018201805480602002602001604051908101604052809291908181526020018280548015611b0157602002820191906000526020600020905b815481526020019060010190808311611aed575b505050505081525050612c39565b905090565b611b1c612d82565b6008600001819080600181540180825580915050600190039060005260206000200160009091909190916101000a81548173ffffffffffffffffffffffffffffffffffffffff021916908373ffffffffffffffffffffffffffffffffffffffff16021790555060086001016000908060018154018082558091505060019003906000526020600020016000909190919091505550565b60056103e8670de0b6b3a764000081611bc757fe5b040281565b600460009054906101000a900473ffffffffffffffffffffffffffffffffffffffff1673ffffffffffffffffffffffffffffffffffffffff163373ffffffffffffffffffffffffffffffffffffffff1614611c2a57611c29612de2565b5b565b600080826000015151905060005b81811015611c7757600084602001518281518110611c5457fe5b602002602001015114611c6c57600192505050611c7e565b806001019050611c3a565b5060009150505b919050565b6060600083511415611c9b5783602001519050611e12565b6060611caa8560200151612e50565b905060008451905060005b81811015611e0b576000600160009054906101000a900473ffffffffffffffffffffffffffffffffffffffff1673ffffffffffffffffffffffffffffffffffffffff1663b31610db888481518110611d0957fe5b60200260200101516040518263ffffffff1660e01b8152600401808273ffffffffffffffffffffffffffffffffffffffff1673ffffffffffffffffffffffffffffffffffffffff16815260200191505060206040518083038186803b158015611d7157600080fd5b505afa158015611d85573d6000803e3d6000fd5b505050506040513d6020811015611d9b57600080fd5b81019080805190602001909291905050509050611de7868381518110611dbd57fe5b6020026020010151858381518110611dd157fe5b6020026020010151612ef090919063ffffffff16565b848281518110611df357fe5b60200260200101818152505050806001019050611cb5565b5081925050505b9392505050565b6000816000015151905060005b8181101561206757600083600001518281518110611e4057fe5b60200260200101519050600160009054906101000a900473ffffffffffffffffffffffffffffffffffffffff1673ffffffffffffffffffffffffffffffffffffffff1663495ee13e826040518263ffffffff1660e01b8152600401808273ffffffffffffffffffffffffffffffffffffffff1673ffffffffffffffffffffffffffffffffffffffff16815260200191505060206040518083038186803b158015611ee957600080fd5b505afa158015611efd573d6000803e3d6000fd5b505050506040513d6020811015611f1357600080fd5b810190808051906020019092919050505015612018578073ffffffffffffffffffffffffffffffffffffffff1663261c80b6868787602001518681518110611f5757fe5b60200260200101516040518463ffffffff1660e01b8152600401808473ffffffffffffffffffffffffffffffffffffffff1673ffffffffffffffffffffffffffffffffffffffff1681526020018373ffffffffffffffffffffffffffffffffffffffff1673ffffffffffffffffffffffffffffffffffffffff1681526020018281526020019350505050600060405180830381600087803b158015611ffb57600080fd5b505af115801561200f573d6000803e3d6000fd5b5050505061205b565b61205a858560200151848151811061202c57fe5b60200260200101518373ffffffffffffffffffffffffffffffffffffffff16612f3a9092919063ffffffff16565b5b50806001019050611e26565b50505050565b600073ffffffffffffffffffffffffffffffffffffffff168173ffffffffffffffffffffffffffffffffffffffff161415612110576040517f08c379a000000000000000000000000000000000000000000000000000000000815260040180806020018281038252601e8152602001807f4163636f756e742063616e6e6f74206265207a65726f2061646472657373000081525060200191505060405180910390fd5b6000813b9050600081141561218d576040517f08c379a00000000000000000000000000000000000000000000000000000000081526004018080602001828103825260208152602001807f4163636f756e7420636f64652073697a652063616e6e6f74206265207a65726f81525060200191505060405180910390fd5b5050565b600073ffffffffffffffffffffffffffffffffffffffff166000809054906101000a900473ffffffffffffffffffffffffffffffffffffffff1673ffffffffffffffffffffffffffffffffffffffff167f8be0079c531659141344cd1fd0a4f28419497f9722a3daafe3b4186f6b6457e060405160405180910390a360008060006101000a81548173ffffffffffffffffffffffffffffffffffffffff021916908373ffffffffffffffffffffffffffffffffffffffff160217905550565b6000808284019050838110156122ce576040517f08c379a000000000000000000000000000000000000000000000000000000000815260040180806020018281038252600c8152602001807f616464206f766572666c6f77000000000000000000000000000000000000000081525060200191505060405180910390fd5b8091505092915050565b600560009054906101000a900473ffffffffffffffffffffffffffffffffffffffff1673ffffffffffffffffffffffffffffffffffffffff163373ffffffffffffffffffffffffffffffffffffffff16141580156123845750600660009054906101000a900473ffffffffffffffffffffffffffffffffffffffff1673ffffffffffffffffffffffffffffffffffffffff163373ffffffffffffffffffffffffffffffffffffffff1614155b1561239257612391612de2565b5b565b61239c613440565b6000826000015151905060008114156123b85783915050612a3d565b6123c0613440565b600160009054906101000a900473ffffffffffffffffffffffffffffffffffffffff1673ffffffffffffffffffffffffffffffffffffffff16639d6aea0a6040518163ffffffff1660e01b815260040160006040518083038186803b15801561242857600080fd5b505afa15801561243c573d6000803e3d6000fd5b505050506040513d6000823e3d601f19601f82011682018060405250602081101561246657600080fd5b810190808051604051939291908464010000000082111561248657600080fd5b8382019150602082018581111561249c57600080fd5b82518660208202830111640100000000821117156124b957600080fd5b8083526020830192505050908051906020019060200280838360005b838110156124f05780820151818401526020810190506124d5565b50505050905001604052505050816000018190525060008560000151519050600082600001515190508067ffffffffffffffff8111801561253057600080fd5b5060405190808252806020026020018201604052801561255f5781602001602082028036833780820191505090505b5083602001819052506000805b838110156126d1576000600160009054906101000a900473ffffffffffffffffffffffffffffffffffffffff1673ffffffffffffffffffffffffffffffffffffffff1663b31610db8b6000015184815181106125c457fe5b60200260200101516040518263ffffffff1660e01b8152600401808273ffffffffffffffffffffffffffffffffffffffff1673ffffffffffffffffffffffffffffffffffffffff16815260200191505060206040518083038186803b15801561262c57600080fd5b505afa158015612640573d6000803e3d6000fd5b505050506040513d602081101561265657600080fd5b8101908080519060200190929190505050905060008a60200151838151811061267b57fe5b6020026020010151146126c5578280600101935050896020015182815181106126a057fe5b6020026020010151866020015182815181106126b857fe5b6020026020010181815250505b5080600101905061256c565b5060005b858110156128bd576000600160009054906101000a900473ffffffffffffffffffffffffffffffffffffffff1673ffffffffffffffffffffffffffffffffffffffff1663b31610db8a60000151848151811061272d57fe5b60200260200101516040518263ffffffff1660e01b8152600401808273ffffffffffffffffffffffffffffffffffffffff1673ffffffffffffffffffffffffffffffffffffffff16815260200191505060206040518083038186803b15801561279557600080fd5b505afa1580156127a9573d6000803e3d6000fd5b505050506040513d60208110156127bf57600080fd5b810190808051906020019092919050505090506000896020015183815181106127e457fe5b6020026020010151146128b15760008660200151828151811061280357fe5b60200260200101511415612852578860200151828151811061282157fe5b60200260200101518660200151828151811061283957fe5b60200260200101818152505082806001019350506128b0565b6128938960200151838151811061286557fe5b60200260200101518760200151838151811061287d57fe5b602002602001015161225090919063ffffffff16565b866020015182815181106128a357fe5b6020026020010181815250505b5b508060010190506126d5565b5060608167ffffffffffffffff811180156128d757600080fd5b506040519080825280602002602001820160405280156129065781602001602082028036833780820191505090505b50905060608267ffffffffffffffff8111801561292257600080fd5b506040519080825280602002602001820160405280156129515781602001602082028036833780820191505090505b5090506000805b85811015612a215760008860200151828151811061297257fe5b602002602001015114612a16578760000151818151811061298f57fe5b60200260200101518483815181106129a357fe5b602002602001019073ffffffffffffffffffffffffffffffffffffffff16908173ffffffffffffffffffffffffffffffffffffffff1681525050876020015181815181106129ed57fe5b6020026020010151838381518110612a0157fe5b60200260200101818152505081806001019250505b806001019050612958565b5082896000018190525081896020018190525050505050505050505b92915050565b600760009054906101000a900473ffffffffffffffffffffffffffffffffffffffff1673ffffffffffffffffffffffffffffffffffffffff163373ffffffffffffffffffffffffffffffffffffffff1614612aa157612aa0612de2565b5b565b6060600082511415612abb5783602001519050612c32565b6060612aca8560200151612e50565b905060008451905060005b81811015612c2b576000600160009054906101000a900473ffffffffffffffffffffffffffffffffffffffff1673ffffffffffffffffffffffffffffffffffffffff1663b31610db888481518110612b2957fe5b60200260200101516040518263ffffffff1660e01b8152600401808273ffffffffffffffffffffffffffffffffffffffff1673ffffffffffffffffffffffffffffffffffffffff16815260200191505060206040518083038186803b158015612b9157600080fd5b505afa158015612ba5573d6000803e3d6000fd5b505050506040513d6020811015612bbb57600080fd5b81019080805190602001909291905050509050612c07868381518110612bdd57fe5b6020026020010151858381518110612bf157fe5b602002602001015161225090919063ffffffff16565b848281518110612c1357fe5b60200260200101818152505050806001019050612ad5565b5081925050505b9392505050565b6000600160009054906101000a900473ffffffffffffffffffffffffffffffffffffffff1673ffffffffffffffffffffffffffffffffffffffff166397a4b9f7836000015184602001516040518363ffffffff1660e01b8152600401808060200180602001838103835285818151815260200191508051906020019060200280838360005b83811015612cd9578082015181840152602081019050612cbe565b50505050905001838103825284818151815260200191508051906020019060200280838360005b83811015612d1b578082015181840152602081019050612d00565b5050505090500194505050505060206040518083038186803b158015612d4057600080fd5b505afa158015612d54573d6000803e3d6000fd5b505050506040513d6020811015612d6a57600080fd5b81019080805190602001909291905050509050919050565b600160009054906101000a900473ffffffffffffffffffffffffffffffffffffffff1673ffffffffffffffffffffffffffffffffffffffff163373ffffffffffffffffffffffffffffffffffffffff1614612de057612ddf612de2565b5b565b6040517f08c379a00000000000000000000000000000000000000000000000000000000081526004018080602001828103825260208152602001807f4353503a2045787465726e616c2063616c6c6572206e6f7420616c6c6f77656481525060200191505060405180910390fd5b606060008251905060608167ffffffffffffffff81118015612e7157600080fd5b50604051908082528060200260200182016040528015612ea05781602001602082028036833780820191505090505b50905060005b82811015612ee557848181518110612eba57fe5b6020026020010151828281518110612ece57fe5b602002602001018181525050806001019050612ea6565b508092505050919050565b6000612f3283836040518060400160405280600c81526020017f737562206f766572666c6f770000000000000000000000000000000000000000815250612ff2565b905092915050565b612fed8363a9059cbb60e01b8484604051602401808373ffffffffffffffffffffffffffffffffffffffff1673ffffffffffffffffffffffffffffffffffffffff16815260200182815260200192505050604051602081830303815290604052907bffffffffffffffffffffffffffffffffffffffffffffffffffffffff19166020820180517bffffffffffffffffffffffffffffffffffffffffffffffffffffffff83818316178352505050506130b2565b505050565b600083831115829061309f576040517f08c379a00000000000000000000000000000000000000000000000000000000081526004018080602001828103825283818151815260200191508051906020019080838360005b83811015613064578082015181840152602081019050613049565b50505050905090810190601f1680156130915780820380516001836020036101000a031916815260200191505b509250505060405180910390fd5b5060008385039050809150509392505050565b6060613114826040518060400160405280602081526020017f5361666545524332303a206c6f772d6c6576656c2063616c6c206661696c65648152508573ffffffffffffffffffffffffffffffffffffffff166131a09092919063ffffffff16565b9050600081511461319b5780806020019051602081101561313457600080fd5b810190808051906020019092919050505061319a576040517f08c379a000000000000000000000000000000000000000000000000000000000815260040180806020018281038252602a8152602001806135c0602a913960400191505060405180910390fd5b5b505050565b60606131af84846000856131b8565b90509392505050565b606082471015613213576040517f08c379a000000000000000000000000000000000000000000000000000000000815260040180806020018281038252602681526020018061359a6026913960400191505060405180910390fd5b61321c85613361565b61328e576040517f08c379a000000000000000000000000000000000000000000000000000000000815260040180806020018281038252601d8152602001807f416464726573733a2063616c6c20746f206e6f6e2d636f6e747261637400000081525060200191505060405180910390fd5b600060608673ffffffffffffffffffffffffffffffffffffffff1685876040518082805190602001908083835b602083106132de57805182526020820191506020810190506020830392506132bb565b6001836020036101000a03801982511681845116808217855250505050505090500191505060006040518083038185875af1925050503d8060008114613340576040519150601f19603f3d011682016040523d82523d6000602084013e613345565b606091505b5091509150613355828286613375565b92505050949350505050565b600080823b90506000811415915050919050565b6060831561338557829050613439565b60008351146133975782518084602001fd5b816040517f08c379a00000000000000000000000000000000000000000000000000000000081526004018080602001828103825283818151815260200191508051906020019080838360005b838110156133fe5780820151818401526020810190506133e3565b50505050905090810190601f16801561342b5780820380516001836020036101000a031916815260200191505b509250505060405180910390fd5b9392505050565b604051806040016040528060608152602001606081525090565b828054828255906000526020600020908101928215613496579160200282015b8281111561349557825182559160200191906001019061347a565b5b5090506134a39190613531565b5090565b828054828255906000526020600020908101928215613520579160200282015b8281111561351f5782518260006101000a81548173ffffffffffffffffffffffffffffffffffffffff021916908373ffffffffffffffffffffffffffffffffffffffff160217905550916020019190600101906134c7565b5b50905061352d9190613556565b5090565b61355391905b8082111561354f576000816000905550600101613537565b5090565b90565b61359691905b8082111561359257600081816101000a81549073ffffffffffffffffffffffffffffffffffffffff02191690555060010161355c565b5090565b9056fe416464726573733a20696e73756666696369656e742062616c616e636520666f722063616c6c5361666545524332303a204552433230206f7065726174696f6e20646964206e6f742073756363656564a264697066735822122014278562ce40e4bbbeb70d51d6ccf0b3e07d3ecd5074dd07335e7b2ee5ac1f0064736f6c634300060b0033",
  "immutableReferences": {},
  "source": "// SPDX-License-Identifier: UNLICENSED\n\npragma solidity 0.6.11;\n\nimport \"../Interfaces/ICollSurplusPool.sol\";\nimport \"../Interfaces/IWhitelist.sol\";\nimport \"../Dependencies/SafeMath.sol\";\nimport \"../Dependencies/Ownable.sol\";\nimport \"../Dependencies/CheckContract.sol\";\nimport \"../Dependencies/PoolBase.sol\";\nimport \"../Interfaces/IWAsset.sol\";\nimport \"../Dependencies/SafeERC20.sol\";\n\n\n/**\n * The CollSurplusPool holds all the bonus collateral that occurs from liquidations and\n * redemptions, to be claimed by the trove owner.\n */\ncontract CollSurplusPool is Ownable, CheckContract,  PoolBase {\n    using SafeMath for uint256;\n    using SafeERC20 for IERC20;\n\n    string public constant NAME = \"CollSurplusPool\";\n\n    address internal borrowerOperationsAddress;\n    address internal troveManagerAddress;\n    address internal troveManagerRedemptionsAddress;\n    address internal activePoolAddress;\n\n    // deposited collateral tracker. Colls is always the whitelist list of all collateral tokens. Amounts\n    newColls internal poolColl;\n\n    // Collateral surplus claimable by trove owners\n    mapping(address => newColls) internal balances;\n\n    // --- Events ---\n\n    event BorrowerOperationsAddressChanged(address _newBorrowerOperationsAddress);\n    event TroveManagerAddressChanged(address _newTroveManagerAddress);\n    event ActivePoolAddressChanged(address _newActivePoolAddress);\n\n    event CollBalanceUpdated(address indexed _account);\n    event CollateralSent(address _to);\n\n    // --- Contract setters ---\n\n    function setAddresses(\n        address _borrowerOperationsAddress,\n        address _troveManagerAddress,\n        address _troveManagerRedemptionsAddress,\n        address _activePoolAddress,\n        address _whitelistAddress\n    ) external  onlyOwner {\n        checkContract(_borrowerOperationsAddress);\n        checkContract(_troveManagerAddress);\n        checkContract(_troveManagerRedemptionsAddress);\n        checkContract(_activePoolAddress);\n        checkContract(_whitelistAddress);\n\n        borrowerOperationsAddress = _borrowerOperationsAddress;\n        troveManagerAddress = _troveManagerAddress;\n        troveManagerRedemptionsAddress = _troveManagerRedemptionsAddress;\n        activePoolAddress = _activePoolAddress;\n        whitelist = IWhitelist(_whitelistAddress);\n\n        emit BorrowerOperationsAddressChanged(_borrowerOperationsAddress);\n        emit TroveManagerAddressChanged(_troveManagerAddress);\n        emit ActivePoolAddressChanged(_activePoolAddress);\n\n        _renounceOwnership();\n    }\n\n    /*\n     * Returns the VC of the contract\n     *\n     * Not necessarily equal to the the contract's raw VC balance - Collateral can be forcibly sent to contracts.\n     *\n     * Computed when called by taking the collateral balances and\n     * multiplying them by the corresponding price and ratio and then summing that\n     */\n    function getCollVC() external view  returns (uint256) {\n        return _getVCColls(poolColl);\n    }\n\n    /*\n     * View function for getting the amount claimable by a particular trove owner.\n     */\n    function getAmountClaimable(address _account, address _collateral)\n        external\n        view\n        \n        returns (uint256)\n    {\n        uint256 collateralIndex = whitelist.getIndex(_collateral);\n        if (balances[_account].amounts.length > collateralIndex) {\n            return balances[_account].amounts[collateralIndex];\n        }\n        return 0;\n    }\n\n    /*\n     * Returns the collateralBalance for a given collateral\n     *\n     * Returns the amount of a given collateral in state. Not necessarily the contract's actual balance.\n     */\n    function getCollateral(address _collateral) external view  returns (uint256) {\n        uint256 collateralIndex = whitelist.getIndex(_collateral);\n        return poolColl.amounts[collateralIndex];\n    }\n\n    /*\n     *\n     * Returns all collateral balances in state. Not necessarily the contract's actual balances.\n     */\n    function getAllCollateral() external view  returns (address[] memory, uint256[] memory) {\n        return (poolColl.tokens, poolColl.amounts);\n    }\n\n    // --- Pool functionality ---\n\n    // Surplus value is accounted by the trove manager.\n    function accountSurplus(\n        address _account,\n        address[] memory _tokens,\n        uint256[] memory _amounts\n    ) external {\n        _requireCallerIsTroveManager();\n        balances[_account] = _sumColls(balances[_account], newColls(_tokens, _amounts));\n        emit CollBalanceUpdated(_account);\n    }\n\n    // Function called by borrower operations which claims the collateral that is owned by\n    // a particular trove user.\n    function claim(address _account) external  {\n        _requireCallerIsBorrowerOperations();\n\n        newColls memory claimableColl = balances[_account];\n        require(_collsIsNonZero(claimableColl), \"CSP: No collateral available\");\n\n        balances[_account].amounts = new uint256[](poolColl.tokens.length); // sets balance of account to 0\n        emit CollBalanceUpdated(_account);\n\n        poolColl.amounts = _leftSubColls(poolColl, claimableColl.tokens, claimableColl.amounts);\n        emit CollateralSent(_account);\n\n        _sendColl(_account, claimableColl);\n    }\n\n    // --- 'require' functions ---\n\n    function _requireCallerIsBorrowerOperations() internal view {\n        if (\n            msg.sender != borrowerOperationsAddress) {\n            _revertWrongFuncCaller();\n        }\n    }\n\n    function _requireCallerIsTroveManager() internal view {\n        if (\n            msg.sender != troveManagerAddress && msg.sender != troveManagerRedemptionsAddress) {\n            _revertWrongFuncCaller();\n        }\n    }\n\n    function _requireCallerIsActivePool() internal view {\n        if (msg.sender != activePoolAddress) {\n            _revertWrongFuncCaller();\n        }\n    }\n\n    function _requireCallerIsWhitelist() internal view {\n        if (msg.sender != address(whitelist)) {\n            _revertWrongFuncCaller();\n        }\n    }\n\n    function _revertWrongFuncCaller() internal pure {\n        revert(\"CSP: External caller not allowed\");\n    }\n\n    function receiveCollateral(address[] memory _tokens, uint256[] memory _amounts)\n        external\n        \n    {\n        _requireCallerIsActivePool();\n        poolColl.amounts = _leftSumColls(poolColl, _tokens, _amounts);\n    }\n\n    // Adds collateral type from the whitelist.\n    function addCollateralType(address _collateral) external  {\n        _requireCallerIsWhitelist();\n        poolColl.tokens.push(_collateral);\n        poolColl.amounts.push(0);\n    }\n\n    // Function to send collateral out to an address, and checks if the asset is wrapped so that it can \n    // unwrap in that case. \n    function _sendColl(address _to, newColls memory _colls) internal {\n        uint256 tokensLen = _colls.tokens.length;\n        for (uint256 i; i < tokensLen; ++i) {\n            address token = _colls.tokens[i];\n            if (whitelist.isWrapped(token)) {\n                // Collects rewards automatically for that amount and unwraps for the original borrower. \n                // CSP actually owns these assets so it transfers it from this contract to the _to param. \n                IWAsset(token).unwrapFor(_to, _to, _colls.amounts[i]);\n            } else {\n                // Otherwise transfer like normal ERC20\n                IERC20(token).safeTransfer(_to, _colls.amounts[i]);\n            }\n        }\n    }\n}",
  "sourcePath": "/Users/phaxsam/Core-Stability_Truffle/contracts/CollSurplusPool.sol",
  "compiler": {
    "name": "solc",
    "version": "0.6.11+commit.5ef660b1.Emscripten.clang"
  },
  "schemaVersion": "3.4.9",
  "updatedAt": "2022-08-15T22:38:51.792Z",
  "devdoc": {
    "kind": "dev",
    "methods": {
      "isOwner()": {
        "details": "Returns true if the caller is the current owner."
      },
      "owner()": {
        "details": "Returns the address of the current owner."
      }
    },
    "version": 1
  },
  "userdoc": {
    "kind": "user",
    "methods": {},
    "notice": "The CollSurplusPool holds all the bonus collateral that occurs from liquidations and redemptions, to be claimed by the trove owner.",
    "version": 1
  }
}