{
  "contractName": "DefaultPool",
  "abi": [
    {
      "anonymous": false,
      "inputs": [
        {
          "indexed": false,
          "internalType": "address",
          "name": "_newActivePoolAddress",
          "type": "address"
        }
      ],
      "name": "ActivePoolAddressChanged",
      "type": "event"
    },
    {
      "anonymous": false,
      "inputs": [
        {
          "indexed": false,
          "internalType": "address",
          "name": "_collateral",
          "type": "address"
        },
        {
          "indexed": false,
          "internalType": "address",
          "name": "_to",
          "type": "address"
        },
        {
          "indexed": false,
          "internalType": "uint256",
          "name": "_amount",
          "type": "uint256"
        }
      ],
      "name": "CollateralSent",
      "type": "event"
    },
    {
      "anonymous": false,
      "inputs": [
        {
          "indexed": false,
          "internalType": "address",
          "name": "_newDefaultPoolAddress",
          "type": "address"
        }
      ],
      "name": "DefaultPoolAddressChanged",
      "type": "event"
    },
    {
      "anonymous": false,
      "inputs": [
        {
          "indexed": false,
          "internalType": "address",
          "name": "_collateral",
          "type": "address"
        },
        {
          "indexed": false,
          "internalType": "uint256",
          "name": "_amount",
          "type": "uint256"
        }
      ],
      "name": "DefaultPoolBalanceUpdated",
      "type": "event"
    },
    {
      "anonymous": false,
      "inputs": [
        {
          "indexed": false,
          "internalType": "address[]",
          "name": "_collaterals",
          "type": "address[]"
        },
        {
          "indexed": false,
          "internalType": "uint256[]",
          "name": "_amounts",
          "type": "uint256[]"
        }
      ],
      "name": "DefaultPoolBalancesUpdated",
      "type": "event"
    },
    {
      "anonymous": false,
      "inputs": [
        {
          "indexed": false,
          "internalType": "uint256",
          "name": "_ETH",
          "type": "uint256"
        }
      ],
      "name": "DefaultPoolETHBalanceUpdated",
      "type": "event"
    },
    {
      "anonymous": false,
      "inputs": [
        {
          "indexed": false,
          "internalType": "uint256",
          "name": "_SUSDDebt",
          "type": "uint256"
        }
      ],
      "name": "DefaultPoolSUSDDebtUpdated",
      "type": "event"
    },
    {
      "anonymous": false,
      "inputs": [
        {
          "indexed": false,
          "internalType": "uint256",
          "name": "_newBalance",
          "type": "uint256"
        }
      ],
      "name": "ETHBalanceUpdated",
      "type": "event"
    },
    {
      "anonymous": false,
      "inputs": [
        {
          "indexed": false,
          "internalType": "address",
          "name": "_to",
          "type": "address"
        },
        {
          "indexed": false,
          "internalType": "uint256",
          "name": "_amount",
          "type": "uint256"
        }
      ],
      "name": "EtherSent",
      "type": "event"
    },
    {
      "anonymous": false,
      "inputs": [
        {
          "indexed": true,
          "internalType": "address",
          "name": "previousOwner",
          "type": "address"
        },
        {
          "indexed": true,
          "internalType": "address",
          "name": "newOwner",
          "type": "address"
        }
      ],
      "name": "OwnershipTransferred",
      "type": "event"
    },
    {
      "anonymous": false,
      "inputs": [
        {
          "indexed": false,
          "internalType": "address",
          "name": "_newStabilityPoolAddress",
          "type": "address"
        }
      ],
      "name": "StabilityPoolAddressChanged",
      "type": "event"
    },
    {
      "anonymous": false,
      "inputs": [
        {
          "indexed": false,
          "internalType": "address",
          "name": "_newTroveManagerAddress",
          "type": "address"
        }
      ],
      "name": "TroveManagerAddressChanged",
      "type": "event"
    },
    {
      "anonymous": false,
      "inputs": [
        {
          "indexed": false,
          "internalType": "address",
          "name": "_newWhitelistAddress",
          "type": "address"
        }
      ],
      "name": "WhitelistAddressChanged",
      "type": "event"
    },
    {
      "anonymous": false,
      "inputs": [
        {
          "indexed": false,
          "internalType": "uint256",
          "name": "_newBalance",
          "type": "uint256"
        }
      ],
      "name": "YUSDBalanceUpdated",
      "type": "event"
    },
    {
      "inputs": [],
      "name": "DECIMAL_PRECISION",
      "outputs": [
        {
          "internalType": "uint256",
          "name": "",
          "type": "uint256"
        }
      ],
      "stateMutability": "view",
      "type": "function"
    },
    {
      "inputs": [],
      "name": "NAME",
      "outputs": [
        {
          "internalType": "string",
          "name": "",
          "type": "string"
        }
      ],
      "stateMutability": "view",
      "type": "function"
    },
    {
      "inputs": [],
      "name": "isOwner",
      "outputs": [
        {
          "internalType": "bool",
          "name": "",
          "type": "bool"
        }
      ],
      "stateMutability": "view",
      "type": "function"
    },
    {
      "inputs": [],
      "name": "owner",
      "outputs": [
        {
          "internalType": "address",
          "name": "",
          "type": "address"
        }
      ],
      "stateMutability": "view",
      "type": "function"
    },
    {
      "inputs": [
        {
          "internalType": "address",
          "name": "_troveManagerAddress",
          "type": "address"
        },
        {
          "internalType": "address",
          "name": "_activePoolAddress",
          "type": "address"
        },
        {
          "internalType": "address",
          "name": "_whitelistAddress",
          "type": "address"
        },
        {
          "internalType": "address",
          "name": "_stabilityTreasuryAddress",
          "type": "address"
        }
      ],
      "name": "setAddresses",
      "outputs": [],
      "stateMutability": "nonpayable",
      "type": "function"
    },
    {
      "inputs": [
        {
          "internalType": "address",
          "name": "_collateral",
          "type": "address"
        }
      ],
      "name": "getCollateral",
      "outputs": [
        {
          "internalType": "uint256",
          "name": "",
          "type": "uint256"
        }
      ],
      "stateMutability": "view",
      "type": "function"
    },
    {
      "inputs": [],
      "name": "getAllCollateral",
      "outputs": [
        {
          "internalType": "address[]",
          "name": "",
          "type": "address[]"
        },
        {
          "internalType": "uint256[]",
          "name": "",
          "type": "uint256[]"
        }
      ],
      "stateMutability": "view",
      "type": "function"
    },
    {
      "inputs": [],
      "name": "getAllAmounts",
      "outputs": [
        {
          "internalType": "uint256[]",
          "name": "",
          "type": "uint256[]"
        }
      ],
      "stateMutability": "view",
      "type": "function"
    },
    {
      "inputs": [
        {
          "internalType": "address",
          "name": "_collateral",
          "type": "address"
        }
      ],
      "name": "getCollateralVC",
      "outputs": [
        {
          "internalType": "uint256",
          "name": "",
          "type": "uint256"
        }
      ],
      "stateMutability": "view",
      "type": "function"
    },
    {
      "inputs": [],
      "name": "getVC",
      "outputs": [
        {
          "internalType": "uint256",
          "name": "totalVC",
          "type": "uint256"
        }
      ],
      "stateMutability": "view",
      "type": "function"
    },
    {
      "inputs": [],
      "name": "getVCforTCR",
      "outputs": [
        {
          "internalType": "uint256",
          "name": "totalVC",
          "type": "uint256"
        },
        {
          "internalType": "uint256",
          "name": "totalVCforTCR",
          "type": "uint256"
        }
      ],
      "stateMutability": "view",
      "type": "function"
    },
    {
      "inputs": [],
      "name": "getSUSDDebt",
      "outputs": [
        {
          "internalType": "uint256",
          "name": "",
          "type": "uint256"
        }
      ],
      "stateMutability": "view",
      "type": "function"
    },
    {
      "inputs": [
        {
          "internalType": "address[]",
          "name": "_tokens",
          "type": "address[]"
        },
        {
          "internalType": "uint256[]",
          "name": "_amounts",
          "type": "uint256[]"
        },
        {
          "internalType": "address",
          "name": "_borrower",
          "type": "address"
        }
      ],
      "name": "sendCollsToActivePool",
      "outputs": [],
      "stateMutability": "nonpayable",
      "type": "function"
    },
    {
      "inputs": [
        {
          "internalType": "uint256",
          "name": "_amount",
          "type": "uint256"
        }
      ],
      "name": "increaseSUSDDebt",
      "outputs": [],
      "stateMutability": "nonpayable",
      "type": "function"
    },
    {
      "inputs": [
        {
          "internalType": "uint256",
          "name": "_amount",
          "type": "uint256"
        }
      ],
      "name": "decreaseSUSDDebt",
      "outputs": [],
      "stateMutability": "nonpayable",
      "type": "function"
    },
    {
      "inputs": [
        {
          "internalType": "address[]",
          "name": "_tokens",
          "type": "address[]"
        },
        {
          "internalType": "uint256[]",
          "name": "_amounts",
          "type": "uint256[]"
        }
      ],
      "name": "receiveCollateral",
      "outputs": [],
      "stateMutability": "nonpayable",
      "type": "function"
    },
    {
      "inputs": [
        {
          "internalType": "address",
          "name": "_collateral",
          "type": "address"
        }
      ],
      "name": "addCollateralType",
      "outputs": [],
      "stateMutability": "nonpayable",
      "type": "function"
    }
  ],
  "bytecode": "0x608060405234801561001057600080fd5b50336000806101000a81548173ffffffffffffffffffffffffffffffffffffffff021916908373ffffffffffffffffffffffffffffffffffffffff1602179055503373ffffffffffffffffffffffffffffffffffffffff16600073ffffffffffffffffffffffffffffffffffffffff167f8be0079c531659141344cd1fd0a4f28419497f9722a3daafe3b4186f6b6457e060405160405180910390a36128b8806100bb6000396000f3fe608060405234801561001057600080fd5b506004361061010b5760003560e01c80639b56d6c9116100a2578063c241036411610071578063c24103641461069a578063c6ba0936146106b8578063caf14b951461075f578063eae6f908146107be578063ec0d5e0c146107ec5761010b565b80639b56d6c914610455578063a20baee6146104ad578063a3f4df7e146104cb578063a7a24edd1461054e5761010b565b806361ccca58116100de57806361ccca581461024f5780638da5cb5b146103bb5780638f32d59b14610405578063949f5c03146104275761010b565b806301d40b63146101105780633270a9e01461012e5780634a574e33146101865780634a945f8d146101ab575b600080fd5b610118610830565b6040518082815260200191505060405180910390f35b6101706004803603602081101561014457600080fd5b81019080803573ffffffffffffffffffffffffffffffffffffffff1690602001909291905050506109af565b6040518082815260200191505060405180910390f35b61018e610aa2565b604051808381526020018281526020019250505060405180910390f35b61024d600480360360808110156101c157600080fd5b81019080803573ffffffffffffffffffffffffffffffffffffffff169060200190929190803573ffffffffffffffffffffffffffffffffffffffff169060200190929190803573ffffffffffffffffffffffffffffffffffffffff169060200190929190803573ffffffffffffffffffffffffffffffffffffffff169060200190929190505050610c4c565b005b6103b96004803603606081101561026557600080fd5b810190808035906020019064010000000081111561028257600080fd5b82018360208201111561029457600080fd5b803590602001918460208302840111640100000000831117156102b657600080fd5b919080806020026020016040519081016040528093929190818152602001838360200280828437600081840152601f19601f8201169050808301925050505050505091929192908035906020019064010000000081111561031657600080fd5b82018360208201111561032857600080fd5b8035906020019184602083028401116401000000008311171561034a57600080fd5b919080806020026020016040519081016040528093929190818152602001838360200280828437600081840152601f19601f820116905080830192505050505050509192919290803573ffffffffffffffffffffffffffffffffffffffff169060200190929190505050610f03565b005b6103c3611361565b604051808273ffffffffffffffffffffffffffffffffffffffff1673ffffffffffffffffffffffffffffffffffffffff16815260200191505060405180910390f35b61040d61138a565b604051808215151515815260200191505060405180910390f35b6104536004803603602081101561043d57600080fd5b81019080803590602001909291905050506113e1565b005b6104976004803603602081101561046b57600080fd5b81019080803573ffffffffffffffffffffffffffffffffffffffff169060200190929190505050611440565b6040518082815260200191505060405180910390f35b6104b561153d565b6040518082815260200191505060405180910390f35b6104d3611549565b6040518080602001828103825283818151815260200191508051906020019080838360005b838110156105135780820151818401526020810190506104f8565b50505050905090810190601f1680156105405780820380516001836020036101000a031916815260200191505b509250505060405180910390f35b6106986004803603604081101561056457600080fd5b810190808035906020019064010000000081111561058157600080fd5b82018360208201111561059357600080fd5b803590602001918460208302840111640100000000831117156105b557600080fd5b919080806020026020016040519081016040528093929190818152602001838360200280828437600081840152601f19601f8201169050808301925050505050505091929192908035906020019064010000000081111561061557600080fd5b82018360208201111561062757600080fd5b8035906020019184602083028401116401000000008311171561064957600080fd5b919080806020026020016040519081016040528093929190818152602001838360200280828437600081840152601f19601f820116905080830192505050505050509192919290505050611582565b005b6106a2611765565b6040518082815260200191505060405180910390f35b6106c061176f565b604051808060200180602001838103835285818151815260200191508051906020019060200280838360005b838110156107075780820151818401526020810190506106ec565b50505050905001838103825284818151815260200191508051906020019060200280838360005b8381101561074957808201518184015260208101905061072e565b5050505090500194505050505060405180910390f35b61076761185e565b6040518080602001828103825283818151815260200191508051906020019060200280838360005b838110156107aa57808201518184015260208101905061078f565b505050509050019250505060405180910390f35b6107ea600480360360208110156107d457600080fd5b81019080803590602001909291905050506118b9565b005b61082e6004803603602081101561080257600080fd5b81019080803573ffffffffffffffffffffffffffffffffffffffff169060200190929190505050611918565b005b600080600660000180549050905060005b818110156109aa5760006006600001828154811061085b57fe5b9060005260206000200160009054906101000a900473ffffffffffffffffffffffffffffffffffffffff16905060006006600101838154811061089a57fe5b9060005260206000200154905061099b600160009054906101000a900473ffffffffffffffffffffffffffffffffffffffff1673ffffffffffffffffffffffffffffffffffffffff16632e2b1a8884846040518363ffffffff1660e01b8152600401808373ffffffffffffffffffffffffffffffffffffffff1673ffffffffffffffffffffffffffffffffffffffff1681526020018281526020019250505060206040518083038186803b15801561095157600080fd5b505afa158015610965573d6000803e3d6000fd5b505050506040513d602081101561097b57600080fd5b8101908080519060200190929190505050866119b690919063ffffffff16565b94505050806001019050610841565b505090565b6000600160009054906101000a900473ffffffffffffffffffffffffffffffffffffffff1673ffffffffffffffffffffffffffffffffffffffff16632e2b1a88836109f985611440565b6040518363ffffffff1660e01b8152600401808373ffffffffffffffffffffffffffffffffffffffff1673ffffffffffffffffffffffffffffffffffffffff1681526020018281526020019250505060206040518083038186803b158015610a6057600080fd5b505afa158015610a74573d6000803e3d6000fd5b505050506040513d6020811015610a8a57600080fd5b81019080805190602001909291905050509050919050565b6000806000600660000180549050905060005b81811015610c4657600060066000018281548110610acf57fe5b9060005260206000200160009054906101000a900473ffffffffffffffffffffffffffffffffffffffff169050600060066001018381548110610b0e57fe5b90600052602060002001549050600080600160009054906101000a900473ffffffffffffffffffffffffffffffffffffffff1673ffffffffffffffffffffffffffffffffffffffff166355dae74c85856040518363ffffffff1660e01b8152600401808373ffffffffffffffffffffffffffffffffffffffff1673ffffffffffffffffffffffffffffffffffffffff16815260200182815260200192505050604080518083038186803b158015610bc457600080fd5b505afa158015610bd8573d6000803e3d6000fd5b505050506040513d6040811015610bee57600080fd5b81019080805190602001909291908051906020019092919050505091509150610c2082896119b690919063ffffffff16565b9750610c3581886119b690919063ffffffff16565b965050505050806001019050610ab5565b50509091565b610c5461138a565b610cc6576040517f08c379a000000000000000000000000000000000000000000000000000000000815260040180806020018281038252600e8152602001807f43616c6c65724e6f744f776e657200000000000000000000000000000000000081525060200191505060405180910390fd5b610ccf84611a3e565b610cd883611a3e565b610ce182611a3e565b610cea81611a3e565b83600260006101000a81548173ffffffffffffffffffffffffffffffffffffffff021916908373ffffffffffffffffffffffffffffffffffffffff16021790555082600360006101000a81548173ffffffffffffffffffffffffffffffffffffffff021916908373ffffffffffffffffffffffffffffffffffffffff16021790555081600160006101000a81548173ffffffffffffffffffffffffffffffffffffffff021916908373ffffffffffffffffffffffffffffffffffffffff16021790555081600460006101000a81548173ffffffffffffffffffffffffffffffffffffffff021916908373ffffffffffffffffffffffffffffffffffffffff16021790555080600560006101000a81548173ffffffffffffffffffffffffffffffffffffffff021916908373ffffffffffffffffffffffffffffffffffffffff1602179055507f143219c9e69b09e07e095fcc889b43d8f46ca892bba65f08dc3a0050869a567884604051808273ffffffffffffffffffffffffffffffffffffffff1673ffffffffffffffffffffffffffffffffffffffff16815260200191505060405180910390a17f78f058b189175430c48dc02699e3a0031ea4ff781536dc2fab847de4babdd88283604051808273ffffffffffffffffffffffffffffffffffffffff1673ffffffffffffffffffffffffffffffffffffffff16815260200191505060405180910390a1610efd611b62565b50505050565b610f0b611c21565b60008351905082518114610f87576040517f08c379a00000000000000000000000000000000000000000000000000000000081526004018080602001828103825260128152602001807f44503a4c656e677468206d69736d61746368000000000000000000000000000081525060200191505060405180910390fd5b60005b81811015611243576000848281518110610fa057fe5b6020026020010151905060008114611237576000868381518110610fc057fe5b60200260200101519050600160009054906101000a900473ffffffffffffffffffffffffffffffffffffffff1673ffffffffffffffffffffffffffffffffffffffff1663495ee13e826040518263ffffffff1660e01b8152600401808273ffffffffffffffffffffffffffffffffffffffff1673ffffffffffffffffffffffffffffffffffffffff16815260200191505060206040518083038186803b15801561106957600080fd5b505afa15801561107d573d6000803e3d6000fd5b505050506040513d602081101561109357600080fd5b81019080805190602001909291905050501561122a578073ffffffffffffffffffffffffffffffffffffffff1663ca70560a30846040518363ffffffff1660e01b8152600401808373ffffffffffffffffffffffffffffffffffffffff1673ffffffffffffffffffffffffffffffffffffffff16815260200182815260200192505050600060405180830381600087803b15801561113057600080fd5b505af1158015611144573d6000803e3d6000fd5b505050506111528183611c81565b8073ffffffffffffffffffffffffffffffffffffffff16632c8e8dfa3087856040518463ffffffff1660e01b8152600401808473ffffffffffffffffffffffffffffffffffffffff1673ffffffffffffffffffffffffffffffffffffffff1681526020018373ffffffffffffffffffffffffffffffffffffffff1673ffffffffffffffffffffffffffffffffffffffff1681526020018281526020019350505050600060405180830381600087803b15801561120d57600080fd5b505af1158015611221573d6000803e3d6000fd5b50505050611235565b6112348183611c81565b5b505b50806001019050610f8a565b50600360009054906101000a900473ffffffffffffffffffffffffffffffffffffffff1673ffffffffffffffffffffffffffffffffffffffff1663a7a24edd85856040518363ffffffff1660e01b8152600401808060200180602001838103835285818151815260200191508051906020019060200280838360005b838110156112da5780820151818401526020810190506112bf565b50505050905001838103825284818151815260200191508051906020019060200280838360005b8381101561131c578082015181840152602081019050611301565b50505050905001945050505050600060405180830381600087803b15801561134357600080fd5b505af1158015611357573d6000803e3d6000fd5b5050505050505050565b60008060009054906101000a900473ffffffffffffffffffffffffffffffffffffffff16905090565b60008060009054906101000a900473ffffffffffffffffffffffffffffffffffffffff1673ffffffffffffffffffffffffffffffffffffffff163373ffffffffffffffffffffffffffffffffffffffff1614905090565b6113e9611c21565b6113fe816008546119b690919063ffffffff16565b6008819055507f4125d3e458f454576d3ea648bc9107c8b9da322df82ea1308b791053b1c01f146008546040518082815260200191505060405180910390a150565b60006006600101600160009054906101000a900473ffffffffffffffffffffffffffffffffffffffff1673ffffffffffffffffffffffffffffffffffffffff1663b31610db846040518263ffffffff1660e01b8152600401808273ffffffffffffffffffffffffffffffffffffffff1673ffffffffffffffffffffffffffffffffffffffff16815260200191505060206040518083038186803b1580156114e657600080fd5b505afa1580156114fa573d6000803e3d6000fd5b505050506040513d602081101561151057600080fd5b81019080805190602001909291905050508154811061152b57fe5b90600052602060002001549050919050565b670de0b6b3a764000081565b6040518060400160405280600b81526020017f44656661756c74506f6f6c00000000000000000000000000000000000000000081525081565b61158a611f0c565b61168760066040518060400160405290816000820180548060200260200160405190810160405280929190818152602001828054801561161f57602002820191906000526020600020905b8160009054906101000a900473ffffffffffffffffffffffffffffffffffffffff1673ffffffffffffffffffffffffffffffffffffffff16815260200190600101908083116115d5575b505050505081526020016001820180548060200260200160405190810160405280929190818152602001828054801561167757602002820191906000526020600020905b815481526020019060010190808311611663575b5050505050815250508383611f6c565b6006600101908051906020019061169f9291906127c0565b507f6391fbe8d7e4cc90b439d4e8d3dc07b9cbb23b914d46148b61b246bd9f638c5e8282604051808060200180602001838103835285818151815260200191508051906020019060200280838360005b8381101561170a5780820151818401526020810190506116ef565b50505050905001838103825284818151815260200191508051906020019060200280838360005b8381101561174c578082015181840152602081019050611731565b5050505090500194505050505060405180910390a15050565b6000600854905090565b60608060066000016006600101818054806020026020016040519081016040528092919081815260200182805480156117fd57602002820191906000526020600020905b8160009054906101000a900473ffffffffffffffffffffffffffffffffffffffff1673ffffffffffffffffffffffffffffffffffffffff16815260200190600101908083116117b3575b505050505091508080548060200260200160405190810160405280929190818152602001828054801561184f57602002820191906000526020600020905b81548152602001906001019080831161183b575b50505050509050915091509091565b606060066001018054806020026020016040519081016040528092919081815260200182805480156118af57602002820191906000526020600020905b81548152602001906001019080831161189b575b5050505050905090565b6118c1611c21565b6118d68160085461210290919063ffffffff16565b6008819055507f4125d3e458f454576d3ea648bc9107c8b9da322df82ea1308b791053b1c01f146008546040518082815260200191505060405180910390a150565b61192061214c565b6006600001819080600181540180825580915050600190039060005260206000200160009091909190916101000a81548173ffffffffffffffffffffffffffffffffffffffff021916908373ffffffffffffffffffffffffffffffffffffffff16021790555060066001016000908060018154018082558091505060019003906000526020600020016000909190919091505550565b600080828401905083811015611a34576040517f08c379a000000000000000000000000000000000000000000000000000000000815260040180806020018281038252600c8152602001807f616464206f766572666c6f77000000000000000000000000000000000000000081525060200191505060405180910390fd5b8091505092915050565b600073ffffffffffffffffffffffffffffffffffffffff168173ffffffffffffffffffffffffffffffffffffffff161415611ae1576040517f08c379a000000000000000000000000000000000000000000000000000000000815260040180806020018281038252601e8152602001807f4163636f756e742063616e6e6f74206265207a65726f2061646472657373000081525060200191505060405180910390fd5b6000813b90506000811415611b5e576040517f08c379a00000000000000000000000000000000000000000000000000000000081526004018080602001828103825260208152602001807f4163636f756e7420636f64652073697a652063616e6e6f74206265207a65726f81525060200191505060405180910390fd5b5050565b600073ffffffffffffffffffffffffffffffffffffffff166000809054906101000a900473ffffffffffffffffffffffffffffffffffffffff1673ffffffffffffffffffffffffffffffffffffffff167f8be0079c531659141344cd1fd0a4f28419497f9722a3daafe3b4186f6b6457e060405160405180910390a360008060006101000a81548173ffffffffffffffffffffffffffffffffffffffff021916908373ffffffffffffffffffffffffffffffffffffffff160217905550565b600260009054906101000a900473ffffffffffffffffffffffffffffffffffffffff1673ffffffffffffffffffffffffffffffffffffffff163373ffffffffffffffffffffffffffffffffffffffff1614611c7f57611c7e6121ac565b5b565b6000600360009054906101000a900473ffffffffffffffffffffffffffffffffffffffff1690506000600160009054906101000a900473ffffffffffffffffffffffffffffffffffffffff1673ffffffffffffffffffffffffffffffffffffffff1663b31610db856040518263ffffffff1660e01b8152600401808273ffffffffffffffffffffffffffffffffffffffff1673ffffffffffffffffffffffffffffffffffffffff16815260200191505060206040518083038186803b158015611d4957600080fd5b505afa158015611d5d573d6000803e3d6000fd5b505050506040513d6020811015611d7357600080fd5b81019080805190602001909291905050509050611db38360066001018381548110611d9a57fe5b906000526020600020015461210290919063ffffffff16565b60066001018281548110611dc357fe5b9060005260206000200181905550611dfc82848673ffffffffffffffffffffffffffffffffffffffff1661221a9092919063ffffffff16565b7fcafa306d97bbac7bcdcb03e1b58c2624b7aaa17a5a85a70e04dd4a7a22b4e93d8484604051808373ffffffffffffffffffffffffffffffffffffffff1673ffffffffffffffffffffffffffffffffffffffff1681526020018281526020019250505060405180910390a17fe664153eb516123e000bb334869ec912418f6fe4c1abb53fe2f848c947a8405d848385604051808473ffffffffffffffffffffffffffffffffffffffff1673ffffffffffffffffffffffffffffffffffffffff1681526020018373ffffffffffffffffffffffffffffffffffffffff1673ffffffffffffffffffffffffffffffffffffffff168152602001828152602001935050505060405180910390a150505050565b600360009054906101000a900473ffffffffffffffffffffffffffffffffffffffff1673ffffffffffffffffffffffffffffffffffffffff163373ffffffffffffffffffffffffffffffffffffffff1614611f6a57611f696121ac565b5b565b6060600082511415611f8457836020015190506120fb565b6060611f9385602001516122d2565b905060008451905060005b818110156120f4576000600160009054906101000a900473ffffffffffffffffffffffffffffffffffffffff1673ffffffffffffffffffffffffffffffffffffffff1663b31610db888481518110611ff257fe5b60200260200101516040518263ffffffff1660e01b8152600401808273ffffffffffffffffffffffffffffffffffffffff1673ffffffffffffffffffffffffffffffffffffffff16815260200191505060206040518083038186803b15801561205a57600080fd5b505afa15801561206e573d6000803e3d6000fd5b505050506040513d602081101561208457600080fd5b810190808051906020019092919050505090506120d08683815181106120a657fe5b60200260200101518583815181106120ba57fe5b60200260200101516119b690919063ffffffff16565b8482815181106120dc57fe5b60200260200101818152505050806001019050611f9e565b5081925050505b9392505050565b600061214483836040518060400160405280600c81526020017f737562206f766572666c6f770000000000000000000000000000000000000000815250612372565b905092915050565b600460009054906101000a900473ffffffffffffffffffffffffffffffffffffffff1673ffffffffffffffffffffffffffffffffffffffff163373ffffffffffffffffffffffffffffffffffffffff16146121aa576121a96121ac565b5b565b6040517f08c379a000000000000000000000000000000000000000000000000000000000815260040180806020018281038252601f8152602001807f44503a2045787465726e616c2063616c6c6572206e6f7420616c6c6f7765640081525060200191505060405180910390fd5b6122cd8363a9059cbb60e01b8484604051602401808373ffffffffffffffffffffffffffffffffffffffff1673ffffffffffffffffffffffffffffffffffffffff16815260200182815260200192505050604051602081830303815290604052907bffffffffffffffffffffffffffffffffffffffffffffffffffffffff19166020820180517bffffffffffffffffffffffffffffffffffffffffffffffffffffffff8381831617835250505050612432565b505050565b606060008251905060608167ffffffffffffffff811180156122f357600080fd5b506040519080825280602002602001820160405280156123225781602001602082028036833780820191505090505b50905060005b828110156123675784818151811061233c57fe5b602002602001015182828151811061235057fe5b602002602001018181525050806001019050612328565b508092505050919050565b600083831115829061241f576040517f08c379a00000000000000000000000000000000000000000000000000000000081526004018080602001828103825283818151815260200191508051906020019080838360005b838110156123e45780820151818401526020810190506123c9565b50505050905090810190601f1680156124115780820380516001836020036101000a031916815260200191505b509250505060405180910390fd5b5060008385039050809150509392505050565b6060612494826040518060400160405280602081526020017f5361666545524332303a206c6f772d6c6576656c2063616c6c206661696c65648152508573ffffffffffffffffffffffffffffffffffffffff166125209092919063ffffffff16565b9050600081511461251b578080602001905160208110156124b457600080fd5b810190808051906020019092919050505061251a576040517f08c379a000000000000000000000000000000000000000000000000000000000815260040180806020018281038252602a815260200180612859602a913960400191505060405180910390fd5b5b505050565b606061252f8484600085612538565b90509392505050565b606082471015612593576040517f08c379a00000000000000000000000000000000000000000000000000000000081526004018080602001828103825260268152602001806128336026913960400191505060405180910390fd5b61259c856126e1565b61260e576040517f08c379a000000000000000000000000000000000000000000000000000000000815260040180806020018281038252601d8152602001807f416464726573733a2063616c6c20746f206e6f6e2d636f6e747261637400000081525060200191505060405180910390fd5b600060608673ffffffffffffffffffffffffffffffffffffffff1685876040518082805190602001908083835b6020831061265e578051825260208201915060208101905060208303925061263b565b6001836020036101000a03801982511681845116808217855250505050505090500191505060006040518083038185875af1925050503d80600081146126c0576040519150601f19603f3d011682016040523d82523d6000602084013e6126c5565b606091505b50915091506126d58282866126f5565b92505050949350505050565b600080823b90506000811415915050919050565b60608315612705578290506127b9565b60008351146127175782518084602001fd5b816040517f08c379a00000000000000000000000000000000000000000000000000000000081526004018080602001828103825283818151815260200191508051906020019080838360005b8381101561277e578082015181840152602081019050612763565b50505050905090810190601f1680156127ab5780820380516001836020036101000a031916815260200191505b509250505060405180910390fd5b9392505050565b8280548282559060005260206000209081019282156127fc579160200282015b828111156127fb5782518255916020019190600101906127e0565b5b509050612809919061280d565b5090565b61282f91905b8082111561282b576000816000905550600101612813565b5090565b9056fe416464726573733a20696e73756666696369656e742062616c616e636520666f722063616c6c5361666545524332303a204552433230206f7065726174696f6e20646964206e6f742073756363656564a26469706673582212208ead8d8d8deff7aefa36cb51a3922a7ebe29ebdcca84bcfdabce68a11200fbd664736f6c634300060b0033",
  "immutableReferences": {},
  "source": "// SPDX-License-Identifier: UNLICENSED\n\npragma solidity 0.6.11;\n\nimport \"../Interfaces/IDefaultPool.sol\";\nimport \"../Interfaces/IActivePool.sol\";\nimport \"../Interfaces/IWhitelist.sol\";\nimport \"../Interfaces/IERC20.sol\";\nimport \"../Interfaces/IWAsset.sol\";\nimport \"../Dependencies/SafeMath.sol\";\nimport \"../Dependencies/Ownable.sol\";\nimport \"../Dependencies/CheckContract.sol\";\nimport \"../Dependencies/PoolBase2.sol\";\nimport \"../Dependencies/SafeERC20.sol\";\n\n/*\n * The Default Pool holds the collateral and YUSD debt (but not YUSD tokens) from liquidations that have been redistributed\n * to active troves but not yet \"applied\", i.e. not yet recorded on a recipient active trove's struct.\n *\n * When a trove makes an operation that applies its pending collateral and YUSD debt, its pending collateral and YUSD debt is moved\n * from the Default Pool to the Active Pool.\n */\ncontract DefaultPool is Ownable, CheckContract, IDefaultPool, PoolBase2 {\n    using SafeMath for uint256;\n    using SafeERC20 for IERC20;\n\n    string public constant NAME = \"DefaultPool\";\n\n    address internal troveManagerAddress;\n    address internal activePoolAddress;\n    address internal whitelistAddress;\n    address internal stabiltiyFinanceTreasury;\n\n    // deposited collateral tracker. Colls is always the whitelist list of all collateral tokens. Amounts\n    newColls internal poolColl;\n\n    uint256 internal SUSDDebt;\n\n    event TroveManagerAddressChanged(address _newTroveManagerAddress);\n    event DefaultPoolSUSDDebtUpdated(uint256 _SUSDDebt);\n    event DefaultPoolBalanceUpdated(address _collateral, uint256 _amount);\n    event DefaultPoolBalancesUpdated(address[] _collaterals, uint256[] _amounts);\n\n    // --- Dependency setters ---\n\n    function setAddresses(\n        address _troveManagerAddress,\n        address _activePoolAddress,\n        address _whitelistAddress, \n        address _stabilityTreasuryAddress\n    ) external onlyOwner {\n        checkContract(_troveManagerAddress);\n        checkContract(_activePoolAddress);\n        checkContract(_whitelistAddress);\n        checkContract(_stabilityTreasuryAddress);\n\n        troveManagerAddress = _troveManagerAddress;\n        activePoolAddress = _activePoolAddress;\n        whitelist = IWhitelist(_whitelistAddress);\n        whitelistAddress = _whitelistAddress;\n        stabiltiyFinanceTreasury = _stabilityTreasuryAddress;\n\n        emit TroveManagerAddressChanged(_troveManagerAddress);\n        emit ActivePoolAddressChanged(_activePoolAddress);\n\n        _renounceOwnership();\n    }\n\n    // --- Internal Functions ---\n\n    // --- Getters for public variables. Required by IPool interface ---\n\n    /*\n     * Returns the collateralBalance for a given collateral\n     *\n     * Returns the amount of a given collateral in state. Not necessarily the contract's actual balance.\n     */\n    function getCollateral(address _collateral) public view override returns (uint256) {\n        return poolColl.amounts[whitelist.getIndex(_collateral)];\n    }\n\n    /*\n     * Returns all collateral balances in state. Not necessarily the contract's actual balances.\n     */\n    function getAllCollateral() external view override returns (address[] memory, uint256[] memory) {\n        return (poolColl.tokens, poolColl.amounts);\n    }\n\n    function getAllAmounts() external view override returns (uint256[] memory) {\n        return poolColl.amounts;\n    }\n\n    // returns the VC value of a given collateralAddress in this contract\n    function getCollateralVC(address _collateral) external view override returns (uint) {\n        return whitelist.getValueVC(_collateral, getCollateral(_collateral));\n    }\n\n    /*\n     * Returns the VC of the contract\n     *\n     * Not necessarily equal to the the contract's raw VC balance - Collateral can be forcibly sent to contracts.\n     *\n     * Computed when called by taking the collateral balances and\n     * multiplying them by the corresponding price and ratio and then summing that\n     */\n    function getVC() external view override returns (uint256 totalVC) {\n        uint256 len = poolColl.tokens.length;\n        for (uint256 i; i < len; ++i) {\n            address collateral = poolColl.tokens[i];\n            uint256 amount = poolColl.amounts[i];\n\n            totalVC = totalVC.add(whitelist.getValueVC(collateral, amount));\n        }\n    }\n\n    function getVCforTCR() external view override returns (uint totalVC, uint totalVCforTCR) {\n        uint len = poolColl.tokens.length;\n        for (uint256 i; i < len; ++i) {\n            address collateral = poolColl.tokens[i];\n            uint amount = poolColl.amounts[i];\n\n            (uint256 VC, uint256 VCforTCR) = whitelist.getValueVCforTCR(collateral, amount);\n            totalVC = totalVC.add(VC);\n            totalVCforTCR = totalVCforTCR.add(VCforTCR);\n        }\n    }\n\n    // Debt that this pool holds. \n    function getSUSDDebt() external view override returns (uint256) {\n        return SUSDDebt;\n    }\n\n    // Internal function to send collateral to a different pool. \n    function _sendCollateral(address _collateral, uint256 _amount) internal {\n        address activePool = activePoolAddress;\n        uint256 index = whitelist.getIndex(_collateral);\n        poolColl.amounts[index] = poolColl.amounts[index].sub(_amount);\n\n        IERC20(_collateral).safeTransfer(activePool, _amount);\n\n        emit DefaultPoolBalanceUpdated(_collateral, _amount);\n        emit CollateralSent(_collateral, activePool, _amount);\n    }\n\n    // Returns true if all payments were successfully sent. Must be called by borrower operations, trove manager, or stability pool. \n    function sendCollsToActivePool(address[] memory _tokens, uint256[] memory _amounts, address _borrower)\n        external\n        override\n    {\n        _requireCallerIsTroveManager();\n        uint256 tokensLen = _tokens.length;\n        require(tokensLen == _amounts.length, \"DP:Length mismatch\");\n        for (uint256 i; i < tokensLen; ++i) {\n            uint256 thisAmounts = _amounts[i];\n            if(thisAmounts != 0) {\n                address thisToken = _tokens[i];\n                \n                // If asset is wrapped, then that means it came from the active pool (originally) and we need to update rewards from \n                // the treasury which would have owned the rewards, to the new borrower who will be accumulating this new \n                // reward. \n                if (whitelist.isWrapped(thisToken)) {\n                    // This call claims the tokens for the treasury and also transfers them to the default pool as an intermediary so \n                    // that it can transfer.\n                    IWAsset(thisToken).endTreasuryReward(address(this), thisAmounts);\n                    // Call transfer\n                    _sendCollateral(thisToken, thisAmounts);\n                    // Then finally transfer rewards to the borrower\n                    IWAsset(thisToken).updateReward(address(this), _borrower, thisAmounts);\n                } else {\n                    // Otherwise just send. \n                    _sendCollateral(thisToken, thisAmounts);\n                }\n            }\n        }\n        IActivePool(activePoolAddress).receiveCollateral(_tokens, _amounts);\n    }\n\n    // Increases the YUSD Debt of this pool. \n    function increaseSUSDDebt(uint256 _amount) external override {\n        _requireCallerIsTroveManager();\n        SUSDDebt = SUSDDebt.add(_amount);\n        emit DefaultPoolSUSDDebtUpdated(SUSDDebt);\n    }\n\n    // Decreases the YUSD Debt of this pool.\n    function decreaseSUSDDebt(uint256 _amount) external override {\n        _requireCallerIsTroveManager();\n        SUSDDebt = SUSDDebt.sub(_amount);\n        emit DefaultPoolSUSDDebtUpdated(SUSDDebt);\n    }\n\n    // --- 'require' functions ---\n\n    function _requireCallerIsActivePool() internal view {\n        if (msg.sender != activePoolAddress) {\n            _revertWrongFuncCaller();\n        }\n    }\n\n    function _requireCallerIsTroveManager() internal view {\n        if (msg.sender != troveManagerAddress) {\n            _revertWrongFuncCaller();\n        }\n    }\n\n    function _requireCallerIsWhitelist() internal view {\n        if (msg.sender != whitelistAddress) {\n            _revertWrongFuncCaller();\n        }\n    }\n\n    function _revertWrongFuncCaller() internal pure {\n        revert(\"DP: External caller not allowed\");\n    }\n\n    // Should be called by ActivePool\n    // __after__ collateral is transferred to this contract from Active Pool\n    function receiveCollateral(address[] memory _tokens, uint256[] memory _amounts)\n        external\n        override\n    {\n        _requireCallerIsActivePool();\n        poolColl.amounts = _leftSumColls(poolColl, _tokens, _amounts);\n        emit DefaultPoolBalancesUpdated(_tokens, _amounts);\n    }\n\n    // Adds collateral type from whitelist. \n    function addCollateralType(address _collateral) external override {\n        _requireCallerIsWhitelist();\n        poolColl.tokens.push(_collateral);\n        poolColl.amounts.push(0);\n    }\n}",
  "sourcePath": "/Users/phaxsam/Core-Stability_Truffle/contracts/DefaultPool.sol",
  "compiler": {
    "name": "solc",
    "version": "0.6.11+commit.5ef660b1.Emscripten.clang"
  },
  "schemaVersion": "3.4.9",
  "updatedAt": "2022-08-15T22:38:51.796Z",
  "devdoc": {
    "kind": "dev",
    "methods": {
      "isOwner()": {
        "details": "Returns true if the caller is the current owner."
      },
      "owner()": {
        "details": "Returns the address of the current owner."
      }
    },
    "version": 1
  },
  "userdoc": {
    "kind": "user",
    "methods": {},
    "version": 1
  }
}