{
  "contractName": "FunctionCaller",
  "abi": [
    {
      "inputs": [],
      "name": "priceFeedAddress",
      "outputs": [
        {
          "internalType": "address",
          "name": "",
          "type": "address"
        }
      ],
      "stateMutability": "view",
      "type": "function"
    },
    {
      "inputs": [],
      "name": "sortedTrovesAddress",
      "outputs": [
        {
          "internalType": "address",
          "name": "",
          "type": "address"
        }
      ],
      "stateMutability": "view",
      "type": "function"
    },
    {
      "inputs": [],
      "name": "troveManagerAddress",
      "outputs": [
        {
          "internalType": "address",
          "name": "",
          "type": "address"
        }
      ],
      "stateMutability": "view",
      "type": "function"
    },
    {
      "inputs": [
        {
          "internalType": "address",
          "name": "_troveManagerAddress",
          "type": "address"
        }
      ],
      "name": "setTroveManagerAddress",
      "outputs": [],
      "stateMutability": "nonpayable",
      "type": "function"
    },
    {
      "inputs": [
        {
          "internalType": "address",
          "name": "_sortedTrovesAddress",
          "type": "address"
        }
      ],
      "name": "setSortedTrovesAddress",
      "outputs": [],
      "stateMutability": "nonpayable",
      "type": "function"
    },
    {
      "inputs": [
        {
          "internalType": "address",
          "name": "_priceFeedAddress",
          "type": "address"
        }
      ],
      "name": "setPriceFeedAddress",
      "outputs": [],
      "stateMutability": "nonpayable",
      "type": "function"
    },
    {
      "inputs": [
        {
          "internalType": "address",
          "name": "_address",
          "type": "address"
        }
      ],
      "name": "troveManager_getCurrentICR",
      "outputs": [
        {
          "internalType": "uint256",
          "name": "",
          "type": "uint256"
        }
      ],
      "stateMutability": "view",
      "type": "function"
    },
    {
      "inputs": [
        {
          "internalType": "uint256",
          "name": "_ICR",
          "type": "uint256"
        },
        {
          "internalType": "address",
          "name": "_prevId",
          "type": "address"
        },
        {
          "internalType": "address",
          "name": "_nextId",
          "type": "address"
        }
      ],
      "name": "sortedTroves_findInsertPosition",
      "outputs": [
        {
          "internalType": "address",
          "name": "",
          "type": "address"
        },
        {
          "internalType": "address",
          "name": "",
          "type": "address"
        }
      ],
      "stateMutability": "view",
      "type": "function"
    }
  ],
  "bytecode": "0x608060405234801561001057600080fd5b506107b5806100206000396000f3fe608060405234801561001057600080fd5b50600436106100875760003560e01c8063a06dec711161005b578063a06dec71146101bc578063ced2027c14610200578063dcc6710f14610244578063e0abca0b1461032557610087565b8062cf5db41461008c5780632caffa81146100d05780635a4d28bb1461011a578063753d3e5e14610164575b600080fd5b6100ce600480360360208110156100a257600080fd5b81019080803573ffffffffffffffffffffffffffffffffffffffff16906020019092919050505061036f565b005b6100d86103f4565b604051808273ffffffffffffffffffffffffffffffffffffffff1673ffffffffffffffffffffffffffffffffffffffff16815260200191505060405180910390f35b61012261041a565b604051808273ffffffffffffffffffffffffffffffffffffffff1673ffffffffffffffffffffffffffffffffffffffff16815260200191505060405180910390f35b6101a66004803603602081101561017a57600080fd5b81019080803573ffffffffffffffffffffffffffffffffffffffff169060200190929190505050610440565b6040518082815260200191505060405180910390f35b6101fe600480360360208110156101d257600080fd5b81019080803573ffffffffffffffffffffffffffffffffffffffff169060200190929190505050610522565b005b6102426004803603602081101561021657600080fd5b81019080803573ffffffffffffffffffffffffffffffffffffffff1690602001909291905050506105a7565b005b6102b06004803603606081101561025a57600080fd5b8101908080359060200190929190803573ffffffffffffffffffffffffffffffffffffffff169060200190929190803573ffffffffffffffffffffffffffffffffffffffff16906020019092919050505061062b565b604051808373ffffffffffffffffffffffffffffffffffffffff1673ffffffffffffffffffffffffffffffffffffffff1681526020018273ffffffffffffffffffffffffffffffffffffffff1673ffffffffffffffffffffffffffffffffffffffff1681526020019250505060405180910390f35b61032d610759565b604051808273ffffffffffffffffffffffffffffffffffffffff1673ffffffffffffffffffffffffffffffffffffffff16815260200191505060405180910390f35b80600560006101000a81548173ffffffffffffffffffffffffffffffffffffffff021916908373ffffffffffffffffffffffffffffffffffffffff16021790555080600460006101000a81548173ffffffffffffffffffffffffffffffffffffffff021916908373ffffffffffffffffffffffffffffffffffffffff16021790555050565b600360009054906101000a900473ffffffffffffffffffffffffffffffffffffffff1681565b600160009054906101000a900473ffffffffffffffffffffffffffffffffffffffff1681565b60008060009054906101000a900473ffffffffffffffffffffffffffffffffffffffff1673ffffffffffffffffffffffffffffffffffffffff166327fb7d89836040518263ffffffff1660e01b8152600401808273ffffffffffffffffffffffffffffffffffffffff1673ffffffffffffffffffffffffffffffffffffffff16815260200191505060206040518083038186803b1580156104e057600080fd5b505afa1580156104f4573d6000803e3d6000fd5b505050506040513d602081101561050a57600080fd5b81019080805190602001909291905050509050919050565b80600160006101000a81548173ffffffffffffffffffffffffffffffffffffffff021916908373ffffffffffffffffffffffffffffffffffffffff16021790555080600260006101000a81548173ffffffffffffffffffffffffffffffffffffffff021916908373ffffffffffffffffffffffffffffffffffffffff16021790555050565b80600160006101000a81548173ffffffffffffffffffffffffffffffffffffffff021916908373ffffffffffffffffffffffffffffffffffffffff160217905550806000806101000a81548173ffffffffffffffffffffffffffffffffffffffff021916908373ffffffffffffffffffffffffffffffffffffffff16021790555050565b600080600260009054906101000a900473ffffffffffffffffffffffffffffffffffffffff1673ffffffffffffffffffffffffffffffffffffffff1663416980dc8686866040518463ffffffff1660e01b8152600401808481526020018373ffffffffffffffffffffffffffffffffffffffff1673ffffffffffffffffffffffffffffffffffffffff1681526020018273ffffffffffffffffffffffffffffffffffffffff1673ffffffffffffffffffffffffffffffffffffffff1681526020019350505050604080518083038186803b15801561070857600080fd5b505afa15801561071c573d6000803e3d6000fd5b505050506040513d604081101561073257600080fd5b81019080805190602001909291908051906020019092919050505091509150935093915050565b600560009054906101000a900473ffffffffffffffffffffffffffffffffffffffff168156fea2646970667358221220baf937cfd9b3e4a4331fcf0f91872bd5bb07e4f6386ec1bcbf5526786d8b512264736f6c634300060b0033",
  "immutableReferences": {},
  "source": "// SPDX-License-Identifier: UNLICENSED\n\npragma solidity 0.6.11;\n\nimport '../Interfaces/ITroveManager.sol';\nimport '../Interfaces/ISortedTroves.sol';\nimport '../Interfaces/IPriceFeed.sol';\nimport '../Dependencies/LiquityMath.sol';\n\n/* Wrapper contract - used for calculating gas of read-only and internal functions.\nNot part of the Yeti application. */\ncontract FunctionCaller {\n\n    ITroveManager troveManager;\n    address public troveManagerAddress;\n\n    ISortedTroves sortedTroves;\n    address public sortedTrovesAddress;\n\n    IPriceFeed priceFeed;\n    address public priceFeedAddress;\n\n    // --- Dependency setters ---\n\n    function setTroveManagerAddress(address _troveManagerAddress) external {\n        troveManagerAddress = _troveManagerAddress;\n        troveManager = ITroveManager(_troveManagerAddress);\n    }\n\n    function setSortedTrovesAddress(address _sortedTrovesAddress) external {\n        troveManagerAddress = _sortedTrovesAddress;\n        sortedTroves = ISortedTroves(_sortedTrovesAddress);\n    }\n\n    function setPriceFeedAddress(address _priceFeedAddress) external {\n        priceFeedAddress = _priceFeedAddress;\n        priceFeed = IPriceFeed(_priceFeedAddress);\n    }\n\n    // --- Non-view wrapper functions used for calculating gas ---\n\n    function troveManager_getCurrentICR(address _address) external view returns (uint) {\n        return troveManager.getCurrentICR(_address);\n    }\n\n    function sortedTroves_findInsertPosition(uint _ICR, address _prevId, address _nextId) external view returns (address, address) {\n        return sortedTroves.findInsertPosition(_ICR, _prevId, _nextId);\n    }\n}",
  "sourcePath": "/Users/phaxsam/Core-Stability_Truffle/contracts/FunctionCaller.sol",
  "compiler": {
    "name": "solc",
    "version": "0.6.11+commit.5ef660b1.Emscripten.clang"
  },
  "schemaVersion": "3.4.9",
  "updatedAt": "2022-08-15T22:38:51.799Z",
  "devdoc": {
    "kind": "dev",
    "methods": {},
    "version": 1
  },
  "userdoc": {
    "kind": "user",
    "methods": {},
    "version": 1
  }
}