{
  "contractName": "HintHelpers",
  "abi": [
    {
      "anonymous": false,
      "inputs": [
        {
          "indexed": true,
          "internalType": "address",
          "name": "previousOwner",
          "type": "address"
        },
        {
          "indexed": true,
          "internalType": "address",
          "name": "newOwner",
          "type": "address"
        }
      ],
      "name": "OwnershipTransferred",
      "type": "event"
    },
    {
      "anonymous": false,
      "inputs": [
        {
          "indexed": false,
          "internalType": "address",
          "name": "_sortedTrovesAddress",
          "type": "address"
        }
      ],
      "name": "SortedTrovesAddressChanged",
      "type": "event"
    },
    {
      "anonymous": false,
      "inputs": [
        {
          "indexed": false,
          "internalType": "address",
          "name": "_troveManagerAddress",
          "type": "address"
        }
      ],
      "name": "TroveManagerAddressChanged",
      "type": "event"
    },
    {
      "anonymous": false,
      "inputs": [
        {
          "indexed": false,
          "internalType": "address",
          "name": "_troveManagerAddress",
          "type": "address"
        }
      ],
      "name": "WhitelistAddressChanged",
      "type": "event"
    },
    {
      "inputs": [],
      "name": "BORROWING_FEE_FLOOR",
      "outputs": [
        {
          "internalType": "uint256",
          "name": "",
          "type": "uint256"
        }
      ],
      "stateMutability": "view",
      "type": "function"
    },
    {
      "inputs": [],
      "name": "CCR",
      "outputs": [
        {
          "internalType": "uint256",
          "name": "",
          "type": "uint256"
        }
      ],
      "stateMutability": "view",
      "type": "function"
    },
    {
      "inputs": [],
      "name": "DECIMAL_PRECISION",
      "outputs": [
        {
          "internalType": "uint256",
          "name": "",
          "type": "uint256"
        }
      ],
      "stateMutability": "view",
      "type": "function"
    },
    {
      "inputs": [],
      "name": "MCR",
      "outputs": [
        {
          "internalType": "uint256",
          "name": "",
          "type": "uint256"
        }
      ],
      "stateMutability": "view",
      "type": "function"
    },
    {
      "inputs": [],
      "name": "MIN_NET_DEBT",
      "outputs": [
        {
          "internalType": "uint256",
          "name": "",
          "type": "uint256"
        }
      ],
      "stateMutability": "view",
      "type": "function"
    },
    {
      "inputs": [],
      "name": "NAME",
      "outputs": [
        {
          "internalType": "bytes32",
          "name": "",
          "type": "bytes32"
        }
      ],
      "stateMutability": "view",
      "type": "function"
    },
    {
      "inputs": [],
      "name": "REDEMPTION_FEE_FLOOR",
      "outputs": [
        {
          "internalType": "uint256",
          "name": "",
          "type": "uint256"
        }
      ],
      "stateMutability": "view",
      "type": "function"
    },
    {
      "inputs": [],
      "name": "SUSD_GAS_COMPENSATION",
      "outputs": [
        {
          "internalType": "uint256",
          "name": "",
          "type": "uint256"
        }
      ],
      "stateMutability": "view",
      "type": "function"
    },
    {
      "inputs": [],
      "name": "getEntireSystemColl",
      "outputs": [
        {
          "internalType": "uint256",
          "name": "",
          "type": "uint256"
        }
      ],
      "stateMutability": "view",
      "type": "function"
    },
    {
      "inputs": [],
      "name": "getEntireSystemDebt",
      "outputs": [
        {
          "internalType": "uint256",
          "name": "",
          "type": "uint256"
        }
      ],
      "stateMutability": "view",
      "type": "function"
    },
    {
      "inputs": [],
      "name": "isOwner",
      "outputs": [
        {
          "internalType": "bool",
          "name": "",
          "type": "bool"
        }
      ],
      "stateMutability": "view",
      "type": "function"
    },
    {
      "inputs": [],
      "name": "owner",
      "outputs": [
        {
          "internalType": "address",
          "name": "",
          "type": "address"
        }
      ],
      "stateMutability": "view",
      "type": "function"
    },
    {
      "inputs": [
        {
          "internalType": "address",
          "name": "_sortedTrovesAddress",
          "type": "address"
        },
        {
          "internalType": "address",
          "name": "_troveManagerAddress",
          "type": "address"
        },
        {
          "internalType": "address",
          "name": "_whitelistAddress",
          "type": "address"
        }
      ],
      "name": "setAddresses",
      "outputs": [],
      "stateMutability": "nonpayable",
      "type": "function"
    },
    {
      "inputs": [
        {
          "internalType": "uint256",
          "name": "_SUSDamount",
          "type": "uint256"
        },
        {
          "internalType": "uint256",
          "name": "_maxIterations",
          "type": "uint256"
        }
      ],
      "name": "getRedemptionHints",
      "outputs": [
        {
          "internalType": "address",
          "name": "firstRedemptionHint",
          "type": "address"
        },
        {
          "internalType": "uint256",
          "name": "partialRedemptionHintICR",
          "type": "uint256"
        },
        {
          "internalType": "uint256",
          "name": "truncatedSUSDamount",
          "type": "uint256"
        }
      ],
      "stateMutability": "view",
      "type": "function"
    },
    {
      "inputs": [
        {
          "internalType": "uint256",
          "name": "_CR",
          "type": "uint256"
        },
        {
          "internalType": "uint256",
          "name": "_numTrials",
          "type": "uint256"
        },
        {
          "internalType": "uint256",
          "name": "_inputRandomSeed",
          "type": "uint256"
        }
      ],
      "name": "getApproxHint",
      "outputs": [
        {
          "internalType": "address",
          "name": "hintAddress",
          "type": "address"
        },
        {
          "internalType": "uint256",
          "name": "diff",
          "type": "uint256"
        },
        {
          "internalType": "uint256",
          "name": "latestRandomSeed",
          "type": "uint256"
        }
      ],
      "stateMutability": "view",
      "type": "function"
    }
  ],
  "bytecode": "0x608060405234801561001057600080fd5b5033600360006101000a81548173ffffffffffffffffffffffffffffffffffffffff021916908373ffffffffffffffffffffffffffffffffffffffff1602179055503373ffffffffffffffffffffffffffffffffffffffff16600073ffffffffffffffffffffffffffffffffffffffff167f8be0079c531659141344cd1fd0a4f28419497f9722a3daafe3b4186f6b6457e060405160405180910390a3612155806100bc6000396000f3fe608060405234801561001057600080fd5b50600436106100f55760003560e01c806387dc6656116100975780638f32d59b116100665780638f32d59b146103b0578063a20baee6146103d2578063a3f4df7e146103f0578063f92d34331461040e576100f5565b806387dc6656146102a4578063887105d3146102c25780638ac54b0d146102e05780638da5cb5b14610366576100f5565b80635733d58f116100d35780635733d58f146101ba578063794e5724146101d8578063795d26c3146101f65780637b41bdbe14610214576100f5565b80631bf43555146100fa57806328d28b5b14610118578063363bf96414610136575b600080fd5b61010261042c565b6040518082815260200191505060405180910390f35b610120610439565b6040518082815260200191505060405180910390f35b6101b86004803603606081101561014c57600080fd5b81019080803573ffffffffffffffffffffffffffffffffffffffff169060200190929190803573ffffffffffffffffffffffffffffffffffffffff169060200190929190803573ffffffffffffffffffffffffffffffffffffffff169060200190929190505050610453565b005b6101c26106e0565b6040518082815260200191505060405180910390f35b6101e06106ec565b6040518082815260200191505060405180910390f35b6101fe6106f8565b6040518082815260200191505060405180910390f35b6102546004803603606081101561022a57600080fd5b81019080803590602001909291908035906020019092919080359060200190929190505050610861565b604051808473ffffffffffffffffffffffffffffffffffffffff1673ffffffffffffffffffffffffffffffffffffffff168152602001838152602001828152602001935050505060405180910390f35b6102ac610cc9565b6040518082815260200191505060405180910390f35b6102ca610cd6565b6040518082815260200191505060405180910390f35b610316600480360360408110156102f657600080fd5b810190808035906020019092919080359060200190929190505050610d80565b604051808473ffffffffffffffffffffffffffffffffffffffff1673ffffffffffffffffffffffffffffffffffffffff168152602001838152602001828152602001935050505060405180910390f35b61036e611404565b604051808273ffffffffffffffffffffffffffffffffffffffff1673ffffffffffffffffffffffffffffffffffffffff16815260200191505060405180910390f35b6103b861142e565b604051808215151515815260200191505060405180910390f35b6103da611486565b6040518082815260200191505060405180910390f35b6103f8611492565b6040518082815260200191505060405180910390f35b6104166114b6565b6040518082815260200191505060405180910390f35b68056bc75e2d6310000081565b60056103e8670de0b6b3a76400008161044e57fe5b040281565b61045b61142e565b6104cd576040517f08c379a000000000000000000000000000000000000000000000000000000000815260040180806020018281038252600e8152602001807f43616c6c65724e6f744f776e657200000000000000000000000000000000000081525060200191505060405180910390fd5b6104d6836114d0565b6104df826114d0565b6104e8816114d0565b82600460006101000a81548173ffffffffffffffffffffffffffffffffffffffff021916908373ffffffffffffffffffffffffffffffffffffffff16021790555081600560006101000a81548173ffffffffffffffffffffffffffffffffffffffff021916908373ffffffffffffffffffffffffffffffffffffffff160217905550806000806101000a81548173ffffffffffffffffffffffffffffffffffffffff021916908373ffffffffffffffffffffffffffffffffffffffff1602179055507f65f4cf077bc01e4742eb5ad98326f6e95b63548ea24b17f8d5e823111fe7880083604051808273ffffffffffffffffffffffffffffffffffffffff1673ffffffffffffffffffffffffffffffffffffffff16815260200191505060405180910390a17f143219c9e69b09e07e095fcc889b43d8f46ca892bba65f08dc3a0050869a567882604051808273ffffffffffffffffffffffffffffffffffffffff1673ffffffffffffffffffffffffffffffffffffffff16815260200191505060405180910390a17f7d6c324a6caac2b03df779ee40edbef0a5410a7eec60184b142c1d4283f50ce182604051808273ffffffffffffffffffffffffffffffffffffffff1673ffffffffffffffffffffffffffffffffffffffff16815260200191505060405180910390a16106db6115f4565b505050565b6714d1120d7b16000081565b670f43fc2c04ee000081565b600080600160009054906101000a900473ffffffffffffffffffffffffffffffffffffffff1673ffffffffffffffffffffffffffffffffffffffff1663c24103646040518163ffffffff1660e01b815260040160206040518083038186803b15801561076357600080fd5b505afa158015610777573d6000803e3d6000fd5b505050506040513d602081101561078d57600080fd5b810190808051906020019092919050505090506000600260009054906101000a900473ffffffffffffffffffffffffffffffffffffffff1673ffffffffffffffffffffffffffffffffffffffff1663c24103646040518163ffffffff1660e01b815260040160206040518083038186803b15801561080a57600080fd5b505afa15801561081e573d6000803e3d6000fd5b505050506040513d602081101561083457600080fd5b8101908080519060200190929190505050905061085a81836116b590919063ffffffff16565b9250505090565b600080600080600560009054906101000a900473ffffffffffffffffffffffffffffffffffffffff1673ffffffffffffffffffffffffffffffffffffffff166349eefeee6040518163ffffffff1660e01b815260040160206040518083038186803b1580156108cf57600080fd5b505afa1580156108e3573d6000803e3d6000fd5b505050506040513d60208110156108f957600080fd5b81019080805190602001909291905050509050600081141561092b576000808682925081915093509350935050610cc0565b600460009054906101000a900473ffffffffffffffffffffffffffffffffffffffff1673ffffffffffffffffffffffffffffffffffffffff16634d6228316040518163ffffffff1660e01b815260040160206040518083038186803b15801561099357600080fd5b505afa1580156109a7573d6000803e3d6000fd5b505050506040513d60208110156109bd57600080fd5b81019080805190602001909291905050509350610ab387600460009054906101000a900473ffffffffffffffffffffffffffffffffffffffff1673ffffffffffffffffffffffffffffffffffffffff1663c3075044876040518263ffffffff1660e01b8152600401808273ffffffffffffffffffffffffffffffffffffffff1673ffffffffffffffffffffffffffffffffffffffff16815260200191505060206040518083038186803b158015610a7357600080fd5b505afa158015610a87573d6000803e3d6000fd5b505050506040513d6020811015610a9d57600080fd5b810190808051906020019092919050505061173d565b92508491506000600190505b86811015610cbd5782604051602001808281526020019150506040516020818303038152906040528051906020012060001c92506000828481610afe57fe5b0690506000600560009054906101000a900473ffffffffffffffffffffffffffffffffffffffff1673ffffffffffffffffffffffffffffffffffffffff1663d9a72444836040518263ffffffff1660e01b81526004018082815260200191505060206040518083038186803b158015610b7657600080fd5b505afa158015610b8a573d6000803e3d6000fd5b505050506040513d6020811015610ba057600080fd5b810190808051906020019092919050505090506000600460009054906101000a900473ffffffffffffffffffffffffffffffffffffffff1673ffffffffffffffffffffffffffffffffffffffff1663c3075044836040518263ffffffff1660e01b8152600401808273ffffffffffffffffffffffffffffffffffffffff1673ffffffffffffffffffffffffffffffffffffffff16815260200191505060206040518083038186803b158015610c5457600080fd5b505afa158015610c68573d6000803e3d6000fd5b505050506040513d6020811015610c7e57600080fd5b810190808051906020019092919050505090506000610c9d828d61173d565b905087811015610cae578097508298505b84600101945050505050610abf565b50505b93509350939050565b6802b5e3af16b188000081565b6000600160009054906101000a900473ffffffffffffffffffffffffffffffffffffffff1673ffffffffffffffffffffffffffffffffffffffff1663651340c46040518163ffffffff1660e01b815260040160206040518083038186803b158015610d4057600080fd5b505afa158015610d54573d6000803e3d6000fd5b505050506040513d6020811015610d6a57600080fd5b8101908080519060200190929190505050905090565b600080600080600460009054906101000a900473ffffffffffffffffffffffffffffffffffffffff169050600086905060008273ffffffffffffffffffffffffffffffffffffffff16634d6228316040518163ffffffff1660e01b815260040160206040518083038186803b158015610df857600080fd5b505afa158015610e0c573d6000803e3d6000fd5b505050506040513d6020811015610e2257600080fd5b810190808051906020019092919050505090505b600073ffffffffffffffffffffffffffffffffffffffff168173ffffffffffffffffffffffffffffffffffffffff1614158015610f535750670f43fc2c04ee0000600460009054906101000a900473ffffffffffffffffffffffffffffffffffffffff1673ffffffffffffffffffffffffffffffffffffffff1663c3075044836040518263ffffffff1660e01b8152600401808273ffffffffffffffffffffffffffffffffffffffff1673ffffffffffffffffffffffffffffffffffffffff16815260200191505060206040518083038186803b158015610f1657600080fd5b505afa158015610f2a573d6000803e3d6000fd5b505050506040513d6020811015610f4057600080fd5b8101908080519060200190929190505050105b15611017578273ffffffffffffffffffffffffffffffffffffffff1663b72703ac826040518263ffffffff1660e01b8152600401808273ffffffffffffffffffffffffffffffffffffffff1673ffffffffffffffffffffffffffffffffffffffff16815260200191505060206040518083038186803b158015610fd557600080fd5b505afa158015610fe9573d6000803e3d6000fd5b505050506040513d6020811015610fff57600080fd5b81019080805190602001909291905050509050610e36565b8095506000871415611047577fffffffffffffffffffffffffffffffffffffffffffffffffffffffffffffffff96505b5b600073ffffffffffffffffffffffffffffffffffffffff168173ffffffffffffffffffffffffffffffffffffffff1614158015611086575060008214155b801561109a57506000878060019003985014155b156113e557600061126e600560009054906101000a900473ffffffffffffffffffffffffffffffffffffffff1673ffffffffffffffffffffffffffffffffffffffff1663a04aeabb846040518263ffffffff1660e01b8152600401808273ffffffffffffffffffffffffffffffffffffffff1673ffffffffffffffffffffffffffffffffffffffff16815260200191505060206040518083038186803b15801561114357600080fd5b505afa158015611157573d6000803e3d6000fd5b505050506040513d602081101561116d57600080fd5b8101908080519060200190929190505050611260600560009054906101000a900473ffffffffffffffffffffffffffffffffffffffff1673ffffffffffffffffffffffffffffffffffffffff1663d66a2553866040518263ffffffff1660e01b8152600401808273ffffffffffffffffffffffffffffffffffffffff1673ffffffffffffffffffffffffffffffffffffffff16815260200191505060206040518083038186803b15801561122057600080fd5b505afa158015611234573d6000803e3d6000fd5b505050506040513d602081101561124a57600080fd5b810190808051906020019092919050505061177b565b6116b590919063ffffffff16565b9050828111156113105768056bc75e2d6310000081111561130a5760006112b0846112ab68056bc75e2d63100000856117a090919063ffffffff16565b6117ea565b905060006112be8483611803565b905060006112d583856117a090919063ffffffff16565b905060006112e282611b76565b90506112ee8382611b9b565b995061130384886117a090919063ffffffff16565b9650505050505b506113e5565b61132381846117a090919063ffffffff16565b92508373ffffffffffffffffffffffffffffffffffffffff1663b72703ac836040518263ffffffff1660e01b8152600401808273ffffffffffffffffffffffffffffffffffffffff1673ffffffffffffffffffffffffffffffffffffffff16815260200191505060206040518083038186803b1580156113a257600080fd5b505afa1580156113b6573d6000803e3d6000fd5b505050506040513d60208110156113cc57600080fd5b8101908080519060200190929190505050915050611048565b6113f882896117a090919063ffffffff16565b93505050509250925092565b6000600360009054906101000a900473ffffffffffffffffffffffffffffffffffffffff16905090565b6000600360009054906101000a900473ffffffffffffffffffffffffffffffffffffffff1673ffffffffffffffffffffffffffffffffffffffff163373ffffffffffffffffffffffffffffffffffffffff1614905090565b670de0b6b3a764000081565b7f48696e7448656c7065727300000000000000000000000000000000000000000081565b60056103e8670de0b6b3a7640000816114cb57fe5b040281565b600073ffffffffffffffffffffffffffffffffffffffff168173ffffffffffffffffffffffffffffffffffffffff161415611573576040517f08c379a000000000000000000000000000000000000000000000000000000000815260040180806020018281038252601e8152602001807f4163636f756e742063616e6e6f74206265207a65726f2061646472657373000081525060200191505060405180910390fd5b6000813b905060008114156115f0576040517f08c379a00000000000000000000000000000000000000000000000000000000081526004018080602001828103825260208152602001807f4163636f756e7420636f64652073697a652063616e6e6f74206265207a65726f81525060200191505060405180910390fd5b5050565b600073ffffffffffffffffffffffffffffffffffffffff16600360009054906101000a900473ffffffffffffffffffffffffffffffffffffffff1673ffffffffffffffffffffffffffffffffffffffff167f8be0079c531659141344cd1fd0a4f28419497f9722a3daafe3b4186f6b6457e060405160405180910390a36000600360006101000a81548173ffffffffffffffffffffffffffffffffffffffff021916908373ffffffffffffffffffffffffffffffffffffffff160217905550565b600080828401905083811015611733576040517f08c379a000000000000000000000000000000000000000000000000000000000815260040180806020018281038252600c8152602001807f616464206f766572666c6f77000000000000000000000000000000000000000081525060200191505060405180910390fd5b8091505092915050565b60008183101561175f5761175a83836117a090919063ffffffff16565b611773565b61177282846117a090919063ffffffff16565b5b905092915050565b60006117996802b5e3af16b1880000836117a090919063ffffffff16565b9050919050565b60006117e283836040518060400160405280600c81526020017f737562206f766572666c6f770000000000000000000000000000000000000000815250611c08565b905092915050565b60008183106117f957816117fb565b825b905092915050565b600061180d612105565b600560009054906101000a900473ffffffffffffffffffffffffffffffffffffffff1673ffffffffffffffffffffffffffffffffffffffff166335a058b4856040518263ffffffff1660e01b8152600401808273ffffffffffffffffffffffffffffffffffffffff1673ffffffffffffffffffffffffffffffffffffffff16815260200191505060006040518083038186803b1580156118ac57600080fd5b505afa1580156118c0573d6000803e3d6000fd5b505050506040513d6000823e3d601f19601f8201168201806040525060608110156118ea57600080fd5b810190808051604051939291908464010000000082111561190a57600080fd5b8382019150602082018581111561192057600080fd5b825186602082028301116401000000008211171561193d57600080fd5b8083526020830192505050908051906020019060200280838360005b83811015611974578082015181840152602081019050611959565b505050509050016040526020018051604051939291908464010000000082111561199d57600080fd5b838201915060208201858111156119b357600080fd5b82518660208202830111640100000000821117156119d057600080fd5b8083526020830192505050908051906020019060200280838360005b83811015611a075780820151818401526020810190506119ec565b50505050905001604052602001805190602001909291905050505082600001836020018290528290525050606081600001515167ffffffffffffffff81118015611a5057600080fd5b50604051908082528060200260200182016040528015611a7f5781602001602082028036833780820191505090505b5090506000611a8d83611cc8565b90506000611aac670de0b6b3a764000087611e1090919063ffffffff16565b90506000846000015151905060005b81811015611b5a57600086602001518281518110611ad557fe5b602002602001015190506000611b20670de0b6b3a7640000611b1288611b04868a611e1090919063ffffffff16565b611eb390919063ffffffff16565b611eb390919063ffffffff16565b9050611b3581836117a090919063ffffffff16565b878481518110611b4157fe5b6020026020010181815250505050806001019050611abb565b50611b69856000015185611efd565b9550505050505092915050565b6000611b946802b5e3af16b1880000836116b590919063ffffffff16565b9050919050565b6000808214611bde576000611bd383611bc5670de0b6b3a764000087611e1090919063ffffffff16565b611eb390919063ffffffff16565b905080915050611c02565b7fffffffffffffffffffffffffffffffffffffffffffffffffffffffffffffffff90505b92915050565b6000838311158290611cb5576040517f08c379a00000000000000000000000000000000000000000000000000000000081526004018080602001828103825283818151815260200191508051906020019080838360005b83811015611c7a578082015181840152602081019050611c5f565b50505050905090810190601f168015611ca75780820380516001836020036101000a031916815260200191505b509250505060405180910390fd5b5060008385039050809150509392505050565b60008060009054906101000a900473ffffffffffffffffffffffffffffffffffffffff1673ffffffffffffffffffffffffffffffffffffffff16633b1c2906836000015184602001516040518363ffffffff1660e01b8152600401808060200180602001838103835285818151815260200191508051906020019060200280838360005b83811015611d67578082015181840152602081019050611d4c565b50505050905001838103825284818151815260200191508051906020019060200280838360005b83811015611da9578082015181840152602081019050611d8e565b5050505090500194505050505060206040518083038186803b158015611dce57600080fd5b505afa158015611de2573d6000803e3d6000fd5b505050506040513d6020811015611df857600080fd5b81019080805190602001909291905050509050919050565b600080831415611e235760009050611ead565b6000828402905082848281611e3457fe5b0414611ea8576040517f08c379a000000000000000000000000000000000000000000000000000000000815260040180806020018281038252600c8152602001807f6d756c206f766572666c6f77000000000000000000000000000000000000000081525060200191505060405180910390fd5b809150505b92915050565b6000611ef583836040518060400160405280600881526020017f646976206279203000000000000000000000000000000000000000000000000081525061203e565b905092915050565b60008060009054906101000a900473ffffffffffffffffffffffffffffffffffffffff1673ffffffffffffffffffffffffffffffffffffffff166397a4b9f784846040518363ffffffff1660e01b8152600401808060200180602001838103835285818151815260200191508051906020019060200280838360005b83811015611f94578082015181840152602081019050611f79565b50505050905001838103825284818151815260200191508051906020019060200280838360005b83811015611fd6578082015181840152602081019050611fbb565b5050505090500194505050505060206040518083038186803b158015611ffb57600080fd5b505afa15801561200f573d6000803e3d6000fd5b505050506040513d602081101561202557600080fd5b8101908080519060200190929190505050905092915050565b60008083141582906120eb576040517f08c379a00000000000000000000000000000000000000000000000000000000081526004018080602001828103825283818151815260200191508051906020019080838360005b838110156120b0578082015181840152602081019050612095565b50505050905090810190601f1680156120dd5780820380516001836020036101000a031916815260200191505b509250505060405180910390fd5b5060008385816120f757fe5b049050809150509392505050565b60405180604001604052806060815260200160608152509056fea2646970667358221220a2308c3507064effc1677b0e5071c29812c1debaa8bf2ac2391bf781f17c3a3a64736f6c634300060b0033",
  "immutableReferences": {},
  "source": "// SPDX-License-Identifier: UNLICENSED\n\npragma solidity 0.6.11;\n\nimport \"../Interfaces/ITroveManager.sol\";\nimport \"../Interfaces/ISortedTroves.sol\";\nimport \"../Interfaces/IWhitelist.sol\";\nimport \"../Dependencies/LiquityBase.sol\";\nimport \"../Dependencies/Ownable.sol\";\nimport \"../Dependencies/CheckContract.sol\";\n\n/** \n * Hint helpers is a contract for giving approximate insert positions for a trove after \n * an operation, such as partial redemption re-insert, adjust trove, etc. \n */\n\ncontract HintHelpers is LiquityBase, Ownable, CheckContract {\n    bytes32 constant public NAME = \"HintHelpers\";\n\n    ISortedTroves internal sortedTroves;\n    ITroveManager internal troveManager;\n\n    // --- Events ---\n\n    event SortedTrovesAddressChanged(address _sortedTrovesAddress);\n    event TroveManagerAddressChanged(address _troveManagerAddress);\n    event WhitelistAddressChanged(address _troveManagerAddress);\n\n    // --- Dependency setters ---\n\n    function setAddresses(\n        address _sortedTrovesAddress,\n        address _troveManagerAddress,\n        address _whitelistAddress\n    )\n        external\n        onlyOwner\n    {\n        checkContract(_sortedTrovesAddress);\n        checkContract(_troveManagerAddress);\n        checkContract(_whitelistAddress);\n\n        sortedTroves = ISortedTroves(_sortedTrovesAddress);\n        troveManager = ITroveManager(_troveManagerAddress);\n        whitelist = IWhitelist(_whitelistAddress);\n\n        emit SortedTrovesAddressChanged(_sortedTrovesAddress);\n        emit TroveManagerAddressChanged(_troveManagerAddress);\n        emit WhitelistAddressChanged(_troveManagerAddress);\n\n        _renounceOwnership();\n    }\n\n    // --- Functions ---\n\n    /* getRedemptionHints() - Helper function for finding the right hints to pass to redeemCollateral().\n     *\n     * It simulates a redemption of `_YUSDamount` to figure out where the redemption sequence will start and what state the final Trove\n     * of the sequence will end up in.\n     *\n     * Returns three hints:\n     *  - `firstRedemptionHint` is the address of the first Trove with ICR >= MCR (i.e. the first Trove that will be redeemed).\n     *  - `partialRedemptionHintICR` is the final ICR of the last Trove of the sequence after being hit by partial redemption,\n     *     or zero in case of no partial redemption.\n     *  - `truncatedYUSDamount` is the maximum amount that can be redeemed out of the the provided `_YUSDamount`. This can be lower than\n     *    `_YUSDamount` when redeeming the full amount would leave the last Trove of the redemption sequence with less net debt than the\n     *    minimum allowed value (i.e. MIN_NET_DEBT).\n     *\n     * The number of Troves to consider for redemption can be capped by passing a non-zero value as `_maxIterations`, while passing zero\n     * will leave it uncapped.\n     */\n\n\n// TODO \n    function getRedemptionHints(\n        uint _SUSDamount, \n        uint _maxIterations\n    )\n        external\n        view\n        returns (\n            address firstRedemptionHint,\n            uint partialRedemptionHintICR,\n            uint truncatedSUSDamount\n        )\n    {\n        ISortedTroves sortedTrovesCached = sortedTroves;\n\n        uint remainingSUSD = _SUSDamount;\n        address currentTroveuser = sortedTrovesCached.getLast();\n\n        while (currentTroveuser != address(0) && sortedTroves.getOldICR(currentTroveuser) < MCR) {\n            currentTroveuser = sortedTrovesCached.getPrev(currentTroveuser);\n        }\n\n        firstRedemptionHint = currentTroveuser;\n\n        if (_maxIterations == 0) {\n            _maxIterations = uint(-1);\n        }\n\n        while (currentTroveuser != address(0) && remainingSUSD != 0 && _maxIterations-- != 0) {\n            uint netSUSDDebt = _getNetDebt(troveManager.getTroveDebt(currentTroveuser))\n                .add(troveManager.getPendingSUSDDebtReward(currentTroveuser));\n\n            if (netSUSDDebt > remainingSUSD) { // Partial redemption\n                if (netSUSDDebt > MIN_NET_DEBT) { // MIN NET DEBT = 1800\n                    uint maxRedeemableSUSD = LiquityMath._min(remainingSUSD, netSUSDDebt.sub(MIN_NET_DEBT));\n\n                    uint newColl = _calculateVCAfterRedemption(currentTroveuser, maxRedeemableSUSD);\n                    uint newDebt = netSUSDDebt.sub(maxRedeemableSUSD);\n\n                    uint compositeDebt = _getCompositeDebt(newDebt);\n                    partialRedemptionHintICR = LiquityMath._computeCR(newColl, compositeDebt);\n\n                    remainingSUSD = remainingSUSD.sub(maxRedeemableSUSD);\n                }\n                break;\n            } else { // Full redemption in this case\n                remainingSUSD = remainingSUSD.sub(netSUSDDebt);\n            }\n\n            currentTroveuser = sortedTrovesCached.getPrev(currentTroveuser);\n        }\n\n        truncatedSUSDamount = _SUSDamount.sub(remainingSUSD);\n    }\n\n    // Function for calculating the VC of a trove after a redemption, since the value is given out proportionally to the \n    // USD Value of the collateral. Same function is used in TroveManagerRedemptions for the same purpose. \n    function _calculateVCAfterRedemption(address _borrower, uint _SUSDAmount) internal view returns (uint newCollVC) {\n        newColls memory colls;\n        (colls.tokens, colls.amounts, ) = troveManager.getCurrentTroveState(_borrower);\n\n        uint256[] memory finalAmounts = new uint256[](colls.tokens.length);\n\n        uint totalCollUSD = _getUSDColls(colls);\n        uint baseLot = _SUSDAmount.mul(DECIMAL_PRECISION);\n\n        // redemption addresses are the same as coll addresses for trove\n        uint256 tokensLen = colls.tokens.length;\n        for (uint256 i; i < tokensLen; ++i) {\n            uint tokenAmount = colls.amounts[i];\n            uint tokenAmountToRedeem = baseLot.mul(tokenAmount).div(totalCollUSD).div(DECIMAL_PRECISION);\n            finalAmounts[i] = tokenAmount.sub(tokenAmountToRedeem);\n        }\n\n        newCollVC = _getVC(colls.tokens, finalAmounts);\n    }\n\n\n    /* getApproxHint() - return address of a Trove that is, on average, (length / numTrials) positions away in the \n    sortedTroves list from the correct insert position of the Trove to be inserted. \n    \n    Note: The output address is worst-case O(n) positions away from the correct insert position, however, the function \n    is probabilistic. Input can be tuned to guarantee results to a high degree of confidence, e.g:\n\n    Submitting numTrials = k * sqrt(length), with k = 15 makes it very, very likely that the ouput address will \n    be <= sqrt(length) positions away from the correct insert position.\n    */\n    function getApproxHint(uint _CR, uint _numTrials, uint _inputRandomSeed)\n        external\n        view\n        returns (address hintAddress, uint diff, uint latestRandomSeed)\n    {\n        uint arrayLength = troveManager.getTroveOwnersCount();\n\n        if (arrayLength == 0) {\n            return (address(0), 0, _inputRandomSeed);\n        }\n\n        hintAddress = sortedTroves.getLast();\n        diff = LiquityMath._getAbsoluteDifference(_CR, sortedTroves.getOldICR(hintAddress));\n        latestRandomSeed = _inputRandomSeed;\n\n        uint i = 1;\n\n        while (i < _numTrials) {\n            latestRandomSeed = uint(keccak256(abi.encodePacked(latestRandomSeed)));\n\n            uint arrayIndex = latestRandomSeed % arrayLength;\n            address currentAddress = troveManager.getTroveFromTroveOwnersArray(arrayIndex);\n            uint currentICR = sortedTroves.getOldICR(currentAddress);\n\n            // check if abs(current - CR) > abs(closest - CR), and update closest if current is closer\n            uint currentDiff = LiquityMath._getAbsoluteDifference(currentICR, _CR);\n\n            if (currentDiff < diff) {\n                diff = currentDiff;\n                hintAddress = currentAddress;\n            }\n            ++i;\n        }\n    }\n}",
  "sourcePath": "/Users/phaxsam/Core-Stability_Truffle/contracts/HintHelpers.sol",
  "compiler": {
    "name": "solc",
    "version": "0.6.11+commit.5ef660b1.Emscripten.clang"
  },
  "schemaVersion": "3.4.9",
  "updatedAt": "2022-08-15T22:38:51.800Z",
  "devdoc": {
    "kind": "dev",
    "methods": {
      "isOwner()": {
        "details": "Returns true if the caller is the current owner."
      },
      "owner()": {
        "details": "Returns the address of the current owner."
      }
    },
    "version": 1
  },
  "userdoc": {
    "kind": "user",
    "methods": {},
    "notice": "Hint helpers is a contract for giving approximate insert positions for a trove after  an operation, such as partial redemption re-insert, adjust trove, etc. ",
    "version": 1
  }
}