{
  "contractName": "LiquityBase",
  "abi": [
    {
      "inputs": [],
      "name": "BORROWING_FEE_FLOOR",
      "outputs": [
        {
          "internalType": "uint256",
          "name": "",
          "type": "uint256"
        }
      ],
      "stateMutability": "view",
      "type": "function"
    },
    {
      "inputs": [],
      "name": "CCR",
      "outputs": [
        {
          "internalType": "uint256",
          "name": "",
          "type": "uint256"
        }
      ],
      "stateMutability": "view",
      "type": "function"
    },
    {
      "inputs": [],
      "name": "DECIMAL_PRECISION",
      "outputs": [
        {
          "internalType": "uint256",
          "name": "",
          "type": "uint256"
        }
      ],
      "stateMutability": "view",
      "type": "function"
    },
    {
      "inputs": [],
      "name": "MCR",
      "outputs": [
        {
          "internalType": "uint256",
          "name": "",
          "type": "uint256"
        }
      ],
      "stateMutability": "view",
      "type": "function"
    },
    {
      "inputs": [],
      "name": "MIN_NET_DEBT",
      "outputs": [
        {
          "internalType": "uint256",
          "name": "",
          "type": "uint256"
        }
      ],
      "stateMutability": "view",
      "type": "function"
    },
    {
      "inputs": [],
      "name": "REDEMPTION_FEE_FLOOR",
      "outputs": [
        {
          "internalType": "uint256",
          "name": "",
          "type": "uint256"
        }
      ],
      "stateMutability": "view",
      "type": "function"
    },
    {
      "inputs": [],
      "name": "SUSD_GAS_COMPENSATION",
      "outputs": [
        {
          "internalType": "uint256",
          "name": "",
          "type": "uint256"
        }
      ],
      "stateMutability": "view",
      "type": "function"
    },
    {
      "inputs": [],
      "name": "getEntireSystemColl",
      "outputs": [
        {
          "internalType": "uint256",
          "name": "",
          "type": "uint256"
        }
      ],
      "stateMutability": "view",
      "type": "function"
    },
    {
      "inputs": [],
      "name": "getEntireSystemDebt",
      "outputs": [
        {
          "internalType": "uint256",
          "name": "",
          "type": "uint256"
        }
      ],
      "stateMutability": "view",
      "type": "function"
    }
  ],
  "bytecode": "0x608060405234801561001057600080fd5b506104e9806100206000396000f3fe608060405234801561001057600080fd5b50600436106100935760003560e01c8063795d26c311610066578063795d26c31461011057806387dc66561461012e578063887105d31461014c578063a20baee61461016a578063f92d34331461018857610093565b80631bf435551461009857806328d28b5b146100b65780635733d58f146100d4578063794e5724146100f2575b600080fd5b6100a06101a6565b6040518082815260200191505060405180910390f35b6100be6101b3565b6040518082815260200191505060405180910390f35b6100dc6101cd565b6040518082815260200191505060405180910390f35b6100fa6101d9565b6040518082815260200191505060405180910390f35b6101186101e5565b6040518082815260200191505060405180910390f35b61013661034e565b6040518082815260200191505060405180910390f35b61015461035b565b6040518082815260200191505060405180910390f35b610172610405565b6040518082815260200191505060405180910390f35b610190610411565b6040518082815260200191505060405180910390f35b68056bc75e2d6310000081565b60056103e8670de0b6b3a7640000816101c857fe5b040281565b6714d1120d7b16000081565b670f43fc2c04ee000081565b600080600160009054906101000a900473ffffffffffffffffffffffffffffffffffffffff1673ffffffffffffffffffffffffffffffffffffffff1663c24103646040518163ffffffff1660e01b815260040160206040518083038186803b15801561025057600080fd5b505afa158015610264573d6000803e3d6000fd5b505050506040513d602081101561027a57600080fd5b810190808051906020019092919050505090506000600260009054906101000a900473ffffffffffffffffffffffffffffffffffffffff1673ffffffffffffffffffffffffffffffffffffffff1663c24103646040518163ffffffff1660e01b815260040160206040518083038186803b1580156102f757600080fd5b505afa15801561030b573d6000803e3d6000fd5b505050506040513d602081101561032157600080fd5b81019080805190602001909291905050509050610347818361042b90919063ffffffff16565b9250505090565b6802b5e3af16b188000081565b6000600160009054906101000a900473ffffffffffffffffffffffffffffffffffffffff1673ffffffffffffffffffffffffffffffffffffffff1663651340c46040518163ffffffff1660e01b815260040160206040518083038186803b1580156103c557600080fd5b505afa1580156103d9573d6000803e3d6000fd5b505050506040513d60208110156103ef57600080fd5b8101908080519060200190929190505050905090565b670de0b6b3a764000081565b60056103e8670de0b6b3a76400008161042657fe5b040281565b6000808284019050838110156104a9576040517f08c379a000000000000000000000000000000000000000000000000000000000815260040180806020018281038252600c8152602001807f616464206f766572666c6f77000000000000000000000000000000000000000081525060200191505060405180910390fd5b809150509291505056fea2646970667358221220a88dfa67fdf88121702ee664a70ebfdebe4b3bdb9ee66318e6a5f4542260aed064736f6c634300060b0033",
  "immutableReferences": {},
  "source": "// SPDX-License-Identifier: UNLICENSED\n\npragma solidity 0.6.11;\n\nimport \"./LiquityMath.sol\";\nimport \"../Interfaces/IActivePool.sol\";\nimport \"../Interfaces/IDefaultPool.sol\";\nimport \"../Interfaces/ILiquityBase.sol\";\nimport \"./StabCustomBase.sol\";\n\n\n/* \n* Base contract for TroveManager, BorrowerOperations and StabilityPool. Contains global system constants and\n* common functions. \n*/\ncontract LiquityBase is ILiquityBase, StabCustomBase {\n\n    // Minimum collateral ratio for individual troves\n    uint constant public MCR = 11e17; // 110%\n\n    // Critical system collateral ratio. If the system's total collateral ratio (TCR) falls below the CCR, Recovery Mode is triggered.\n    uint constant public CCR = 15e17; // 150%\n\n    // Amount of YUSD to be locked in gas pool on opening troves\n    uint constant public SUSD_GAS_COMPENSATION = 50e18;\n\n    // Minimum amount of net SUSD debt a must have\n    uint constant public MIN_NET_DEBT = 100e18;\n    // uint constant public MIN_NET_DEBT = 0; \n\n    uint constant public BORROWING_FEE_FLOOR = DECIMAL_PRECISION / 1000 * 5; // 0.5%\n    uint constant public REDEMPTION_FEE_FLOOR = DECIMAL_PRECISION / 1000 * 5; // 0.5%\n\n    IActivePool internal activePool;\n\n    IDefaultPool internal defaultPool;\n\n    // --- Gas compensation functions ---\n\n    // Returns the composite debt (drawn debt + gas compensation) of a trove, for the purpose of ICR calculation\n    function _getCompositeDebt(uint _debt) internal pure returns (uint) {\n        return _debt.add(SUSD_GAS_COMPENSATION);\n    }\n\n    // returns the net debt, which is total debt - gas compensation of a trove\n    function _getNetDebt(uint _debt) internal pure returns (uint) {\n        return _debt.sub(SUSD_GAS_COMPENSATION);\n    }\n\n    // Return the system's Total Virtual Coin Balance\n    // Virtual Coins are a way to keep track of the system collateralization given\n    // the collateral ratios of each collateral type\n    function getEntireSystemColl() public view returns (uint) {\n        return activePool.getVCSystem();\n    }\n\n\n    function getEntireSystemDebt() public override view returns (uint) {\n        uint activeDebt = activePool.getSUSDDebt();\n        uint closedDebt = defaultPool.getSUSDDebt();\n\n        return activeDebt.add(closedDebt);\n    }\n\n\n    function _getICRColls(newColls memory _colls, uint _debt) internal view returns (uint ICR) {\n        uint totalVC = _getVCColls(_colls);\n        ICR = LiquityMath._computeCR(totalVC, _debt);\n    }\n\n    function _getRICRColls(newColls memory _colls, uint _debt) internal view returns (uint RICR) {\n        uint totalVC = _getRVCColls(_colls);\n        RICR = LiquityMath._computeCR(totalVC, _debt);\n    }\n\n\n    function _getVC(address[] memory _tokens, uint[] memory _amounts) internal view returns (uint totalVC) {\n        totalVC = whitelist.getValuesVC(_tokens, _amounts);\n    }\n\n    function _getRVC(address[] memory _tokens, uint[] memory _amounts) internal view returns (uint totalRVC) {\n        totalRVC = whitelist.getValuesRVC(_tokens, _amounts);\n    }\n\n\n    function _getVCColls(newColls memory _colls) internal view returns (uint totalVC) {\n        totalVC = whitelist.getValuesVC(_colls.tokens, _colls.amounts);\n    }\n\n    function _getRVCColls(newColls memory _colls) internal view returns (uint totalRVC) {\n        totalRVC = whitelist.getValuesRVC(_colls.tokens, _colls.amounts);\n    }\n\n\n    function _getUSDColls(newColls memory _colls) internal view returns (uint totalUSDValue) {\n        totalUSDValue = whitelist.getValuesUSD(_colls.tokens, _colls.amounts);\n    }\n\n\n    function _getTCR() internal view returns (uint TCR) {\n        (,uint256 entireSystemCollForTCR) = activePool.getVCforTCRSystem();\n        uint256 entireSystemDebt = getEntireSystemDebt();\n        \n        TCR = LiquityMath._computeCR(entireSystemCollForTCR, entireSystemDebt);\n    }\n\n\n    // Returns recovery mode bool as well as entire system coll \n    // Do these together to avoid looping.\n    function _checkRecoveryModeAndSystem() internal view returns (bool recMode, uint256 entireSystemColl, uint256 entireSystemDebt) {\n        uint256 entireSystemCollForTCR;\n        (entireSystemColl, entireSystemCollForTCR) = activePool.getVCforTCRSystem();\n        entireSystemDebt = getEntireSystemDebt();\n        // Check TCR < CCR\n        recMode = LiquityMath._computeCR(entireSystemCollForTCR, entireSystemDebt) < CCR;\n    }\n\n    function _checkRecoveryMode() internal view returns (bool) {\n        return _getTCR() < CCR;\n    }\n\n    // fee and amount are denominated in dollar\n    function _requireUserAcceptsFee(uint _fee, uint _amount, uint _maxFeePercentage) internal pure {\n        uint feePercentage = _fee.mul(DECIMAL_PRECISION).div(_amount);\n        require(feePercentage <= _maxFeePercentage, \"Fee > max\");\n    }\n\n    // checks coll has a nonzero balance of at least one token in coll.tokens\n    function _collsIsNonZero(newColls memory _colls) internal pure returns (bool) {\n        uint256 tokensLen = _colls.tokens.length;\n        for (uint256 i; i < tokensLen; ++i) {\n            if (_colls.amounts[i] != 0) {\n                return true;\n            }\n        }\n        return false;\n    }\n}",
  "sourcePath": "/Users/phaxsam/Core-Stability_Truffle/Dependencies/LiquityBase.sol",
  "compiler": {
    "name": "solc",
    "version": "0.6.11+commit.5ef660b1.Emscripten.clang"
  },
  "schemaVersion": "3.4.9",
  "updatedAt": "2022-08-15T22:38:51.709Z",
  "devdoc": {
    "kind": "dev",
    "methods": {},
    "version": 1
  },
  "userdoc": {
    "kind": "user",
    "methods": {},
    "version": 1
  }
}