{
  "contractName": "MultiTroveGetter",
  "abi": [
    {
      "inputs": [
        {
          "internalType": "contract TroveManager",
          "name": "_troveManager",
          "type": "address"
        },
        {
          "internalType": "contract ISortedTroves",
          "name": "_sortedTroves",
          "type": "address"
        },
        {
          "internalType": "contract IWhitelist",
          "name": "_whitelist",
          "type": "address"
        }
      ],
      "stateMutability": "nonpayable",
      "type": "constructor"
    },
    {
      "inputs": [],
      "name": "sortedTroves",
      "outputs": [
        {
          "internalType": "contract ISortedTroves",
          "name": "",
          "type": "address"
        }
      ],
      "stateMutability": "view",
      "type": "function"
    },
    {
      "inputs": [],
      "name": "troveManager",
      "outputs": [
        {
          "internalType": "contract TroveManager",
          "name": "",
          "type": "address"
        }
      ],
      "stateMutability": "view",
      "type": "function"
    },
    {
      "inputs": [],
      "name": "whitelist",
      "outputs": [
        {
          "internalType": "contract IWhitelist",
          "name": "",
          "type": "address"
        }
      ],
      "stateMutability": "view",
      "type": "function"
    },
    {
      "inputs": [
        {
          "internalType": "int256",
          "name": "_startIdx",
          "type": "int256"
        },
        {
          "internalType": "uint256",
          "name": "_count",
          "type": "uint256"
        }
      ],
      "name": "getMultipleSortedTroves",
      "outputs": [
        {
          "components": [
            {
              "internalType": "address",
              "name": "owner",
              "type": "address"
            },
            {
              "internalType": "uint256",
              "name": "debt",
              "type": "uint256"
            },
            {
              "internalType": "address[]",
              "name": "colls",
              "type": "address[]"
            },
            {
              "internalType": "uint256[]",
              "name": "amounts",
              "type": "uint256[]"
            },
            {
              "internalType": "address[]",
              "name": "allColls",
              "type": "address[]"
            },
            {
              "internalType": "uint256[]",
              "name": "stakeAmounts",
              "type": "uint256[]"
            },
            {
              "internalType": "uint256[]",
              "name": "snapshotAmounts",
              "type": "uint256[]"
            },
            {
              "internalType": "uint256[]",
              "name": "snapshotYUSDDebts",
              "type": "uint256[]"
            }
          ],
          "internalType": "struct MultiTroveGetter.CombinedTroveData[]",
          "name": "_troves",
          "type": "tuple[]"
        }
      ],
      "stateMutability": "view",
      "type": "function"
    }
  ],
  "bytecode": "0x60806040523480156200001157600080fd5b50604051620018c4380380620018c4833981810160405281019062000037919062000147565b826000806101000a81548173ffffffffffffffffffffffffffffffffffffffff021916908373ffffffffffffffffffffffffffffffffffffffff16021790555081600160006101000a81548173ffffffffffffffffffffffffffffffffffffffff021916908373ffffffffffffffffffffffffffffffffffffffff16021790555080600260006101000a81548173ffffffffffffffffffffffffffffffffffffffff021916908373ffffffffffffffffffffffffffffffffffffffff1602179055505050506200025b565b60008151905062000113816200020d565b92915050565b6000815190506200012a8162000227565b92915050565b600081519050620001418162000241565b92915050565b6000806000606084860312156200015d57600080fd5b60006200016d8682870162000130565b9350506020620001808682870162000102565b9250506040620001938682870162000119565b9150509250925092565b6000620001aa82620001ed565b9050919050565b6000620001be826200019d565b9050919050565b6000620001d2826200019d565b9050919050565b6000620001e6826200019d565b9050919050565b600073ffffffffffffffffffffffffffffffffffffffff82169050919050565b6200021881620001b1565b81146200022457600080fd5b50565b6200023281620001c5565b81146200023e57600080fd5b50565b6200024c81620001d9565b81146200025857600080fd5b50565b611659806200026b6000396000f3fe608060405234801561001057600080fd5b506004361061004c5760003560e01c80633d83908a1461005157806393e59dc11461006f578063ae9187541461008d578063b90bce45146100ab575b600080fd5b6100596100db565b60405161006691906113e9565b60405180910390f35b610077610100565b60405161008491906113ce565b60405180910390f35b610095610126565b6040516100a291906113b3565b60405180910390f35b6100c560048036038101906100c09190611046565b61014c565b6040516100d29190611391565b60405180910390f35b6000809054906101000a900473ffffffffffffffffffffffffffffffffffffffff1681565b600260009054906101000a900473ffffffffffffffffffffffffffffffffffffffff1681565b600160009054906101000a900473ffffffffffffffffffffffffffffffffffffffff1681565b6060600080600085126101655784915060019050610173565b600185016000039150600090505b6000600160009054906101000a900473ffffffffffffffffffffffffffffffffffffffff1673ffffffffffffffffffffffffffffffffffffffff1663de8fa4316040518163ffffffff1660e01b815260040160206040518083038186803b1580156101dd57600080fd5b505afa1580156101f1573d6000803e3d6000fd5b505050506040513d601f19601f820116820180604052508101906102159190611082565b905080831061027857600067ffffffffffffffff8111801561023657600080fd5b5060405190808252806020026020018201604052801561027057816020015b61025d610dbb565b8152602001906001900390816102555790505b5093506102b1565b600083820390508086111561028b578095505b82156102a25761029b84876102ba565b94506102af565b6102ac8487610569565b94505b505b50505092915050565b60606000600160009054906101000a900473ffffffffffffffffffffffffffffffffffffffff1673ffffffffffffffffffffffffffffffffffffffff16631e2231436040518163ffffffff1660e01b815260040160206040518083038186803b15801561032657600080fd5b505afa15801561033a573d6000803e3d6000fd5b505050506040513d601f19601f8201168201806040525081019061035e9190610f70565b905060008090505b8481101561042657600160009054906101000a900473ffffffffffffffffffffffffffffffffffffffff1673ffffffffffffffffffffffffffffffffffffffff1663765e0159836040518263ffffffff1660e01b81526004016103c9919061134d565b60206040518083038186803b1580156103e157600080fd5b505afa1580156103f5573d6000803e3d6000fd5b505050506040513d601f19601f820116820180604052508101906104199190610f70565b9150806001019050610366565b508267ffffffffffffffff8111801561043e57600080fd5b5060405190808252806020026020018201604052801561047857816020015b610465610dbb565b81526020019060019003908161045d5790505b50915060008090505b838110156105615761049282610818565b83828151811061049e57fe5b6020026020010181905250600160009054906101000a900473ffffffffffffffffffffffffffffffffffffffff1673ffffffffffffffffffffffffffffffffffffffff1663765e0159836040518263ffffffff1660e01b8152600401610504919061134d565b60206040518083038186803b15801561051c57600080fd5b505afa158015610530573d6000803e3d6000fd5b505050506040513d601f19601f820116820180604052508101906105549190610f70565b9150806001019050610481565b505092915050565b60606000600160009054906101000a900473ffffffffffffffffffffffffffffffffffffffff1673ffffffffffffffffffffffffffffffffffffffff16634d6228316040518163ffffffff1660e01b815260040160206040518083038186803b1580156105d557600080fd5b505afa1580156105e9573d6000803e3d6000fd5b505050506040513d601f19601f8201168201806040525081019061060d9190610f70565b905060008090505b848110156106d557600160009054906101000a900473ffffffffffffffffffffffffffffffffffffffff1673ffffffffffffffffffffffffffffffffffffffff1663b72703ac836040518263ffffffff1660e01b8152600401610678919061134d565b60206040518083038186803b15801561069057600080fd5b505afa1580156106a4573d6000803e3d6000fd5b505050506040513d601f19601f820116820180604052508101906106c89190610f70565b9150806001019050610615565b508267ffffffffffffffff811180156106ed57600080fd5b5060405190808252806020026020018201604052801561072757816020015b610714610dbb565b81526020019060019003908161070c5790505b50915060008090505b838110156108105761074182610818565b83828151811061074d57fe5b6020026020010181905250600160009054906101000a900473ffffffffffffffffffffffffffffffffffffffff1673ffffffffffffffffffffffffffffffffffffffff1663b72703ac836040518263ffffffff1660e01b81526004016107b3919061134d565b60206040518083038186803b1580156107cb57600080fd5b505afa1580156107df573d6000803e3d6000fd5b505050506040513d601f19601f820116820180604052508101906108039190610f70565b9150806001019050610730565b505092915050565b610820610dbb565b81816000019073ffffffffffffffffffffffffffffffffffffffff16908173ffffffffffffffffffffffffffffffffffffffff16815250506000809054906101000a900473ffffffffffffffffffffffffffffffffffffffff1673ffffffffffffffffffffffffffffffffffffffff1663d66a2553836040518263ffffffff1660e01b81526004016108b2919061134d565b60206040518083038186803b1580156108ca57600080fd5b505afa1580156108de573d6000803e3d6000fd5b505050506040513d601f19601f820116820180604052508101906109029190611082565b8160200181815250506000809054906101000a900473ffffffffffffffffffffffffffffffffffffffff1673ffffffffffffffffffffffffffffffffffffffff166399723784836040518263ffffffff1660e01b8152600401610965919061134d565b60006040518083038186803b15801561097d57600080fd5b505afa158015610991573d6000803e3d6000fd5b505050506040513d6000823e3d601f19601f820116820180604052508101906109ba9190610fda565b82604001836060018290528290525050600260009054906101000a900473ffffffffffffffffffffffffffffffffffffffff1673ffffffffffffffffffffffffffffffffffffffff16639d6aea0a6040518163ffffffff1660e01b815260040160006040518083038186803b158015610a3257600080fd5b505afa158015610a46573d6000803e3d6000fd5b505050506040513d6000823e3d601f19601f82011682018060405250810190610a6f9190610f99565b816080018190525080608001515167ffffffffffffffff81118015610a9357600080fd5b50604051908082528060200260200182016040528015610ac25781602001602082028036833780820191505090505b508160a0018190525080608001515167ffffffffffffffff81118015610ae757600080fd5b50604051908082528060200260200182016040528015610b165781602001602082028036833780820191505090505b508160c001819052506000816080015151905060005b81811015610db457600083608001518281518110610b4657fe5b602002602001015190506000809054906101000a900473ffffffffffffffffffffffffffffffffffffffff1673ffffffffffffffffffffffffffffffffffffffff1663dc3fe76f86836040518363ffffffff1660e01b8152600401610bac929190611368565b60206040518083038186803b158015610bc457600080fd5b505afa158015610bd8573d6000803e3d6000fd5b505050506040513d601f19601f82011682018060405250810190610bfc9190611082565b8460a001518381518110610c0c57fe5b6020026020010181815250506000809054906101000a900473ffffffffffffffffffffffffffffffffffffffff1673ffffffffffffffffffffffffffffffffffffffff1663ba6e79f786836040518363ffffffff1660e01b8152600401610c74929190611368565b60206040518083038186803b158015610c8c57600080fd5b505afa158015610ca0573d6000803e3d6000fd5b505050506040513d601f19601f82011682018060405250810190610cc49190611082565b8460c001518381518110610cd457fe5b6020026020010181815250506000809054906101000a900473ffffffffffffffffffffffffffffffffffffffff1673ffffffffffffffffffffffffffffffffffffffff16639ba6c3eb86836040518363ffffffff1660e01b8152600401610d3c929190611368565b60206040518083038186803b158015610d5457600080fd5b505afa158015610d68573d6000803e3d6000fd5b505050506040513d601f19601f82011682018060405250810190610d8c9190611082565b8460e001518381518110610d9c57fe5b60200260200101818152505050806001019050610b2c565b5050919050565b604051806101000160405280600073ffffffffffffffffffffffffffffffffffffffff168152602001600081526020016060815260200160608152602001606081526020016060815260200160608152602001606081525090565b600081519050610e25816115de565b92915050565b600082601f830112610e3c57600080fd5b8151610e4f610e4a82611431565b611404565b91508181835260208401935060208101905083856020840282011115610e7457600080fd5b60005b83811015610ea45781610e8a8882610e16565b845260208401935060208301925050600181019050610e77565b5050505092915050565b600082601f830112610ebf57600080fd5b8151610ed2610ecd82611459565b611404565b91508181835260208401935060208101905083856020840282011115610ef757600080fd5b60005b83811015610f275781610f0d8882610f5b565b845260208401935060208301925050600181019050610efa565b5050505092915050565b600081359050610f40816115f5565b92915050565b600081359050610f558161160c565b92915050565b600081519050610f6a8161160c565b92915050565b600060208284031215610f8257600080fd5b6000610f9084828501610e16565b91505092915050565b600060208284031215610fab57600080fd5b600082015167ffffffffffffffff811115610fc557600080fd5b610fd184828501610e2b565b91505092915050565b60008060408385031215610fed57600080fd5b600083015167ffffffffffffffff81111561100757600080fd5b61101385828601610e2b565b925050602083015167ffffffffffffffff81111561103057600080fd5b61103c85828601610eae565b9150509250929050565b6000806040838503121561105957600080fd5b600061106785828601610f31565b925050602061107885828601610f46565b9150509250929050565b60006020828403121561109457600080fd5b60006110a284828501610f5b565b91505092915050565b60006110b783836110ef565b60208301905092915050565b60006110cf838361126b565b905092915050565b60006110e3838361133e565b60208301905092915050565b6110f88161152c565b82525050565b6111078161152c565b82525050565b6000611118826114b1565b61112281856114f9565b935061112d83611481565b8060005b8381101561115e57815161114588826110ab565b9750611150836114d2565b925050600181019050611131565b5085935050505092915050565b6000611176826114bc565b611180818561150a565b93508360208202850161119285611491565b8060005b858110156111ce57848403895281516111af85826110c3565b94506111ba836114df565b925060208a01995050600181019050611196565b50829750879550505050505092915050565b60006111eb826114c7565b6111f5818561151b565b9350611200836114a1565b8060005b8381101561123157815161121888826110d7565b9750611223836114ec565b925050600181019050611204565b5085935050505092915050565b61124781611572565b82525050565b61125681611596565b82525050565b611265816115ba565b82525050565b60006101008301600083015161128460008601826110ef565b506020830151611297602086018261133e565b50604083015184820360408601526112af828261110d565b915050606083015184820360608601526112c982826111e0565b915050608083015184820360808601526112e3828261110d565b91505060a083015184820360a08601526112fd82826111e0565b91505060c083015184820360c086015261131782826111e0565b91505060e083015184820360e086015261133182826111e0565b9150508091505092915050565b61134781611568565b82525050565b600060208201905061136260008301846110fe565b92915050565b600060408201905061137d60008301856110fe565b61138a60208301846110fe565b9392505050565b600060208201905081810360008301526113ab818461116b565b905092915050565b60006020820190506113c8600083018461123e565b92915050565b60006020820190506113e3600083018461124d565b92915050565b60006020820190506113fe600083018461125c565b92915050565b6000604051905081810181811067ffffffffffffffff8211171561142757600080fd5b8060405250919050565b600067ffffffffffffffff82111561144857600080fd5b602082029050602081019050919050565b600067ffffffffffffffff82111561147057600080fd5b602082029050602081019050919050565b6000819050602082019050919050565b6000819050602082019050919050565b6000819050602082019050919050565b600081519050919050565b600081519050919050565b600081519050919050565b6000602082019050919050565b6000602082019050919050565b6000602082019050919050565b600082825260208201905092915050565b600082825260208201905092915050565b600082825260208201905092915050565b600061153782611548565b9050919050565b6000819050919050565b600073ffffffffffffffffffffffffffffffffffffffff82169050919050565b6000819050919050565b600061157d82611584565b9050919050565b600061158f82611548565b9050919050565b60006115a1826115a8565b9050919050565b60006115b382611548565b9050919050565b60006115c5826115cc565b9050919050565b60006115d782611548565b9050919050565b6115e78161152c565b81146115f257600080fd5b50565b6115fe8161153e565b811461160957600080fd5b50565b61161581611568565b811461162057600080fd5b5056fea26469706673582212200296c2ba998fe00482b7347a6e01e37a6edf1bbe9cb2b40dd68a74bb87952fd564736f6c634300060b0033",
  "immutableReferences": {},
  "source": "// SPDX-License-Identifier: UNLICENSED\n\npragma solidity 0.6.11;\npragma experimental ABIEncoderV2;\n\nimport \"./TroveManager.sol\";\nimport \"./SortedTroves.sol\";\nimport \"../Dependencies/Whitelist.sol\";\n\n/*  Helper contract for grabbing Trove data for the front end. Not part of the core Liquity system. */\ncontract MultiTroveGetter {\n    struct CombinedTroveData {\n        address owner;\n\n        uint debt;\n        address[] colls;\n        uint[] amounts;\n\n        address[] allColls;\n        uint[] stakeAmounts;\n        uint[] snapshotAmounts;\n        uint[] snapshotYUSDDebts;\n    }\n\n    TroveManager public troveManager; // XXX Troves missing from ITroveManager?\n    ISortedTroves public sortedTroves;\n    IWhitelist public whitelist;\n\n    constructor(TroveManager _troveManager, ISortedTroves _sortedTroves, IWhitelist _whitelist) public {\n        troveManager = _troveManager;\n        sortedTroves = _sortedTroves;\n        whitelist = _whitelist;\n    }\n\n    function getMultipleSortedTroves(int _startIdx, uint _count)\n        external view returns (CombinedTroveData[] memory _troves)\n    {\n        uint startIdx;\n        bool descend;\n\n        if (_startIdx >= 0) {\n            startIdx = uint(_startIdx);\n            descend = true;\n        } else {\n            startIdx = uint(-(_startIdx + 1));\n            descend = false;\n        }\n\n        uint sortedTrovesSize = sortedTroves.getSize();\n\n        if (startIdx >= sortedTrovesSize) {\n            _troves = new CombinedTroveData[](0);\n        } else {\n            uint maxCount = sortedTrovesSize - startIdx;\n\n            if (_count > maxCount) {\n                _count = maxCount;\n            }\n\n            if (descend) {\n                _troves = _getMultipleSortedTrovesFromHead(startIdx, _count);\n            } else {\n                _troves = _getMultipleSortedTrovesFromTail(startIdx, _count);\n            }\n        }\n    }\n\n    function _getMultipleSortedTrovesFromHead(uint _startIdx, uint _count)\n        internal view returns (CombinedTroveData[] memory _troves)\n    {\n        address currentTroveowner = sortedTroves.getFirst();\n\n        for (uint idx = 0; idx < _startIdx; ++idx) {\n            currentTroveowner = sortedTroves.getNext(currentTroveowner);\n        }\n\n        _troves = new CombinedTroveData[](_count);\n\n        for (uint idx = 0; idx < _count; ++idx) {\n            _troves[idx] = _getCombinedTroveData(currentTroveowner);\n            currentTroveowner = sortedTroves.getNext(currentTroveowner);\n        }\n    }\n\n    function _getMultipleSortedTrovesFromTail(uint _startIdx, uint _count)\n        internal view returns (CombinedTroveData[] memory _troves)\n    {\n        address currentTroveowner = sortedTroves.getLast();\n\n        for (uint idx = 0; idx < _startIdx; ++idx) {\n            currentTroveowner = sortedTroves.getPrev(currentTroveowner);\n        }\n\n        _troves = new CombinedTroveData[](_count);\n\n        for (uint idx = 0; idx < _count; ++idx) {\n            _troves[idx] = _getCombinedTroveData(currentTroveowner);\n            currentTroveowner = sortedTroves.getPrev(currentTroveowner);\n        }\n    }\n\n    function _getCombinedTroveData(address _troveOwner) internal view returns (CombinedTroveData memory data) {\n        data.owner = _troveOwner;\n        data.debt = troveManager.getTroveDebt(_troveOwner);\n        (data.colls, data.amounts) = troveManager.getTroveColls(_troveOwner);\n\n        data.allColls = whitelist.getValidCollateral();\n        data.stakeAmounts = new uint[](data.allColls.length);\n        data.snapshotAmounts = new uint[](data.allColls.length);\n        uint256 collsLen = data.allColls.length;\n        for (uint256 i; i < collsLen; ++i) {\n            address token = data.allColls[i];\n\n            data.stakeAmounts[i] = troveManager.getTroveStake(_troveOwner, token);\n            data.snapshotAmounts[i] = troveManager.getRewardSnapshotColl(_troveOwner, token);\n            data.snapshotYUSDDebts[i] = troveManager.getRewardSnapshotSUSD(_troveOwner, token);\n        }\n    }\n}",
  "sourcePath": "/Users/phaxsam/Core-Stability_Truffle/contracts/MultiTroveGetter.sol",
  "compiler": {
    "name": "solc",
    "version": "0.6.11+commit.5ef660b1.Emscripten.clang"
  },
  "schemaVersion": "3.4.9",
  "updatedAt": "2022-08-15T22:38:51.804Z",
  "devdoc": {
    "kind": "dev",
    "methods": {},
    "version": 1
  },
  "userdoc": {
    "kind": "user",
    "methods": {},
    "version": 1
  }
}