{
  "contractName": "PoolBase2",
  "abi": [
    {
      "inputs": [],
      "name": "DECIMAL_PRECISION",
      "outputs": [
        {
          "internalType": "uint256",
          "name": "",
          "type": "uint256"
        }
      ],
      "stateMutability": "view",
      "type": "function"
    }
  ],
  "bytecode": "0x6080604052348015600f57600080fd5b50608b8061001e6000396000f3fe6080604052348015600f57600080fd5b506004361060285760003560e01c8063a20baee614602d575b600080fd5b60336049565b6040518082815260200191505060405180910390f35b670de0b6b3a76400008156fea26469706673582212202d616d26c800b6712526b6e0aee622402106e17f230ebd82e6dbc849811d7aa164736f6c634300060b0033",
  "immutableReferences": {},
  "source": "// SPDX-License-Identifier: UNLICENSED\n\npragma solidity 0.6.11;\n\nimport \"./LiquityMath.sol\";\nimport \"../Interfaces/IActivePool.sol\";\nimport \"../Interfaces/IDefaultPool.sol\";\n//import \"./StabCustomBase.sol\";\nimport \"./StabCustomBase.sol\";\n\n\n/*\n* Base contract for TroveManager, BorrowerOperations and StabilityPool. Contains global system constants and\n* common functions.\n*/\ncontract PoolBase2 is StabCustomBase {\n\n    // Function for summing colls when coll1 includes all the tokens in the whitelist\n    // Used in active, default, stability, and surplus pools\n    // assumes _coll1.tokens = all whitelisted tokens\n    function _leftSumColls(\n        newColls memory _coll1,\n        address[] memory _tokens,\n        uint256[] memory _amounts\n    ) internal view returns (uint[] memory) {\n        if (_amounts.length == 0) {\n            return _coll1.amounts;\n        }\n        uint[] memory sumAmounts = _getArrayCopy(_coll1.amounts);\n\n        uint256 coll1Len = _tokens.length;\n        // assumes that sumAmounts length = whitelist tokens length.\n        for (uint256 i; i < coll1Len; ++i) {\n            uint tokenIndex = whitelist.getIndex(_tokens[i]);\n            sumAmounts[tokenIndex] = sumAmounts[tokenIndex].add(_amounts[i]);\n        }\n\n        return sumAmounts;\n    }\n\n    // Function for summing colls when one list is all tokens. Used in active, default, stability, and surplus pools\n    function _leftSubColls(newColls memory _coll1, address[] memory _subTokens, uint[] memory _subAmounts)\n    internal\n    view\n    returns (uint[] memory)\n    {\n        if (_subTokens.length == 0) {\n            return _coll1.amounts;\n        }\n        uint[] memory diffAmounts = _getArrayCopy(_coll1.amounts);\n\n        //assumes that coll1.tokens = whitelist tokens. Keeps all of coll1's tokens, and subtracts coll2's amounts\n        uint256 subTokensLen = _subTokens.length;\n        for (uint256 i; i < subTokensLen; ++i) {\n            uint256 tokenIndex = whitelist.getIndex(_subTokens[i]);\n            diffAmounts[tokenIndex] = diffAmounts[tokenIndex].sub(_subAmounts[i]);\n        }\n        return diffAmounts;\n    }\n}",
  "sourcePath": "/Users/phaxsam/Core-Stability_Truffle/Dependencies/PoolBase2.sol",
  "compiler": {
    "name": "solc",
    "version": "0.6.11+commit.5ef660b1.Emscripten.clang"
  },
  "schemaVersion": "3.4.9",
  "updatedAt": "2022-08-15T22:38:51.725Z",
  "devdoc": {
    "kind": "dev",
    "methods": {},
    "version": 1
  },
  "userdoc": {
    "kind": "user",
    "methods": {},
    "version": 1
  }
}