{
  "contractName": "PoolBase",
  "abi": [
    {
      "inputs": [],
      "name": "BORROWING_FEE_FLOOR",
      "outputs": [
        {
          "internalType": "uint256",
          "name": "",
          "type": "uint256"
        }
      ],
      "stateMutability": "view",
      "type": "function"
    },
    {
      "inputs": [],
      "name": "CCR",
      "outputs": [
        {
          "internalType": "uint256",
          "name": "",
          "type": "uint256"
        }
      ],
      "stateMutability": "view",
      "type": "function"
    },
    {
      "inputs": [],
      "name": "DECIMAL_PRECISION",
      "outputs": [
        {
          "internalType": "uint256",
          "name": "",
          "type": "uint256"
        }
      ],
      "stateMutability": "view",
      "type": "function"
    },
    {
      "inputs": [],
      "name": "MCR",
      "outputs": [
        {
          "internalType": "uint256",
          "name": "",
          "type": "uint256"
        }
      ],
      "stateMutability": "view",
      "type": "function"
    },
    {
      "inputs": [],
      "name": "MIN_NET_DEBT",
      "outputs": [
        {
          "internalType": "uint256",
          "name": "",
          "type": "uint256"
        }
      ],
      "stateMutability": "view",
      "type": "function"
    },
    {
      "inputs": [],
      "name": "REDEMPTION_FEE_FLOOR",
      "outputs": [
        {
          "internalType": "uint256",
          "name": "",
          "type": "uint256"
        }
      ],
      "stateMutability": "view",
      "type": "function"
    },
    {
      "inputs": [],
      "name": "SUSD_GAS_COMPENSATION",
      "outputs": [
        {
          "internalType": "uint256",
          "name": "",
          "type": "uint256"
        }
      ],
      "stateMutability": "view",
      "type": "function"
    },
    {
      "inputs": [],
      "name": "getEntireSystemColl",
      "outputs": [
        {
          "internalType": "uint256",
          "name": "",
          "type": "uint256"
        }
      ],
      "stateMutability": "view",
      "type": "function"
    },
    {
      "inputs": [],
      "name": "getEntireSystemDebt",
      "outputs": [
        {
          "internalType": "uint256",
          "name": "",
          "type": "uint256"
        }
      ],
      "stateMutability": "view",
      "type": "function"
    }
  ],
  "bytecode": "0x608060405234801561001057600080fd5b506104e9806100206000396000f3fe608060405234801561001057600080fd5b50600436106100935760003560e01c8063795d26c311610066578063795d26c31461011057806387dc66561461012e578063887105d31461014c578063a20baee61461016a578063f92d34331461018857610093565b80631bf435551461009857806328d28b5b146100b65780635733d58f146100d4578063794e5724146100f2575b600080fd5b6100a06101a6565b6040518082815260200191505060405180910390f35b6100be6101b3565b6040518082815260200191505060405180910390f35b6100dc6101cd565b6040518082815260200191505060405180910390f35b6100fa6101d9565b6040518082815260200191505060405180910390f35b6101186101e5565b6040518082815260200191505060405180910390f35b61013661034e565b6040518082815260200191505060405180910390f35b61015461035b565b6040518082815260200191505060405180910390f35b610172610405565b6040518082815260200191505060405180910390f35b610190610411565b6040518082815260200191505060405180910390f35b68056bc75e2d6310000081565b60056103e8670de0b6b3a7640000816101c857fe5b040281565b6714d1120d7b16000081565b670f43fc2c04ee000081565b600080600160009054906101000a900473ffffffffffffffffffffffffffffffffffffffff1673ffffffffffffffffffffffffffffffffffffffff1663c24103646040518163ffffffff1660e01b815260040160206040518083038186803b15801561025057600080fd5b505afa158015610264573d6000803e3d6000fd5b505050506040513d602081101561027a57600080fd5b810190808051906020019092919050505090506000600260009054906101000a900473ffffffffffffffffffffffffffffffffffffffff1673ffffffffffffffffffffffffffffffffffffffff1663c24103646040518163ffffffff1660e01b815260040160206040518083038186803b1580156102f757600080fd5b505afa15801561030b573d6000803e3d6000fd5b505050506040513d602081101561032157600080fd5b81019080805190602001909291905050509050610347818361042b90919063ffffffff16565b9250505090565b6802b5e3af16b188000081565b6000600160009054906101000a900473ffffffffffffffffffffffffffffffffffffffff1673ffffffffffffffffffffffffffffffffffffffff1663651340c46040518163ffffffff1660e01b815260040160206040518083038186803b1580156103c557600080fd5b505afa1580156103d9573d6000803e3d6000fd5b505050506040513d60208110156103ef57600080fd5b8101908080519060200190929190505050905090565b670de0b6b3a764000081565b60056103e8670de0b6b3a76400008161042657fe5b040281565b6000808284019050838110156104a9576040517f08c379a000000000000000000000000000000000000000000000000000000000815260040180806020018281038252600c8152602001807f616464206f766572666c6f77000000000000000000000000000000000000000081525060200191505060405180910390fd5b809150509291505056fea2646970667358221220c682de31aa6fb54ecf580efc21a3a33a9042eeaa12f730dc3cd4457d605c5f8f64736f6c634300060b0033",
  "immutableReferences": {},
  "source": "// SPDX-License-Identifier: UNLICENSED\n\npragma solidity 0.6.11;\n\nimport \"./LiquityMath.sol\";\nimport \"../Interfaces/IActivePool.sol\";\nimport \"../Interfaces/IDefaultPool.sol\";\nimport \"./LiquityBase.sol\";\n\n\n/*\n* Base contract for TroveManager, BorrowerOperations and StabilityPool. Contains global system constants and\n* common functions.\n*/\ncontract PoolBase is LiquityBase {\n\n    // Function for summing colls when coll1 includes all the tokens in the whitelist\n    // Used in active, default, stability, and surplus pools\n    // assumes _coll1.tokens = all whitelisted tokens\n    function _leftSumColls(\n        newColls memory _coll1,\n        address[] memory _tokens,\n        uint256[] memory _amounts\n    ) internal view returns (uint[] memory) {\n        if (_amounts.length == 0) {\n            return _coll1.amounts;\n        }\n        uint[] memory sumAmounts = _getArrayCopy(_coll1.amounts);\n\n        uint256 coll1Len = _tokens.length;\n        // assumes that sumAmounts length = whitelist tokens length.\n        for (uint256 i; i < coll1Len; ++i) {\n            uint tokenIndex = whitelist.getIndex(_tokens[i]);\n            sumAmounts[tokenIndex] = sumAmounts[tokenIndex].add(_amounts[i]);\n        }\n\n        return sumAmounts;\n    }\n\n    // Function for summing colls when one list is all tokens. Used in active, default, stability, and surplus pools\n    function _leftSubColls(newColls memory _coll1, address[] memory _subTokens, uint[] memory _subAmounts)\n    internal\n    view\n    returns (uint[] memory)\n    {\n        if (_subTokens.length == 0) {\n            return _coll1.amounts;\n        }\n        uint[] memory diffAmounts = _getArrayCopy(_coll1.amounts);\n\n        //assumes that coll1.tokens = whitelist tokens. Keeps all of coll1's tokens, and subtracts coll2's amounts\n        uint256 subTokensLen = _subTokens.length;\n        for (uint256 i; i < subTokensLen; ++i) {\n            uint256 tokenIndex = whitelist.getIndex(_subTokens[i]);\n            diffAmounts[tokenIndex] = diffAmounts[tokenIndex].sub(_subAmounts[i]);\n        }\n        return diffAmounts;\n    }\n}",
  "sourcePath": "/Users/phaxsam/Core-Stability_Truffle/Dependencies/PoolBase.sol",
  "compiler": {
    "name": "solc",
    "version": "0.6.11+commit.5ef660b1.Emscripten.clang"
  },
  "schemaVersion": "3.4.9",
  "updatedAt": "2022-08-15T22:38:51.719Z",
  "devdoc": {
    "kind": "dev",
    "methods": {},
    "version": 1
  },
  "userdoc": {
    "kind": "user",
    "methods": {},
    "version": 1
  }
}