{
  "contractName": "PriceFeed",
  "abi": [
    {
      "anonymous": false,
      "inputs": [
        {
          "indexed": false,
          "internalType": "uint256",
          "name": "_lastGoodPrice",
          "type": "uint256"
        }
      ],
      "name": "LastGoodPriceUpdated",
      "type": "event"
    },
    {
      "anonymous": false,
      "inputs": [
        {
          "indexed": true,
          "internalType": "address",
          "name": "previousOwner",
          "type": "address"
        },
        {
          "indexed": true,
          "internalType": "address",
          "name": "newOwner",
          "type": "address"
        }
      ],
      "name": "OwnershipTransferred",
      "type": "event"
    },
    {
      "inputs": [],
      "name": "DECIMAL_PRECISION",
      "outputs": [
        {
          "internalType": "uint256",
          "name": "",
          "type": "uint256"
        }
      ],
      "stateMutability": "view",
      "type": "function"
    },
    {
      "inputs": [],
      "name": "MAX_PRICE_DEVIATION_FROM_PREVIOUS_ROUND",
      "outputs": [
        {
          "internalType": "uint256",
          "name": "",
          "type": "uint256"
        }
      ],
      "stateMutability": "view",
      "type": "function"
    },
    {
      "inputs": [],
      "name": "NAME",
      "outputs": [
        {
          "internalType": "string",
          "name": "",
          "type": "string"
        }
      ],
      "stateMutability": "view",
      "type": "function"
    },
    {
      "inputs": [],
      "name": "TARGET_DIGITS",
      "outputs": [
        {
          "internalType": "uint256",
          "name": "",
          "type": "uint256"
        }
      ],
      "stateMutability": "view",
      "type": "function"
    },
    {
      "inputs": [],
      "name": "TIMEOUT",
      "outputs": [
        {
          "internalType": "uint256",
          "name": "",
          "type": "uint256"
        }
      ],
      "stateMutability": "view",
      "type": "function"
    },
    {
      "inputs": [],
      "name": "isOwner",
      "outputs": [
        {
          "internalType": "bool",
          "name": "",
          "type": "bool"
        }
      ],
      "stateMutability": "view",
      "type": "function"
    },
    {
      "inputs": [],
      "name": "lastGoodPrice",
      "outputs": [
        {
          "internalType": "uint256",
          "name": "",
          "type": "uint256"
        }
      ],
      "stateMutability": "view",
      "type": "function"
    },
    {
      "inputs": [],
      "name": "owner",
      "outputs": [
        {
          "internalType": "address",
          "name": "",
          "type": "address"
        }
      ],
      "stateMutability": "view",
      "type": "function"
    },
    {
      "inputs": [],
      "name": "priceAggregator",
      "outputs": [
        {
          "internalType": "contract AggregatorV3Interface",
          "name": "",
          "type": "address"
        }
      ],
      "stateMutability": "view",
      "type": "function"
    },
    {
      "inputs": [
        {
          "internalType": "address",
          "name": "_priceAggregatorAddress",
          "type": "address"
        }
      ],
      "name": "setAddresses",
      "outputs": [],
      "stateMutability": "nonpayable",
      "type": "function"
    },
    {
      "inputs": [],
      "name": "fetchPrice",
      "outputs": [
        {
          "internalType": "uint256",
          "name": "",
          "type": "uint256"
        }
      ],
      "stateMutability": "nonpayable",
      "type": "function"
    },
    {
      "inputs": [],
      "name": "fetchPrice_v",
      "outputs": [
        {
          "internalType": "uint256",
          "name": "",
          "type": "uint256"
        }
      ],
      "stateMutability": "view",
      "type": "function"
    }
  ],
  "bytecode": "0x608060405234801561001057600080fd5b50336000806101000a81548173ffffffffffffffffffffffffffffffffffffffff021916908373ffffffffffffffffffffffffffffffffffffffff1602179055503373ffffffffffffffffffffffffffffffffffffffff16600073ffffffffffffffffffffffffffffffffffffffff167f8be0079c531659141344cd1fd0a4f28419497f9722a3daafe3b4186f6b6457e060405160405180910390a3611096806100bb6000396000f3fe608060405234801561001057600080fd5b50600436106100b45760003560e01c80638da5cb5b116100715780638da5cb5b146101bf5780638f32d59b146102095780639c3bc3e61461022b578063a20baee614610249578063a3f4df7e14610267578063f56f48f2146102ea576100b4565b80630490be83146100b95780630fdb11cf146100d75780631be5c92f146100f55780633078fff51461011357806358a6aa881461015d57806381d3c4351461017b575b600080fd5b6100c1610308565b6040518082815260200191505060405180910390f35b6100df61030e565b6040518082815260200191505060405180910390f35b6100fd610395565b6040518082815260200191505060405180910390f35b61011b61039a565b604051808273ffffffffffffffffffffffffffffffffffffffff1673ffffffffffffffffffffffffffffffffffffffff16815260200191505060405180910390f35b6101656103c0565b6040518082815260200191505060405180910390f35b6101bd6004803603602081101561019157600080fd5b81019080803573ffffffffffffffffffffffffffffffffffffffff1690602001909291905050506103cc565b005b6101c7610560565b604051808273ffffffffffffffffffffffffffffffffffffffff1673ffffffffffffffffffffffffffffffffffffffff16815260200191505060405180910390f35b610211610589565b604051808215151515815260200191505060405180910390f35b6102336105e0565b6040518082815260200191505060405180910390f35b610251610658565b6040518082815260200191505060405180910390f35b61026f610664565b6040518080602001828103825283818151815260200191508051906020019080838360005b838110156102af578082015181840152602081019050610294565b50505050905090810190601f1680156102dc5780820380516001836020036101000a031916815260200191505b509250505060405180910390f35b6102f261069d565b6040518082815260200191505060405180910390f35b60025481565b6000610318610ff0565b6103206106a3565b905061032a610ff0565b61033c8260000151836080015161088b565b905061034882826109f3565b80610358575061035782610a16565b5b156103695760025492505050610392565b60006103808360200151846080015160ff16610a3a565b905061038b81610a95565b8093505050505b90565b601281565b600160009054906101000a900473ffffffffffffffffffffffffffffffffffffffff1681565b6706f05b59d3b2000081565b6103d4610589565b610446576040517f08c379a000000000000000000000000000000000000000000000000000000000815260040180806020018281038252600e8152602001807f43616c6c65724e6f744f776e657200000000000000000000000000000000000081525060200191505060405180910390fd5b61044f81610ad6565b80600160006101000a81548173ffffffffffffffffffffffffffffffffffffffff021916908373ffffffffffffffffffffffffffffffffffffffff160217905550610498610ff0565b6104a06106a3565b90506104aa610ff0565b6104bc8260000151836080015161088b565b90506104c882826109f3565b1580156104db57506104d982610a16565b155b610530576040517f08c379a00000000000000000000000000000000000000000000000000000000081526004018080602001828103825260308152602001806110316030913960400191505060405180910390fd5b60006105478360200151846080015160ff16610a3a565b905061055281610a95565b61055a610bfa565b50505050565b60008060009054906101000a900473ffffffffffffffffffffffffffffffffffffffff16905090565b60008060009054906101000a900473ffffffffffffffffffffffffffffffffffffffff1673ffffffffffffffffffffffffffffffffffffffff163373ffffffffffffffffffffffffffffffffffffffff1614905090565b60006105ea610ff0565b6105f26106a3565b90506105fc610ff0565b61060e8260000151836080015161088b565b905061061a82826109f3565b8061062a575061062982610a16565b5b1561063b5760025492505050610655565b6106508260200151836080015160ff16610a3a565b925050505b90565b670de0b6b3a764000081565b6040518060400160405280600981526020017f507269636546656564000000000000000000000000000000000000000000000081525081565b61384081565b6106ab610ff0565b600160009054906101000a900473ffffffffffffffffffffffffffffffffffffffff1673ffffffffffffffffffffffffffffffffffffffff1663313ce5676040518163ffffffff1660e01b815260040160206040518083038186803b15801561071357600080fd5b505afa92505050801561074757506040513d602081101561073357600080fd5b810190808051906020019092919050505060015b61075357809050610888565b80826080019060ff16908160ff168152505050600160009054906101000a900473ffffffffffffffffffffffffffffffffffffffff1673ffffffffffffffffffffffffffffffffffffffff1663feaf968c6040518163ffffffff1660e01b815260040160a06040518083038186803b1580156107ce57600080fd5b505afa92505050801561082a57506040513d60a08110156107ee57600080fd5b81019080805190602001909291908051906020019092919080519060200190929190805190602001909291908051906020019092919050505060015b61083657809050610888565b84866000019069ffffffffffffffffffff16908169ffffffffffffffffffff16815250508386602001818152505081866040018181525050600186606001901515908115158152505085955050505050505b90565b610893610ff0565b600160009054906101000a900473ffffffffffffffffffffffffffffffffffffffff1673ffffffffffffffffffffffffffffffffffffffff16639a6fc8f5600185036040518263ffffffff1660e01b8152600401808269ffffffffffffffffffff1669ffffffffffffffffffff16815260200191505060a06040518083038186803b15801561092157600080fd5b505afa92505050801561097d57506040513d60a081101561094157600080fd5b81019080805190602001909291908051906020019092919080519060200190929190805190602001909291908051906020019092919050505060015b610989578090506109ed565b84866000019069ffffffffffffffffffff16908169ffffffffffffffffffff1681525050838660200181815250508186604001818152505086866080019060ff16908160ff1681525050600186606001901515908115158152505085955050505050505b92915050565b60006109fe83610cb9565b80610a0e5750610a0d82610cb9565b5b905092915050565b6000613840610a32836040015142610d3290919063ffffffff16565b119050919050565b60008060128310610a6557610a5e60128403600a0a85610d7c90919063ffffffff16565b9050610a8b565b6012831015610a8a57610a8783601203600a0a85610dc690919063ffffffff16565b90505b5b8091505092915050565b806002819055507f4d29de21de555af78a62fc82dd4bc05e9ae5b0660a37f04729527e0f22780cd3816040518082815260200191505060405180910390a150565b600073ffffffffffffffffffffffffffffffffffffffff168173ffffffffffffffffffffffffffffffffffffffff161415610b79576040517f08c379a000000000000000000000000000000000000000000000000000000000815260040180806020018281038252601e8152602001807f4163636f756e742063616e6e6f74206265207a65726f2061646472657373000081525060200191505060405180910390fd5b6000813b90506000811415610bf6576040517f08c379a00000000000000000000000000000000000000000000000000000000081526004018080602001828103825260208152602001807f4163636f756e7420636f64652073697a652063616e6e6f74206265207a65726f81525060200191505060405180910390fd5b5050565b600073ffffffffffffffffffffffffffffffffffffffff166000809054906101000a900473ffffffffffffffffffffffffffffffffffffffff1673ffffffffffffffffffffffffffffffffffffffff167f8be0079c531659141344cd1fd0a4f28419497f9722a3daafe3b4186f6b6457e060405160405180910390a360008060006101000a81548173ffffffffffffffffffffffffffffffffffffffff021916908373ffffffffffffffffffffffffffffffffffffffff160217905550565b60008160600151610ccd5760019050610d2d565b6000826000015169ffffffffffffffffffff161415610cef5760019050610d2d565b600082604001511480610d055750428260400151115b15610d135760019050610d2d565b6000826020015113610d285760019050610d2d565b600090505b919050565b6000610d7483836040518060400160405280600c81526020017f737562206f766572666c6f770000000000000000000000000000000000000000815250610e69565b905092915050565b6000610dbe83836040518060400160405280600881526020017f6469762062792030000000000000000000000000000000000000000000000000815250610f29565b905092915050565b600080831415610dd95760009050610e63565b6000828402905082848281610dea57fe5b0414610e5e576040517f08c379a000000000000000000000000000000000000000000000000000000000815260040180806020018281038252600c8152602001807f6d756c206f766572666c6f77000000000000000000000000000000000000000081525060200191505060405180910390fd5b809150505b92915050565b6000838311158290610f16576040517f08c379a00000000000000000000000000000000000000000000000000000000081526004018080602001828103825283818151815260200191508051906020019080838360005b83811015610edb578082015181840152602081019050610ec0565b50505050905090810190601f168015610f085780820380516001836020036101000a031916815260200191505b509250505060405180910390fd5b5060008385039050809150509392505050565b6000808314158290610fd6576040517f08c379a00000000000000000000000000000000000000000000000000000000081526004018080602001828103825283818151815260200191508051906020019080838360005b83811015610f9b578082015181840152602081019050610f80565b50505050905090810190601f168015610fc85780820380516001836020036101000a031916815260200191505b509250505060405180910390fd5b506000838581610fe257fe5b049050809150509392505050565b6040518060a00160405280600069ffffffffffffffffffff1681526020016000815260200160008152602001600015158152602001600060ff168152509056fe5072696365466565643a20436861696e6c696e6b206d75737420626520776f726b696e6720616e642063757272656e74a2646970667358221220878ec36079258da76fc2490028cc0e37dde4642a12854cf6a2ebc84dac1fbe7864736f6c634300060b0033",
  "immutableReferences": {},
  "source": "// SPDX-License-Identifier: UNLICENSED\n\npragma solidity 0.6.11;\n\nimport \"../Interfaces/IPriceFeed.sol\";\nimport \"../Interfaces/ITellorCaller.sol\";\nimport \"../Dependencies/AggregatorV3Interface.sol\";\nimport \"../Dependencies/SafeMath.sol\";\nimport \"../Dependencies/Ownable.sol\";\nimport \"../Dependencies/CheckContract.sol\";\nimport \"../Dependencies/BaseMath.sol\";\nimport \"../Dependencies/LiquityMath.sol\";\n\n\n/*\n* PriceFeed for mainnet deployment, to be connected to Chainlink's live Collateral:USD aggregator reference\n* contract, and a wrapper contract TellorCaller, which connects to TellorMaster contract.\n*\n* The PriceFeed uses Chainlink as primary oracle, and Tellor as fallback. It contains logic for\n* switching oracles based on oracle failures, timeouts, and conditions for returning to the primary\n* Chainlink oracle.\n*/\ncontract PriceFeed is Ownable, CheckContract, BaseMath, IPriceFeed {\n    using SafeMath for uint256;\n\n    string constant public NAME = \"PriceFeed\";\n\n    AggregatorV3Interface public priceAggregator;  // Mainnet Chainlink aggregator\n\n\n    // Use to convert a price answer to an 18-digit precision uint\n    uint constant public TARGET_DIGITS = 18;\n\n    // Maximum time period allowed since Chainlink's latest round data timestamp, beyond which Chainlink is considered frozen.\n    uint constant public TIMEOUT = 14400;  // 4 hours: 60 * 60 * 4\n\n    // Maximum deviation allowed between two consecutive Chainlink oracle prices. 18-digit precision.\n    uint constant public MAX_PRICE_DEVIATION_FROM_PREVIOUS_ROUND =  5e17; // 50%\n\n\n    // The last good price seen from an oracle by Yeti\n    uint public lastGoodPrice;\n\n    struct ChainlinkResponse {\n        uint80 roundId;\n        int256 answer;\n        uint256 timestamp;\n        bool success;\n        uint8 decimals;\n    }\n\n    event LastGoodPriceUpdated(uint _lastGoodPrice);\n\n    // --- Dependency setters ---\n\n    function setAddresses(address _priceAggregatorAddress) external onlyOwner {\n        checkContract(_priceAggregatorAddress);\n\n        priceAggregator = AggregatorV3Interface(_priceAggregatorAddress);\n\n        // Get an initial price from Chainlink to serve as first reference for lastGoodPrice\n        ChainlinkResponse memory chainlinkResponse = _getCurrentChainlinkResponse();\n        ChainlinkResponse memory prevChainlinkResponse = _getPrevChainlinkResponse(chainlinkResponse.roundId, chainlinkResponse.decimals);\n\n        require(!_chainlinkIsBroken(chainlinkResponse, prevChainlinkResponse) && !_chainlinkIsFrozen(chainlinkResponse),\n            \"PriceFeed: Chainlink must be working and current\");\n\n        uint scaledChainlinkPrice = _scaleChainlinkPriceByDigits(uint256(chainlinkResponse.answer), chainlinkResponse.decimals);\n        _storePrice(scaledChainlinkPrice);\n\n        _renounceOwnership();\n    }\n\n    // --- Functions ---\n\n    /*\n    * fetchPrice():\n    * Returns the latest price obtained from the Oracle. Called by Yeti functions that require a current price.\n    *\n    * Also callable by anyone externally.\n    *\n    * Non-view function - it stores the last good price seen by Yeti.\n    *\n    * Uses a Chainlink Oracle and checks it isn't broken or frozen.\n    * If the Chainlink Oracle is broken or frozen, then returns the last good price seen\n    * If Chainlink is working, it updates lastGoodPrice to the last Chainlink Response\n    * and returns it.\n    */\n    function fetchPrice() external returns (uint) {\n        // Get current and previous price data from Chainlink, and current price data from Tellor\n        ChainlinkResponse memory chainlinkResponse = _getCurrentChainlinkResponse();\n        ChainlinkResponse memory prevChainlinkResponse = _getPrevChainlinkResponse(chainlinkResponse.roundId, chainlinkResponse.decimals);\n        if (_chainlinkIsBroken(chainlinkResponse, prevChainlinkResponse) || _chainlinkIsFrozen(chainlinkResponse)) {\n            // Chainlink has some issue so just return lastGoodPrice\n            return lastGoodPrice;\n        } else {\n            uint newPrice = _scaleChainlinkPriceByDigits(uint256(chainlinkResponse.answer), chainlinkResponse.decimals);\n            _storePrice(newPrice);\n            return newPrice;\n        }\n    }\n\n\n    /*\n    * fetchPrice_v():\n    * Returns the latest price obtained from the Oracle. Called by Yeti functions that require a current price.\n    *\n    * Also callable by anyone externally.\n    *\n    * Non-view function - it stores the last good price seen by Yeti.\n    *\n    * Uses a Chainlink Oracle and checks it isn't broken or frozen.\n    * If the Chainlink Oracle is broken or frozen, then returns the last good price seen\n    * If Chainlink is working, just returns the latest Chainlink response\n    */\n    function fetchPrice_v() view external override returns (uint) {\n        // Get current and previous price data from Chainlink, and current price data from Tellor\n        ChainlinkResponse memory chainlinkResponse = _getCurrentChainlinkResponse();\n        ChainlinkResponse memory prevChainlinkResponse = _getPrevChainlinkResponse(chainlinkResponse.roundId, chainlinkResponse.decimals);\n        if (_chainlinkIsBroken(chainlinkResponse, prevChainlinkResponse) || _chainlinkIsFrozen(chainlinkResponse)) {\n            // Chainlink has some issue so just return lastGoodPrice\n            return lastGoodPrice;\n        } else {\n            return _scaleChainlinkPriceByDigits(uint256(chainlinkResponse.answer), chainlinkResponse.decimals);\n        }\n    }\n\n    // --- Helper functions ---\n\n    /* Chainlink is considered broken if its current or previous round data is in any way bad. We check the previous round\n    * for two reasons:\n    *\n    * 1) It is necessary data for the price deviation check in case 1,\n    * and\n    * 2) Chainlink is the PriceFeed's preferred primary oracle - having two consecutive valid round responses adds\n    * peace of mind when using or returning to Chainlink.\n    */\n    function _chainlinkIsBroken(ChainlinkResponse memory _currentResponse, ChainlinkResponse memory _prevResponse) internal view returns (bool) {\n        return _badChainlinkResponse(_currentResponse) || _badChainlinkResponse(_prevResponse);\n    }\n\n    function _badChainlinkResponse(ChainlinkResponse memory _response) internal view returns (bool) {\n        // Check for response call reverted\n        if (!_response.success) {return true;}\n        // Check for an invalid roundId that is 0\n        if (_response.roundId == 0) {return true;}\n        // Check for an invalid timeStamp that is 0, or in the future\n        if (_response.timestamp == 0 || _response.timestamp > block.timestamp) {return true;}\n        // Check for non-positive price\n        if (_response.answer <= 0) {return true;}\n\n        return false;\n    }\n\n    function _chainlinkIsFrozen(ChainlinkResponse memory _response) internal view returns (bool) {\n        return block.timestamp.sub(_response.timestamp) > TIMEOUT;\n    }\n\n    function _chainlinkPriceChangeAboveMax(ChainlinkResponse memory _currentResponse, ChainlinkResponse memory _prevResponse) internal pure returns (bool) {\n        uint currentScaledPrice = _scaleChainlinkPriceByDigits(uint256(_currentResponse.answer), _currentResponse.decimals);\n        uint prevScaledPrice = _scaleChainlinkPriceByDigits(uint256(_prevResponse.answer), _prevResponse.decimals);\n\n        uint minPrice = LiquityMath._min(currentScaledPrice, prevScaledPrice);\n        uint maxPrice = LiquityMath._max(currentScaledPrice, prevScaledPrice);\n\n        /*\n        * Use the larger price as the denominator:\n        * - If price decreased, the percentage deviation is in relation to the the previous price.\n        * - If price increased, the percentage deviation is in relation to the current price.\n        */\n        uint percentDeviation = maxPrice.sub(minPrice).mul(DECIMAL_PRECISION).div(maxPrice);\n\n        // Return true if price has more than doubled, or more than halved.\n        return percentDeviation > MAX_PRICE_DEVIATION_FROM_PREVIOUS_ROUND;\n    }\n\n\n    function _scaleChainlinkPriceByDigits(uint _price, uint _answerDigits) internal pure returns (uint) {\n        /*\n        * Convert the price returned by the Chainlink oracle to an 18-digit decimal for use by Yeti.\n        * At date of Yeti launch, Chainlink uses an 8-digit price, but we also handle the possibility of\n        * future changes.\n        *\n        */\n        uint price;\n        if (_answerDigits >= TARGET_DIGITS) {\n            // Scale the returned price value down to Yeti's target precision\n            price = _price.div(10 ** (_answerDigits - TARGET_DIGITS));\n        }\n        else if (_answerDigits < TARGET_DIGITS) {\n            // Scale the returned price value up to Yeti's target precision\n            price = _price.mul(10 ** (TARGET_DIGITS - _answerDigits));\n        }\n        return price;\n    }\n\n\n    function _storePrice(uint _currentPrice) internal {\n        lastGoodPrice = _currentPrice;\n        emit LastGoodPriceUpdated(_currentPrice);\n    }\n\n\n    // --- Oracle response wrapper functions ---\n\n\n    function _getCurrentChainlinkResponse() internal view returns (ChainlinkResponse memory chainlinkResponse) {\n        // First, try to get current decimal precision:\n        try priceAggregator.decimals() returns (uint8 decimals) {\n            // If call to Chainlink succeeds, record the current decimal precision\n            chainlinkResponse.decimals = decimals;\n        } catch {\n            // If call to Chainlink aggregator reverts, return a zero response with success = false\n            return chainlinkResponse;\n        }\n\n        // Secondly, try to get latest price data:\n        try priceAggregator.latestRoundData() returns\n        (\n            uint80 roundId,\n            int256 answer,\n            uint256 /* startedAt */,\n            uint256 timestamp,\n            uint80 /* answeredInRound */\n        )\n        {\n            // If call to Chainlink succeeds, return the response and success = true\n            chainlinkResponse.roundId = roundId;\n            chainlinkResponse.answer = answer;\n            chainlinkResponse.timestamp = timestamp;\n            chainlinkResponse.success = true;\n            return chainlinkResponse;\n        } catch {\n            // If call to Chainlink aggregator reverts, return a zero response with success = false\n            return chainlinkResponse;\n        }\n    }\n\n    function _getPrevChainlinkResponse(uint80 _currentRoundId, uint8 _currentDecimals) internal view returns (ChainlinkResponse memory prevChainlinkResponse) {\n        /*\n        * NOTE: Chainlink only offers a current decimals() value - there is no way to obtain the decimal precision used in a\n        * previous round.  We assume the decimals used in the previous round are the same as the current round.\n        */\n\n        // Try to get the price data from the previous round:\n        try priceAggregator.getRoundData(_currentRoundId - 1) returns\n        (\n            uint80 roundId,\n            int256 answer,\n            uint256 /* startedAt */,\n            uint256 timestamp,\n            uint80 /* answeredInRound */\n        )\n        {\n            // If call to Chainlink succeeds, return the response and success = true\n            prevChainlinkResponse.roundId = roundId;\n            prevChainlinkResponse.answer = answer;\n            prevChainlinkResponse.timestamp = timestamp;\n            prevChainlinkResponse.decimals = _currentDecimals;\n            prevChainlinkResponse.success = true;\n            return prevChainlinkResponse;\n        } catch {\n            // If call to Chainlink aggregator reverts, return a zero response with success = false\n            return prevChainlinkResponse;\n        }\n    }\n}",
  "sourcePath": "/Users/phaxsam/Core-Stability_Truffle/contracts/PriceFeed.sol",
  "compiler": {
    "name": "solc",
    "version": "0.6.11+commit.5ef660b1.Emscripten.clang"
  },
  "schemaVersion": "3.4.9",
  "updatedAt": "2022-08-15T22:38:51.807Z",
  "devdoc": {
    "kind": "dev",
    "methods": {
      "isOwner()": {
        "details": "Returns true if the caller is the current owner."
      },
      "owner()": {
        "details": "Returns the address of the current owner."
      }
    },
    "version": 1
  },
  "userdoc": {
    "kind": "user",
    "methods": {},
    "version": 1
  }
}