{
  "contractName": "SortedTroves",
  "abi": [
    {
      "anonymous": false,
      "inputs": [
        {
          "indexed": false,
          "internalType": "address",
          "name": "_borrowerOperationsAddress",
          "type": "address"
        }
      ],
      "name": "BorrowerOperationsAddressChanged",
      "type": "event"
    },
    {
      "anonymous": false,
      "inputs": [
        {
          "indexed": false,
          "internalType": "address",
          "name": "_id",
          "type": "address"
        },
        {
          "indexed": false,
          "internalType": "uint256",
          "name": "_ICR",
          "type": "uint256"
        }
      ],
      "name": "NodeAdded",
      "type": "event"
    },
    {
      "anonymous": false,
      "inputs": [
        {
          "indexed": false,
          "internalType": "address",
          "name": "_id",
          "type": "address"
        }
      ],
      "name": "NodeRemoved",
      "type": "event"
    },
    {
      "anonymous": false,
      "inputs": [
        {
          "indexed": true,
          "internalType": "address",
          "name": "previousOwner",
          "type": "address"
        },
        {
          "indexed": true,
          "internalType": "address",
          "name": "newOwner",
          "type": "address"
        }
      ],
      "name": "OwnershipTransferred",
      "type": "event"
    },
    {
      "anonymous": false,
      "inputs": [
        {
          "indexed": false,
          "internalType": "address",
          "name": "_sortedDoublyLLAddress",
          "type": "address"
        }
      ],
      "name": "SortedTrovesAddressChanged",
      "type": "event"
    },
    {
      "anonymous": false,
      "inputs": [
        {
          "indexed": false,
          "internalType": "address",
          "name": "_troveManagerAddress",
          "type": "address"
        }
      ],
      "name": "TroveManagerAddressChanged",
      "type": "event"
    },
    {
      "anonymous": false,
      "inputs": [
        {
          "indexed": false,
          "internalType": "address",
          "name": "_troveManagerRedemptionsAddress",
          "type": "address"
        }
      ],
      "name": "TroveManagerRedemptionsAddressChanged",
      "type": "event"
    },
    {
      "inputs": [],
      "name": "NAME",
      "outputs": [
        {
          "internalType": "bytes32",
          "name": "",
          "type": "bytes32"
        }
      ],
      "stateMutability": "view",
      "type": "function"
    },
    {
      "inputs": [],
      "name": "data",
      "outputs": [
        {
          "internalType": "address",
          "name": "head",
          "type": "address"
        },
        {
          "internalType": "address",
          "name": "tail",
          "type": "address"
        },
        {
          "internalType": "uint256",
          "name": "maxSize",
          "type": "uint256"
        },
        {
          "internalType": "uint256",
          "name": "size",
          "type": "uint256"
        }
      ],
      "stateMutability": "view",
      "type": "function"
    },
    {
      "inputs": [],
      "name": "isOwner",
      "outputs": [
        {
          "internalType": "bool",
          "name": "",
          "type": "bool"
        }
      ],
      "stateMutability": "view",
      "type": "function"
    },
    {
      "inputs": [],
      "name": "owner",
      "outputs": [
        {
          "internalType": "address",
          "name": "",
          "type": "address"
        }
      ],
      "stateMutability": "view",
      "type": "function"
    },
    {
      "inputs": [
        {
          "internalType": "uint256",
          "name": "_size",
          "type": "uint256"
        },
        {
          "internalType": "address",
          "name": "_troveManagerAddress",
          "type": "address"
        },
        {
          "internalType": "address",
          "name": "_borrowerOperationsAddress",
          "type": "address"
        },
        {
          "internalType": "address",
          "name": "_troveManagerRedemptionsAddress",
          "type": "address"
        }
      ],
      "name": "setParams",
      "outputs": [],
      "stateMutability": "nonpayable",
      "type": "function"
    },
    {
      "inputs": [
        {
          "internalType": "address",
          "name": "_id",
          "type": "address"
        },
        {
          "internalType": "uint256",
          "name": "_ICR",
          "type": "uint256"
        },
        {
          "internalType": "address",
          "name": "_prevId",
          "type": "address"
        },
        {
          "internalType": "address",
          "name": "_nextId",
          "type": "address"
        }
      ],
      "name": "insert",
      "outputs": [],
      "stateMutability": "nonpayable",
      "type": "function"
    },
    {
      "inputs": [
        {
          "internalType": "address",
          "name": "_id",
          "type": "address"
        }
      ],
      "name": "remove",
      "outputs": [],
      "stateMutability": "nonpayable",
      "type": "function"
    },
    {
      "inputs": [
        {
          "internalType": "address",
          "name": "_id",
          "type": "address"
        },
        {
          "internalType": "uint256",
          "name": "_newICR",
          "type": "uint256"
        },
        {
          "internalType": "address",
          "name": "_prevId",
          "type": "address"
        },
        {
          "internalType": "address",
          "name": "_nextId",
          "type": "address"
        }
      ],
      "name": "reInsert",
      "outputs": [],
      "stateMutability": "nonpayable",
      "type": "function"
    },
    {
      "inputs": [
        {
          "internalType": "address",
          "name": "_id",
          "type": "address"
        }
      ],
      "name": "contains",
      "outputs": [
        {
          "internalType": "bool",
          "name": "",
          "type": "bool"
        }
      ],
      "stateMutability": "view",
      "type": "function"
    },
    {
      "inputs": [],
      "name": "isFull",
      "outputs": [
        {
          "internalType": "bool",
          "name": "",
          "type": "bool"
        }
      ],
      "stateMutability": "view",
      "type": "function"
    },
    {
      "inputs": [],
      "name": "isEmpty",
      "outputs": [
        {
          "internalType": "bool",
          "name": "",
          "type": "bool"
        }
      ],
      "stateMutability": "view",
      "type": "function"
    },
    {
      "inputs": [],
      "name": "getSize",
      "outputs": [
        {
          "internalType": "uint256",
          "name": "",
          "type": "uint256"
        }
      ],
      "stateMutability": "view",
      "type": "function"
    },
    {
      "inputs": [],
      "name": "getMaxSize",
      "outputs": [
        {
          "internalType": "uint256",
          "name": "",
          "type": "uint256"
        }
      ],
      "stateMutability": "view",
      "type": "function"
    },
    {
      "inputs": [],
      "name": "getFirst",
      "outputs": [
        {
          "internalType": "address",
          "name": "",
          "type": "address"
        }
      ],
      "stateMutability": "view",
      "type": "function"
    },
    {
      "inputs": [],
      "name": "getLast",
      "outputs": [
        {
          "internalType": "address",
          "name": "",
          "type": "address"
        }
      ],
      "stateMutability": "view",
      "type": "function"
    },
    {
      "inputs": [
        {
          "internalType": "address",
          "name": "_id",
          "type": "address"
        }
      ],
      "name": "getNext",
      "outputs": [
        {
          "internalType": "address",
          "name": "",
          "type": "address"
        }
      ],
      "stateMutability": "view",
      "type": "function"
    },
    {
      "inputs": [
        {
          "internalType": "address",
          "name": "_id",
          "type": "address"
        }
      ],
      "name": "getPrev",
      "outputs": [
        {
          "internalType": "address",
          "name": "",
          "type": "address"
        }
      ],
      "stateMutability": "view",
      "type": "function"
    },
    {
      "inputs": [
        {
          "internalType": "address",
          "name": "_id",
          "type": "address"
        }
      ],
      "name": "getOldICR",
      "outputs": [
        {
          "internalType": "uint256",
          "name": "",
          "type": "uint256"
        }
      ],
      "stateMutability": "view",
      "type": "function"
    },
    {
      "inputs": [
        {
          "internalType": "uint256",
          "name": "_ICR",
          "type": "uint256"
        },
        {
          "internalType": "address",
          "name": "_prevId",
          "type": "address"
        },
        {
          "internalType": "address",
          "name": "_nextId",
          "type": "address"
        }
      ],
      "name": "validInsertPosition",
      "outputs": [
        {
          "internalType": "bool",
          "name": "",
          "type": "bool"
        }
      ],
      "stateMutability": "view",
      "type": "function"
    },
    {
      "inputs": [
        {
          "internalType": "uint256",
          "name": "_ICR",
          "type": "uint256"
        },
        {
          "internalType": "address",
          "name": "_prevId",
          "type": "address"
        },
        {
          "internalType": "address",
          "name": "_nextId",
          "type": "address"
        }
      ],
      "name": "findInsertPosition",
      "outputs": [
        {
          "internalType": "address",
          "name": "",
          "type": "address"
        },
        {
          "internalType": "address",
          "name": "",
          "type": "address"
        }
      ],
      "stateMutability": "view",
      "type": "function"
    }
  ],
  "bytecode": "0x608060405234801561001057600080fd5b50336000806101000a81548173ffffffffffffffffffffffffffffffffffffffff021916908373ffffffffffffffffffffffffffffffffffffffff1602179055503373ffffffffffffffffffffffffffffffffffffffff16600073ffffffffffffffffffffffffffffffffffffffff167f8be0079c531659141344cd1fd0a4f28419497f9722a3daafe3b4186f6b6457e060405160405180910390a3613304806100bb6000396000f3fe608060405234801561001057600080fd5b506004361061012c5760003560e01c8063681fe70c116100ad578063a3f4df7e11610071578063a3f4df7e14610731578063b72703ac1461074f578063babd3d9a146107d3578063c3075044146107f5578063de8fa4311461084d5761012c565b8063681fe70c1461059457806373d4a13a146105b6578063765e0159146106415780638da5cb5b146106c55780638f32d59b1461070f5761012c565b8063416980dc116100f4578063416980dc1461036157806346f7cf87146104425780634d622831146104d05780635dbe47e81461051a57806363e1d57c146105765761012c565b80631e2231431461013157806329092d0e1461017b5780632be21260146101bf5780632cf404dc1461024d5780633fce12d5146102db575b600080fd5b61013961086b565b604051808273ffffffffffffffffffffffffffffffffffffffff1673ffffffffffffffffffffffffffffffffffffffff16815260200191505060405180910390f35b6101bd6004803603602081101561019157600080fd5b81019080803573ffffffffffffffffffffffffffffffffffffffff169060200190929190505050610898565b005b61024b600480360360808110156101d557600080fd5b81019080803573ffffffffffffffffffffffffffffffffffffffff16906020019092919080359060200190929190803573ffffffffffffffffffffffffffffffffffffffff169060200190929190803573ffffffffffffffffffffffffffffffffffffffff1690602001909291905050506108ac565b005b6102d96004803603608081101561026357600080fd5b8101908080359060200190929190803573ffffffffffffffffffffffffffffffffffffffff169060200190929190803573ffffffffffffffffffffffffffffffffffffffff169060200190929190803573ffffffffffffffffffffffffffffffffffffffff1690602001909291905050506109c1565b005b610347600480360360608110156102f157600080fd5b8101908080359060200190929190803573ffffffffffffffffffffffffffffffffffffffff169060200190929190803573ffffffffffffffffffffffffffffffffffffffff169060200190929190505050610cb4565b604051808215151515815260200191505060405180910390f35b6103cd6004803603606081101561037757600080fd5b8101908080359060200190929190803573ffffffffffffffffffffffffffffffffffffffff169060200190929190803573ffffffffffffffffffffffffffffffffffffffff169060200190929190505050610cca565b604051808373ffffffffffffffffffffffffffffffffffffffff1673ffffffffffffffffffffffffffffffffffffffff1681526020018273ffffffffffffffffffffffffffffffffffffffff1673ffffffffffffffffffffffffffffffffffffffff1681526020019250505060405180910390f35b6104ce6004803603608081101561045857600080fd5b81019080803573ffffffffffffffffffffffffffffffffffffffff16906020019092919080359060200190929190803573ffffffffffffffffffffffffffffffffffffffff169060200190929190803573ffffffffffffffffffffffffffffffffffffffff169060200190929190505050610ce4565b005b6104d8610cfe565b604051808273ffffffffffffffffffffffffffffffffffffffff1673ffffffffffffffffffffffffffffffffffffffff16815260200191505060405180910390f35b61055c6004803603602081101561053057600080fd5b81019080803573ffffffffffffffffffffffffffffffffffffffff169060200190929190505050610d2b565b604051808215151515815260200191505060405180910390f35b61057e610d86565b6040518082815260200191505060405180910390f35b61059c610d93565b604051808215151515815260200191505060405180910390f35b6105be610da2565b604051808573ffffffffffffffffffffffffffffffffffffffff1673ffffffffffffffffffffffffffffffffffffffff1681526020018473ffffffffffffffffffffffffffffffffffffffff1673ffffffffffffffffffffffffffffffffffffffff16815260200183815260200182815260200194505050505060405180910390f35b6106836004803603602081101561065757600080fd5b81019080803573ffffffffffffffffffffffffffffffffffffffff169060200190929190505050610e00565b604051808273ffffffffffffffffffffffffffffffffffffffff1673ffffffffffffffffffffffffffffffffffffffff16815260200191505060405180910390f35b6106cd610e6e565b604051808273ffffffffffffffffffffffffffffffffffffffff1673ffffffffffffffffffffffffffffffffffffffff16815260200191505060405180910390f35b610717610e97565b604051808215151515815260200191505060405180910390f35b610739610eee565b6040518082815260200191505060405180910390f35b6107916004803603602081101561076557600080fd5b81019080803573ffffffffffffffffffffffffffffffffffffffff169060200190929190505050610f12565b604051808273ffffffffffffffffffffffffffffffffffffffff1673ffffffffffffffffffffffffffffffffffffffff16815260200191505060405180910390f35b6107db610f80565b604051808215151515815260200191505060405180910390f35b6108376004803603602081101561080b57600080fd5b81019080803573ffffffffffffffffffffffffffffffffffffffff169060200190929190505050610f94565b6040518082815260200191505060405180910390f35b610855610fe2565b6040518082815260200191505060405180910390f35b6000600460000160009054906101000a900473ffffffffffffffffffffffffffffffffffffffff16905090565b6108a0610fef565b6108a98161104f565b50565b6108b46118de565b6108bd84610d2b565b61092f576040517f08c379a000000000000000000000000000000000000000000000000000000000815260040180806020018281038252601a8152602001807f536f7274656454726f7665733a204964206e6f7420666f756e6400000000000081525060200191505060405180910390fd5b60008314156109a6576040517f08c379a000000000000000000000000000000000000000000000000000000000815260040180806020018281038252601d8152602001807f536f7274656454726f7665733a20494352206d75737420626520282b2900000081525060200191505060405180910390fd5b6109af8461104f565b6109bb848484846119f4565b50505050565b6109c9610e97565b610a3b576040517f08c379a000000000000000000000000000000000000000000000000000000000815260040180806020018281038252600e8152602001807f43616c6c65724e6f744f776e657200000000000000000000000000000000000081525060200191505060405180910390fd5b6000841415610a95576040517f08c379a00000000000000000000000000000000000000000000000000000000081526004018080602001828103825260228152602001806132ad6022913960400191505060405180910390fd5b610a9e83612412565b610aa782612412565b610ab081612412565b8360046002018190555082600360006101000a81548173ffffffffffffffffffffffffffffffffffffffff021916908373ffffffffffffffffffffffffffffffffffffffff16021790555081600160006101000a81548173ffffffffffffffffffffffffffffffffffffffff021916908373ffffffffffffffffffffffffffffffffffffffff16021790555080600260006101000a81548173ffffffffffffffffffffffffffffffffffffffff021916908373ffffffffffffffffffffffffffffffffffffffff1602179055507f143219c9e69b09e07e095fcc889b43d8f46ca892bba65f08dc3a0050869a567883604051808273ffffffffffffffffffffffffffffffffffffffff1673ffffffffffffffffffffffffffffffffffffffff16815260200191505060405180910390a17f3ca631ffcd2a9b5d9ae18543fc82f58eb4ca33af9e6ab01b7a8e95331e6ed98582604051808273ffffffffffffffffffffffffffffffffffffffff1673ffffffffffffffffffffffffffffffffffffffff16815260200191505060405180910390a17fa015fe269759ff678ebeb0a5f55330644b1a8f95eba9170688d8ec37fc47d1e481604051808273ffffffffffffffffffffffffffffffffffffffff1673ffffffffffffffffffffffffffffffffffffffff16815260200191505060405180910390a1610cae612536565b50505050565b6000610cc18484846125f5565b90509392505050565b600080610cd885858561296f565b91509150935093915050565b610cec6118de565b610cf8848484846119f4565b50505050565b6000600460010160009054906101000a900473ffffffffffffffffffffffffffffffffffffffff16905090565b60006004800160008373ffffffffffffffffffffffffffffffffffffffff1673ffffffffffffffffffffffffffffffffffffffff16815260200190815260200160002060000160009054906101000a900460ff169050919050565b6000600460020154905090565b60008060046003015414905090565b60048060000160009054906101000a900473ffffffffffffffffffffffffffffffffffffffff16908060010160009054906101000a900473ffffffffffffffffffffffffffffffffffffffff16908060020154908060030154905084565b60006004800160008373ffffffffffffffffffffffffffffffffffffffff1673ffffffffffffffffffffffffffffffffffffffff16815260200190815260200160002060000160019054906101000a900473ffffffffffffffffffffffffffffffffffffffff169050919050565b60008060009054906101000a900473ffffffffffffffffffffffffffffffffffffffff16905090565b60008060009054906101000a900473ffffffffffffffffffffffffffffffffffffffff1673ffffffffffffffffffffffffffffffffffffffff163373ffffffffffffffffffffffffffffffffffffffff1614905090565b7f536f7274656454726f766573000000000000000000000000000000000000000081565b60006004800160008373ffffffffffffffffffffffffffffffffffffffff1673ffffffffffffffffffffffffffffffffffffffff16815260200190815260200160002060010160009054906101000a900473ffffffffffffffffffffffffffffffffffffffff169050919050565b600060046002015460046003015414905090565b60006004800160008373ffffffffffffffffffffffffffffffffffffffff1673ffffffffffffffffffffffffffffffffffffffff168152602001908152602001600020600201549050919050565b6000600460030154905090565b600360009054906101000a900473ffffffffffffffffffffffffffffffffffffffff1673ffffffffffffffffffffffffffffffffffffffff163373ffffffffffffffffffffffffffffffffffffffff161461104d5761104c612bfe565b5b565b61105881610d2b565b6110ca576040517f08c379a000000000000000000000000000000000000000000000000000000000815260040180806020018281038252601a8152602001807f536f7274656454726f7665733a204964206e6f7420666f756e6400000000000081525060200191505060405180910390fd5b600160046003015411156116d357600460000160009054906101000a900473ffffffffffffffffffffffffffffffffffffffff1673ffffffffffffffffffffffffffffffffffffffff168173ffffffffffffffffffffffffffffffffffffffff161415611287576004800160008273ffffffffffffffffffffffffffffffffffffffff1673ffffffffffffffffffffffffffffffffffffffff16815260200190815260200160002060000160019054906101000a900473ffffffffffffffffffffffffffffffffffffffff16600460000160006101000a81548173ffffffffffffffffffffffffffffffffffffffff021916908373ffffffffffffffffffffffffffffffffffffffff1602179055506000600480016000600460000160009054906101000a900473ffffffffffffffffffffffffffffffffffffffff1673ffffffffffffffffffffffffffffffffffffffff1673ffffffffffffffffffffffffffffffffffffffff16815260200190815260200160002060010160006101000a81548173ffffffffffffffffffffffffffffffffffffffff021916908373ffffffffffffffffffffffffffffffffffffffff1602179055506116ce565b600460010160009054906101000a900473ffffffffffffffffffffffffffffffffffffffff1673ffffffffffffffffffffffffffffffffffffffff168173ffffffffffffffffffffffffffffffffffffffff161415611436576004800160008273ffffffffffffffffffffffffffffffffffffffff1673ffffffffffffffffffffffffffffffffffffffff16815260200190815260200160002060010160009054906101000a900473ffffffffffffffffffffffffffffffffffffffff16600460010160006101000a81548173ffffffffffffffffffffffffffffffffffffffff021916908373ffffffffffffffffffffffffffffffffffffffff1602179055506000600480016000600460010160009054906101000a900473ffffffffffffffffffffffffffffffffffffffff1673ffffffffffffffffffffffffffffffffffffffff1673ffffffffffffffffffffffffffffffffffffffff16815260200190815260200160002060000160016101000a81548173ffffffffffffffffffffffffffffffffffffffff021916908373ffffffffffffffffffffffffffffffffffffffff1602179055506116cd565b6004800160008273ffffffffffffffffffffffffffffffffffffffff1673ffffffffffffffffffffffffffffffffffffffff16815260200190815260200160002060000160019054906101000a900473ffffffffffffffffffffffffffffffffffffffff166004800160006004800160008573ffffffffffffffffffffffffffffffffffffffff1673ffffffffffffffffffffffffffffffffffffffff16815260200190815260200160002060010160009054906101000a900473ffffffffffffffffffffffffffffffffffffffff1673ffffffffffffffffffffffffffffffffffffffff1673ffffffffffffffffffffffffffffffffffffffff16815260200190815260200160002060000160016101000a81548173ffffffffffffffffffffffffffffffffffffffff021916908373ffffffffffffffffffffffffffffffffffffffff1602179055506004800160008273ffffffffffffffffffffffffffffffffffffffff1673ffffffffffffffffffffffffffffffffffffffff16815260200190815260200160002060010160009054906101000a900473ffffffffffffffffffffffffffffffffffffffff166004800160006004800160008573ffffffffffffffffffffffffffffffffffffffff1673ffffffffffffffffffffffffffffffffffffffff16815260200190815260200160002060000160019054906101000a900473ffffffffffffffffffffffffffffffffffffffff1673ffffffffffffffffffffffffffffffffffffffff1673ffffffffffffffffffffffffffffffffffffffff16815260200190815260200160002060010160006101000a81548173ffffffffffffffffffffffffffffffffffffffff021916908373ffffffffffffffffffffffffffffffffffffffff1602179055505b5b61175e565b6000600460000160006101000a81548173ffffffffffffffffffffffffffffffffffffffff021916908373ffffffffffffffffffffffffffffffffffffffff1602179055506000600460010160006101000a81548173ffffffffffffffffffffffffffffffffffffffff021916908373ffffffffffffffffffffffffffffffffffffffff1602179055505b60006004800160008373ffffffffffffffffffffffffffffffffffffffff1673ffffffffffffffffffffffffffffffffffffffff168152602001908152602001600020600201819055506004800160008273ffffffffffffffffffffffffffffffffffffffff1673ffffffffffffffffffffffffffffffffffffffff168152602001908152602001600020600080820160006101000a81549060ff02191690556000820160016101000a81549073ffffffffffffffffffffffffffffffffffffffff02191690556001820160006101000a81549073ffffffffffffffffffffffffffffffffffffffff02191690556002820160009055505061186f6001600460030154612c6c90919063ffffffff16565b6004600301819055507fcfc24166db4bb677e857cacabd1541fb2b30645021b27c5130419589b84db52b81604051808273ffffffffffffffffffffffffffffffffffffffff1673ffffffffffffffffffffffffffffffffffffffff16815260200191505060405180910390a150565b600160009054906101000a900473ffffffffffffffffffffffffffffffffffffffff1673ffffffffffffffffffffffffffffffffffffffff163373ffffffffffffffffffffffffffffffffffffffff161415801561198a5750600360009054906101000a900473ffffffffffffffffffffffffffffffffffffffff1673ffffffffffffffffffffffffffffffffffffffff163373ffffffffffffffffffffffffffffffffffffffff1614155b80156119e45750600260009054906101000a900473ffffffffffffffffffffffffffffffffffffffff1673ffffffffffffffffffffffffffffffffffffffff163373ffffffffffffffffffffffffffffffffffffffff1614155b156119f2576119f1612bfe565b5b565b6119fc610f80565b15611a6f576040517f08c379a000000000000000000000000000000000000000000000000000000000815260040180806020018281038252601a8152602001807f536f7274656454726f7665733a204c6973742069732066756c6c00000000000081525060200191505060405180910390fd5b611a7884610d2b565b15611aeb576040517f08c379a000000000000000000000000000000000000000000000000000000000815260040180806020018281038252601c8152602001807f536f7274656454726f7665733a206475706c6963617465206e6f64650000000081525060200191505060405180910390fd5b600073ffffffffffffffffffffffffffffffffffffffff168473ffffffffffffffffffffffffffffffffffffffff161415611b8e576040517f08c379a000000000000000000000000000000000000000000000000000000000815260040180806020018281038252601f8152602001807f536f7274656454726f7665733a2049642063616e6e6f74206265207a65726f0081525060200191505060405180910390fd5b6000831415611c05576040517f08c379a000000000000000000000000000000000000000000000000000000000815260040180806020018281038252601d8152602001807f536f7274656454726f7665733a20494352206d75737420626520282b2900000081525060200191505060405180910390fd5b60008290506000829050611c1a8583836125f5565b611c3257611c2985838361296f565b80925081935050505b60016004800160008873ffffffffffffffffffffffffffffffffffffffff1673ffffffffffffffffffffffffffffffffffffffff16815260200190815260200160002060000160006101000a81548160ff021916908315150217905550600073ffffffffffffffffffffffffffffffffffffffff168273ffffffffffffffffffffffffffffffffffffffff16148015611cf75750600073ffffffffffffffffffffffffffffffffffffffff168173ffffffffffffffffffffffffffffffffffffffff16145b15611d895785600460000160006101000a81548173ffffffffffffffffffffffffffffffffffffffff021916908373ffffffffffffffffffffffffffffffffffffffff16021790555085600460010160006101000a81548173ffffffffffffffffffffffffffffffffffffffff021916908373ffffffffffffffffffffffffffffffffffffffff160217905550612334565b600073ffffffffffffffffffffffffffffffffffffffff168273ffffffffffffffffffffffffffffffffffffffff161415611f5757600460000160009054906101000a900473ffffffffffffffffffffffffffffffffffffffff166004800160008873ffffffffffffffffffffffffffffffffffffffff1673ffffffffffffffffffffffffffffffffffffffff16815260200190815260200160002060000160016101000a81548173ffffffffffffffffffffffffffffffffffffffff021916908373ffffffffffffffffffffffffffffffffffffffff16021790555085600480016000600460000160009054906101000a900473ffffffffffffffffffffffffffffffffffffffff1673ffffffffffffffffffffffffffffffffffffffff1673ffffffffffffffffffffffffffffffffffffffff16815260200190815260200160002060010160006101000a81548173ffffffffffffffffffffffffffffffffffffffff021916908373ffffffffffffffffffffffffffffffffffffffff16021790555085600460000160006101000a81548173ffffffffffffffffffffffffffffffffffffffff021916908373ffffffffffffffffffffffffffffffffffffffff160217905550612333565b600073ffffffffffffffffffffffffffffffffffffffff168173ffffffffffffffffffffffffffffffffffffffff16141561212557600460010160009054906101000a900473ffffffffffffffffffffffffffffffffffffffff166004800160008873ffffffffffffffffffffffffffffffffffffffff1673ffffffffffffffffffffffffffffffffffffffff16815260200190815260200160002060010160006101000a81548173ffffffffffffffffffffffffffffffffffffffff021916908373ffffffffffffffffffffffffffffffffffffffff16021790555085600480016000600460010160009054906101000a900473ffffffffffffffffffffffffffffffffffffffff1673ffffffffffffffffffffffffffffffffffffffff1673ffffffffffffffffffffffffffffffffffffffff16815260200190815260200160002060000160016101000a81548173ffffffffffffffffffffffffffffffffffffffff021916908373ffffffffffffffffffffffffffffffffffffffff16021790555085600460010160006101000a81548173ffffffffffffffffffffffffffffffffffffffff021916908373ffffffffffffffffffffffffffffffffffffffff160217905550612332565b806004800160008873ffffffffffffffffffffffffffffffffffffffff1673ffffffffffffffffffffffffffffffffffffffff16815260200190815260200160002060000160016101000a81548173ffffffffffffffffffffffffffffffffffffffff021916908373ffffffffffffffffffffffffffffffffffffffff160217905550816004800160008873ffffffffffffffffffffffffffffffffffffffff1673ffffffffffffffffffffffffffffffffffffffff16815260200190815260200160002060010160006101000a81548173ffffffffffffffffffffffffffffffffffffffff021916908373ffffffffffffffffffffffffffffffffffffffff160217905550856004800160008473ffffffffffffffffffffffffffffffffffffffff1673ffffffffffffffffffffffffffffffffffffffff16815260200190815260200160002060000160016101000a81548173ffffffffffffffffffffffffffffffffffffffff021916908373ffffffffffffffffffffffffffffffffffffffff160217905550856004800160008373ffffffffffffffffffffffffffffffffffffffff1673ffffffffffffffffffffffffffffffffffffffff16815260200190815260200160002060010160006101000a81548173ffffffffffffffffffffffffffffffffffffffff021916908373ffffffffffffffffffffffffffffffffffffffff1602179055505b5b5b846004800160008873ffffffffffffffffffffffffffffffffffffffff1673ffffffffffffffffffffffffffffffffffffffff168152602001908152602001600020600201819055506123966001600460030154612cb690919063ffffffff16565b6004600301819055507fe02b43adbee0c123de070a04554a71877a0007e2fc161466299cae3c094fe82f8686604051808373ffffffffffffffffffffffffffffffffffffffff1673ffffffffffffffffffffffffffffffffffffffff1681526020018281526020019250505060405180910390a1505050505050565b600073ffffffffffffffffffffffffffffffffffffffff168173ffffffffffffffffffffffffffffffffffffffff1614156124b5576040517f08c379a000000000000000000000000000000000000000000000000000000000815260040180806020018281038252601e8152602001807f4163636f756e742063616e6e6f74206265207a65726f2061646472657373000081525060200191505060405180910390fd5b6000813b90506000811415612532576040517f08c379a00000000000000000000000000000000000000000000000000000000081526004018080602001828103825260208152602001807f4163636f756e7420636f64652073697a652063616e6e6f74206265207a65726f81525060200191505060405180910390fd5b5050565b600073ffffffffffffffffffffffffffffffffffffffff166000809054906101000a900473ffffffffffffffffffffffffffffffffffffffff1673ffffffffffffffffffffffffffffffffffffffff167f8be0079c531659141344cd1fd0a4f28419497f9722a3daafe3b4186f6b6457e060405160405180910390a360008060006101000a81548173ffffffffffffffffffffffffffffffffffffffff021916908373ffffffffffffffffffffffffffffffffffffffff160217905550565b60008073ffffffffffffffffffffffffffffffffffffffff168373ffffffffffffffffffffffffffffffffffffffff1614801561265e5750600073ffffffffffffffffffffffffffffffffffffffff168273ffffffffffffffffffffffffffffffffffffffff16145b156126725761266b610d93565b9050612968565b600073ffffffffffffffffffffffffffffffffffffffff168373ffffffffffffffffffffffffffffffffffffffff161415612752578173ffffffffffffffffffffffffffffffffffffffff16600460000160009054906101000a900473ffffffffffffffffffffffffffffffffffffffff1673ffffffffffffffffffffffffffffffffffffffff1614801561274b57506004800160008373ffffffffffffffffffffffffffffffffffffffff1673ffffffffffffffffffffffffffffffffffffffff168152602001908152602001600020600201548410155b9050612968565b600073ffffffffffffffffffffffffffffffffffffffff168273ffffffffffffffffffffffffffffffffffffffff161415612832578273ffffffffffffffffffffffffffffffffffffffff16600460010160009054906101000a900473ffffffffffffffffffffffffffffffffffffffff1673ffffffffffffffffffffffffffffffffffffffff1614801561282b57506004800160008473ffffffffffffffffffffffffffffffffffffffff1673ffffffffffffffffffffffffffffffffffffffff168152602001908152602001600020600201548411155b9050612968565b8173ffffffffffffffffffffffffffffffffffffffff166004800160008573ffffffffffffffffffffffffffffffffffffffff1673ffffffffffffffffffffffffffffffffffffffff16815260200190815260200160002060000160019054906101000a900473ffffffffffffffffffffffffffffffffffffffff1673ffffffffffffffffffffffffffffffffffffffff161480156129155750836004800160008573ffffffffffffffffffffffffffffffffffffffff1673ffffffffffffffffffffffffffffffffffffffff1681526020019081526020016000206002015410155b801561296557506004800160008373ffffffffffffffffffffffffffffffffffffffff1673ffffffffffffffffffffffffffffffffffffffff168152602001908152602001600020600201548410155b90505b9392505050565b60008060008490506000849050600073ffffffffffffffffffffffffffffffffffffffff168273ffffffffffffffffffffffffffffffffffffffff1614612a13576129b982610d2b565b1580612a0857506004800160008373ffffffffffffffffffffffffffffffffffffffff1673ffffffffffffffffffffffffffffffffffffffff1681526020019081526020016000206002015487115b15612a1257600091505b5b600073ffffffffffffffffffffffffffffffffffffffff168173ffffffffffffffffffffffffffffffffffffffff1614612aaa57612a5081610d2b565b1580612a9f57506004800160008273ffffffffffffffffffffffffffffffffffffffff1673ffffffffffffffffffffffffffffffffffffffff1681526020019081526020016000206002015487105b15612aa957600090505b5b600073ffffffffffffffffffffffffffffffffffffffff168273ffffffffffffffffffffffffffffffffffffffff16148015612b125750600073ffffffffffffffffffffffffffffffffffffffff168173ffffffffffffffffffffffffffffffffffffffff16145b15612b5157612b4687600460000160009054906101000a900473ffffffffffffffffffffffffffffffffffffffff16612d3e565b935093505050612bf6565b600073ffffffffffffffffffffffffffffffffffffffff168273ffffffffffffffffffffffffffffffffffffffff161415612b9b57612b908782612f95565b935093505050612bf6565b600073ffffffffffffffffffffffffffffffffffffffff168173ffffffffffffffffffffffffffffffffffffffff161415612be557612bda8783612d3e565b935093505050612bf6565b612bef8783612d3e565b9350935050505b935093915050565b6040517f08c379a000000000000000000000000000000000000000000000000000000000815260040180806020018281038252601f8152602001807f53543a2045787465726e616c2063616c6c6572206e6f7420616c6c6f7765640081525060200191505060405180910390fd5b6000612cae83836040518060400160405280600c81526020017f737562206f766572666c6f7700000000000000000000000000000000000000008152506131ec565b905092915050565b600080828401905083811015612d34576040517f08c379a000000000000000000000000000000000000000000000000000000000815260040180806020018281038252600c8152602001807f616464206f766572666c6f77000000000000000000000000000000000000000081525060200191505060405180910390fd5b8091505092915050565b6000808273ffffffffffffffffffffffffffffffffffffffff16600460000160009054906101000a900473ffffffffffffffffffffffffffffffffffffffff1673ffffffffffffffffffffffffffffffffffffffff16148015612de557506004800160008473ffffffffffffffffffffffffffffffffffffffff1673ffffffffffffffffffffffffffffffffffffffff168152602001908152602001600020600201548410155b15612df95760008381915091509150612f8e565b600083905060006004800160008373ffffffffffffffffffffffffffffffffffffffff1673ffffffffffffffffffffffffffffffffffffffff16815260200190815260200160002060000160019054906101000a900473ffffffffffffffffffffffffffffffffffffffff1690505b600073ffffffffffffffffffffffffffffffffffffffff168273ffffffffffffffffffffffffffffffffffffffff1614158015612ead5750612eab8683836125f5565b155b15612f85576004800160008373ffffffffffffffffffffffffffffffffffffffff1673ffffffffffffffffffffffffffffffffffffffff16815260200190815260200160002060000160019054906101000a900473ffffffffffffffffffffffffffffffffffffffff1691506004800160008373ffffffffffffffffffffffffffffffffffffffff1673ffffffffffffffffffffffffffffffffffffffff16815260200190815260200160002060000160019054906101000a900473ffffffffffffffffffffffffffffffffffffffff169050612e68565b81819350935050505b9250929050565b6000808273ffffffffffffffffffffffffffffffffffffffff16600460010160009054906101000a900473ffffffffffffffffffffffffffffffffffffffff1673ffffffffffffffffffffffffffffffffffffffff1614801561303c57506004800160008473ffffffffffffffffffffffffffffffffffffffff1673ffffffffffffffffffffffffffffffffffffffff168152602001908152602001600020600201548411155b1561305057826000809050915091506131e5565b600083905060006004800160008373ffffffffffffffffffffffffffffffffffffffff1673ffffffffffffffffffffffffffffffffffffffff16815260200190815260200160002060010160009054906101000a900473ffffffffffffffffffffffffffffffffffffffff1690505b600073ffffffffffffffffffffffffffffffffffffffff168273ffffffffffffffffffffffffffffffffffffffff161415801561310457506131028682846125f5565b155b156131dc576004800160008373ffffffffffffffffffffffffffffffffffffffff1673ffffffffffffffffffffffffffffffffffffffff16815260200190815260200160002060010160009054906101000a900473ffffffffffffffffffffffffffffffffffffffff1691506004800160008373ffffffffffffffffffffffffffffffffffffffff1673ffffffffffffffffffffffffffffffffffffffff16815260200190815260200160002060010160009054906101000a900473ffffffffffffffffffffffffffffffffffffffff1690506130bf565b80829350935050505b9250929050565b6000838311158290613299576040517f08c379a00000000000000000000000000000000000000000000000000000000081526004018080602001828103825283818151815260200191508051906020019080838360005b8381101561325e578082015181840152602081019050613243565b50505050905090810190601f16801561328b5780820380516001836020036101000a031916815260200191505b509250505060405180910390fd5b506000838503905080915050939250505056fe536f7274656454726f7665733a2053697a652063616ee2809974206265207a65726fa26469706673582212204d1bc66814a80ba0c2389d4f596210e994348b1944febe21456ee8ae1da9e6ed64736f6c634300060b0033",
  "immutableReferences": {},
  "source": "// SPDX-License-Identifier: UNLICENSED\n\npragma solidity 0.6.11;\n\nimport \"../Interfaces/ISortedTroves.sol\";\nimport \"../Dependencies/SafeMath.sol\";\nimport \"../Dependencies/Ownable.sol\";\nimport \"../Dependencies/CheckContract.sol\";\n\n/*\n* A sorted doubly linked list with nodes sorted in descending order.\n*\n* Nodes map to active Troves in the system - the ID property is the address of a Trove owner.\n* Nodes are ordered according to their current individual collateral ratio (ICR),\n*\n* The list optionally accepts insert position hints.\n*\n* The list relies on the fact that liquidation events preserve ordering: a liquidation decreases the ICRs of all active Troves,\n* but maintains their order. A node inserted based on current ICR will maintain the correct position,\n* relative to it's peers, as rewards accumulate, as long as it's raw collateral and debt have not changed.\n* Thus, Nodes remain sorted by current ICR.\n*\n* Nodes need only be re-inserted upon a Trove operation - when the owner adds or removes collateral or debt\n* to their position.\n*\n* The list is a modification of the following audited SortedDoublyLinkedList:\n* https://github.com/livepeer/protocol/blob/master/contracts/libraries/SortedDoublyLL.sol\n*\n*\n* Changes made in the Liquity implementation:\n*\n* - Keys have been removed from nodes\n*\n* - Ordering checks for insertion are performed by comparing an ICR argument to the current ICR, calculated at runtime.\n*   The list relies on the property that ordering by ICR is maintained as the Coll:USD price varies.\n*\n* - Public functions with parameters have been made internal to save gas, and given an external wrapper function for external access\n* \n* Changes made in Stability Protocol implementation: \n* Since the nodes are no longer just reliant on the nominal ICR which is just amount of ETH / debt, we now have to use the ICR based \n* on the VC value of the node. This changes with any price change, as the composition of any trove does not stay constant. Therefore \n* the list can easily become stale. This is a compromise that we had to make due to it being too expensive gas wise to keep the list \n* actually sorted by current ICR, as this can change each block. Instead, we keep it ordered by oldICR, and it is instead updated through\n* an external function in TroveManager.sol, updateTroves(), and can be called by anyone. This will essentially just update the oldICR and re=insert it \n* into the list. It always remains sorted by oldICR. To then perform redemptions properly, we just allow redemptions to occur for any \n* trove in order of the stale list. However, the redemption amount is in dollar terms so people will always still keep their value, just \n* will lose exposure to the asset. \n* \n*/\ncontract SortedTroves is Ownable, CheckContract, ISortedTroves {\n    using SafeMath for uint256;\n\n    bytes32 constant public NAME = \"SortedTroves\";\n\n    event TroveManagerAddressChanged(address _troveManagerAddress);\n    event TroveManagerRedemptionsAddressChanged(address _troveManagerRedemptionsAddress);\n    event BorrowerOperationsAddressChanged(address _borrowerOperationsAddress);\n    event NodeAdded(address _id, uint _ICR);\n    event NodeRemoved(address _id);\n\n    address internal borrowerOperationsAddress;\n    address internal troveManagerRedemptionsAddress;\n    address internal troveManagerAddress;\n\n    // Information for a node in the list\n    struct Node {\n        bool exists;\n        address nextId;                  // Id of next node (smaller ICR) in the list\n        address prevId;                  // Id of previous node (larger ICR) in the list\n        uint oldICR;                     // ICR of the node last time it was updated. List is always in order \n                                         // in terms of oldICR . \n    }\n\n    // Information for the list\n    struct Data {\n        address head;                        // Head of the list. Also the node in the list with the largest ICR\n        address tail;                        // Tail of the list. Also the node in the list with the smallest ICR\n        uint256 maxSize;                     // Maximum size of the list\n        uint256 size;                        // Current size of the list\n        mapping (address => Node) nodes;     // Track the corresponding ids for each node in the list\n    }\n\n    Data public data;\n\n    // --- Dependency setters ---\n\n    function setParams(uint256 _size, \n        address _troveManagerAddress, \n        address _borrowerOperationsAddress,\n        address _troveManagerRedemptionsAddress) \n        external override onlyOwner {\n        require(_size != 0, \"SortedTroves: Size cant be zero\");\n        checkContract(_troveManagerAddress);\n        checkContract(_borrowerOperationsAddress);\n        checkContract(_troveManagerRedemptionsAddress);\n\n        data.maxSize = _size;\n\n        troveManagerAddress = _troveManagerAddress;\n        borrowerOperationsAddress = _borrowerOperationsAddress;\n        troveManagerRedemptionsAddress = _troveManagerRedemptionsAddress;\n\n        emit TroveManagerAddressChanged(_troveManagerAddress);\n        emit BorrowerOperationsAddressChanged(_borrowerOperationsAddress);\n        emit TroveManagerRedemptionsAddressChanged(_troveManagerRedemptionsAddress);\n\n        _renounceOwnership();\n    }\n\n    /*\n     * @dev Add a node to the list\n     * @param _id Node's id\n     * @param _ICR Node's _ICR at time of inserting\n     * @param _prevId Id of previous node for the insert position\n     * @param _nextId Id of next node for the insert position\n     */\n\n    function insert(address _id, uint256 _ICR, address _prevId, address _nextId) external override {\n        _requireCallerIsBOorTroveM();\n        _insert(_id, _ICR, _prevId, _nextId);\n    }\n\n    function _insert(address _id, uint256 _ICR, address _prevId, address _nextId) internal {\n        // List must not be full\n        require(!isFull(), \"SortedTroves: List is full\");\n        // List must not already contain node\n        require(!contains(_id), \"SortedTroves: duplicate node\");\n        // Node id must not be null\n        require(_id != address(0), \"SortedTroves: Id cannot be zero\");\n        // ICR must be non-zero\n        require(_ICR != 0, \"SortedTroves: ICR must be (+)\");\n        address prevId = _prevId;\n        address nextId = _nextId;\n        if (!_validInsertPosition(_ICR, prevId, nextId)) {\n            // Sender's hint was not a valid insert position\n            // Use sender's hint to find a valid insert position\n            (prevId, nextId) = _findInsertPosition(_ICR, prevId, nextId);\n        }\n\n         data.nodes[_id].exists = true;\n        if (prevId == address(0) && nextId == address(0)) {\n            // Insert as head and tail\n            data.head = _id;\n            data.tail = _id;\n        } else if (prevId == address(0)) {\n            // Insert before `prevId` as the head\n            data.nodes[_id].nextId = data.head;\n            data.nodes[data.head].prevId = _id;\n            data.head = _id;\n        } else if (nextId == address(0)) {\n            // Insert after `nextId` as the tail\n            data.nodes[_id].prevId = data.tail;\n            data.nodes[data.tail].nextId = _id;\n            data.tail = _id;\n        } else {\n            // Insert at insert position between `prevId` and `nextId`\n            data.nodes[_id].nextId = nextId;\n            data.nodes[_id].prevId = prevId;\n            data.nodes[prevId].nextId = _id;\n            data.nodes[nextId].prevId = _id;\n        }\n\n        // Update node's ICR\n        data.nodes[_id].oldICR = _ICR;\n\n        data.size = data.size.add(1);\n        emit NodeAdded(_id, _ICR);\n    }\n\n    function remove(address _id) external override {\n        _requireCallerIsTroveManager();\n        _remove(_id);\n    }\n\n    /*\n     * @dev Remove a node from the list\n     * @param _id Node's id\n     */\n    function _remove(address _id) internal {\n        // List must contain the node\n        require(contains(_id), \"SortedTroves: Id not found\");\n\n        if (data.size > 1) {\n            // List contains more than a single node\n            if (_id == data.head) {\n                // The removed node is the head\n                // Set head to next node\n                data.head = data.nodes[_id].nextId;\n                // Set prev pointer of new head to null\n                data.nodes[data.head].prevId = address(0);\n            } else if (_id == data.tail) {\n                // The removed node is the tail\n                // Set tail to previous node\n                data.tail = data.nodes[_id].prevId;\n                // Set next pointer of new tail to null\n                data.nodes[data.tail].nextId = address(0);\n            } else {\n                // The removed node is neither the head nor the tail\n                // Set next pointer of previous node to the next node\n                data.nodes[data.nodes[_id].prevId].nextId = data.nodes[_id].nextId;\n                // Set prev pointer of next node to the previous node\n                data.nodes[data.nodes[_id].nextId].prevId = data.nodes[_id].prevId;\n            }\n        } else {\n            // List contains a single node\n            // Set the head and tail to null\n            data.head = address(0);\n            data.tail = address(0);\n        }\n\n        data.nodes[_id].oldICR = 0;\n\n        delete data.nodes[_id];\n        data.size = data.size.sub(1);\n        emit NodeRemoved(_id);\n    }\n\n    /*\n     * @dev Re-insert the node at a new position, based on its new ICR\n     * @param _id Node's id\n     * @param _newICR Node's new ICR\n     * @param _prevId Id of previous node for the new insert position\n     * @param _nextId Id of next node for the new insert position\n     */\n    function reInsert(address _id, uint256 _newICR, address _prevId, address _nextId) external override {\n        _requireCallerIsBOorTroveM();\n        // List must contain the node\n        require(contains(_id), \"SortedTroves: Id not found\");\n        // ICR must be non-zero\n        require(_newICR != 0, \"SortedTroves: ICR must be (+)\");\n\n        // Remove node from the list\n        _remove(_id);\n\n        _insert(_id, _newICR, _prevId, _nextId);\n    }\n\n    /*\n     * @dev Checks if the list contains a node\n     */\n    function contains(address _id) public view override returns (bool) {\n        return data.nodes[_id].exists;\n    }\n\n    /*\n     * @dev Checks if the list is full\n     */\n    function isFull() public view override returns (bool) {\n        return data.size == data.maxSize;\n    }\n\n    /*\n     * @dev Checks if the list is empty\n     */\n    function isEmpty() public view override returns (bool) {\n        return data.size == 0;\n    }\n\n    /*\n     * @dev Returns the current size of the list\n     */\n    function getSize() external view override returns (uint256) {\n        return data.size;\n    }\n\n    /*\n     * @dev Returns the maximum size of the list\n     */\n    function getMaxSize() external view override returns (uint256) {\n        return data.maxSize;\n    }\n\n    /*\n     * @dev Returns the first node in the list (node with the largest ICR)\n     */\n    function getFirst() external view override returns (address) {\n        return data.head;\n    }\n\n    /*\n     * @dev Returns the last node in the list (node with the smallest ICR)\n     */\n    function getLast() external view override returns (address) {\n        return data.tail;\n    }\n\n    /*\n     * @dev Returns the next node (with a smaller ICR) in the list for a given node\n     * @param _id Node's id\n     */\n    function getNext(address _id) external view override returns (address) {\n        return data.nodes[_id].nextId;\n    }\n\n    /*\n     * @dev Returns the previous node (with a larger ICR) in the list for a given node\n     * @param _id Node's id\n     */\n    function getPrev(address _id) external view override returns (address) {\n        return data.nodes[_id].prevId;\n    }\n\n    /*\n     * @dev get the old ICR of a node\n     */\n    function getOldICR(address _id) external view override returns (uint256) {\n        return data.nodes[_id].oldICR;\n    }\n\n    /*\n     * @dev Check if a pair of nodes is a valid insertion point for a new node with the given ICR\n     * @param _ICR Node's ICR\n     * @param _prevId Id of previous node for the insert position\n     * @param _nextId Id of next node for the insert position\n     */\n    function validInsertPosition(uint256 _ICR, address _prevId, address _nextId) external view override returns (bool) {\n        return _validInsertPosition(_ICR, _prevId, _nextId);\n    }\n\n    // Instead of calculating current ICR using trove manager, we use oldICR values. \n    function _validInsertPosition(uint256 _ICR, address _prevId, address _nextId) internal view returns (bool) {\n        if (_prevId == address(0) && _nextId == address(0)) {\n            // `(null, null)` is a valid insert position if the list is empty\n            return isEmpty();\n        } else if (_prevId == address(0)) {\n            // `(null, _nextId)` is a valid insert position if `_nextId` is the head of the list\n            return data.head == _nextId && _ICR >= data.nodes[_nextId].oldICR;\n        } else if (_nextId == address(0)) {\n            // `(_prevId, null)` is a valid insert position if `_prevId` is the tail of the list\n            return data.tail == _prevId && _ICR <= data.nodes[_prevId].oldICR;\n        } else {\n            // `(_prevId, _nextId)` is a valid insert position if they are adjacent nodes and `_ICR` falls between the two nodes' ICRs\n            return data.nodes[_prevId].nextId == _nextId &&\n                   data.nodes[_prevId].oldICR >= _ICR &&\n                    _ICR >= data.nodes[_nextId].oldICR;\n        }\n    }\n\n    /*\n     * @dev Descend the list (larger ICRs to smaller ICRs) to find a valid insert position\n     * @param _ICR Node's ICR\n     * @param _startId Id of node to start descending the list from\n     */\n    function _descendList(uint256 _ICR, address _startId) internal view returns (address, address) {\n        // If `_startId` is the head, check if the insert position is before the head\n        if (data.head == _startId && _ICR >= data.nodes[_startId].oldICR) {\n            return (address(0), _startId);\n        }\n\n        address prevId = _startId;\n        address nextId = data.nodes[prevId].nextId;\n\n        // Descend the list until we reach the end or until we find a valid insert position\n        while (prevId != address(0) && !_validInsertPosition(_ICR, prevId, nextId)) {\n            prevId = data.nodes[prevId].nextId;\n            nextId = data.nodes[prevId].nextId;\n        }\n\n        return (prevId, nextId);\n    }\n\n    /*\n     * @dev Ascend the list (smaller ICRs to larger ICRs) to find a valid insert position\n     * @param _ICR Node's ICR\n     * @param _startId Id of node to start ascending the list from\n     */\n    function _ascendList(uint256 _ICR, address _startId) internal view returns (address, address) {\n        // If `_startId` is the tail, check if the insert position is after the tail\n        if (data.tail == _startId && _ICR <= data.nodes[_startId].oldICR) {\n            return (_startId, address(0));\n        }\n\n        address nextId = _startId;\n        address prevId = data.nodes[nextId].prevId;\n\n        // Ascend the list until we reach the end or until we find a valid insertion point\n        while (nextId != address(0) && !_validInsertPosition(_ICR, prevId, nextId)) {\n            nextId = data.nodes[nextId].prevId;\n            prevId = data.nodes[nextId].prevId;\n        }\n\n        return (prevId, nextId);\n    }\n\n   \n\n\n    /*\n     * @dev Find the insert position for a new node with the given ICR\n     * @param _ICR Node's ICR\n     * @param _prevId Id of previous node for the insert position\n     * @param _nextId Id of next node for the insert position\n     */\n    function findInsertPosition(uint256 _ICR, address _prevId, address _nextId) external view override returns (address, address) {\n        return _findInsertPosition(_ICR, _prevId, _nextId);\n    }\n\n    function _findInsertPosition(uint256 _ICR, address _prevId, address _nextId) internal view returns (address, address) {\n        address prevId = _prevId;\n        address nextId = _nextId;\n\n        if (prevId != address(0)) {\n            if (!contains(prevId) || _ICR > data.nodes[prevId].oldICR) {\n                // `prevId` does not exist anymore or now has a smaller ICR than the given ICR\n                prevId = address(0);\n            }\n        }\n\n        if (nextId != address(0)) {\n            if (!contains(nextId) || _ICR < data.nodes[nextId].oldICR) {\n                // `nextId` does not exist anymore or now has a larger ICR than the given ICR\n                nextId = address(0);\n            }\n        }\n\n        if (prevId == address(0) && nextId == address(0)) {\n            // No hint - descend list starting from head\n            return _descendList(_ICR, data.head);\n        } else if (prevId == address(0)) {\n            // No `prevId` for hint - ascend list starting from `nextId`\n            return _ascendList(_ICR, nextId);\n        } else if (nextId == address(0)) {\n            // No `nextId` for hint - descend list starting from `prevId`\n            return _descendList(_ICR, prevId);\n        } else {\n            // Descend list starting from `prevId`\n            return _descendList(_ICR, prevId);\n        }\n    }\n\n    // --- 'require' functions ---\n\n    function _requireCallerIsTroveManager() internal view {\n        if (msg.sender != troveManagerAddress) {\n            _revertWrongFuncCaller();\n        }\n    }\n\n    function _requireCallerIsBOorTroveM() internal view {\n        if (msg.sender != borrowerOperationsAddress && msg.sender != troveManagerAddress\n                && msg.sender != troveManagerRedemptionsAddress) {\n            _revertWrongFuncCaller();\n        }\n    }\n\n    function _revertWrongFuncCaller() internal pure {\n        revert(\"ST: External caller not allowed\");\n    }\n}",
  "sourcePath": "/Users/phaxsam/Core-Stability_Truffle/contracts/SortedTroves.sol",
  "compiler": {
    "name": "solc",
    "version": "0.6.11+commit.5ef660b1.Emscripten.clang"
  },
  "schemaVersion": "3.4.9",
  "updatedAt": "2022-08-15T22:38:51.816Z",
  "devdoc": {
    "kind": "dev",
    "methods": {
      "isOwner()": {
        "details": "Returns true if the caller is the current owner."
      },
      "owner()": {
        "details": "Returns the address of the current owner."
      }
    },
    "version": 1
  },
  "userdoc": {
    "kind": "user",
    "methods": {},
    "version": 1
  }
}