{
  "contractName": "StabCustomBase",
  "abi": [
    {
      "inputs": [],
      "name": "DECIMAL_PRECISION",
      "outputs": [
        {
          "internalType": "uint256",
          "name": "",
          "type": "uint256"
        }
      ],
      "stateMutability": "view",
      "type": "function"
    }
  ],
  "bytecode": "0x6080604052348015600f57600080fd5b50608b8061001e6000396000f3fe6080604052348015600f57600080fd5b506004361060285760003560e01c8063a20baee614602d575b600080fd5b60336049565b6040518082815260200191505060405180910390f35b670de0b6b3a76400008156fea264697066735822122008438ac3a52ffe2cbe3fe3da5870612fa18adc2b7fd1a37780d6fc3af81f6a1564736f6c634300060b0033",
  "immutableReferences": {},
  "source": "// SPDX-License-Identifier: UNLICENSED\n\npragma solidity 0.6.11;\n\nimport \"./BaseMath.sol\";\nimport \"./SafeMath.sol\";\nimport \"../Interfaces/IERC20.sol\";\nimport \"../Interfaces/IWhitelist.sol\";\n\n\ncontract StabCustomBase is BaseMath {\n    using SafeMath for uint256;\n\n    IWhitelist whitelist;\n\n    struct newColls {\n        // tokens and amounts should be the same length\n        address[] tokens;\n        uint256[] amounts;\n    }\n\n    // Collateral math\n\n    // gets the sum of _coll1 and _coll2\n    function _sumColls(newColls memory _coll1, newColls memory _coll2)\n        internal\n        view\n        returns (newColls memory finalColls)\n    {\n        uint256 coll2Len = _coll2.tokens.length;\n        if (coll2Len == 0) {\n            return _coll1;\n        }\n        newColls memory coll3;\n\n        coll3.tokens = whitelist.getValidCollateral();\n        uint256 coll1Len = _coll1.tokens.length;\n        uint256 coll3Len = coll3.tokens.length;\n        coll3.amounts = new uint256[](coll3Len);\n\n        uint256 n;\n        for (uint256 i; i < coll1Len; ++i) {\n            uint256 tokenIndex = whitelist.getIndex(_coll1.tokens[i]);\n            if (_coll1.amounts[i] != 0) {\n                n++;\n                coll3.amounts[tokenIndex] = _coll1.amounts[i];\n            }\n        }\n\n        for (uint256 i; i < coll2Len; ++i) {\n            uint256 tokenIndex = whitelist.getIndex(_coll2.tokens[i]);\n            if (_coll2.amounts[i] != 0) {\n                if (coll3.amounts[tokenIndex] == 0) {\n                    coll3.amounts[tokenIndex] = _coll2.amounts[i];\n                    n++;\n                } else {\n                    coll3.amounts[tokenIndex] = coll3.amounts[tokenIndex].add(_coll2.amounts[i]);\n                }\n            }\n        }\n\n        address[] memory sumTokens = new address[](n);\n        uint256[] memory sumAmounts = new uint256[](n);\n        uint256 j;\n\n        // should only find n amounts over 0\n        for (uint256 i; i < coll3Len; ++i) {\n            if (coll3.amounts[i] != 0) {\n                sumTokens[j] = coll3.tokens[i];\n                sumAmounts[j] = coll3.amounts[i];\n                j++;\n            }\n        }\n        finalColls.tokens = sumTokens;\n        finalColls.amounts = sumAmounts;\n    }\n\n\n    function _getArrayCopy(uint[] memory _arr) internal pure returns (uint[] memory){\n        uint256 arrLen = _arr.length;\n        uint[] memory copy = new uint[](arrLen);\n        for (uint256 i; i < arrLen; ++i) {\n            copy[i] = _arr[i];\n        }\n        return copy;\n    }\n}",
  "sourcePath": "/Users/phaxsam/Core-Stability_Truffle/Dependencies/StabCustomBase.sol",
  "compiler": {
    "name": "solc",
    "version": "0.6.11+commit.5ef660b1.Emscripten.clang"
  },
  "schemaVersion": "3.4.9",
  "updatedAt": "2022-08-15T22:38:51.730Z",
  "devdoc": {
    "kind": "dev",
    "methods": {},
    "version": 1
  },
  "userdoc": {
    "kind": "user",
    "methods": {},
    "version": 1
  }
}