{
  "contractName": "StabilityFinanceTreasury",
  "abi": [
    {
      "inputs": [],
      "stateMutability": "nonpayable",
      "type": "constructor"
    },
    {
      "anonymous": false,
      "inputs": [
        {
          "indexed": false,
          "internalType": "address",
          "name": "newTeamWallet",
          "type": "address"
        }
      ],
      "name": "teamWalletUpdated",
      "type": "event"
    },
    {
      "inputs": [
        {
          "internalType": "contract IERC20",
          "name": "_token",
          "type": "address"
        },
        {
          "internalType": "address",
          "name": "_to",
          "type": "address"
        },
        {
          "internalType": "uint256",
          "name": "_amount",
          "type": "uint256"
        }
      ],
      "name": "sendToken",
      "outputs": [],
      "stateMutability": "nonpayable",
      "type": "function"
    },
    {
      "inputs": [
        {
          "internalType": "address",
          "name": "_newTeamWallet",
          "type": "address"
        }
      ],
      "name": "updateTeamWallet",
      "outputs": [],
      "stateMutability": "nonpayable",
      "type": "function"
    },
    {
      "inputs": [],
      "name": "getTeamWallet",
      "outputs": [
        {
          "internalType": "address",
          "name": "",
          "type": "address"
        }
      ],
      "stateMutability": "view",
      "type": "function"
    }
  ],
  "bytecode": "0x608060405234801561001057600080fd5b50336000806101000a81548173ffffffffffffffffffffffffffffffffffffffff021916908373ffffffffffffffffffffffffffffffffffffffff1602179055507f33d6c30d149d610f7d38f51ed39e7300c70a2c2bc983982c30e8acefd39d936f33604051808273ffffffffffffffffffffffffffffffffffffffff1673ffffffffffffffffffffffffffffffffffffffff16815260200191505060405180910390a1610934806100c36000396000f3fe608060405234801561001057600080fd5b50600436106100415760003560e01c80630759a354146100465780632fdcfbd2146100905780637cb332bb146100fe575b600080fd5b61004e610142565b604051808273ffffffffffffffffffffffffffffffffffffffff1673ffffffffffffffffffffffffffffffffffffffff16815260200191505060405180910390f35b6100fc600480360360608110156100a657600080fd5b81019080803573ffffffffffffffffffffffffffffffffffffffff169060200190929190803573ffffffffffffffffffffffffffffffffffffffff1690602001909291908035906020019092919050505061016b565b005b6101406004803603602081101561011457600080fd5b81019080803573ffffffffffffffffffffffffffffffffffffffff16906020019092919050505061025d565b005b60008060009054906101000a900473ffffffffffffffffffffffffffffffffffffffff16905090565b6000809054906101000a900473ffffffffffffffffffffffffffffffffffffffff1673ffffffffffffffffffffffffffffffffffffffff163373ffffffffffffffffffffffffffffffffffffffff161461022d576040517f08c379a000000000000000000000000000000000000000000000000000000000815260040180806020018281038252601a8152602001807f5472656173757279203a204e6f74205465616d2053656e64657200000000000081525060200191505060405180910390fd5b61025882828573ffffffffffffffffffffffffffffffffffffffff166104689092919063ffffffff16565b505050565b6000809054906101000a900473ffffffffffffffffffffffffffffffffffffffff1673ffffffffffffffffffffffffffffffffffffffff163373ffffffffffffffffffffffffffffffffffffffff161461031f576040517f08c379a000000000000000000000000000000000000000000000000000000000815260040180806020018281038252601a8152602001807f5472656173757279203a204e6f74205465616d2053656e64657200000000000081525060200191505060405180910390fd5b600073ffffffffffffffffffffffffffffffffffffffff168173ffffffffffffffffffffffffffffffffffffffff1614156103c2576040517f08c379a000000000000000000000000000000000000000000000000000000000815260040180806020018281038252601b8152602001807f4e6577207465616d2077616c6c65742063616e6e6f742062652030000000000081525060200191505060405180910390fd5b806000806101000a81548173ffffffffffffffffffffffffffffffffffffffff021916908373ffffffffffffffffffffffffffffffffffffffff1602179055507f33d6c30d149d610f7d38f51ed39e7300c70a2c2bc983982c30e8acefd39d936f81604051808273ffffffffffffffffffffffffffffffffffffffff1673ffffffffffffffffffffffffffffffffffffffff16815260200191505060405180910390a150565b61051b8363a9059cbb60e01b8484604051602401808373ffffffffffffffffffffffffffffffffffffffff1673ffffffffffffffffffffffffffffffffffffffff16815260200182815260200192505050604051602081830303815290604052907bffffffffffffffffffffffffffffffffffffffffffffffffffffffff19166020820180517bffffffffffffffffffffffffffffffffffffffffffffffffffffffff8381831617835250505050610520565b505050565b6060610582826040518060400160405280602081526020017f5361666545524332303a206c6f772d6c6576656c2063616c6c206661696c65648152508573ffffffffffffffffffffffffffffffffffffffff1661060e9092919063ffffffff16565b90506000815114610609578080602001905160208110156105a257600080fd5b8101908080519060200190929190505050610608576040517f08c379a000000000000000000000000000000000000000000000000000000000815260040180806020018281038252602a8152602001806108d5602a913960400191505060405180910390fd5b5b505050565b606061061d8484600085610626565b90509392505050565b606082471015610681576040517f08c379a00000000000000000000000000000000000000000000000000000000081526004018080602001828103825260268152602001806108af6026913960400191505060405180910390fd5b61068a856107cf565b6106fc576040517f08c379a000000000000000000000000000000000000000000000000000000000815260040180806020018281038252601d8152602001807f416464726573733a2063616c6c20746f206e6f6e2d636f6e747261637400000081525060200191505060405180910390fd5b600060608673ffffffffffffffffffffffffffffffffffffffff1685876040518082805190602001908083835b6020831061074c5780518252602082019150602081019050602083039250610729565b6001836020036101000a03801982511681845116808217855250505050505090500191505060006040518083038185875af1925050503d80600081146107ae576040519150601f19603f3d011682016040523d82523d6000602084013e6107b3565b606091505b50915091506107c38282866107e3565b92505050949350505050565b600080823b90506000811415915050919050565b606083156107f3578290506108a7565b60008351146108055782518084602001fd5b816040517f08c379a00000000000000000000000000000000000000000000000000000000081526004018080602001828103825283818151815260200191508051906020019080838360005b8381101561086c578082015181840152602081019050610851565b50505050905090810190601f1680156108995780820380516001836020036101000a031916815260200191505b509250505060405180910390fd5b939250505056fe416464726573733a20696e73756666696369656e742062616c616e636520666f722063616c6c5361666545524332303a204552433230206f7065726174696f6e20646964206e6f742073756363656564a2646970667358221220facb802b97df551042ee2c08069218286a18821605b089ccad26646e2738447f64736f6c634300060b0033",
  "immutableReferences": {},
  "source": "// SPDX-License-Identifier: UNLICENSED\n\npragma solidity 0.6.11;\n\nimport \"../Interfaces/IERC20.sol\";\nimport \"../Dependencies/SafeERC20.sol\";\n\n/*\n * Brought to you by @StabilityProtocol\n * Holds/Distributes Stability Treasury Treasury Tokens\n*/\ncontract StabilityFinanceTreasury {\n    using SafeERC20 for IERC20;\n\n    address teamWallet;\n\n    event teamWalletUpdated(address newTeamWallet);\n\n    constructor() public {\n        teamWallet = msg.sender;\n        emit teamWalletUpdated(msg.sender);\n    }\n\n    modifier onlyTeam() {\n        require(msg.sender == teamWallet, \"Treasury : Not Team Sender\");\n        _;\n    }\n\n    function sendToken(IERC20 _token, address _to, uint _amount) external onlyTeam {\n        _token.safeTransfer(_to, _amount);\n    }\n\n    function updateTeamWallet(address _newTeamWallet) external onlyTeam {\n        require(_newTeamWallet != address(0), \"New team wallet cannot be 0\");\n        teamWallet = _newTeamWallet;\n        emit teamWalletUpdated(_newTeamWallet);\n    }\n\n    function getTeamWallet() external view returns (address) {\n        return teamWallet;\n    }\n\n}",
  "sourcePath": "/Users/phaxsam/Core-Stability_Truffle/contracts/StabilityFinanceTreasury.sol",
  "compiler": {
    "name": "solc",
    "version": "0.6.11+commit.5ef660b1.Emscripten.clang"
  },
  "schemaVersion": "3.4.9",
  "updatedAt": "2022-08-15T22:38:51.824Z",
  "devdoc": {
    "kind": "dev",
    "methods": {},
    "version": 1
  },
  "userdoc": {
    "kind": "user",
    "methods": {},
    "version": 1
  }
}