{
  "contractName": "StabilityPool",
  "abi": [
    {
      "anonymous": false,
      "inputs": [
        {
          "indexed": false,
          "internalType": "address",
          "name": "_newActivePoolAddress",
          "type": "address"
        }
      ],
      "name": "ActivePoolAddressChanged",
      "type": "event"
    },
    {
      "anonymous": false,
      "inputs": [
        {
          "indexed": false,
          "internalType": "address",
          "name": "_newBorrowerOperationsAddress",
          "type": "address"
        }
      ],
      "name": "BorrowerOperationsAddressChanged",
      "type": "event"
    },
    {
      "anonymous": false,
      "inputs": [
        {
          "indexed": false,
          "internalType": "address",
          "name": "_to",
          "type": "address"
        },
        {
          "indexed": false,
          "internalType": "address[]",
          "name": "_collaterals",
          "type": "address[]"
        },
        {
          "indexed": false,
          "internalType": "uint256[]",
          "name": "_amounts",
          "type": "uint256[]"
        }
      ],
      "name": "CollateralSent",
      "type": "event"
    },
    {
      "anonymous": false,
      "inputs": [
        {
          "indexed": false,
          "internalType": "address",
          "name": "_newCommunityIssuanceAddress",
          "type": "address"
        }
      ],
      "name": "CommunityIssuanceAddressChanged",
      "type": "event"
    },
    {
      "anonymous": false,
      "inputs": [
        {
          "indexed": false,
          "internalType": "address",
          "name": "_newDefaultPoolAddress",
          "type": "address"
        }
      ],
      "name": "DefaultPoolAddressChanged",
      "type": "event"
    },
    {
      "anonymous": false,
      "inputs": [
        {
          "indexed": true,
          "internalType": "address",
          "name": "_depositor",
          "type": "address"
        },
        {
          "indexed": false,
          "internalType": "uint256",
          "name": "_P",
          "type": "uint256"
        },
        {
          "indexed": false,
          "internalType": "uint256",
          "name": "_G",
          "type": "uint256"
        }
      ],
      "name": "DepositSnapshotUpdated",
      "type": "event"
    },
    {
      "anonymous": false,
      "inputs": [
        {
          "indexed": true,
          "internalType": "address",
          "name": "_depositor",
          "type": "address"
        },
        {
          "indexed": false,
          "internalType": "uint256",
          "name": "_P",
          "type": "uint256"
        },
        {
          "indexed": false,
          "internalType": "uint256",
          "name": "_S",
          "type": "uint256"
        },
        {
          "indexed": false,
          "internalType": "uint256",
          "name": "_G",
          "type": "uint256"
        }
      ],
      "name": "DepositSnapshotUpdated",
      "type": "event"
    },
    {
      "anonymous": false,
      "inputs": [
        {
          "indexed": true,
          "internalType": "address",
          "name": "_depositor",
          "type": "address"
        },
        {
          "indexed": false,
          "internalType": "uint256",
          "name": "_ETH",
          "type": "uint256"
        },
        {
          "indexed": false,
          "internalType": "uint256",
          "name": "_SUSDLoss",
          "type": "uint256"
        }
      ],
      "name": "ETHGainWithdrawn",
      "type": "event"
    },
    {
      "anonymous": false,
      "inputs": [
        {
          "indexed": false,
          "internalType": "uint128",
          "name": "_currentEpoch",
          "type": "uint128"
        }
      ],
      "name": "EpochUpdated",
      "type": "event"
    },
    {
      "anonymous": false,
      "inputs": [
        {
          "indexed": false,
          "internalType": "address",
          "name": "_to",
          "type": "address"
        },
        {
          "indexed": false,
          "internalType": "uint256",
          "name": "_amount",
          "type": "uint256"
        }
      ],
      "name": "EtherSent",
      "type": "event"
    },
    {
      "anonymous": false,
      "inputs": [
        {
          "indexed": true,
          "internalType": "address",
          "name": "_frontEnd",
          "type": "address"
        },
        {
          "indexed": false,
          "internalType": "uint256",
          "name": "_kickbackRate",
          "type": "uint256"
        }
      ],
      "name": "FrontEndRegistered",
      "type": "event"
    },
    {
      "anonymous": false,
      "inputs": [
        {
          "indexed": true,
          "internalType": "address",
          "name": "_frontEnd",
          "type": "address"
        },
        {
          "indexed": false,
          "internalType": "uint256",
          "name": "_P",
          "type": "uint256"
        },
        {
          "indexed": false,
          "internalType": "uint256",
          "name": "_G",
          "type": "uint256"
        }
      ],
      "name": "FrontEndSnapshotUpdated",
      "type": "event"
    },
    {
      "anonymous": false,
      "inputs": [
        {
          "indexed": true,
          "internalType": "address",
          "name": "_frontEnd",
          "type": "address"
        },
        {
          "indexed": false,
          "internalType": "uint256",
          "name": "_newFrontEndStake",
          "type": "uint256"
        },
        {
          "indexed": false,
          "internalType": "address",
          "name": "_depositor",
          "type": "address"
        }
      ],
      "name": "FrontEndStakeChanged",
      "type": "event"
    },
    {
      "anonymous": false,
      "inputs": [
        {
          "indexed": true,
          "internalType": "address",
          "name": "_depositor",
          "type": "address"
        },
        {
          "indexed": true,
          "internalType": "address",
          "name": "_frontEnd",
          "type": "address"
        }
      ],
      "name": "FrontEndTagSet",
      "type": "event"
    },
    {
      "anonymous": false,
      "inputs": [
        {
          "indexed": false,
          "internalType": "uint256",
          "name": "_G",
          "type": "uint256"
        },
        {
          "indexed": false,
          "internalType": "uint128",
          "name": "_epoch",
          "type": "uint128"
        },
        {
          "indexed": false,
          "internalType": "uint128",
          "name": "_scale",
          "type": "uint128"
        }
      ],
      "name": "G_Updated",
      "type": "event"
    },
    {
      "anonymous": false,
      "inputs": [
        {
          "indexed": true,
          "internalType": "address",
          "name": "_depositor",
          "type": "address"
        },
        {
          "indexed": false,
          "internalType": "address[]",
          "name": "collaterals",
          "type": "address[]"
        },
        {
          "indexed": false,
          "internalType": "uint256[]",
          "name": "_amounts",
          "type": "uint256[]"
        },
        {
          "indexed": false,
          "internalType": "uint256",
          "name": "_SUSDLoss",
          "type": "uint256"
        }
      ],
      "name": "GainsWithdrawn",
      "type": "event"
    },
    {
      "anonymous": false,
      "inputs": [
        {
          "indexed": true,
          "internalType": "address",
          "name": "previousOwner",
          "type": "address"
        },
        {
          "indexed": true,
          "internalType": "address",
          "name": "newOwner",
          "type": "address"
        }
      ],
      "name": "OwnershipTransferred",
      "type": "event"
    },
    {
      "anonymous": false,
      "inputs": [
        {
          "indexed": false,
          "internalType": "uint256",
          "name": "_P",
          "type": "uint256"
        }
      ],
      "name": "P_Updated",
      "type": "event"
    },
    {
      "anonymous": false,
      "inputs": [
        {
          "indexed": false,
          "internalType": "address",
          "name": "_newPriceFeedAddress",
          "type": "address"
        }
      ],
      "name": "PriceFeedAddressChanged",
      "type": "event"
    },
    {
      "anonymous": false,
      "inputs": [
        {
          "indexed": true,
          "internalType": "address",
          "name": "_depositor",
          "type": "address"
        },
        {
          "indexed": false,
          "internalType": "uint256",
          "name": "_STB",
          "type": "uint256"
        }
      ],
      "name": "STBPaidToDepositor",
      "type": "event"
    },
    {
      "anonymous": false,
      "inputs": [
        {
          "indexed": true,
          "internalType": "address",
          "name": "_frontEnd",
          "type": "address"
        },
        {
          "indexed": false,
          "internalType": "uint256",
          "name": "_STB",
          "type": "uint256"
        }
      ],
      "name": "STBPaidToFrontEnd",
      "type": "event"
    },
    {
      "anonymous": false,
      "inputs": [
        {
          "indexed": true,
          "internalType": "address",
          "name": "_frontEnd",
          "type": "address"
        },
        {
          "indexed": false,
          "internalType": "uint256",
          "name": "_STB",
          "type": "uint256"
        }
      ],
      "name": "STBaidToFrontEnd",
      "type": "event"
    },
    {
      "anonymous": false,
      "inputs": [
        {
          "indexed": false,
          "internalType": "address",
          "name": "_newSUSDTokenAddress",
          "type": "address"
        }
      ],
      "name": "SUSDTokenAddressChanged",
      "type": "event"
    },
    {
      "anonymous": false,
      "inputs": [
        {
          "indexed": false,
          "internalType": "address",
          "name": "_asset",
          "type": "address"
        },
        {
          "indexed": false,
          "internalType": "uint256",
          "name": "_S",
          "type": "uint256"
        },
        {
          "indexed": false,
          "internalType": "uint128",
          "name": "_epoch",
          "type": "uint128"
        },
        {
          "indexed": false,
          "internalType": "uint128",
          "name": "_scale",
          "type": "uint128"
        }
      ],
      "name": "S_Updated",
      "type": "event"
    },
    {
      "anonymous": false,
      "inputs": [
        {
          "indexed": false,
          "internalType": "uint256",
          "name": "_S",
          "type": "uint256"
        },
        {
          "indexed": false,
          "internalType": "uint128",
          "name": "_epoch",
          "type": "uint128"
        },
        {
          "indexed": false,
          "internalType": "uint128",
          "name": "_scale",
          "type": "uint128"
        }
      ],
      "name": "S_Updated",
      "type": "event"
    },
    {
      "anonymous": false,
      "inputs": [
        {
          "indexed": false,
          "internalType": "uint128",
          "name": "_currentScale",
          "type": "uint128"
        }
      ],
      "name": "ScaleUpdated",
      "type": "event"
    },
    {
      "anonymous": false,
      "inputs": [
        {
          "indexed": false,
          "internalType": "address",
          "name": "_newSortedTrovesAddress",
          "type": "address"
        }
      ],
      "name": "SortedTrovesAddressChanged",
      "type": "event"
    },
    {
      "anonymous": false,
      "inputs": [
        {
          "indexed": false,
          "internalType": "address[]",
          "name": "assets",
          "type": "address[]"
        },
        {
          "indexed": false,
          "internalType": "uint256[]",
          "name": "amounts",
          "type": "uint256[]"
        }
      ],
      "name": "StabilityPoolBalanceUpdated",
      "type": "event"
    },
    {
      "anonymous": false,
      "inputs": [
        {
          "indexed": false,
          "internalType": "address[]",
          "name": "assets",
          "type": "address[]"
        },
        {
          "indexed": false,
          "internalType": "uint256[]",
          "name": "amounts",
          "type": "uint256[]"
        }
      ],
      "name": "StabilityPoolBalancesUpdated",
      "type": "event"
    },
    {
      "anonymous": false,
      "inputs": [
        {
          "indexed": false,
          "internalType": "uint256",
          "name": "_newBalance",
          "type": "uint256"
        }
      ],
      "name": "StabilityPoolETHBalanceUpdated",
      "type": "event"
    },
    {
      "anonymous": false,
      "inputs": [
        {
          "indexed": false,
          "internalType": "uint256",
          "name": "_newBalance",
          "type": "uint256"
        }
      ],
      "name": "StabilityPoolSUSDBalanceUpdated",
      "type": "event"
    },
    {
      "anonymous": false,
      "inputs": [
        {
          "indexed": false,
          "internalType": "address",
          "name": "_newTroveManagerAddress",
          "type": "address"
        }
      ],
      "name": "TroveManagerAddressChanged",
      "type": "event"
    },
    {
      "anonymous": false,
      "inputs": [
        {
          "indexed": true,
          "internalType": "address",
          "name": "_depositor",
          "type": "address"
        },
        {
          "indexed": false,
          "internalType": "uint256",
          "name": "_newDeposit",
          "type": "uint256"
        }
      ],
      "name": "UserDepositChanged",
      "type": "event"
    },
    {
      "inputs": [],
      "name": "BORROWING_FEE_FLOOR",
      "outputs": [
        {
          "internalType": "uint256",
          "name": "",
          "type": "uint256"
        }
      ],
      "stateMutability": "view",
      "type": "function"
    },
    {
      "inputs": [],
      "name": "CCR",
      "outputs": [
        {
          "internalType": "uint256",
          "name": "",
          "type": "uint256"
        }
      ],
      "stateMutability": "view",
      "type": "function"
    },
    {
      "inputs": [],
      "name": "DECIMAL_PRECISION",
      "outputs": [
        {
          "internalType": "uint256",
          "name": "",
          "type": "uint256"
        }
      ],
      "stateMutability": "view",
      "type": "function"
    },
    {
      "inputs": [],
      "name": "MCR",
      "outputs": [
        {
          "internalType": "uint256",
          "name": "",
          "type": "uint256"
        }
      ],
      "stateMutability": "view",
      "type": "function"
    },
    {
      "inputs": [],
      "name": "MIN_NET_DEBT",
      "outputs": [
        {
          "internalType": "uint256",
          "name": "",
          "type": "uint256"
        }
      ],
      "stateMutability": "view",
      "type": "function"
    },
    {
      "inputs": [],
      "name": "NAME",
      "outputs": [
        {
          "internalType": "string",
          "name": "",
          "type": "string"
        }
      ],
      "stateMutability": "view",
      "type": "function"
    },
    {
      "inputs": [],
      "name": "P",
      "outputs": [
        {
          "internalType": "uint256",
          "name": "",
          "type": "uint256"
        }
      ],
      "stateMutability": "view",
      "type": "function"
    },
    {
      "inputs": [],
      "name": "REDEMPTION_FEE_FLOOR",
      "outputs": [
        {
          "internalType": "uint256",
          "name": "",
          "type": "uint256"
        }
      ],
      "stateMutability": "view",
      "type": "function"
    },
    {
      "inputs": [],
      "name": "SCALE_FACTOR",
      "outputs": [
        {
          "internalType": "uint256",
          "name": "",
          "type": "uint256"
        }
      ],
      "stateMutability": "view",
      "type": "function"
    },
    {
      "inputs": [],
      "name": "SUSD_GAS_COMPENSATION",
      "outputs": [
        {
          "internalType": "uint256",
          "name": "",
          "type": "uint256"
        }
      ],
      "stateMutability": "view",
      "type": "function"
    },
    {
      "inputs": [],
      "name": "currentEpoch",
      "outputs": [
        {
          "internalType": "uint128",
          "name": "",
          "type": "uint128"
        }
      ],
      "stateMutability": "view",
      "type": "function"
    },
    {
      "inputs": [],
      "name": "currentScale",
      "outputs": [
        {
          "internalType": "uint128",
          "name": "",
          "type": "uint128"
        }
      ],
      "stateMutability": "view",
      "type": "function"
    },
    {
      "inputs": [
        {
          "internalType": "address",
          "name": "",
          "type": "address"
        }
      ],
      "name": "depositSnapshots",
      "outputs": [
        {
          "internalType": "uint256",
          "name": "P",
          "type": "uint256"
        },
        {
          "internalType": "uint256",
          "name": "G",
          "type": "uint256"
        },
        {
          "internalType": "uint128",
          "name": "scale",
          "type": "uint128"
        },
        {
          "internalType": "uint128",
          "name": "epoch",
          "type": "uint128"
        }
      ],
      "stateMutability": "view",
      "type": "function"
    },
    {
      "inputs": [
        {
          "internalType": "address",
          "name": "",
          "type": "address"
        }
      ],
      "name": "deposits",
      "outputs": [
        {
          "internalType": "uint256",
          "name": "initialValue",
          "type": "uint256"
        },
        {
          "internalType": "address",
          "name": "frontEndTag",
          "type": "address"
        }
      ],
      "stateMutability": "view",
      "type": "function"
    },
    {
      "inputs": [
        {
          "internalType": "uint128",
          "name": "",
          "type": "uint128"
        },
        {
          "internalType": "uint128",
          "name": "",
          "type": "uint128"
        }
      ],
      "name": "epochToScaleToG",
      "outputs": [
        {
          "internalType": "uint256",
          "name": "",
          "type": "uint256"
        }
      ],
      "stateMutability": "view",
      "type": "function"
    },
    {
      "inputs": [
        {
          "internalType": "address",
          "name": "",
          "type": "address"
        },
        {
          "internalType": "uint128",
          "name": "",
          "type": "uint128"
        },
        {
          "internalType": "uint128",
          "name": "",
          "type": "uint128"
        }
      ],
      "name": "epochToScaleToSum",
      "outputs": [
        {
          "internalType": "uint256",
          "name": "",
          "type": "uint256"
        }
      ],
      "stateMutability": "view",
      "type": "function"
    },
    {
      "inputs": [
        {
          "internalType": "address",
          "name": "",
          "type": "address"
        }
      ],
      "name": "frontEndSnapshots",
      "outputs": [
        {
          "internalType": "uint256",
          "name": "P",
          "type": "uint256"
        },
        {
          "internalType": "uint256",
          "name": "G",
          "type": "uint256"
        },
        {
          "internalType": "uint128",
          "name": "scale",
          "type": "uint128"
        },
        {
          "internalType": "uint128",
          "name": "epoch",
          "type": "uint128"
        }
      ],
      "stateMutability": "view",
      "type": "function"
    },
    {
      "inputs": [
        {
          "internalType": "address",
          "name": "",
          "type": "address"
        }
      ],
      "name": "frontEndStakes",
      "outputs": [
        {
          "internalType": "uint256",
          "name": "",
          "type": "uint256"
        }
      ],
      "stateMutability": "view",
      "type": "function"
    },
    {
      "inputs": [
        {
          "internalType": "address",
          "name": "",
          "type": "address"
        }
      ],
      "name": "frontEnds",
      "outputs": [
        {
          "internalType": "uint256",
          "name": "kickbackRate",
          "type": "uint256"
        },
        {
          "internalType": "bool",
          "name": "registered",
          "type": "bool"
        }
      ],
      "stateMutability": "view",
      "type": "function"
    },
    {
      "inputs": [],
      "name": "getEntireSystemColl",
      "outputs": [
        {
          "internalType": "uint256",
          "name": "",
          "type": "uint256"
        }
      ],
      "stateMutability": "view",
      "type": "function"
    },
    {
      "inputs": [],
      "name": "getEntireSystemDebt",
      "outputs": [
        {
          "internalType": "uint256",
          "name": "",
          "type": "uint256"
        }
      ],
      "stateMutability": "view",
      "type": "function"
    },
    {
      "inputs": [],
      "name": "isOwner",
      "outputs": [
        {
          "internalType": "bool",
          "name": "",
          "type": "bool"
        }
      ],
      "stateMutability": "view",
      "type": "function"
    },
    {
      "inputs": [
        {
          "internalType": "uint256",
          "name": "",
          "type": "uint256"
        }
      ],
      "name": "lastAssetError_Offset",
      "outputs": [
        {
          "internalType": "uint256",
          "name": "",
          "type": "uint256"
        }
      ],
      "stateMutability": "view",
      "type": "function"
    },
    {
      "inputs": [],
      "name": "lastSTBError",
      "outputs": [
        {
          "internalType": "uint256",
          "name": "",
          "type": "uint256"
        }
      ],
      "stateMutability": "view",
      "type": "function"
    },
    {
      "inputs": [],
      "name": "lastSUSDLossError_Offset",
      "outputs": [
        {
          "internalType": "uint256",
          "name": "",
          "type": "uint256"
        }
      ],
      "stateMutability": "view",
      "type": "function"
    },
    {
      "inputs": [],
      "name": "owner",
      "outputs": [
        {
          "internalType": "address",
          "name": "",
          "type": "address"
        }
      ],
      "stateMutability": "view",
      "type": "function"
    },
    {
      "inputs": [
        {
          "internalType": "address",
          "name": "_borrowerOperationsAddress",
          "type": "address"
        },
        {
          "internalType": "address",
          "name": "_troveManagerAddress",
          "type": "address"
        },
        {
          "internalType": "address",
          "name": "_activePoolAddress",
          "type": "address"
        },
        {
          "internalType": "address",
          "name": "_susdTokenAddress",
          "type": "address"
        },
        {
          "internalType": "address",
          "name": "_sortedTrovesAddress",
          "type": "address"
        },
        {
          "internalType": "address",
          "name": "_communityIssuanceAddress",
          "type": "address"
        },
        {
          "internalType": "address",
          "name": "_whitelistAddress",
          "type": "address"
        },
        {
          "internalType": "address",
          "name": "_troveManagerLiquidationsAddress",
          "type": "address"
        }
      ],
      "name": "setAddresses",
      "outputs": [],
      "stateMutability": "nonpayable",
      "type": "function"
    },
    {
      "inputs": [],
      "name": "getVC",
      "outputs": [
        {
          "internalType": "uint256",
          "name": "",
          "type": "uint256"
        }
      ],
      "stateMutability": "view",
      "type": "function"
    },
    {
      "inputs": [
        {
          "internalType": "address",
          "name": "_collateral",
          "type": "address"
        }
      ],
      "name": "getCollateral",
      "outputs": [
        {
          "internalType": "uint256",
          "name": "",
          "type": "uint256"
        }
      ],
      "stateMutability": "view",
      "type": "function"
    },
    {
      "inputs": [],
      "name": "getAllCollateral",
      "outputs": [
        {
          "internalType": "address[]",
          "name": "",
          "type": "address[]"
        },
        {
          "internalType": "uint256[]",
          "name": "",
          "type": "uint256[]"
        }
      ],
      "stateMutability": "view",
      "type": "function"
    },
    {
      "inputs": [],
      "name": "getTotalSUSDDeposits",
      "outputs": [
        {
          "internalType": "uint256",
          "name": "",
          "type": "uint256"
        }
      ],
      "stateMutability": "view",
      "type": "function"
    },
    {
      "inputs": [
        {
          "internalType": "uint256",
          "name": "_amount",
          "type": "uint256"
        },
        {
          "internalType": "address",
          "name": "_frontEndTag",
          "type": "address"
        }
      ],
      "name": "provideToSP",
      "outputs": [],
      "stateMutability": "nonpayable",
      "type": "function"
    },
    {
      "inputs": [
        {
          "internalType": "uint256",
          "name": "_amount",
          "type": "uint256"
        }
      ],
      "name": "withdrawFromSP",
      "outputs": [],
      "stateMutability": "nonpayable",
      "type": "function"
    },
    {
      "inputs": [
        {
          "internalType": "uint256",
          "name": "_debtToOffset",
          "type": "uint256"
        },
        {
          "internalType": "address[]",
          "name": "_tokens",
          "type": "address[]"
        },
        {
          "internalType": "uint256[]",
          "name": "_amountsAdded",
          "type": "uint256[]"
        }
      ],
      "name": "offset",
      "outputs": [],
      "stateMutability": "nonpayable",
      "type": "function"
    },
    {
      "inputs": [
        {
          "internalType": "address",
          "name": "_depositor",
          "type": "address"
        }
      ],
      "name": "getDepositorGains",
      "outputs": [
        {
          "internalType": "address[]",
          "name": "",
          "type": "address[]"
        },
        {
          "internalType": "uint256[]",
          "name": "",
          "type": "uint256[]"
        }
      ],
      "stateMutability": "view",
      "type": "function"
    },
    {
      "inputs": [
        {
          "internalType": "address",
          "name": "_depositor",
          "type": "address"
        }
      ],
      "name": "getDepositorSTBGain",
      "outputs": [
        {
          "internalType": "uint256",
          "name": "",
          "type": "uint256"
        }
      ],
      "stateMutability": "view",
      "type": "function"
    },
    {
      "inputs": [
        {
          "internalType": "address",
          "name": "_frontEnd",
          "type": "address"
        }
      ],
      "name": "getFrontEndSTBGain",
      "outputs": [
        {
          "internalType": "uint256",
          "name": "",
          "type": "uint256"
        }
      ],
      "stateMutability": "view",
      "type": "function"
    },
    {
      "inputs": [
        {
          "internalType": "address",
          "name": "_depositor",
          "type": "address"
        }
      ],
      "name": "getCompoundedSUSDDeposit",
      "outputs": [
        {
          "internalType": "uint256",
          "name": "",
          "type": "uint256"
        }
      ],
      "stateMutability": "view",
      "type": "function"
    },
    {
      "inputs": [
        {
          "internalType": "address",
          "name": "_frontEnd",
          "type": "address"
        }
      ],
      "name": "getCompoundedFrontEndStake",
      "outputs": [
        {
          "internalType": "uint256",
          "name": "",
          "type": "uint256"
        }
      ],
      "stateMutability": "view",
      "type": "function"
    },
    {
      "inputs": [
        {
          "internalType": "uint256",
          "name": "_kickbackRate",
          "type": "uint256"
        }
      ],
      "name": "registerFrontEnd",
      "outputs": [],
      "stateMutability": "nonpayable",
      "type": "function"
    },
    {
      "inputs": [
        {
          "internalType": "address[]",
          "name": "_tokens",
          "type": "address[]"
        },
        {
          "internalType": "uint256[]",
          "name": "_amounts",
          "type": "uint256[]"
        }
      ],
      "name": "receiveCollateral",
      "outputs": [],
      "stateMutability": "nonpayable",
      "type": "function"
    },
    {
      "inputs": [
        {
          "internalType": "address",
          "name": "_collateral",
          "type": "address"
        }
      ],
      "name": "addCollateralType",
      "outputs": [],
      "stateMutability": "nonpayable",
      "type": "function"
    },
    {
      "inputs": [
        {
          "internalType": "address",
          "name": "_depositor",
          "type": "address"
        },
        {
          "internalType": "address",
          "name": "_collateral",
          "type": "address"
        }
      ],
      "name": "getDepositSnapshotS",
      "outputs": [
        {
          "internalType": "uint256",
          "name": "",
          "type": "uint256"
        }
      ],
      "stateMutability": "view",
      "type": "function"
    }
  ],
  "bytecode": "0x6080604052670de0b6b3a764000060135534801561001c57600080fd5b5033600360006101000a81548173ffffffffffffffffffffffffffffffffffffffff021916908373ffffffffffffffffffffffffffffffffffffffff1602179055503373ffffffffffffffffffffffffffffffffffffffff16600073ffffffffffffffffffffffffffffffffffffffff167f8be0079c531659141344cd1fd0a4f28419497f9722a3daafe3b4186f6b6457e060405160405180910390a3617db880620000c96000396000f3fe608060405234801561001057600080fd5b50600436106102695760003560e01c80638da5cb5b11610151578063c9771ed1116100c3578063ec0d5e0c11610087578063ec0d5e0c146110bb578063f86c5b9d146110ff578063f92d34331461111d578063f9b4835f1461113b578063fafeaa1914611159578063fc7e286d1461117757610269565b8063c9771ed114610e70578063ce4b5bbe14610ec8578063d6c41e8814610ee6578063d733cfd014610f3e578063df9cd84f1461106357610269565b8063a4e59ac811610115578063a4e59ac814610b1e578063a7a24edd14610b60578063a7bfff9714610cac578063be35d3bd14610d0f578063c5e1c9c314610d51578063c6ba093614610dc957610269565b80638da5cb5b146109b95780638f32d59b14610a035780639b56d6c914610a25578063a20baee614610a7d578063a3f4df7e14610a9b57610269565b806376671808116101ea5780637ee4196b116101ae5780637ee4196b146107aa57806382e0a5741461083a57806386da0824146108aa57806387dc66561461095f578063887105d31461097d5780638b8fbd921461099b57610269565b806376671808146104f5578063768cc57514610537578063792b50e31461068d578063794e57241461076e578063795d26c31461078c57610269565b806332512ca71161023157806332512ca7146103ab578063556be101146104035780635733d58f146104315780635d2de6421461044f5780635f788d65146104a757610269565b806301d40b631461026e57806316b9d3c51461028c5780631bf435551461034157806328d28b5b1461035f5780632e54bf951461037d575b600080fd5b610276611202565b6040518082815260200191505060405180910390f35b6102ce600480360360208110156102a257600080fd5b81019080803573ffffffffffffffffffffffffffffffffffffffff169060200190929190505050611304565b60405180858152602001848152602001836fffffffffffffffffffffffffffffffff166fffffffffffffffffffffffffffffffff168152602001826fffffffffffffffffffffffffffffffff166fffffffffffffffffffffffffffffffff16815260200194505050505060405180910390f35b61034961136c565b6040518082815260200191505060405180910390f35b610367611379565b6040518082815260200191505060405180910390f35b6103a96004803603602081101561039357600080fd5b8101908080359060200190929190505050611393565b005b6103ed600480360360208110156103c157600080fd5b81019080803573ffffffffffffffffffffffffffffffffffffffff1690602001909291905050506116fa565b6040518082815260200191505060405180910390f35b61042f6004803603602081101561041957600080fd5b81019080803590602001909291905050506117b2565b005b6104396118c0565b6040518082815260200191505060405180910390f35b6104916004803603602081101561046557600080fd5b81019080803573ffffffffffffffffffffffffffffffffffffffff1690602001909291905050506118cc565b6040518082815260200191505060405180910390f35b6104f3600480360360408110156104bd57600080fd5b8101908080359060200190929190803573ffffffffffffffffffffffffffffffffffffffff1690602001909291905050506118e4565b005b6104fd611c52565b60405180826fffffffffffffffffffffffffffffffff166fffffffffffffffffffffffffffffffff16815260200191505060405180910390f35b61068b6004803603606081101561054d57600080fd5b81019080803590602001909291908035906020019064010000000081111561057457600080fd5b82018360208201111561058657600080fd5b803590602001918460208302840111640100000000831117156105a857600080fd5b919080806020026020016040519081016040528093929190818152602001838360200280828437600081840152601f19601f8201169050808301925050505050505091929192908035906020019064010000000081111561060857600080fd5b82018360208201111561061a57600080fd5b8035906020019184602083028401116401000000008311171561063c57600080fd5b919080806020026020016040519081016040528093929190818152602001838360200280828437600081840152601f19601f820116905080830192505050505050509192919290505050611c74565b005b6106cf600480360360208110156106a357600080fd5b81019080803573ffffffffffffffffffffffffffffffffffffffff169060200190929190505050611cfb565b604051808060200180602001838103835285818151815260200191508051906020019060200280838360005b838110156107165780820151818401526020810190506106fb565b50505050905001838103825284818151815260200191508051906020019060200280838360005b8381101561075857808201518184015260208101905061073d565b5050505090500194505050505060405180910390f35b610776611e4d565b6040518082815260200191505060405180910390f35b610794611e59565b6040518082815260200191505060405180910390f35b610824600480360360608110156107c057600080fd5b81019080803573ffffffffffffffffffffffffffffffffffffffff16906020019092919080356fffffffffffffffffffffffffffffffff16906020019092919080356fffffffffffffffffffffffffffffffff169060200190929190505050611fc2565b6040518082815260200191505060405180910390f35b6108946004803603604081101561085057600080fd5b8101908080356fffffffffffffffffffffffffffffffff16906020019092919080356fffffffffffffffffffffffffffffffff169060200190929190505050611ff4565b6040518082815260200191505060405180910390f35b6108ec600480360360208110156108c057600080fd5b81019080803573ffffffffffffffffffffffffffffffffffffffff169060200190929190505050612019565b60405180858152602001848152602001836fffffffffffffffffffffffffffffffff166fffffffffffffffffffffffffffffffff168152602001826fffffffffffffffffffffffffffffffff166fffffffffffffffffffffffffffffffff16815260200194505050505060405180910390f35b610967612081565b6040518082815260200191505060405180910390f35b61098561208e565b6040518082815260200191505060405180910390f35b6109a3612138565b6040518082815260200191505060405180910390f35b6109c161213e565b604051808273ffffffffffffffffffffffffffffffffffffffff1673ffffffffffffffffffffffffffffffffffffffff16815260200191505060405180910390f35b610a0b612168565b604051808215151515815260200191505060405180910390f35b610a6760048036036020811015610a3b57600080fd5b81019080803573ffffffffffffffffffffffffffffffffffffffff1690602001909291905050506121c0565b6040518082815260200191505060405180910390f35b610a856122c1565b6040518082815260200191505060405180910390f35b610aa36122cd565b6040518080602001828103825283818151815260200191508051906020019080838360005b83811015610ae3578082015181840152602081019050610ac8565b50505050905090810190601f168015610b105780820380516001836020036101000a031916815260200191505b509250505060405180910390f35b610b26612306565b60405180826fffffffffffffffffffffffffffffffff166fffffffffffffffffffffffffffffffff16815260200191505060405180910390f35b610caa60048036036040811015610b7657600080fd5b8101908080359060200190640100000000811115610b9357600080fd5b820183602082011115610ba557600080fd5b80359060200191846020830284011164010000000083111715610bc757600080fd5b919080806020026020016040519081016040528093929190818152602001838360200280828437600081840152601f19601f82011690508083019250505050505050919291929080359060200190640100000000811115610c2757600080fd5b820183602082011115610c3957600080fd5b80359060200191846020830284011164010000000083111715610c5b57600080fd5b919080806020026020016040519081016040528093929190818152602001838360200280828437600081840152601f19601f820116905080830192505050505050509192919290505050612328565b005b610cee60048036036020811015610cc257600080fd5b81019080803573ffffffffffffffffffffffffffffffffffffffff16906020019092919050505061250b565b60405180838152602001821515151581526020019250505060405180910390f35b610d3b60048036036020811015610d2557600080fd5b810190808035906020019092919050505061253c565b6040518082815260200191505060405180910390f35b610db360048036036040811015610d6757600080fd5b81019080803573ffffffffffffffffffffffffffffffffffffffff169060200190929190803573ffffffffffffffffffffffffffffffffffffffff16906020019092919050505061255d565b6040518082815260200191505060405180910390f35b610dd16125e7565b604051808060200180602001838103835285818151815260200191508051906020019060200280838360005b83811015610e18578082015181840152602081019050610dfd565b50505050905001838103825284818151815260200191508051906020019060200280838360005b83811015610e5a578082015181840152602081019050610e3f565b5050505090500194505050505060405180910390f35b610eb260048036036020811015610e8657600080fd5b81019080803573ffffffffffffffffffffffffffffffffffffffff1690602001909291905050506126d6565b6040518082815260200191505060405180910390f35b610ed061281f565b6040518082815260200191505060405180910390f35b610f2860048036036020811015610efc57600080fd5b81019080803573ffffffffffffffffffffffffffffffffffffffff169060200190929190505050612827565b6040518082815260200191505060405180910390f35b6110616004803603610100811015610f5557600080fd5b81019080803573ffffffffffffffffffffffffffffffffffffffff169060200190929190803573ffffffffffffffffffffffffffffffffffffffff169060200190929190803573ffffffffffffffffffffffffffffffffffffffff169060200190929190803573ffffffffffffffffffffffffffffffffffffffff169060200190929190803573ffffffffffffffffffffffffffffffffffffffff169060200190929190803573ffffffffffffffffffffffffffffffffffffffff169060200190929190803573ffffffffffffffffffffffffffffffffffffffff169060200190929190803573ffffffffffffffffffffffffffffffffffffffff1690602001909291905050506129fd565b005b6110a56004803603602081101561107957600080fd5b81019080803573ffffffffffffffffffffffffffffffffffffffff169060200190929190505050612f6b565b6040518082815260200191505060405180910390f35b6110fd600480360360208110156110d157600080fd5b81019080803573ffffffffffffffffffffffffffffffffffffffff169060200190929190505050613020565b005b6111076130e8565b6040518082815260200191505060405180910390f35b6111256130ee565b6040518082815260200191505060405180910390f35b611143613108565b6040518082815260200191505060405180910390f35b61116161310e565b6040518082815260200191505060405180910390f35b6111b96004803603602081101561118d57600080fd5b81019080803573ffffffffffffffffffffffffffffffffffffffff169060200190929190505050613118565b604051808381526020018273ffffffffffffffffffffffffffffffffffffffff1673ffffffffffffffffffffffffffffffffffffffff1681526020019250505060405180910390f35b60006112ff600c6040518060400160405290816000820180548060200260200160405190810160405280929190818152602001828054801561129957602002820191906000526020600020905b8160009054906101000a900473ffffffffffffffffffffffffffffffffffffffff1673ffffffffffffffffffffffffffffffffffffffff168152602001906001019080831161124f575b50505050508152602001600182018054806020026020016040519081016040528092919081815260200182805480156112f157602002820191906000526020600020905b8154815260200190600101908083116112dd575b50505050508152505061315c565b905090565b60126020528060005260406000206000915090508060010154908060020154908060030160009054906101000a90046fffffffffffffffffffffffffffffffff16908060030160109054906101000a90046fffffffffffffffffffffffffffffffff16905084565b68056bc75e2d6310000081565b60056103e8670de0b6b3a76400008161138e57fe5b040281565b600081146113a4576113a36132a4565b5b6000600e60003373ffffffffffffffffffffffffffffffffffffffff1673ffffffffffffffffffffffffffffffffffffffff1681526020019081526020016000206000015490506113f4816134ab565b6000600960009054906101000a900473ffffffffffffffffffffffffffffffffffffffff16905061142481613525565b60608061143033611cfb565b91509150600061143f336116fa565b9050600061144d87836135b9565b9050600061146483886135d290919063ffffffff16565b90506000600e60003373ffffffffffffffffffffffffffffffffffffffff1673ffffffffffffffffffffffffffffffffffffffff16815260200190815260200160002060010160009054906101000a900473ffffffffffffffffffffffffffffffffffffffff1690506114d887338361361c565b60006114e382612f6b565b905060006114fa85836135d290919063ffffffff16565b9050611506838261384c565b8273ffffffffffffffffffffffffffffffffffffffff167f99920012339b5a3368d3a04b8606ce412c46ed92b7dcd8602d41fc8862cb8f258233604051808381526020018273ffffffffffffffffffffffffffffffffffffffff1673ffffffffffffffffffffffffffffffffffffffff1681526020019250505060405180910390a26115923386613c2b565b60006115a786886135d290919063ffffffff16565b90506115b33382613d3c565b3373ffffffffffffffffffffffffffffffffffffffff167fbce78369dccab09eec1986f4d409ab09ffbb47d65423e5148fcf98411c5111c9826040518082815260200191505060405180910390a23373ffffffffffffffffffffffffffffffffffffffff167ff20651f7c9cd4e1c112f77cbf2a13a44f79d4165dd781c41b52052bfc888174a8a8a88604051808060200180602001848152602001838103835286818151815260200191508051906020019060200280838360005b8381101561168957808201518184015260208101905061166e565b50505050905001838103825285818151815260200191508051906020019060200280838360005b838110156116cb5780820151818401526020810190506116b0565b505050509050019550505050505060405180910390a26116ec338a8a614710565b505050505050505050505050565b600080600e60008473ffffffffffffffffffffffffffffffffffffffff1673ffffffffffffffffffffffffffffffffffffffff16815260200190815260200160002060000154905060008114156117555760009150506117ad565b6000600f60008573ffffffffffffffffffffffffffffffffffffffff1673ffffffffffffffffffffffffffffffffffffffff168152602001908152602001600020905060006117a48383614b82565b90508093505050505b919050565b6117bb33614d5d565b6117c433614e23565b6117cd81614ee4565b80601060003373ffffffffffffffffffffffffffffffffffffffff1673ffffffffffffffffffffffffffffffffffffffff168152602001908152602001600020600001819055506001601060003373ffffffffffffffffffffffffffffffffffffffff1673ffffffffffffffffffffffffffffffffffffffff16815260200190815260200160002060010160006101000a81548160ff0219169083151502179055503373ffffffffffffffffffffffffffffffffffffffff167f19bc932fb9e16a8b5a1e41be9f4c2de59d5ddd7567b8b81405f532ca00a9880e826040518082815260200191505060405180910390a250565b6714d1120d7b16000081565b60116020528060005260406000206000915090505481565b6118ed81614f65565b6118f633614d5d565b6118ff82615061565b6000600e60003373ffffffffffffffffffffffffffffffffffffffff1673ffffffffffffffffffffffffffffffffffffffff1681526020019081526020016000206000015490506000600960009054906101000a900473ffffffffffffffffffffffffffffffffffffffff16905061197681613525565b600082141561198a5761198933846150db565b5b60608061199633611cfb565b9150915060006119a5336116fa565b905060006119bc82876135d290919063ffffffff16565b90506000600e60003373ffffffffffffffffffffffffffffffffffffffff1673ffffffffffffffffffffffffffffffffffffffff16815260200190815260200160002060010160009054906101000a900473ffffffffffffffffffffffffffffffffffffffff169050611a3086338361361c565b6000611a3b82612f6b565b90506000611a528b836151ba90919063ffffffff16565b9050611a5e838261384c565b8273ffffffffffffffffffffffffffffffffffffffff167f99920012339b5a3368d3a04b8606ce412c46ed92b7dcd8602d41fc8862cb8f258233604051808381526020018273ffffffffffffffffffffffffffffffffffffffff1673ffffffffffffffffffffffffffffffffffffffff1681526020019250505060405180910390a2611aea338c615242565b6000611aff8c876151ba90919063ffffffff16565b9050611b0b3382613d3c565b3373ffffffffffffffffffffffffffffffffffffffff167fbce78369dccab09eec1986f4d409ab09ffbb47d65423e5148fcf98411c5111c9826040518082815260200191505060405180910390a23373ffffffffffffffffffffffffffffffffffffffff167ff20651f7c9cd4e1c112f77cbf2a13a44f79d4165dd781c41b52052bfc888174a898988604051808060200180602001848152602001838103835286818151815260200191508051906020019060200280838360005b83811015611be1578082015181840152602081019050611bc6565b50505050905001838103825285818151815260200191508051906020019060200280838360005b83811015611c23578082015181840152602081019050611c08565b505050509050019550505050505060405180910390a2611c44338989614710565b505050505050505050505050565b601460109054906101000a90046fffffffffffffffffffffffffffffffff1681565b611c7c615393565b6000600b5490506000811480611c925750600084145b15611c9d5750611cf6565b611cc8600960009054906101000a900473ffffffffffffffffffffffffffffffffffffffff16613525565b60606000611cd8858588866153f3565b91509150611ce7858383615920565b611cf285858861607a565b5050505b505050565b6060806000600e60008573ffffffffffffffffffffffffffffffffffffffff1673ffffffffffffffffffffffffffffffffffffffff1681526020019081526020016000206000015490506000811415611df4576060600067ffffffffffffffff81118015611d6857600080fd5b50604051908082528060200260200182016040528015611d975781602001602082028036833780820191505090505b5090506060600067ffffffffffffffff81118015611db457600080fd5b50604051908082528060200260200182016040528015611de35781602001602082028036833780820191505090505b509050818194509450505050611e48565b6000600f60008673ffffffffffffffffffffffffffffffffffffffff1673ffffffffffffffffffffffffffffffffffffffff1681526020019081526020016000209050611e418282616305565b9350935050505b915091565b670f43fc2c04ee000081565b600080600160009054906101000a900473ffffffffffffffffffffffffffffffffffffffff1673ffffffffffffffffffffffffffffffffffffffff1663c24103646040518163ffffffff1660e01b815260040160206040518083038186803b158015611ec457600080fd5b505afa158015611ed8573d6000803e3d6000fd5b505050506040513d6020811015611eee57600080fd5b810190808051906020019092919050505090506000600260009054906101000a900473ffffffffffffffffffffffffffffffffffffffff1673ffffffffffffffffffffffffffffffffffffffff1663c24103646040518163ffffffff1660e01b815260040160206040518083038186803b158015611f6b57600080fd5b505afa158015611f7f573d6000803e3d6000fd5b505050506040513d6020811015611f9557600080fd5b81019080805190602001909291905050509050611fbb81836151ba90919063ffffffff16565b9250505090565b601560205282600052604060002060205281600052604060002060205280600052604060002060009250925050505481565b6016602052816000526040600020602052806000526040600020600091509150505481565b600f6020528060005260406000206000915090508060010154908060020154908060030160009054906101000a90046fffffffffffffffffffffffffffffffff16908060030160109054906101000a90046fffffffffffffffffffffffffffffffff16905084565b6802b5e3af16b188000081565b6000600160009054906101000a900473ffffffffffffffffffffffffffffffffffffffff1673ffffffffffffffffffffffffffffffffffffffff1663651340c46040518163ffffffff1660e01b815260040160206040518083038186803b1580156120f857600080fd5b505afa15801561210c573d6000803e3d6000fd5b505050506040513d602081101561212257600080fd5b8101908080519060200190929190505050905090565b60135481565b6000600360009054906101000a900473ffffffffffffffffffffffffffffffffffffffff16905090565b6000600360009054906101000a900473ffffffffffffffffffffffffffffffffffffffff1673ffffffffffffffffffffffffffffffffffffffff163373ffffffffffffffffffffffffffffffffffffffff1614905090565b6000806000809054906101000a900473ffffffffffffffffffffffffffffffffffffffff1673ffffffffffffffffffffffffffffffffffffffff1663b31610db846040518263ffffffff1660e01b8152600401808273ffffffffffffffffffffffffffffffffffffffff1673ffffffffffffffffffffffffffffffffffffffff16815260200191505060206040518083038186803b15801561226157600080fd5b505afa158015612275573d6000803e3d6000fd5b505050506040513d602081101561228b57600080fd5b81019080805190602001909291905050509050600c60010181815481106122ae57fe5b9060005260206000200154915050919050565b670de0b6b3a764000081565b6040518060400160405280600d81526020017f53746162696c697479506f6f6c0000000000000000000000000000000000000081525081565b601460009054906101000a90046fffffffffffffffffffffffffffffffff1681565b6123306164ea565b61242d600c604051806040016040529081600082018054806020026020016040519081016040528092919081815260200182805480156123c557602002820191906000526020600020905b8160009054906101000a900473ffffffffffffffffffffffffffffffffffffffff1673ffffffffffffffffffffffffffffffffffffffff168152602001906001019080831161237b575b505050505081526020016001820180548060200260200160405190810160405280929190818152602001828054801561241d57602002820191906000526020600020905b815481526020019060010190808311612409575b505050505081525050838361654a565b600c6001019080519060200190612445929190617c73565b507f3f96f1f718a2ea04656ba4d6bb360a9a2d44c91d3dda1153fdeeeabe7d5d46e28282604051808060200180602001838103835285818151815260200191508051906020019060200280838360005b838110156124b0578082015181840152602081019050612495565b50505050905001838103825284818151815260200191508051906020019060200280838360005b838110156124f25780820151818401526020810190506124d7565b5050505090500194505050505060405180910390a15050565b60106020528060005260406000206000915090508060000154908060010160009054906101000a900460ff16905082565b6018818154811061254957fe5b906000526020600020016000915090505481565b6000600f60008473ffffffffffffffffffffffffffffffffffffffff1673ffffffffffffffffffffffffffffffffffffffff16815260200190815260200160002060000160008373ffffffffffffffffffffffffffffffffffffffff1673ffffffffffffffffffffffffffffffffffffffff16815260200190815260200160002054905092915050565b606080600c600001600c6001018180548060200260200160405190810160405280929190818152602001828054801561267557602002820191906000526020600020905b8160009054906101000a900473ffffffffffffffffffffffffffffffffffffffff1673ffffffffffffffffffffffffffffffffffffffff168152602001906001019080831161262b575b50505050509150808054806020026020016040519081016040528092919081815260200182805480156126c757602002820191906000526020600020905b8154815260200190600101908083116126b3575b50505050509050915091509091565b600080601160008473ffffffffffffffffffffffffffffffffffffffff1673ffffffffffffffffffffffffffffffffffffffff168152602001908152602001600020549050600081141561272e57600091505061281a565b6000601060008573ffffffffffffffffffffffffffffffffffffffff1673ffffffffffffffffffffffffffffffffffffffff168152602001908152602001600020600001549050600061279282670de0b6b3a76400006135d290919063ffffffff16565b90506000601260008773ffffffffffffffffffffffffffffffffffffffff1673ffffffffffffffffffffffffffffffffffffffff1681526020019081526020016000209050600061280f670de0b6b3a76400006128016127f288866166df565b866168d090919063ffffffff16565b61697390919063ffffffff16565b905080955050505050505b919050565b633b9aca0081565b600080600e60008473ffffffffffffffffffffffffffffffffffffffff1673ffffffffffffffffffffffffffffffffffffffff16815260200190815260200160002060000154905060008114156128825760009150506129f8565b6000600e60008573ffffffffffffffffffffffffffffffffffffffff1673ffffffffffffffffffffffffffffffffffffffff16815260200190815260200160002060010160009054906101000a900473ffffffffffffffffffffffffffffffffffffffff16905060008073ffffffffffffffffffffffffffffffffffffffff168273ffffffffffffffffffffffffffffffffffffffff161461296657601060008373ffffffffffffffffffffffffffffffffffffffff1673ffffffffffffffffffffffffffffffffffffffff16815260200190815260200160002060000154612970565b670de0b6b3a76400005b90506000600f60008773ffffffffffffffffffffffffffffffffffffffff1673ffffffffffffffffffffffffffffffffffffffff168152602001908152602001600020905060006129ed670de0b6b3a76400006129df6129d088866166df565b866168d090919063ffffffff16565b61697390919063ffffffff16565b905080955050505050505b919050565b612a05612168565b612a77576040517f08c379a000000000000000000000000000000000000000000000000000000000815260040180806020018281038252600e8152602001807f43616c6c65724e6f744f776e657200000000000000000000000000000000000081525060200191505060405180910390fd5b612a80886169bd565b612a89876169bd565b612a92866169bd565b612a9b856169bd565b612aa4846169bd565b612aad836169bd565b612ab6826169bd565b612abf816169bd565b87600660006101000a81548173ffffffffffffffffffffffffffffffffffffffff021916908373ffffffffffffffffffffffffffffffffffffffff16021790555086600760006101000a81548173ffffffffffffffffffffffffffffffffffffffff021916908373ffffffffffffffffffffffffffffffffffffffff16021790555085600160006101000a81548173ffffffffffffffffffffffffffffffffffffffff021916908373ffffffffffffffffffffffffffffffffffffffff16021790555084600860006101000a81548173ffffffffffffffffffffffffffffffffffffffff021916908373ffffffffffffffffffffffffffffffffffffffff16021790555083600a60006101000a81548173ffffffffffffffffffffffffffffffffffffffff021916908373ffffffffffffffffffffffffffffffffffffffff16021790555082600960006101000a81548173ffffffffffffffffffffffffffffffffffffffff021916908373ffffffffffffffffffffffffffffffffffffffff160217905550816000806101000a81548173ffffffffffffffffffffffffffffffffffffffff021916908373ffffffffffffffffffffffffffffffffffffffff16021790555080600460006101000a81548173ffffffffffffffffffffffffffffffffffffffff021916908373ffffffffffffffffffffffffffffffffffffffff16021790555081600560006101000a81548173ffffffffffffffffffffffffffffffffffffffff021916908373ffffffffffffffffffffffffffffffffffffffff1602179055507f3ca631ffcd2a9b5d9ae18543fc82f58eb4ca33af9e6ab01b7a8e95331e6ed98588604051808273ffffffffffffffffffffffffffffffffffffffff1673ffffffffffffffffffffffffffffffffffffffff16815260200191505060405180910390a17f143219c9e69b09e07e095fcc889b43d8f46ca892bba65f08dc3a0050869a567887604051808273ffffffffffffffffffffffffffffffffffffffff1673ffffffffffffffffffffffffffffffffffffffff16815260200191505060405180910390a17f78f058b189175430c48dc02699e3a0031ea4ff781536dc2fab847de4babdd88286604051808273ffffffffffffffffffffffffffffffffffffffff1673ffffffffffffffffffffffffffffffffffffffff16815260200191505060405180910390a17fb2e7c6a0c14ee871d9807bbf49baf717d1d32f12d375f78593a5dbbb55c69efd85604051808273ffffffffffffffffffffffffffffffffffffffff1673ffffffffffffffffffffffffffffffffffffffff16815260200191505060405180910390a17f65f4cf077bc01e4742eb5ad98326f6e95b63548ea24b17f8d5e823111fe7880084604051808273ffffffffffffffffffffffffffffffffffffffff1673ffffffffffffffffffffffffffffffffffffffff16815260200191505060405180910390a17f3055265812fb8447b9ada4a5d804ec43bd528ec40e89c952bbc7b85dc5ac681183604051808273ffffffffffffffffffffffffffffffffffffffff1673ffffffffffffffffffffffffffffffffffffffff16815260200191505060405180910390a1612f61616ae1565b5050505050505050565b600080601160008473ffffffffffffffffffffffffffffffffffffffff1673ffffffffffffffffffffffffffffffffffffffff1681526020019081526020016000205490506000811415612fc357600091505061301b565b6000601260008573ffffffffffffffffffffffffffffffffffffffff1673ffffffffffffffffffffffffffffffffffffffff168152602001908152602001600020905060006130128383614b82565b90508093505050505b919050565b613028616ba2565b601860009080600181540180825580915050600190039060005260206000200160009091909190915055600c600001819080600181540180825580915050600190039060005260206000200160009091909190916101000a81548173ffffffffffffffffffffffffffffffffffffffff021916908373ffffffffffffffffffffffffffffffffffffffff160217905550600c6001016000908060018154018082558091505060019003906000526020600020016000909190919091505550565b60195481565b60056103e8670de0b6b3a76400008161310357fe5b040281565b60175481565b6000600b54905090565b600e6020528060005260406000206000915090508060000154908060010160009054906101000a900473ffffffffffffffffffffffffffffffffffffffff16905082565b60008060009054906101000a900473ffffffffffffffffffffffffffffffffffffffff1673ffffffffffffffffffffffffffffffffffffffff166397a4b9f7836000015184602001516040518363ffffffff1660e01b8152600401808060200180602001838103835285818151815260200191508051906020019060200280838360005b838110156131fb5780820151818401526020810190506131e0565b50505050905001838103825284818151815260200191508051906020019060200280838360005b8381101561323d578082015181840152602081019050613222565b5050505090500194505050505060206040518083038186803b15801561326257600080fd5b505afa158015613276573d6000803e3d6000fd5b505050506040513d602081101561328c57600080fd5b81019080805190602001909291905050509050919050565b6000600a60009054906101000a900473ffffffffffffffffffffffffffffffffffffffff1673ffffffffffffffffffffffffffffffffffffffff16634d6228316040518163ffffffff1660e01b815260040160206040518083038186803b15801561330e57600080fd5b505afa158015613322573d6000803e3d6000fd5b505050506040513d602081101561333857600080fd5b810190808051906020019092919050505090506000600760009054906101000a900473ffffffffffffffffffffffffffffffffffffffff1673ffffffffffffffffffffffffffffffffffffffff166327fb7d89836040518263ffffffff1660e01b8152600401808273ffffffffffffffffffffffffffffffffffffffff1673ffffffffffffffffffffffffffffffffffffffff16815260200191505060206040518083038186803b1580156133ec57600080fd5b505afa158015613400573d6000803e3d6000fd5b505050506040513d602081101561341657600080fd5b81019080805190602001909291905050509050670f43fc2c04ee00008110156134a7576040517f08c379a00000000000000000000000000000000000000000000000000000000081526004018080602001828103825260208152602001807f53503a4e6f205769746864726177207768656e2074726f76654943523c4d435281525060200191505060405180910390fd5b5050565b6000811415613522576040517f08c379a000000000000000000000000000000000000000000000000000000000815260040180806020018281038252601b8152602001807f53503a2072657175697265206e6f6e7a65726f206465706f736974000000000081525060200191505060405180910390fd5b50565b60008173ffffffffffffffffffffffffffffffffffffffff166377e704be6040518163ffffffff1660e01b8152600401602060405180830381600087803b15801561356f57600080fd5b505af1158015613583573d6000803e3d6000fd5b505050506040513d602081101561359957600080fd5b810190808051906020019092919050505090506135b581616c02565b5050565b60008183106135c857816135ca565b825b905092915050565b600061361483836040518060400160405280600c81526020017f737562206f766572666c6f770000000000000000000000000000000000000000815250616f2b565b905092915050565b600073ffffffffffffffffffffffffffffffffffffffff168173ffffffffffffffffffffffffffffffffffffffff161461374c57600061365b826126d6565b90508373ffffffffffffffffffffffffffffffffffffffff1663a3e1283183836040518363ffffffff1660e01b8152600401808373ffffffffffffffffffffffffffffffffffffffff1673ffffffffffffffffffffffffffffffffffffffff16815260200182815260200192505050600060405180830381600087803b1580156136e457600080fd5b505af11580156136f8573d6000803e3d6000fd5b505050508173ffffffffffffffffffffffffffffffffffffffff167f4d57ed1a27bc7c81d36b4891fe8e6f4b8035f0b21aab7ccb99293f232b2e5f64826040518082815260200191505060405180910390a2505b600061375783612827565b90508373ffffffffffffffffffffffffffffffffffffffff1663a3e1283184836040518363ffffffff1660e01b8152600401808373ffffffffffffffffffffffffffffffffffffffff1673ffffffffffffffffffffffffffffffffffffffff16815260200182815260200192505050600060405180830381600087803b1580156137e057600080fd5b505af11580156137f4573d6000803e3d6000fd5b505050508273ffffffffffffffffffffffffffffffffffffffff167f283eace5421c660f1c1cf940c022fe784faa10388a8d72fa5de89a3d0a17a654826040518082815260200191505060405180910390a250505050565b80601160008473ffffffffffffffffffffffffffffffffffffffff1673ffffffffffffffffffffffffffffffffffffffff16815260200190815260200160002081905550600081141561398e57601260008373ffffffffffffffffffffffffffffffffffffffff1673ffffffffffffffffffffffffffffffffffffffff1681526020019081526020016000206000600182016000905560028201600090556003820160006101000a8154906fffffffffffffffffffffffffffffffff02191690556003820160106101000a8154906fffffffffffffffffffffffffffffffff021916905550508173ffffffffffffffffffffffffffffffffffffffff167fbb1322f85cc7cc8bac4e172a5bc5dcc0c1959007f9a030032abf9258205f0e45600080604051808381526020018281526020019250505060405180910390a2613c27565b6000601460009054906101000a90046fffffffffffffffffffffffffffffffff1690506000601460109054906101000a90046fffffffffffffffffffffffffffffffff16905060006013549050600060166000846fffffffffffffffffffffffffffffffff166fffffffffffffffffffffffffffffffff1681526020019081526020016000206000856fffffffffffffffffffffffffffffffff166fffffffffffffffffffffffffffffffff16815260200190815260200160002054905081601260008873ffffffffffffffffffffffffffffffffffffffff1673ffffffffffffffffffffffffffffffffffffffff1681526020019081526020016000206001018190555080601260008873ffffffffffffffffffffffffffffffffffffffff1673ffffffffffffffffffffffffffffffffffffffff1681526020019081526020016000206002018190555083601260008873ffffffffffffffffffffffffffffffffffffffff1673ffffffffffffffffffffffffffffffffffffffff16815260200190815260200160002060030160006101000a8154816fffffffffffffffffffffffffffffffff02191690836fffffffffffffffffffffffffffffffff16021790555082601260008873ffffffffffffffffffffffffffffffffffffffff1673ffffffffffffffffffffffffffffffffffffffff16815260200190815260200160002060030160106101000a8154816fffffffffffffffffffffffffffffffff02191690836fffffffffffffffffffffffffffffffff1602179055508573ffffffffffffffffffffffffffffffffffffffff167fbb1322f85cc7cc8bac4e172a5bc5dcc0c1959007f9a030032abf9258205f0e458383604051808381526020018281526020019250505060405180910390a2505050505b5050565b6000811415613c3957613d38565b600860009054906101000a900473ffffffffffffffffffffffffffffffffffffffff1673ffffffffffffffffffffffffffffffffffffffff166320c582be3084846040518463ffffffff1660e01b8152600401808473ffffffffffffffffffffffffffffffffffffffff1673ffffffffffffffffffffffffffffffffffffffff1681526020018373ffffffffffffffffffffffffffffffffffffffff1673ffffffffffffffffffffffffffffffffffffffff1681526020018281526020019350505050600060405180830381600087803b158015613d1657600080fd5b505af1158015613d2a573d6000803e3d6000fd5b50505050613d3781616feb565b5b5050565b80600e60008473ffffffffffffffffffffffffffffffffffffffff1673ffffffffffffffffffffffffffffffffffffffff1681526020019081526020016000206000018190555060008114156141c857600e60008373ffffffffffffffffffffffffffffffffffffffff1673ffffffffffffffffffffffffffffffffffffffff16815260200190815260200160002060010160006101000a81549073ffffffffffffffffffffffffffffffffffffffff021916905560606000809054906101000a900473ffffffffffffffffffffffffffffffffffffffff1673ffffffffffffffffffffffffffffffffffffffff16639d6aea0a6040518163ffffffff1660e01b815260040160006040518083038186803b158015613e5a57600080fd5b505afa158015613e6e573d6000803e3d6000fd5b505050506040513d6000823e3d601f19601f820116820180604052506020811015613e9857600080fd5b8101908080516040519392919084640100000000821115613eb857600080fd5b83820191506020820185811115613ece57600080fd5b8251866020820283011164010000000082111715613eeb57600080fd5b8083526020830192505050908051906020019060200280838360005b83811015613f22578082015181840152602081019050613f07565b50505050905001604052505050905060008151905060005b81811015613fe5576000600f60008773ffffffffffffffffffffffffffffffffffffffff1673ffffffffffffffffffffffffffffffffffffffff1681526020019081526020016000206000016000858481518110613f9457fe5b602002602001015173ffffffffffffffffffffffffffffffffffffffff1673ffffffffffffffffffffffffffffffffffffffff16815260200190815260200160002081905550806001019050613f3a565b506000600f60008673ffffffffffffffffffffffffffffffffffffffff1673ffffffffffffffffffffffffffffffffffffffff168152602001908152602001600020600101819055506000600f60008673ffffffffffffffffffffffffffffffffffffffff1673ffffffffffffffffffffffffffffffffffffffff168152602001908152602001600020600201819055506000600f60008673ffffffffffffffffffffffffffffffffffffffff1673ffffffffffffffffffffffffffffffffffffffff16815260200190815260200160002060030160106101000a8154816fffffffffffffffffffffffffffffffff02191690836fffffffffffffffffffffffffffffffff1602179055506000600f60008673ffffffffffffffffffffffffffffffffffffffff1673ffffffffffffffffffffffffffffffffffffffff16815260200190815260200160002060030160006101000a8154816fffffffffffffffffffffffffffffffff02191690836fffffffffffffffffffffffffffffffff1602179055508373ffffffffffffffffffffffffffffffffffffffff167fc48943df4095f4f20d171fd2872eafdc0eed4d9014ac3672f3bde7fd425449d5600080604051808381526020018281526020019250505060405180910390a2505061470c565b6000601460009054906101000a90046fffffffffffffffffffffffffffffffff1690506000601460109054906101000a90046fffffffffffffffffffffffffffffffff1690506000601354905060606000809054906101000a900473ffffffffffffffffffffffffffffffffffffffff1673ffffffffffffffffffffffffffffffffffffffff16639d6aea0a6040518163ffffffff1660e01b815260040160006040518083038186803b15801561427e57600080fd5b505afa158015614292573d6000803e3d6000fd5b505050506040513d6000823e3d601f19601f8201168201806040525060208110156142bc57600080fd5b81019080805160405193929190846401000000008211156142dc57600080fd5b838201915060208201858111156142f257600080fd5b825186602082028301116401000000008211171561430f57600080fd5b8083526020830192505050908051906020019060200280838360005b8381101561434657808201518184015260208101905061432b565b50505050905001604052505050905060008151905060005b818110156144bd57600083828151811061437457fe5b602002602001015190506000601560008373ffffffffffffffffffffffffffffffffffffffff1673ffffffffffffffffffffffffffffffffffffffff1681526020019081526020016000206000886fffffffffffffffffffffffffffffffff166fffffffffffffffffffffffffffffffff1681526020019081526020016000206000896fffffffffffffffffffffffffffffffff166fffffffffffffffffffffffffffffffff16815260200190815260200160002054905080600f60008c73ffffffffffffffffffffffffffffffffffffffff1673ffffffffffffffffffffffffffffffffffffffff16815260200190815260200160002060000160008473ffffffffffffffffffffffffffffffffffffffff1673ffffffffffffffffffffffffffffffffffffffff16815260200190815260200160002081905550505080600101905061435e565b50600060166000866fffffffffffffffffffffffffffffffff166fffffffffffffffffffffffffffffffff1681526020019081526020016000206000876fffffffffffffffffffffffffffffffff166fffffffffffffffffffffffffffffffff16815260200190815260200160002054905083600f60008a73ffffffffffffffffffffffffffffffffffffffff1673ffffffffffffffffffffffffffffffffffffffff1681526020019081526020016000206001018190555080600f60008a73ffffffffffffffffffffffffffffffffffffffff1673ffffffffffffffffffffffffffffffffffffffff1681526020019081526020016000206002018190555085600f60008a73ffffffffffffffffffffffffffffffffffffffff1673ffffffffffffffffffffffffffffffffffffffff16815260200190815260200160002060030160006101000a8154816fffffffffffffffffffffffffffffffff02191690836fffffffffffffffffffffffffffffffff16021790555084600f60008a73ffffffffffffffffffffffffffffffffffffffff1673ffffffffffffffffffffffffffffffffffffffff16815260200190815260200160002060030160106101000a8154816fffffffffffffffffffffffffffffffff02191690836fffffffffffffffffffffffffffffffff1602179055508773ffffffffffffffffffffffffffffffffffffffff167fc48943df4095f4f20d171fd2872eafdc0eed4d9014ac3672f3bde7fd425449d58583604051808381526020018281526020019250505060405180910390a25050505050505b5050565b6000825190508151811461478c576040517f08c379a00000000000000000000000000000000000000000000000000000000081526004018080602001828103825260128152602001807f53503a4c656e677468206d69736d61746368000000000000000000000000000081525060200191505060405180910390fd5b60005b81811015614a655760008382815181106147a557fe5b6020026020010151905060008114156147be5750614a5a565b60008583815181106147cc57fe5b602002602001015190506000809054906101000a900473ffffffffffffffffffffffffffffffffffffffff1673ffffffffffffffffffffffffffffffffffffffff1663495ee13e826040518263ffffffff1660e01b8152600401808273ffffffffffffffffffffffffffffffffffffffff1673ffffffffffffffffffffffffffffffffffffffff16815260200191505060206040518083038186803b15801561487457600080fd5b505afa158015614888573d6000803e3d6000fd5b505050506040513d602081101561489e57600080fd5b810190808051906020019092919050505015614a2b578073ffffffffffffffffffffffffffffffffffffffff1663ca70560a30846040518363ffffffff1660e01b8152600401808373ffffffffffffffffffffffffffffffffffffffff1673ffffffffffffffffffffffffffffffffffffffff16815260200182815260200192505050600060405180830381600087803b15801561493b57600080fd5b505af115801561494f573d6000803e3d6000fd5b505050508073ffffffffffffffffffffffffffffffffffffffff1663261c80b63089856040518463ffffffff1660e01b8152600401808473ffffffffffffffffffffffffffffffffffffffff1673ffffffffffffffffffffffffffffffffffffffff1681526020018373ffffffffffffffffffffffffffffffffffffffff1673ffffffffffffffffffffffffffffffffffffffff1681526020018281526020019350505050600060405180830381600087803b158015614a0e57600080fd5b505af1158015614a22573d6000803e3d6000fd5b50505050614a57565b614a5687838373ffffffffffffffffffffffffffffffffffffffff166170469092919063ffffffff16565b5b50505b80600101905061478f565b50614b63600c60405180604001604052908160008201805480602002602001604051908101604052809291908181526020018280548015614afb57602002820191906000526020600020905b8160009054906101000a900473ffffffffffffffffffffffffffffffffffffffff1673ffffffffffffffffffffffffffffffffffffffff1681526020019060010190808311614ab1575b5050505050815260200160018201805480602002602001604051908101604052809291908181526020018280548015614b5357602002820191906000526020600020905b815481526020019060010190808311614b3f575b50505050508152505084846170fe565b600c6001019080519060200190614b7b929190617c73565b5050505050565b6000808260010154905060008360030160009054906101000a90046fffffffffffffffffffffffffffffffff16905060008460030160109054906101000a90046fffffffffffffffffffffffffffffffff169050601460109054906101000a90046fffffffffffffffffffffffffffffffff166fffffffffffffffffffffffffffffffff16816fffffffffffffffffffffffffffffffff161015614c2c5760009350505050614d57565b600080614c7284601460009054906101000a90046fffffffffffffffffffffffffffffffff166fffffffffffffffffffffffffffffffff1661729390919063ffffffff16565b90506000816fffffffffffffffffffffffffffffffff161415614cbd57614cb685614ca86013548b6168d090919063ffffffff16565b61697390919063ffffffff16565b9150614d22565b6001816fffffffffffffffffffffffffffffffff161415614d1c57614d15633b9aca00614d0787614cf96013548d6168d090919063ffffffff16565b61697390919063ffffffff16565b61697390919063ffffffff16565b9150614d21565b600091505b5b614d39633b9aca008961697390919063ffffffff16565b821015614d4e57600095505050505050614d57565b81955050505050505b92915050565b601060008273ffffffffffffffffffffffffffffffffffffffff1673ffffffffffffffffffffffffffffffffffffffff16815260200190815260200160002060010160009054906101000a900460ff1615614e20576040517f08c379a000000000000000000000000000000000000000000000000000000000815260040180806020018281038252601f8152602001807f53503a2046726f6e74656e6420616c726561647920726567697374657265640081525060200191505060405180910390fd5b50565b6000600e60008373ffffffffffffffffffffffffffffffffffffffff1673ffffffffffffffffffffffffffffffffffffffff16815260200190815260200160002060000154905060008114614ee0576040517f08c379a000000000000000000000000000000000000000000000000000000000815260040180806020018281038252601d8152602001807f53503a2055736572206d7573742068617665206e6f206465706f73697400000081525060200191505060405180910390fd5b5050565b670de0b6b3a7640000811115614f62576040517f08c379a00000000000000000000000000000000000000000000000000000000081526004018080602001828103825260188152602001807f53503a496e76616c6964204b69636b6261636b2072617465000000000000000081525060200191505060405180910390fd5b50565b601060008273ffffffffffffffffffffffffffffffffffffffff1673ffffffffffffffffffffffffffffffffffffffff16815260200190815260200160002060010160009054906101000a900460ff1680614fec5750600073ffffffffffffffffffffffffffffffffffffffff168173ffffffffffffffffffffffffffffffffffffffff16145b61505e576040517f08c379a000000000000000000000000000000000000000000000000000000000815260040180806020018281038252601b8152602001807f53503a2046726f6e74656e64206e6f742072656769737465726564000000000081525060200191505060405180910390fd5b50565b60008114156150d8576040517f08c379a000000000000000000000000000000000000000000000000000000000815260040180806020018281038252601b8152602001807f53503a20416d6f756e74206d757374206265206e6f6e2d7a65726f000000000081525060200191505060405180910390fd5b50565b80600e60008473ffffffffffffffffffffffffffffffffffffffff1673ffffffffffffffffffffffffffffffffffffffff16815260200190815260200160002060010160006101000a81548173ffffffffffffffffffffffffffffffffffffffff021916908373ffffffffffffffffffffffffffffffffffffffff1602179055508073ffffffffffffffffffffffffffffffffffffffff168273ffffffffffffffffffffffffffffffffffffffff167f094c08e96a8890877a8390b4f967180a7507ad8622244d05fcd0f9f8e086564e60405160405180910390a35050565b600080828401905083811015615238576040517f08c379a000000000000000000000000000000000000000000000000000000000815260040180806020018281038252600c8152602001807f616464206f766572666c6f77000000000000000000000000000000000000000081525060200191505060405180910390fd5b8091505092915050565b600860009054906101000a900473ffffffffffffffffffffffffffffffffffffffff1673ffffffffffffffffffffffffffffffffffffffff1663bb997bac8330846040518463ffffffff1660e01b8152600401808473ffffffffffffffffffffffffffffffffffffffff1673ffffffffffffffffffffffffffffffffffffffff1681526020018373ffffffffffffffffffffffffffffffffffffffff1673ffffffffffffffffffffffffffffffffffffffff1681526020018281526020019350505050600060405180830381600087803b15801561531f57600080fd5b505af1158015615333573d6000803e3d6000fd5b50505050600061534e82600b546151ba90919063ffffffff16565b905080600b819055507f40cd1125556c7098e27d2e16ebaf979b2dada5ca9498662461848519d8afd935816040518082815260200191505060405180910390a1505050565b600460009054906101000a900473ffffffffffffffffffffffffffffffffffffffff1673ffffffffffffffffffffffffffffffffffffffff163373ffffffffffffffffffffffffffffffffffffffff16146153f1576153f0617323565b5b565b60606000808551905060608167ffffffffffffffff8111801561541557600080fd5b506040519080825280602002602001820160405280156154445781602001602082028036833780820191505090505b5090506000601354905060005b838110156155c45760008060009054906101000a900473ffffffffffffffffffffffffffffffffffffffff1673ffffffffffffffffffffffffffffffffffffffff1663b31610db8c84815181106154a457fe5b60200260200101516040518263ffffffff1660e01b8152600401808273ffffffffffffffffffffffffffffffffffffffff1673ffffffffffffffffffffffffffffffffffffffff16815260200191505060206040518083038186803b15801561550c57600080fd5b505afa158015615520573d6000803e3d6000fd5b505050506040513d602081101561553657600080fd5b810190808051906020019092919050505090506155a06018828154811061555957fe5b9060005260206000200154615592670de0b6b3a76400008d868151811061557c57fe5b60200260200101516168d090919063ffffffff16565b6151ba90919063ffffffff16565b8483815181106155ac57fe5b60200260200101818152505050806001019050615451565b508587111561563b576040517f08c379a00000000000000000000000000000000000000000000000000000000081526004018080602001828103825260208152602001807f53503a546869732064656274206c657373207468616e20746f74616c5355534481525060200191505060405180910390fd5b8587141561565b57670de0b6b3a7640000935060006019819055506156e3565b600061568c60195461567e670de0b6b3a76400008b6168d090919063ffffffff16565b6135d290919063ffffffff16565b90506156b460016156a6898461697390919063ffffffff16565b6151ba90919063ffffffff16565b94506156db816156cd89886168d090919063ffffffff16565b6135d290919063ffffffff16565b601981905550505b875167ffffffffffffffff811180156156fb57600080fd5b5060405190808252806020026020018201604052801561572a5781602001602082028036833780820191505090505b50945060005b8381101561579357615770876157628486858151811061574c57fe5b60200260200101516168d090919063ffffffff16565b61697390919063ffffffff16565b86828151811061577c57fe5b602002602001018181525050806001019050615730565b5060005b838110156159135760008060009054906101000a900473ffffffffffffffffffffffffffffffffffffffff1673ffffffffffffffffffffffffffffffffffffffff1663b31610db8c84815181106157ea57fe5b60200260200101516040518263ffffffff1660e01b8152600401808273ffffffffffffffffffffffffffffffffffffffff1673ffffffffffffffffffffffffffffffffffffffff16815260200191505060206040518083038186803b15801561585257600080fd5b505afa158015615866573d6000803e3d6000fd5b505050506040513d602081101561587c57600080fd5b810190808051906020019092919050505090506158ec6158ca846158bc8b8b87815181106158a657fe5b60200260200101516168d090919063ffffffff16565b61697390919063ffffffff16565b8584815181106158d657fe5b60200260200101516135d290919063ffffffff16565b601882815481106158f957fe5b906000526020600020018190555050806001019050615797565b5050505094509492505050565b600060135490506000670de0b6b3a76400008311156159a7576040517f08c379a00000000000000000000000000000000000000000000000000000000081526004018080602001828103825260108152602001807f53503a20535553444c6f7373203c20310000000000000000000000000000000081525060200191505060405180910390fd5b60006159c484670de0b6b3a76400006135d290919063ffffffff16565b90506000601460009054906101000a90046fffffffffffffffffffffffffffffffff1690506000601460109054906101000a90046fffffffffffffffffffffffffffffffff16905060008851905060005b81811015615c8c5760008a8281518110615a2b57fe5b602002602001015190506000601560008373ffffffffffffffffffffffffffffffffffffffff1673ffffffffffffffffffffffffffffffffffffffff1681526020019081526020016000206000866fffffffffffffffffffffffffffffffff166fffffffffffffffffffffffffffffffff1681526020019081526020016000206000876fffffffffffffffffffffffffffffffff166fffffffffffffffffffffffffffffffff1681526020019081526020016000205490506000615b0b8c8581518110615af457fe5b6020026020010151836151ba90919063ffffffff16565b905080601560008573ffffffffffffffffffffffffffffffffffffffff1673ffffffffffffffffffffffffffffffffffffffff1681526020019081526020016000206000886fffffffffffffffffffffffffffffffff166fffffffffffffffffffffffffffffffff1681526020019081526020016000206000896fffffffffffffffffffffffffffffffff166fffffffffffffffffffffffffffffffff168152602001908152602001600020819055507fe799d8213ffd47c58af0bad222f3f83a7bacf689130d897017d6c2cb9346e8cb8382888a604051808573ffffffffffffffffffffffffffffffffffffffff1673ffffffffffffffffffffffffffffffffffffffff168152602001848152602001836fffffffffffffffffffffffffffffffff166fffffffffffffffffffffffffffffffff168152602001826fffffffffffffffffffffffffffffffff166fffffffffffffffffffffffffffffffff16815260200194505050505060405180910390a1505050806001019050615a15565b506000841415615e3057615cbc6001836fffffffffffffffffffffffffffffffff1661739190919063ffffffff16565b601460106101000a8154816fffffffffffffffffffffffffffffffff02191690836fffffffffffffffffffffffffffffffff1602179055507fb50f0f59e7cb5b421dc77581c3a9919e3806e076e5fa78a874c3f120cb7d874d601460109054906101000a90046fffffffffffffffffffffffffffffffff1660405180826fffffffffffffffffffffffffffffffff166fffffffffffffffffffffffffffffffff16815260200191505060405180910390a16000601460006101000a8154816fffffffffffffffffffffffffffffffff02191690836fffffffffffffffffffffffffffffffff1602179055507f1f9dfc70cd666adb18a39d60a797518f7b4febf4b6e24ef37d44f6e1e7219fbe601460009054906101000a90046fffffffffffffffffffffffffffffffff1660405180826fffffffffffffffffffffffffffffffff166fffffffffffffffffffffffffffffffff16815260200191505060405180910390a1670de0b6b3a76400009450615fba565b633b9aca00615e62670de0b6b3a7640000615e54878a6168d090919063ffffffff16565b61697390919063ffffffff16565b1015615f8957615eab670de0b6b3a7640000615e9d633b9aca00615e8f888b6168d090919063ffffffff16565b6168d090919063ffffffff16565b61697390919063ffffffff16565b9450615ed36001846fffffffffffffffffffffffffffffffff1661739190919063ffffffff16565b601460006101000a8154816fffffffffffffffffffffffffffffffff02191690836fffffffffffffffffffffffffffffffff1602179055507f1f9dfc70cd666adb18a39d60a797518f7b4febf4b6e24ef37d44f6e1e7219fbe601460009054906101000a90046fffffffffffffffffffffffffffffffff1660405180826fffffffffffffffffffffffffffffffff166fffffffffffffffffffffffffffffffff16815260200191505060405180910390a1615fb9565b615fb6670de0b6b3a7640000615fa886896168d090919063ffffffff16565b61697390919063ffffffff16565b94505b5b6000851415616031576040517f08c379a00000000000000000000000000000000000000000000000000000000081526004018080602001828103825260098152602001807f53503a2050203d2030000000000000000000000000000000000000000000000081525060200191505060405180910390fd5b846013819055507fc1a9618cb59ebca77cbdbc2949f126823c407ff13edb285fd0262519a9c18e8c856040518082815260200191505060405180910390a1505050505050505050565b6000600160009054906101000a900473ffffffffffffffffffffffffffffffffffffffff1690508073ffffffffffffffffffffffffffffffffffffffff1663eae6f908836040518263ffffffff1660e01b815260040180828152602001915050600060405180830381600087803b1580156160f457600080fd5b505af1158015616108573d6000803e3d6000fd5b5050505061611582616feb565b600860009054906101000a900473ffffffffffffffffffffffffffffffffffffffff1673ffffffffffffffffffffffffffffffffffffffff16639dc29fac30846040518363ffffffff1660e01b8152600401808373ffffffffffffffffffffffffffffffffffffffff1673ffffffffffffffffffffffffffffffffffffffff16815260200182815260200192505050600060405180830381600087803b1580156161be57600080fd5b505af11580156161d2573d6000803e3d6000fd5b505050508073ffffffffffffffffffffffffffffffffffffffff1663d0d8c20d3086866040518463ffffffff1660e01b8152600401808473ffffffffffffffffffffffffffffffffffffffff1673ffffffffffffffffffffffffffffffffffffffff1681526020018060200180602001838103835285818151815260200191508051906020019060200280838360005b8381101561627d578082015181840152602081019050616262565b50505050905001838103825284818151815260200191508051906020019060200280838360005b838110156162bf5780820151818401526020810190506162a4565b5050505090500195505050505050600060405180830381600087803b1580156162e757600080fd5b505af11580156162fb573d6000803e3d6000fd5b5050505050505050565b6060806000809054906101000a900473ffffffffffffffffffffffffffffffffffffffff1673ffffffffffffffffffffffffffffffffffffffff16639d6aea0a6040518163ffffffff1660e01b815260040160006040518083038186803b15801561636f57600080fd5b505afa158015616383573d6000803e3d6000fd5b505050506040513d6000823e3d601f19601f8201168201806040525060208110156163ad57600080fd5b81019080805160405193929190846401000000008211156163cd57600080fd5b838201915060208201858111156163e357600080fd5b825186602082028301116401000000008211171561640057600080fd5b8083526020830192505050908051906020019060200280838360005b8381101561643757808201518184015260208101905061641c565b5050505090500160405250505091506000825190508067ffffffffffffffff8111801561646357600080fd5b506040519080825280602002602001820160405280156164925781602001602082028036833780820191505090505b50915060005b818110156164e1576164be86868684815181106164b157fe5b6020026020010151617420565b8382815181106164ca57fe5b602002602001018181525050806001019050616498565b50509250929050565b600160009054906101000a900473ffffffffffffffffffffffffffffffffffffffff1673ffffffffffffffffffffffffffffffffffffffff163373ffffffffffffffffffffffffffffffffffffffff161461654857616547617323565b5b565b606060008251141561656257836020015190506166d8565b606061657185602001516176fd565b905060008451905060005b818110156166d15760008060009054906101000a900473ffffffffffffffffffffffffffffffffffffffff1673ffffffffffffffffffffffffffffffffffffffff1663b31610db8884815181106165cf57fe5b60200260200101516040518263ffffffff1660e01b8152600401808273ffffffffffffffffffffffffffffffffffffffff1673ffffffffffffffffffffffffffffffffffffffff16815260200191505060206040518083038186803b15801561663757600080fd5b505afa15801561664b573d6000803e3d6000fd5b505050506040513d602081101561666157600080fd5b810190808051906020019092919050505090506166ad86838151811061668357fe5b602002602001015185838151811061669757fe5b60200260200101516151ba90919063ffffffff16565b8482815181106166b957fe5b6020026020010181815250505080600101905061657c565b5081925050505b9392505050565b6000808260030160109054906101000a90046fffffffffffffffffffffffffffffffff16905060008360030160009054906101000a90046fffffffffffffffffffffffffffffffff16905060008460020154905060008560010154905060006167bd8360166000886fffffffffffffffffffffffffffffffff166fffffffffffffffffffffffffffffffff1681526020019081526020016000206000876fffffffffffffffffffffffffffffffff166fffffffffffffffffffffffffffffffff168152602001908152602001600020546135d290919063ffffffff16565b90506000616869633b9aca0060166000896fffffffffffffffffffffffffffffffff166fffffffffffffffffffffffffffffffff168152602001908152602001600020600061682860018a6fffffffffffffffffffffffffffffffff1661739190919063ffffffff16565b6fffffffffffffffffffffffffffffffff166fffffffffffffffffffffffffffffffff1681526020019081526020016000205461697390919063ffffffff16565b905060006168be670de0b6b3a76400006168b0866168a261689387896151ba90919063ffffffff16565b8f6168d090919063ffffffff16565b61697390919063ffffffff16565b61697390919063ffffffff16565b90508097505050505050505092915050565b6000808314156168e3576000905061696d565b60008284029050828482816168f457fe5b0414616968576040517f08c379a000000000000000000000000000000000000000000000000000000000815260040180806020018281038252600c8152602001807f6d756c206f766572666c6f77000000000000000000000000000000000000000081525060200191505060405180910390fd5b809150505b92915050565b60006169b583836040518060400160405280600881526020017f646976206279203000000000000000000000000000000000000000000000000081525061779d565b905092915050565b600073ffffffffffffffffffffffffffffffffffffffff168173ffffffffffffffffffffffffffffffffffffffff161415616a60576040517f08c379a000000000000000000000000000000000000000000000000000000000815260040180806020018281038252601e8152602001807f4163636f756e742063616e6e6f74206265207a65726f2061646472657373000081525060200191505060405180910390fd5b6000813b90506000811415616add576040517f08c379a00000000000000000000000000000000000000000000000000000000081526004018080602001828103825260208152602001807f4163636f756e7420636f64652073697a652063616e6e6f74206265207a65726f81525060200191505060405180910390fd5b5050565b600073ffffffffffffffffffffffffffffffffffffffff16600360009054906101000a900473ffffffffffffffffffffffffffffffffffffffff1673ffffffffffffffffffffffffffffffffffffffff167f8be0079c531659141344cd1fd0a4f28419497f9722a3daafe3b4186f6b6457e060405160405180910390a36000600360006101000a81548173ffffffffffffffffffffffffffffffffffffffff021916908373ffffffffffffffffffffffffffffffffffffffff160217905550565b600560009054906101000a900473ffffffffffffffffffffffffffffffffffffffff1673ffffffffffffffffffffffffffffffffffffffff163373ffffffffffffffffffffffffffffffffffffffff1614616c0057616bff617323565b5b565b6000600b5490506000811480616c185750600082145b15616c235750616f28565b6000616c2f8383617864565b90506000616c48601354836168d090919063ffffffff16565b9050616d058160166000601460109054906101000a90046fffffffffffffffffffffffffffffffff166fffffffffffffffffffffffffffffffff166fffffffffffffffffffffffffffffffff1681526020019081526020016000206000601460009054906101000a90046fffffffffffffffffffffffffffffffff166fffffffffffffffffffffffffffffffff166fffffffffffffffffffffffffffffffff168152602001908152602001600020546151ba90919063ffffffff16565b60166000601460109054906101000a90046fffffffffffffffffffffffffffffffff166fffffffffffffffffffffffffffffffff166fffffffffffffffffffffffffffffffff1681526020019081526020016000206000601460009054906101000a90046fffffffffffffffffffffffffffffffff166fffffffffffffffffffffffffffffffff166fffffffffffffffffffffffffffffffff168152602001908152602001600020819055507f2d6127771b164a9cc8827d24b5955db2a77e7a81dac389107ebb8bce9fb6496860166000601460109054906101000a90046fffffffffffffffffffffffffffffffff166fffffffffffffffffffffffffffffffff166fffffffffffffffffffffffffffffffff1681526020019081526020016000206000601460009054906101000a90046fffffffffffffffffffffffffffffffff166fffffffffffffffffffffffffffffffff166fffffffffffffffffffffffffffffffff16815260200190815260200160002054601460109054906101000a90046fffffffffffffffffffffffffffffffff16601460009054906101000a90046fffffffffffffffffffffffffffffffff1660405180848152602001836fffffffffffffffffffffffffffffffff166fffffffffffffffffffffffffffffffff168152602001826fffffffffffffffffffffffffffffffff166fffffffffffffffffffffffffffffffff168152602001935050505060405180910390a15050505b50565b6000838311158290616fd8576040517f08c379a00000000000000000000000000000000000000000000000000000000081526004018080602001828103825283818151815260200191508051906020019080838360005b83811015616f9d578082015181840152602081019050616f82565b50505050905090810190601f168015616fca5780820380516001836020036101000a031916815260200191505b509250505060405180910390fd5b5060008385039050809150509392505050565b600061700282600b546135d290919063ffffffff16565b905080600b819055507f40cd1125556c7098e27d2e16ebaf979b2dada5ca9498662461848519d8afd935816040518082815260200191505060405180910390a15050565b6170f98363a9059cbb60e01b8484604051602401808373ffffffffffffffffffffffffffffffffffffffff1673ffffffffffffffffffffffffffffffffffffffff16815260200182815260200192505050604051602081830303815290604052907bffffffffffffffffffffffffffffffffffffffffffffffffffffffff19166020820180517bffffffffffffffffffffffffffffffffffffffffffffffffffffffff83818316178352505050506178e5565b505050565b6060600083511415617116578360200151905061728c565b606061712585602001516176fd565b905060008451905060005b818110156172855760008060009054906101000a900473ffffffffffffffffffffffffffffffffffffffff1673ffffffffffffffffffffffffffffffffffffffff1663b31610db88848151811061718357fe5b60200260200101516040518263ffffffff1660e01b8152600401808273ffffffffffffffffffffffffffffffffffffffff1673ffffffffffffffffffffffffffffffffffffffff16815260200191505060206040518083038186803b1580156171eb57600080fd5b505afa1580156171ff573d6000803e3d6000fd5b505050506040513d602081101561721557600080fd5b8101908080519060200190929190505050905061726186838151811061723757fe5b602002602001015185838151811061724b57fe5b60200260200101516135d290919063ffffffff16565b84828151811061726d57fe5b60200260200101818152505050806001019050617130565b5081925050505b9392505050565b6000826fffffffffffffffffffffffffffffffff16826fffffffffffffffffffffffffffffffff161115617312576040517f08c379a0000000000000000000000000000000000000000000000000000000008152600401808060200182810382526028815260200180617d366028913960400191505060405180910390fd5b600082840390508091505092915050565b6040517f08c379a000000000000000000000000000000000000000000000000000000000815260040180806020018281038252601f8152602001807f53503a2045787465726e616c2063616c6c6572206e6f7420616c6c6f7765640081525060200191505060405180910390fd5b6000808284019050836fffffffffffffffffffffffffffffffff16816fffffffffffffffffffffffffffffffff161015617416576040517f08c379a0000000000000000000000000000000000000000000000000000000008152600401808060200182810382526025815260200180617d5e6025913960400191505060405180910390fd5b8091505092915050565b6000808360000160008473ffffffffffffffffffffffffffffffffffffffff1673ffffffffffffffffffffffffffffffffffffffff168152602001908152602001600020549050600084600101549050600061756e83601560008873ffffffffffffffffffffffffffffffffffffffff1673ffffffffffffffffffffffffffffffffffffffff16815260200190815260200160002060008960030160109054906101000a90046fffffffffffffffffffffffffffffffff166fffffffffffffffffffffffffffffffff166fffffffffffffffffffffffffffffffff16815260200190815260200160002060008960030160009054906101000a90046fffffffffffffffffffffffffffffffff166fffffffffffffffffffffffffffffffff166fffffffffffffffffffffffffffffffff168152602001908152602001600020546135d290919063ffffffff16565b90506000617697633b9aca00601560008973ffffffffffffffffffffffffffffffffffffffff1673ffffffffffffffffffffffffffffffffffffffff16815260200190815260200160002060008a60030160109054906101000a90046fffffffffffffffffffffffffffffffff166fffffffffffffffffffffffffffffffff166fffffffffffffffffffffffffffffffff168152602001908152602001600020600061765660018c60030160009054906101000a90046fffffffffffffffffffffffffffffffff166fffffffffffffffffffffffffffffffff1661739190919063ffffffff16565b6fffffffffffffffffffffffffffffffff166fffffffffffffffffffffffffffffffff1681526020019081526020016000205461697390919063ffffffff16565b905060006176ec670de0b6b3a76400006176de866176d06176c187896151ba90919063ffffffff16565b8e6168d090919063ffffffff16565b61697390919063ffffffff16565b61697390919063ffffffff16565b905080955050505050509392505050565b606060008251905060608167ffffffffffffffff8111801561771e57600080fd5b5060405190808252806020026020018201604052801561774d5781602001602082028036833780820191505090505b50905060005b828110156177925784818151811061776757fe5b602002602001015182828151811061777b57fe5b602002602001018181525050806001019050617753565b508092505050919050565b600080831415829061784a576040517f08c379a00000000000000000000000000000000000000000000000000000000081526004018080602001828103825283818151815260200191508051906020019080838360005b8381101561780f5780820151818401526020810190506177f4565b50505050905090810190601f16801561783c5780820380516001836020036101000a031916815260200191505b509250505060405180910390fd5b50600083858161785657fe5b049050809150509392505050565b600080617896601754617888670de0b6b3a7640000876168d090919063ffffffff16565b6151ba90919063ffffffff16565b905060006178ad848361697390919063ffffffff16565b90506178d46178c585836168d090919063ffffffff16565b836135d290919063ffffffff16565b601781905550809250505092915050565b6060617947826040518060400160405280602081526020017f5361666545524332303a206c6f772d6c6576656c2063616c6c206661696c65648152508573ffffffffffffffffffffffffffffffffffffffff166179d39092919063ffffffff16565b905060008151146179ce5780806020019051602081101561796757600080fd5b81019080805190602001909291905050506179cd576040517f08c379a000000000000000000000000000000000000000000000000000000000815260040180806020018281038252602a815260200180617d0c602a913960400191505060405180910390fd5b5b505050565b60606179e284846000856179eb565b90509392505050565b606082471015617a46576040517f08c379a0000000000000000000000000000000000000000000000000000000008152600401808060200182810382526026815260200180617ce66026913960400191505060405180910390fd5b617a4f85617b94565b617ac1576040517f08c379a000000000000000000000000000000000000000000000000000000000815260040180806020018281038252601d8152602001807f416464726573733a2063616c6c20746f206e6f6e2d636f6e747261637400000081525060200191505060405180910390fd5b600060608673ffffffffffffffffffffffffffffffffffffffff1685876040518082805190602001908083835b60208310617b115780518252602082019150602081019050602083039250617aee565b6001836020036101000a03801982511681845116808217855250505050505090500191505060006040518083038185875af1925050503d8060008114617b73576040519150601f19603f3d011682016040523d82523d6000602084013e617b78565b606091505b5091509150617b88828286617ba8565b92505050949350505050565b600080823b90506000811415915050919050565b60608315617bb857829050617c6c565b6000835114617bca5782518084602001fd5b816040517f08c379a00000000000000000000000000000000000000000000000000000000081526004018080602001828103825283818151815260200191508051906020019080838360005b83811015617c31578082015181840152602081019050617c16565b50505050905090810190601f168015617c5e5780820380516001836020036101000a031916815260200191505b509250505060405180910390fd5b9392505050565b828054828255906000526020600020908101928215617caf579160200282015b82811115617cae578251825591602001919060010190617c93565b5b509050617cbc9190617cc0565b5090565b617ce291905b80821115617cde576000816000905550600101617cc6565b5090565b9056fe416464726573733a20696e73756666696369656e742062616c616e636520666f722063616c6c5361666545524332303a204552433230206f7065726174696f6e20646964206e6f7420737563636565644c697175697479536166654d6174683132383a207375627472616374696f6e206f766572666c6f774c697175697479536166654d6174683132383a206164646974696f6e206f766572666c6f77a26469706673582212202b3d8cb66733f0a303f5de65938816a4aef41b7cf2b5fe5296f6cb1e1e3c9c1264736f6c634300060b0033",
  "immutableReferences": {},
  "source": "// SPDX-License-Identifier: UNLICENSED\n\npragma solidity 0.6.11;\n\nimport \"../Interfaces/IBorrowerOperations.sol\";\nimport \"../Interfaces/IStabilityPool.sol\";\nimport \"../Interfaces/IBorrowerOperations.sol\";\nimport \"../Interfaces/ITroveManager.sol\";\nimport \"../Interfaces/ISUSDToken.sol\";\nimport \"../Interfaces/ISortedTroves.sol\";\nimport \"../Interfaces/ICommunityIssuance.sol\";\nimport \"../Interfaces/IWhitelist.sol\";\nimport \"../Interfaces/IERC20.sol\";\nimport \"../Interfaces/IWAsset.sol\";\nimport \"../Dependencies/PoolBase.sol\";\nimport \"../Dependencies/SafeMath.sol\";\nimport \"../Dependencies/LiquitySafeMath128.sol\";\nimport \"../Dependencies/Ownable.sol\";\nimport \"../Dependencies/CheckContract.sol\";\nimport \"../Dependencies/SafeERC20.sol\";\n\n\n/*\n * The Stability Pool holds SUSD tokens deposited by Stability Pool depositors.\n *\n * When a trove is liquidated, then depending on system conditions, some of its SUSD debt gets offset with\n * YUSD in the Stability Pool: that is, the offset debt evaporates, and an equal amount of YUSD tokens in the Stability Pool is burned.\n *\n * Thus, a liquidation causes each depositor to receive a YUSD loss, in proportion to their deposit as a share of total deposits.\n * They also receive an Collateral gain, as the amount of collateral of the liquidated trove is distributed among Stability depositors,\n * in the same proportion.\n *\n * When a liquidation occurs, it depletes every deposit by the same fraction: for example, a liquidation that depletes 40%\n * of the total YUSD in the Stability Pool, depletes 40% of each deposit.\n *\n * A deposit that has experienced a series of liquidations is termed a \"compounded deposit\": each liquidation depletes the deposit,\n * multiplying it by some factor in range ]0,1[\n *\n *\n * --- IMPLEMENTATION ---\n *\n * We use a highly scalable method of tracking deposits and Collateral gains that has O(1) complexity.\n *\n * When a liquidation occurs, rather than updating each depositor's deposit and Collateral gain, we simply update two state variables:\n * a product P, and a sum S. These are kept track for each type of collateral.\n *\n * A mathematical manipulation allows us to factor out the initial deposit, and accurately track all depositors' compounded deposits\n * and accumulated Collateral amount gains over time, as liquidations occur, using just these two variables P and S. When depositors join the\n * Stability Pool, they get a snapshot of the latest P and S: P_t and S_t, respectively.\n *\n * The formula for a depositor's accumulated Collateral amount gain is derived here:\n * https://github.com/liquity/dev/blob/main/packages/contracts/mathProofs/Scalable%20Compounding%20Stability%20Pool%20Deposits.pdf\n *\n * For a given deposit d_t, the ratio P/P_t tells us the factor by which a deposit has decreased since it joined the Stability Pool,\n * and the term d_t * (S - S_t)/P_t gives us the deposit's total accumulated Collateral amount gain.\n *\n * Each liquidation updates the product P and sum S. After a series of liquidations, a compounded deposit and corresponding Collateral amount gain\n * can be calculated using the initial deposit, the depositors snapshots of P and S, and the latest values of P and S.\n *\n * Any time a depositor updates their deposit (withdrawal, top-up) their accumulated Collateral amount gain is paid out, their new deposit is recorded\n * (based on their latest compounded deposit and modified by the withdrawal/top-up), and they receive new snapshots of the latest P and S.\n * Essentially, they make a fresh deposit that overwrites the old one.\n *\n *\n * --- SCALE FACTOR ---\n *\n * Since P is a running product in range ]0,1] that is always-decreasing, it should never reach 0 when multiplied by a number in range ]0,1[.\n * Unfortunately, Solidity floor division always reaches 0, sooner or later.\n *\n * A series of liquidations that nearly empty the Pool (and thus each multiply P by a very small number in range ]0,1[ ) may push P\n * to its 18 digit decimal limit, and round it to 0, when in fact the Pool hasn't been emptied: this would break deposit tracking.\n *\n * So, to track P accurately, we use a scale factor: if a liquidation would cause P to decrease to <1e-9 (and be rounded to 0 by Solidity),\n * we first multiply P by 1e9, and increment a currentScale factor by 1.\n *\n * The added benefit of using 1e9 for the scale factor (rather than 1e18) is that it ensures negligible precision loss close to the\n * scale boundary: when P is at its minimum value of 1e9, the relative precision loss in P due to floor division is only on the\n * order of 1e-9.\n *\n * --- EPOCHS ---\n *\n * Whenever a liquidation fully empties the Stability Pool, all deposits should become 0. However, setting P to 0 would make P be 0\n * forever, and break all future reward calculations.\n *\n * So, every time the Stability Pool is emptied by a liquidation, we reset P = 1 and currentScale = 0, and increment the currentEpoch by 1.\n *\n * --- TRACKING DEPOSIT OVER SCALE CHANGES AND EPOCHS ---\n *\n * When a deposit is made, it gets snapshots of the currentEpoch and the currentScale.\n *\n * When calculating a compounded deposit, we compare the current epoch to the deposit's epoch snapshot. If the current epoch is newer,\n * then the deposit was present during a pool-emptying liquidation, and necessarily has been depleted to 0.\n *\n * Otherwise, we then compare the current scale to the deposit's scale snapshot. If they're equal, the compounded deposit is given by d_t * P/P_t.\n * If it spans one scale change, it is given by d_t * P/(P_t * 1e9). If it spans more than one scale change, we define the compounded deposit\n * as 0, since it is now less than 1e-9'th of its initial value (e.g. a deposit of 1 billion YUSD has depleted to < 1 YUSD).\n *\n *\n *  --- TRACKING DEPOSITOR'S COLLATERAL AMOUNT GAIN OVER SCALE CHANGES AND EPOCHS ---\n *\n * In the current epoch, the latest value of S is stored upon each scale change, and the mapping (scale -> S) is stored for each epoch.\n *\n * This allows us to calculate a deposit's accumulated Collateral amount gain, during the epoch in which the deposit was non-zero and earned Collateral amount.\n *\n * We calculate the depositor's accumulated Collateral amount gain for the scale at which they made the deposit, using the Collateral amount gain formula:\n * e_1 = d_t * (S - S_t) / P_t\n *\n * and also for scale after, taking care to divide the latter by a factor of 1e9:\n * e_2 = d_t * S / (P_t * 1e9)\n *\n * The gain in the second scale will be full, as the starting point was in the previous scale, thus no need to subtract anything.\n * The deposit therefore was present for reward events from the beginning of that second scale.\n *\n *        S_i-S_t + S_{i+1}\n *      .<--------.------------>\n *      .         .\n *      . S_i     .   S_{i+1}\n *   <--.-------->.<----------->\n *   S_t.         .\n *   <->.         .\n *      t         .\n *  |---+---------|-------------|-----...\n *         i            i+1\n *\n * The sum of (e_1 + e_2) captures the depositor's total accumulated Collateral amount gain, handling the case where their\n * deposit spanned one scale change. We only care about gains across one scale change, since the compounded\n * deposit is defined as being 0 once it has spanned more than one scale change.\n *\n *\n * --- UPDATING P WHEN A LIQUIDATION OCCURS ---\n *\n * Please see the implementation spec in the proof document, which closely follows on from the compounded deposit / Collateral amount gain derivations:\n * https://github.com/liquity/liquity/blob/master/papers/Scalable_Reward_Distribution_with_Compounding_Stakes.pdf\n *\n *\n * --- YETI ISSUANCE TO STABILITY POOL DEPOSITORS ---\n *\n * An YETI issuance event occurs at every deposit operation, and every liquidation.\n *\n * Each deposit is tagged with the address of the front end through which it was made.\n *\n * All deposits earn a share of the issued YETI in proportion to the deposit as a share of total deposits. The YETI earned\n * by a given deposit, is split between the depositor and the front end through which the deposit was made, based on the front end's kickbackRate.\n *\n * Please see the system Readme for an overview:\n * https://github.com/liquity/dev/blob/main/README.md#yeti-issuance-to-stability-providers\n *\n * We use the same mathematical product-sum approach to track YETI gains for depositors, where 'G' is the sum corresponding to YETI gains.\n * The product P (and snapshot P_t) is re-used, as the ratio P/P_t tracks a deposit's depletion due to liquidations.\n *\n */\ncontract StabilityPool is PoolBase, Ownable, CheckContract, IStabilityPool {\n    using LiquitySafeMath128 for uint128;\n    using SafeERC20 for IERC20;\n\n    string public constant NAME = \"StabilityPool\";\n\n    address internal troveManagerLiquidationsAddress;\n    address internal whitelistAddress;\n\n    IBorrowerOperations internal borrowerOperations;\n    ITroveManager internal troveManager;\n    ISUSDToken internal susdToken;\n    ICommunityIssuance internal communityIssuance;\n    // Needed to check if there are pending liquidations\n    ISortedTroves internal sortedTroves;\n\n    // Tracker for YUSD held in the pool. Changes when users deposit/withdraw, and when Trove debt is offset.\n    uint256 internal totalSUSDDeposits;\n\n    // totalColl.tokens and totalColl.amounts should be the same length and always be the same length\n    // as whitelist.validCollaterals(). Anytime a new collateral is added to whitelist\n    // both lists are lengthened\n    newColls internal totalColl;\n\n    // --- Data structures ---\n\n    struct FrontEnd {\n        uint256 kickbackRate;\n        bool registered;\n    }\n\n    struct Deposit {\n        uint256 initialValue;\n        address frontEndTag;\n    }\n\n    struct Snapshots {\n        mapping(address => uint256) S;\n        uint256 P;\n        uint256 G;\n        uint128 scale;\n        uint128 epoch;\n    }\n\n    mapping(address => Deposit) public deposits; // depositor address -> Deposit struct\n\n    /* depositSnapshots maintains an entry for each depositor\n     * that tracks P, S, G, scale, and epoch.\n     * depositor's snapshot is updated only when they\n     * deposit or withdraw from stability pool\n     * depositSnapshots are used to allocate YETI rewards, calculate compoundedYUSDDepositAmount\n     * and to calculate how much Collateral amount the depositor is entitled to\n     */\n    mapping(address => Snapshots) public depositSnapshots; // depositor address -> snapshots struct\n\n    mapping(address => FrontEnd) public frontEnds; // front end address -> FrontEnd struct\n    mapping(address => uint256) public frontEndStakes; // front end address -> last recorded total deposits, tagged with that front end\n    mapping(address => Snapshots) public frontEndSnapshots; // front end address -> snapshots struct\n\n    /*  Product 'P': Running product by which to multiply an initial deposit, in order to find the current compounded deposit,\n     * after a series of liquidations have occurred, each of which cancel some YUSD debt with the deposit.\n     *\n     * During its lifetime, a deposit's value evolves from d_t to d_t * P / P_t , where P_t\n     * is the snapshot of P taken at the instant the deposit was made. 18-digit decimal.\n     */\n    uint256 public P = DECIMAL_PRECISION;\n\n    uint256 public constant SCALE_FACTOR = 1e9;\n\n    // Each time the scale of P shifts by SCALE_FACTOR, the scale is incremented by 1\n    uint128 public currentScale;\n\n    // With each offset that fully empties the Pool, the epoch is incremented by 1\n    uint128 public currentEpoch;\n\n    /* Collateral amount Gain sum 'S': During its lifetime, each deposit d_t earns an Collateral amount gain of ( d_t * [S - S_t] )/P_t,\n     * where S_t is the depositor's snapshot of S taken at the time t when the deposit was made.\n     *\n     * The 'S' sums are stored in a nested mapping (epoch => scale => sum):\n     *\n     * - The inner mapping records the sum S at different scales\n     * - The middle mapping records the (scale => sum) mappings, for different epochs.\n     * - The outer mapping records the (collateralType => (epoch => (scale => sum)) mappings\n     */\n    mapping(address => mapping(uint128 => mapping(uint128 => uint256))) public epochToScaleToSum;\n\n    /*\n     * Similarly, the sum 'G' is used to calculate YETI gains. During it's lifetime, each deposit d_t earns a YETI gain of\n     *  ( d_t * [G - G_t] )/P_t, where G_t is the depositor's snapshot of G taken at time t when  the deposit was made.\n     *\n     *  YETI reward events occur are triggered by depositor operations (new deposit, topup, withdrawal), and liquidations.\n     *  In each case, the YETI reward is issued (i.e. G is updated), before other state changes are made.\n     */\n    mapping(uint128 => mapping(uint128 => uint256)) public epochToScaleToG;\n\n    // Error tracker for the error correction in the YETI issuance calculation\n    uint256 public lastSTBError;\n    // Error trackers for the error correction in the offset calculation\n    uint256[] public lastAssetError_Offset;\n    uint256 public lastSUSDLossError_Offset;\n\n    // --- Events ---\n\n    event StabilityPoolBalanceUpdated(address[] assets, uint256[] amounts);\n    event StabilityPoolBalancesUpdated(address[] assets, uint256[] amounts);\n    event StabilityPoolSUSDBalanceUpdated(uint256 _newBalance);\n\n    event BorrowerOperationsAddressChanged(address _newBorrowerOperationsAddress);\n    event TroveManagerAddressChanged(address _newTroveManagerAddress);\n    event ActivePoolAddressChanged(address _newActivePoolAddress);\n    event DefaultPoolAddressChanged(address _newDefaultPoolAddress);\n    event SUSDTokenAddressChanged(address _newSUSDTokenAddress);\n    event SortedTrovesAddressChanged(address _newSortedTrovesAddress);\n    event CommunityIssuanceAddressChanged(address _newCommunityIssuanceAddress);\n\n    event P_Updated(uint256 _P);\n    event S_Updated(address _asset, uint256 _S, uint128 _epoch, uint128 _scale);\n    event G_Updated(uint256 _G, uint128 _epoch, uint128 _scale);\n    event EpochUpdated(uint128 _currentEpoch);\n    event ScaleUpdated(uint128 _currentScale);\n\n    event FrontEndRegistered(address indexed _frontEnd, uint256 _kickbackRate);\n    event FrontEndTagSet(address indexed _depositor, address indexed _frontEnd);\n\n    event DepositSnapshotUpdated(address indexed _depositor, uint256 _P, uint256 _G);\n    event FrontEndSnapshotUpdated(address indexed _frontEnd, uint256 _P, uint256 _G);\n    event UserDepositChanged(address indexed _depositor, uint256 _newDeposit);\n    event FrontEndStakeChanged(\n        address indexed _frontEnd,\n        uint256 _newFrontEndStake,\n        address _depositor\n    );\n\n    event GainsWithdrawn(\n        address indexed _depositor,\n        address[] collaterals,\n        uint256[] _amounts,\n        uint256 _SUSDLoss\n    );\n    event STBPaidToDepositor(address indexed _depositor, uint256 _STB);\n    event STBPaidToFrontEnd(address indexed _frontEnd, uint256 _STB);\n    event CollateralSent(address _to, address[] _collaterals, uint256[] _amounts);\n\n    // --- Contract setters ---\n\n    function setAddresses(\n        address _borrowerOperationsAddress,\n        address _troveManagerAddress,\n        address _activePoolAddress,\n        address _susdTokenAddress,\n        address _sortedTrovesAddress,\n        address _communityIssuanceAddress,\n        address _whitelistAddress,\n        address _troveManagerLiquidationsAddress\n    ) external override onlyOwner {\n        checkContract(_borrowerOperationsAddress);\n        checkContract(_troveManagerAddress);\n        checkContract(_activePoolAddress);\n        checkContract(_susdTokenAddress);\n        checkContract(_sortedTrovesAddress);\n        checkContract(_communityIssuanceAddress);\n        checkContract(_whitelistAddress);\n        checkContract(_troveManagerLiquidationsAddress);\n\n        borrowerOperations = IBorrowerOperations(_borrowerOperationsAddress);\n        troveManager = ITroveManager(_troveManagerAddress);\n        activePool = IActivePool(_activePoolAddress);\n        susdToken = ISUSDToken(_susdTokenAddress);\n        sortedTroves = ISortedTroves(_sortedTrovesAddress);\n        communityIssuance = ICommunityIssuance(_communityIssuanceAddress);\n        whitelist = IWhitelist(_whitelistAddress);\n\n        troveManagerLiquidationsAddress = _troveManagerLiquidationsAddress;\n        whitelistAddress = _whitelistAddress;\n\n        emit BorrowerOperationsAddressChanged(_borrowerOperationsAddress);\n        emit TroveManagerAddressChanged(_troveManagerAddress);\n        emit ActivePoolAddressChanged(_activePoolAddress);\n        emit SUSDTokenAddressChanged(_susdTokenAddress);\n        emit SortedTrovesAddressChanged(_sortedTrovesAddress);\n        emit CommunityIssuanceAddressChanged(_communityIssuanceAddress);\n\n        _renounceOwnership();\n    }\n\n    // --- Getters for public variables. Required by IPool interface --- \n\n    // total VC of collateral in Stability Pool\n    function getVC() external view override returns (uint256) {\n        return _getVCColls(totalColl);\n    }\n\n    function getCollateral(address _collateral) external view override returns (uint256) {\n        uint256 collateralIndex = whitelist.getIndex(_collateral);\n        return totalColl.amounts[collateralIndex];\n    }\n\n    /*\n     * Returns all collateral balances in state. Not necessarily the contract's actual balances.\n     */\n    function getAllCollateral() external view override returns (address[] memory, uint256[] memory) {\n        return (totalColl.tokens, totalColl.amounts);\n    }\n\n    function getTotalSUSDDeposits() external view override returns (uint256) {\n        return totalSUSDDeposits;\n    }\n\n    // --- External Depositor Functions ---\n\n    /*  provideToSP():\n     *\n     * - Triggers a YETI issuance, based on time passed since the last issuance. The YETI issuance is shared between *all* depositors and front ends\n     * - Tags the deposit with the provided front end tag param, if it's a new deposit\n     * - Sends depositor's accumulated gains (YETI, collateral assets) to depositor\n     * - Sends the tagged front end's accumulated YETI gains to the tagged front end\n     * - Increases deposit and tagged front end's stake, and takes new snapshots for each.\n     */\n    function provideToSP(uint256 _amount, address _frontEndTag) external override {\n        _requireFrontEndIsRegisteredOrZero(_frontEndTag);\n        _requireFrontEndNotRegistered(msg.sender);\n        _requireNonZeroAmount(_amount);\n\n        uint256 initialDeposit = deposits[msg.sender].initialValue;\n\n        ICommunityIssuance communityIssuanceCached = communityIssuance;\n\n        _triggerSTBIssuance(communityIssuanceCached);\n\n        if (initialDeposit == 0) {\n            _setFrontEndTag(msg.sender, _frontEndTag);\n        }\n        (address[] memory assets, uint256[] memory amounts) = getDepositorGains(msg.sender);\n        uint256 compoundedSUSDDeposit = getCompoundedSUSDDeposit(msg.sender);\n        uint256 SUSDLoss = initialDeposit.sub(compoundedSUSDDeposit); // Needed only for event log\n\n        // First pay out any YETI gains\n        address frontEnd = deposits[msg.sender].frontEndTag;\n        _payOutSTBGains(communityIssuanceCached, msg.sender, frontEnd);\n\n        // Update front end stake:\n        uint256 compoundedFrontEndStake = getCompoundedFrontEndStake(frontEnd);\n        uint256 newFrontEndStake = compoundedFrontEndStake.add(_amount);\n        _updateFrontEndStakeAndSnapshots(frontEnd, newFrontEndStake);\n        emit FrontEndStakeChanged(frontEnd, newFrontEndStake, msg.sender);\n\n        // just pulls YUSD into the pool, updates totalYUSDDeposits variable for the stability pool\n        // and throws an event\n        _sendSUSDtoStabilityPool(msg.sender, _amount);\n\n        uint256 newDeposit = compoundedSUSDDeposit.add(_amount);\n        _updateDepositAndSnapshots(msg.sender, newDeposit);\n        emit UserDepositChanged(msg.sender, newDeposit);\n\n        emit GainsWithdrawn(msg.sender, assets, amounts, SUSDLoss); // YUSD Loss required for event log\n\n        _sendGainsToDepositor(msg.sender, assets, amounts);\n    }\n\n    /*  withdrawFromSP():\n     *\n     * - Triggers a YETI issuance, based on time passed since the last issuance. The YETI issuance is shared between *all* depositors and front ends\n     * - Removes the deposit's front end tag if it is a full withdrawal\n     * - Sends all depositor's accumulated gains (YETI, collateral assets) to depositor\n     * - Sends the tagged front end's accumulated YETI gains to the tagged front end\n     * - Decreases deposit and tagged front end's stake, and takes new snapshots for each.\n     *\n     * If _amount > userDeposit, the user withdraws all of their compounded deposit.\n     */\n    function withdrawFromSP(uint256 _amount) external override {\n        if (_amount != 0) {\n            _requireNoUnderCollateralizedTroves();\n        }\n        uint256 initialDeposit = deposits[msg.sender].initialValue;\n        _requireUserHasDeposit(initialDeposit);\n\n        ICommunityIssuance communityIssuanceCached = communityIssuance;\n\n        _triggerSTBIssuance(communityIssuanceCached);\n\n        (address[] memory assets, uint256[] memory amounts) = getDepositorGains(msg.sender);\n\n        uint256 compoundedSUSDDeposit = getCompoundedSUSDDeposit(msg.sender);\n\n        uint256 SUSDtoWithdraw = LiquityMath._min(_amount, compoundedSUSDDeposit);\n        uint256 SUSDLoss = initialDeposit.sub(compoundedSUSDDeposit); // Needed only for event log\n\n        // First pay out any YETI gains\n        address frontEnd = deposits[msg.sender].frontEndTag;\n        _payOutSTBGains(communityIssuanceCached, msg.sender, frontEnd);\n\n        // Update front end stake\n        uint256 compoundedFrontEndStake = getCompoundedFrontEndStake(frontEnd);\n        uint256 newFrontEndStake = compoundedFrontEndStake.sub(SUSDtoWithdraw);\n        _updateFrontEndStakeAndSnapshots(frontEnd, newFrontEndStake);\n        emit FrontEndStakeChanged(frontEnd, newFrontEndStake, msg.sender);\n\n        _sendSUSDToDepositor(msg.sender, SUSDtoWithdraw);\n\n        // Update deposit\n        uint256 newDeposit = compoundedSUSDDeposit.sub(SUSDtoWithdraw);\n        _updateDepositAndSnapshots(msg.sender, newDeposit);\n        emit UserDepositChanged(msg.sender, newDeposit);\n\n        emit GainsWithdrawn(msg.sender, assets, amounts, SUSDLoss); // YUSD Loss required for event log\n\n        _sendGainsToDepositor(msg.sender, assets, amounts);\n    }\n\n    // --- YETI issuance functions ---\n\n    function _triggerSTBIssuance(ICommunityIssuance _communityIssuance) internal {\n        uint256 STBIssuance = _communityIssuance.issueSTB();\n        _updateG(STBIssuance);\n    }\n\n    function _updateG(uint256 _STBIssuance) internal {\n        uint256 totalSUSD = totalSUSDDeposits; // cached to save an SLOAD\n        /*\n         * When total deposits is 0, G is not updated. In this case, the YETI issued can not be obtained by later\n         * depositors - it is missed out on, and remains in the balanceof the CommunityIssuance contract.\n         *\n         */\n        if (totalSUSD == 0 || _STBIssuance == 0) {\n            return;\n        }\n\n        uint256 STBPerUnitStaked = _computeSTBPerUnitStaked(_STBIssuance, totalSUSD);\n\n        uint256 marginalSTBGain = STBPerUnitStaked.mul(P);\n        epochToScaleToG[currentEpoch][currentScale] = epochToScaleToG[currentEpoch][currentScale]\n            .add(marginalSTBGain);\n\n        emit G_Updated(epochToScaleToG[currentEpoch][currentScale], currentEpoch, currentScale);\n    }\n\n    function _computeSTBPerUnitStaked(uint256 _STBIssuance, uint256 _totalSUSDDeposits)\n        internal\n        returns (uint256)\n    {\n        /*\n         * Calculate the YETI-per-unit staked.  Division uses a \"feedback\" error correction, to keep the\n         * cumulative error low in the running total G:\n         *\n         * 1) Form a numerator which compensates for the floor division error that occurred the last time this\n         * function was called.\n         * 2) Calculate \"per-unit-staked\" ratio.\n         * 3) Multiply the ratio back by its denominator, to reveal the current floor division error.\n         * 4) Store this error for use in the next correction when this function is called.\n         * 5) Note: static analysis tools complain about this \"division before multiplication\", however, it is intended.\n         */\n        uint256 STBNumerator = _STBIssuance.mul(DECIMAL_PRECISION).add(lastSTBError);\n\n        uint256 STBPerUnitStaked = STBNumerator.div(_totalSUSDDeposits);\n        lastSTBError = STBNumerator.sub(STBPerUnitStaked.mul(_totalSUSDDeposits));\n\n        return STBPerUnitStaked;\n    }\n\n    // --- Liquidation functions ---\n\n    /*\n     * Cancels out the specified debt against the YUSD contained in the Stability Pool (as far as possible)\n     * and transfers the Trove's collateral from ActivePool to StabilityPool.\n     * Only called by liquidation functions in the TroveManager.\n     */\n    function offset(\n        uint256 _debtToOffset,\n        address[] memory _tokens,\n        uint256[] memory _amountsAdded\n    ) external override {\n        _requireCallerIsTML();\n        uint256 totalSUSD = totalSUSDDeposits; // cached to save an SLOAD\n        if (totalSUSD == 0 || _debtToOffset == 0) {\n            return;\n        }\n\n        _triggerSTBIssuance(communityIssuance);\n\n        (\n            uint256[] memory AssetGainPerUnitStaked,\n            uint256 SUSDLossPerUnitStaked\n        ) = _computeRewardsPerUnitStaked(_tokens, _amountsAdded, _debtToOffset, totalSUSD);\n\n        _updateRewardSumAndProduct(_tokens, AssetGainPerUnitStaked, SUSDLossPerUnitStaked); // updates S and P\n        _moveOffsetCollAndDebt(_tokens, _amountsAdded, _debtToOffset);\n    }\n\n    // --- Offset helper functions ---\n\n\n    /*\n    * Compute the YUSD and Collateral amount rewards. Uses a \"feedback\" error correction, to keep\n    * the cumulative error in the P and S state variables low:\n    *\n    * 1) Form numerators which compensate for the floor division errors that occurred the last time this\n    * function was called.\n    * 2) Calculate \"per-unit-staked\" ratios.\n    * 3) Multiply each ratio back by its denominator, to reveal the current floor division error.\n    * 4) Store these errors for use in the next correction when this function is called.\n    * 5) Note: static analysis tools complain about this \"division before multiplication\", however, it is intended.\n    */\n    function _computeRewardsPerUnitStaked(\n        address[] memory _tokens,\n        uint256[] memory _amountsAdded,\n        uint256 _debtToOffset,\n        uint256 _totalSUSDDeposits\n    ) internal returns (uint256[] memory AssetGainPerUnitStaked, uint256 SUSDLossPerUnitStaked) {\n        uint256 amountsLen = _amountsAdded.length;\n        uint256[] memory CollateralNumerators = new uint256[](amountsLen);\n        uint256 currentP = P;\n\n        for (uint256 i; i < amountsLen; ++i) {\n            uint256 tokenIDX = whitelist.getIndex(_tokens[i]);\n            CollateralNumerators[i] = _amountsAdded[i].mul(DECIMAL_PRECISION).add(\n                lastAssetError_Offset[tokenIDX]\n            );\n        }\n\n        require(_debtToOffset <= _totalSUSDDeposits, \"SP:This debt less than totalSUSD\");\n        if (_debtToOffset == _totalSUSDDeposits) {\n            SUSDLossPerUnitStaked = DECIMAL_PRECISION; // When the Pool depletes to 0, so does each deposit\n            lastSUSDLossError_Offset = 0;\n        } else {\n            uint256 SUSDLossNumerator = _debtToOffset.mul(DECIMAL_PRECISION).sub(\n                lastSUSDLossError_Offset\n            );\n            /*\n             * Add 1 to make error in quotient positive. We want \"slightly too much\" YUSD loss,\n             * which ensures the error in any given compoundedYUSDDeposit favors the Stability Pool.\n             */\n            SUSDLossPerUnitStaked = (SUSDLossNumerator.div(_totalSUSDDeposits)).add(1);\n            lastSUSDLossError_Offset = (SUSDLossPerUnitStaked.mul(_totalSUSDDeposits)).sub(\n                SUSDLossNumerator\n            );\n        }\n\n        AssetGainPerUnitStaked = new uint256[](_amountsAdded.length);\n        for (uint256 i; i < amountsLen; ++i) {\n            AssetGainPerUnitStaked[i] = CollateralNumerators[i].mul(currentP).div(_totalSUSDDeposits);\n        }\n\n        for (uint256 i; i < amountsLen; ++i) {\n            uint256 tokenIDX = whitelist.getIndex(_tokens[i]);\n            lastAssetError_Offset[tokenIDX] = CollateralNumerators[i].sub(\n                AssetGainPerUnitStaked[i].mul(_totalSUSDDeposits).div(currentP)\n            );\n        }\n\n    }\n\n    // Update the Stability Pool reward sum S and product P\n    function _updateRewardSumAndProduct(\n        address[] memory _assets,\n        uint256[] memory _AssetGainPerUnitStaked,\n        uint256 _SUSDLossPerUnitStaked\n    ) internal {\n        uint256 currentP = P;\n        uint256 newP;\n\n        require(_SUSDLossPerUnitStaked <= DECIMAL_PRECISION, \"SP: SUSDLoss < 1\");\n        /*\n         * The newProductFactor is the factor by which to change all deposits, due to the depletion of Stability Pool YUSD in the liquidation.\n         * We make the product factor 0 if there was a pool-emptying. Otherwise, it is (1 - YUSDLossPerUnitStaked)\n         */\n        uint256 newProductFactor = uint256(DECIMAL_PRECISION).sub(_SUSDLossPerUnitStaked);\n\n        uint128 currentScaleCached = currentScale;\n        uint128 currentEpochCached = currentEpoch;\n\n        /*\n         * Calculate the new S first, before we update P.\n         * The Collateral amount gain for any given depositor from a liquidation depends on the value of their deposit\n         * (and the value of totalDeposits) prior to the Stability being depleted by the debt in the liquidation.\n         *\n         * Since S corresponds to Collateral amount gain, and P to deposit loss, we update S first.\n         */\n        uint256 assetsLen = _assets.length;\n        for (uint256 i; i < assetsLen; ++i) {\n            address asset = _assets[i];\n            \n            // uint256 marginalAssetGain = _AssetGainPerUnitStaked[i]; only used once, named here for clarity.\n            uint256 currentAssetS = epochToScaleToSum[asset][currentEpochCached][currentScaleCached];\n            uint256 newAssetS = currentAssetS.add(_AssetGainPerUnitStaked[i]);\n\n            epochToScaleToSum[asset][currentEpochCached][currentScaleCached] = newAssetS;\n            emit S_Updated(asset, newAssetS, currentEpochCached, currentScaleCached);\n        }\n\n        // If the Stability Pool was emptied, increment the epoch, and reset the scale and product P\n        if (newProductFactor == 0) {\n            currentEpoch = currentEpochCached.add(1);\n            emit EpochUpdated(currentEpoch);\n            currentScale = 0;\n            emit ScaleUpdated(currentScale);\n            newP = DECIMAL_PRECISION;\n\n            // If multiplying P by a non-zero product factor would reduce P below the scale boundary, increment the scale\n        } else if (currentP.mul(newProductFactor).div(DECIMAL_PRECISION) < SCALE_FACTOR) {\n            newP = currentP.mul(newProductFactor).mul(SCALE_FACTOR).div(DECIMAL_PRECISION);\n            currentScale = currentScaleCached.add(1);\n            emit ScaleUpdated(currentScale);\n        } else {\n            newP = currentP.mul(newProductFactor).div(DECIMAL_PRECISION);\n        }\n\n        require(newP != 0, \"SP: P = 0\");\n        P = newP;\n        emit P_Updated(newP);\n    }\n\n    // Internal function to move offset collateral and debt between pools. \n    function _moveOffsetCollAndDebt(\n        address[] memory _collsToAdd,\n        uint256[] memory _amountsToAdd,\n        uint256 _debtToOffset\n    ) internal {\n        IActivePool activePoolCached = activePool;\n        // Cancel the liquidated YUSD debt with the YUSD in the stability pool\n        activePoolCached.decreaseSUSDDebt(_debtToOffset);\n        _decreaseSUSD(_debtToOffset);\n\n        // Burn the debt that was successfully offset\n        susdToken.burn(address(this), _debtToOffset);\n\n        activePoolCached.sendCollaterals(address(this), _collsToAdd, _amountsToAdd);\n    }\n\n    // Decreases YUSD Stability pool balance. \n    function _decreaseSUSD(uint256 _amount) internal {\n        uint256 newTotalSUSDDeposits = totalSUSDDeposits.sub(_amount);\n        totalSUSDDeposits = newTotalSUSDDeposits;\n        emit StabilityPoolSUSDBalanceUpdated(newTotalSUSDDeposits);\n    }\n\n    // --- Reward calculator functions for depositor and front end ---\n\n    /* Calculates the gains earned by the deposit since its last snapshots were taken.\n     * Given by the formula:  E = d0 * (S - S(0))/P(0)\n     * where S(0) and P(0) are the depositor's snapshots of the sum S and product P, respectively.\n     * d0 is the last recorded deposit value.\n     * returns assets, amounts\n     */\n    function getDepositorGains(address _depositor)\n        public\n        view\n        override\n        returns (address[] memory, uint256[] memory)\n    {\n        uint256 initialDeposit = deposits[_depositor].initialValue;\n\n        if (initialDeposit == 0) {\n            address[] memory emptyAddress = new address[](0);\n            uint256[] memory emptyUint = new uint256[](0);\n            return (emptyAddress, emptyUint);\n        }\n\n        Snapshots storage snapshots = depositSnapshots[_depositor];\n\n        return _calculateGains(initialDeposit, snapshots);\n    }\n\n    // get gains on each possible asset by looping through\n    // assets with _getGainFromSnapshots function\n    function _calculateGains(uint256 initialDeposit, Snapshots storage snapshots)\n        internal\n        view\n        returns (address[] memory assets, uint256[] memory amounts)\n    {\n        assets = whitelist.getValidCollateral();\n        uint256 assetsLen = assets.length;\n        amounts = new uint256[](assetsLen);\n        for (uint256 i; i < assetsLen; ++i) {\n            amounts[i] = _getGainFromSnapshots(initialDeposit, snapshots, assets[i]);\n        }\n    }\n\n    // gets the gain in S for a given asset\n    // for a user who deposited initialDeposit\n    function _getGainFromSnapshots(\n        uint256 initialDeposit,\n        Snapshots storage snapshots,\n        address asset\n    ) internal view returns (uint256) {\n        /*\n         * Grab the sum 'S' from the epoch at which the stake was made. The Collateral amount gain may span up to one scale change.\n         * If it does, the second portion of the Collateral amount gain is scaled by 1e9.\n         * If the gain spans no scale change, the second portion will be 0.\n         */\n        uint256 S_Snapshot = snapshots.S[asset];\n        uint256 P_Snapshot = snapshots.P;\n\n        uint256 firstPortion = epochToScaleToSum[asset][snapshots.epoch][snapshots.scale].sub(\n            S_Snapshot\n        );        \n        uint256 secondPortion = epochToScaleToSum[asset][snapshots.epoch][snapshots.scale.add(1)]\n            .div(SCALE_FACTOR);\n\n        uint256 assetGain = initialDeposit.mul(firstPortion.add(secondPortion)).div(P_Snapshot).div(\n            DECIMAL_PRECISION\n        );\n        \n        return assetGain;\n    }\n\n    /*\n     * Calculate the YETI gain earned by a deposit since its last snapshots were taken.\n     * Given by the formula:  YETI = d0 * (G - G(0))/P(0)\n     * where G(0) and P(0) are the depositor's snapshots of the sum G and product P, respectively.\n     * d0 is the last recorded deposit value.\n     */\n    function getDepositorSTBGain(address _depositor) public view override returns (uint256) {\n        uint256 initialDeposit = deposits[_depositor].initialValue;\n        if (initialDeposit == 0) {\n            return 0;\n        }\n\n        address frontEndTag = deposits[_depositor].frontEndTag;\n\n        /*\n         * If not tagged with a front end, the depositor gets a 100% cut of what their deposit earned.\n         * Otherwise, their cut of the deposit's earnings is equal to the kickbackRate, set by the front end through\n         * which they made their deposit.\n         */\n        uint256 kickbackRate = frontEndTag == address(0)\n            ? DECIMAL_PRECISION\n            : frontEnds[frontEndTag].kickbackRate;\n\n        Snapshots storage snapshots = depositSnapshots[_depositor];\n\n        uint256 STBGain = kickbackRate\n            .mul(_getSTBGainFromSnapshots(initialDeposit, snapshots))\n            .div(DECIMAL_PRECISION);\n\n        return STBGain;\n    }\n\n    /*\n     * Return the YETI gain earned by the front end. Given by the formula:  E = D0 * (G - G(0))/P(0)\n     * where G(0) and P(0) are the depositor's snapshots of the sum G and product P, respectively.\n     *\n     * D0 is the last recorded value of the front end's total tagged deposits.\n     */\n    function getFrontEndSTBGain(address _frontEnd) public view override returns (uint256) {\n        uint256 frontEndStake = frontEndStakes[_frontEnd];\n        if (frontEndStake == 0) {\n            return 0;\n        }\n\n        uint256 kickbackRate = frontEnds[_frontEnd].kickbackRate;\n        uint256 frontEndShare = uint256(DECIMAL_PRECISION).sub(kickbackRate);\n\n        Snapshots storage snapshots = frontEndSnapshots[_frontEnd];\n\n        uint256 STBGain = frontEndShare\n            .mul(_getSTBGainFromSnapshots(frontEndStake, snapshots))\n            .div(DECIMAL_PRECISION);\n        return STBGain;\n    }\n\n    function _getSTBGainFromSnapshots(uint256 initialStake, Snapshots storage snapshots)\n        internal\n        view\n        returns (uint256)\n    {\n        /*\n         * Grab the sum 'G' from the epoch at which the stake was made. The YETI gain may span up to one scale change.\n         * If it does, the second portion of the YETI gain is scaled by 1e9.\n         * If the gain spans no scale change, the second portion will be 0.\n         */\n        uint128 epochSnapshot = snapshots.epoch;\n        uint128 scaleSnapshot = snapshots.scale;\n        uint256 G_Snapshot = snapshots.G;\n        uint256 P_Snapshot = snapshots.P;\n\n        uint256 firstPortion = epochToScaleToG[epochSnapshot][scaleSnapshot].sub(G_Snapshot);\n        uint256 secondPortion = epochToScaleToG[epochSnapshot][scaleSnapshot.add(1)].div(\n            SCALE_FACTOR\n        );\n\n        uint256 STBGain = initialStake.mul(firstPortion.add(secondPortion)).div(P_Snapshot).div(\n            DECIMAL_PRECISION\n        );\n\n        return STBGain;\n    }\n\n    // --- Compounded deposit and compounded front end stake ---\n\n    /*\n     * Return the user's compounded deposit. Given by the formula:  d = d0 * P/P(0)\n     * where P(0) is the depositor's snapshot of the product P, taken when they last updated their deposit.\n     */\n    function getCompoundedSUSDDeposit(address _depositor) public view override returns (uint256) {\n        uint256 initialDeposit = deposits[_depositor].initialValue;\n        if (initialDeposit == 0) {\n            return 0;\n        }\n\n        Snapshots storage snapshots = depositSnapshots[_depositor];\n\n        uint256 compoundedDeposit = _getCompoundedStakeFromSnapshots(initialDeposit, snapshots);\n        return compoundedDeposit;\n    }\n\n    /*\n     * Return the front end's compounded stake. Given by the formula:  D = D0 * P/P(0)\n     * where P(0) is the depositor's snapshot of the product P, taken at the last time\n     * when one of the front end's tagged deposits updated their deposit.\n     *\n     * The front end's compounded stake is equal to the sum of its depositors' compounded deposits.\n     */\n    function getCompoundedFrontEndStake(address _frontEnd) public view override returns (uint256) {\n        uint256 frontEndStake = frontEndStakes[_frontEnd];\n        if (frontEndStake == 0) {\n            return 0;\n        }\n\n        Snapshots storage snapshots = frontEndSnapshots[_frontEnd];\n\n        uint256 compoundedFrontEndStake = _getCompoundedStakeFromSnapshots(frontEndStake, snapshots);\n        return compoundedFrontEndStake;\n    }\n\n    // Internal function, used to calculate compounded deposits and compounded front end stakes.\n    // returns 0 if the snapshots were taken prior to a a pool-emptying event\n    // also returns zero if scaleDiff (currentScale.sub(scaleSnapshot)) is more than 2 or\n    // If the scaleDiff is 0 or 1,\n    // then adjust for changes in P and scale changes to calculate a compoundedStake.\n    // IF the final compoundedStake isn't less than a billionth of the initial stake, return it.this\n    // otherwise, just return 0.\n    function _getCompoundedStakeFromSnapshots(uint256 initialStake, Snapshots storage snapshots)\n        internal\n        view\n        returns (uint256)\n    {\n        uint256 snapshot_P = snapshots.P;\n        uint128 scaleSnapshot = snapshots.scale;\n        uint128 epochSnapshot = snapshots.epoch;\n\n        // If stake was made before a pool-emptying event, then it has been fully cancelled with debt -- so, return 0\n        if (epochSnapshot < currentEpoch) {\n            return 0;\n        }\n\n        uint256 compoundedStake;\n        uint128 scaleDiff = currentScale.sub(scaleSnapshot);\n\n        /* Compute the compounded stake. If a scale change in P was made during the stake's lifetime,\n         * account for it. If more than one scale change was made, then the stake has decreased by a factor of\n         * at least 1e-9 -- so return 0.\n         */\n        if (scaleDiff == 0) {\n            compoundedStake = initialStake.mul(P).div(snapshot_P);\n        } else if (scaleDiff == 1) {\n            compoundedStake = initialStake.mul(P).div(snapshot_P).div(SCALE_FACTOR);\n        } else {\n            // if scaleDiff >= 2\n            compoundedStake = 0;\n        }\n\n        /*\n         * If compounded deposit is less than a billionth of the initial deposit, return 0.\n         *\n         * NOTE: originally, this line was in place to stop rounding errors making the deposit too large. However, the error\n         * corrections should ensure the error in P \"favors the Pool\", i.e. any given compounded deposit should slightly less\n         * than it's theoretical value.\n         *\n         * Thus it's unclear whether this line is still really needed.\n         */\n        if (compoundedStake < initialStake.div(1e9)) {\n            return 0;\n        }\n\n        return compoundedStake;\n    }\n\n    // --- Sender functions for YUSD deposit, Collateral gains and YETI gains ---\n\n    // Transfer the YUSD tokens from the user to the Stability Pool's address, and update its recorded YUSD\n    function _sendSUSDtoStabilityPool(address _address, uint256 _amount) internal {\n        susdToken.sendToPool(_address, address(this), _amount);\n        uint256 newTotalSUSDDeposits = totalSUSDDeposits.add(_amount);\n        totalSUSDDeposits = newTotalSUSDDeposits;\n        emit StabilityPoolSUSDBalanceUpdated(newTotalSUSDDeposits);\n    }\n\n    function _sendGainsToDepositor(\n        address _to,\n        address[] memory assets,\n        uint256[] memory amounts\n    ) internal {\n        uint256 assetsLen = assets.length;\n        require(assetsLen == amounts.length, \"SP:Length mismatch\");\n        for (uint256 i; i < assetsLen; ++i) {\n            uint256 thisAmounts = amounts[i];\n            if (thisAmounts == 0) {\n                continue;\n            }\n            address thisAsset = assets[i];\n            if (whitelist.isWrapped(thisAsset)) {\n                // In this case update the rewards from the treasury to the caller \n                IWAsset(thisAsset).endTreasuryReward(address(this), thisAmounts);\n                // unwrapFor ends the rewards for the caller and transfers the tokens to the _to param. \n                IWAsset(thisAsset).unwrapFor(address(this), _to, thisAmounts);\n            } else {\n                IERC20(thisAsset).safeTransfer(_to, thisAmounts);\n            }\n        }\n        totalColl.amounts = _leftSubColls(totalColl, assets, amounts);\n    }\n\n    // Send YUSD to user and decrease YUSD in Pool\n    function _sendSUSDToDepositor(address _depositor, uint256 SUSDWithdrawal) internal {\n        if (SUSDWithdrawal == 0) {\n            return;\n        }\n\n        susdToken.returnFromPool(address(this), _depositor, SUSDWithdrawal);\n        _decreaseSUSD(SUSDWithdrawal);\n    }\n\n    // --- External Front End functions ---\n\n    // Front end makes a one-time selection of kickback rate upon registering\n    function registerFrontEnd(uint256 _kickbackRate) external override {\n        _requireFrontEndNotRegistered(msg.sender);\n        _requireUserHasNoDeposit(msg.sender);\n        _requireValidKickbackRate(_kickbackRate);\n\n        frontEnds[msg.sender].kickbackRate = _kickbackRate;\n        frontEnds[msg.sender].registered = true;\n\n        emit FrontEndRegistered(msg.sender, _kickbackRate);\n    }\n\n    // --- Stability Pool Deposit Functionality ---\n\n    function _setFrontEndTag(address _depositor, address _frontEndTag) internal {\n        deposits[_depositor].frontEndTag = _frontEndTag;\n        emit FrontEndTagSet(_depositor, _frontEndTag);\n    }\n\n    // if _newValue is zero, delete snapshot for given _depositor and emit event\n    // otherwise, add an entry or update existing entry for _depositor in the depositSnapshots\n    // with current values for P, S, G, scale and epoch and then emit event.\n    function _updateDepositAndSnapshots(address _depositor, uint256 _newValue) internal {\n        deposits[_depositor].initialValue = _newValue;\n\n        if (_newValue == 0) {\n            delete deposits[_depositor].frontEndTag;\n            address[] memory colls = whitelist.getValidCollateral();\n            uint256 collsLen = colls.length;\n            for (uint256 i; i < collsLen; ++i) {\n                depositSnapshots[_depositor].S[colls[i]] = 0;\n            }\n            depositSnapshots[_depositor].P = 0;\n            depositSnapshots[_depositor].G = 0;\n            depositSnapshots[_depositor].epoch = 0;\n            depositSnapshots[_depositor].scale = 0;\n            emit DepositSnapshotUpdated(_depositor, 0, 0);\n            return;\n        }\n        uint128 currentScaleCached = currentScale;\n        uint128 currentEpochCached = currentEpoch;\n        uint256 currentP = P;\n\n        address[] memory allColls = whitelist.getValidCollateral();\n\n        // Get S and G for the current epoch and current scale\n        uint256 allCollsLen = allColls.length;\n        for (uint256 i; i < allCollsLen; ++i) {\n            address token = allColls[i];\n            uint256 currentSForToken = epochToScaleToSum[token][currentEpochCached][\n                currentScaleCached\n            ];\n            depositSnapshots[_depositor].S[token] = currentSForToken;\n        }\n\n        uint256 currentG = epochToScaleToG[currentEpochCached][currentScaleCached];\n\n        // Record new snapshots of the latest running product P, sum S, and sum G, for the depositor\n        depositSnapshots[_depositor].P = currentP;\n        depositSnapshots[_depositor].G = currentG;\n        depositSnapshots[_depositor].scale = currentScaleCached;\n        depositSnapshots[_depositor].epoch = currentEpochCached;\n\n        emit DepositSnapshotUpdated(_depositor, currentP, currentG);\n    }\n\n    function _updateFrontEndStakeAndSnapshots(address _frontEnd, uint256 _newValue) internal {\n        frontEndStakes[_frontEnd] = _newValue;\n\n        if (_newValue == 0) {\n            delete frontEndSnapshots[_frontEnd];\n            emit FrontEndSnapshotUpdated(_frontEnd, 0, 0);\n            return;\n        }\n\n        uint128 currentScaleCached = currentScale;\n        uint128 currentEpochCached = currentEpoch;\n        uint256 currentP = P;\n\n        // Get G for the current epoch and current scale\n        uint256 currentG = epochToScaleToG[currentEpochCached][currentScaleCached];\n\n        // Record new snapshots of the latest running product P and sum G for the front end\n        frontEndSnapshots[_frontEnd].P = currentP;\n        frontEndSnapshots[_frontEnd].G = currentG;\n        frontEndSnapshots[_frontEnd].scale = currentScaleCached;\n        frontEndSnapshots[_frontEnd].epoch = currentEpochCached;\n\n        emit FrontEndSnapshotUpdated(_frontEnd, currentP, currentG);\n    }\n\n    function _payOutSTBGains(\n        ICommunityIssuance _communityIssuance,\n        address _depositor,\n        address _frontEnd\n    ) internal {\n        // Pay out front end's YETI gain\n        if (_frontEnd != address(0)) {\n            uint256 frontEndSTBGain = getFrontEndSTBGain(_frontEnd);\n            _communityIssuance.sendSTB(_frontEnd, frontEndSTBGain);\n            emit STBPaidToFrontEnd(_frontEnd, frontEndSTBGain);\n        }\n\n        // Pay out depositor's YETI gain\n        uint256 depositorSTBGain = getDepositorSTBGain(_depositor);\n        _communityIssuance.sendSTB(_depositor, depositorSTBGain);\n        emit STBPaidToDepositor(_depositor, depositorSTBGain);\n    }\n\n    // --- 'require' functions ---\n\n    function _requireNoUnderCollateralizedTroves() internal view {\n        address lowestTrove = sortedTroves.getLast(); // todo confirm this is ok\n        uint256 ICR = troveManager.getCurrentICR(lowestTrove);\n        require(ICR >= MCR, \"SP:No Withdraw when troveICR<MCR\");\n    }\n\n    function _requireUserHasDeposit(uint256 _initialDeposit) internal pure {\n        require(_initialDeposit != 0, \"SP: require nonzero deposit\");\n    }\n\n    function _requireUserHasNoDeposit(address _address) internal view {\n        uint256 initialDeposit = deposits[_address].initialValue;\n        require(initialDeposit == 0, \"SP: User must have no deposit\");\n    }\n\n    function _requireNonZeroAmount(uint256 _amount) internal pure {\n        require(_amount != 0, \"SP: Amount must be non-zero\");\n    }\n\n    function _requireFrontEndNotRegistered(address _address) internal view {\n        require(\n            !frontEnds[_address].registered,\n            \"SP: Frontend already registered\"\n        );\n    }\n\n    function _requireFrontEndIsRegisteredOrZero(address _address) internal view {\n        require(\n            frontEnds[_address].registered || _address == address(0),\n            \"SP: Frontend not registered\"\n        );\n    }\n\n    function _requireValidKickbackRate(uint256 _kickbackRate) internal pure {\n        require(\n            _kickbackRate <= DECIMAL_PRECISION,\n            \"SP:Invalid Kickback rate\"\n        );\n    }\n\n    function _requireCallerIsWhitelist() internal view {\n        if (msg.sender != whitelistAddress) {\n            _revertWrongFuncCaller();\n        }\n    }\n\n    function _requireCallerIsActivePool() internal view {\n        if (msg.sender != address(activePool)) {\n            _revertWrongFuncCaller();\n        }\n    }\n\n    function _requireCallerIsTML() internal view {\n        if (msg.sender != address(troveManagerLiquidationsAddress)) {\n            _revertWrongFuncCaller();\n        }\n    }\n\n    function _revertWrongFuncCaller() internal pure {\n        revert(\"SP: External caller not allowed\");\n    }\n\n    // Should be called by ActivePool\n    // __after__ collateral is transferred to this contract from Active Pool\n    function receiveCollateral(address[] memory _tokens, uint256[] memory _amounts)\n        external\n        override\n    {\n        _requireCallerIsActivePool();\n        totalColl.amounts = _leftSumColls(totalColl, _tokens, _amounts);\n        emit StabilityPoolBalancesUpdated(_tokens, _amounts);\n    }\n\n    // should be called anytime a collateral is added to whitelist\n    function addCollateralType(address _collateral) external override {\n        _requireCallerIsWhitelist();\n        lastAssetError_Offset.push(0);\n        totalColl.tokens.push(_collateral);\n        totalColl.amounts.push(0);\n    }\n\n    // Gets reward snapshot S for certain collateral and depositor. \n    function getDepositSnapshotS(address _depositor, address _collateral)\n        external\n        view\n        override\n        returns (uint256)\n    {\n        return depositSnapshots[_depositor].S[_collateral];\n    }\n}",
  "sourcePath": "/Users/phaxsam/Core-Stability_Truffle/contracts/StabilityPool.sol",
  "compiler": {
    "name": "solc",
    "version": "0.6.11+commit.5ef660b1.Emscripten.clang"
  },
  "schemaVersion": "3.4.9",
  "updatedAt": "2022-08-15T22:38:51.824Z",
  "devdoc": {
    "kind": "dev",
    "methods": {
      "isOwner()": {
        "details": "Returns true if the caller is the current owner."
      },
      "owner()": {
        "details": "Returns the address of the current owner."
      }
    },
    "version": 1
  },
  "userdoc": {
    "kind": "user",
    "methods": {},
    "version": 1
  }
}