{
  "contractName": "SUSDToken",
  "abi": [
    {
      "inputs": [
        {
          "internalType": "address",
          "name": "_troveManagerAddress",
          "type": "address"
        },
        {
          "internalType": "address",
          "name": "_troveManagerLiquidationsAddress",
          "type": "address"
        },
        {
          "internalType": "address",
          "name": "_troveManagerRedemptionsAddress",
          "type": "address"
        },
        {
          "internalType": "address",
          "name": "_stabilityPoolAddress",
          "type": "address"
        },
        {
          "internalType": "address",
          "name": "_borrowerOperationsAddress",
          "type": "address"
        },
        {
          "internalType": "address",
          "name": "_timelockAddress",
          "type": "address"
        }
      ],
      "stateMutability": "nonpayable",
      "type": "constructor"
    },
    {
      "anonymous": false,
      "inputs": [
        {
          "indexed": true,
          "internalType": "address",
          "name": "owner",
          "type": "address"
        },
        {
          "indexed": true,
          "internalType": "address",
          "name": "spender",
          "type": "address"
        },
        {
          "indexed": false,
          "internalType": "uint256",
          "name": "value",
          "type": "uint256"
        }
      ],
      "name": "Approval",
      "type": "event"
    },
    {
      "anonymous": false,
      "inputs": [
        {
          "indexed": false,
          "internalType": "address",
          "name": "_newBorrowerOperationsAddress",
          "type": "address"
        }
      ],
      "name": "BorrowerOperationsAddressChanged",
      "type": "event"
    },
    {
      "anonymous": false,
      "inputs": [
        {
          "indexed": false,
          "internalType": "address",
          "name": "_user",
          "type": "address"
        },
        {
          "indexed": false,
          "internalType": "uint256",
          "name": "_amount",
          "type": "uint256"
        }
      ],
      "name": "SUSDTokenBalanceUpdated",
      "type": "event"
    },
    {
      "anonymous": false,
      "inputs": [
        {
          "indexed": false,
          "internalType": "address",
          "name": "_newStabilityPoolAddress",
          "type": "address"
        }
      ],
      "name": "StabilityPoolAddressChanged",
      "type": "event"
    },
    {
      "anonymous": false,
      "inputs": [
        {
          "indexed": true,
          "internalType": "address",
          "name": "from",
          "type": "address"
        },
        {
          "indexed": true,
          "internalType": "address",
          "name": "to",
          "type": "address"
        },
        {
          "indexed": false,
          "internalType": "uint256",
          "name": "value",
          "type": "uint256"
        }
      ],
      "name": "Transfer",
      "type": "event"
    },
    {
      "anonymous": false,
      "inputs": [
        {
          "indexed": false,
          "internalType": "address",
          "name": "_troveManagerAddress",
          "type": "address"
        }
      ],
      "name": "TroveManagerAddressChanged",
      "type": "event"
    },
    {
      "anonymous": false,
      "inputs": [
        {
          "indexed": false,
          "internalType": "address",
          "name": "_troveManagerLiquidatorAddress",
          "type": "address"
        }
      ],
      "name": "TroveManagerLiquidatorAddressChanged",
      "type": "event"
    },
    {
      "anonymous": false,
      "inputs": [
        {
          "indexed": false,
          "internalType": "address",
          "name": "_troveManagerRedemptionsAddress",
          "type": "address"
        }
      ],
      "name": "TroveManagerRedemptionsAddressChanged",
      "type": "event"
    },
    {
      "inputs": [
        {
          "internalType": "address",
          "name": "_account",
          "type": "address"
        },
        {
          "internalType": "uint256",
          "name": "_amount",
          "type": "uint256"
        }
      ],
      "name": "mint",
      "outputs": [],
      "stateMutability": "nonpayable",
      "type": "function"
    },
    {
      "inputs": [
        {
          "internalType": "address",
          "name": "_account",
          "type": "address"
        },
        {
          "internalType": "uint256",
          "name": "_amount",
          "type": "uint256"
        }
      ],
      "name": "burn",
      "outputs": [],
      "stateMutability": "nonpayable",
      "type": "function"
    },
    {
      "inputs": [
        {
          "internalType": "address",
          "name": "_sender",
          "type": "address"
        },
        {
          "internalType": "address",
          "name": "_poolAddress",
          "type": "address"
        },
        {
          "internalType": "uint256",
          "name": "_amount",
          "type": "uint256"
        }
      ],
      "name": "sendToPool",
      "outputs": [],
      "stateMutability": "nonpayable",
      "type": "function"
    },
    {
      "inputs": [
        {
          "internalType": "address",
          "name": "_poolAddress",
          "type": "address"
        },
        {
          "internalType": "address",
          "name": "_receiver",
          "type": "address"
        },
        {
          "internalType": "uint256",
          "name": "_amount",
          "type": "uint256"
        }
      ],
      "name": "returnFromPool",
      "outputs": [],
      "stateMutability": "nonpayable",
      "type": "function"
    },
    {
      "inputs": [],
      "name": "totalSupply",
      "outputs": [
        {
          "internalType": "uint256",
          "name": "",
          "type": "uint256"
        }
      ],
      "stateMutability": "view",
      "type": "function"
    },
    {
      "inputs": [
        {
          "internalType": "address",
          "name": "account",
          "type": "address"
        }
      ],
      "name": "balanceOf",
      "outputs": [
        {
          "internalType": "uint256",
          "name": "",
          "type": "uint256"
        }
      ],
      "stateMutability": "view",
      "type": "function"
    },
    {
      "inputs": [
        {
          "internalType": "address",
          "name": "recipient",
          "type": "address"
        },
        {
          "internalType": "uint256",
          "name": "amount",
          "type": "uint256"
        }
      ],
      "name": "transfer",
      "outputs": [
        {
          "internalType": "bool",
          "name": "",
          "type": "bool"
        }
      ],
      "stateMutability": "nonpayable",
      "type": "function"
    },
    {
      "inputs": [
        {
          "internalType": "address",
          "name": "owner",
          "type": "address"
        },
        {
          "internalType": "address",
          "name": "spender",
          "type": "address"
        }
      ],
      "name": "allowance",
      "outputs": [
        {
          "internalType": "uint256",
          "name": "",
          "type": "uint256"
        }
      ],
      "stateMutability": "view",
      "type": "function"
    },
    {
      "inputs": [
        {
          "internalType": "address",
          "name": "spender",
          "type": "address"
        },
        {
          "internalType": "uint256",
          "name": "amount",
          "type": "uint256"
        }
      ],
      "name": "approve",
      "outputs": [
        {
          "internalType": "bool",
          "name": "",
          "type": "bool"
        }
      ],
      "stateMutability": "nonpayable",
      "type": "function"
    },
    {
      "inputs": [
        {
          "internalType": "address",
          "name": "sender",
          "type": "address"
        },
        {
          "internalType": "address",
          "name": "recipient",
          "type": "address"
        },
        {
          "internalType": "uint256",
          "name": "amount",
          "type": "uint256"
        }
      ],
      "name": "transferFrom",
      "outputs": [
        {
          "internalType": "bool",
          "name": "",
          "type": "bool"
        }
      ],
      "stateMutability": "nonpayable",
      "type": "function"
    },
    {
      "inputs": [
        {
          "internalType": "address",
          "name": "spender",
          "type": "address"
        },
        {
          "internalType": "uint256",
          "name": "addedValue",
          "type": "uint256"
        }
      ],
      "name": "increaseAllowance",
      "outputs": [
        {
          "internalType": "bool",
          "name": "",
          "type": "bool"
        }
      ],
      "stateMutability": "nonpayable",
      "type": "function"
    },
    {
      "inputs": [
        {
          "internalType": "address",
          "name": "spender",
          "type": "address"
        },
        {
          "internalType": "uint256",
          "name": "subtractedValue",
          "type": "uint256"
        }
      ],
      "name": "decreaseAllowance",
      "outputs": [
        {
          "internalType": "bool",
          "name": "",
          "type": "bool"
        }
      ],
      "stateMutability": "nonpayable",
      "type": "function"
    },
    {
      "inputs": [],
      "name": "domainSeparator",
      "outputs": [
        {
          "internalType": "bytes32",
          "name": "",
          "type": "bytes32"
        }
      ],
      "stateMutability": "view",
      "type": "function"
    },
    {
      "inputs": [
        {
          "internalType": "address",
          "name": "owner",
          "type": "address"
        },
        {
          "internalType": "address",
          "name": "spender",
          "type": "address"
        },
        {
          "internalType": "uint256",
          "name": "amount",
          "type": "uint256"
        },
        {
          "internalType": "uint256",
          "name": "deadline",
          "type": "uint256"
        },
        {
          "internalType": "uint8",
          "name": "v",
          "type": "uint8"
        },
        {
          "internalType": "bytes32",
          "name": "r",
          "type": "bytes32"
        },
        {
          "internalType": "bytes32",
          "name": "s",
          "type": "bytes32"
        }
      ],
      "name": "permit",
      "outputs": [],
      "stateMutability": "nonpayable",
      "type": "function"
    },
    {
      "inputs": [
        {
          "internalType": "address",
          "name": "owner",
          "type": "address"
        }
      ],
      "name": "nonces",
      "outputs": [
        {
          "internalType": "uint256",
          "name": "",
          "type": "uint256"
        }
      ],
      "stateMutability": "view",
      "type": "function"
    },
    {
      "inputs": [
        {
          "internalType": "address",
          "name": "_newMinter",
          "type": "address"
        }
      ],
      "name": "addValidMinter",
      "outputs": [],
      "stateMutability": "nonpayable",
      "type": "function"
    },
    {
      "inputs": [],
      "name": "name",
      "outputs": [
        {
          "internalType": "string",
          "name": "",
          "type": "string"
        }
      ],
      "stateMutability": "view",
      "type": "function"
    },
    {
      "inputs": [],
      "name": "symbol",
      "outputs": [
        {
          "internalType": "string",
          "name": "",
          "type": "string"
        }
      ],
      "stateMutability": "view",
      "type": "function"
    },
    {
      "inputs": [],
      "name": "decimals",
      "outputs": [
        {
          "internalType": "uint8",
          "name": "",
          "type": "uint8"
        }
      ],
      "stateMutability": "view",
      "type": "function"
    },
    {
      "inputs": [],
      "name": "version",
      "outputs": [
        {
          "internalType": "string",
          "name": "",
          "type": "string"
        }
      ],
      "stateMutability": "view",
      "type": "function"
    },
    {
      "inputs": [],
      "name": "permitTypeHash",
      "outputs": [
        {
          "internalType": "bytes32",
          "name": "",
          "type": "bytes32"
        }
      ],
      "stateMutability": "view",
      "type": "function"
    }
  ],
  "bytecode": "0x6101c06040523480156200001257600080fd5b5060405162002b9038038062002b90833981810160405260c08110156200003857600080fd5b810190808051906020019092919080519060200190929190805190602001909291908051906020019092919080519060200190929190805190602001909291905050506200008c866200055b60201b60201c565b6200009d856200055b60201b60201c565b620000ae846200055b60201b60201c565b620000bf836200055b60201b60201c565b620000d0826200055b60201b60201c565b8573ffffffffffffffffffffffffffffffffffffffff166101008173ffffffffffffffffffffffffffffffffffffffff1660601b815250507f143219c9e69b09e07e095fcc889b43d8f46ca892bba65f08dc3a0050869a567886604051808273ffffffffffffffffffffffffffffffffffffffff1673ffffffffffffffffffffffffffffffffffffffff16815260200191505060405180910390a18473ffffffffffffffffffffffffffffffffffffffff166101208173ffffffffffffffffffffffffffffffffffffffff1660601b815250507ff90f087eb7db65c66e139eef82382936a288b811b1276d1108569e2484118f5085604051808273ffffffffffffffffffffffffffffffffffffffff1673ffffffffffffffffffffffffffffffffffffffff16815260200191505060405180910390a18373ffffffffffffffffffffffffffffffffffffffff166101408173ffffffffffffffffffffffffffffffffffffffff1660601b815250507fa015fe269759ff678ebeb0a5f55330644b1a8f95eba9170688d8ec37fc47d1e484604051808273ffffffffffffffffffffffffffffffffffffffff1673ffffffffffffffffffffffffffffffffffffffff16815260200191505060405180910390a18273ffffffffffffffffffffffffffffffffffffffff166101608173ffffffffffffffffffffffffffffffffffffffff1660601b815250507f82966d27eea39b038ee0fa30cd16532bb24f6e65d31cb58fb227aa5766cdcc7f83604051808273ffffffffffffffffffffffffffffffffffffffff1673ffffffffffffffffffffffffffffffffffffffff16815260200191505060405180910390a18173ffffffffffffffffffffffffffffffffffffffff166101808173ffffffffffffffffffffffffffffffffffffffff1660601b815250506001600460008473ffffffffffffffffffffffffffffffffffffffff1673ffffffffffffffffffffffffffffffffffffffff16815260200190815260200160002060006101000a81548160ff0219169083151502179055507f3ca631ffcd2a9b5d9ae18543fc82f58eb4ca33af9e6ab01b7a8e95331e6ed98582604051808273ffffffffffffffffffffffffffffffffffffffff1673ffffffffffffffffffffffffffffffffffffffff16815260200191505060405180910390a18073ffffffffffffffffffffffffffffffffffffffff166101a08173ffffffffffffffffffffffffffffffffffffffff1660601b8152505060006040518060400160405280600f81526020017f5355534420537461626c65636f696e000000000000000000000000000000000081525080519060200120905060006040518060400160405280600181526020017f31000000000000000000000000000000000000000000000000000000000000008152508051906020012090508160c081815250508060e08181525050620005096200068160201b60201c565b60a08181525050620005467f8b73c3c69bb8fe3d512ecc4cf759cc79239f7b179b0ffacaa9a75d522b39400f60001b83836200068960201b60201c565b60808181525050505050505050505062000716565b600073ffffffffffffffffffffffffffffffffffffffff168173ffffffffffffffffffffffffffffffffffffffff161415620005ff576040517f08c379a000000000000000000000000000000000000000000000000000000000815260040180806020018281038252601e8152602001807f4163636f756e742063616e6e6f74206265207a65726f2061646472657373000081525060200191505060405180910390fd5b6000813b905060008114156200067d576040517f08c379a00000000000000000000000000000000000000000000000000000000081526004018080602001828103825260208152602001807f4163636f756e7420636f64652073697a652063616e6e6f74206265207a65726f81525060200191505060405180910390fd5b5050565b600046905090565b60008383836200069e6200068160201b60201c565b30604051602001808681526020018581526020018481526020018381526020018273ffffffffffffffffffffffffffffffffffffffff1673ffffffffffffffffffffffffffffffffffffffff168152602001955050505050506040516020818303038152906040528051906020012090509392505050565b60805160a05160c05160e0516101005160601c6101205160601c6101405160601c6101605160601c6101805160601c6101a05160601c6123ec620007a460003980611100525080611d8152508061151a5280611e2c528061210d525080611e8252508061156f525080611dd65250806112bd52508061129c52508061121e52508061124d52506123ec6000f3fe608060405234801561001057600080fd5b50600436106101375760003560e01c806370a08231116100b8578063a9059cbb1161007c578063a9059cbb14610697578063bb997bac146106fd578063d505accf1461076b578063dd62ed3e14610804578063e66ff8801461087c578063f698da25146108c057610137565b806370a08231146104b05780637ecebe001461050857806395d89b41146105605780639dc29fac146105e3578063a457c2d71461063157610137565b806323b872dd116100ff57806323b872dd146102cf578063313ce56714610355578063395093511461037957806340c10f19146103df57806354fd4d501461042d57610137565b806306fdde031461013c578063095ea7b3146101bf57806310ce43bd1461022557806318160ddd1461024357806320c582be14610261575b600080fd5b6101446108de565b6040518080602001828103825283818151815260200191508051906020019080838360005b83811015610184578082015181840152602081019050610169565b50505050905090810190601f1680156101b15780820380516001836020036101000a031916815260200191505b509250505060405180910390f35b61020b600480360360408110156101d557600080fd5b81019080803573ffffffffffffffffffffffffffffffffffffffff1690602001909291908035906020019092919050505061091b565b604051808215151515815260200191505060405180910390f35b61022d610932565b6040518082815260200191505060405180910390f35b61024b61095d565b6040518082815260200191505060405180910390f35b6102cd6004803603606081101561027757600080fd5b81019080803573ffffffffffffffffffffffffffffffffffffffff169060200190929190803573ffffffffffffffffffffffffffffffffffffffff16906020019092919080359060200190929190505050610966565b005b61033b600480360360608110156102e557600080fd5b81019080803573ffffffffffffffffffffffffffffffffffffffff169060200190929190803573ffffffffffffffffffffffffffffffffffffffff1690602001909291908035906020019092919050505061097e565b604051808215151515815260200191505060405180910390f35b61035d610a52565b604051808260ff1660ff16815260200191505060405180910390f35b6103c56004803603604081101561038f57600080fd5b81019080803573ffffffffffffffffffffffffffffffffffffffff16906020019092919080359060200190929190505050610a5b565b604051808215151515815260200191505060405180910390f35b61042b600480360360408110156103f557600080fd5b81019080803573ffffffffffffffffffffffffffffffffffffffff16906020019092919080359060200190929190505050610b00565b005b610435610b16565b6040518080602001828103825283818151815260200191508051906020019080838360005b8381101561047557808201518184015260208101905061045a565b50505050905090810190601f1680156104a25780820380516001836020036101000a031916815260200191505b509250505060405180910390f35b6104f2600480360360208110156104c657600080fd5b81019080803573ffffffffffffffffffffffffffffffffffffffff169060200190929190505050610b53565b6040518082815260200191505060405180910390f35b61054a6004803603602081101561051e57600080fd5b81019080803573ffffffffffffffffffffffffffffffffffffffff169060200190929190505050610b9c565b6040518082815260200191505060405180910390f35b610568610be5565b6040518080602001828103825283818151815260200191508051906020019080838360005b838110156105a857808201518184015260208101905061058d565b50505050905090810190601f1680156105d55780820380516001836020036101000a031916815260200191505b509250505060405180910390f35b61062f600480360360408110156105f957600080fd5b81019080803573ffffffffffffffffffffffffffffffffffffffff16906020019092919080359060200190929190505050610c22565b005b61067d6004803603604081101561064757600080fd5b81019080803573ffffffffffffffffffffffffffffffffffffffff16906020019092919080359060200190929190505050610c38565b604051808215151515815260200191505060405180910390f35b6106e3600480360360408110156106ad57600080fd5b81019080803573ffffffffffffffffffffffffffffffffffffffff16906020019092919080359060200190929190505050610cf7565b604051808215151515815260200191505060405180910390f35b6107696004803603606081101561071357600080fd5b81019080803573ffffffffffffffffffffffffffffffffffffffff169060200190929190803573ffffffffffffffffffffffffffffffffffffffff16906020019092919080359060200190929190505050610d17565b005b610802600480360360e081101561078157600080fd5b81019080803573ffffffffffffffffffffffffffffffffffffffff169060200190929190803573ffffffffffffffffffffffffffffffffffffffff1690602001909291908035906020019092919080359060200190929190803560ff1690602001909291908035906020019092919080359060200190929190505050610d2f565b005b6108666004803603604081101561081a57600080fd5b81019080803573ffffffffffffffffffffffffffffffffffffffff169060200190929190803573ffffffffffffffffffffffffffffffffffffffff169060200190929190505050611077565b6040518082815260200191505060405180910390f35b6108be6004803603602081101561089257600080fd5b81019080803573ffffffffffffffffffffffffffffffffffffffff1690602001909291905050506110fe565b005b6108c861121a565b6040518082815260200191505060405180910390f35b60606040518060400160405280600f81526020017f5355534420537461626c65636f696e0000000000000000000000000000000000815250905090565b60006109283384846112e7565b6001905092915050565b60007f6e71edae12b1b97f4d1f60370fef10105fa2faae0126114a169c64845d6126c960001b905090565b60008054905090565b61096e611518565b610979838383611614565b505050565b600061098983611925565b610994848484611614565b610a478433610a428560405180606001604052806028815260200161228c60289139600360008b73ffffffffffffffffffffffffffffffffffffffff1673ffffffffffffffffffffffffffffffffffffffff16815260200190815260200160002060003373ffffffffffffffffffffffffffffffffffffffff1673ffffffffffffffffffffffffffffffffffffffff168152602001908152602001600020546119e69092919063ffffffff16565b6112e7565b600190509392505050565b60006012905090565b6000610af63384610af185600360003373ffffffffffffffffffffffffffffffffffffffff1673ffffffffffffffffffffffffffffffffffffffff16815260200190815260200160002060008973ffffffffffffffffffffffffffffffffffffffff1673ffffffffffffffffffffffffffffffffffffffff16815260200190815260200160002054611aa690919063ffffffff16565b6112e7565b6001905092915050565b610b08611b2e565b610b128282611bd2565b5050565b60606040518060400160405280600181526020017f3100000000000000000000000000000000000000000000000000000000000000815250905090565b6000600260008373ffffffffffffffffffffffffffffffffffffffff1673ffffffffffffffffffffffffffffffffffffffff168152602001908152602001600020549050919050565b6000600160008373ffffffffffffffffffffffffffffffffffffffff1673ffffffffffffffffffffffffffffffffffffffff168152602001908152602001600020549050919050565b60606040518060400160405280600481526020017f5355534400000000000000000000000000000000000000000000000000000000815250905090565b610c2a611d7f565b610c348282611f27565b5050565b6000610ced3384610ce88560405180606001604052806025815260200161239260259139600360003373ffffffffffffffffffffffffffffffffffffffff1673ffffffffffffffffffffffffffffffffffffffff16815260200190815260200160002060008a73ffffffffffffffffffffffffffffffffffffffff1673ffffffffffffffffffffffffffffffffffffffff168152602001908152602001600020546119e69092919063ffffffff16565b6112e7565b6001905092915050565b6000610d0283611925565b610d0d338484611614565b6001905092915050565b610d1f61210b565b610d2a838383611614565b505050565b42841015610da5576040517f08c379a00000000000000000000000000000000000000000000000000000000081526004018080602001828103825260168152602001807f535553443a206578706972656420646561646c696e650000000000000000000081525060200191505060405180910390fd5b6000610daf61121a565b7f6e71edae12b1b97f4d1f60370fef10105fa2faae0126114a169c64845d6126c960001b898989600160008e73ffffffffffffffffffffffffffffffffffffffff1673ffffffffffffffffffffffffffffffffffffffff1681526020019081526020016000206000815480929190600101919050558a604051602001808781526020018673ffffffffffffffffffffffffffffffffffffffff1673ffffffffffffffffffffffffffffffffffffffff1681526020018573ffffffffffffffffffffffffffffffffffffffff1673ffffffffffffffffffffffffffffffffffffffff16815260200184815260200183815260200182815260200196505050505050506040516020818303038152906040528051906020012060405160200180807f190100000000000000000000000000000000000000000000000000000000000081525060020183815260200182815260200192505050604051602081830303815290604052805190602001209050600060018286868660405160008152602001604052604051808581526020018460ff1660ff1681526020018381526020018281526020019450505050506020604051602081039080840390855afa158015610f7c573d6000803e3d6000fd5b5050506020604051035190508873ffffffffffffffffffffffffffffffffffffffff168173ffffffffffffffffffffffffffffffffffffffff161480610fef5750600073ffffffffffffffffffffffffffffffffffffffff168173ffffffffffffffffffffffffffffffffffffffff1614155b611061576040517f08c379a00000000000000000000000000000000000000000000000000000000081526004018080602001828103825260178152602001807f535553443a20696e76616c6964207369676e617475726500000000000000000081525060200191505060405180910390fd5b61106c8989896112e7565b505050505050505050565b6000600360008473ffffffffffffffffffffffffffffffffffffffff1673ffffffffffffffffffffffffffffffffffffffff16815260200190815260200160002060008373ffffffffffffffffffffffffffffffffffffffff1673ffffffffffffffffffffffffffffffffffffffff16815260200190815260200160002054905092915050565b7f000000000000000000000000000000000000000000000000000000000000000073ffffffffffffffffffffffffffffffffffffffff163373ffffffffffffffffffffffffffffffffffffffff16146111bf576040517f08c379a00000000000000000000000000000000000000000000000000000000081526004018080602001828103825260118152602001807f535553443a204e6f7454696d656c6f636b00000000000000000000000000000081525060200191505060405180910390fd5b6001600460008373ffffffffffffffffffffffffffffffffffffffff1673ffffffffffffffffffffffffffffffffffffffff16815260200190815260200160002060006101000a81548160ff02191690831515021790555050565b60007f00000000000000000000000000000000000000000000000000000000000000006112456121b1565b1415611273577f000000000000000000000000000000000000000000000000000000000000000090506112e4565b6112e17f8b73c3c69bb8fe3d512ecc4cf759cc79239f7b179b0ffacaa9a75d522b39400f60001b7f00000000000000000000000000000000000000000000000000000000000000007f00000000000000000000000000000000000000000000000000000000000000006121b9565b90505b90565b600073ffffffffffffffffffffffffffffffffffffffff168373ffffffffffffffffffffffffffffffffffffffff16141561138a576040517f08c379a000000000000000000000000000000000000000000000000000000000815260040180806020018281038252601d8152602001807f5f617070726f76653a206f776e6572206973206164647265737328302900000081525060200191505060405180910390fd5b600073ffffffffffffffffffffffffffffffffffffffff168273ffffffffffffffffffffffffffffffffffffffff16141561142d576040517f08c379a000000000000000000000000000000000000000000000000000000000815260040180806020018281038252601f8152602001807f5f617070726f76653a207370656e64657220697320616464726573732830290081525060200191505060405180910390fd5b80600360008573ffffffffffffffffffffffffffffffffffffffff1673ffffffffffffffffffffffffffffffffffffffff16815260200190815260200160002060008473ffffffffffffffffffffffffffffffffffffffff1673ffffffffffffffffffffffffffffffffffffffff168152602001908152602001600020819055508173ffffffffffffffffffffffffffffffffffffffff168373ffffffffffffffffffffffffffffffffffffffff167f8c5be1e5ebec7d5bd14f71427d1e84f3dd0314c0f7b2291e5b200ac8c7c3b925836040518082815260200191505060405180910390a3505050565b7f000000000000000000000000000000000000000000000000000000000000000073ffffffffffffffffffffffffffffffffffffffff163373ffffffffffffffffffffffffffffffffffffffff1614806115bd57507f000000000000000000000000000000000000000000000000000000000000000073ffffffffffffffffffffffffffffffffffffffff163373ffffffffffffffffffffffffffffffffffffffff16145b611612576040517f08c379a00000000000000000000000000000000000000000000000000000000081526004018080602001828103825260408152602001806122fe6040913960400191505060405180910390fd5b565b600073ffffffffffffffffffffffffffffffffffffffff168373ffffffffffffffffffffffffffffffffffffffff1614156116b7576040517f08c379a000000000000000000000000000000000000000000000000000000000815260040180806020018281038252601f8152602001807f5f7472616e736665723a2073656e64657220697320616464726573732830290081525060200191505060405180910390fd5b600073ffffffffffffffffffffffffffffffffffffffff168273ffffffffffffffffffffffffffffffffffffffff16141561175a576040517f08c379a00000000000000000000000000000000000000000000000000000000081526004018080602001828103825260208152602001807f5f7472616e736665723a20726563697069656e7420697320306164647265737381525060200191505060405180910390fd5b6117e3816040518060400160405280602081526020017f45524332303a207472616e7366657220616d6f756e74203e2062616c616e6365815250600260008773ffffffffffffffffffffffffffffffffffffffff1673ffffffffffffffffffffffffffffffffffffffff168152602001908152602001600020546119e69092919063ffffffff16565b600260008573ffffffffffffffffffffffffffffffffffffffff1673ffffffffffffffffffffffffffffffffffffffff1681526020019081526020016000208190555061187881600260008573ffffffffffffffffffffffffffffffffffffffff1673ffffffffffffffffffffffffffffffffffffffff16815260200190815260200160002054611aa690919063ffffffff16565b600260008473ffffffffffffffffffffffffffffffffffffffff1673ffffffffffffffffffffffffffffffffffffffff168152602001908152602001600020819055508173ffffffffffffffffffffffffffffffffffffffff168373ffffffffffffffffffffffffffffffffffffffff167fddf252ad1be2c89b69c2b068fc378daa952ba7f163c4a11628f55a4df523b3ef836040518082815260200191505060405180910390a3505050565b600073ffffffffffffffffffffffffffffffffffffffff168173ffffffffffffffffffffffffffffffffffffffff161415801561198e57503073ffffffffffffffffffffffffffffffffffffffff168173ffffffffffffffffffffffffffffffffffffffff1614155b6119e3576040517f08c379a000000000000000000000000000000000000000000000000000000000815260040180806020018281038252605481526020018061233e6054913960600191505060405180910390fd5b50565b6000838311158290611a93576040517f08c379a00000000000000000000000000000000000000000000000000000000081526004018080602001828103825283818151815260200191508051906020019080838360005b83811015611a58578082015181840152602081019050611a3d565b50505050905090810190601f168015611a855780820380516001836020036101000a031916815260200191505b509250505060405180910390fd5b5060008385039050809150509392505050565b600080828401905083811015611b24576040517f08c379a000000000000000000000000000000000000000000000000000000000815260040180806020018281038252600c8152602001807f616464206f766572666c6f77000000000000000000000000000000000000000081525060200191505060405180910390fd5b8091505092915050565b600460003373ffffffffffffffffffffffffffffffffffffffff1673ffffffffffffffffffffffffffffffffffffffff16815260200190815260200160002060009054906101000a900460ff16611bd0576040517f08c379a00000000000000000000000000000000000000000000000000000000081526004018080602001828103825260258152602001806122b46025913960400191505060405180910390fd5b565b600073ffffffffffffffffffffffffffffffffffffffff168273ffffffffffffffffffffffffffffffffffffffff161415611c75576040517f08c379a000000000000000000000000000000000000000000000000000000000815260040180806020018281038252601c8152602001807f5f6d696e743a206163636f756e7420697320616464726573732830290000000081525060200191505060405180910390fd5b611c8a81600054611aa690919063ffffffff16565b60008190555080600260008473ffffffffffffffffffffffffffffffffffffffff1673ffffffffffffffffffffffffffffffffffffffff1681526020019081526020016000205401600260008473ffffffffffffffffffffffffffffffffffffffff1673ffffffffffffffffffffffffffffffffffffffff168152602001908152602001600020819055508173ffffffffffffffffffffffffffffffffffffffff16600073ffffffffffffffffffffffffffffffffffffffff167fddf252ad1be2c89b69c2b068fc378daa952ba7f163c4a11628f55a4df523b3ef836040518082815260200191505060405180910390a35050565b7f000000000000000000000000000000000000000000000000000000000000000073ffffffffffffffffffffffffffffffffffffffff163373ffffffffffffffffffffffffffffffffffffffff161480611e2457507f000000000000000000000000000000000000000000000000000000000000000073ffffffffffffffffffffffffffffffffffffffff163373ffffffffffffffffffffffffffffffffffffffff16145b80611e7a57507f000000000000000000000000000000000000000000000000000000000000000073ffffffffffffffffffffffffffffffffffffffff163373ffffffffffffffffffffffffffffffffffffffff16145b80611ed057507f000000000000000000000000000000000000000000000000000000000000000073ffffffffffffffffffffffffffffffffffffffff163373ffffffffffffffffffffffffffffffffffffffff16145b611f25576040517f08c379a000000000000000000000000000000000000000000000000000000000815260040180806020018281038252604d81526020018061223f604d913960600191505060405180910390fd5b565b600073ffffffffffffffffffffffffffffffffffffffff168273ffffffffffffffffffffffffffffffffffffffff161415611fca576040517f08c379a000000000000000000000000000000000000000000000000000000000815260040180806020018281038252601c8152602001807f5f6275726e3a206163636f756e7420697320616464726573732830290000000081525060200191505060405180910390fd5b612053816040518060400160405280601c81526020017f45524332303a206275726e20616d6f756e74203e2062616c616e636500000000815250600260008673ffffffffffffffffffffffffffffffffffffffff1673ffffffffffffffffffffffffffffffffffffffff168152602001908152602001600020546119e69092919063ffffffff16565b600260008473ffffffffffffffffffffffffffffffffffffffff1673ffffffffffffffffffffffffffffffffffffffff168152602001908152602001600020819055508060005403600081905550600073ffffffffffffffffffffffffffffffffffffffff168273ffffffffffffffffffffffffffffffffffffffff167fddf252ad1be2c89b69c2b068fc378daa952ba7f163c4a11628f55a4df523b3ef836040518082815260200191505060405180910390a35050565b7f000000000000000000000000000000000000000000000000000000000000000073ffffffffffffffffffffffffffffffffffffffff163373ffffffffffffffffffffffffffffffffffffffff16146121af576040517f08c379a00000000000000000000000000000000000000000000000000000000081526004018080602001828103825260258152602001806122d96025913960400191505060405180910390fd5b565b600046905090565b60008383836121c66121b1565b30604051602001808681526020018581526020018481526020018381526020018273ffffffffffffffffffffffffffffffffffffffff1673ffffffffffffffffffffffffffffffffffffffff16815260200195505050505050604051602081830303815290604052805190602001209050939250505056fe535553443a2043616c6c6572206973206e65697468657220426f72726f7765724f7065726174696f6e73206e6f722054726f76654d616e61676572206e6f722053746162696c697479506f6f6c45524332303a207472616e7366657220616d6f756e74206578636565647320616c6c6f77616e636553555344546f6b656e3a2043616c6c6572206973206e6f742056616c6964204d696e746572535553443a2043616c6c6572206973206e6f74207468652053746162696c697479506f6f6c535553443a2043616c6c6572206973206e6569746865722054726f76654d616e616765724c697175696461746f72206e6f722053746162696c697479506f6f6c535553443a2043616e6e6f74207472616e7366657220746f6b656e73206469726563746c7920746f20746865205955534420746f6b656e20636f6e7472616374206f7220746865207a65726f206164647265737345524332303a2064656372656173656420616c6c6f77616e63652062656c6f77207a65726fa264697066735822122086c34b54fd3356db8e6c5857bf9592aec60bb535a019e7ece4354d0df5affa5964736f6c634300060b0033",
  "immutableReferences": {
    "12498": [
      {
        "length": 32,
        "start": 4685
      }
    ],
    "12500": [
      {
        "length": 32,
        "start": 4638
      }
    ],
    "12502": [
      {
        "length": 32,
        "start": 4764
      }
    ],
    "12504": [
      {
        "length": 32,
        "start": 4797
      }
    ],
    "12520": [
      {
        "length": 32,
        "start": 7638
      }
    ],
    "12522": [
      {
        "length": 32,
        "start": 5487
      }
    ],
    "12524": [
      {
        "length": 32,
        "start": 7810
      }
    ],
    "12526": [
      {
        "length": 32,
        "start": 5402
      },
      {
        "length": 32,
        "start": 7724
      },
      {
        "length": 32,
        "start": 8461
      }
    ],
    "12528": [
      {
        "length": 32,
        "start": 7553
      }
    ],
    "12530": [
      {
        "length": 32,
        "start": 4352
      }
    ]
  },
  "source": "// SPDX-License-Identifier: UNLICENSED\n\npragma solidity 0.6.11;\n\nimport \"../Interfaces/ISUSDToken.sol\";\nimport \"../Dependencies/SafeMath.sol\";\nimport \"../Dependencies/CheckContract.sol\";\n\n/*\n*\n* Based upon OpenZeppelin's ERC20 contract:\n* https://github.com/OpenZeppelin/openzeppelin-contracts/blob/master/contracts/token/ERC20/ERC20.sol\n*  \n* and their EIP2612 (ERC20Permit / ERC712) functionality:\n* https://github.com/OpenZeppelin/openzeppelin-contracts/blob/53516bc555a454862470e7860a9b5254db4d00f5/contracts/token/ERC20/ERC20Permit.sol\n* \n*\n* --- Functionality added specific to the YUSDToken ---\n* \n* 1) Transfer protection: blacklist of addresses that are invalid recipients (i.e. core Yeti contracts) in external \n* transfer() and transferFrom() calls. The purpose is to protect users from losing tokens by mistakenly sending YUSD directly to a Yeti \n* core contract, when they should rather call the right function. \n*\n* 2) sendToPool() and returnFromPool(): functions callable only Yeti core contracts, which move YUSD tokens between Yeti <-> user.\n*/\n\ncontract SUSDToken is CheckContract, ISUSDToken {\n    using SafeMath for uint256;\n    \n    uint256 private _totalSupply;\n    string constant internal _NAME = \"SUSD Stablecoin\";\n    string constant internal _SYMBOL = \"SUSD\";\n    string constant internal _VERSION = \"1\";\n    uint8 constant internal _DECIMALS = 18;\n    \n    // --- Data for EIP2612 ---\n    \n    // keccak256(\"Permit(address owner,address spender,uint256 value,uint256 nonce,uint256 deadline)\");\n    bytes32 private constant _PERMIT_TYPEHASH = 0x6e71edae12b1b97f4d1f60370fef10105fa2faae0126114a169c64845d6126c9;\n    // keccak256(\"EIP712Domain(string name,string version,uint256 chainId,address verifyingContract)\");\n    bytes32 private constant _TYPE_HASH = 0x8b73c3c69bb8fe3d512ecc4cf759cc79239f7b179b0ffacaa9a75d522b39400f;\n\n    // Cache the domain separator as an immutable value, but also store the chain id that it corresponds to, in order to\n    // invalidate the cached domain separator if the chain id changes.\n    bytes32 private immutable _CACHED_DOMAIN_SEPARATOR;\n    uint256 private immutable _CACHED_CHAIN_ID;\n\n    bytes32 private immutable _HASHED_NAME;\n    bytes32 private immutable _HASHED_VERSION;\n    \n    mapping (address => uint256) private _nonces;\n    \n    // User data for YUSD token\n    mapping (address => uint256) private _balances;\n    mapping (address => mapping (address => uint256)) private _allowances;  \n    \n    // --- Addresses ---\n    address internal immutable troveManagerAddress;\n    address internal immutable troveManagerLiquidationsAddress;\n    address internal immutable troveManagerRedemptionsAddress;\n    address internal immutable stabilityPoolAddress;\n    address internal immutable borrowerOperationsAddress;\n    address internal immutable timelockAddress;\n    mapping(address => bool) validMinters;\n    \n    // --- Events ---\n    event TroveManagerAddressChanged(address _troveManagerAddress);\n    event TroveManagerLiquidatorAddressChanged(address _troveManagerLiquidatorAddress);\n    event TroveManagerRedemptionsAddressChanged(address _troveManagerRedemptionsAddress);\n    event StabilityPoolAddressChanged(address _newStabilityPoolAddress);\n    event BorrowerOperationsAddressChanged(address _newBorrowerOperationsAddress);\n\n    constructor\n    (\n        address _troveManagerAddress,\n        address _troveManagerLiquidationsAddress,\n        address _troveManagerRedemptionsAddress,\n        address _stabilityPoolAddress,\n        address _borrowerOperationsAddress,\n        address _timelockAddress\n    )\n        public \n    {\n        checkContract(_troveManagerAddress);\n        checkContract(_troveManagerLiquidationsAddress);\n        checkContract(_troveManagerRedemptionsAddress);\n        checkContract(_stabilityPoolAddress);\n        checkContract(_borrowerOperationsAddress);\n\n        troveManagerAddress = _troveManagerAddress;\n        emit TroveManagerAddressChanged(_troveManagerAddress);\n\n        troveManagerLiquidationsAddress = _troveManagerLiquidationsAddress;\n        emit TroveManagerLiquidatorAddressChanged(_troveManagerLiquidationsAddress);\n\n        troveManagerRedemptionsAddress = _troveManagerRedemptionsAddress;\n        emit TroveManagerRedemptionsAddressChanged(_troveManagerRedemptionsAddress);\n\n        stabilityPoolAddress = _stabilityPoolAddress;\n        emit StabilityPoolAddressChanged(_stabilityPoolAddress);\n\n        borrowerOperationsAddress = _borrowerOperationsAddress;\n        validMinters[_borrowerOperationsAddress] = true;\n        emit BorrowerOperationsAddressChanged(_borrowerOperationsAddress);\n\n        timelockAddress = _timelockAddress;\n        \n        bytes32 hashedName = keccak256(bytes(_NAME));\n        bytes32 hashedVersion = keccak256(bytes(_VERSION));\n        \n        _HASHED_NAME = hashedName;\n        _HASHED_VERSION = hashedVersion;\n        _CACHED_CHAIN_ID = _chainID();\n        _CACHED_DOMAIN_SEPARATOR = _buildDomainSeparator(_TYPE_HASH, hashedName, hashedVersion);\n    }\n\n    // --- Functions for intra-Yeti calls ---\n\n    function mint(address _account, uint256 _amount) external override {\n        _requireValidMinter();\n        _mint(_account, _amount);\n    }\n\n    function burn(address _account, uint256 _amount) external override {\n        _requireCallerIsBOorTroveMorSP();\n        _burn(_account, _amount);\n    }\n\n    function sendToPool(address _sender,  address _poolAddress, uint256 _amount) external override {\n        _requireCallerIsStabilityPool();\n        _transfer(_sender, _poolAddress, _amount);\n    }\n\n    function returnFromPool(address _poolAddress, address _receiver, uint256 _amount) external override {\n        _requireCallerIsTMLorSP();\n        _transfer(_poolAddress, _receiver, _amount);\n    }\n\n    // --- External functions ---\n\n    function totalSupply() external view override returns (uint256) {\n        return _totalSupply;\n    }\n\n    function balanceOf(address account) external view override returns (uint256) {\n        return _balances[account];\n    }\n\n    function transfer(address recipient, uint256 amount) external override returns (bool) {\n        _requireValidRecipient(recipient);\n        _transfer(msg.sender, recipient, amount);\n        return true;\n    }\n\n    function allowance(address owner, address spender) external view override returns (uint256) {\n        return _allowances[owner][spender];\n    }\n\n    function approve(address spender, uint256 amount) external override returns (bool) {\n        _approve(msg.sender, spender, amount);\n        return true;\n    }\n\n    function transferFrom(address sender, address recipient, uint256 amount) external override returns (bool) {\n        _requireValidRecipient(recipient);\n\n        _transfer(sender, recipient, amount);\n        _approve(sender, msg.sender, _allowances[sender][msg.sender].sub(amount, \"ERC20: transfer amount exceeds allowance\"));\n        return true;\n    }\n\n    function increaseAllowance(address spender, uint256 addedValue) external override returns (bool) {\n        _approve(msg.sender, spender, _allowances[msg.sender][spender].add(addedValue));\n        return true;\n    }\n\n    function decreaseAllowance(address spender, uint256 subtractedValue) external override returns (bool) {\n        _approve(msg.sender, spender, _allowances[msg.sender][spender].sub(subtractedValue, \"ERC20: decreased allowance below zero\"));\n        return true;\n    }\n\n    // --- EIP 2612 Functionality ---\n\n    function domainSeparator() public view override returns (bytes32) {    \n        if (_chainID() == _CACHED_CHAIN_ID) {\n            return _CACHED_DOMAIN_SEPARATOR;\n        } else {\n            return _buildDomainSeparator(_TYPE_HASH, _HASHED_NAME, _HASHED_VERSION);\n        }\n    }\n\n    function permit\n    (\n        address owner, \n        address spender, \n        uint amount, \n        uint deadline, \n        uint8 v, \n        bytes32 r, \n        bytes32 s\n    ) \n        external \n        override \n    {            \n        require(deadline >= block.timestamp, 'SUSD: expired deadline');\n        bytes32 digest = keccak256(abi.encodePacked('\\x19\\x01', \n                         domainSeparator(), keccak256(abi.encode(\n                         _PERMIT_TYPEHASH, owner, spender, amount, \n                         _nonces[owner]++, deadline))));\n        address recoveredAddress = ecrecover(digest, v, r, s);\n        require(recoveredAddress == owner || recoveredAddress != address(0) , 'SUSD: invalid signature');\n        _approve(owner, spender, amount);\n    }\n\n    function nonces(address owner) external view override returns (uint256) { // FOR EIP 2612\n        return _nonces[owner];\n    }\n\n    // --- Internal operations ---\n\n    function _chainID() private pure returns (uint256 chainID) {\n        assembly {\n            chainID := chainid()\n        }\n    }\n    \n    function _buildDomainSeparator(bytes32 typeHash, bytes32 name, bytes32 version) private view returns (bytes32) {\n        return keccak256(abi.encode(typeHash, name, version, _chainID(), address(this)));\n    }\n\n    // --- Internal operations ---\n    // Warning: sanity checks (for sender and recipient) should have been done before calling these internal functions\n\n    function _transfer(address sender, address recipient, uint256 amount) internal {\n        require(sender != address(0), \"_transfer: sender is address(0)\");\n        require(recipient != address(0), \"_transfer: recipient is 0address\");\n\n        _balances[sender] = _balances[sender].sub(amount, \"ERC20: transfer amount > balance\");\n        _balances[recipient] = _balances[recipient].add(amount);\n        emit Transfer(sender, recipient, amount);\n    }\n\n    function _mint(address account, uint256 amount) internal {\n        require(account != address(0), \"_mint: account is address(0)\");\n\n        _totalSupply = _totalSupply.add(amount);\n        _balances[account] = _balances[account] + amount; \n        emit Transfer(address(0), account, amount);\n    }\n\n    function _burn(address account, uint256 amount) internal {\n        require(account != address(0), \"_burn: account is address(0)\");\n        \n        _balances[account] = _balances[account].sub(amount, \"ERC20: burn amount > balance\");\n        _totalSupply = _totalSupply - amount; // can't underflow since indiv balance didn't\n        emit Transfer(account, address(0), amount);\n    }\n\n    function _approve(address owner, address spender, uint256 amount) internal {\n        require(owner != address(0), \"_approve: owner is address(0)\");\n        require(spender != address(0), \"_approve: spender is address(0)\");\n\n        _allowances[owner][spender] = amount;\n        emit Approval(owner, spender, amount);\n    }\n\n    function addValidMinter(address _newMinter) external {\n        require(msg.sender == timelockAddress, \"SUSD: NotTimelock\");\n        validMinters[_newMinter] = true;\n    }\n\n    // --- 'require' functions ---\n\n    // TODO: update this when we've finalized where YUSD can/can't be sent.\n    // May want to make it possible to send to adddress(0) for burns or something\n    function _requireValidRecipient(address _recipient) internal view {\n        require(\n            _recipient != address(0) && \n            _recipient != address(this),\n            \"SUSD: Cannot transfer tokens directly to the YUSD token contract or the zero address\"\n        );\n        // require(\n        //     _recipient != stabilityPoolAddress && \n        //     _recipient != troveManagerAddress &&\n        //     _recipient != troveManagerLiquidationsAddress && \n        //     _recipient != troveManagerRedemptionsAddress, //&& \n        //     // _recipient != borrowerOperationsAddress, //\n        //     \"YUSD: Cannot transfer tokens directly to the StabilityPool, TroveManager or BorrowerOps\"\n        // );\n    }\n\n    function _requireValidMinter() internal view {\n        require(validMinters[msg.sender], \"SUSDToken: Caller is not Valid Minter\");\n    }\n\n    function _requireCallerIsBOorTroveMorSP() internal view {\n        require(\n            msg.sender == borrowerOperationsAddress ||\n            msg.sender == troveManagerAddress ||\n            msg.sender == stabilityPoolAddress ||\n            msg.sender == troveManagerRedemptionsAddress,\n            \"SUSD: Caller is neither BorrowerOperations nor TroveManager nor StabilityPool\"\n        );\n    }\n\n    function _requireCallerIsStabilityPool() internal view {\n        require(msg.sender == stabilityPoolAddress, \"SUSD: Caller is not the StabilityPool\");\n    }\n\n    function _requireCallerIsTMLorSP() internal view {\n        require(\n            msg.sender == stabilityPoolAddress || msg.sender == troveManagerLiquidationsAddress,\n            \"SUSD: Caller is neither TroveManagerLiquidator nor StabilityPool\");\n    }\n\n    // --- Optional functions ---\n\n    function name() external view override returns (string memory) {\n        return _NAME;\n    }\n\n    function symbol() external view override returns (string memory) {\n        return _SYMBOL;\n    }\n\n    function decimals() external view override returns (uint8) {\n        return _DECIMALS;\n    }\n\n    function version() external view override returns (string memory) {\n        return _VERSION;\n    }\n\n    function permitTypeHash() external view override returns (bytes32) {\n        return _PERMIT_TYPEHASH;\n    }\n}",
  "sourcePath": "/Users/phaxsam/Core-Stability_Truffle/contracts/SUSDToken.sol",
  "compiler": {
    "name": "solc",
    "version": "0.6.11+commit.5ef660b1.Emscripten.clang"
  },
  "schemaVersion": "3.4.9",
  "updatedAt": "2022-08-15T22:38:51.810Z",
  "devdoc": {
    "kind": "dev",
    "methods": {
      "allowance(address,address)": {
        "details": "Returns the remaining number of tokens that `spender` will be allowed to spend on behalf of `owner` through {transferFrom}. This is zero by default. This value changes when {approve} or {transferFrom} are called."
      },
      "approve(address,uint256)": {
        "details": "Sets `amount` as the allowance of `spender` over the caller's tokens. Returns a boolean value indicating whether the operation succeeded. IMPORTANT: Beware that changing an allowance with this method brings the risk that someone may use both the old and the new allowance by unfortunate transaction ordering. One possible solution to mitigate this race condition is to first reduce the spender's allowance to 0 and set the desired value afterwards: https://github.com/ethereum/EIPs/issues/20#issuecomment-263524729 Emits an {Approval} event."
      },
      "balanceOf(address)": {
        "details": "Returns the amount of tokens owned by `account`."
      },
      "nonces(address)": {
        "details": "Returns the current ERC2612 nonce for `owner`. This value must be included whenever a signature is generated for {permit}. Every successful call to {permit} increases `owner`'s nonce by one. This prevents a signature from being used multiple times. `owner` can limit the time a Permit is valid for by setting `deadline` to  a value in the near future. The deadline argument can be set to uint(-1) to  create Permits that effectively never expire."
      },
      "permit(address,address,uint256,uint256,uint8,bytes32,bytes32)": {
        "details": "Sets `amount` as the allowance of `spender` over `owner`'s tokens, given `owner`'s signed approval. IMPORTANT: The same issues {IERC20-approve} has related to transaction ordering also apply here. Emits an {Approval} event. Requirements: - `owner` cannot be the zero address. - `spender` cannot be the zero address. - `deadline` must be a timestamp in the future. - `v`, `r` and `s` must be a valid `secp256k1` signature from `owner` over the EIP712-formatted function arguments. - the signature must use ``owner``'s current nonce (see {nonces}). For more information on the signature format, see the https://eips.ethereum.org/EIPS/eip-2612#specification[relevant EIP section]."
      },
      "totalSupply()": {
        "details": "Returns the amount of tokens in existence."
      },
      "transfer(address,uint256)": {
        "details": "Moves `amount` tokens from the caller's account to `recipient`. Returns a boolean value indicating whether the operation succeeded. Emits a {Transfer} event."
      },
      "transferFrom(address,address,uint256)": {
        "details": "Moves `amount` tokens from `sender` to `recipient` using the allowance mechanism. `amount` is then deducted from the caller's allowance. Returns a boolean value indicating whether the operation succeeded. Emits a {Transfer} event."
      }
    },
    "version": 1
  },
  "userdoc": {
    "kind": "user",
    "methods": {},
    "version": 1
  }
}