{
  "contractName": "TroveManager",
  "abi": [
    {
      "anonymous": false,
      "inputs": [
        {
          "indexed": false,
          "internalType": "address",
          "name": "_activePoolAddress",
          "type": "address"
        }
      ],
      "name": "ActivePoolAddressChanged",
      "type": "event"
    },
    {
      "anonymous": false,
      "inputs": [
        {
          "indexed": false,
          "internalType": "uint256",
          "name": "_baseRate",
          "type": "uint256"
        }
      ],
      "name": "BaseRateUpdated",
      "type": "event"
    },
    {
      "anonymous": false,
      "inputs": [
        {
          "indexed": false,
          "internalType": "address",
          "name": "_newBorrowerOperationsAddress",
          "type": "address"
        }
      ],
      "name": "BorrowerOperationsAddressChanged",
      "type": "event"
    },
    {
      "anonymous": false,
      "inputs": [
        {
          "indexed": false,
          "internalType": "address",
          "name": "_collSurplusPoolAddress",
          "type": "address"
        }
      ],
      "name": "CollSurplusPoolAddressChanged",
      "type": "event"
    },
    {
      "anonymous": false,
      "inputs": [
        {
          "indexed": false,
          "internalType": "address",
          "name": "_defaultPoolAddress",
          "type": "address"
        }
      ],
      "name": "DefaultPoolAddressChanged",
      "type": "event"
    },
    {
      "anonymous": false,
      "inputs": [
        {
          "indexed": false,
          "internalType": "address",
          "name": "_gasPoolAddress",
          "type": "address"
        }
      ],
      "name": "GasPoolAddressChanged",
      "type": "event"
    },
    {
      "anonymous": false,
      "inputs": [
        {
          "indexed": false,
          "internalType": "address",
          "name": "_Coll_Address",
          "type": "address"
        },
        {
          "indexed": false,
          "internalType": "uint256",
          "name": "_L_Coll",
          "type": "uint256"
        },
        {
          "indexed": false,
          "internalType": "uint256",
          "name": "_L_SUSDDebt",
          "type": "uint256"
        }
      ],
      "name": "LTermsUpdated",
      "type": "event"
    },
    {
      "anonymous": false,
      "inputs": [
        {
          "indexed": false,
          "internalType": "uint256",
          "name": "_L_ETH",
          "type": "uint256"
        },
        {
          "indexed": false,
          "internalType": "uint256",
          "name": "_L_SUSDDebt",
          "type": "uint256"
        }
      ],
      "name": "LTermsUpdated",
      "type": "event"
    },
    {
      "anonymous": false,
      "inputs": [
        {
          "indexed": false,
          "internalType": "uint256",
          "name": "_lastFeeOpTime",
          "type": "uint256"
        }
      ],
      "name": "LastFeeOpTimeUpdated",
      "type": "event"
    },
    {
      "anonymous": false,
      "inputs": [
        {
          "indexed": false,
          "internalType": "uint256",
          "name": "liquidatedAmount",
          "type": "uint256"
        },
        {
          "indexed": false,
          "internalType": "uint256",
          "name": "totalSUSDGasCompensation",
          "type": "uint256"
        },
        {
          "indexed": false,
          "internalType": "address[]",
          "name": "totalCollTokens",
          "type": "address[]"
        },
        {
          "indexed": false,
          "internalType": "uint256[]",
          "name": "totalCollAmounts",
          "type": "uint256[]"
        },
        {
          "indexed": false,
          "internalType": "address[]",
          "name": "totalCollGasCompTokens",
          "type": "address[]"
        },
        {
          "indexed": false,
          "internalType": "uint256[]",
          "name": "totalCollGasCompAmounts",
          "type": "uint256[]"
        }
      ],
      "name": "Liquidation",
      "type": "event"
    },
    {
      "anonymous": false,
      "inputs": [
        {
          "indexed": true,
          "internalType": "address",
          "name": "previousOwner",
          "type": "address"
        },
        {
          "indexed": true,
          "internalType": "address",
          "name": "newOwner",
          "type": "address"
        }
      ],
      "name": "OwnershipTransferred",
      "type": "event"
    },
    {
      "anonymous": false,
      "inputs": [
        {
          "indexed": false,
          "internalType": "address",
          "name": "_newPriceFeedAddress",
          "type": "address"
        }
      ],
      "name": "PriceFeedAddressChanged",
      "type": "event"
    },
    {
      "anonymous": false,
      "inputs": [
        {
          "indexed": false,
          "internalType": "uint256",
          "name": "_attemptedSUSDAmount",
          "type": "uint256"
        },
        {
          "indexed": false,
          "internalType": "uint256",
          "name": "_actualSUSDAmount",
          "type": "uint256"
        },
        {
          "indexed": false,
          "internalType": "uint256",
          "name": "SUSDfee",
          "type": "uint256"
        },
        {
          "indexed": false,
          "internalType": "address[]",
          "name": "tokens",
          "type": "address[]"
        },
        {
          "indexed": false,
          "internalType": "uint256[]",
          "name": "amounts",
          "type": "uint256[]"
        }
      ],
      "name": "Redemption",
      "type": "event"
    },
    {
      "anonymous": false,
      "inputs": [
        {
          "indexed": false,
          "internalType": "address",
          "name": "_sSTBAddress",
          "type": "address"
        }
      ],
      "name": "SSTBAddressChanged",
      "type": "event"
    },
    {
      "anonymous": false,
      "inputs": [
        {
          "indexed": false,
          "internalType": "address",
          "name": "_stbTokenAddress",
          "type": "address"
        }
      ],
      "name": "STBTokenAddressChanged",
      "type": "event"
    },
    {
      "anonymous": false,
      "inputs": [
        {
          "indexed": false,
          "internalType": "address",
          "name": "_newSUSDTokenAddress",
          "type": "address"
        }
      ],
      "name": "SUSDTokenAddressChanged",
      "type": "event"
    },
    {
      "anonymous": false,
      "inputs": [
        {
          "indexed": false,
          "internalType": "address",
          "name": "_sortedTrovesAddress",
          "type": "address"
        }
      ],
      "name": "SortedTrovesAddressChanged",
      "type": "event"
    },
    {
      "anonymous": false,
      "inputs": [
        {
          "indexed": false,
          "internalType": "address",
          "name": "_stabilityPoolAddress",
          "type": "address"
        }
      ],
      "name": "StabilityPoolAddressChanged",
      "type": "event"
    },
    {
      "anonymous": false,
      "inputs": [
        {
          "indexed": false,
          "internalType": "uint256",
          "name": "_unix",
          "type": "uint256"
        }
      ],
      "name": "SystemSnapshotsUpdated",
      "type": "event"
    },
    {
      "anonymous": false,
      "inputs": [
        {
          "indexed": false,
          "internalType": "uint256",
          "name": "_totalStakesSnapshot",
          "type": "uint256"
        },
        {
          "indexed": false,
          "internalType": "uint256",
          "name": "_totalCollateralSnapshot",
          "type": "uint256"
        }
      ],
      "name": "SystemSnapshotsUpdated",
      "type": "event"
    },
    {
      "anonymous": false,
      "inputs": [
        {
          "indexed": false,
          "internalType": "address",
          "name": "token",
          "type": "address"
        },
        {
          "indexed": false,
          "internalType": "uint256",
          "name": "_newTotalStakes",
          "type": "uint256"
        }
      ],
      "name": "TotalStakesUpdated",
      "type": "event"
    },
    {
      "anonymous": false,
      "inputs": [
        {
          "indexed": false,
          "internalType": "address",
          "name": "_borrower",
          "type": "address"
        },
        {
          "indexed": false,
          "internalType": "uint256",
          "name": "_newIndex",
          "type": "uint256"
        }
      ],
      "name": "TroveIndexUpdated",
      "type": "event"
    },
    {
      "anonymous": false,
      "inputs": [
        {
          "indexed": true,
          "internalType": "address",
          "name": "_borrower",
          "type": "address"
        },
        {
          "indexed": false,
          "internalType": "uint256",
          "name": "_debt",
          "type": "uint256"
        },
        {
          "indexed": false,
          "internalType": "uint256",
          "name": "_coll",
          "type": "uint256"
        },
        {
          "indexed": false,
          "internalType": "uint8",
          "name": "operation",
          "type": "uint8"
        }
      ],
      "name": "TroveLiquidated",
      "type": "event"
    },
    {
      "anonymous": false,
      "inputs": [
        {
          "indexed": false,
          "internalType": "uint256",
          "name": "_unix",
          "type": "uint256"
        }
      ],
      "name": "TroveSnapshotsUpdated",
      "type": "event"
    },
    {
      "anonymous": false,
      "inputs": [
        {
          "indexed": false,
          "internalType": "uint256",
          "name": "_L_ETH",
          "type": "uint256"
        },
        {
          "indexed": false,
          "internalType": "uint256",
          "name": "_L_SUSDDebt",
          "type": "uint256"
        }
      ],
      "name": "TroveSnapshotsUpdated",
      "type": "event"
    },
    {
      "anonymous": false,
      "inputs": [
        {
          "indexed": true,
          "internalType": "address",
          "name": "_borrower",
          "type": "address"
        },
        {
          "indexed": false,
          "internalType": "uint256",
          "name": "_debt",
          "type": "uint256"
        },
        {
          "indexed": false,
          "internalType": "address[]",
          "name": "_tokens",
          "type": "address[]"
        },
        {
          "indexed": false,
          "internalType": "uint256[]",
          "name": "_amounts",
          "type": "uint256[]"
        },
        {
          "indexed": false,
          "internalType": "enum TroveManagerBase.TroveManagerOperation",
          "name": "operation",
          "type": "uint8"
        }
      ],
      "name": "TroveUpdated",
      "type": "event"
    },
    {
      "inputs": [],
      "name": "BOOTSTRAP_PERIOD",
      "outputs": [
        {
          "internalType": "uint256",
          "name": "",
          "type": "uint256"
        }
      ],
      "stateMutability": "view",
      "type": "function"
    },
    {
      "inputs": [],
      "name": "BORROWING_FEE_FLOOR",
      "outputs": [
        {
          "internalType": "uint256",
          "name": "",
          "type": "uint256"
        }
      ],
      "stateMutability": "view",
      "type": "function"
    },
    {
      "inputs": [],
      "name": "CCR",
      "outputs": [
        {
          "internalType": "uint256",
          "name": "",
          "type": "uint256"
        }
      ],
      "stateMutability": "view",
      "type": "function"
    },
    {
      "inputs": [],
      "name": "DECIMAL_PRECISION",
      "outputs": [
        {
          "internalType": "uint256",
          "name": "",
          "type": "uint256"
        }
      ],
      "stateMutability": "view",
      "type": "function"
    },
    {
      "inputs": [
        {
          "internalType": "address",
          "name": "",
          "type": "address"
        }
      ],
      "name": "L_SUSDDebt",
      "outputs": [
        {
          "internalType": "uint256",
          "name": "",
          "type": "uint256"
        }
      ],
      "stateMutability": "view",
      "type": "function"
    },
    {
      "inputs": [],
      "name": "MAX_BORROWING_FEE",
      "outputs": [
        {
          "internalType": "uint256",
          "name": "",
          "type": "uint256"
        }
      ],
      "stateMutability": "view",
      "type": "function"
    },
    {
      "inputs": [],
      "name": "MCR",
      "outputs": [
        {
          "internalType": "uint256",
          "name": "",
          "type": "uint256"
        }
      ],
      "stateMutability": "view",
      "type": "function"
    },
    {
      "inputs": [],
      "name": "MINUTE_DECAY_FACTOR",
      "outputs": [
        {
          "internalType": "uint256",
          "name": "",
          "type": "uint256"
        }
      ],
      "stateMutability": "view",
      "type": "function"
    },
    {
      "inputs": [],
      "name": "MIN_NET_DEBT",
      "outputs": [
        {
          "internalType": "uint256",
          "name": "",
          "type": "uint256"
        }
      ],
      "stateMutability": "view",
      "type": "function"
    },
    {
      "inputs": [],
      "name": "NAME",
      "outputs": [
        {
          "internalType": "bytes32",
          "name": "",
          "type": "bytes32"
        }
      ],
      "stateMutability": "view",
      "type": "function"
    },
    {
      "inputs": [],
      "name": "REDEMPTION_FEE_FLOOR",
      "outputs": [
        {
          "internalType": "uint256",
          "name": "",
          "type": "uint256"
        }
      ],
      "stateMutability": "view",
      "type": "function"
    },
    {
      "inputs": [],
      "name": "SUSD_GAS_COMPENSATION",
      "outputs": [
        {
          "internalType": "uint256",
          "name": "",
          "type": "uint256"
        }
      ],
      "stateMutability": "view",
      "type": "function"
    },
    {
      "inputs": [],
      "name": "baseRate",
      "outputs": [
        {
          "internalType": "uint256",
          "name": "",
          "type": "uint256"
        }
      ],
      "stateMutability": "view",
      "type": "function"
    },
    {
      "inputs": [],
      "name": "getEntireSystemColl",
      "outputs": [
        {
          "internalType": "uint256",
          "name": "",
          "type": "uint256"
        }
      ],
      "stateMutability": "view",
      "type": "function"
    },
    {
      "inputs": [],
      "name": "getEntireSystemDebt",
      "outputs": [
        {
          "internalType": "uint256",
          "name": "",
          "type": "uint256"
        }
      ],
      "stateMutability": "view",
      "type": "function"
    },
    {
      "inputs": [],
      "name": "isOwner",
      "outputs": [
        {
          "internalType": "bool",
          "name": "",
          "type": "bool"
        }
      ],
      "stateMutability": "view",
      "type": "function"
    },
    {
      "inputs": [
        {
          "internalType": "address",
          "name": "",
          "type": "address"
        }
      ],
      "name": "lastCollError_Redistribution",
      "outputs": [
        {
          "internalType": "uint256",
          "name": "",
          "type": "uint256"
        }
      ],
      "stateMutability": "view",
      "type": "function"
    },
    {
      "inputs": [],
      "name": "lastFeeOperationTime",
      "outputs": [
        {
          "internalType": "uint256",
          "name": "",
          "type": "uint256"
        }
      ],
      "stateMutability": "view",
      "type": "function"
    },
    {
      "inputs": [
        {
          "internalType": "address",
          "name": "",
          "type": "address"
        }
      ],
      "name": "lastSUSDDebtError_Redistribution",
      "outputs": [
        {
          "internalType": "uint256",
          "name": "",
          "type": "uint256"
        }
      ],
      "stateMutability": "view",
      "type": "function"
    },
    {
      "inputs": [],
      "name": "owner",
      "outputs": [
        {
          "internalType": "address",
          "name": "",
          "type": "address"
        }
      ],
      "stateMutability": "view",
      "type": "function"
    },
    {
      "inputs": [
        {
          "internalType": "address",
          "name": "",
          "type": "address"
        }
      ],
      "name": "totalCollateralSnapshot",
      "outputs": [
        {
          "internalType": "uint256",
          "name": "",
          "type": "uint256"
        }
      ],
      "stateMutability": "view",
      "type": "function"
    },
    {
      "inputs": [
        {
          "internalType": "address",
          "name": "",
          "type": "address"
        }
      ],
      "name": "totalStakes",
      "outputs": [
        {
          "internalType": "uint256",
          "name": "",
          "type": "uint256"
        }
      ],
      "stateMutability": "view",
      "type": "function"
    },
    {
      "inputs": [
        {
          "internalType": "address",
          "name": "",
          "type": "address"
        }
      ],
      "name": "totalStakesSnapshot",
      "outputs": [
        {
          "internalType": "uint256",
          "name": "",
          "type": "uint256"
        }
      ],
      "stateMutability": "view",
      "type": "function"
    },
    {
      "inputs": [
        {
          "internalType": "address",
          "name": "_borrowerOperationsAddress",
          "type": "address"
        },
        {
          "internalType": "address",
          "name": "_activePoolAddress",
          "type": "address"
        },
        {
          "internalType": "address",
          "name": "_defaultPoolAddress",
          "type": "address"
        },
        {
          "internalType": "address",
          "name": "_stabilityPoolAddress",
          "type": "address"
        },
        {
          "internalType": "address",
          "name": "_gasPoolAddress",
          "type": "address"
        },
        {
          "internalType": "address",
          "name": "_collSurplusPoolAddress",
          "type": "address"
        },
        {
          "internalType": "address",
          "name": "_susdTokenAddress",
          "type": "address"
        },
        {
          "internalType": "address",
          "name": "_sortedTrovesAddress",
          "type": "address"
        },
        {
          "internalType": "address",
          "name": "_stbTokenAddress",
          "type": "address"
        },
        {
          "internalType": "address",
          "name": "_sSTBAddress",
          "type": "address"
        },
        {
          "internalType": "address",
          "name": "_whitelistAddress",
          "type": "address"
        },
        {
          "internalType": "address",
          "name": "_troveManagerRedemptionsAddress",
          "type": "address"
        },
        {
          "internalType": "address",
          "name": "_troveManagerLiquidationsAddress",
          "type": "address"
        }
      ],
      "name": "setAddresses",
      "outputs": [],
      "stateMutability": "nonpayable",
      "type": "function"
    },
    {
      "inputs": [],
      "name": "getTroveOwnersCount",
      "outputs": [
        {
          "internalType": "uint256",
          "name": "",
          "type": "uint256"
        }
      ],
      "stateMutability": "view",
      "type": "function"
    },
    {
      "inputs": [
        {
          "internalType": "uint256",
          "name": "_index",
          "type": "uint256"
        }
      ],
      "name": "getTroveFromTroveOwnersArray",
      "outputs": [
        {
          "internalType": "address",
          "name": "",
          "type": "address"
        }
      ],
      "stateMutability": "view",
      "type": "function"
    },
    {
      "inputs": [
        {
          "internalType": "address",
          "name": "_borrower",
          "type": "address"
        }
      ],
      "name": "liquidate",
      "outputs": [],
      "stateMutability": "nonpayable",
      "type": "function"
    },
    {
      "inputs": [
        {
          "internalType": "address[]",
          "name": "_troveArray",
          "type": "address[]"
        },
        {
          "internalType": "address",
          "name": "_liquidator",
          "type": "address"
        }
      ],
      "name": "batchLiquidateTroves",
      "outputs": [],
      "stateMutability": "nonpayable",
      "type": "function"
    },
    {
      "inputs": [
        {
          "internalType": "address",
          "name": "_account",
          "type": "address"
        },
        {
          "internalType": "address[]",
          "name": "_tokens",
          "type": "address[]"
        },
        {
          "internalType": "uint256[]",
          "name": "_amounts",
          "type": "uint256[]"
        }
      ],
      "name": "collSurplusUpdate",
      "outputs": [],
      "stateMutability": "nonpayable",
      "type": "function"
    },
    {
      "inputs": [
        {
          "internalType": "contract IActivePool",
          "name": "_activePool",
          "type": "address"
        },
        {
          "internalType": "contract IDefaultPool",
          "name": "_defaultPool",
          "type": "address"
        },
        {
          "internalType": "uint256",
          "name": "_SUSD",
          "type": "uint256"
        },
        {
          "internalType": "address[]",
          "name": "_tokens",
          "type": "address[]"
        },
        {
          "internalType": "uint256[]",
          "name": "_amounts",
          "type": "uint256[]"
        },
        {
          "internalType": "address",
          "name": "_borrower",
          "type": "address"
        }
      ],
      "name": "movePendingTroveRewardsToActivePool",
      "outputs": [],
      "stateMutability": "nonpayable",
      "type": "function"
    },
    {
      "inputs": [
        {
          "internalType": "address[]",
          "name": "_borrowers",
          "type": "address[]"
        },
        {
          "internalType": "address[]",
          "name": "_lowerHints",
          "type": "address[]"
        },
        {
          "internalType": "address[]",
          "name": "_upperHints",
          "type": "address[]"
        }
      ],
      "name": "updateTroves",
      "outputs": [],
      "stateMutability": "nonpayable",
      "type": "function"
    },
    {
      "inputs": [
        {
          "internalType": "uint256",
          "name": "_SUSDamount",
          "type": "uint256"
        },
        {
          "internalType": "uint256",
          "name": "_SUSDMaxFee",
          "type": "uint256"
        },
        {
          "internalType": "address",
          "name": "_firstRedemptionHint",
          "type": "address"
        },
        {
          "internalType": "address",
          "name": "_upperPartialRedemptionHint",
          "type": "address"
        },
        {
          "internalType": "address",
          "name": "_lowerPartialRedemptionHint",
          "type": "address"
        },
        {
          "internalType": "uint256",
          "name": "_partialRedemptionHintICR",
          "type": "uint256"
        },
        {
          "internalType": "uint256",
          "name": "_maxIterations",
          "type": "uint256"
        }
      ],
      "name": "redeemCollateral",
      "outputs": [],
      "stateMutability": "nonpayable",
      "type": "function"
    },
    {
      "inputs": [
        {
          "internalType": "address",
          "name": "_borrower",
          "type": "address"
        }
      ],
      "name": "getCurrentICR",
      "outputs": [
        {
          "internalType": "uint256",
          "name": "ICR",
          "type": "uint256"
        }
      ],
      "stateMutability": "view",
      "type": "function"
    },
    {
      "inputs": [
        {
          "internalType": "address",
          "name": "_borrower",
          "type": "address"
        }
      ],
      "name": "getCurrentRICR",
      "outputs": [
        {
          "internalType": "uint256",
          "name": "RICR",
          "type": "uint256"
        }
      ],
      "stateMutability": "view",
      "type": "function"
    },
    {
      "inputs": [
        {
          "internalType": "address",
          "name": "_borrower",
          "type": "address"
        }
      ],
      "name": "applyPendingRewards",
      "outputs": [],
      "stateMutability": "nonpayable",
      "type": "function"
    },
    {
      "inputs": [
        {
          "internalType": "address",
          "name": "_borrower",
          "type": "address"
        }
      ],
      "name": "updateTroveRewardSnapshots",
      "outputs": [],
      "stateMutability": "nonpayable",
      "type": "function"
    },
    {
      "inputs": [
        {
          "internalType": "address",
          "name": "_borrower",
          "type": "address"
        }
      ],
      "name": "getPendingCollRewards",
      "outputs": [
        {
          "internalType": "address[]",
          "name": "",
          "type": "address[]"
        },
        {
          "internalType": "uint256[]",
          "name": "",
          "type": "uint256[]"
        }
      ],
      "stateMutability": "view",
      "type": "function"
    },
    {
      "inputs": [
        {
          "internalType": "address",
          "name": "_borrower",
          "type": "address"
        }
      ],
      "name": "getPendingSUSDDebtReward",
      "outputs": [
        {
          "internalType": "uint256",
          "name": "pendingSUSDDebtReward",
          "type": "uint256"
        }
      ],
      "stateMutability": "view",
      "type": "function"
    },
    {
      "inputs": [
        {
          "internalType": "address",
          "name": "_borrower",
          "type": "address"
        }
      ],
      "name": "hasPendingRewards",
      "outputs": [
        {
          "internalType": "bool",
          "name": "",
          "type": "bool"
        }
      ],
      "stateMutability": "view",
      "type": "function"
    },
    {
      "inputs": [
        {
          "internalType": "address",
          "name": "_borrower",
          "type": "address"
        }
      ],
      "name": "getEntireDebtAndColls",
      "outputs": [
        {
          "internalType": "uint256",
          "name": "",
          "type": "uint256"
        },
        {
          "internalType": "address[]",
          "name": "",
          "type": "address[]"
        },
        {
          "internalType": "uint256[]",
          "name": "",
          "type": "uint256[]"
        },
        {
          "internalType": "uint256",
          "name": "",
          "type": "uint256"
        },
        {
          "internalType": "address[]",
          "name": "",
          "type": "address[]"
        },
        {
          "internalType": "uint256[]",
          "name": "",
          "type": "uint256[]"
        }
      ],
      "stateMutability": "view",
      "type": "function"
    },
    {
      "inputs": [
        {
          "internalType": "address",
          "name": "_borrower",
          "type": "address"
        }
      ],
      "name": "removeStake",
      "outputs": [],
      "stateMutability": "nonpayable",
      "type": "function"
    },
    {
      "inputs": [
        {
          "internalType": "address",
          "name": "_borrower",
          "type": "address"
        }
      ],
      "name": "updateStakeAndTotalStakes",
      "outputs": [],
      "stateMutability": "nonpayable",
      "type": "function"
    },
    {
      "inputs": [
        {
          "internalType": "contract IActivePool",
          "name": "_activePool",
          "type": "address"
        },
        {
          "internalType": "contract IDefaultPool",
          "name": "_defaultPool",
          "type": "address"
        },
        {
          "internalType": "uint256",
          "name": "_debt",
          "type": "uint256"
        },
        {
          "internalType": "address[]",
          "name": "_tokens",
          "type": "address[]"
        },
        {
          "internalType": "uint256[]",
          "name": "_amounts",
          "type": "uint256[]"
        }
      ],
      "name": "redistributeDebtAndColl",
      "outputs": [],
      "stateMutability": "nonpayable",
      "type": "function"
    },
    {
      "inputs": [
        {
          "internalType": "address",
          "name": "_borrower",
          "type": "address"
        }
      ],
      "name": "closeTrove",
      "outputs": [],
      "stateMutability": "nonpayable",
      "type": "function"
    },
    {
      "inputs": [
        {
          "internalType": "address",
          "name": "_borrower",
          "type": "address"
        }
      ],
      "name": "closeTroveLiquidation",
      "outputs": [],
      "stateMutability": "nonpayable",
      "type": "function"
    },
    {
      "inputs": [
        {
          "internalType": "address",
          "name": "_borrower",
          "type": "address"
        }
      ],
      "name": "closeTroveRedemption",
      "outputs": [],
      "stateMutability": "nonpayable",
      "type": "function"
    },
    {
      "inputs": [
        {
          "internalType": "contract IActivePool",
          "name": "_activePool",
          "type": "address"
        },
        {
          "internalType": "address[]",
          "name": "_tokens",
          "type": "address[]"
        },
        {
          "internalType": "uint256[]",
          "name": "_amounts",
          "type": "uint256[]"
        }
      ],
      "name": "updateSystemSnapshots_excludeCollRemainder",
      "outputs": [],
      "stateMutability": "nonpayable",
      "type": "function"
    },
    {
      "inputs": [
        {
          "internalType": "address",
          "name": "_borrower",
          "type": "address"
        }
      ],
      "name": "addTroveOwnerToArray",
      "outputs": [
        {
          "internalType": "uint256",
          "name": "",
          "type": "uint256"
        }
      ],
      "stateMutability": "nonpayable",
      "type": "function"
    },
    {
      "inputs": [],
      "name": "getTCR",
      "outputs": [
        {
          "internalType": "uint256",
          "name": "",
          "type": "uint256"
        }
      ],
      "stateMutability": "view",
      "type": "function"
    },
    {
      "inputs": [],
      "name": "checkRecoveryMode",
      "outputs": [
        {
          "internalType": "bool",
          "name": "",
          "type": "bool"
        }
      ],
      "stateMutability": "view",
      "type": "function"
    },
    {
      "inputs": [
        {
          "internalType": "uint256",
          "name": "newBaseRate",
          "type": "uint256"
        }
      ],
      "name": "updateBaseRate",
      "outputs": [],
      "stateMutability": "nonpayable",
      "type": "function"
    },
    {
      "inputs": [],
      "name": "getRedemptionRate",
      "outputs": [
        {
          "internalType": "uint256",
          "name": "",
          "type": "uint256"
        }
      ],
      "stateMutability": "view",
      "type": "function"
    },
    {
      "inputs": [],
      "name": "getRedemptionRateWithDecay",
      "outputs": [
        {
          "internalType": "uint256",
          "name": "",
          "type": "uint256"
        }
      ],
      "stateMutability": "view",
      "type": "function"
    },
    {
      "inputs": [
        {
          "internalType": "uint256",
          "name": "_SUSDRedeemed",
          "type": "uint256"
        }
      ],
      "name": "getRedemptionFeeWithDecay",
      "outputs": [
        {
          "internalType": "uint256",
          "name": "",
          "type": "uint256"
        }
      ],
      "stateMutability": "view",
      "type": "function"
    },
    {
      "inputs": [],
      "name": "getBorrowingRate",
      "outputs": [
        {
          "internalType": "uint256",
          "name": "",
          "type": "uint256"
        }
      ],
      "stateMutability": "view",
      "type": "function"
    },
    {
      "inputs": [],
      "name": "getBorrowingRateWithDecay",
      "outputs": [
        {
          "internalType": "uint256",
          "name": "",
          "type": "uint256"
        }
      ],
      "stateMutability": "view",
      "type": "function"
    },
    {
      "inputs": [
        {
          "internalType": "uint256",
          "name": "_SUSDDebt",
          "type": "uint256"
        }
      ],
      "name": "getBorrowingFee",
      "outputs": [
        {
          "internalType": "uint256",
          "name": "",
          "type": "uint256"
        }
      ],
      "stateMutability": "view",
      "type": "function"
    },
    {
      "inputs": [
        {
          "internalType": "uint256",
          "name": "_SUSDDebt",
          "type": "uint256"
        }
      ],
      "name": "getBorrowingFeeWithDecay",
      "outputs": [
        {
          "internalType": "uint256",
          "name": "",
          "type": "uint256"
        }
      ],
      "stateMutability": "view",
      "type": "function"
    },
    {
      "inputs": [],
      "name": "decayBaseRateFromBorrowing",
      "outputs": [],
      "stateMutability": "nonpayable",
      "type": "function"
    },
    {
      "inputs": [],
      "name": "calcDecayedBaseRate",
      "outputs": [
        {
          "internalType": "uint256",
          "name": "",
          "type": "uint256"
        }
      ],
      "stateMutability": "view",
      "type": "function"
    },
    {
      "inputs": [
        {
          "internalType": "address",
          "name": "_borrower",
          "type": "address"
        }
      ],
      "name": "getTroveStatus",
      "outputs": [
        {
          "internalType": "uint256",
          "name": "",
          "type": "uint256"
        }
      ],
      "stateMutability": "view",
      "type": "function"
    },
    {
      "inputs": [
        {
          "internalType": "address",
          "name": "_borrower",
          "type": "address"
        }
      ],
      "name": "isTroveActive",
      "outputs": [
        {
          "internalType": "bool",
          "name": "",
          "type": "bool"
        }
      ],
      "stateMutability": "view",
      "type": "function"
    },
    {
      "inputs": [
        {
          "internalType": "address",
          "name": "_borrower",
          "type": "address"
        },
        {
          "internalType": "address",
          "name": "_token",
          "type": "address"
        }
      ],
      "name": "getTroveStake",
      "outputs": [
        {
          "internalType": "uint256",
          "name": "",
          "type": "uint256"
        }
      ],
      "stateMutability": "view",
      "type": "function"
    },
    {
      "inputs": [
        {
          "internalType": "address",
          "name": "_borrower",
          "type": "address"
        }
      ],
      "name": "getTroveDebt",
      "outputs": [
        {
          "internalType": "uint256",
          "name": "",
          "type": "uint256"
        }
      ],
      "stateMutability": "view",
      "type": "function"
    },
    {
      "inputs": [
        {
          "internalType": "address",
          "name": "_token",
          "type": "address"
        }
      ],
      "name": "getTotalStake",
      "outputs": [
        {
          "internalType": "uint256",
          "name": "",
          "type": "uint256"
        }
      ],
      "stateMutability": "view",
      "type": "function"
    },
    {
      "inputs": [
        {
          "internalType": "address",
          "name": "_token",
          "type": "address"
        }
      ],
      "name": "getL_Coll",
      "outputs": [
        {
          "internalType": "uint256",
          "name": "",
          "type": "uint256"
        }
      ],
      "stateMutability": "view",
      "type": "function"
    },
    {
      "inputs": [
        {
          "internalType": "address",
          "name": "_token",
          "type": "address"
        }
      ],
      "name": "getL_SUSD",
      "outputs": [
        {
          "internalType": "uint256",
          "name": "",
          "type": "uint256"
        }
      ],
      "stateMutability": "view",
      "type": "function"
    },
    {
      "inputs": [
        {
          "internalType": "address",
          "name": "_borrower",
          "type": "address"
        },
        {
          "internalType": "address",
          "name": "_token",
          "type": "address"
        }
      ],
      "name": "getRewardSnapshotColl",
      "outputs": [
        {
          "internalType": "uint256",
          "name": "",
          "type": "uint256"
        }
      ],
      "stateMutability": "view",
      "type": "function"
    },
    {
      "inputs": [
        {
          "internalType": "address",
          "name": "_borrower",
          "type": "address"
        },
        {
          "internalType": "address",
          "name": "_token",
          "type": "address"
        }
      ],
      "name": "getRewardSnapshotSUSD",
      "outputs": [
        {
          "internalType": "uint256",
          "name": "",
          "type": "uint256"
        }
      ],
      "stateMutability": "view",
      "type": "function"
    },
    {
      "inputs": [
        {
          "internalType": "address",
          "name": "_borrower",
          "type": "address"
        }
      ],
      "name": "getTroveVC",
      "outputs": [
        {
          "internalType": "uint256",
          "name": "",
          "type": "uint256"
        }
      ],
      "stateMutability": "view",
      "type": "function"
    },
    {
      "inputs": [
        {
          "internalType": "address",
          "name": "_borrower",
          "type": "address"
        }
      ],
      "name": "getTroveColls",
      "outputs": [
        {
          "internalType": "address[]",
          "name": "",
          "type": "address[]"
        },
        {
          "internalType": "uint256[]",
          "name": "",
          "type": "uint256[]"
        }
      ],
      "stateMutability": "view",
      "type": "function"
    },
    {
      "inputs": [
        {
          "internalType": "address",
          "name": "_borrower",
          "type": "address"
        }
      ],
      "name": "getCurrentTroveState",
      "outputs": [
        {
          "internalType": "address[]",
          "name": "",
          "type": "address[]"
        },
        {
          "internalType": "uint256[]",
          "name": "",
          "type": "uint256[]"
        },
        {
          "internalType": "uint256",
          "name": "",
          "type": "uint256"
        }
      ],
      "stateMutability": "view",
      "type": "function"
    },
    {
      "inputs": [
        {
          "internalType": "address",
          "name": "_borrower",
          "type": "address"
        },
        {
          "internalType": "uint256",
          "name": "debt",
          "type": "uint256"
        }
      ],
      "name": "updateTroveDebt",
      "outputs": [],
      "stateMutability": "nonpayable",
      "type": "function"
    },
    {
      "inputs": [
        {
          "internalType": "address",
          "name": "_borrower",
          "type": "address"
        },
        {
          "internalType": "address[]",
          "name": "addresses",
          "type": "address[]"
        },
        {
          "internalType": "uint256[]",
          "name": "amounts",
          "type": "uint256[]"
        }
      ],
      "name": "updateTroveCollTMR",
      "outputs": [],
      "stateMutability": "nonpayable",
      "type": "function"
    },
    {
      "inputs": [
        {
          "internalType": "address",
          "name": "_borrower",
          "type": "address"
        }
      ],
      "name": "removeStakeTMR",
      "outputs": [],
      "stateMutability": "nonpayable",
      "type": "function"
    },
    {
      "inputs": [
        {
          "internalType": "address",
          "name": "_borrower",
          "type": "address"
        }
      ],
      "name": "removeStakeTLR",
      "outputs": [],
      "stateMutability": "nonpayable",
      "type": "function"
    },
    {
      "inputs": [
        {
          "internalType": "address",
          "name": "_borrower",
          "type": "address"
        },
        {
          "internalType": "uint256",
          "name": "_num",
          "type": "uint256"
        }
      ],
      "name": "setTroveStatus",
      "outputs": [],
      "stateMutability": "nonpayable",
      "type": "function"
    },
    {
      "inputs": [
        {
          "internalType": "address",
          "name": "_borrower",
          "type": "address"
        },
        {
          "internalType": "address[]",
          "name": "_tokens",
          "type": "address[]"
        },
        {
          "internalType": "uint256[]",
          "name": "_amounts",
          "type": "uint256[]"
        }
      ],
      "name": "updateTroveColl",
      "outputs": [],
      "stateMutability": "nonpayable",
      "type": "function"
    },
    {
      "inputs": [
        {
          "internalType": "address",
          "name": "_borrower",
          "type": "address"
        },
        {
          "internalType": "uint256",
          "name": "_debtIncrease",
          "type": "uint256"
        }
      ],
      "name": "increaseTroveDebt",
      "outputs": [
        {
          "internalType": "uint256",
          "name": "",
          "type": "uint256"
        }
      ],
      "stateMutability": "nonpayable",
      "type": "function"
    },
    {
      "inputs": [
        {
          "internalType": "address",
          "name": "_borrower",
          "type": "address"
        },
        {
          "internalType": "uint256",
          "name": "_debtDecrease",
          "type": "uint256"
        }
      ],
      "name": "decreaseTroveDebt",
      "outputs": [
        {
          "internalType": "uint256",
          "name": "",
          "type": "uint256"
        }
      ],
      "stateMutability": "nonpayable",
      "type": "function"
    },
    {
      "inputs": [],
      "name": "stabilityPool",
      "outputs": [
        {
          "internalType": "contract IStabilityPool",
          "name": "",
          "type": "address"
        }
      ],
      "stateMutability": "view",
      "type": "function"
    },
    {
      "inputs": [],
      "name": "susdToken",
      "outputs": [
        {
          "internalType": "contract ISUSDToken",
          "name": "",
          "type": "address"
        }
      ],
      "stateMutability": "view",
      "type": "function"
    },
    {
      "inputs": [],
      "name": "stbToken",
      "outputs": [
        {
          "internalType": "contract ISTBToken",
          "name": "",
          "type": "address"
        }
      ],
      "stateMutability": "view",
      "type": "function"
    },
    {
      "inputs": [],
      "name": "sSTB",
      "outputs": [
        {
          "internalType": "contract ISSTB",
          "name": "",
          "type": "address"
        }
      ],
      "stateMutability": "view",
      "type": "function"
    }
  ],
  "bytecode": "0x60806040523480156200001157600080fd5b5033600360006101000a81548173ffffffffffffffffffffffffffffffffffffffff021916908373ffffffffffffffffffffffffffffffffffffffff1602179055503373ffffffffffffffffffffffffffffffffffffffff16600073ffffffffffffffffffffffffffffffffffffffff167f8be0079c531659141344cd1fd0a4f28419497f9722a3daafe3b4186f6b6457e060405160405180910390a3600160048190555061990d80620000c66000396000f3fe608060405234801561001057600080fd5b50600436106104ac5760003560e01c8063887105d31161026d578063c550c36211610151578063de665835116100ce578063e369e4ab11610092578063e369e4ab146125a6578063f36b24251461267e578063f39690e41461269c578063f92d3433146126e6578063fe2ba84814612704578063fefa753d14612748576104ac565b8063de66583514612198578063df349ed5146121f0578063e1f1825014612248578063e2ac77b0146123b4578063e34f6d4414612410576104ac565b8063d5b3563511610115578063d5b3563514611e53578063d66a255314611e95578063d9a7244414611eed578063db5e732114611f5b578063dc3fe76f14612120576104ac565b8063c550c36214611d37578063c617944514611d7b578063c7b5548114611dd3578063cbd138ae14611df1578063d380a37c14611e35576104ac565b80639ba6c3eb116101ea578063b620115d116101ae578063b620115d14611bdd578063ba6e79f714611bfb578063bce3bf9014611c73578063bd5ef3f914611cb7578063c35bc55014611cfb578063c52861f214611d19576104ac565b80639ba6c3eb14611a79578063a04aeabb14611af1578063a20baee614611b49578063a3f4df7e14611b67578063af3700dc14611b85576104ac565b806396755e551161023157806396755e551461171a578063978cdeca1461188657806399723784146118de5780639976cf45146119bf5780639aacf49814611a21576104ac565b8063887105d3146115655780638da5cb5b146115835780638e201a14146115cd5780638f32d59b146116ae57806393dbad28146116d0576104ac565b8063328e1404116103945780635733d58f1161031157806377d95b6a116102d557806377d95b6a146112b95780637837eeeb14611311578063794e5724146114c7578063795d26c3146114e557806382fe3eb91461150357806387dc665614611547576104ac565b80635733d58f146111e35780635d6b480f146112015780635dba4c4a1461124f578063631203b01461125957806366ca4a211461129b576104ac565b806343a124fa1161035857806343a124fa14610fd75780634597997814610ff9578063477d66cf1461101757806349eefeee146110595780634e9de63514611077576104ac565b8063328e140414610cea578063330283aa14610d4257806335a058b414610d705780633735aa2014610e585780633bc8913e14610eb4576104ac565b80631bf435551161042d57806324092669116103f15780632409266914610ba657806327fb7d8914610bc457806328d28b5b14610c1c5780632b11551a14610c3a5780632f86556814610c5857806331bafd9b14610c9c576104ac565b80631bf4355514610a765780631e7ff8f614610a945780631f68f20a14610aec57806321e3780114610b0a57806322962f6514610b62576104ac565b806313312d591161047457806313312d591461076a57806315d02fe61461081657806315d549f11461086e5780631843bf88146108c657806318f2817a14610a32576104ac565b8063048c661d146104b157806305deb90d146104fb5780630b0765571461054557806312610e921461058957806312adf0c2146105eb575b600080fd5b6104b96127a0565b604051808273ffffffffffffffffffffffffffffffffffffffff1673ffffffffffffffffffffffffffffffffffffffff16815260200191505060405180910390f35b6105036127ca565b604051808273ffffffffffffffffffffffffffffffffffffffff1673ffffffffffffffffffffffffffffffffffffffff16815260200191505060405180910390f35b6105876004803603602081101561055b57600080fd5b81019080803573ffffffffffffffffffffffffffffffffffffffff1690602001909291905050506127f4565b005b6105d56004803603604081101561059f57600080fd5b81019080803573ffffffffffffffffffffffffffffffffffffffff1690602001909291908035906020019092919050505061284e565b6040518082815260200191505060405180910390f35b61062d6004803603602081101561060157600080fd5b81019080803573ffffffffffffffffffffffffffffffffffffffff169060200190929190505050612902565b604051808781526020018060200180602001868152602001806020018060200185810385528a818151815260200191508051906020019060200280838360005b8381101561068857808201518184015260208101905061066d565b50505050905001858103845289818151815260200191508051906020019060200280838360005b838110156106ca5780820151818401526020810190506106af565b50505050905001858103835287818151815260200191508051906020019060200280838360005b8381101561070c5780820151818401526020810190506106f1565b50505050905001858103825286818151815260200191508051906020019060200280838360005b8381101561074e578082015181840152602081019050610733565b505050509050019a505050505050505050505060405180910390f35b610814600480360360e081101561078057600080fd5b810190808035906020019092919080359060200190929190803573ffffffffffffffffffffffffffffffffffffffff169060200190929190803573ffffffffffffffffffffffffffffffffffffffff169060200190929190803573ffffffffffffffffffffffffffffffffffffffff1690602001909291908035906020019092919080359060200190929190505050612b00565b005b6108586004803603602081101561082c57600080fd5b81019080803573ffffffffffffffffffffffffffffffffffffffff169060200190929190505050612d07565b6040518082815260200191505060405180910390f35b6108b06004803603602081101561088457600080fd5b81019080803573ffffffffffffffffffffffffffffffffffffffff169060200190929190505050612d33565b6040518082815260200191505060405180910390f35b610a30600480360360608110156108dc57600080fd5b81019080803573ffffffffffffffffffffffffffffffffffffffff1690602001909291908035906020019064010000000081111561091957600080fd5b82018360208201111561092b57600080fd5b8035906020019184602083028401116401000000008311171561094d57600080fd5b919080806020026020016040519081016040528093929190818152602001838360200280828437600081840152601f19601f820116905080830192505050505050509192919290803590602001906401000000008111156109ad57600080fd5b8201836020820111156109bf57600080fd5b803590602001918460208302840111640100000000831117156109e157600080fd5b919080806020026020016040519081016040528093929190818152602001838360200280828437600081840152601f19601f820116905080830192505050505050509192919290505050612d5f565b005b610a7460048036036020811015610a4857600080fd5b81019080803573ffffffffffffffffffffffffffffffffffffffff169060200190929190505050612e2e565b005b610a7e612e42565b6040518082815260200191505060405180910390f35b610ad660048036036020811015610aaa57600080fd5b81019080803573ffffffffffffffffffffffffffffffffffffffff169060200190929190505050612e4f565b6040518082815260200191505060405180910390f35b610af4612e98565b6040518082815260200191505060405180910390f35b610b4c60048036036020811015610b2057600080fd5b81019080803573ffffffffffffffffffffffffffffffffffffffff169060200190929190505050612e9e565b6040518082815260200191505060405180910390f35b610ba460048036036020811015610b7857600080fd5b81019080803573ffffffffffffffffffffffffffffffffffffffff169060200190929190505050612f02565b005b610bae612f18565b6040518082815260200191505060405180910390f35b610c0660048036036020811015610bda57600080fd5b81019080803573ffffffffffffffffffffffffffffffffffffffff169060200190929190505050612f31565b6040518082815260200191505060405180910390f35b610c24612f5d565b6040518082815260200191505060405180910390f35b610c42612f77565b6040518082815260200191505060405180910390f35b610c9a60048036036020811015610c6e57600080fd5b81019080803573ffffffffffffffffffffffffffffffffffffffff169060200190929190505050612f89565b005b610ce860048036036040811015610cb257600080fd5b81019080803573ffffffffffffffffffffffffffffffffffffffff169060200190929190803590602001909291905050506131b5565b005b610d2c60048036036020811015610d0057600080fd5b81019080803573ffffffffffffffffffffffffffffffffffffffff169060200190929190505050613208565b6040518082815260200191505060405180910390f35b610d6e60048036036020811015610d5857600080fd5b8101908080359060200190929190505050613220565b005b610db260048036036020811015610d8657600080fd5b81019080803573ffffffffffffffffffffffffffffffffffffffff1690602001909291905050506132e8565b604051808060200180602001848152602001838103835286818151815260200191508051906020019060200280838360005b83811015610dff578082015181840152602081019050610de4565b50505050905001838103825285818151815260200191508051906020019060200280838360005b83811015610e41578082015181840152602081019050610e26565b505050509050019550505050505060405180910390f35b610e9a60048036036020811015610e6e57600080fd5b81019080803573ffffffffffffffffffffffffffffffffffffffff16906020019092919050505061331e565b604051808215151515815260200191505060405180910390f35b610fd560048036036060811015610eca57600080fd5b8101908080359060200190640100000000811115610ee757600080fd5b820183602082011115610ef957600080fd5b80359060200191846020830284011164010000000083111715610f1b57600080fd5b909192939192939080359060200190640100000000811115610f3c57600080fd5b820183602082011115610f4e57600080fd5b80359060200191846020830284011164010000000083111715610f7057600080fd5b909192939192939080359060200190640100000000811115610f9157600080fd5b820183602082011115610fa357600080fd5b80359060200191846020830284011164010000000083111715610fc557600080fd5b9091929391929390505050613390565b005b610fdf61352b565b604051808215151515815260200191505060405180910390f35b61100161353a565b6040518082815260200191505060405180910390f35b6110436004803603602081101561102d57600080fd5b8101908080359060200190929190505050613593565b6040518082815260200191505060405180910390f35b6110616135ad565b6040518082815260200191505060405180910390f35b6111e16004803603606081101561108d57600080fd5b81019080803573ffffffffffffffffffffffffffffffffffffffff169060200190929190803590602001906401000000008111156110ca57600080fd5b8201836020820111156110dc57600080fd5b803590602001918460208302840111640100000000831117156110fe57600080fd5b919080806020026020016040519081016040528093929190818152602001838360200280828437600081840152601f19601f8201169050808301925050505050505091929192908035906020019064010000000081111561115e57600080fd5b82018360208201111561117057600080fd5b8035906020019184602083028401116401000000008311171561119257600080fd5b919080806020026020016040519081016040528093929190818152602001838360200280828437600081840152601f19601f8201169050808301925050505050505091929192905050506135ba565b005b6111eb6136f2565b6040518082815260200191505060405180910390f35b61124d6004803603604081101561121757600080fd5b81019080803573ffffffffffffffffffffffffffffffffffffffff169060200190929190803590602001909291905050506136fe565b005b611257613778565b005b6112856004803603602081101561126f57600080fd5b8101908080359060200190929190505050613853565b6040518082815260200191505060405180910390f35b6112a361386d565b6040518082815260200191505060405180910390f35b6112fb600480360360208110156112cf57600080fd5b81019080803573ffffffffffffffffffffffffffffffffffffffff169060200190929190505050613884565b6040518082815260200191505060405180910390f35b6114c5600480360360c081101561132757600080fd5b81019080803573ffffffffffffffffffffffffffffffffffffffff169060200190929190803573ffffffffffffffffffffffffffffffffffffffff169060200190929190803590602001909291908035906020019064010000000081111561138e57600080fd5b8201836020820111156113a057600080fd5b803590602001918460208302840111640100000000831117156113c257600080fd5b919080806020026020016040519081016040528093929190818152602001838360200280828437600081840152601f19601f8201169050808301925050505050505091929192908035906020019064010000000081111561142257600080fd5b82018360208201111561143457600080fd5b8035906020019184602083028401116401000000008311171561145657600080fd5b919080806020026020016040519081016040528093929190818152602001838360200280828437600081840152601f19601f820116905080830192505050505050509192919290803573ffffffffffffffffffffffffffffffffffffffff16906020019092919050505061389c565b005b6114cf6138ba565b6040518082815260200191505060405180910390f35b6114ed6138c6565b6040518082815260200191505060405180910390f35b6115456004803603602081101561151957600080fd5b81019080803573ffffffffffffffffffffffffffffffffffffffff169060200190929190505050613a2f565b005b61154f613a43565b6040518082815260200191505060405180910390f35b61156d613a50565b6040518082815260200191505060405180910390f35b61158b613afa565b604051808273ffffffffffffffffffffffffffffffffffffffff1673ffffffffffffffffffffffffffffffffffffffff16815260200191505060405180910390f35b61160f600480360360208110156115e357600080fd5b81019080803573ffffffffffffffffffffffffffffffffffffffff169060200190929190505050613b24565b604051808060200180602001838103835285818151815260200191508051906020019060200280838360005b8381101561165657808201518184015260208101905061163b565b50505050905001838103825284818151815260200191508051906020019060200280838360005b8381101561169857808201518184015260208101905061167d565b5050505090500194505050505060405180910390f35b6116b6613b4e565b604051808215151515815260200191505060405180910390f35b6116d8613ba6565b604051808273ffffffffffffffffffffffffffffffffffffffff1673ffffffffffffffffffffffffffffffffffffffff16815260200191505060405180910390f35b6118846004803603606081101561173057600080fd5b81019080803573ffffffffffffffffffffffffffffffffffffffff1690602001909291908035906020019064010000000081111561176d57600080fd5b82018360208201111561177f57600080fd5b803590602001918460208302840111640100000000831117156117a157600080fd5b919080806020026020016040519081016040528093929190818152602001838360200280828437600081840152601f19601f8201169050808301925050505050505091929192908035906020019064010000000081111561180157600080fd5b82018360208201111561181357600080fd5b8035906020019184602083028401116401000000008311171561183557600080fd5b919080806020026020016040519081016040528093929190818152602001838360200280828437600081840152601f19601f820116905080830192505050505050509192919290505050613bd0565b005b6118c86004803603602081101561189c57600080fd5b81019080803573ffffffffffffffffffffffffffffffffffffffff169060200190929190505050613d28565b6040518082815260200191505060405180910390f35b611920600480360360208110156118f457600080fd5b81019080803573ffffffffffffffffffffffffffffffffffffffff169060200190929190505050613d71565b604051808060200180602001838103835285818151815260200191508051906020019060200280838360005b8381101561196757808201518184015260208101905061194c565b50505050905001838103825284818151815260200191508051906020019060200280838360005b838110156119a957808201518184015260208101905061198e565b5050505090500194505050505060405180910390f35b611a0b600480360360408110156119d557600080fd5b81019080803573ffffffffffffffffffffffffffffffffffffffff16906020019092919080359060200190929190505050613ee1565b6040518082815260200191505060405180910390f35b611a6360048036036020811015611a3757600080fd5b81019080803573ffffffffffffffffffffffffffffffffffffffff169060200190929190505050613f95565b6040518082815260200191505060405180910390f35b611adb60048036036040811015611a8f57600080fd5b81019080803573ffffffffffffffffffffffffffffffffffffffff169060200190929190803573ffffffffffffffffffffffffffffffffffffffff169060200190929190505050613fad565b6040518082815260200191505060405180910390f35b611b3360048036036020811015611b0757600080fd5b81019080803573ffffffffffffffffffffffffffffffffffffffff169060200190929190505050614037565b6040518082815260200191505060405180910390f35b611b51614388565b6040518082815260200191505060405180910390f35b611b6f614394565b6040518082815260200191505060405180910390f35b611bc760048036036020811015611b9b57600080fd5b81019080803573ffffffffffffffffffffffffffffffffffffffff1690602001909291905050506143b8565b6040518082815260200191505060405180910390f35b611be56143d0565b6040518082815260200191505060405180910390f35b611c5d60048036036040811015611c1157600080fd5b81019080803573ffffffffffffffffffffffffffffffffffffffff169060200190929190803573ffffffffffffffffffffffffffffffffffffffff1690602001909291905050506143df565b6040518082815260200191505060405180910390f35b611cb560048036036020811015611c8957600080fd5b81019080803573ffffffffffffffffffffffffffffffffffffffff169060200190929190505050614469565b005b611cf960048036036020811015611ccd57600080fd5b81019080803573ffffffffffffffffffffffffffffffffffffffff16906020019092919050505061447d565b005b611d03614493565b6040518082815260200191505060405180910390f35b611d2161449a565b6040518082815260200191505060405180910390f35b611d7960048036036020811015611d4d57600080fd5b81019080803573ffffffffffffffffffffffffffffffffffffffff1690602001909291905050506144b1565b005b611dbd60048036036020811015611d9157600080fd5b81019080803573ffffffffffffffffffffffffffffffffffffffff1690602001909291905050506144c5565b6040518082815260200191505060405180910390f35b611ddb614609565b6040518082815260200191505060405180910390f35b611e3360048036036020811015611e0757600080fd5b81019080803573ffffffffffffffffffffffffffffffffffffffff169060200190929190505050614615565b005b611e3d61462b565b6040518082815260200191505060405180910390f35b611e7f60048036036020811015611e6957600080fd5b8101908080359060200190929190505050614631565b6040518082815260200191505060405180910390f35b611ed760048036036020811015611eab57600080fd5b81019080803573ffffffffffffffffffffffffffffffffffffffff16906020019092919050505061464b565b6040518082815260200191505060405180910390f35b611f1960048036036020811015611f0357600080fd5b8101908080359060200190929190505050614697565b604051808273ffffffffffffffffffffffffffffffffffffffff1673ffffffffffffffffffffffffffffffffffffffff16815260200191505060405180910390f35b61211e60048036036101a0811015611f7257600080fd5b81019080803573ffffffffffffffffffffffffffffffffffffffff169060200190929190803573ffffffffffffffffffffffffffffffffffffffff169060200190929190803573ffffffffffffffffffffffffffffffffffffffff169060200190929190803573ffffffffffffffffffffffffffffffffffffffff169060200190929190803573ffffffffffffffffffffffffffffffffffffffff169060200190929190803573ffffffffffffffffffffffffffffffffffffffff169060200190929190803573ffffffffffffffffffffffffffffffffffffffff169060200190929190803573ffffffffffffffffffffffffffffffffffffffff169060200190929190803573ffffffffffffffffffffffffffffffffffffffff169060200190929190803573ffffffffffffffffffffffffffffffffffffffff169060200190929190803573ffffffffffffffffffffffffffffffffffffffff169060200190929190803573ffffffffffffffffffffffffffffffffffffffff169060200190929190803573ffffffffffffffffffffffffffffffffffffffff1690602001909291905050506146d8565b005b6121826004803603604081101561213657600080fd5b81019080803573ffffffffffffffffffffffffffffffffffffffff169060200190929190803573ffffffffffffffffffffffffffffffffffffffff169060200190929190505050614b37565b6040518082815260200191505060405180910390f35b6121da600480360360208110156121ae57600080fd5b81019080803573ffffffffffffffffffffffffffffffffffffffff169060200190929190505050614bc1565b6040518082815260200191505060405180910390f35b6122326004803603602081101561220657600080fd5b81019080803573ffffffffffffffffffffffffffffffffffffffff169060200190929190505050614bd9565b6040518082815260200191505060405180910390f35b6123b26004803603606081101561225e57600080fd5b81019080803573ffffffffffffffffffffffffffffffffffffffff1690602001909291908035906020019064010000000081111561229b57600080fd5b8201836020820111156122ad57600080fd5b803590602001918460208302840111640100000000831117156122cf57600080fd5b919080806020026020016040519081016040528093929190818152602001838360200280828437600081840152601f19601f8201169050808301925050505050505091929192908035906020019064010000000081111561232f57600080fd5b82018360208201111561234157600080fd5b8035906020019184602083028401116401000000008311171561236357600080fd5b919080806020026020016040519081016040528093929190818152602001838360200280828437600081840152601f19601f820116905080830192505050505050509192919290505050614bf1565b005b6123f6600480360360208110156123ca57600080fd5b81019080803573ffffffffffffffffffffffffffffffffffffffff169060200190929190505050614f0c565b604051808215151515815260200191505060405180910390f35b6125a4600480360360a081101561242657600080fd5b81019080803573ffffffffffffffffffffffffffffffffffffffff169060200190929190803573ffffffffffffffffffffffffffffffffffffffff169060200190929190803590602001909291908035906020019064010000000081111561248d57600080fd5b82018360208201111561249f57600080fd5b803590602001918460208302840111640100000000831117156124c157600080fd5b919080806020026020016040519081016040528093929190818152602001838360200280828437600081840152601f19601f8201169050808301925050505050505091929192908035906020019064010000000081111561252157600080fd5b82018360208201111561253357600080fd5b8035906020019184602083028401116401000000008311171561255557600080fd5b919080806020026020016040519081016040528093929190818152602001838360200280828437600081840152601f19601f820116905080830192505050505050509192919290505050615167565b005b61267c600480360360408110156125bc57600080fd5b81019080803590602001906401000000008111156125d957600080fd5b8201836020820111156125eb57600080fd5b8035906020019184602083028401116401000000008311171561260d57600080fd5b919080806020026020016040519081016040528093929190818152602001838360200280828437600081840152601f19601f820116905080830192505050505050509192919290803573ffffffffffffffffffffffffffffffffffffffff169060200190929190505050615aa8565b005b612686615c37565b6040518082815260200191505060405180910390f35b6126a4615c49565b604051808273ffffffffffffffffffffffffffffffffffffffff1673ffffffffffffffffffffffffffffffffffffffff16815260200191505060405180910390f35b6126ee615c73565b6040518082815260200191505060405180910390f35b6127466004803603602081101561271a57600080fd5b81019080803573ffffffffffffffffffffffffffffffffffffffff169060200190929190505050615c8d565b005b61278a6004803603602081101561275e57600080fd5b81019080803573ffffffffffffffffffffffffffffffffffffffff169060200190929190505050615ca1565b6040518082815260200191505060405180910390f35b6000600660009054906101000a900473ffffffffffffffffffffffffffffffffffffffff16905090565b6000600960009054906101000a900473ffffffffffffffffffffffffffffffffffffffff16905090565b6127fc615cea565b61284b600160009054906101000a900473ffffffffffffffffffffffffffffffffffffffff16600260009054906101000a900473ffffffffffffffffffffffffffffffffffffffff1683615da6565b50565b600061285861624b565b60006128af83601460008773ffffffffffffffffffffffffffffffffffffffff1673ffffffffffffffffffffffffffffffffffffffff168152602001908152602001600020600201546162ab90919063ffffffff16565b905080601460008673ffffffffffffffffffffffffffffffffffffffff1673ffffffffffffffffffffffffffffffffffffffff168152602001908152602001600020600201819055508091505092915050565b600060608060006060806000601460008973ffffffffffffffffffffffffffffffffffffffff1673ffffffffffffffffffffffffffffffffffffffff16815260200190815260200160002060020154905061295b61977e565b601460008a73ffffffffffffffffffffffffffffffffffffffff1673ffffffffffffffffffffffffffffffffffffffff16815260200190815260200160002060000160405180604001604052908160008201805480602002602001604051908101604052809291908181526020018280548015612a2d57602002820191906000526020600020905b8160009054906101000a900473ffffffffffffffffffffffffffffffffffffffff1673ffffffffffffffffffffffffffffffffffffffff16815260200190600101908083116129e3575b5050505050815260200160018201805480602002602001604051908101604052809291908181526020018280548015612a8557602002820191906000526020600020905b815481526020019060010190808311612a71575b50505050508152505090506000612a9b8a614037565b9050612aa561977e565b612aae8b6162f5565b9050612ac3828561674490919063ffffffff16565b9350612acf83826167cc565b9250838360000151846020015184846000015185602001519950995099509950995099505050505091939550919395565b60026004541415612b79576040517f08c379a000000000000000000000000000000000000000000000000000000000815260040180806020018281038252601f8152602001807f5265656e7472616e637947756172643a207265656e7472616e742063616c6c0081525060200191505060405180910390fd5b6002600481905550600b60009054906101000a900473ffffffffffffffffffffffffffffffffffffffff1673ffffffffffffffffffffffffffffffffffffffff1663c2f6202d88888888888888336040518963ffffffff1660e01b8152600401808981526020018881526020018773ffffffffffffffffffffffffffffffffffffffff1673ffffffffffffffffffffffffffffffffffffffff1681526020018673ffffffffffffffffffffffffffffffffffffffff1673ffffffffffffffffffffffffffffffffffffffff1681526020018573ffffffffffffffffffffffffffffffffffffffff1673ffffffffffffffffffffffffffffffffffffffff1681526020018481526020018381526020018273ffffffffffffffffffffffffffffffffffffffff1673ffffffffffffffffffffffffffffffffffffffff16815260200198505050505050505050600060405180830381600087803b158015612cde57600080fd5b505af1158015612cf2573d6000803e3d6000fd5b50505050600160048190555050505050505050565b6000612d1161977e565b6000612d1c84616e78565b91509150612d2a828261703e565b92505050919050565b6000612d3d61624b565b612d468261705f565b6fffffffffffffffffffffffffffffffff169050919050565b612d6761715d565b8181601460008673ffffffffffffffffffffffffffffffffffffffff1673ffffffffffffffffffffffffffffffffffffffff1681526020019081526020016000206000016000016000601460008873ffffffffffffffffffffffffffffffffffffffff1673ffffffffffffffffffffffffffffffffffffffff1681526020019081526020016000206000016001016000849190509080519060200190612e0e929190619798565b50839190509080519060200190612e269291906197e5565b505050505050565b612e36615cea565b612e3f816171bd565b50565b68056bc75e2d6310000081565b6000601560008373ffffffffffffffffffffffffffffffffffffffff1673ffffffffffffffffffffffffffffffffffffffff168152602001908152602001600020549050919050565b60125481565b6000601460008373ffffffffffffffffffffffffffffffffffffffff1673ffffffffffffffffffffffffffffffffffffffff16815260200190815260200160002060040160009054906101000a900460ff166004811115612efb57fe5b9050919050565b612f0a61756e565b612f158160036175ce565b50565b60056064670de0b6b3a764000081612f2c57fe5b040281565b6000612f3b61977e565b6000612f4684616e78565b91509150612f548282617a9d565b92505050919050565b60056103e8670de0b6b3a764000081612f7257fe5b040281565b6000612f84601254617abe565b905090565b60026004541415613002576040517f08c379a000000000000000000000000000000000000000000000000000000000815260040180806020018281038252601f8152602001807f5265656e7472616e637947756172643a207265656e7472616e742063616c6c0081525060200191505060405180910390fd5b600260048190555061301381617b01565b6060600167ffffffffffffffff8111801561302d57600080fd5b5060405190808252806020026020018201604052801561305c5781602001602082028036833780820191505090505b509050818160008151811061306d57fe5b602002602001019073ffffffffffffffffffffffffffffffffffffffff16908173ffffffffffffffffffffffffffffffffffffffff1681525050600c60009054906101000a900473ffffffffffffffffffffffffffffffffffffffff1673ffffffffffffffffffffffffffffffffffffffff1663e369e4ab82336040518363ffffffff1660e01b815260040180806020018373ffffffffffffffffffffffffffffffffffffffff1673ffffffffffffffffffffffffffffffffffffffff168152602001828103825284818151815260200191508051906020019060200280838360005b8381101561316b578082015181840152602081019050613150565b505050509050019350505050600060405180830381600087803b15801561319157600080fd5b505af11580156131a5573d6000803e3d6000fd5b5050505050600160048190555050565b6131bd61715d565b80601460008473ffffffffffffffffffffffffffffffffffffffff1673ffffffffffffffffffffffffffffffffffffffff168152602001908152602001600020600201819055505050565b601c6020528060005260406000206000915090505481565b61322861715d565b600081141561329f576040517f08c379a000000000000000000000000000000000000000000000000000000000815260040180806020018281038252601b8152602001807f544d3a206e65774261736552617465206d757374206265203e2030000000000081525060200191505060405180910390fd5b806012819055507fc454ee9b76c52f782a256af821b857ca6e125d1e3333bcede402fec2bed9600c816040518082815260200191505060405180910390a16132e5617bdf565b50565b60608060006132f561977e565b600061330086616e78565b91509150816000015182602001518294509450945050509193909250565b60006001600481111561332d57fe5b601460008473ffffffffffffffffffffffffffffffffffffffff1673ffffffffffffffffffffffffffffffffffffffff16815260200190815260200160002060040160009054906101000a900460ff16600481111561338857fe5b149050919050565b6000848490509050808787905014613410576040517f08c379a000000000000000000000000000000000000000000000000000000000815260040180806020018281038252601d8152602001807f544d3a20626f72726f77657273206c656e677468206d69736d6174636800000081525060200191505060405180910390fd5b828290508114613488576040517f08c379a00000000000000000000000000000000000000000000000000000000081526004018080602001828103825260198152602001807f544d3a2068696e7473206c656e677468206d69736d617463680000000000000081525060200191505060405180910390fd5b60005b81811015613521576135168888838181106134a257fe5b9050602002013573ffffffffffffffffffffffffffffffffffffffff168787848181106134cb57fe5b9050602002013573ffffffffffffffffffffffffffffffffffffffff168686858181106134f457fe5b9050602002013573ffffffffffffffffffffffffffffffffffffffff16617c42565b80600101905061348b565b5050505050505050565b6000613535617db4565b905090565b600080613545617dcd565b9050600061355b670ddd4b8c6c7d70d883617dfc565b905061358c670de0b6b3a764000061357e83601254617ee390919063ffffffff16565b617f8690919063ffffffff16565b9250505090565b60006135a66135a061386d565b83617fd0565b9050919050565b6000601b80549050905090565b6135c261624b565b8051825114613639576040517f08c379a00000000000000000000000000000000000000000000000000000000081526004018080602001828103825260138152602001807f544d3a206c656e677468206d69736d617463680000000000000000000000000081525060200191505060405180910390fd5b81601460008573ffffffffffffffffffffffffffffffffffffffff1673ffffffffffffffffffffffffffffffffffffffff16815260200190815260200160002060000160000190805190602001906136929291906197e5565b5080601460008573ffffffffffffffffffffffffffffffffffffffff1673ffffffffffffffffffffffffffffffffffffffff16815260200190815260200160002060000160010190805190602001906136ec929190619798565b50505050565b6714d1120d7b16000081565b61370661624b565b80600481111561371257fe5b601460008473ffffffffffffffffffffffffffffffffffffffff1673ffffffffffffffffffffffffffffffffffffffff16815260200190815260200160002060040160006101000a81548160ff0219169083600481111561376f57fe5b02179055505050565b61378061624b565b600061378a61353a565b9050670de0b6b3a764000081111561380a576040517f08c379a000000000000000000000000000000000000000000000000000000000815260040180806020018281038252601f8152602001807f544d3a20646563617965642062617365207261746520746f6f20736d616c6c0081525060200191505060405180910390fd5b806012819055507fc454ee9b76c52f782a256af821b857ca6e125d1e3333bcede402fec2bed9600c816040518082815260200191505060405180910390a1613850617bdf565b50565b6000613866613860615c37565b83617fd0565b9050919050565b600061387f61387a61353a565b618007565b905090565b60196020528060005260406000206000915090505481565b6138a461756e565b6138b2868686868686618057565b505050505050565b670f43fc2c04ee000081565b600080600160009054906101000a900473ffffffffffffffffffffffffffffffffffffffff1673ffffffffffffffffffffffffffffffffffffffff1663c24103646040518163ffffffff1660e01b815260040160206040518083038186803b15801561393157600080fd5b505afa158015613945573d6000803e3d6000fd5b505050506040513d602081101561395b57600080fd5b810190808051906020019092919050505090506000600260009054906101000a900473ffffffffffffffffffffffffffffffffffffffff1673ffffffffffffffffffffffffffffffffffffffff1663c24103646040518163ffffffff1660e01b815260040160206040518083038186803b1580156139d857600080fd5b505afa1580156139ec573d6000803e3d6000fd5b505050506040513d6020811015613a0257600080fd5b81019080805190602001909291905050509050613a28818361674490919063ffffffff16565b9250505090565b613a3761624b565b613a408161825e565b50565b6802b5e3af16b188000081565b6000600160009054906101000a900473ffffffffffffffffffffffffffffffffffffffff1673ffffffffffffffffffffffffffffffffffffffff1663651340c46040518163ffffffff1660e01b815260040160206040518083038186803b158015613aba57600080fd5b505afa158015613ace573d6000803e3d6000fd5b505050506040513d6020811015613ae457600080fd5b8101908080519060200190929190505050905090565b6000600360009054906101000a900473ffffffffffffffffffffffffffffffffffffffff16905090565b606080613b2f61977e565b613b38846162f5565b9050806000015181602001519250925050915091565b6000600360009054906101000a900473ffffffffffffffffffffffffffffffffffffffff1673ffffffffffffffffffffffffffffffffffffffff163373ffffffffffffffffffffffffffffffffffffffff1614905090565b6000600a60009054906101000a900473ffffffffffffffffffffffffffffffffffffffff16905090565b613bd861756e565b601160009054906101000a900473ffffffffffffffffffffffffffffffffffffffff1673ffffffffffffffffffffffffffffffffffffffff16639efc9e208484846040518463ffffffff1660e01b8152600401808473ffffffffffffffffffffffffffffffffffffffff1673ffffffffffffffffffffffffffffffffffffffff1681526020018060200180602001838103835285818151815260200191508051906020019060200280838360005b83811015613ca1578082015181840152602081019050613c86565b50505050905001838103825284818151815260200191508051906020019060200280838360005b83811015613ce3578082015181840152602081019050613cc8565b5050505090500195505050505050600060405180830381600087803b158015613d0b57600080fd5b505af1158015613d1f573d6000803e3d6000fd5b50505050505050565b6000601960008373ffffffffffffffffffffffffffffffffffffffff1673ffffffffffffffffffffffffffffffffffffffff168152602001908152602001600020549050919050565b606080601460008473ffffffffffffffffffffffffffffffffffffffff1673ffffffffffffffffffffffffffffffffffffffff168152602001908152602001600020600001600001601460008573ffffffffffffffffffffffffffffffffffffffff1673ffffffffffffffffffffffffffffffffffffffff16815260200190815260200160002060000160010181805480602002602001604051908101604052809291908181526020018280548015613e7f57602002820191906000526020600020905b8160009054906101000a900473ffffffffffffffffffffffffffffffffffffffff1673ffffffffffffffffffffffffffffffffffffffff1681526020019060010190808311613e35575b5050505050915080805480602002602001604051908101604052809291908181526020018280548015613ed157602002820191906000526020600020905b815481526020019060010190808311613ebd575b5050505050905091509150915091565b6000613eeb61624b565b6000613f4283601460008773ffffffffffffffffffffffffffffffffffffffff1673ffffffffffffffffffffffffffffffffffffffff1681526020019081526020016000206002015461674490919063ffffffff16565b905080601460008673ffffffffffffffffffffffffffffffffffffffff1673ffffffffffffffffffffffffffffffffffffffff168152602001908152602001600020600201819055508091505092915050565b601d6020528060005260406000206000915090505481565b6000601a60008473ffffffffffffffffffffffffffffffffffffffff1673ffffffffffffffffffffffffffffffffffffffff16815260200190815260200160002060010160008373ffffffffffffffffffffffffffffffffffffffff1673ffffffffffffffffffffffffffffffffffffffff16815260200190815260200160002054905092915050565b60006001600481111561404657fe5b601460008473ffffffffffffffffffffffffffffffffffffffff1673ffffffffffffffffffffffffffffffffffffffff16815260200190815260200160002060040160009054906101000a900460ff1660048111156140a157fe5b146140af5760009050614383565b6060601460008473ffffffffffffffffffffffffffffffffffffffff1673ffffffffffffffffffffffffffffffffffffffff16815260200190815260200160002060000160000180548060200260200160405190810160405280929190818152602001828054801561417657602002820191906000526020600020905b8160009054906101000a900473ffffffffffffffffffffffffffffffffffffffff1673ffffffffffffffffffffffffffffffffffffffff168152602001906001019080831161412c575b5050505050905060008151905060005b8181101561437f57600083828151811061419c57fe5b602002602001015190506000601a60008873ffffffffffffffffffffffffffffffffffffffff1673ffffffffffffffffffffffffffffffffffffffff16815260200190815260200160002060010160008373ffffffffffffffffffffffffffffffffffffffff1673ffffffffffffffffffffffffffffffffffffffff1681526020019081526020016000205490506000614291826019600089888151811061424057fe5b602002602001015173ffffffffffffffffffffffffffffffffffffffff1673ffffffffffffffffffffffffffffffffffffffff168152602001908152602001600020546162ab90919063ffffffff16565b905060008114156142a457505050614374565b6000601460008a73ffffffffffffffffffffffffffffffffffffffff1673ffffffffffffffffffffffffffffffffffffffff16815260200190815260200160002060030160008573ffffffffffffffffffffffffffffffffffffffff1673ffffffffffffffffffffffffffffffffffffffff1681526020019081526020016000205490506000614357670de0b6b3a76400006143498585617ee390919063ffffffff16565b617f8690919063ffffffff16565b905061436c818a61674490919063ffffffff16565b985050505050505b806001019050614186565b5050505b919050565b670de0b6b3a764000081565b7f54726f76654d616e61676572000000000000000000000000000000000000000081565b60166020528060005260406000206000915090505481565b60006143da618524565b905090565b6000601a60008473ffffffffffffffffffffffffffffffffffffffff1673ffffffffffffffffffffffffffffffffffffffff16815260200190815260200160002060000160008373ffffffffffffffffffffffffffffffffffffffff1673ffffffffffffffffffffffffffffffffffffffff16815260200190815260200160002054905092915050565b61447161756e565b61447a816185f3565b50565b61448561715d565b6144908160046175ce565b50565b6212750081565b60006144ac6144a761353a565b617abe565b905090565b6144b961715d565b6144c2816185f3565b50565b6000614602601460008473ffffffffffffffffffffffffffffffffffffffff1673ffffffffffffffffffffffffffffffffffffffff1681526020019081526020016000206000016040518060400160405290816000820180548060200260200160405190810160405280929190818152602001828054801561459c57602002820191906000526020600020905b8160009054906101000a900473ffffffffffffffffffffffffffffffffffffffff1673ffffffffffffffffffffffffffffffffffffffff1681526020019060010190808311614552575b50505050508152602001600182018054806020026020016040519081016040528092919081815260200182805480156145f457602002820191906000526020600020905b8154815260200190600101908083116145e0575b50505050508152505061889b565b9050919050565b670ddd4b8c6c7d70d881565b61461d61624b565b6146288160026175ce565b50565b60135481565b600061464461463e61449a565b836189e3565b9050919050565b6000601460008373ffffffffffffffffffffffffffffffffffffffff1673ffffffffffffffffffffffffffffffffffffffff168152602001908152602001600020600201549050919050565b6000601b82815481106146a657fe5b9060005260206000200160009054906101000a900473ffffffffffffffffffffffffffffffffffffffff169050919050565b6146e0613b4e565b614752576040517f08c379a000000000000000000000000000000000000000000000000000000000815260040180806020018281038252600e8152602001807f43616c6c65724e6f744f776e657200000000000000000000000000000000000081525060200191505060405180910390fd5b8c600560006101000a81548173ffffffffffffffffffffffffffffffffffffffff021916908373ffffffffffffffffffffffffffffffffffffffff1602179055508b600160006101000a81548173ffffffffffffffffffffffffffffffffffffffff021916908373ffffffffffffffffffffffffffffffffffffffff1602179055508a600260006101000a81548173ffffffffffffffffffffffffffffffffffffffff021916908373ffffffffffffffffffffffffffffffffffffffff16021790555089600660006101000a81548173ffffffffffffffffffffffffffffffffffffffff021916908373ffffffffffffffffffffffffffffffffffffffff160217905550826000806101000a81548173ffffffffffffffffffffffffffffffffffffffff021916908373ffffffffffffffffffffffffffffffffffffffff16021790555088600d60006101000a81548173ffffffffffffffffffffffffffffffffffffffff021916908373ffffffffffffffffffffffffffffffffffffffff16021790555087601160006101000a81548173ffffffffffffffffffffffffffffffffffffffff021916908373ffffffffffffffffffffffffffffffffffffffff16021790555086600860006101000a81548173ffffffffffffffffffffffffffffffffffffffff021916908373ffffffffffffffffffffffffffffffffffffffff16021790555085601060006101000a81548173ffffffffffffffffffffffffffffffffffffffff021916908373ffffffffffffffffffffffffffffffffffffffff16021790555084600960006101000a81548173ffffffffffffffffffffffffffffffffffffffff021916908373ffffffffffffffffffffffffffffffffffffffff16021790555083600a60006101000a81548173ffffffffffffffffffffffffffffffffffffffff021916908373ffffffffffffffffffffffffffffffffffffffff16021790555081600e60006101000a81548173ffffffffffffffffffffffffffffffffffffffff021916908373ffffffffffffffffffffffffffffffffffffffff16021790555080600f60006101000a81548173ffffffffffffffffffffffffffffffffffffffff021916908373ffffffffffffffffffffffffffffffffffffffff16021790555081600b60006101000a81548173ffffffffffffffffffffffffffffffffffffffff021916908373ffffffffffffffffffffffffffffffffffffffff16021790555080600c60006101000a81548173ffffffffffffffffffffffffffffffffffffffff021916908373ffffffffffffffffffffffffffffffffffffffff160217905550614b28618a94565b50505050505050505050505050565b6000601460008473ffffffffffffffffffffffffffffffffffffffff1673ffffffffffffffffffffffffffffffffffffffff16815260200190815260200160002060030160008373ffffffffffffffffffffffffffffffffffffffff1673ffffffffffffffffffffffffffffffffffffffff16815260200190815260200160002054905092915050565b60176020528060005260406000206000915090505481565b60156020528060005260406000206000915090505481565b614bf961756e565b60008251905060005b81811015614ece576000848281518110614c1857fe5b60200260200101519050601560008273ffffffffffffffffffffffffffffffffffffffff1673ffffffffffffffffffffffffffffffffffffffff16815260200190815260200160002054601660008373ffffffffffffffffffffffffffffffffffffffff1673ffffffffffffffffffffffffffffffffffffffff168152602001908152602001600020819055506000848381518110614cb357fe5b6020026020010151905060008773ffffffffffffffffffffffffffffffffffffffff16639b56d6c9846040518263ffffffff1660e01b8152600401808273ffffffffffffffffffffffffffffffffffffffff1673ffffffffffffffffffffffffffffffffffffffff16815260200191505060206040518083038186803b158015614d3c57600080fd5b505afa158015614d50573d6000803e3d6000fd5b505050506040513d6020811015614d6657600080fd5b810190808051906020019092919050505090506000600260009054906101000a900473ffffffffffffffffffffffffffffffffffffffff1673ffffffffffffffffffffffffffffffffffffffff16639b56d6c9856040518263ffffffff1660e01b8152600401808273ffffffffffffffffffffffffffffffffffffffff1673ffffffffffffffffffffffffffffffffffffffff16815260200191505060206040518083038186803b158015614e1a57600080fd5b505afa158015614e2e573d6000803e3d6000fd5b505050506040513d6020811015614e4457600080fd5b81019080805190602001909291905050509050614e7c81614e6e85856162ab90919063ffffffff16565b61674490919063ffffffff16565b601760008673ffffffffffffffffffffffffffffffffffffffff1673ffffffffffffffffffffffffffffffffffffffff1681526020019081526020016000208190555050505050806001019050614c02565b507f523f4c1c183d46bec16040588c9c0aee1cbce44d14a4499539c18ef5761b6c3d426040518082815260200191505060405180910390a150505050565b600060016004811115614f1b57fe5b601460008473ffffffffffffffffffffffffffffffffffffffff1673ffffffffffffffffffffffffffffffffffffffff16815260200190815260200160002060040160009054906101000a900460ff166004811115614f7657fe5b14614f845760009050615162565b6060601460008473ffffffffffffffffffffffffffffffffffffffff1673ffffffffffffffffffffffffffffffffffffffff16815260200190815260200160002060000160000180548060200260200160405190810160405280929190818152602001828054801561504b57602002820191906000526020600020905b8160009054906101000a900473ffffffffffffffffffffffffffffffffffffffff1673ffffffffffffffffffffffffffffffffffffffff1681526020019060010190808311615001575b5050505050905060008151905060005b8181101561515a57600083828151811061507157fe5b60200260200101519050601860008273ffffffffffffffffffffffffffffffffffffffff1673ffffffffffffffffffffffffffffffffffffffff16815260200190815260200160002054601a60008873ffffffffffffffffffffffffffffffffffffffff1673ffffffffffffffffffffffffffffffffffffffff16815260200190815260200160002060000160008373ffffffffffffffffffffffffffffffffffffffff1673ffffffffffffffffffffffffffffffffffffffff16815260200190815260200160002054101561514e576001945050505050615162565b5080600101905061505b565b506000925050505b919050565b61516f61756e565b600082519050815181146151eb576040517f08c379a00000000000000000000000000000000000000000000000000000000081526004018080602001828103825260168152602001807f544d3a206c656e20746f6b656e7320616d6f756e74730000000000000000000081525060200191505060405180910390fd5b60008414156151fa5750615aa1565b60006152068484618b55565b905060005b8281101561589e57600085828151811061522157fe5b60200260200101519050600085838151811061523957fe5b6020026020010151905060008060009054906101000a900473ffffffffffffffffffffffffffffffffffffffff1673ffffffffffffffffffffffffffffffffffffffff16632e2b1a8884846040518363ffffffff1660e01b8152600401808373ffffffffffffffffffffffffffffffffffffffff1673ffffffffffffffffffffffffffffffffffffffff1681526020018281526020019250505060206040518083038186803b1580156152eb57600080fd5b505afa1580156152ff573d6000803e3d6000fd5b505050506040513d602081101561531557600080fd5b81019080805190602001909291905050509050600061534f866153418c85617ee390919063ffffffff16565b617f8690919063ffffffff16565b905060008473ffffffffffffffffffffffffffffffffffffffff1663313ce5676040518163ffffffff1660e01b815260040160206040518083038186803b15801561539957600080fd5b505afa1580156153ad573d6000803e3d6000fd5b505050506040513d60208110156153c357600080fd5b810190808051906020019092919050505060ff1690506000615442601c60008873ffffffffffffffffffffffffffffffffffffffff1673ffffffffffffffffffffffffffffffffffffffff1681526020019081526020016000205461543484600a0a88617ee390919063ffffffff16565b61674490919063ffffffff16565b905060006154b2601d60008973ffffffffffffffffffffffffffffffffffffffff1673ffffffffffffffffffffffffffffffffffffffff168152602001908152602001600020546154a4670de0b6b3a764000087617ee390919063ffffffff16565b61674490919063ffffffff16565b90506000601560008973ffffffffffffffffffffffffffffffffffffffff1673ffffffffffffffffffffffffffffffffffffffff168152602001908152602001600020541461588c576000601560008973ffffffffffffffffffffffffffffffffffffffff1673ffffffffffffffffffffffffffffffffffffffff16815260200190815260200160002054905060006155548285617f8690919063ffffffff16565b9050600061558361557487601203600a0a85617ee390919063ffffffff16565b85617f8690919063ffffffff16565b90506155aa61559b8484617ee390919063ffffffff16565b866162ab90919063ffffffff16565b601c60008c73ffffffffffffffffffffffffffffffffffffffff1673ffffffffffffffffffffffffffffffffffffffff1681526020019081526020016000208190555061562a61561b61560c88601203600a0a86617ee390919063ffffffff16565b83617ee390919063ffffffff16565b856162ab90919063ffffffff16565b601d60008c73ffffffffffffffffffffffffffffffffffffffff1673ffffffffffffffffffffffffffffffffffffffff168152602001908152602001600020819055506156bf82601860008d73ffffffffffffffffffffffffffffffffffffffff1673ffffffffffffffffffffffffffffffffffffffff1681526020019081526020016000205461674490919063ffffffff16565b601860008c73ffffffffffffffffffffffffffffffffffffffff1673ffffffffffffffffffffffffffffffffffffffff1681526020019081526020016000208190555061575481601960008d73ffffffffffffffffffffffffffffffffffffffff1673ffffffffffffffffffffffffffffffffffffffff1681526020019081526020016000205461674490919063ffffffff16565b601960008c73ffffffffffffffffffffffffffffffffffffffff1673ffffffffffffffffffffffffffffffffffffffff168152602001908152602001600020819055507f6f63d00bdf85957664165c9e20900aabd5a17378cb5c0955ce760e48a6ae48c78a601860008d73ffffffffffffffffffffffffffffffffffffffff1673ffffffffffffffffffffffffffffffffffffffff16815260200190815260200160002054601960008e73ffffffffffffffffffffffffffffffffffffffff1673ffffffffffffffffffffffffffffffffffffffff16815260200190815260200160002054604051808473ffffffffffffffffffffffffffffffffffffffff1673ffffffffffffffffffffffffffffffffffffffff168152602001838152602001828152602001935050505060405180910390a15050505b5050505050505080600101905061520b565b508673ffffffffffffffffffffffffffffffffffffffff1663eae6f908866040518263ffffffff1660e01b815260040180828152602001915050600060405180830381600087803b1580156158f257600080fd5b505af1158015615906573d6000803e3d6000fd5b505050508573ffffffffffffffffffffffffffffffffffffffff1663949f5c03866040518263ffffffff1660e01b815260040180828152602001915050600060405180830381600087803b15801561595d57600080fd5b505af1158015615971573d6000803e3d6000fd5b505050508673ffffffffffffffffffffffffffffffffffffffff1663d0d8c20d8786866040518463ffffffff1660e01b8152600401808473ffffffffffffffffffffffffffffffffffffffff1673ffffffffffffffffffffffffffffffffffffffff1681526020018060200180602001838103835285818151815260200191508051906020019060200280838360005b83811015615a1c578082015181840152602081019050615a01565b50505050905001838103825284818151815260200191508051906020019060200280838360005b83811015615a5e578082015181840152602081019050615a43565b5050505090500195505050505050600060405180830381600087803b158015615a8657600080fd5b505af1158015615a9a573d6000803e3d6000fd5b5050505050505b5050505050565b60026004541415615b21576040517f08c379a000000000000000000000000000000000000000000000000000000000815260040180806020018281038252601f8152602001807f5265656e7472616e637947756172643a207265656e7472616e742063616c6c0081525060200191505060405180910390fd5b6002600481905550600c60009054906101000a900473ffffffffffffffffffffffffffffffffffffffff1673ffffffffffffffffffffffffffffffffffffffff1663e369e4ab83836040518363ffffffff1660e01b815260040180806020018373ffffffffffffffffffffffffffffffffffffffff1673ffffffffffffffffffffffffffffffffffffffff168152602001828103825284818151815260200191508051906020019060200280838360005b83811015615bed578082015181840152602081019050615bd2565b505050509050019350505050600060405180830381600087803b158015615c1357600080fd5b505af1158015615c27573d6000803e3d6000fd5b5050505060016004819055505050565b6000615c44601254618007565b905090565b6000600860009054906101000a900473ffffffffffffffffffffffffffffffffffffffff16905090565b60056103e8670de0b6b3a764000081615c8857fe5b040281565b615c9561624b565b615c9e816185f3565b50565b6000601860008373ffffffffffffffffffffffffffffffffffffffff1673ffffffffffffffffffffffffffffffffffffffff168152602001908152602001600020549050919050565b600560009054906101000a900473ffffffffffffffffffffffffffffffffffffffff1673ffffffffffffffffffffffffffffffffffffffff163373ffffffffffffffffffffffffffffffffffffffff1614158015615d965750600e60009054906101000a900473ffffffffffffffffffffffffffffffffffffffff1673ffffffffffffffffffffffffffffffffffffffff163373ffffffffffffffffffffffffffffffffffffffff1614155b15615da457615da3618c96565b5b565b615daf81614f0c565b1561624657615dbd81617b01565b615dc561977e565b615dce826162f5565b90506000615ddb83614037565b9050615f19601460008573ffffffffffffffffffffffffffffffffffffffff1673ffffffffffffffffffffffffffffffffffffffff16815260200190815260200160002060000160405180604001604052908160008201805480602002602001604051908101604052809291908181526020018280548015615eb257602002820191906000526020600020905b8160009054906101000a900473ffffffffffffffffffffffffffffffffffffffff1673ffffffffffffffffffffffffffffffffffffffff1681526020019060010190808311615e68575b5050505050815260200160018201805480602002602001604051908101604052809291908181526020018280548015615f0a57602002820191906000526020600020905b815481526020019060010190808311615ef6575b505050505081525050836167cc565b601460008573ffffffffffffffffffffffffffffffffffffffff1673ffffffffffffffffffffffffffffffffffffffff1681526020019081526020016000206000016000820151816000019080519060200190615f779291906197e5565b506020820151816001019080519060200190615f94929190619798565b50905050615fed81601460008673ffffffffffffffffffffffffffffffffffffffff1673ffffffffffffffffffffffffffffffffffffffff1681526020019081526020016000206002015461674490919063ffffffff16565b601460008573ffffffffffffffffffffffffffffffffffffffff1673ffffffffffffffffffffffffffffffffffffffff1681526020019081526020016000206002018190555061603c8361825e565b6160528585838560000151866020015188618057565b8273ffffffffffffffffffffffffffffffffffffffff167f98c96bbf8d2aa6be678259387225d169084fca483ed9598bde8ea258036bcacf601460008673ffffffffffffffffffffffffffffffffffffffff1673ffffffffffffffffffffffffffffffffffffffff16815260200190815260200160002060020154601460008773ffffffffffffffffffffffffffffffffffffffff1673ffffffffffffffffffffffffffffffffffffffff168152602001908152602001600020600001600001601460008873ffffffffffffffffffffffffffffffffffffffff1673ffffffffffffffffffffffffffffffffffffffff168152602001908152602001600020600001600101600060405180858152602001806020018060200184600381111561617757fe5b60ff16815260200183810383528681815481526020019150805480156161f257602002820191906000526020600020905b8160009054906101000a900473ffffffffffffffffffffffffffffffffffffffff1673ffffffffffffffffffffffffffffffffffffffff16815260200190600101908083116161a8575b5050838103825285818154815260200191508054801561623157602002820191906000526020600020905b81548152602001906001019080831161621d575b5050965050505050505060405180910390a250505b505050565b600560009054906101000a900473ffffffffffffffffffffffffffffffffffffffff1673ffffffffffffffffffffffffffffffffffffffff163373ffffffffffffffffffffffffffffffffffffffff16146162a9576162a8618c96565b5b565b60006162ed83836040518060400160405280600c81526020017f737562206f766572666c6f770000000000000000000000000000000000000000815250618d04565b905092915050565b6162fd61977e565b6001600481111561630a57fe5b601460008473ffffffffffffffffffffffffffffffffffffffff1673ffffffffffffffffffffffffffffffffffffffff16815260200190815260200160002060040160009054906101000a900460ff16600481111561636557fe5b1461637b5761637261977e565b8091505061673f565b6060601460008473ffffffffffffffffffffffffffffffffffffffff1673ffffffffffffffffffffffffffffffffffffffff16815260200190815260200160002060000160000180548060200260200160405190810160405280929190818152602001828054801561644257602002820191906000526020600020905b8160009054906101000a900473ffffffffffffffffffffffffffffffffffffffff1673ffffffffffffffffffffffffffffffffffffffff16815260200190600101908083116163f8575b50505050509050805167ffffffffffffffff8111801561646157600080fd5b506040519080825280602002602001820160405280156164905781602001602082028036833780820191505090505b50826020018190525080826000018190525060008151905060005b8181101561673b5760008382815181106164c157fe5b602002602001015190506000601a60008873ffffffffffffffffffffffffffffffffffffffff1673ffffffffffffffffffffffffffffffffffffffff16815260200190815260200160002060000160008373ffffffffffffffffffffffffffffffffffffffff1673ffffffffffffffffffffffffffffffffffffffff16815260200190815260200160002054905060006165a382601860008673ffffffffffffffffffffffffffffffffffffffff1673ffffffffffffffffffffffffffffffffffffffff168152602001908152602001600020546162ab90919063ffffffff16565b905060008114156165d4576000876020015185815181106165c057fe5b602002602001018181525050505050616730565b6000601460008a73ffffffffffffffffffffffffffffffffffffffff1673ffffffffffffffffffffffffffffffffffffffff16815260200190815260200160002060030160008573ffffffffffffffffffffffffffffffffffffffff1673ffffffffffffffffffffffffffffffffffffffff16815260200190815260200160002054905060008473ffffffffffffffffffffffffffffffffffffffff1663313ce5676040518163ffffffff1660e01b815260040160206040518083038186803b1580156166a057600080fd5b505afa1580156166b4573d6000803e3d6000fd5b505050506040513d60208110156166ca57600080fd5b810190808051906020019092919050505060ff169050600061670a82600a0a6166fc8686617ee390919063ffffffff16565b617f8690919063ffffffff16565b9050808a60200151888151811061671d57fe5b6020026020010181815250505050505050505b8060010190506164ab565b5050505b919050565b6000808284019050838110156167c2576040517f08c379a000000000000000000000000000000000000000000000000000000000815260040180806020018281038252600c8152602001807f616464206f766572666c6f77000000000000000000000000000000000000000081525060200191505060405180910390fd5b8091505092915050565b6167d461977e565b6000826000015151905060008114156167f05783915050616e72565b6167f861977e565b6000809054906101000a900473ffffffffffffffffffffffffffffffffffffffff1673ffffffffffffffffffffffffffffffffffffffff16639d6aea0a6040518163ffffffff1660e01b815260040160006040518083038186803b15801561685f57600080fd5b505afa158015616873573d6000803e3d6000fd5b505050506040513d6000823e3d601f19601f82011682018060405250602081101561689d57600080fd5b81019080805160405193929190846401000000008211156168bd57600080fd5b838201915060208201858111156168d357600080fd5b82518660208202830111640100000000821117156168f057600080fd5b8083526020830192505050908051906020019060200280838360005b8381101561692757808201518184015260208101905061690c565b50505050905001604052505050816000018190525060008560000151519050600082600001515190508067ffffffffffffffff8111801561696757600080fd5b506040519080825280602002602001820160405280156169965781602001602082028036833780820191505090505b5083602001819052506000805b83811015616b075760008060009054906101000a900473ffffffffffffffffffffffffffffffffffffffff1673ffffffffffffffffffffffffffffffffffffffff1663b31610db8b6000015184815181106169fa57fe5b60200260200101516040518263ffffffff1660e01b8152600401808273ffffffffffffffffffffffffffffffffffffffff1673ffffffffffffffffffffffffffffffffffffffff16815260200191505060206040518083038186803b158015616a6257600080fd5b505afa158015616a76573d6000803e3d6000fd5b505050506040513d6020811015616a8c57600080fd5b8101908080519060200190929190505050905060008a602001518381518110616ab157fe5b602002602001015114616afb57828060010193505089602001518281518110616ad657fe5b602002602001015186602001518281518110616aee57fe5b6020026020010181815250505b508060010190506169a3565b5060005b85811015616cf25760008060009054906101000a900473ffffffffffffffffffffffffffffffffffffffff1673ffffffffffffffffffffffffffffffffffffffff1663b31610db8a600001518481518110616b6257fe5b60200260200101516040518263ffffffff1660e01b8152600401808273ffffffffffffffffffffffffffffffffffffffff1673ffffffffffffffffffffffffffffffffffffffff16815260200191505060206040518083038186803b158015616bca57600080fd5b505afa158015616bde573d6000803e3d6000fd5b505050506040513d6020811015616bf457600080fd5b81019080805190602001909291905050509050600089602001518381518110616c1957fe5b602002602001015114616ce657600086602001518281518110616c3857fe5b60200260200101511415616c875788602001518281518110616c5657fe5b602002602001015186602001518281518110616c6e57fe5b6020026020010181815250508280600101935050616ce5565b616cc889602001518381518110616c9a57fe5b602002602001015187602001518381518110616cb257fe5b602002602001015161674490919063ffffffff16565b86602001518281518110616cd857fe5b6020026020010181815250505b5b50806001019050616b0b565b5060608167ffffffffffffffff81118015616d0c57600080fd5b50604051908082528060200260200182016040528015616d3b5781602001602082028036833780820191505090505b50905060608267ffffffffffffffff81118015616d5757600080fd5b50604051908082528060200260200182016040528015616d865781602001602082028036833780820191505090505b5090506000805b85811015616e5657600088602001518281518110616da757fe5b602002602001015114616e4b5787600001518181518110616dc457fe5b6020026020010151848381518110616dd857fe5b602002602001019073ffffffffffffffffffffffffffffffffffffffff16908173ffffffffffffffffffffffffffffffffffffffff168152505087602001518181518110616e2257fe5b6020026020010151838381518110616e3657fe5b60200260200101818152505081806001019250505b806001019050616d8d565b5082896000018190525081896020018190525050505050505050505b92915050565b616e8061977e565b6000616e8a61977e565b616e93846162f5565b90506000616ea085614037565b9050616ef781601460008873ffffffffffffffffffffffffffffffffffffffff1673ffffffffffffffffffffffffffffffffffffffff1681526020019081526020016000206002015461674490919063ffffffff16565b9250617035601460008773ffffffffffffffffffffffffffffffffffffffff1673ffffffffffffffffffffffffffffffffffffffff16815260200190815260200160002060000160405180604001604052908160008201805480602002602001604051908101604052809291908181526020018280548015616fce57602002820191906000526020600020905b8160009054906101000a900473ffffffffffffffffffffffffffffffffffffffff1673ffffffffffffffffffffffffffffffffffffffff1681526020019060010190808311616f84575b505050505081526020016001820180548060200260200160405190810160405280929190818152602001828054801561702657602002820191906000526020600020905b815481526020019060010190808311617012575b505050505081525050836167cc565b93505050915091565b60008061704a84618dc4565b90506170568184618f0c565b91505092915050565b6000601b829080600181540180825580915050600190039060005260206000200160009091909190916101000a81548173ffffffffffffffffffffffffffffffffffffffff021916908373ffffffffffffffffffffffffffffffffffffffff1602179055506170dd6001601b805490506162ab90919063ffffffff16565b905080601460008473ffffffffffffffffffffffffffffffffffffffff1673ffffffffffffffffffffffffffffffffffffffff16815260200190815260200160002060040160016101000a8154816fffffffffffffffffffffffffffffffff02191690836fffffffffffffffffffffffffffffffff160217905550919050565b600e60009054906101000a900473ffffffffffffffffffffffffffffffffffffffff1673ffffffffffffffffffffffffffffffffffffffff163373ffffffffffffffffffffffffffffffffffffffff16146171bb576171ba618c96565b5b565b6000601460008373ffffffffffffffffffffffffffffffffffffffff1673ffffffffffffffffffffffffffffffffffffffff16815260200190815260200160002060000160000180549050905060005b81811015617569576000601460008573ffffffffffffffffffffffffffffffffffffffff1673ffffffffffffffffffffffffffffffffffffffff168152602001908152602001600020600001600001828154811061726757fe5b9060005260206000200160009054906101000a900473ffffffffffffffffffffffffffffffffffffffff1690506000601460008673ffffffffffffffffffffffffffffffffffffffff1673ffffffffffffffffffffffffffffffffffffffff16815260200190815260200160002060000160010183815481106172e657fe5b9060005260206000200154905060006172ff8383618f79565b90506000601460008873ffffffffffffffffffffffffffffffffffffffff1673ffffffffffffffffffffffffffffffffffffffff16815260200190815260200160002060030160008573ffffffffffffffffffffffffffffffffffffffff1673ffffffffffffffffffffffffffffffffffffffff16815260200190815260200160002054905081601460008973ffffffffffffffffffffffffffffffffffffffff1673ffffffffffffffffffffffffffffffffffffffff16815260200190815260200160002060030160008673ffffffffffffffffffffffffffffffffffffffff1673ffffffffffffffffffffffffffffffffffffffff1681526020019081526020016000208190555061746d8261745f83601560008973ffffffffffffffffffffffffffffffffffffffff1673ffffffffffffffffffffffffffffffffffffffff168152602001908152602001600020546162ab90919063ffffffff16565b61674490919063ffffffff16565b601560008673ffffffffffffffffffffffffffffffffffffffff1673ffffffffffffffffffffffffffffffffffffffff168152602001908152602001600020819055507fd5630907014190fb9340da1cf427c96f094dabfbf73d25506e4b0cda9e3a4ca084601560008773ffffffffffffffffffffffffffffffffffffffff1673ffffffffffffffffffffffffffffffffffffffff16815260200190815260200160002054604051808373ffffffffffffffffffffffffffffffffffffffff1673ffffffffffffffffffffffffffffffffffffffff1681526020018281526020019250505060405180910390a15050505080600101905061720d565b505050565b600f60009054906101000a900473ffffffffffffffffffffffffffffffffffffffff1673ffffffffffffffffffffffffffffffffffffffff163373ffffffffffffffffffffffffffffffffffffffff16146175cc576175cb618c96565b5b565b600060048111156175db57fe5b8160048111156175e757fe5b1415801561760c5750600160048111156175fd57fe5b81600481111561760957fe5b14155b61767e576040517f08c379a00000000000000000000000000000000000000000000000000000000081526004018080602001828103825260208152602001807f537461747573206d7573742062652061637469766520616e642065786973747381525060200191505060405180910390fd5b6000601b80549050905061769181619132565b61769961977e565b6060601460008673ffffffffffffffffffffffffffffffffffffffff1673ffffffffffffffffffffffffffffffffffffffff16815260200190815260200160002060000160000180548060200260200160405190810160405280929190818152602001828054801561776057602002820191906000526020600020905b8160009054906101000a900473ffffffffffffffffffffffffffffffffffffffff1673ffffffffffffffffffffffffffffffffffffffff1681526020019060010190808311617716575b5050505050905060008151905060005b818110156178a657600083828151811061778657fe5b602002602001015190506000601a60008a73ffffffffffffffffffffffffffffffffffffffff1673ffffffffffffffffffffffffffffffffffffffff16815260200190815260200160002060000160008373ffffffffffffffffffffffffffffffffffffffff1673ffffffffffffffffffffffffffffffffffffffff168152602001908152602001600020819055506000601a60008a73ffffffffffffffffffffffffffffffffffffffff1673ffffffffffffffffffffffffffffffffffffffff16815260200190815260200160002060010160008373ffffffffffffffffffffffffffffffffffffffff1673ffffffffffffffffffffffffffffffffffffffff1681526020019081526020016000208190555050806001019050617770565b5084601460008873ffffffffffffffffffffffffffffffffffffffff1673ffffffffffffffffffffffffffffffffffffffff16815260200190815260200160002060040160006101000a81548160ff0219169083600481111561790557fe5b021790555082601460008873ffffffffffffffffffffffffffffffffffffffff1673ffffffffffffffffffffffffffffffffffffffff16815260200190815260200160002060000160008201518160000190805190602001906179699291906197e5565b506020820151816001019080519060200190617986929190619798565b509050506000601460008873ffffffffffffffffffffffffffffffffffffffff1673ffffffffffffffffffffffffffffffffffffffff168152602001908152602001600020600201819055506179dc8685619259565b601060009054906101000a900473ffffffffffffffffffffffffffffffffffffffff1673ffffffffffffffffffffffffffffffffffffffff166329092d0e876040518263ffffffff1660e01b8152600401808273ffffffffffffffffffffffffffffffffffffffff1673ffffffffffffffffffffffffffffffffffffffff168152602001915050600060405180830381600087803b158015617a7d57600080fd5b505af1158015617a91573d6000803e3d6000fd5b50505050505050505050565b600080617aa98461889b565b9050617ab58184618f0c565b91505092915050565b6000617afa617aec8360056103e8670de0b6b3a764000081617adc57fe5b040261674490919063ffffffff16565b670de0b6b3a7640000619648565b9050919050565b60016004811115617b0e57fe5b601460008373ffffffffffffffffffffffffffffffffffffffff1673ffffffffffffffffffffffffffffffffffffffff16815260200190815260200160002060040160009054906101000a900460ff166004811115617b6957fe5b14617bdc576040517f08c379a00000000000000000000000000000000000000000000000000000000081526004018080602001828103825260148152602001807f544d3a2074726f7665206d75737420657869737400000000000000000000000081525060200191505060405180910390fd5b50565b6000617bf6601354426162ab90919063ffffffff16565b9050603c8110617c3f57426013819055507f860f8d2f0c74dd487e89e2883e3b25b8159ce1e1b3433a291cba7b82c508f3bc426040518082815260200191505060405180910390a15b50565b6000606080617c5086612902565b505050925092509250617c6161977e565b8281600001819052508181602001819052506000617c7f828661703e565b9050601060009054906101000a900473ffffffffffffffffffffffffffffffffffffffff1673ffffffffffffffffffffffffffffffffffffffff16632be2126089838a8a6040518563ffffffff1660e01b8152600401808573ffffffffffffffffffffffffffffffffffffffff1673ffffffffffffffffffffffffffffffffffffffff1681526020018481526020018373ffffffffffffffffffffffffffffffffffffffff1673ffffffffffffffffffffffffffffffffffffffff1681526020018273ffffffffffffffffffffffffffffffffffffffff1673ffffffffffffffffffffffffffffffffffffffff168152602001945050505050600060405180830381600087803b158015617d9257600080fd5b505af1158015617da6573d6000803e3d6000fd5b505050505050505050505050565b60006714d1120d7b160000617dc7618524565b10905090565b6000617df7603c617de9601354426162ab90919063ffffffff16565b617f8690919063ffffffff16565b905090565b6000631f540500821115617e1257631f54050091505b6000821415617e2b57670de0b6b3a76400009050617edd565b6000670de0b6b3a76400009050600084905060008490505b6001811115617ecd57600060028281617e5857fe5b061415617e8657617e698283619661565b9150617e7f600282617f8690919063ffffffff16565b9050617ec8565b617e908284619661565b9250617e9c8283619661565b9150617ec56002617eb76001846162ab90919063ffffffff16565b617f8690919063ffffffff16565b90505b617e43565b617ed78284619661565b93505050505b92915050565b600080831415617ef65760009050617f80565b6000828402905082848281617f0757fe5b0414617f7b576040517f08c379a000000000000000000000000000000000000000000000000000000000815260040180806020018281038252600c8152602001807f6d756c206f766572666c6f77000000000000000000000000000000000000000081525060200191505060405180910390fd5b809150505b92915050565b6000617fc883836040518060400160405280600881526020017f64697620627920300000000000000000000000000000000000000000000000008152506196b7565b905092915050565b6000617fff670de0b6b3a7640000617ff18486617ee390919063ffffffff16565b617f8690919063ffffffff16565b905092915050565b60006180506180358360056103e8670de0b6b3a76400008161802557fe5b040261674490919063ffffffff16565b60056064670de0b6b3a76400008161804957fe5b0402619648565b9050919050565b8473ffffffffffffffffffffffffffffffffffffffff1663eae6f908856040518263ffffffff1660e01b815260040180828152602001915050600060405180830381600087803b1580156180aa57600080fd5b505af11580156180be573d6000803e3d6000fd5b505050508573ffffffffffffffffffffffffffffffffffffffff1663949f5c03856040518263ffffffff1660e01b815260040180828152602001915050600060405180830381600087803b15801561811557600080fd5b505af1158015618129573d6000803e3d6000fd5b505050508473ffffffffffffffffffffffffffffffffffffffff166361ccca588484846040518463ffffffff1660e01b81526004018080602001806020018473ffffffffffffffffffffffffffffffffffffffff1673ffffffffffffffffffffffffffffffffffffffff168152602001838103835286818151815260200191508051906020019060200280838360005b838110156181d45780820151818401526020810190506181b9565b50505050905001838103825285818151815260200191508051906020019060200280838360005b838110156182165780820151818401526020810190506181fb565b5050505090500195505050505050600060405180830381600087803b15801561823e57600080fd5b505af1158015618252573d6000803e3d6000fd5b50505050505050505050565b6060601460008373ffffffffffffffffffffffffffffffffffffffff1673ffffffffffffffffffffffffffffffffffffffff16815260200190815260200160002060000160000180548060200260200160405190810160405280929190818152602001828054801561832557602002820191906000526020600020905b8160009054906101000a900473ffffffffffffffffffffffffffffffffffffffff1673ffffffffffffffffffffffffffffffffffffffff16815260200190600101908083116182db575b5050505050905060008151905060005b818110156184e757600083828151811061834b57fe5b60200260200101519050601860008273ffffffffffffffffffffffffffffffffffffffff1673ffffffffffffffffffffffffffffffffffffffff16815260200190815260200160002054601a60008773ffffffffffffffffffffffffffffffffffffffff1673ffffffffffffffffffffffffffffffffffffffff16815260200190815260200160002060000160008373ffffffffffffffffffffffffffffffffffffffff1673ffffffffffffffffffffffffffffffffffffffff16815260200190815260200160002081905550601960008273ffffffffffffffffffffffffffffffffffffffff1673ffffffffffffffffffffffffffffffffffffffff16815260200190815260200160002054601a60008773ffffffffffffffffffffffffffffffffffffffff1673ffffffffffffffffffffffffffffffffffffffff16815260200190815260200160002060010160008373ffffffffffffffffffffffffffffffffffffffff1673ffffffffffffffffffffffffffffffffffffffff1681526020019081526020016000208190555050806001019050618335565b507f82bbdd533bb4dbd06fe175bb28e15f2391ffb6124331ff8f7066153c385baacb426040518082815260200191505060405180910390a1505050565b600080600160009054906101000a900473ffffffffffffffffffffffffffffffffffffffff1673ffffffffffffffffffffffffffffffffffffffff1663a24214646040518163ffffffff1660e01b8152600401604080518083038186803b15801561858e57600080fd5b505afa1580156185a2573d6000803e3d6000fd5b505050506040513d60408110156185b857600080fd5b81019080805190602001909291908051906020019092919050505091505060006185e06138c6565b90506185ec8282618f0c565b9250505090565b6060601460008373ffffffffffffffffffffffffffffffffffffffff1673ffffffffffffffffffffffffffffffffffffffff1681526020019081526020016000206000016000018054806020026020016040519081016040528092919081815260200182805480156186ba57602002820191906000526020600020905b8160009054906101000a900473ffffffffffffffffffffffffffffffffffffffff1673ffffffffffffffffffffffffffffffffffffffff1681526020019060010190808311618670575b5050505050905060008151905060005b818110156188955760008382815181106186e057fe5b602002602001015190506000601460008773ffffffffffffffffffffffffffffffffffffffff1673ffffffffffffffffffffffffffffffffffffffff16815260200190815260200160002060030160008373ffffffffffffffffffffffffffffffffffffffff1673ffffffffffffffffffffffffffffffffffffffff1681526020019081526020016000205490506187c081601560008573ffffffffffffffffffffffffffffffffffffffff1673ffffffffffffffffffffffffffffffffffffffff168152602001908152602001600020546162ab90919063ffffffff16565b601560008473ffffffffffffffffffffffffffffffffffffffff1673ffffffffffffffffffffffffffffffffffffffff168152602001908152602001600020819055506000601460008873ffffffffffffffffffffffffffffffffffffffff1673ffffffffffffffffffffffffffffffffffffffff16815260200190815260200160002060030160008473ffffffffffffffffffffffffffffffffffffffff1673ffffffffffffffffffffffffffffffffffffffff1681526020019081526020016000208190555050508060010190506186ca565b50505050565b60008060009054906101000a900473ffffffffffffffffffffffffffffffffffffffff1673ffffffffffffffffffffffffffffffffffffffff166397a4b9f7836000015184602001516040518363ffffffff1660e01b8152600401808060200180602001838103835285818151815260200191508051906020019060200280838360005b8381101561893a57808201518184015260208101905061891f565b50505050905001838103825284818151815260200191508051906020019060200280838360005b8381101561897c578082015181840152602081019050618961565b5050505090500194505050505060206040518083038186803b1580156189a157600080fd5b505afa1580156189b5573d6000803e3d6000fd5b505050506040513d60208110156189cb57600080fd5b81019080805190602001909291905050509050919050565b600080618a13670de0b6b3a7640000618a058587617ee390919063ffffffff16565b617f8690919063ffffffff16565b9050828110618a8a576040517f08c379a00000000000000000000000000000000000000000000000000000000081526004018080602001828103825260158152602001807f544d3a4665653e72657475726e656420636f6c6c73000000000000000000000081525060200191505060405180910390fd5b8091505092915050565b600073ffffffffffffffffffffffffffffffffffffffff16600360009054906101000a900473ffffffffffffffffffffffffffffffffffffffff1673ffffffffffffffffffffffffffffffffffffffff167f8be0079c531659141344cd1fd0a4f28419497f9722a3daafe3b4186f6b6457e060405160405180910390a36000600360006101000a81548173ffffffffffffffffffffffffffffffffffffffff021916908373ffffffffffffffffffffffffffffffffffffffff160217905550565b60008060009054906101000a900473ffffffffffffffffffffffffffffffffffffffff1673ffffffffffffffffffffffffffffffffffffffff166397a4b9f784846040518363ffffffff1660e01b8152600401808060200180602001838103835285818151815260200191508051906020019060200280838360005b83811015618bec578082015181840152602081019050618bd1565b50505050905001838103825284818151815260200191508051906020019060200280838360005b83811015618c2e578082015181840152602081019050618c13565b5050505090500194505050505060206040518083038186803b158015618c5357600080fd5b505afa158015618c67573d6000803e3d6000fd5b505050506040513d6020811015618c7d57600080fd5b8101908080519060200190929190505050905092915050565b6040517f08c379a000000000000000000000000000000000000000000000000000000000815260040180806020018281038252601f8152602001807f544d3a2045787465726e616c2063616c6c6572206e6f7420616c6c6f7765640081525060200191505060405180910390fd5b6000838311158290618db1576040517f08c379a00000000000000000000000000000000000000000000000000000000081526004018080602001828103825283818151815260200191508051906020019080838360005b83811015618d76578082015181840152602081019050618d5b565b50505050905090810190601f168015618da35780820380516001836020036101000a031916815260200191505b509250505060405180910390fd5b5060008385039050809150509392505050565b60008060009054906101000a900473ffffffffffffffffffffffffffffffffffffffff1673ffffffffffffffffffffffffffffffffffffffff1663617ddfff836000015184602001516040518363ffffffff1660e01b8152600401808060200180602001838103835285818151815260200191508051906020019060200280838360005b83811015618e63578082015181840152602081019050618e48565b50505050905001838103825284818151815260200191508051906020019060200280838360005b83811015618ea5578082015181840152602081019050618e8a565b5050505090500194505050505060206040518083038186803b158015618eca57600080fd5b505afa158015618ede573d6000803e3d6000fd5b505050506040513d6020811015618ef457600080fd5b81019080805190602001909291905050509050919050565b6000808214618f4f576000618f4483618f36670de0b6b3a764000087617ee390919063ffffffff16565b617f8690919063ffffffff16565b905080915050618f73565b7fffffffffffffffffffffffffffffffffffffffffffffffffffffffffffffffff90505b92915050565b6000806000601760008673ffffffffffffffffffffffffffffffffffffffff1673ffffffffffffffffffffffffffffffffffffffff168152602001908152602001600020541415618fcc57829050619128565b6000601660008673ffffffffffffffffffffffffffffffffffffffff1673ffffffffffffffffffffffffffffffffffffffff168152602001908152602001600020541415619082576040517f08c379a00000000000000000000000000000000000000000000000000000000081526004018080602001828103825260158152602001807f544d3a207374616b65206d757374206265203e2030000000000000000000000081525060200191505060405180910390fd5b619125601760008673ffffffffffffffffffffffffffffffffffffffff1673ffffffffffffffffffffffffffffffffffffffff16815260200190815260200160002054619117601660008873ffffffffffffffffffffffffffffffffffffffff1673ffffffffffffffffffffffffffffffffffffffff1681526020019081526020016000205486617ee390919063ffffffff16565b617f8690919063ffffffff16565b90505b8091505092915050565b6001811180156191e457506001601060009054906101000a900473ffffffffffffffffffffffffffffffffffffffff1673ffffffffffffffffffffffffffffffffffffffff1663de8fa4316040518163ffffffff1660e01b815260040160206040518083038186803b1580156191a757600080fd5b505afa1580156191bb573d6000803e3d6000fd5b505050506040513d60208110156191d157600080fd5b8101908080519060200190929190505050115b619256576040517f08c379a000000000000000000000000000000000000000000000000000000000815260040180806020018281038252600e8152602001807f544d3a206c6173742074726f766500000000000000000000000000000000000081525060200191505060405180910390fd5b50565b6000601460008473ffffffffffffffffffffffffffffffffffffffff1673ffffffffffffffffffffffffffffffffffffffff16815260200190815260200160002060040160009054906101000a900460ff169050600060048111156192ba57fe5b8160048111156192c657fe5b141580156192eb5750600160048111156192dc57fe5b8160048111156192e857fe5b14155b61935d576040517f08c379a000000000000000000000000000000000000000000000000000000000815260040180806020018281038252601c8152602001807f544d3a2074726f76652021657869737473206f7220216163746976650000000081525060200191505060405180910390fd5b6000601460008573ffffffffffffffffffffffffffffffffffffffff1673ffffffffffffffffffffffffffffffffffffffff16815260200190815260200160002060040160019054906101000a90046fffffffffffffffffffffffffffffffff169050600083905060006193db6001836162ab90919063ffffffff16565b905080836fffffffffffffffffffffffffffffffff161115619465576040517f08c379a000000000000000000000000000000000000000000000000000000000815260040180806020018281038252601e8152602001807f544d3a20696e646578206d757374206265203e206c61737420696e646578000081525060200191505060405180910390fd5b6000601b828154811061947457fe5b9060005260206000200160009054906101000a900473ffffffffffffffffffffffffffffffffffffffff16905080601b856fffffffffffffffffffffffffffffffff16815481106194c157fe5b9060005260206000200160006101000a81548173ffffffffffffffffffffffffffffffffffffffff021916908373ffffffffffffffffffffffffffffffffffffffff16021790555083601460008373ffffffffffffffffffffffffffffffffffffffff1673ffffffffffffffffffffffffffffffffffffffff16815260200190815260200160002060040160016101000a8154816fffffffffffffffffffffffffffffffff02191690836fffffffffffffffffffffffffffffffff1602179055507f02b04ae5f7be9ca7c103293a2aa15f3c339d15d6eda53b721fef7b0e609c831a8185604051808373ffffffffffffffffffffffffffffffffffffffff1673ffffffffffffffffffffffffffffffffffffffff168152602001826fffffffffffffffffffffffffffffffff1681526020019250505060405180910390a1601b80548061960a57fe5b6001900381819060005260206000200160006101000a81549073ffffffffffffffffffffffffffffffffffffffff0219169055905550505050505050565b60008183106196575781619659565b825b905092915050565b6000806196778385617ee390919063ffffffff16565b90506196ae670de0b6b3a76400006196a06706f05b59d3b200008461674490919063ffffffff16565b617f8690919063ffffffff16565b91505092915050565b6000808314158290619764576040517f08c379a00000000000000000000000000000000000000000000000000000000081526004018080602001828103825283818151815260200191508051906020019080838360005b8381101561972957808201518184015260208101905061970e565b50505050905090810190601f1680156197565780820380516001836020036101000a031916815260200191505b509250505060405180910390fd5b50600083858161977057fe5b049050809150509392505050565b604051806040016040528060608152602001606081525090565b8280548282559060005260206000209081019282156197d4579160200282015b828111156197d35782518255916020019190600101906197b8565b5b5090506197e1919061986f565b5090565b82805482825590600052602060002090810192821561985e579160200282015b8281111561985d5782518260006101000a81548173ffffffffffffffffffffffffffffffffffffffff021916908373ffffffffffffffffffffffffffffffffffffffff16021790555091602001919060010190619805565b5b50905061986b9190619894565b5090565b61989191905b8082111561988d576000816000905550600101619875565b5090565b90565b6198d491905b808211156198d057600081816101000a81549073ffffffffffffffffffffffffffffffffffffffff02191690555060010161989a565b5090565b9056fea26469706673582212201b5733c8ce8760bbac6dc3bf604571865d04d2eeef45688452d3dc748c36232b64736f6c634300060b0033",
  "immutableReferences": {},
  "source": "// SPDX-License-Identifier: UNLICENSED\n\npragma solidity 0.6.11;\n\nimport \"../Interfaces/ITroveManager.sol\";\nimport \"../Interfaces/IStabilityPool.sol\";\nimport \"../Interfaces/ICollSurplusPool.sol\";\nimport \"../Interfaces/ISUSDToken.sol\";\nimport \"../Interfaces/ISortedTroves.sol\";\nimport \"../Interfaces/ISTBToken.sol\";\n//import \"../Interfaces/ISSTB.sol\";\nimport \"../Interfaces/ISTBStaking.sol\";\nimport \"../Interfaces/IWhitelist.sol\";\nimport \"../Interfaces/ITroveManagerLiquidations.sol\";\nimport \"../Interfaces/ITroveManagerRedemptions.sol\";\nimport \"../Interfaces/IERC20.sol\";\nimport \"../Dependencies/TroveManagerBase.sol\";\nimport \"../Dependencies/ReentrancyGuard.sol\";\n\n\n/** \n * Trove Manager is the contract which deals with the state of a user's trove. It has all the \n * external functions for liquidations, redemptions, as well as functions called by \n * BorrowerOperations function calls. \n */\n\ncontract TroveManager is TroveManagerBase, ITroveManager, ReentrancyGuard {\n    \n    address internal borrowerOperationsAddress;\n\n    IStabilityPool internal stabilityPoolContract;\n\n    ITroveManager internal troveManager;\n\n    ISUSDToken internal susdTokenContract;\n\n    ISTBToken internal stbTokenContract;\n\n   ISSTB internal sSTBContract;\n\n    ITroveManagerRedemptions internal troveManagerRedemptions;\n\n    ITroveManagerLiquidations internal troveManagerLiquidations;\n\n    address internal gasPoolAddress;\n    address internal troveManagerRedemptionsAddress;\n    address internal troveManagerLiquidationsAddress;\n\n    ISortedTroves internal sortedTroves;\n\n    ICollSurplusPool internal collSurplusPool;\n\n    bytes32 constant public NAME = \"TroveManager\";\n\n    // --- Data structures ---\n\n    uint constant internal SECONDS_IN_ONE_MINUTE = 60;\n\n    /*\n     * Half-life of 12h. 12h = 720 min\n     * (1/2) = d^720 => d = (1/2)^(1/720)\n     */\n    uint constant public MINUTE_DECAY_FACTOR = 999037758833783000;\n    uint constant public MAX_BORROWING_FEE = DECIMAL_PRECISION / 100 * 5; // 5%\n\n    // During bootsrap period redemptions are not allowed\n    uint constant public BOOTSTRAP_PERIOD = 14 days;\n\n    uint public baseRate;\n\n    // The timestamp of the latest fee operation (redemption or new YUSD issuance)\n    uint public lastFeeOperationTime;\n\n    mapping (address => Trove) Troves;\n\n    // uint public totalStakes;\n    mapping (address => uint) public totalStakes;\n\n    // Snapshot of the value of totalStakes, taken immediately after the latest liquidation\n    mapping (address => uint) public totalStakesSnapshot;\n\n    // Snapshot of the total collateral across the ActivePool and DefaultPool, immediately after the latest liquidation.\n    mapping (address => uint) public totalCollateralSnapshot;\n\n    /*\n    * L_Coll and L_YUSDDebt track the sums of accumulated liquidation rewards per unit staked. Each collateral type has \n    * its own L_Coll and L_YUSDDebt.\n    * During its lifetime, each stake earns:\n    *\n    * A Collateral gain of ( stake * [L_Coll[coll] - L_Coll[coll](0)] )\n    * A YUSDDebt increase  of ( stake * [L_YUSDDebt - L_YUSDDebt(0)] )\n    *\n    * Where L_Coll[coll](0) and L_YUSDDebt(0) are snapshots of L_Coll[coll] and L_YUSDDebt for the active Trove taken at the instant the stake was made\n    */\n    mapping (address => uint) private L_Coll;\n    mapping (address => uint) public L_SUSDDebt;\n\n    // Map addresses with active troves to their RewardSnapshot\n    mapping (address => RewardSnapshot) rewardSnapshots;\n\n    // Object containing the reward snapshots for a given active trove\n    struct RewardSnapshot {\n        mapping(address => uint) CollRewards;\n        mapping(address => uint) SUSDDebts;\n    }\n\n    // Array of all active trove addresses - used to to compute an approximate hint off-chain, for the sorted list insertion\n    address[] private TroveOwners;\n\n    // Error trackers for the trove redistribution calculation\n    mapping (address => uint) public lastCollError_Redistribution;\n    mapping (address => uint) public lastSUSDDebtError_Redistribution;\n\n    /*\n    * --- Variable container structs for liquidations ---\n    *\n    * These structs are used to hold, return and assign variables inside the liquidation functions,\n    * in order to avoid the error: \"CompilerError: Stack too deep\".\n    **/\n\n    // --- Events ---\n\n    event BaseRateUpdated(uint _baseRate);\n    event LastFeeOpTimeUpdated(uint _lastFeeOpTime);\n    event TotalStakesUpdated(address token, uint _newTotalStakes);\n    event SystemSnapshotsUpdated(uint _unix);\n\n    event Liquidation(uint liquidatedAmount, uint totalSUSDGasCompensation, \n        address[] totalCollTokens, uint[] totalCollAmounts,\n        address[] totalCollGasCompTokens, uint[] totalCollGasCompAmounts);\n\n    event LTermsUpdated(address _Coll_Address, uint _L_Coll, uint _L_SUSDDebt);\n    event TroveSnapshotsUpdated(uint _unix);\n    event TroveIndexUpdated(address _borrower, uint _newIndex);\n    event TroveUpdated(address indexed _borrower, uint _debt, address[] _tokens, uint[] _amounts, TroveManagerOperation operation);\n\n    function setAddresses(\n        address _borrowerOperationsAddress,\n        address _activePoolAddress,\n        address _defaultPoolAddress,\n        address _stabilityPoolAddress,\n        address _gasPoolAddress,\n        address _collSurplusPoolAddress,\n        address _susdTokenAddress,\n        address _sortedTrovesAddress,\n        address _stbTokenAddress,\n        address _sSTBAddress,\n        address _whitelistAddress,\n        address _troveManagerRedemptionsAddress,\n        address _troveManagerLiquidationsAddress\n    )\n    external\n    override\n    onlyOwner\n    {\n\n        borrowerOperationsAddress = _borrowerOperationsAddress;\n        activePool = IActivePool(_activePoolAddress);\n        defaultPool = IDefaultPool(_defaultPoolAddress);\n        stabilityPoolContract = IStabilityPool(_stabilityPoolAddress);\n        whitelist = IWhitelist(_whitelistAddress);\n        gasPoolAddress = _gasPoolAddress;\n        collSurplusPool = ICollSurplusPool(_collSurplusPoolAddress);\n        susdTokenContract = ISUSDToken(_susdTokenAddress);\n        sortedTroves = ISortedTroves(_sortedTrovesAddress);\n        stbTokenContract = ISTBToken(_stbTokenAddress);\n        sSTBContract = ISSTB(_sSTBAddress);\n\n        troveManagerRedemptionsAddress = _troveManagerRedemptionsAddress;\n        troveManagerLiquidationsAddress = _troveManagerLiquidationsAddress;\n        troveManagerRedemptions = ITroveManagerRedemptions(_troveManagerRedemptionsAddress);\n        troveManagerLiquidations = ITroveManagerLiquidations(_troveManagerLiquidationsAddress);\n        _renounceOwnership();\n    }\n\n    // --- Getters ---\n\n    function getTroveOwnersCount() external view override returns (uint) {\n        return TroveOwners.length;\n    }\n\n    function getTroveFromTroveOwnersArray(uint _index) external view override returns (address) {\n        return TroveOwners[_index];\n    }\n\n    // --- Trove Liquidation functions ---\n\n    // Single liquidation function. Closes the trove if its ICR is lower than the minimum collateral ratio.\n    function liquidate(address _borrower) external override nonReentrant {\n        _requireTroveIsActive(_borrower);\n\n        address[] memory borrowers = new address[](1);\n        borrowers[0] = _borrower;\n        troveManagerLiquidations.batchLiquidateTroves(borrowers, msg.sender);\n    }\n\n    /*\n    * Attempt to liquidate a custom list of troves provided by the caller.\n    */\n    function batchLiquidateTroves(address[] memory _troveArray, address _liquidator) external override nonReentrant {\n        troveManagerLiquidations.batchLiquidateTroves(_troveArray, _liquidator);\n    }\n\n    // --- Liquidation helper functions ---\n\n    /*\n    * This function is called only by TroveManagerLiquidations.sol during a liquidation in recovery mode where\n    * the trove has TCR > ICR >= MCR. In this case, the liquidation occurs. 110% of the debt in\n    * collateral is sent to the stability pool and any surplus is sent to the collateral surplus pool\n    */\n    function collSurplusUpdate(address _account, address[] memory _tokens, uint[] memory _amounts) external override {\n        _requireCallerIsTML();\n        collSurplusPool.accountSurplus(_account, _tokens, _amounts);\n    }\n\n    // Move a Trove's pending debt and collateral rewards from distributions, from the Default Pool to the Active Pool\n    function movePendingTroveRewardsToActivePool(IActivePool _activePool, IDefaultPool _defaultPool, uint _SUSD, address[] memory _tokens, uint[] memory _amounts, address _borrower) external override {\n        _requireCallerIsTML();\n        _movePendingTroveRewardsToActivePool(_activePool, _defaultPool, _SUSD, _tokens, _amounts, _borrower);\n    }\n\n    function _movePendingTroveRewardsToActivePool(IActivePool _activePool, IDefaultPool _defaultPool, uint _SUSD, address[] memory _tokens, uint[] memory _amounts, address _borrower) internal {\n        _defaultPool.decreaseSUSDDebt(_SUSD);\n        _activePool.increaseSUSDDebt(_SUSD);\n        _defaultPool.sendCollsToActivePool(_tokens, _amounts, _borrower);\n    }\n\n    // Update position of given trove\n    function _updateTrove(address _borrower, address _lowerHint, address _upperHint) internal {\n        (uint debt, address[] memory tokens, uint[] memory amounts, , , ) = getEntireDebtAndColls(_borrower);\n\n        newColls memory troveColl;\n        troveColl.tokens = tokens;\n        troveColl.amounts = amounts;\n\n        uint RICR = _getRICRColls(troveColl, debt);\n        sortedTroves.reInsert(_borrower, RICR, _lowerHint, _upperHint); \n    }\n\n    // Update position for a set of troves using latest price data. This can be called by anyone.\n    // Yeti Finance will also be running a bot to assist with keeping the list from becoming\n    // too stale.\n    function updateTroves(address[] calldata _borrowers, address[] calldata _lowerHints, address[] calldata _upperHints) external {\n        uint lowerHintsLen = _lowerHints.length;\n        require(_borrowers.length == lowerHintsLen, \"TM: borrowers length mismatch\");\n        require(lowerHintsLen == _upperHints.length, \"TM: hints length mismatch\");\n\n        for (uint256 i; i < lowerHintsLen; ++i) {\n            _updateTrove(_borrowers[i], _lowerHints[i], _upperHints[i]);\n        }\n    }\n\n    /* Send _YUSDamount YUSD to the system and redeem the corresponding amount of collateral from as many Troves as are needed to fill the redemption\n    * request.  Applies pending rewards to a Trove before reducing its debt and coll.\n    *\n    * Note that if _amount is very large, this function can run out of gas, specially if traversed troves are small. This can be easily avoided by\n    * splitting the total _amount in appropriate chunks and calling the function multiple times.\n    *\n    * Param `_maxIterations` can also be provided, so the loop through Troves is capped (if its zero, it will be ignored).This makes it easier to\n    * avoid OOG for the frontend, as only knowing approximately the average cost of an iteration is enough, without needing to know the topology\n    * of the trove list. It also avoids the need to set the cap in stone in the contract, nor doing gas calculations, as both gas price and opcode\n    * costs can vary.\n    *\n    * All Troves that are redeemed from -- with the likely exception of the last one -- will end up with no debt left, therefore they will be closed.\n    * If the last Trove does have some remaining debt, it has a finite ICR, and the reinsertion could be anywhere in the list, therefore it requires a hint.\n    * A frontend should use getRedemptionHints() to calculate what the ICR of this Trove will be after redemption, and pass a hint for its position\n    * in the sortedTroves list along with the ICR value that the hint was found for.\n    *\n    * If another transaction modifies the list between calling getRedemptionHints() and passing the hints to redeemCollateral(), it\n    * is very likely that the last (partially) redeemed Trove would end up with a different ICR than what the hint is for. In this case the\n    * redemption will stop after the last completely redeemed Trove and the sender will keep the remaining YUSD amount, which they can attempt\n    * to redeem later.\n    */\n    function redeemCollateral(\n        uint _SUSDamount,\n        uint _SUSDMaxFee,\n        address _firstRedemptionHint,\n        address _upperPartialRedemptionHint,\n        address _lowerPartialRedemptionHint,\n        uint _partialRedemptionHintICR,\n        uint _maxIterations\n    )\n    external\n    override\n    nonReentrant\n    {\n        troveManagerRedemptions.redeemCollateral(\n            _SUSDamount,\n            _SUSDMaxFee,\n            _firstRedemptionHint,\n            _upperPartialRedemptionHint,\n            _lowerPartialRedemptionHint,\n            _partialRedemptionHintICR,\n            _maxIterations,\n            msg.sender);\n    }\n\n    // --- Helper functions ---\n\n    // Return the current individual collateral ratio (ICR) of a given Trove.\n    // Takes a trove's pending coll and debt rewards from redistributions into account.\n    function getCurrentICR(address _borrower) external view override returns (uint ICR) {\n        (newColls memory colls, uint currentSUSDDebt) = _getCurrentTroveState(_borrower);\n\n        ICR = _getICRColls(colls, currentSUSDDebt);\n    }\n\n    // Return the current recovery individual collateral ratio (ICR) of a given Trove.\n    // Takes a trove's pending coll and debt rewards from redistributions into account.\n    function getCurrentRICR(address _borrower) external view override returns (uint RICR) {\n        (newColls memory colls, uint currentSUSDDebt) = _getCurrentTroveState(_borrower);\n\n        RICR = _getRICRColls(colls, currentSUSDDebt);\n    }\n\n    // Gets current trove state as colls and debt. \n    function _getCurrentTroveState(address _borrower) internal view\n    returns (newColls memory colls, uint SUSDdebt) {\n        newColls memory pendingCollReward = _getPendingCollRewards(_borrower);\n        uint pendingSUSDDebtReward = getPendingSUSDDebtReward(_borrower);\n        \n        SUSDdebt = Troves[_borrower].debt.add(pendingSUSDDebtReward);\n        colls = _sumColls(Troves[_borrower].colls, pendingCollReward);\n    }\n\n    // Add the borrowers's coll and debt rewards earned from redistributions, to their Trove\n    function applyPendingRewards(address _borrower) external override {\n        _requireCallerIsBOorTMR();\n        return _applyPendingRewards(activePool, defaultPool, _borrower);\n    }\n\n    // Add the borrowers's coll and debt rewards earned from redistributions, to their Trove\n    function _applyPendingRewards(IActivePool _activePool, IDefaultPool _defaultPool, address _borrower) internal {\n        if (hasPendingRewards(_borrower)) {\n            _requireTroveIsActive(_borrower);\n\n            // Compute pending collateral rewards\n            newColls memory pendingCollReward = _getPendingCollRewards(_borrower);\n            uint pendingSUSDDebtReward = getPendingSUSDDebtReward(_borrower);\n\n            // Apply pending rewards to trove's state\n            Troves[_borrower].colls = _sumColls(Troves[_borrower].colls, pendingCollReward);\n            Troves[_borrower].debt = Troves[_borrower].debt.add(pendingSUSDDebtReward);\n\n            _updateTroveRewardSnapshots(_borrower);\n\n            // Transfer from DefaultPool to ActivePool\n            _movePendingTroveRewardsToActivePool(_activePool, _defaultPool, pendingSUSDDebtReward, pendingCollReward.tokens, pendingCollReward.amounts, _borrower);\n\n            emit TroveUpdated(\n                _borrower,\n                Troves[_borrower].debt,\n                Troves[_borrower].colls.tokens,\n                Troves[_borrower].colls.amounts,\n                TroveManagerOperation.applyPendingRewards\n            );\n        }\n    }\n\n    // Update borrower's snapshots of L_Coll and L_YUSDDebt to reflect the current values\n    function updateTroveRewardSnapshots(address _borrower) external override {\n        _requireCallerIsBorrowerOperations();\n        _updateTroveRewardSnapshots(_borrower);\n    }\n\n    function _updateTroveRewardSnapshots(address _borrower) internal {\n        address[] memory allColls = Troves[_borrower].colls.tokens;\n        uint256 allCollsLen = allColls.length;\n        for (uint256 i; i < allCollsLen; ++i) {\n            address asset = allColls[i];\n            rewardSnapshots[_borrower].CollRewards[asset] = L_Coll[asset];\n            rewardSnapshots[_borrower].SUSDDebts[asset] = L_SUSDDebt[asset];\n        }\n        emit TroveSnapshotsUpdated(block.timestamp);\n    }\n\n    // Get the borrower's pending accumulated Coll rewards, earned by their stake\n    // Returned tokens and amounts are the length of whitelist.getValidCollateral();;\n    function getPendingCollRewards(address _borrower) override external view returns (address[] memory, uint[] memory) {\n        newColls memory pendingCollRewards = _getPendingCollRewards(_borrower);\n        return (pendingCollRewards.tokens, pendingCollRewards.amounts);\n    }\n\n    // Get the borrower's pending accumulated Coll rewards, earned by their stake\n    function _getPendingCollRewards(address _borrower) internal view returns (newColls memory pendingCollRewards) {\n        if (Troves[_borrower].status != Status.active) {\n            newColls memory emptyColls;\n            return emptyColls;\n        }\n\n        address[] memory allColls = Troves[_borrower].colls.tokens;\n        pendingCollRewards.amounts = new uint[](allColls.length);\n        pendingCollRewards.tokens = allColls;\n        uint256 allCollsLen = allColls.length;\n        for (uint256 i; i < allCollsLen; ++i) {\n            address coll = allColls[i];\n            uint snapshotCollReward = rewardSnapshots[_borrower].CollRewards[coll];\n            uint rewardPerUnitStaked = L_Coll[coll].sub(snapshotCollReward);\n            if ( rewardPerUnitStaked == 0) {\n                pendingCollRewards.amounts[i] = 0;\n                continue; }\n\n            uint stake = Troves[_borrower].stakes[coll];\n            uint dec = IERC20(coll).decimals();\n            uint assetCollReward = stake.mul(rewardPerUnitStaked).div(10 ** dec);\n            pendingCollRewards.amounts[i] = assetCollReward; // i is correct index here\n        }\n    }\n\n    // Get the borrower's pending accumulated YUSD reward, earned by their stake\n    function getPendingSUSDDebtReward(address _borrower) public view override returns (uint pendingSUSDDebtReward) {\n        if (Troves[_borrower].status != Status.active) {\n            return 0;\n        }\n        address[] memory allColls = Troves[_borrower].colls.tokens;\n\n        uint256 allCollsLen = allColls.length;\n        for (uint256 i; i < allCollsLen; ++i) {\n            address coll = allColls[i];\n            uint snapshotSUSDDebt = rewardSnapshots[_borrower].SUSDDebts[coll];\n            uint rewardPerUnitStaked = L_SUSDDebt[allColls[i]].sub(snapshotSUSDDebt);\n            if ( rewardPerUnitStaked == 0) { continue; }\n\n            uint stake =  Troves[_borrower].stakes[coll];\n\n            uint assetSUSDDebtReward = stake.mul(rewardPerUnitStaked).div(DECIMAL_PRECISION);\n            pendingSUSDDebtReward = pendingSUSDDebtReward.add(assetSUSDDebtReward);\n        }\n    }\n\n    function hasPendingRewards(address _borrower) public view override returns (bool) {\n        /*\n        * A Trove has pending rewards if its snapshot is less than the current rewards per-unit-staked sum:\n        * this indicates that rewards have occured since the snapshot was made, and the user therefore has\n        * pending rewards\n        */\n        if (Troves[_borrower].status != Status.active) {return false;}\n        address[] memory assets =  Troves[_borrower].colls.tokens;\n        uint256 assetsLen = assets.length;\n        for (uint256 i; i < assetsLen; ++i) {\n            address token = assets[i];\n            if (rewardSnapshots[_borrower].CollRewards[token] < L_Coll[token]) {\n                return true;\n            }\n        }\n        return false;\n    }\n\n    // Returns debt, collsTokens, collsAmounts, pendingYUSDDebtReward, pendingRewardTokens, pendingRewardAmouns\n    function getEntireDebtAndColls(\n        address _borrower\n    )\n    public\n    view override\n    returns (uint, address[] memory, uint[] memory, uint, address[] memory, uint[] memory)\n    {\n        uint debt = Troves[_borrower].debt;\n        newColls memory colls = Troves[_borrower].colls;\n\n        uint pendingSUSDDebtReward = getPendingSUSDDebtReward(_borrower);\n        newColls memory pendingCollReward = _getPendingCollRewards(_borrower);\n\n        debt = debt.add(pendingSUSDDebtReward);\n\n        // add in pending rewards to colls\n        colls = _sumColls(colls, pendingCollReward);\n\n        return (debt, colls.tokens, colls.amounts, pendingSUSDDebtReward, pendingCollReward.tokens, pendingCollReward.amounts);\n    }\n\n    // Borrower operations remove stake sum. \n    function removeStake(address _borrower) external override {\n        _requireCallerIsBorrowerOperations();\n        return _removeStake(_borrower);\n    }\n\n    // Remove borrower's stake from the totalStakes sum, and set their stake to 0\n    function _removeStake(address _borrower) internal {\n        address[] memory borrowerColls = Troves[_borrower].colls.tokens;\n        uint256 borrowerCollsLen = borrowerColls.length;\n        for (uint256 i; i < borrowerCollsLen; ++i) {\n            address coll = borrowerColls[i];\n            uint stake = Troves[_borrower].stakes[coll];\n            totalStakes[coll] = totalStakes[coll].sub(stake);\n            Troves[_borrower].stakes[coll] = 0;\n        }\n    }\n\n    // Update borrower's stake based on their latest collateral value\n    // computed at time function is called based on current price of collateral\n    function updateStakeAndTotalStakes(address _borrower) external override {\n        _requireCallerIsBOorTMR();\n        _updateStakeAndTotalStakes(_borrower);\n    }\n\n    function _updateStakeAndTotalStakes(address _borrower) internal {\n        uint256 troveOwnerLen = Troves[_borrower].colls.tokens.length;\n        for (uint256 i; i < troveOwnerLen; ++i) {\n            address token = Troves[_borrower].colls.tokens[i];\n            uint amount = Troves[_borrower].colls.amounts[i];\n\n            uint newStake = _computeNewStake(token, amount);\n            uint oldStake = Troves[_borrower].stakes[token];\n\n            Troves[_borrower].stakes[token] = newStake;\n            totalStakes[token] = totalStakes[token].sub(oldStake).add(newStake);\n\n            emit TotalStakesUpdated(token, totalStakes[token]);\n        }\n    }\n\n    // Calculate a new stake based on the snapshots of the totalStakes and totalCollateral taken at the last liquidation\n    function _computeNewStake(address token, uint _coll) internal view returns (uint) {\n        uint stake;\n        if (totalCollateralSnapshot[token] == 0) {\n            stake = _coll;\n        } else {\n            /*\n            * The following assert() holds true because:\n            * - The system always contains >= 1 trove\n            * - When we close or liquidate a trove, we redistribute the pending rewards, so if all troves were closed/liquidated,\n            * rewards wouldve been emptied and totalCollateralSnapshot would be zero too.\n            */\n            require(totalStakesSnapshot[token] != 0, \"TM: stake must be > 0\");\n            stake = _coll.mul(totalStakesSnapshot[token]).div(totalCollateralSnapshot[token]);\n        }\n        return stake;\n    }\n\n    function redistributeDebtAndColl(IActivePool _activePool, IDefaultPool _defaultPool, uint _debt, address[] memory _tokens, uint[] memory _amounts) external override {\n        _requireCallerIsTML();\n        uint256 tokensLen = _tokens.length;\n        require(tokensLen == _amounts.length, \"TM: len tokens amounts\");\n        if (_debt == 0) { return; }\n        /*\n        * Add distributed coll and debt rewards-per-unit-staked to the running totals. Division uses a \"feedback\"\n        * error correction, to keep the cumulative error low in the running totals L_Coll and L_YUSDDebt:\n        *\n        * 1) Form numerators which compensate for the floor division errors that occurred the last time this\n        * function was called.\n        * 2) Calculate \"per-unit-staked\" ratios.\n        * 3) Multiply each ratio back by its denominator, to reveal the current floor division error.\n        * 4) Store these errors for use in the next correction when this function is called.\n        * 5) Note: static analysis tools complain about this \"division before multiplication\", however, it is intended.\n        */\n        uint totalCollateralVC = _getVC(_tokens, _amounts); // total collateral value in VC terms\n\n        for (uint256 i; i < tokensLen; ++i) {\n            address token = _tokens[i];\n            uint amount = _amounts[i];\n            // Prorate debt per collateral by dividing each collateral value by cumulative collateral value and multiply by outstanding debt\n            uint collateralVC = whitelist.getValueVC(token, amount);\n            uint proratedDebtForCollateral = collateralVC.mul(_debt).div(totalCollateralVC);\n            uint dec = IERC20(token).decimals();\n            uint CollNumerator = amount.mul(10 ** dec).add(lastCollError_Redistribution[token]);\n            uint SUSDDebtNumerator = proratedDebtForCollateral.mul(DECIMAL_PRECISION).add(lastSUSDDebtError_Redistribution[token]);\n            if (totalStakes[token] != 0) {\n                // Get the per-unit-staked terms\n                uint256 thisTotalStakes = totalStakes[token];\n                uint CollRewardPerUnitStaked = CollNumerator.div(thisTotalStakes);\n                uint SUSDDebtRewardPerUnitStaked = SUSDDebtNumerator.div(thisTotalStakes.mul(10 ** (18 - dec)));\n\n                lastCollError_Redistribution[token] = CollNumerator.sub(CollRewardPerUnitStaked.mul(thisTotalStakes));\n                lastSUSDDebtError_Redistribution[token] = SUSDDebtNumerator.sub(SUSDDebtRewardPerUnitStaked.mul(thisTotalStakes.mul(10 ** (18 - dec))));\n\n                // Add per-unit-staked terms to the running totals\n                L_Coll[token] = L_Coll[token].add(CollRewardPerUnitStaked);\n                L_SUSDDebt[token] = L_SUSDDebt[token].add(SUSDDebtRewardPerUnitStaked);\n                emit LTermsUpdated(token, L_Coll[token], L_SUSDDebt[token]);\n            }\n        }\n\n        // Transfer coll and debt from ActivePool to DefaultPool\n        _activePool.decreaseSUSDDebt(_debt);\n        _defaultPool.increaseSUSDDebt(_debt);\n        _activePool.sendCollaterals(address(_defaultPool), _tokens, _amounts);\n    }\n\n    function closeTrove(address _borrower) external override {\n        _requireCallerIsBorrowerOperations();\n        return _closeTrove(_borrower, Status.closedByOwner);\n    }\n\n    function closeTroveLiquidation(address _borrower) external override {\n        _requireCallerIsTML();\n        return _closeTrove(_borrower, Status.closedByLiquidation);\n    }\n\n    function closeTroveRedemption(address _borrower) external override {\n        _requireCallerIsTMR();\n        return _closeTrove(_borrower, Status.closedByRedemption);\n    }\n\n    function _closeTrove(address _borrower, Status closedStatus) internal {\n        require(closedStatus != Status.nonExistent && closedStatus != Status.active, \"Status must be active and exists\");\n\n        uint TroveOwnersArrayLength = TroveOwners.length;\n        _requireMoreThanOneTroveInSystem(TroveOwnersArrayLength);\n        newColls memory emptyColls;\n\n\n        address[] memory allColls = Troves[_borrower].colls.tokens;        \n        uint allCollsLen = allColls.length;\n        for (uint256 i; i < allCollsLen; ++i) {\n            address thisAllColls = allColls[i];\n            rewardSnapshots[_borrower].CollRewards[thisAllColls] = 0;\n            rewardSnapshots[_borrower].SUSDDebts[thisAllColls] = 0;\n        }\n\n        Troves[_borrower].status = closedStatus;\n        Troves[_borrower].colls = emptyColls;\n        Troves[_borrower].debt = 0;\n\n        _removeTroveOwner(_borrower, TroveOwnersArrayLength);\n        sortedTroves.remove(_borrower);\n    }\n\n    /*\n    * Updates snapshots of system total stakes and total collateral, excluding a given collateral remainder from the calculation.\n    * Used in a liquidation sequence.\n    *\n    * The calculation excludes a portion of collateral that is in the ActivePool:\n    *\n    * the total Coll gas compensation from the liquidation sequence\n    *\n    * The Coll as compensation must be excluded as it is always sent out at the very end of the liquidation sequence.\n    */\n    function updateSystemSnapshots_excludeCollRemainder(IActivePool _activePool, address[] memory _tokens, uint[] memory _amounts) external override {\n        _requireCallerIsTML();\n        uint256 tokensLen = _tokens.length;\n        for (uint256 i; i < tokensLen; ++i) {\n            address token = _tokens[i];\n            totalStakesSnapshot[token] = totalStakes[token];\n\n            uint _tokenRemainder = _amounts[i];\n            uint activeColl = _activePool.getCollateral(token);\n            uint liquidatedColl = defaultPool.getCollateral(token);\n            totalCollateralSnapshot[token] = activeColl.sub(_tokenRemainder).add(liquidatedColl);\n        }\n        emit SystemSnapshotsUpdated(block.timestamp);\n    }\n\n    // Push the owner's address to the Trove owners list, and record the corresponding array index on the Trove struct\n    function addTroveOwnerToArray(address _borrower) external override returns (uint) {\n        _requireCallerIsBorrowerOperations();\n        return _addTroveOwnerToArray(_borrower);\n    }\n\n    function _addTroveOwnerToArray(address _borrower) internal returns (uint128 index) {\n        /* Max array size is 2**128 - 1, i.e. ~3e30 troves. No risk of overflow, since troves have minimum YUSD\n        debt of liquidation reserve plus MIN_NET_DEBT. 3e30 YUSD dwarfs the value of all wealth in the world ( which is < 1e15 USD). */\n        // Push the Troveowner to the array\n        TroveOwners.push(_borrower);\n\n        // Record the index of the new Troveowner on their Trove struct\n        index = uint128(TroveOwners.length.sub(1));\n        Troves[_borrower].arrayIndex = index;\n    }\n\n    /*\n    * Remove a Trove owner from the TroveOwners array, not preserving array order. Removing owner 'B' does the following:\n    * [A B C D E] => [A E C D], and updates E's Trove struct to point to its new array index.\n    */\n    function _removeTroveOwner(address _borrower, uint TroveOwnersArrayLength) internal {\n        Status troveStatus = Troves[_borrower].status;\n        // Its set in caller function `_closeTrove`\n        require(troveStatus != Status.nonExistent && troveStatus != Status.active, \"TM: trove !exists or !active\");\n\n        uint128 index = Troves[_borrower].arrayIndex;\n        uint length = TroveOwnersArrayLength;\n        uint idxLast = length.sub(1);\n\n        require(index <= idxLast, \"TM: index must be > last index\");\n\n        address addressToMove = TroveOwners[idxLast];\n\n        TroveOwners[index] = addressToMove;\n        Troves[addressToMove].arrayIndex = index;\n        emit TroveIndexUpdated(addressToMove, index);\n\n        TroveOwners.pop();\n    }\n\n    // --- Recovery Mode and TCR functions ---\n\n    function getTCR() external view override returns (uint) {\n        return _getTCR();\n    }\n\n    function checkRecoveryMode() external view override returns (bool) {\n        return _checkRecoveryMode();\n    }\n\n\n    // --- Redemption fee functions ---\n\n    function updateBaseRate(uint newBaseRate) external override {\n        _requireCallerIsTMR();\n        require(newBaseRate != 0, \"TM: newBaseRate must be > 0\");\n        baseRate = newBaseRate;\n        emit BaseRateUpdated(newBaseRate);\n        _updateLastFeeOpTime();\n    }\n\n    function getRedemptionRate() public view override returns (uint) {\n        return _calcRedemptionRate(baseRate);\n    }\n\n    function getRedemptionRateWithDecay() public view override returns (uint) {\n        return _calcRedemptionRate(calcDecayedBaseRate());\n    }\n\n    function _calcRedemptionRate(uint _baseRate) internal pure returns (uint) {\n        return LiquityMath._min(\n            REDEMPTION_FEE_FLOOR.add(_baseRate),\n            DECIMAL_PRECISION // cap at a maximum of 100%\n        );\n    }\n\n    function _getRedemptionFee(uint _SUSDRedeemed) internal view returns (uint) {\n        return _calcRedemptionFee(getRedemptionRate(), _SUSDRedeemed);\n    }\n\n    function getRedemptionFeeWithDecay(uint _SUSDRedeemed) external view override returns (uint) {\n        return _calcRedemptionFee(getRedemptionRateWithDecay(), _SUSDRedeemed);\n    }\n\n    function _calcRedemptionFee(uint _redemptionRate, uint _SUSDRedeemed) internal pure returns (uint) {\n        uint redemptionFee = _redemptionRate.mul(_SUSDRedeemed).div(DECIMAL_PRECISION);\n        require(redemptionFee < _SUSDRedeemed, \"TM:Fee>returned colls\");\n        return redemptionFee;\n    }\n\n\n    // --- Borrowing fee functions ---\n\n    function getBorrowingRate() public view override returns (uint) {\n        return _calcBorrowingRate(baseRate);\n    }\n\n    function getBorrowingRateWithDecay() public view override returns (uint) {\n        return _calcBorrowingRate(calcDecayedBaseRate());\n    }\n\n    function _calcBorrowingRate(uint _baseRate) internal pure returns (uint) {\n        return LiquityMath._min(\n            BORROWING_FEE_FLOOR.add(_baseRate),\n            MAX_BORROWING_FEE\n        );\n    }\n\n    function getBorrowingFee(uint _SUSDDebt) external view override returns (uint) {\n        return _calcBorrowingFee(getBorrowingRate(), _SUSDDebt);\n    }\n\n    function getBorrowingFeeWithDecay(uint _SUSDDebt) external view override returns (uint) {\n        return _calcBorrowingFee(getBorrowingRateWithDecay(), _SUSDDebt);\n    }\n\n    function _calcBorrowingFee(uint _borrowingRate, uint _SUSDDebt) internal pure returns (uint) {\n        return _borrowingRate.mul(_SUSDDebt).div(DECIMAL_PRECISION);\n    }\n\n\n    // Updates the baseRate state variable based on time elapsed since the last redemption or YUSD borrowing operation.\n    function decayBaseRateFromBorrowing() external override {\n        _requireCallerIsBorrowerOperations();\n\n        uint decayedBaseRate = calcDecayedBaseRate();\n        require(decayedBaseRate <= DECIMAL_PRECISION, \"TM: decayed base rate too small\");  // The baseRate can decay to 0\n\n        baseRate = decayedBaseRate;\n        emit BaseRateUpdated(decayedBaseRate);\n\n        _updateLastFeeOpTime();\n    }\n\n\n    // --- Internal fee functions ---\n\n    // Update the last fee operation time only if time passed >= decay interval. This prevents base rate griefing.\n    function _updateLastFeeOpTime() internal {\n        uint timePassed = block.timestamp.sub(lastFeeOperationTime);\n\n        if (timePassed >= SECONDS_IN_ONE_MINUTE) {\n            lastFeeOperationTime = block.timestamp;\n            emit LastFeeOpTimeUpdated(block.timestamp);\n        }\n    }\n\n    function calcDecayedBaseRate() public view override returns (uint) {\n        uint minutesPassed = _minutesPassedSinceLastFeeOp();\n        uint decayFactor = LiquityMath._decPow(MINUTE_DECAY_FACTOR, minutesPassed);\n\n        return baseRate.mul(decayFactor).div(DECIMAL_PRECISION);\n    }\n\n    function _minutesPassedSinceLastFeeOp() internal view returns (uint) {\n        return (block.timestamp.sub(lastFeeOperationTime)).div(SECONDS_IN_ONE_MINUTE);\n    }\n\n    // --- 'require' wrapper functions ---\n\n    function _requireCallerIsBorrowerOperations() internal view {\n        if (msg.sender != borrowerOperationsAddress) {\n            _revertWrongFuncCaller();\n        }\n    }\n\n    function _requireCallerIsBOorTMR() internal view {\n        if (msg.sender != borrowerOperationsAddress && msg.sender != troveManagerRedemptionsAddress) {\n            _revertWrongFuncCaller();\n        }\n    }\n\n    function _requireCallerIsTMR() internal view {\n        if (msg.sender != troveManagerRedemptionsAddress) {\n            _revertWrongFuncCaller();\n        }\n    }\n\n    function _requireCallerIsTML() internal view {\n        if (msg.sender != troveManagerLiquidationsAddress) {\n            _revertWrongFuncCaller();\n        }\n    }\n\n    function _revertWrongFuncCaller() internal pure {\n        revert(\"TM: External caller not allowed\");\n    }\n\n    function _requireTroveIsActive(address _borrower) internal view {\n        require(Troves[_borrower].status == Status.active, \"TM: trove must exist\");\n    }\n\n    function _requireMoreThanOneTroveInSystem(uint TroveOwnersArrayLength) internal view {\n        require (TroveOwnersArrayLength > 1 && sortedTroves.getSize() > 1, \"TM: last trove\");\n    }\n\n    // --- Trove property getters ---\n\n    function getTroveStatus(address _borrower) external view override returns (uint) {\n        return uint(Troves[_borrower].status);\n    }\n\n    function isTroveActive(address _borrower) external view override returns (bool) {\n        return Troves[_borrower].status == Status.active;\n    }\n\n    function getTroveStake(address _borrower, address _token) external view override returns (uint) {\n        return Troves[_borrower].stakes[_token];\n    }\n\n    function getTroveDebt(address _borrower) external view override returns (uint) {\n        return Troves[_borrower].debt;\n    }\n\n    // -- Trove Manager State Variable Getters -- \n\n    function getTotalStake(address _token) external view override returns (uint) {\n        return totalStakes[_token];\n    }\n\n    function getL_Coll(address _token) external view override returns (uint) {\n        return L_Coll[_token];\n    }\n\n    function getL_SUSD(address _token) external view override returns (uint) {\n        return L_SUSDDebt[_token];\n    }\n\n    function getRewardSnapshotColl(address _borrower, address _token) external view override returns (uint) {\n        return rewardSnapshots[_borrower].CollRewards[_token];\n    }\n\n    function getRewardSnapshotSUSD(address _borrower, address _token) external view override returns (uint) {\n        return rewardSnapshots[_borrower].SUSDDebts[_token];\n    }\n\n    // recomputes VC given current prices and returns it\n    function getTroveVC(address _borrower) external view override returns (uint) {\n        return _getVCColls(Troves[_borrower].colls);\n    }\n\n    function getTroveColls(address _borrower) external view override returns (address[] memory, uint[] memory) {\n        return (Troves[_borrower].colls.tokens, Troves[_borrower].colls.amounts);\n    }\n\n    function getCurrentTroveState(address _borrower) external override view returns (address[] memory, uint[] memory, uint) {\n        (newColls memory colls, uint currentSUSDDebt) = _getCurrentTroveState(_borrower);\n        return (colls.tokens, colls.amounts, currentSUSDDebt);\n    }\n\n    // --- Called by TroveManagerRedemptions Only ---\n\n\n    function updateTroveDebt(address _borrower, uint debt) external override {\n        _requireCallerIsTMR();\n        Troves[_borrower].debt = debt;\n    }\n\n    function updateTroveCollTMR(address  _borrower, address[] memory addresses, uint[] memory amounts) external override {\n        _requireCallerIsTMR();\n        (Troves[_borrower].colls.tokens, Troves[_borrower].colls.amounts) = (addresses, amounts);\n    }\n\n    function removeStakeTMR(address _borrower) external override {\n        _requireCallerIsTMR();\n        _removeStake(_borrower);\n    }\n\n    // --- Called by TroverManagerLiquidations Only ---\n\n    function removeStakeTLR(address _borrower) external override {\n        _requireCallerIsTML();\n        _removeStake(_borrower);\n    }\n\n    // --- Trove property setters, called by BorrowerOperations ---\n\n    function setTroveStatus(address _borrower, uint _num) external override {\n        _requireCallerIsBorrowerOperations();\n        Troves[_borrower].status = Status(_num);\n    }\n\n    function updateTroveColl(address _borrower, address[] memory _tokens, uint[] memory _amounts) external override {\n        _requireCallerIsBorrowerOperations();\n        require(_tokens.length == _amounts.length, \"TM: length mismatch\");\n        Troves[_borrower].colls.tokens = _tokens;\n        Troves[_borrower].colls.amounts = _amounts;\n    }\n\n    function increaseTroveDebt(address _borrower, uint _debtIncrease) external override returns (uint) {\n        _requireCallerIsBorrowerOperations();\n        uint newDebt = Troves[_borrower].debt.add(_debtIncrease);\n        Troves[_borrower].debt = newDebt;\n        return newDebt;\n    }\n\n    function decreaseTroveDebt(address _borrower, uint _debtDecrease) external override returns (uint) {\n        _requireCallerIsBorrowerOperations();\n        uint newDebt = Troves[_borrower].debt.sub(_debtDecrease);\n        Troves[_borrower].debt = newDebt;\n        return newDebt;\n    }\n\n    // --- contract getters ---\n\n    function stabilityPool() external view override returns (IStabilityPool) {\n        return stabilityPoolContract;\n    }\n\n    function susdToken() external view override returns (ISUSDToken) {\n        return susdTokenContract;\n    }\n\n    function stbToken() external view override returns (ISTBToken) {\n        return stbTokenContract;\n    }\n\n    function sSTB() external view override returns (ISSTB) {\n        return sSTBContract;\n    }\n }",
  "sourcePath": "/Users/phaxsam/Core-Stability_Truffle/contracts/TroveManager.sol",
  "compiler": {
    "name": "solc",
    "version": "0.6.11+commit.5ef660b1.Emscripten.clang"
  },
  "schemaVersion": "3.4.9",
  "updatedAt": "2022-08-15T22:38:51.841Z",
  "devdoc": {
    "kind": "dev",
    "methods": {
      "isOwner()": {
        "details": "Returns true if the caller is the current owner."
      },
      "owner()": {
        "details": "Returns the address of the current owner."
      }
    },
    "version": 1
  },
  "userdoc": {
    "kind": "user",
    "methods": {},
    "notice": "Trove Manager is the contract which deals with the state of a user's trove. It has all the  external functions for liquidations, redemptions, as well as functions called by  BorrowerOperations function calls. ",
    "version": 1
  }
}