{
  "contractName": "TroveManagerBase",
  "abi": [
    {
      "anonymous": false,
      "inputs": [
        {
          "indexed": true,
          "internalType": "address",
          "name": "previousOwner",
          "type": "address"
        },
        {
          "indexed": true,
          "internalType": "address",
          "name": "newOwner",
          "type": "address"
        }
      ],
      "name": "OwnershipTransferred",
      "type": "event"
    },
    {
      "anonymous": false,
      "inputs": [
        {
          "indexed": true,
          "internalType": "address",
          "name": "_borrower",
          "type": "address"
        },
        {
          "indexed": false,
          "internalType": "uint256",
          "name": "_debt",
          "type": "uint256"
        },
        {
          "indexed": false,
          "internalType": "address[]",
          "name": "_tokens",
          "type": "address[]"
        },
        {
          "indexed": false,
          "internalType": "uint256[]",
          "name": "_amounts",
          "type": "uint256[]"
        },
        {
          "indexed": false,
          "internalType": "enum TroveManagerBase.TroveManagerOperation",
          "name": "operation",
          "type": "uint8"
        }
      ],
      "name": "TroveUpdated",
      "type": "event"
    },
    {
      "inputs": [],
      "name": "BORROWING_FEE_FLOOR",
      "outputs": [
        {
          "internalType": "uint256",
          "name": "",
          "type": "uint256"
        }
      ],
      "stateMutability": "view",
      "type": "function"
    },
    {
      "inputs": [],
      "name": "CCR",
      "outputs": [
        {
          "internalType": "uint256",
          "name": "",
          "type": "uint256"
        }
      ],
      "stateMutability": "view",
      "type": "function"
    },
    {
      "inputs": [],
      "name": "DECIMAL_PRECISION",
      "outputs": [
        {
          "internalType": "uint256",
          "name": "",
          "type": "uint256"
        }
      ],
      "stateMutability": "view",
      "type": "function"
    },
    {
      "inputs": [],
      "name": "MCR",
      "outputs": [
        {
          "internalType": "uint256",
          "name": "",
          "type": "uint256"
        }
      ],
      "stateMutability": "view",
      "type": "function"
    },
    {
      "inputs": [],
      "name": "MIN_NET_DEBT",
      "outputs": [
        {
          "internalType": "uint256",
          "name": "",
          "type": "uint256"
        }
      ],
      "stateMutability": "view",
      "type": "function"
    },
    {
      "inputs": [],
      "name": "REDEMPTION_FEE_FLOOR",
      "outputs": [
        {
          "internalType": "uint256",
          "name": "",
          "type": "uint256"
        }
      ],
      "stateMutability": "view",
      "type": "function"
    },
    {
      "inputs": [],
      "name": "SUSD_GAS_COMPENSATION",
      "outputs": [
        {
          "internalType": "uint256",
          "name": "",
          "type": "uint256"
        }
      ],
      "stateMutability": "view",
      "type": "function"
    },
    {
      "inputs": [],
      "name": "getEntireSystemColl",
      "outputs": [
        {
          "internalType": "uint256",
          "name": "",
          "type": "uint256"
        }
      ],
      "stateMutability": "view",
      "type": "function"
    },
    {
      "inputs": [],
      "name": "getEntireSystemDebt",
      "outputs": [
        {
          "internalType": "uint256",
          "name": "",
          "type": "uint256"
        }
      ],
      "stateMutability": "view",
      "type": "function"
    },
    {
      "inputs": [],
      "name": "isOwner",
      "outputs": [
        {
          "internalType": "bool",
          "name": "",
          "type": "bool"
        }
      ],
      "stateMutability": "view",
      "type": "function"
    },
    {
      "inputs": [],
      "name": "owner",
      "outputs": [
        {
          "internalType": "address",
          "name": "",
          "type": "address"
        }
      ],
      "stateMutability": "view",
      "type": "function"
    }
  ],
  "bytecode": "0x608060405234801561001057600080fd5b5033600360006101000a81548173ffffffffffffffffffffffffffffffffffffffff021916908373ffffffffffffffffffffffffffffffffffffffff1602179055503373ffffffffffffffffffffffffffffffffffffffff16600073ffffffffffffffffffffffffffffffffffffffff167f8be0079c531659141344cd1fd0a4f28419497f9722a3daafe3b4186f6b6457e060405160405180910390a36105ed806100bc6000396000f3fe608060405234801561001057600080fd5b50600436106100a95760003560e01c806387dc66561161007157806387dc665614610144578063887105d3146101625780638da5cb5b146101805780638f32d59b146101ca578063a20baee6146101ec578063f92d34331461020a576100a9565b80631bf43555146100ae57806328d28b5b146100cc5780635733d58f146100ea578063794e572414610108578063795d26c314610126575b600080fd5b6100b6610228565b6040518082815260200191505060405180910390f35b6100d4610235565b6040518082815260200191505060405180910390f35b6100f261024f565b6040518082815260200191505060405180910390f35b61011061025b565b6040518082815260200191505060405180910390f35b61012e610267565b6040518082815260200191505060405180910390f35b61014c6103d0565b6040518082815260200191505060405180910390f35b61016a6103dd565b6040518082815260200191505060405180910390f35b610188610487565b604051808273ffffffffffffffffffffffffffffffffffffffff1673ffffffffffffffffffffffffffffffffffffffff16815260200191505060405180910390f35b6101d26104b1565b604051808215151515815260200191505060405180910390f35b6101f4610509565b6040518082815260200191505060405180910390f35b610212610515565b6040518082815260200191505060405180910390f35b68056bc75e2d6310000081565b60056103e8670de0b6b3a76400008161024a57fe5b040281565b6714d1120d7b16000081565b670f43fc2c04ee000081565b600080600160009054906101000a900473ffffffffffffffffffffffffffffffffffffffff1673ffffffffffffffffffffffffffffffffffffffff1663c24103646040518163ffffffff1660e01b815260040160206040518083038186803b1580156102d257600080fd5b505afa1580156102e6573d6000803e3d6000fd5b505050506040513d60208110156102fc57600080fd5b810190808051906020019092919050505090506000600260009054906101000a900473ffffffffffffffffffffffffffffffffffffffff1673ffffffffffffffffffffffffffffffffffffffff1663c24103646040518163ffffffff1660e01b815260040160206040518083038186803b15801561037957600080fd5b505afa15801561038d573d6000803e3d6000fd5b505050506040513d60208110156103a357600080fd5b810190808051906020019092919050505090506103c9818361052f90919063ffffffff16565b9250505090565b6802b5e3af16b188000081565b6000600160009054906101000a900473ffffffffffffffffffffffffffffffffffffffff1673ffffffffffffffffffffffffffffffffffffffff1663651340c46040518163ffffffff1660e01b815260040160206040518083038186803b15801561044757600080fd5b505afa15801561045b573d6000803e3d6000fd5b505050506040513d602081101561047157600080fd5b8101908080519060200190929190505050905090565b6000600360009054906101000a900473ffffffffffffffffffffffffffffffffffffffff16905090565b6000600360009054906101000a900473ffffffffffffffffffffffffffffffffffffffff1673ffffffffffffffffffffffffffffffffffffffff163373ffffffffffffffffffffffffffffffffffffffff1614905090565b670de0b6b3a764000081565b60056103e8670de0b6b3a76400008161052a57fe5b040281565b6000808284019050838110156105ad576040517f08c379a000000000000000000000000000000000000000000000000000000000815260040180806020018281038252600c8152602001807f616464206f766572666c6f77000000000000000000000000000000000000000081525060200191505060405180910390fd5b809150509291505056fea264697066735822122034dfee67a585fefad2e6cdd32d82dde9bf181a87e72b8f5d85a6dbf8f3b44c4164736f6c634300060b0033",
  "immutableReferences": {},
  "source": "// SPDX-License-Identifier: UNLICENSED\n\npragma solidity 0.6.11;\n\nimport \"../Interfaces/ITroveManager.sol\";\nimport \"../Interfaces/IStabilityPool.sol\";\nimport \"../Interfaces/ICollSurplusPool.sol\";\nimport \"../Interfaces/ISUSDToken.sol\";\nimport \"../Interfaces/ISortedTroves.sol\";\nimport \"../Interfaces/ISTBToken.sol\";\n//import \"../Interfaces/ISSTB.sol\";\nimport \"../Interfaces/ISTBStaking.sol\";\nimport \"../Interfaces/IActivePool.sol\";\nimport \"../Interfaces/ITroveManagerLiquidations.sol\";\nimport \"../Interfaces/ITroveManagerRedemptions.sol\"; ///Users/phaxsam/Core-Stability_Truffle/Interfaces/ITroveRedemptions.sol\nimport \"./LiquityBase.sol\";\nimport \"./Ownable.sol\";\n\n/** \n * Contains shared functionality of TroveManagerLiquidations, TroveManagerRedemptions, and TroveManager. \n * Keeps addresses to cache, events, structs, status, etc. Also keeps Trove struct. \n */\n\ncontract TroveManagerBase is LiquityBase, Ownable {\n\n    // --- Connected contract declarations ---\n\n    // A doubly linked list of Troves, sorted by their sorted by their individual collateral ratios\n\n    struct ContractsCache {\n        IActivePool activePool;\n        IDefaultPool defaultPool;\n        ISUSDToken susdToken;\n        ISSTB sSTB;\n        ISortedTroves sortedTroves;\n        ICollSurplusPool collSurplusPool;\n        address gasPoolAddress;\n    }\n\n    struct SingleRedemptionValues {\n        uint SUSDLot;\n        newColls CollLot;\n        bool cancelledPartial;\n    }\n\n    enum Status {\n        nonExistent,\n        active,\n        closedByOwner,\n        closedByLiquidation,\n        closedByRedemption\n    }\n\n    enum TroveManagerOperation {\n        applyPendingRewards,\n        liquidateInNormalMode,\n        liquidateInRecoveryMode,\n        redeemCollateral\n    }\n\n    // Store the necessary data for a trove\n    struct Trove {\n        newColls colls;\n        uint debt;\n        mapping(address => uint) stakes;\n        Status status;\n        uint128 arrayIndex;\n    }\n\n\n    event TroveUpdated(address indexed _borrower, uint _debt, address[] _tokens, uint[] _amounts, TroveManagerOperation operation);\n}",
  "sourcePath": "/Users/phaxsam/Core-Stability_Truffle/Dependencies/TroveManagerBase.sol",
  "compiler": {
    "name": "solc",
    "version": "0.6.11+commit.5ef660b1.Emscripten.clang"
  },
  "schemaVersion": "3.4.9",
  "updatedAt": "2022-08-15T22:38:51.732Z",
  "devdoc": {
    "kind": "dev",
    "methods": {
      "isOwner()": {
        "details": "Returns true if the caller is the current owner."
      },
      "owner()": {
        "details": "Returns the address of the current owner."
      }
    },
    "version": 1
  },
  "userdoc": {
    "kind": "user",
    "methods": {},
    "notice": "Contains shared functionality of TroveManagerLiquidations, TroveManagerRedemptions, and TroveManager.  Keeps addresses to cache, events, structs, status, etc. Also keeps Trove struct. ",
    "version": 1
  }
}