{
  "contractName": "TroveManagerLiquidations",
  "abi": [
    {
      "anonymous": false,
      "inputs": [
        {
          "indexed": false,
          "internalType": "uint256",
          "name": "liquidatedAmount",
          "type": "uint256"
        },
        {
          "indexed": false,
          "internalType": "uint256",
          "name": "totalSUSDGasCompensation",
          "type": "uint256"
        },
        {
          "indexed": false,
          "internalType": "address[]",
          "name": "totalCollTokens",
          "type": "address[]"
        },
        {
          "indexed": false,
          "internalType": "uint256[]",
          "name": "totalCollAmounts",
          "type": "uint256[]"
        },
        {
          "indexed": false,
          "internalType": "address[]",
          "name": "totalCollGasCompTokens",
          "type": "address[]"
        },
        {
          "indexed": false,
          "internalType": "uint256[]",
          "name": "totalCollGasCompAmounts",
          "type": "uint256[]"
        }
      ],
      "name": "Liquidation",
      "type": "event"
    },
    {
      "anonymous": false,
      "inputs": [
        {
          "indexed": true,
          "internalType": "address",
          "name": "previousOwner",
          "type": "address"
        },
        {
          "indexed": true,
          "internalType": "address",
          "name": "newOwner",
          "type": "address"
        }
      ],
      "name": "OwnershipTransferred",
      "type": "event"
    },
    {
      "anonymous": false,
      "inputs": [
        {
          "indexed": true,
          "internalType": "address",
          "name": "_borrower",
          "type": "address"
        },
        {
          "indexed": false,
          "internalType": "uint256",
          "name": "_debt",
          "type": "uint256"
        },
        {
          "indexed": false,
          "internalType": "enum TroveManagerBase.TroveManagerOperation",
          "name": "_operation",
          "type": "uint8"
        }
      ],
      "name": "TroveLiquidated",
      "type": "event"
    },
    {
      "anonymous": false,
      "inputs": [
        {
          "indexed": true,
          "internalType": "address",
          "name": "_borrower",
          "type": "address"
        },
        {
          "indexed": false,
          "internalType": "uint256",
          "name": "_debt",
          "type": "uint256"
        },
        {
          "indexed": false,
          "internalType": "address[]",
          "name": "_tokens",
          "type": "address[]"
        },
        {
          "indexed": false,
          "internalType": "uint256[]",
          "name": "_amounts",
          "type": "uint256[]"
        },
        {
          "indexed": false,
          "internalType": "enum TroveManagerBase.TroveManagerOperation",
          "name": "operation",
          "type": "uint8"
        }
      ],
      "name": "TroveUpdated",
      "type": "event"
    },
    {
      "inputs": [],
      "name": "BORROWING_FEE_FLOOR",
      "outputs": [
        {
          "internalType": "uint256",
          "name": "",
          "type": "uint256"
        }
      ],
      "stateMutability": "view",
      "type": "function"
    },
    {
      "inputs": [],
      "name": "CCR",
      "outputs": [
        {
          "internalType": "uint256",
          "name": "",
          "type": "uint256"
        }
      ],
      "stateMutability": "view",
      "type": "function"
    },
    {
      "inputs": [],
      "name": "DECIMAL_PRECISION",
      "outputs": [
        {
          "internalType": "uint256",
          "name": "",
          "type": "uint256"
        }
      ],
      "stateMutability": "view",
      "type": "function"
    },
    {
      "inputs": [],
      "name": "MCR",
      "outputs": [
        {
          "internalType": "uint256",
          "name": "",
          "type": "uint256"
        }
      ],
      "stateMutability": "view",
      "type": "function"
    },
    {
      "inputs": [],
      "name": "MIN_NET_DEBT",
      "outputs": [
        {
          "internalType": "uint256",
          "name": "",
          "type": "uint256"
        }
      ],
      "stateMutability": "view",
      "type": "function"
    },
    {
      "inputs": [],
      "name": "NAME",
      "outputs": [
        {
          "internalType": "bytes32",
          "name": "",
          "type": "bytes32"
        }
      ],
      "stateMutability": "view",
      "type": "function"
    },
    {
      "inputs": [],
      "name": "PERCENT_DIVISOR",
      "outputs": [
        {
          "internalType": "uint256",
          "name": "",
          "type": "uint256"
        }
      ],
      "stateMutability": "view",
      "type": "function"
    },
    {
      "inputs": [],
      "name": "REDEMPTION_FEE_FLOOR",
      "outputs": [
        {
          "internalType": "uint256",
          "name": "",
          "type": "uint256"
        }
      ],
      "stateMutability": "view",
      "type": "function"
    },
    {
      "inputs": [],
      "name": "SUSD_GAS_COMPENSATION",
      "outputs": [
        {
          "internalType": "uint256",
          "name": "",
          "type": "uint256"
        }
      ],
      "stateMutability": "view",
      "type": "function"
    },
    {
      "inputs": [],
      "name": "_100pct",
      "outputs": [
        {
          "internalType": "uint256",
          "name": "",
          "type": "uint256"
        }
      ],
      "stateMutability": "view",
      "type": "function"
    },
    {
      "inputs": [],
      "name": "getEntireSystemColl",
      "outputs": [
        {
          "internalType": "uint256",
          "name": "",
          "type": "uint256"
        }
      ],
      "stateMutability": "view",
      "type": "function"
    },
    {
      "inputs": [],
      "name": "getEntireSystemDebt",
      "outputs": [
        {
          "internalType": "uint256",
          "name": "",
          "type": "uint256"
        }
      ],
      "stateMutability": "view",
      "type": "function"
    },
    {
      "inputs": [],
      "name": "isOwner",
      "outputs": [
        {
          "internalType": "bool",
          "name": "",
          "type": "bool"
        }
      ],
      "stateMutability": "view",
      "type": "function"
    },
    {
      "inputs": [],
      "name": "owner",
      "outputs": [
        {
          "internalType": "address",
          "name": "",
          "type": "address"
        }
      ],
      "stateMutability": "view",
      "type": "function"
    },
    {
      "inputs": [
        {
          "internalType": "address",
          "name": "_borrowerOperationsAddress",
          "type": "address"
        },
        {
          "internalType": "address",
          "name": "_activePoolAddress",
          "type": "address"
        },
        {
          "internalType": "address",
          "name": "_defaultPoolAddress",
          "type": "address"
        },
        {
          "internalType": "address",
          "name": "_stabilityPoolAddress",
          "type": "address"
        },
        {
          "internalType": "address",
          "name": "_gasPoolAddress",
          "type": "address"
        },
        {
          "internalType": "address",
          "name": "_collSurplusPoolAddress",
          "type": "address"
        },
        {
          "internalType": "address",
          "name": "_susdTokenAddress",
          "type": "address"
        },
        {
          "internalType": "address",
          "name": "_sortedTrovesAddress",
          "type": "address"
        },
        {
          "internalType": "address",
          "name": "_stbTokenAddress",
          "type": "address"
        },
        {
          "internalType": "address",
          "name": "_sSTBAddress",
          "type": "address"
        },
        {
          "internalType": "address",
          "name": "_whitelistAddress",
          "type": "address"
        },
        {
          "internalType": "address",
          "name": "_troveManagerAddress",
          "type": "address"
        },
        {
          "internalType": "address",
          "name": "_stabilityFinanceTreasury",
          "type": "address"
        }
      ],
      "name": "setAddresses",
      "outputs": [],
      "stateMutability": "nonpayable",
      "type": "function"
    },
    {
      "inputs": [
        {
          "internalType": "address[]",
          "name": "_troveArray",
          "type": "address[]"
        },
        {
          "internalType": "address",
          "name": "_liquidator",
          "type": "address"
        }
      ],
      "name": "batchLiquidateTroves",
      "outputs": [],
      "stateMutability": "nonpayable",
      "type": "function"
    }
  ],
  "bytecode": "0x608060405234801561001057600080fd5b5033600360006101000a81548173ffffffffffffffffffffffffffffffffffffffff021916908373ffffffffffffffffffffffffffffffffffffffff1602179055503373ffffffffffffffffffffffffffffffffffffffff16600073ffffffffffffffffffffffffffffffffffffffff167f8be0079c531659141344cd1fd0a4f28419497f9722a3daafe3b4186f6b6457e060405160405180910390a361608780620000bd6000396000f3fe608060405234801561001057600080fd5b50600436106101005760003560e01c8063887105d311610097578063a3f4df7e11610066578063a3f4df7e1461029d578063db5e7321146102bb578063e369e4ab14610480578063f92d34331461055857610100565b8063887105d3146101f55780638da5cb5b146102135780638f32d59b1461025d578063a20baee61461027f57610100565b806372fe25aa116100d357806372fe25aa1461017d578063794e57241461019b578063795d26c3146101b957806387dc6656146101d757610100565b80631bf435551461010557806328d28b5b146101235780634870dd9a146101415780635733d58f1461015f575b600080fd5b61010d610576565b6040518082815260200191505060405180910390f35b61012b610583565b6040518082815260200191505060405180910390f35b61014961059d565b6040518082815260200191505060405180910390f35b6101676105a2565b6040518082815260200191505060405180910390f35b6101856105ae565b6040518082815260200191505060405180910390f35b6101a36105ba565b6040518082815260200191505060405180910390f35b6101c16105c6565b6040518082815260200191505060405180910390f35b6101df61072f565b6040518082815260200191505060405180910390f35b6101fd61073c565b6040518082815260200191505060405180910390f35b61021b6107e6565b604051808273ffffffffffffffffffffffffffffffffffffffff1673ffffffffffffffffffffffffffffffffffffffff16815260200191505060405180910390f35b610265610810565b604051808215151515815260200191505060405180910390f35b610287610868565b6040518082815260200191505060405180910390f35b6102a5610874565b6040518082815260200191505060405180910390f35b61047e60048036036101a08110156102d257600080fd5b81019080803573ffffffffffffffffffffffffffffffffffffffff169060200190929190803573ffffffffffffffffffffffffffffffffffffffff169060200190929190803573ffffffffffffffffffffffffffffffffffffffff169060200190929190803573ffffffffffffffffffffffffffffffffffffffff169060200190929190803573ffffffffffffffffffffffffffffffffffffffff169060200190929190803573ffffffffffffffffffffffffffffffffffffffff169060200190929190803573ffffffffffffffffffffffffffffffffffffffff169060200190929190803573ffffffffffffffffffffffffffffffffffffffff169060200190929190803573ffffffffffffffffffffffffffffffffffffffff169060200190929190803573ffffffffffffffffffffffffffffffffffffffff169060200190929190803573ffffffffffffffffffffffffffffffffffffffff169060200190929190803573ffffffffffffffffffffffffffffffffffffffff169060200190929190803573ffffffffffffffffffffffffffffffffffffffff169060200190929190505050610898565b005b6105566004803603604081101561049657600080fd5b81019080803590602001906401000000008111156104b357600080fd5b8201836020820111156104c557600080fd5b803590602001918460208302840111640100000000831117156104e757600080fd5b919080806020026020016040519081016040528093929190818152602001838360200280828437600081840152601f19601f820116905080830192505050505050509192919290803573ffffffffffffffffffffffffffffffffffffffff169060200190929190505050610cb6565b005b61056061166c565b6040518082815260200191505060405180910390f35b68056bc75e2d6310000081565b60056103e8670de0b6b3a76400008161059857fe5b040281565b60c881565b6714d1120d7b16000081565b670de0b6b3a764000081565b670f43fc2c04ee000081565b600080600160009054906101000a900473ffffffffffffffffffffffffffffffffffffffff1673ffffffffffffffffffffffffffffffffffffffff1663c24103646040518163ffffffff1660e01b815260040160206040518083038186803b15801561063157600080fd5b505afa158015610645573d6000803e3d6000fd5b505050506040513d602081101561065b57600080fd5b810190808051906020019092919050505090506000600260009054906101000a900473ffffffffffffffffffffffffffffffffffffffff1673ffffffffffffffffffffffffffffffffffffffff1663c24103646040518163ffffffff1660e01b815260040160206040518083038186803b1580156106d857600080fd5b505afa1580156106ec573d6000803e3d6000fd5b505050506040513d602081101561070257600080fd5b81019080805190602001909291905050509050610728818361168690919063ffffffff16565b9250505090565b6802b5e3af16b188000081565b6000600160009054906101000a900473ffffffffffffffffffffffffffffffffffffffff1673ffffffffffffffffffffffffffffffffffffffff1663651340c46040518163ffffffff1660e01b815260040160206040518083038186803b1580156107a657600080fd5b505afa1580156107ba573d6000803e3d6000fd5b505050506040513d60208110156107d057600080fd5b8101908080519060200190929190505050905090565b6000600360009054906101000a900473ffffffffffffffffffffffffffffffffffffffff16905090565b6000600360009054906101000a900473ffffffffffffffffffffffffffffffffffffffff1673ffffffffffffffffffffffffffffffffffffffff163373ffffffffffffffffffffffffffffffffffffffff1614905090565b670de0b6b3a764000081565b7f54726f76654d616e61676572526564656d7074696f6e7300000000000000000081565b6108a0610810565b610912576040517f08c379a000000000000000000000000000000000000000000000000000000000815260040180806020018281038252600e8152602001807f43616c6c65724e6f744f776e657200000000000000000000000000000000000081525060200191505060405180910390fd5b8c600460006101000a81548173ffffffffffffffffffffffffffffffffffffffff021916908373ffffffffffffffffffffffffffffffffffffffff1602179055508b600160006101000a81548173ffffffffffffffffffffffffffffffffffffffff021916908373ffffffffffffffffffffffffffffffffffffffff1602179055508a600260006101000a81548173ffffffffffffffffffffffffffffffffffffffff021916908373ffffffffffffffffffffffffffffffffffffffff16021790555089600560006101000a81548173ffffffffffffffffffffffffffffffffffffffff021916908373ffffffffffffffffffffffffffffffffffffffff160217905550826000806101000a81548173ffffffffffffffffffffffffffffffffffffffff021916908373ffffffffffffffffffffffffffffffffffffffff16021790555088600b60006101000a81548173ffffffffffffffffffffffffffffffffffffffff021916908373ffffffffffffffffffffffffffffffffffffffff16021790555087600e60006101000a81548173ffffffffffffffffffffffffffffffffffffffff021916908373ffffffffffffffffffffffffffffffffffffffff16021790555086600760006101000a81548173ffffffffffffffffffffffffffffffffffffffff021916908373ffffffffffffffffffffffffffffffffffffffff16021790555085600d60006101000a81548173ffffffffffffffffffffffffffffffffffffffff021916908373ffffffffffffffffffffffffffffffffffffffff16021790555084600860006101000a81548173ffffffffffffffffffffffffffffffffffffffff021916908373ffffffffffffffffffffffffffffffffffffffff16021790555083600960006101000a81548173ffffffffffffffffffffffffffffffffffffffff021916908373ffffffffffffffffffffffffffffffffffffffff16021790555081600660006101000a81548173ffffffffffffffffffffffffffffffffffffffff021916908373ffffffffffffffffffffffffffffffffffffffff16021790555081600c60006101000a81548173ffffffffffffffffffffffffffffffffffffffff021916908373ffffffffffffffffffffffffffffffffffffffff16021790555080600f60006101000a81548173ffffffffffffffffffffffffffffffffffffffff021916908373ffffffffffffffffffffffffffffffffffffffff160217905550610ca761170e565b50505050505050505050505050565b610cbe6117cf565b600082511415610d36576040517f08c379a00000000000000000000000000000000000000000000000000000000081526004018080602001828103825260198152602001807f544d4c3a204f6e652074726f7665206d7573742065786973740000000000000081525060200191505060405180910390fd5b6000600160009054906101000a900473ffffffffffffffffffffffffffffffffffffffff1690506000600260009054906101000a900473ffffffffffffffffffffffffffffffffffffffff1690506000600560009054906101000a900473ffffffffffffffffffffffffffffffffffffffff169050610db3615e83565b610dbb615ea6565b8273ffffffffffffffffffffffffffffffffffffffff1663fafeaa196040518163ffffffff1660e01b815260040160206040518083038186803b158015610e0157600080fd5b505afa158015610e15573d6000803e3d6000fd5b505050506040513d6020811015610e2b57600080fd5b8101908080519060200190929190505050826000018181525050610e4d611894565b826020019015159081151581525050816020015115610e7d57610e76858584600001518a6118ad565b9050610e90565b610e8d858584600001518a611d7e565b90505b600081602001511415610f0b576040517f08c379a00000000000000000000000000000000000000000000000000000000081526004018080602001828103825260198152602001807f544d4c3a206e6f7468696e6720746f206c69717569646174650000000000000081525060200191505060405180910390fd5b8273ffffffffffffffffffffffffffffffffffffffff1663768cc57582608001518360a00151600001518460a00151602001516040518463ffffffff1660e01b8152600401808481526020018060200180602001838103835285818151815260200191508051906020019060200280838360005b83811015610f9a578082015181840152602081019050610f7f565b50505050905001838103825284818151815260200191508051906020019060200280838360005b83811015610fdc578082015181840152602081019050610fc1565b5050505090500195505050505050600060405180830381600087803b15801561100457600080fd5b505af1158015611018573d6000803e3d6000fd5b50505050600660009054906101000a900473ffffffffffffffffffffffffffffffffffffffff1673ffffffffffffffffffffffffffffffffffffffff1663e34f6d4486868460c001518560e00151600001518660e00151602001516040518663ffffffff1660e01b8152600401808673ffffffffffffffffffffffffffffffffffffffff1673ffffffffffffffffffffffffffffffffffffffff1681526020018573ffffffffffffffffffffffffffffffffffffffff1673ffffffffffffffffffffffffffffffffffffffff1681526020018481526020018060200180602001838103835285818151815260200191508051906020019060200280838360005b83811015611133578082015181840152602081019050611118565b50505050905001838103825284818151815260200191508051906020019060200280838360005b8381101561117557808201518184015260208101905061115a565b50505050905001975050505050505050600060405180830381600087803b15801561119f57600080fd5b505af11580156111b3573d6000803e3d6000fd5b505050506111c5816101000151611f81565b15611328578473ffffffffffffffffffffffffffffffffffffffff1663d0d8c20d600e60009054906101000a900473ffffffffffffffffffffffffffffffffffffffff1683610100015160000151846101000151602001516040518463ffffffff1660e01b8152600401808473ffffffffffffffffffffffffffffffffffffffff1673ffffffffffffffffffffffffffffffffffffffff1681526020018060200180602001838103835285818151815260200191508051906020019060200280838360005b838110156112a557808201518184015260208101905061128a565b50505050905001838103825284818151815260200191508051906020019060200280838360005b838110156112e75780820151818401526020810190506112cc565b5050505090500195505050505050600060405180830381600087803b15801561130f57600080fd5b505af1158015611323573d6000803e3d6000fd5b505050505b600660009054906101000a900473ffffffffffffffffffffffffffffffffffffffff1673ffffffffffffffffffffffffffffffffffffffff1663e1f18250868360400151600001518460400151602001516040518463ffffffff1660e01b8152600401808473ffffffffffffffffffffffffffffffffffffffff1673ffffffffffffffffffffffffffffffffffffffff1681526020018060200180602001838103835285818151815260200191508051906020019060200280838360005b838110156114015780820151818401526020810190506113e6565b50505050905001838103825284818151815260200191508051906020019060200280838360005b83811015611443578082015181840152602081019050611428565b5050505090500195505050505050600060405180830381600087803b15801561146b57600080fd5b505af115801561147f573d6000803e3d6000fd5b505050508060200151826040018181525050611499615f0a565b6114ab8260a001518360e00151611fd8565b90506114bc81836101000151611fd8565b90507ff9c8e708c82ad9ab70e0c58ca02ae4dceef6c9546eacbeb0b7ac025be81c460a83604001518360600151836000015184602001518660400151600001518760400151602001516040518087815260200186815260200180602001806020018060200180602001858103855289818151815260200191508051906020019060200280838360005b83811015611560578082015181840152602081019050611545565b50505050905001858103845288818151815260200191508051906020019060200280838360005b838110156115a2578082015181840152602081019050611587565b50505050905001858103835287818151815260200191508051906020019060200280838360005b838110156115e45780820151818401526020810190506115c9565b50505050905001858103825286818151815260200191508051906020019060200280838360005b8381101561162657808201518184015260208101905061160b565b505050509050019a505050505050505050505060405180910390a161166286888460600151856040015160000151866040015160200151612684565b5050505050505050565b60056103e8670de0b6b3a76400008161168157fe5b040281565b600080828401905083811015611704576040517f08c379a000000000000000000000000000000000000000000000000000000000815260040180806020018281038252600c8152602001807f616464206f766572666c6f77000000000000000000000000000000000000000081525060200191505060405180910390fd5b8091505092915050565b600073ffffffffffffffffffffffffffffffffffffffff16600360009054906101000a900473ffffffffffffffffffffffffffffffffffffffff1673ffffffffffffffffffffffffffffffffffffffff167f8be0079c531659141344cd1fd0a4f28419497f9722a3daafe3b4186f6b6457e060405160405180910390a36000600360006101000a81548173ffffffffffffffffffffffffffffffffffffffff021916908373ffffffffffffffffffffffffffffffffffffffff160217905550565b600c60009054906101000a900473ffffffffffffffffffffffffffffffffffffffff1673ffffffffffffffffffffffffffffffffffffffff163373ffffffffffffffffffffffffffffffffffffffff1614611892576040517f08c379a000000000000000000000000000000000000000000000000000000000815260040180806020018281038252600d8152602001807f43616c6c6572206e6f7420544d0000000000000000000000000000000000000081525060200191505060405180910390fd5b565b60006714d1120d7b1600006118a7612908565b10905090565b6118b5615ea6565b6118bd615f24565b6118c5615f79565b8482600001818152505060008260800190151590811515815250506118e86105c6565b8260a00181815250506118f961073c565b8260c001818152505060008451905060008360200181815250505b8083602001511015611d73578483602001518151811061193057fe5b6020026020010151836060019073ffffffffffffffffffffffffffffffffffffffff16908173ffffffffffffffffffffffffffffffffffffffff16815250506000600660009054906101000a900473ffffffffffffffffffffffffffffffffffffffff1673ffffffffffffffffffffffffffffffffffffffff166321e3780185606001516040518263ffffffff1660e01b8152600401808273ffffffffffffffffffffffffffffffffffffffff1673ffffffffffffffffffffffffffffffffffffffff16815260200191505060206040518083038186803b158015611a1457600080fd5b505afa158015611a28573d6000803e3d6000fd5b505050506040513d6020811015611a3e57600080fd5b81019080805190602001909291905050506004811115611a5a57fe5b905060016004811115611a6957fe5b816004811115611a7557fe5b14611a805750611d5f565b600660009054906101000a900473ffffffffffffffffffffffffffffffffffffffff1673ffffffffffffffffffffffffffffffffffffffff166327fb7d8985606001516040518263ffffffff1660e01b8152600401808273ffffffffffffffffffffffffffffffffffffffff1673ffffffffffffffffffffffffffffffffffffffff16815260200191505060206040518083038186803b158015611b2357600080fd5b505afa158015611b37573d6000803e3d6000fd5b505050506040513d6020811015611b4d57600080fd5b81019080805190602001909291905050508460400181815250508360800151611cd757670f43fc2c04ee0000846040015110158015611b90575060008460000151145b15611b9b5750611d5f565b6000611baf8560c001518660a001516129d7565b9050611bcb8a8a87606001518860400151896000015186612a44565b9350611be88460800151866000015161416290919063ffffffff16565b856000018181525050611c0484604001518660600151306141ac565b611c1f84608001518660a0015161416290919063ffffffff16565b8560a00181815250506000611c378560a001516143b9565b90506000611c4886604001516143b9565b90506000611c5a8761010001516143b9565b9050611c9781611c8984611c7b878d60c0015161416290919063ffffffff16565b61416290919063ffffffff16565b61416290919063ffffffff16565b8860c0018181525050611caa8988614501565b9850611cbe8860c001518960a0015161460a565b1588608001901515908115158152505050505050611d5d565b83608001518015611cf35750670f43fc2c04ee00008460400151105b15611d5657611d0c89898660600151876000015161462d565b9250611d298360800151856000015161416290919063ffffffff16565b846000018181525050611d4583604001518560600151306141ac565b611d4f8584614501565b9450611d5c565b50611d5f565b5b505b826020018051600101908181525050611914565b505050949350505050565b611d86615ea6565b611d8e615f24565b611d96615f79565b8482600001818152505060008451905060008360200181815250505b8083602001511015611f765784836020015181518110611dce57fe5b6020026020010151836060019073ffffffffffffffffffffffffffffffffffffffff16908173ffffffffffffffffffffffffffffffffffffffff1681525050600660009054906101000a900473ffffffffffffffffffffffffffffffffffffffff1673ffffffffffffffffffffffffffffffffffffffff166327fb7d8984606001516040518263ffffffff1660e01b8152600401808273ffffffffffffffffffffffffffffffffffffffff1673ffffffffffffffffffffffffffffffffffffffff16815260200191505060206040518083038186803b158015611eb057600080fd5b505afa158015611ec4573d6000803e3d6000fd5b505050506040513d6020811015611eda57600080fd5b8101908080519060200190929190505050836040018181525050670f43fc2c04ee000083604001511015611f6257611f1c88888560600151866000015161462d565b9150611f398260800151846000015161416290919063ffffffff16565b836000018181525050611f5582604001518460600151306141ac565b611f5f8483614501565b93505b826020018051600101908181525050611db2565b505050949350505050565b600080826000015151905060005b81811015611fcc57600084602001518281518110611fa957fe5b602002602001015114611fc157600192505050611fd3565b806001019050611f8f565b5060009150505b919050565b611fe0615f0a565b600082600001515190506000811415611ffc578391505061267e565b612004615f0a565b6000809054906101000a900473ffffffffffffffffffffffffffffffffffffffff1673ffffffffffffffffffffffffffffffffffffffff16639d6aea0a6040518163ffffffff1660e01b815260040160006040518083038186803b15801561206b57600080fd5b505afa15801561207f573d6000803e3d6000fd5b505050506040513d6000823e3d601f19601f8201168201806040525060208110156120a957600080fd5b81019080805160405193929190846401000000008211156120c957600080fd5b838201915060208201858111156120df57600080fd5b82518660208202830111640100000000821117156120fc57600080fd5b8083526020830192505050908051906020019060200280838360005b83811015612133578082015181840152602081019050612118565b50505050905001604052505050816000018190525060008560000151519050600082600001515190508067ffffffffffffffff8111801561217357600080fd5b506040519080825280602002602001820160405280156121a25781602001602082028036833780820191505090505b5083602001819052506000805b838110156123135760008060009054906101000a900473ffffffffffffffffffffffffffffffffffffffff1673ffffffffffffffffffffffffffffffffffffffff1663b31610db8b60000151848151811061220657fe5b60200260200101516040518263ffffffff1660e01b8152600401808273ffffffffffffffffffffffffffffffffffffffff1673ffffffffffffffffffffffffffffffffffffffff16815260200191505060206040518083038186803b15801561226e57600080fd5b505afa158015612282573d6000803e3d6000fd5b505050506040513d602081101561229857600080fd5b8101908080519060200190929190505050905060008a6020015183815181106122bd57fe5b602002602001015114612307578280600101935050896020015182815181106122e257fe5b6020026020010151866020015182815181106122fa57fe5b6020026020010181815250505b508060010190506121af565b5060005b858110156124fe5760008060009054906101000a900473ffffffffffffffffffffffffffffffffffffffff1673ffffffffffffffffffffffffffffffffffffffff1663b31610db8a60000151848151811061236e57fe5b60200260200101516040518263ffffffff1660e01b8152600401808273ffffffffffffffffffffffffffffffffffffffff1673ffffffffffffffffffffffffffffffffffffffff16815260200191505060206040518083038186803b1580156123d657600080fd5b505afa1580156123ea573d6000803e3d6000fd5b505050506040513d602081101561240057600080fd5b8101908080519060200190929190505050905060008960200151838151811061242557fe5b6020026020010151146124f25760008660200151828151811061244457fe5b60200260200101511415612493578860200151828151811061246257fe5b60200260200101518660200151828151811061247a57fe5b60200260200101818152505082806001019350506124f1565b6124d4896020015183815181106124a657fe5b6020026020010151876020015183815181106124be57fe5b602002602001015161168690919063ffffffff16565b866020015182815181106124e457fe5b6020026020010181815250505b5b50806001019050612317565b5060608167ffffffffffffffff8111801561251857600080fd5b506040519080825280602002602001820160405280156125475781602001602082028036833780820191505090505b50905060608267ffffffffffffffff8111801561256357600080fd5b506040519080825280602002602001820160405280156125925781602001602082028036833780820191505090505b5090506000805b85811015612662576000886020015182815181106125b357fe5b60200260200101511461265757876000015181815181106125d057fe5b60200260200101518483815181106125e457fe5b602002602001019073ffffffffffffffffffffffffffffffffffffffff16908173ffffffffffffffffffffffffffffffffffffffff16815250508760200151818151811061262e57fe5b602002602001015183838151811061264257fe5b60200260200101818152505081806001019250505b806001019050612599565b5082896000018190525081896020018190525050505050505050505b92915050565b600083146127a457600760009054906101000a900473ffffffffffffffffffffffffffffffffffffffff1673ffffffffffffffffffffffffffffffffffffffff166320c582be600b60009054906101000a900473ffffffffffffffffffffffffffffffffffffffff1686866040518463ffffffff1660e01b8152600401808473ffffffffffffffffffffffffffffffffffffffff1673ffffffffffffffffffffffffffffffffffffffff1681526020018373ffffffffffffffffffffffffffffffffffffffff1673ffffffffffffffffffffffffffffffffffffffff1681526020018281526020019350505050600060405180830381600087803b15801561278b57600080fd5b505af115801561279f573d6000803e3d6000fd5b505050505b8473ffffffffffffffffffffffffffffffffffffffff16633733a133308685856040518563ffffffff1660e01b8152600401808573ffffffffffffffffffffffffffffffffffffffff1673ffffffffffffffffffffffffffffffffffffffff1681526020018473ffffffffffffffffffffffffffffffffffffffff1673ffffffffffffffffffffffffffffffffffffffff1681526020018060200180602001838103835285818151815260200191508051906020019060200280838360005b8381101561287e578082015181840152602081019050612863565b50505050905001838103825284818151815260200191508051906020019060200280838360005b838110156128c05780820151818401526020810190506128a5565b505050509050019650505050505050600060405180830381600087803b1580156128e957600080fd5b505af11580156128fd573d6000803e3d6000fd5b505050505050505050565b600080600160009054906101000a900473ffffffffffffffffffffffffffffffffffffffff1673ffffffffffffffffffffffffffffffffffffffff1663a24214646040518163ffffffff1660e01b8152600401604080518083038186803b15801561297257600080fd5b505afa158015612986573d6000803e3d6000fd5b505050506040513d604081101561299c57600080fd5b81019080805190602001909291908051906020019092919050505091505060006129c46105c6565b90506129d082826129d7565b9250505090565b6000808214612a1a576000612a0f83612a01670de0b6b3a76400008761518090919063ffffffff16565b61522390919063ffffffff16565b905080915050612a3e565b7fffffffffffffffffffffffffffffffffffffffffffffffffffffffffffffffff90505b92915050565b612a4c615f79565b612a54615fe3565b6001600660009054906101000a900473ffffffffffffffffffffffffffffffffffffffff1673ffffffffffffffffffffffffffffffffffffffff166349eefeee6040518163ffffffff1660e01b815260040160206040518083038186803b158015612abe57600080fd5b505afa158015612ad2573d6000803e3d6000fd5b505050506040513d6020811015612ae857600080fd5b810190808051906020019092919050505011612b075781915050614158565b600660009054906101000a900473ffffffffffffffffffffffffffffffffffffffff1673ffffffffffffffffffffffffffffffffffffffff166312adf0c2876040518263ffffffff1660e01b8152600401808273ffffffffffffffffffffffffffffffffffffffff1673ffffffffffffffffffffffffffffffffffffffff16815260200191505060006040518083038186803b158015612ba657600080fd5b505afa158015612bba573d6000803e3d6000fd5b505050506040513d6000823e3d601f19601f8201168201806040525060c0811015612be457600080fd5b810190808051906020019092919080516040519392919084640100000000821115612c0e57600080fd5b83820191506020820185811115612c2457600080fd5b8251866020820283011164010000000082111715612c4157600080fd5b8083526020830192505050908051906020019060200280838360005b83811015612c78578082015181840152602081019050612c5d565b5050505090500160405260200180516040519392919084640100000000821115612ca157600080fd5b83820191506020820185811115612cb757600080fd5b8251866020820283011164010000000082111715612cd457600080fd5b8083526020830192505050908051906020019060200280838360005b83811015612d0b578082015181840152602081019050612cf0565b505050509050016040526020018051906020019092919080516040519392919084640100000000821115612d3e57600080fd5b83820191506020820185811115612d5457600080fd5b8251866020820283011164010000000082111715612d7157600080fd5b8083526020830192505050908051906020019060200280838360005b83811015612da8578082015181840152602081019050612d8d565b5050505090500160405260200180516040519392919084640100000000821115612dd157600080fd5b83820191506020820185811115612de757600080fd5b8251866020820283011164010000000082111715612e0457600080fd5b8083526020830192505050908051906020019060200280838360005b83811015612e3b578082015181840152602081019050612e20565b505050509050016040525050508760000188602001516000018960200151602001896020018a604001516000018b604001516020018690528690528681525086905286905286815250505050505050612e97826020015161526d565b82604001819052506802b5e3af16b188000082606001818152505081602001516000015181600001516000018190525060008160000151600001515190508067ffffffffffffffff81118015612eec57600080fd5b50604051908082528060200260200182016040528015612f1b5781602001602082028036833780820191505090505b5082600001516020018190525060005b81811015612fa757612f7c8460400151602001518281518110612f4a57fe5b60200260200101518560200151602001518381518110612f6657fe5b602002602001015161416290919063ffffffff16565b8360000151602001518281518110612f9057fe5b602002602001018181525050806001019050612f2b565b50670de0b6b3a764000086116134d857600660009054906101000a900473ffffffffffffffffffffffffffffffffffffffff1673ffffffffffffffffffffffffffffffffffffffff16637837eeeb8a8a85602001518660400151600001518760400151602001518d6040518763ffffffff1660e01b8152600401808773ffffffffffffffffffffffffffffffffffffffff1673ffffffffffffffffffffffffffffffffffffffff1681526020018673ffffffffffffffffffffffffffffffffffffffff1673ffffffffffffffffffffffffffffffffffffffff16815260200185815260200180602001806020018473ffffffffffffffffffffffffffffffffffffffff1673ffffffffffffffffffffffffffffffffffffffff168152602001838103835286818151815260200191508051906020019060200280838360005b838110156131015780820151818401526020810190506130e6565b50505050905001838103825285818151815260200191508051906020019060200280838360005b83811015613143578082015181840152602081019050613128565b5050505090500198505050505050505050600060405180830381600087803b15801561316e57600080fd5b505af1158015613182573d6000803e3d6000fd5b50505050600660009054906101000a900473ffffffffffffffffffffffffffffffffffffffff1673ffffffffffffffffffffffffffffffffffffffff1663bce3bf90886040518263ffffffff1660e01b8152600401808273ffffffffffffffffffffffffffffffffffffffff1673ffffffffffffffffffffffffffffffffffffffff168152602001915050600060405180830381600087803b15801561322757600080fd5b505af115801561323b573d6000803e3d6000fd5b505050506000836080018181525050613252615f0a565b808460a0018190525083600001518460c001818152505082600001518460e001819052506132a78460e0015189600f60009054906101000a900473ffffffffffffffffffffffffffffffffffffffff166141ac565b600660009054906101000a900473ffffffffffffffffffffffffffffffffffffffff1673ffffffffffffffffffffffffffffffffffffffff166322962f65896040518263ffffffff1660e01b8152600401808273ffffffffffffffffffffffffffffffffffffffff1673ffffffffffffffffffffffffffffffffffffffff168152602001915050600060405180830381600087803b15801561334857600080fd5b505af115801561335c573d6000803e3d6000fd5b505050508773ffffffffffffffffffffffffffffffffffffffff167f679aef5b8c9f79ba6e1427981d7b06db55d0eadf337f8ed36e4ba5395a9111a385600001516002604051808381526020018260038111156133b557fe5b60ff1681526020019250505060405180910390a26133d1615f0a565b8873ffffffffffffffffffffffffffffffffffffffff167f98c96bbf8d2aa6be678259387225d169084fca483ed9598bde8ea258036bcacf600083600001518460200151600260405180858152602001806020018060200184600381111561343557fe5b60ff168152602001838103835286818151815260200191508051906020019060200280838360005b8381101561347857808201518184015260208101905061345d565b50505050905001838103825285818151815260200191508051906020019060200280838360005b838110156134ba57808201518184015260208101905061349f565b50505050905001965050505050505060405180910390a25050613fe4565b670f43fc2c04ee0000861015613a1457600660009054906101000a900473ffffffffffffffffffffffffffffffffffffffff1673ffffffffffffffffffffffffffffffffffffffff16637837eeeb8a8a85602001518660400151600001518760400151602001518d6040518763ffffffff1660e01b8152600401808773ffffffffffffffffffffffffffffffffffffffff1673ffffffffffffffffffffffffffffffffffffffff1681526020018673ffffffffffffffffffffffffffffffffffffffff1673ffffffffffffffffffffffffffffffffffffffff16815260200185815260200180602001806020018473ffffffffffffffffffffffffffffffffffffffff1673ffffffffffffffffffffffffffffffffffffffff168152602001838103835286818151815260200191508051906020019060200280838360005b83811015613632578082015181840152602081019050613617565b50505050905001838103825285818151815260200191508051906020019060200280838360005b83811015613674578082015181840152602081019050613659565b5050505090500198505050505050505050600060405180830381600087803b15801561369f57600080fd5b505af11580156136b3573d6000803e3d6000fd5b50505050600660009054906101000a900473ffffffffffffffffffffffffffffffffffffffff1673ffffffffffffffffffffffffffffffffffffffff1663bce3bf90886040518263ffffffff1660e01b8152600401808273ffffffffffffffffffffffffffffffffffffffff1673ffffffffffffffffffffffffffffffffffffffff168152602001915050600060405180830381600087803b15801561375857600080fd5b505af115801561376c573d6000803e3d6000fd5b50505050613778616010565b61378b84600001518460000151886153bb565b9050613795615f0a565b6137a782602001518360600151611fd8565b90506137d6818a600f60009054906101000a900473ffffffffffffffffffffffffffffffffffffffff166141ac565b6137e08286615815565b9450600660009054906101000a900473ffffffffffffffffffffffffffffffffffffffff1673ffffffffffffffffffffffffffffffffffffffff166322962f658a6040518263ffffffff1660e01b8152600401808273ffffffffffffffffffffffffffffffffffffffff1673ffffffffffffffffffffffffffffffffffffffff168152602001915050600060405180830381600087803b15801561388357600080fd5b505af1158015613897573d6000803e3d6000fd5b505050508873ffffffffffffffffffffffffffffffffffffffff167f679aef5b8c9f79ba6e1427981d7b06db55d0eadf337f8ed36e4ba5395a9111a386600001516002604051808381526020018260038111156138f057fe5b60ff1681526020019250505060405180910390a261390c615f0a565b8973ffffffffffffffffffffffffffffffffffffffff167f98c96bbf8d2aa6be678259387225d169084fca483ed9598bde8ea258036bcacf600083600001518460200151600260405180858152602001806020018060200184600381111561397057fe5b60ff168152602001838103835286818151815260200191508051906020019060200280838360005b838110156139b3578082015181840152602081019050613998565b50505050905001838103825285818151815260200191508051906020019060200280838360005b838110156139f55780820151818401526020810190506139da565b50505050905001965050505050505060405180910390a2505050613fe3565b8386108015613a27575084836000015111155b15613fcf57600660009054906101000a900473ffffffffffffffffffffffffffffffffffffffff1673ffffffffffffffffffffffffffffffffffffffff16637837eeeb8a8a85602001518660400151600001518760400151602001518d6040518763ffffffff1660e01b8152600401808773ffffffffffffffffffffffffffffffffffffffff1673ffffffffffffffffffffffffffffffffffffffff1681526020018673ffffffffffffffffffffffffffffffffffffffff1673ffffffffffffffffffffffffffffffffffffffff16815260200185815260200180602001806020018473ffffffffffffffffffffffffffffffffffffffff1673ffffffffffffffffffffffffffffffffffffffff168152602001838103835286818151815260200191508051906020019060200280838360005b83811015613b76578082015181840152602081019050613b5b565b50505050905001838103825285818151815260200191508051906020019060200280838360005b83811015613bb8578082015181840152602081019050613b9d565b5050505090500198505050505050505050600060405180830381600087803b158015613be357600080fd5b505af1158015613bf7573d6000803e3d6000fd5b505050506000851415613c72576040517f08c379a000000000000000000000000000000000000000000000000000000000815260040180806020018281038252601b8152602001807f544d4c3a207a65726f205355534420696e205374616220506f6f6c000000000081525060200191505060405180910390fd5b600660009054906101000a900473ffffffffffffffffffffffffffffffffffffffff1673ffffffffffffffffffffffffffffffffffffffff1663bce3bf90886040518263ffffffff1660e01b8152600401808273ffffffffffffffffffffffffffffffffffffffff1673ffffffffffffffffffffffffffffffffffffffff168152602001915050600060405180830381600087803b158015613d1357600080fd5b505af1158015613d27573d6000803e3d6000fd5b50505050613d538360000151846020015160000151856020015160200151670f43fc2c04ee000061586a565b9250613d5d615f0a565b613d6f8460a001518560e00151611fd8565b9050613d9e8189600f60009054906101000a900473ffffffffffffffffffffffffffffffffffffffff166141ac565b600660009054906101000a900473ffffffffffffffffffffffffffffffffffffffff1673ffffffffffffffffffffffffffffffffffffffff166322962f65896040518263ffffffff1660e01b8152600401808273ffffffffffffffffffffffffffffffffffffffff1673ffffffffffffffffffffffffffffffffffffffff168152602001915050600060405180830381600087803b158015613e3f57600080fd5b505af1158015613e53573d6000803e3d6000fd5b505050508773ffffffffffffffffffffffffffffffffffffffff167f679aef5b8c9f79ba6e1427981d7b06db55d0eadf337f8ed36e4ba5395a9111a38560000151600260405180838152602001826003811115613eac57fe5b60ff1681526020019250505060405180910390a2613ec8615f0a565b8873ffffffffffffffffffffffffffffffffffffffff167f98c96bbf8d2aa6be678259387225d169084fca483ed9598bde8ea258036bcacf6000836000015184602001516002604051808581526020018060200180602001846003811115613f2c57fe5b60ff168152602001838103835286818151815260200191508051906020019060200280838360005b83811015613f6f578082015181840152602081019050613f54565b50505050905001838103825285818151815260200191508051906020019060200280838360005b83811015613fb1578082015181840152602081019050613f96565b50505050905001965050505050505060405180910390a25050613fe2565b613fd7615f79565b809350505050614158565b5b5b613ff2836101000151611f81565b1561415557600660009054906101000a900473ffffffffffffffffffffffffffffffffffffffff1673ffffffffffffffffffffffffffffffffffffffff166396755e558885610100015160000151866101000151602001516040518463ffffffff1660e01b8152600401808473ffffffffffffffffffffffffffffffffffffffff1673ffffffffffffffffffffffffffffffffffffffff1681526020018060200180602001838103835285818151815260200191508051906020019060200280838360005b838110156140d25780820151818401526020810190506140b7565b50505050905001838103825284818151815260200191508051906020019060200280838360005b838110156141145780820151818401526020810190506140f9565b5050505090500195505050505050600060405180830381600087803b15801561413c57600080fd5b505af1158015614150573d6000803e3d6000fd5b505050505b50505b9695505050505050565b60006141a483836040518060400160405280600c81526020017f737562206f766572666c6f770000000000000000000000000000000000000000815250615b9b565b905092915050565b6000836000015151905060005b818110156143b2576000856000015182815181106141d357fe5b602002602001015190506000809054906101000a900473ffffffffffffffffffffffffffffffffffffffff1673ffffffffffffffffffffffffffffffffffffffff1663495ee13e826040518263ffffffff1660e01b8152600401808273ffffffffffffffffffffffffffffffffffffffff1673ffffffffffffffffffffffffffffffffffffffff16815260200191505060206040518083038186803b15801561427b57600080fd5b505afa15801561428f573d6000803e3d6000fd5b505050506040513d60208110156142a557600080fd5b8101908080519060200190929190505050156143a6578073ffffffffffffffffffffffffffffffffffffffff16632c8e8dfa8686896020015186815181106142e957fe5b60200260200101516040518463ffffffff1660e01b8152600401808473ffffffffffffffffffffffffffffffffffffffff1673ffffffffffffffffffffffffffffffffffffffff1681526020018373ffffffffffffffffffffffffffffffffffffffff1673ffffffffffffffffffffffffffffffffffffffff1681526020018281526020019350505050600060405180830381600087803b15801561438d57600080fd5b505af11580156143a1573d6000803e3d6000fd5b505050505b508060010190506141b9565b5050505050565b60008060009054906101000a900473ffffffffffffffffffffffffffffffffffffffff1673ffffffffffffffffffffffffffffffffffffffff166397a4b9f7836000015184602001516040518363ffffffff1660e01b8152600401808060200180602001838103835285818151815260200191508051906020019060200280838360005b8381101561445857808201518184015260208101905061443d565b50505050905001838103825284818151815260200191508051906020019060200280838360005b8381101561449a57808201518184015260208101905061447f565b5050505090500194505050505060206040518083038186803b1580156144bf57600080fd5b505afa1580156144d3573d6000803e3d6000fd5b505050506040513d60208110156144e957600080fd5b81019080805190602001909291905050509050919050565b614509615ea6565b61451b83604001518360400151611fd8565b816040018190525061453e8260600151846060015161168690919063ffffffff16565b8160600181815250506145628260000151846020015161168690919063ffffffff16565b8160200181815250506145868260800151846080015161168690919063ffffffff16565b8160800181815250506145a18360a001518360a00151611fd8565b8160a001819052506145c48260c001518460c0015161168690919063ffffffff16565b8160c00181815250506145df8360e001518360e00151611fd8565b8160e001819052506145fb836101000151836101000151611fd8565b81610100018190525092915050565b60008061461784846129d7565b90506714d1120d7b160000811091505092915050565b614635615f79565b61463d615fe3565b600660009054906101000a900473ffffffffffffffffffffffffffffffffffffffff1673ffffffffffffffffffffffffffffffffffffffff166312adf0c2856040518263ffffffff1660e01b8152600401808273ffffffffffffffffffffffffffffffffffffffff1673ffffffffffffffffffffffffffffffffffffffff16815260200191505060006040518083038186803b1580156146dc57600080fd5b505afa1580156146f0573d6000803e3d6000fd5b505050506040513d6000823e3d601f19601f8201168201806040525060c081101561471a57600080fd5b81019080805190602001909291908051604051939291908464010000000082111561474457600080fd5b8382019150602082018581111561475a57600080fd5b825186602082028301116401000000008211171561477757600080fd5b8083526020830192505050908051906020019060200280838360005b838110156147ae578082015181840152602081019050614793565b50505050905001604052602001805160405193929190846401000000008211156147d757600080fd5b838201915060208201858111156147ed57600080fd5b825186602082028301116401000000008211171561480a57600080fd5b8083526020830192505050908051906020019060200280838360005b83811015614841578082015181840152602081019050614826565b50505050905001604052602001805190602001909291908051604051939291908464010000000082111561487457600080fd5b8382019150602082018581111561488a57600080fd5b82518660208202830111640100000000821117156148a757600080fd5b8083526020830192505050908051906020019060200280838360005b838110156148de5780820151818401526020810190506148c3565b505050509050016040526020018051604051939291908464010000000082111561490757600080fd5b8382019150602082018581111561491d57600080fd5b825186602082028301116401000000008211171561493a57600080fd5b8083526020830192505050908051906020019060200280838360005b83811015614971578082015181840152602081019050614956565b505050509050016040525050508760000188602001516000018960200151602001896020018a604001516000018b604001516020018690528690528681525086905286905286815250505050505050600660009054906101000a900473ffffffffffffffffffffffffffffffffffffffff1673ffffffffffffffffffffffffffffffffffffffff16637837eeeb878784602001518560400151600001518660400151602001518a6040518763ffffffff1660e01b8152600401808773ffffffffffffffffffffffffffffffffffffffff1673ffffffffffffffffffffffffffffffffffffffff1681526020018673ffffffffffffffffffffffffffffffffffffffff1673ffffffffffffffffffffffffffffffffffffffff16815260200185815260200180602001806020018473ffffffffffffffffffffffffffffffffffffffff1673ffffffffffffffffffffffffffffffffffffffff168152602001838103835286818151815260200191508051906020019060200280838360005b83811015614b0a578082015181840152602081019050614aef565b50505050905001838103825285818151815260200191508051906020019060200280838360005b83811015614b4c578082015181840152602081019050614b31565b5050505090500198505050505050505050600060405180830381600087803b158015614b7757600080fd5b505af1158015614b8b573d6000803e3d6000fd5b50505050600660009054906101000a900473ffffffffffffffffffffffffffffffffffffffff1673ffffffffffffffffffffffffffffffffffffffff1663bce3bf90856040518263ffffffff1660e01b8152600401808273ffffffffffffffffffffffffffffffffffffffff1673ffffffffffffffffffffffffffffffffffffffff168152602001915050600060405180830381600087803b158015614c3057600080fd5b505af1158015614c44573d6000803e3d6000fd5b50505050614c55826020015161526d565b82604001819052506802b5e3af16b188000082606001818152505081602001516000015181600001516000018190525060008160000151600001515190508067ffffffffffffffff81118015614caa57600080fd5b50604051908082528060200260200182016040528015614cd95781602001602082028036833780820191505090505b5082600001516020018190525060005b81811015614d6557614d3a8460400151602001518281518110614d0857fe5b60200260200101518560200151602001518381518110614d2457fe5b602002602001015161416290919063ffffffff16565b8360000151602001518281518110614d4e57fe5b602002602001018181525050806001019050614ce9565b50614d6e616010565b614d8184600001518460000151876153bb565b9050614d8b615f0a565b614d9d82602001518360600151611fd8565b9050614dcc8188600f60009054906101000a900473ffffffffffffffffffffffffffffffffffffffff166141ac565b614dd68286615815565b9450600660009054906101000a900473ffffffffffffffffffffffffffffffffffffffff1673ffffffffffffffffffffffffffffffffffffffff166322962f65886040518263ffffffff1660e01b8152600401808273ffffffffffffffffffffffffffffffffffffffff1673ffffffffffffffffffffffffffffffffffffffff168152602001915050600060405180830381600087803b158015614e7957600080fd5b505af1158015614e8d573d6000803e3d6000fd5b50505050614e9f856101000151611f81565b1561500257600660009054906101000a900473ffffffffffffffffffffffffffffffffffffffff1673ffffffffffffffffffffffffffffffffffffffff166396755e558887610100015160000151886101000151602001516040518463ffffffff1660e01b8152600401808473ffffffffffffffffffffffffffffffffffffffff1673ffffffffffffffffffffffffffffffffffffffff1681526020018060200180602001838103835285818151815260200191508051906020019060200280838360005b83811015614f7f578082015181840152602081019050614f64565b50505050905001838103825284818151815260200191508051906020019060200280838360005b83811015614fc1578082015181840152602081019050614fa6565b5050505090500195505050505050600060405180830381600087803b158015614fe957600080fd5b505af1158015614ffd573d6000803e3d6000fd5b505050505b8673ffffffffffffffffffffffffffffffffffffffff167f679aef5b8c9f79ba6e1427981d7b06db55d0eadf337f8ed36e4ba5395a9111a3866000015160016040518083815260200182600381111561505757fe5b60ff1681526020019250505060405180910390a2615073615f0a565b8773ffffffffffffffffffffffffffffffffffffffff167f98c96bbf8d2aa6be678259387225d169084fca483ed9598bde8ea258036bcacf60008360000151846020015160016040518085815260200180602001806020018460038111156150d757fe5b60ff168152602001838103835286818151815260200191508051906020019060200280838360005b8381101561511a5780820151818401526020810190506150ff565b50505050905001838103825285818151815260200191508051906020019060200280838360005b8381101561515c578082015181840152602081019050615141565b50505050905001965050505050505060405180910390a25050505050949350505050565b600080831415615193576000905061521d565b60008284029050828482816151a457fe5b0414615218576040517f08c379a000000000000000000000000000000000000000000000000000000000815260040180806020018281038252600c8152602001807f6d756c206f766572666c6f77000000000000000000000000000000000000000081525060200191505060405180910390fd5b809150505b92915050565b600061526583836040518060400160405280600881526020017f6469762062792030000000000000000000000000000000000000000000000000815250615c5b565b905092915050565b615275615f0a565b816020015151826000015151146152f4576040517f08c379a000000000000000000000000000000000000000000000000000000000815260040180806020018281038252600f8152602001807f4e6f742073616d65206c656e677468000000000000000000000000000000000081525060200191505060405180910390fd5b606082600001515167ffffffffffffffff8111801561531257600080fd5b506040519080825280602002602001820160405280156153415781602001602082028036833780820191505090505b50905060005b8360000151518110156153995760c88460200151828151811061536657fe5b60200260200101518161537557fe5b0482828151811061538257fe5b602002602001018181525050806001019050615347565b5060405180604001604052808460000151815260200182815250915050919050565b6153c3616010565b8260000151816060015160000181905250600083600001515190508067ffffffffffffffff811180156153f557600080fd5b506040519080825280602002602001820160405280156154245781602001602082028036833780820191505090505b50826060015160200181905250600083146157a85783600001518260200151600001819052508067ffffffffffffffff8111801561546157600080fd5b506040519080825280602002602001820160405280156154905781602001602082028036833780820191505090505b5082602001516020018190525083600001518260800151600001819052508067ffffffffffffffff811180156154c557600080fd5b506040519080825280602002602001820160405280156154f45781602001602082028036833780820191505090505b5082608001516020018190525061550b8584615d22565b82600001818152505061552b82600001518661416290919063ffffffff16565b826040018181525050600061553f85615d3b565b9050600061558687615578866000015161556a670de0b6b3a76400008061518090919063ffffffff16565b61518090919063ffffffff16565b61522390919063ffffffff16565b905060006155d5836155c7670f43fc2c04ee00006155b9670de0b6b3a76400008a6000015161518090919063ffffffff16565b61518090919063ffffffff16565b61522390919063ffffffff16565b90506155e18282615d22565b905060006155f8828461416290919063ffffffff16565b905060005b8581101561579e57615663670de0b6b3a7640000615655670de0b6b3a7640000615647878e60200151878151811061563157fe5b602002602001015161518090919063ffffffff16565b61522390919063ffffffff16565b61522390919063ffffffff16565b876020015160200151828151811061567757fe5b6020026020010181815250506156e1670de0b6b3a76400006156d3670de0b6b3a76400006156c5868e6020015187815181106156af57fe5b602002602001015161518090919063ffffffff16565b61522390919063ffffffff16565b61522390919063ffffffff16565b87608001516020015182815181106156f557fe5b602002602001018181525050615773876080015160200151828151811061571857fe5b6020026020010151615765896020015160200151848151811061573757fe5b60200260200101518c60200151858151811061574f57fe5b602002602001015161416290919063ffffffff16565b61416290919063ffffffff16565b876060015160200151828151811061578757fe5b6020026020010181815250508060010190506155fd565b505050505061580d565b600082600001818152505060005b8181101561580157846020015181815181106157ce57fe5b602002602001015183606001516020015182815181106157ea57fe5b6020026020010181815250508060010190506157b6565b50848260400181815250505b509392505050565b61581d615f79565b826000015182608001818152505082602001518260a0018190525082604001518260c001818152505082606001518260e00181905250826080015182610100018190525081905092915050565b615872615f79565b61587a615f0a565b84816000018190525083816020018190525060006158bb670de0b6b3a76400006158ad898761518090919063ffffffff16565b61522390919063ffffffff16565b905060006158c883615d3b565b905060006158f9826158eb670de0b6b3a76400008661518090919063ffffffff16565b61522390919063ffffffff16565b905061590d81670de0b6b3a7640000615d22565b9050888560000181815250508385602001819052506802b5e3af16b18800008560600181815250508885608001818152505060008560c0018181525050878560a00151600001819052506000885190508067ffffffffffffffff8111801561597457600080fd5b506040519080825280602002602001820160405280156159a35781602001602082028036833780820191505090505b508660a001516020018190525088866101000151600001819052508067ffffffffffffffff811180156159d557600080fd5b50604051908082528060200260200182016040528015615a045781602001602082028036833780820191505090505b5086610100015160200181905250888660400151600001819052508067ffffffffffffffff81118015615a3657600080fd5b50604051908082528060200260200182016040528015615a655781602001602082028036833780820191505090505b5086604001516020018190525060005b81811015615b8d576000615abf670de0b6b3a7640000615ab18c8581518110615a9a57fe5b60200260200101518761518090919063ffffffff16565b61522390919063ffffffff16565b90506000615ad760c88361522390919063ffffffff16565b90506000615aee828461416290919063ffffffff16565b90506000615b18848e8781518110615b0257fe5b602002602001015161416290919063ffffffff16565b9050828b60400151602001518681518110615b2f57fe5b602002602001018181525050818b60a00151602001518681518110615b5057fe5b602002602001018181525050808b6101000151602001518681518110615b7257fe5b60200260200101818152505050505050806001019050615a75565b505050505050949350505050565b6000838311158290615c48576040517f08c379a00000000000000000000000000000000000000000000000000000000081526004018080602001828103825283818151815260200191508051906020019080838360005b83811015615c0d578082015181840152602081019050615bf2565b50505050905090810190601f168015615c3a5780820380516001836020036101000a031916815260200191505b509250505060405180910390fd5b5060008385039050809150509392505050565b6000808314158290615d08576040517f08c379a00000000000000000000000000000000000000000000000000000000081526004018080602001828103825283818151815260200191508051906020019080838360005b83811015615ccd578082015181840152602081019050615cb2565b50505050905090810190601f168015615cfa5780820380516001836020036101000a031916815260200191505b509250505060405180910390fd5b506000838581615d1457fe5b049050809150509392505050565b6000818310615d315781615d33565b825b905092915050565b60008060009054906101000a900473ffffffffffffffffffffffffffffffffffffffff1673ffffffffffffffffffffffffffffffffffffffff16633b1c2906836000015184602001516040518363ffffffff1660e01b8152600401808060200180602001838103835285818151815260200191508051906020019060200280838360005b83811015615dda578082015181840152602081019050615dbf565b50505050905001838103825284818151815260200191508051906020019060200280838360005b83811015615e1c578082015181840152602081019050615e01565b5050505090500194505050505060206040518083038186803b158015615e4157600080fd5b505afa158015615e55573d6000803e3d6000fd5b505050506040513d6020811015615e6b57600080fd5b81019080805190602001909291905050509050919050565b604051806060016040528060008152602001600015158152602001600081525090565b6040518061012001604052806000815260200160008152602001615ec8615f0a565b81526020016000815260200160008152602001615ee3615f0a565b815260200160008152602001615ef7615f0a565b8152602001615f04615f0a565b81525090565b604051806040016040528060608152602001606081525090565b6040518060e00160405280600081526020016000815260200160008152602001600073ffffffffffffffffffffffffffffffffffffffff16815260200160001515815260200160008152602001600081525090565b60405180610120016040528060008152602001615f94615f0a565b8152602001615fa1615f0a565b81526020016000815260200160008152602001615fbc615f0a565b815260200160008152602001615fd0615f0a565b8152602001615fdd615f0a565b81525090565b6040518060600160405280615ff6615f0a565b81526020016000815260200161600a615f0a565b81525090565b6040518060a001604052806000815260200161602a615f0a565b81526020016000815260200161603e615f0a565b815260200161604b615f0a565b8152509056fea26469706673582212202848b503f3a7625d7da854d9b2dee9ad7e2fec3223d7853e80e73b682a2e39e764736f6c634300060b0033",
  "immutableReferences": {},
  "source": "// SPDX-License-Identifier: UNLICENSED\n\npragma solidity 0.6.11;\n\nimport \"../Interfaces/IWAsset.sol\";\nimport \"../Dependencies/TroveManagerBase.sol\";\n\n/** \n * TroveManagerLiquidations is derived from TroveManager and has all the functions \n * related to Liquidations. \n */\n\ncontract TroveManagerLiquidations is TroveManagerBase, ITroveManagerLiquidations {\n    bytes32 constant public NAME = \"TroveManagerRedemptions\";\n\n    uint constant public _100pct = 1e18; // 1e18 == 100%\n\n    uint constant public PERCENT_DIVISOR = 200; // dividing by 200 yields 0.5%\n\n    address internal borrowerOperationsAddress;\n\n    IStabilityPool internal stabilityPoolContract;\n\n    ITroveManager internal troveManager;\n\n    ISUSDToken internal susdTokenContract;\n\n    ISTBToken internal stbTokenContract;\n\n    ISSTB internal sSTBContract;\n\n    ITroveManagerLiquidations internal troveManagerLiquidations;\n\n    address internal gasPoolAddress;\n\n    address internal troveManagerAddress;\n\n    ISortedTroves internal sortedTroves;\n\n    ICollSurplusPool internal collSurplusPool;\n\n    address stabilityFinanceTreasury;\n\n    struct LiquidationValues {\n        uint256 entireTroveDebt;\n        newColls entireTroveColl;\n        newColls collGasCompensation;\n        uint256 SUSDGasCompensation;\n        uint256 debtToOffset;\n        newColls collToSendToSP;\n        uint256 debtToRedistribute;\n        newColls collToRedistribute;\n        newColls collSurplus;\n    }\n\n    struct LiquidationTotals {\n        uint256 totalVCInSequence;\n        uint256 totalDebtInSequence;\n        newColls totalCollGasCompensation;\n        uint256 totalSUSDGasCompensation;\n        uint256 totalDebtToOffset;\n        newColls totalCollToSendToSP;\n        uint256 totalDebtToRedistribute;\n        newColls totalCollToRedistribute;\n        newColls totalCollSurplus;\n    }\n\n    struct LocalVariables_LiquidationSequence {\n        uint256 remainingSUSDInStabPool;\n        uint256 i;\n        uint256 ICR;\n        address user;\n        bool backToNormalMode;\n        uint256 entireSystemDebt;\n        uint256 entireSystemColl;\n    }\n\n    struct LocalVariables_OuterLiquidationFunction {\n        uint256 SUSDInStabPool;\n        bool recoveryModeAtStart;\n        uint256 liquidatedDebt;\n    }\n\n    struct LocalVariables_InnerSingleLiquidateFunction {\n        newColls collToLiquidate;\n        uint256 pendingDebtReward;\n        newColls pendingCollReward;\n    }\n\n    struct LocalVariables_ORVals {\n        uint256 debtToOffset;\n        newColls collToSendToSP;\n        uint256 debtToRedistribute;\n        newColls collToRedistribute;\n        newColls collSurplus;\n    }\n\n    event TroveLiquidated(\n        address indexed _borrower,\n        uint256 _debt,\n        TroveManagerOperation _operation\n    );\n    event Liquidation(\n        uint256 liquidatedAmount,\n        uint256 totalSUSDGasCompensation,\n        address[] totalCollTokens,\n        uint256[] totalCollAmounts,\n        address[] totalCollGasCompTokens,\n        uint256[] totalCollGasCompAmounts\n    );\n\n    function setAddresses(\n        address _borrowerOperationsAddress,\n        address _activePoolAddress,\n        address _defaultPoolAddress,\n        address _stabilityPoolAddress,\n        address _gasPoolAddress,\n        address _collSurplusPoolAddress,\n        address _susdTokenAddress,\n        address _sortedTrovesAddress,\n        address _stbTokenAddress,\n        address _sSTBAddress,\n        address _whitelistAddress,\n        address _troveManagerAddress,\n        address _stabilityFinanceTreasury\n    ) external onlyOwner {\n        borrowerOperationsAddress = _borrowerOperationsAddress;\n        activePool = IActivePool(_activePoolAddress);\n        defaultPool = IDefaultPool(_defaultPoolAddress);\n        stabilityPoolContract = IStabilityPool(_stabilityPoolAddress);\n        whitelist = IWhitelist(_whitelistAddress);\n        gasPoolAddress = _gasPoolAddress;\n        collSurplusPool = ICollSurplusPool(_collSurplusPoolAddress);\n        susdTokenContract = ISUSDToken(_susdTokenAddress);\n        sortedTroves = ISortedTroves(_sortedTrovesAddress);\n        stbTokenContract = ISTBToken(_stbTokenAddress);\n        sSTBContract = ISSTB(_sSTBAddress);\n        troveManager = ITroveManager(_troveManagerAddress);\n        troveManagerAddress = _troveManagerAddress;\n        stabilityFinanceTreasury = _stabilityFinanceTreasury;\n\n        _renounceOwnership();\n    }\n\n    /** \n     * Function for liquidating a list of troves in a single transaction. Will perform as many as it can \n     * and looks at if it is eligible for liquidation based on the current ICR value. \n     */\n    function batchLiquidateTroves(address[] memory _troveArray, address _liquidator) external override {\n        _requireCallerisTroveManager();\n        require(_troveArray.length != 0, \"TML: One trove must exist\");\n\n        IActivePool activePoolCached = activePool;\n        IDefaultPool defaultPoolCached = defaultPool;\n        IStabilityPool stabilityPoolCached = stabilityPoolContract;\n\n        LocalVariables_OuterLiquidationFunction memory vars;\n        LiquidationTotals memory totals;\n\n        vars.SUSDInStabPool = stabilityPoolCached.getTotalSUSDDeposits();\n        vars.recoveryModeAtStart = _checkRecoveryMode();\n\n        // Perform the appropriate liquidation sequence - tally values and obtain their totals.\n        if (vars.recoveryModeAtStart) {\n            totals = _getTotalFromBatchLiquidate_RecoveryMode(\n                activePoolCached,\n                defaultPoolCached,\n                vars.SUSDInStabPool,\n                _troveArray\n            );\n        } else {\n            //  if !vars.recoveryModeAtStart\n            totals = _getTotalsFromBatchLiquidate_NormalMode(\n                activePoolCached,\n                defaultPoolCached,\n                vars.SUSDInStabPool,\n                _troveArray\n            );\n        }\n\n        require(totals.totalDebtInSequence != 0, \"TML: nothing to liquidate\");\n        // Move liquidated Collateral and YUSD to the appropriate pools\n        stabilityPoolCached.offset(\n            totals.totalDebtToOffset,\n            totals.totalCollToSendToSP.tokens,\n            totals.totalCollToSendToSP.amounts\n        );\n        troveManager.redistributeDebtAndColl(\n            activePoolCached,\n            defaultPoolCached,\n            totals.totalDebtToRedistribute,\n            totals.totalCollToRedistribute.tokens,\n            totals.totalCollToRedistribute.amounts\n        );\n        if (_collsIsNonZero(totals.totalCollSurplus)) {\n            activePoolCached.sendCollaterals(\n                address(collSurplusPool),\n                totals.totalCollSurplus.tokens,\n                totals.totalCollSurplus.amounts\n            );\n        }\n\n        // Update system snapshots\n        troveManager.updateSystemSnapshots_excludeCollRemainder(\n            activePoolCached,\n            totals.totalCollGasCompensation.tokens,\n            totals.totalCollGasCompensation.amounts\n        );\n\n        vars.liquidatedDebt = totals.totalDebtInSequence;\n\n        // merge the colls into one to emit correct event.\n        newColls memory sumCollsResult = _sumColls(\n            totals.totalCollToSendToSP,\n            totals.totalCollToRedistribute\n        );\n        sumCollsResult = _sumColls(sumCollsResult, totals.totalCollSurplus);\n\n        emit Liquidation(\n            vars.liquidatedDebt,\n            totals.totalSUSDGasCompensation,\n            sumCollsResult.tokens,\n            sumCollsResult.amounts,\n            totals.totalCollGasCompensation.tokens,\n            totals.totalCollGasCompensation.amounts\n        );\n        // Send gas compensation to caller\n        _sendGasCompensation(\n            activePoolCached,\n            _liquidator,\n            totals.totalSUSDGasCompensation,\n            totals.totalCollGasCompensation.tokens,\n            totals.totalCollGasCompensation.amounts\n        );\n    }\n\n    /*\n     * This function is used when the batch liquidation sequence starts during Recovery Mode. However, it\n     * handle the case where the system *leaves* Recovery Mode, part way through the liquidation sequence\n     */\n    function _getTotalFromBatchLiquidate_RecoveryMode(\n        IActivePool _activePool,\n        IDefaultPool _defaultPool,\n        uint256 _SUSDInStabPool,\n        address[] memory _troveArray\n    ) internal returns (LiquidationTotals memory totals) {\n        LocalVariables_LiquidationSequence memory vars;\n        LiquidationValues memory singleLiquidation;\n\n        vars.remainingSUSDInStabPool = _SUSDInStabPool;\n        vars.backToNormalMode = false;\n        vars.entireSystemDebt = getEntireSystemDebt();\n        // get total VC\n        vars.entireSystemColl = getEntireSystemColl();\n        uint256 troveArrayLen = _troveArray.length;\n        for (vars.i = 0; vars.i < troveArrayLen; ++vars.i) {\n            vars.user = _troveArray[vars.i];\n\n            // Skip non-active troves\n            Status userStatus = Status(troveManager.getTroveStatus(vars.user));\n            if (userStatus != Status.active) {\n                continue;\n            }\n            vars.ICR = troveManager.getCurrentICR(vars.user);\n\n            if (!vars.backToNormalMode) {\n                // Skip this trove if ICR is greater than MCR and Stability Pool is empty\n                if (vars.ICR >= MCR && vars.remainingSUSDInStabPool == 0) {\n                    continue;\n                }\n\n                uint256 TCR = LiquityMath._computeCR(vars.entireSystemColl, vars.entireSystemDebt);\n\n                singleLiquidation = _liquidateRecoveryMode(\n                    _activePool,\n                    _defaultPool,\n                    vars.user,\n                    vars.ICR,\n                    vars.remainingSUSDInStabPool,\n                    TCR\n                );\n\n                // Update aggregate trackers\n                vars.remainingSUSDInStabPool = vars.remainingSUSDInStabPool.sub(\n                    singleLiquidation.debtToOffset\n                );\n\n                // If wrapped assets exist then update the reward to this contract temporarily\n                _updateWAssetsRewardOwner(singleLiquidation.collGasCompensation, vars.user, address(this));\n\n                vars.entireSystemDebt = vars.entireSystemDebt.sub(singleLiquidation.debtToOffset);\n\n                uint256 collToSendToSpVc = _getVCColls(singleLiquidation.collToSendToSP);\n                uint256 collGasCompensationTotal = _getVCColls(\n                    singleLiquidation.collGasCompensation\n                );\n                uint256 collSurplusTotal = _getVCColls(singleLiquidation.collSurplus);\n\n                vars.entireSystemColl = vars\n                    .entireSystemColl\n                    .sub(collToSendToSpVc)\n                    .sub(collGasCompensationTotal)\n                    .sub(collSurplusTotal);\n\n                // Add liquidation values to their respective running totals\n                totals = _addLiquidationValuesToTotals(totals, singleLiquidation);\n\n                vars.backToNormalMode = !_checkPotentialRecoveryMode(\n                    vars.entireSystemColl,\n                    vars.entireSystemDebt\n                );\n            } else if (vars.backToNormalMode && vars.ICR < MCR) {\n                singleLiquidation = _liquidateNormalMode(\n                    _activePool,\n                    _defaultPool,\n                    vars.user,\n                    vars.remainingSUSDInStabPool\n                );\n                vars.remainingSUSDInStabPool = vars.remainingSUSDInStabPool.sub(\n                    singleLiquidation.debtToOffset\n                );\n\n                // If wrapped assets exist then update the reward to this contract temporarily\n                _updateWAssetsRewardOwner(singleLiquidation.collGasCompensation, vars.user, address(this));\n\n                // Add liquidation values to their respective running totals\n                totals = _addLiquidationValuesToTotals(totals, singleLiquidation);\n            } else continue; // In Normal Mode skip troves with ICR >= MCR\n        }\n    }\n\n    function _getTotalsFromBatchLiquidate_NormalMode(\n        IActivePool _activePool,\n        IDefaultPool _defaultPool,\n        uint256 _SUSDInStabPool,\n        address[] memory _troveArray\n    ) internal returns (LiquidationTotals memory totals) {\n        LocalVariables_LiquidationSequence memory vars;\n        LiquidationValues memory singleLiquidation;\n\n        vars.remainingSUSDInStabPool = _SUSDInStabPool;\n        uint256 troveArrayLen = _troveArray.length;\n        for (vars.i = 0; vars.i < troveArrayLen; ++vars.i) {\n            vars.user = _troveArray[vars.i];\n            vars.ICR = troveManager.getCurrentICR(vars.user);\n            if (vars.ICR < MCR) {\n                singleLiquidation = _liquidateNormalMode(\n                    _activePool,\n                    _defaultPool,\n                    vars.user,\n                    vars.remainingSUSDInStabPool\n                );\n                vars.remainingSUSDInStabPool = vars.remainingSUSDInStabPool.sub(\n                    singleLiquidation.debtToOffset\n                );\n\n                // If wrapped assets exist then update the reward to this contract temporarily\n                _updateWAssetsRewardOwner(singleLiquidation.collGasCompensation, vars.user, address(this));\n\n                // Add liquidation values to their respective running totals\n                totals = _addLiquidationValuesToTotals(totals, singleLiquidation);\n            }\n        }\n    }\n\n    // Liquidate one trove, in Normal Mode.\n    function _liquidateNormalMode(\n        IActivePool _activePool,\n        IDefaultPool _defaultPool,\n        address _borrower,\n        uint256 _SUSDInStabPool\n    ) internal returns (LiquidationValues memory singleLiquidation) {\n        LocalVariables_InnerSingleLiquidateFunction memory vars;\n\n        (\n            singleLiquidation.entireTroveDebt,\n            singleLiquidation.entireTroveColl.tokens,\n            singleLiquidation.entireTroveColl.amounts,\n            vars.pendingDebtReward,\n            vars.pendingCollReward.tokens,\n            vars.pendingCollReward.amounts\n        ) = troveManager.getEntireDebtAndColls(_borrower);\n\n        troveManager.movePendingTroveRewardsToActivePool(\n            _activePool,\n            _defaultPool,\n            vars.pendingDebtReward,\n            vars.pendingCollReward.tokens,\n            vars.pendingCollReward.amounts, \n            _borrower\n        );\n        troveManager.removeStakeTLR(_borrower);\n\n        singleLiquidation.collGasCompensation = _getCollGasCompensation(\n            singleLiquidation.entireTroveColl\n        );\n\n        singleLiquidation.SUSDGasCompensation = SUSD_GAS_COMPENSATION;\n\n        vars.collToLiquidate.tokens = singleLiquidation.entireTroveColl.tokens;\n        uint256 collToLiquidateLen = vars.collToLiquidate.tokens.length;\n        vars.collToLiquidate.amounts = new uint256[](collToLiquidateLen);\n        for (uint256 i; i < collToLiquidateLen; ++i) {\n            vars.collToLiquidate.amounts[i] = singleLiquidation.entireTroveColl.amounts[i].sub(\n                singleLiquidation.collGasCompensation.amounts[i]\n            );\n        }\n\n        LocalVariables_ORVals memory or_vals = _getOffsetAndRedistributionVals(\n            singleLiquidation.entireTroveDebt,\n            vars.collToLiquidate,\n            _SUSDInStabPool\n        );\n\n        newColls memory collsToUpdate = _sumColls(or_vals.collToSendToSP, or_vals.collToRedistribute);\n        // rewards for WAssets sent to SP and collToRedistribute will\n        // accrue to Yeti Finance Treasury until the assets are claimed\n        _updateWAssetsRewardOwner(collsToUpdate, _borrower, stabilityFinanceTreasury);\n\n        singleLiquidation = _updateSingleLiquidation(or_vals, singleLiquidation);\n        troveManager.closeTroveLiquidation(_borrower);\n\n        if (_collsIsNonZero(singleLiquidation.collSurplus)) {\n            troveManager.collSurplusUpdate(\n                _borrower,\n                singleLiquidation.collSurplus.tokens,\n                singleLiquidation.collSurplus.amounts\n            );\n        }\n\n        emit TroveLiquidated(\n            _borrower,\n            singleLiquidation.entireTroveDebt,\n            TroveManagerOperation.liquidateInNormalMode\n        );\n        newColls memory borrowerColls;\n        emit TroveUpdated(\n            _borrower,\n            0,\n            borrowerColls.tokens,\n            borrowerColls.amounts,\n            TroveManagerOperation.liquidateInNormalMode\n        );\n    }\n\n\n    // Liquidate one trove, in Recovery Mode.\n    function _liquidateRecoveryMode(\n        IActivePool _activePool,\n        IDefaultPool _defaultPool,\n        address _borrower,\n        uint256 _ICR,\n        uint256 _SUSDInStabPool,\n        uint256 _TCR\n    ) internal returns (LiquidationValues memory singleLiquidation) {\n        LocalVariables_InnerSingleLiquidateFunction memory vars;\n\n        if (troveManager.getTroveOwnersCount() <= 1) {\n            return singleLiquidation;\n        } // don't liquidate if last trove\n\n        (\n            singleLiquidation.entireTroveDebt,\n            singleLiquidation.entireTroveColl.tokens,\n            singleLiquidation.entireTroveColl.amounts,\n            vars.pendingDebtReward,\n            vars.pendingCollReward.tokens,\n            vars.pendingCollReward.amounts\n        ) = troveManager.getEntireDebtAndColls(_borrower);\n\n        singleLiquidation.collGasCompensation = _getCollGasCompensation(\n            singleLiquidation.entireTroveColl\n        );\n\n        singleLiquidation.SUSDGasCompensation = SUSD_GAS_COMPENSATION;\n\n        vars.collToLiquidate.tokens = singleLiquidation.entireTroveColl.tokens;\n        uint256 collToLiquidateLen = vars.collToLiquidate.tokens.length;\n        vars.collToLiquidate.amounts = new uint256[](collToLiquidateLen);\n        for (uint256 i; i < collToLiquidateLen; ++i) {\n            vars.collToLiquidate.amounts[i] = singleLiquidation.entireTroveColl.amounts[i].sub(\n                singleLiquidation.collGasCompensation.amounts[i]\n            );\n        }\n\n        // If ICR <= 100%, purely redistribute the Trove across all active Troves\n        if (_ICR <= _100pct) {\n            troveManager.movePendingTroveRewardsToActivePool(\n                _activePool,\n                _defaultPool,\n                vars.pendingDebtReward,\n                vars.pendingCollReward.tokens,\n                vars.pendingCollReward.amounts, \n                _borrower\n            );\n            // troveManager.movePendingTroveRewardsToActivePool(_activePool, _defaultPool, vars.pendingDebtReward, singleLiquidation.entireTroveColl.tokens, singleLiquidation.entireTroveColl.amounts);\n            troveManager.removeStakeTLR(_borrower);\n\n            singleLiquidation.debtToOffset = 0;\n            newColls memory emptyColls;\n            singleLiquidation.collToSendToSP = emptyColls;\n            singleLiquidation.debtToRedistribute = singleLiquidation.entireTroveDebt;\n            singleLiquidation.collToRedistribute = vars.collToLiquidate;\n\n            // WAsset rewards for collToRedistribute will accrue to\n            // Yeti Finance Treasury until the WAssets are claimed by troves\n            _updateWAssetsRewardOwner(singleLiquidation.collToRedistribute, _borrower, stabilityFinanceTreasury);\n\n            troveManager.closeTroveLiquidation(_borrower);\n            emit TroveLiquidated(\n                _borrower,\n                singleLiquidation.entireTroveDebt,\n                TroveManagerOperation.liquidateInRecoveryMode\n            );\n            newColls memory borrowerColls;// = troveManager.getTroveColls(_borrower);\n            emit TroveUpdated(\n                _borrower,\n                0,\n                borrowerColls.tokens,\n                borrowerColls.amounts,\n                TroveManagerOperation.liquidateInRecoveryMode\n            );\n\n            // If 100% < ICR < MCR, offset as much as possible, and redistribute the remainder\n            // ICR > 100% is implied by prevoius state. \n        } else if (_ICR < MCR) {\n\n            troveManager.movePendingTroveRewardsToActivePool(\n                _activePool,\n                _defaultPool,\n                vars.pendingDebtReward,\n                vars.pendingCollReward.tokens,\n                vars.pendingCollReward.amounts, \n                _borrower\n            );\n\n            troveManager.removeStakeTLR(_borrower);\n\n            LocalVariables_ORVals memory or_vals = _getOffsetAndRedistributionVals(\n                singleLiquidation.entireTroveDebt,\n                vars.collToLiquidate,\n                _SUSDInStabPool\n            );\n\n            newColls memory collsToUpdate = _sumColls(or_vals.collToSendToSP, or_vals.collToRedistribute);\n            // rewards for WAssets sent to SP and collToRedistribute will\n            // accrue to Yeti Finance Treasury until the assets are claimed\n            _updateWAssetsRewardOwner(collsToUpdate, _borrower, stabilityFinanceTreasury);\n\n            singleLiquidation = _updateSingleLiquidation(or_vals, singleLiquidation);\n\n            troveManager.closeTroveLiquidation(_borrower);\n            emit TroveLiquidated(\n                _borrower,\n                singleLiquidation.entireTroveDebt,\n                TroveManagerOperation.liquidateInRecoveryMode\n            );\n            newColls memory borrowerColls;// = troveManager.getTroveColls(_borrower);\n            emit TroveUpdated(\n                _borrower,\n                0,\n                borrowerColls.tokens,\n                borrowerColls.amounts,\n                TroveManagerOperation.liquidateInRecoveryMode\n            );\n            /*\n             * If 110% <= ICR < current TCR (accounting for the preceding liquidations in the current sequence)\n             * and there is YUSD in the Stability Pool, only offset, with no redistribution,\n             * but at a capped rate of 1.1 and only if the whole debt can be liquidated.\n             * The remainder due to the capped rate will be claimable as collateral surplus.\n             * ICR >= 110% is implied from last else if statement. \n             */\n        } else if (\n           (_ICR < _TCR) && (singleLiquidation.entireTroveDebt <= _SUSDInStabPool)\n        ) {\n            troveManager.movePendingTroveRewardsToActivePool(\n                _activePool,\n                _defaultPool,\n                vars.pendingDebtReward,\n                vars.pendingCollReward.tokens,\n                vars.pendingCollReward.amounts,\n                _borrower\n            );\n\n            require(_SUSDInStabPool != 0, \"TML: zero SUSD in Stab Pool\");\n\n            troveManager.removeStakeTLR(_borrower);\n\n            singleLiquidation = _getCappedOffsetVals(\n                singleLiquidation.entireTroveDebt,\n                singleLiquidation.entireTroveColl.tokens,\n                singleLiquidation.entireTroveColl.amounts,\n                MCR\n            );\n\n            newColls memory collsToUpdate = _sumColls(\n                singleLiquidation.collToSendToSP,\n                singleLiquidation.collToRedistribute\n            );\n            // rewards for WAssets sent to SP and collToRedistribute will\n            // accrue to Yeti Finance Treasury until the assets are claimed\n            _updateWAssetsRewardOwner(collsToUpdate, _borrower, stabilityFinanceTreasury);\n\n            troveManager.closeTroveLiquidation(_borrower);\n\n            emit TroveLiquidated(\n                _borrower,\n                singleLiquidation.entireTroveDebt,\n                TroveManagerOperation.liquidateInRecoveryMode\n            );\n            newColls memory borrowerColls;\n            emit TroveUpdated(\n                _borrower,\n                0,\n                borrowerColls.tokens,\n                borrowerColls.amounts,\n                TroveManagerOperation.liquidateInRecoveryMode\n            );\n        } else {\n            // if (_ICR >= MCR && ( _ICR >= _TCR || singleLiquidation.entireTroveDebt > _YUSDInStabPool))\n            LiquidationValues memory zeroVals;\n            return zeroVals;\n        }\n\n        if (_collsIsNonZero(singleLiquidation.collSurplus)) {\n            troveManager.collSurplusUpdate(\n                _borrower,\n                singleLiquidation.collSurplus.tokens,\n                singleLiquidation.collSurplus.amounts\n            );\n        }\n    }\n\n    function _updateSingleLiquidation(\n        LocalVariables_ORVals memory or_vals,\n        LiquidationValues memory singleLiquidation\n    ) internal pure returns (LiquidationValues memory) {\n        singleLiquidation.debtToOffset = or_vals.debtToOffset;\n        singleLiquidation.collToSendToSP = or_vals.collToSendToSP;\n        singleLiquidation.debtToRedistribute = or_vals.debtToRedistribute;\n        singleLiquidation.collToRedistribute = or_vals.collToRedistribute;\n        singleLiquidation.collSurplus = or_vals.collSurplus;\n        return singleLiquidation;\n    }\n\n    /* In a full liquidation, returns the values for a trove's coll and debt to be offset, and coll and debt to be\n     * redistributed to active troves. _colls parameters is the _colls to be liquidated (total trove colls minus collateral for gas compensation)\n     * collsToRedistribute.tokens and collsToRedistribute.amounts should be the same length\n     * and should be the same length as _colls.tokens and _colls.amounts.\n     * If there is any colls redistributed to stability pool, collsToSendToSP.tokens and collsToSendToSP.amounts\n     * will be length equal to _colls.tokens and _colls.amounts. However, if no colls are redistributed to stability pool (which is the case when _YUSDInStabPool == 0),\n     * then collsToSendToSP.tokens and collsToSendToSP.amounts will be empty.\n     */\n    function _getOffsetAndRedistributionVals(\n        uint256 _entireTroveDebt,\n        newColls memory _collsToLiquidate,\n        uint256 _SUSDInStabPool\n    ) internal view returns (LocalVariables_ORVals memory or_vals) {\n        or_vals.collToRedistribute.tokens = _collsToLiquidate.tokens;\n        uint256 collsToLiquidateLen = _collsToLiquidate.tokens.length;\n        or_vals.collToRedistribute.amounts = new uint256[](collsToLiquidateLen);\n\n        if (_SUSDInStabPool != 0) {\n            /*\n             * Offset as much debt & collateral as possible against the Stability Pool, and redistribute the remainder\n             * between all active troves.\n             *\n             *  If the trove's debt is larger than the deposited YUSD in the Stability Pool:\n             *\n             *  - Offset an amount of the trove's debt equal to the YUSD in the Stability Pool\n             *  - Remainder of trove's debt will be redistributed\n             *  - Trove collateral can be partitioned into two parts:\n             *  - (1) Offsetting Collateral = (debtToOffset / troveDebt) * Collateral\n             *  - (2) Redistributed Collateral = Total Collateral - Offsetting Collateral\n             *  - The max offsetting collateral that can be sent to the stability pool is an amount of collateral such that\n             *  - the stability pool receives 110% of value of the debtToOffset. Any extra Offsetting Collateral is\n             *  - sent to the collSurplusPool and can be claimed by the borrower.\n             */\n            or_vals.collToSendToSP.tokens = _collsToLiquidate.tokens;\n            or_vals.collToSendToSP.amounts = new uint256[](collsToLiquidateLen);\n\n            or_vals.collSurplus.tokens = _collsToLiquidate.tokens;\n            or_vals.collSurplus.amounts = new uint256[](collsToLiquidateLen);\n\n            or_vals.debtToOffset = LiquityMath._min(_entireTroveDebt, _SUSDInStabPool);\n\n            or_vals.debtToRedistribute = _entireTroveDebt.sub(or_vals.debtToOffset);\n\n            uint toLiquidateCollValueUSD = _getUSDColls(_collsToLiquidate);\n\n            // collOffsetRatio: max percentage of the collateral that can be sent to the SP as offsetting collateral\n            // collOffsetRatio = percentage of the trove's debt that can be offset by the stability pool\n            uint256 collOffsetRatio = _100pct.mul(_100pct).mul(or_vals.debtToOffset).div(_entireTroveDebt);\n\n            // SPRatio: percentage of liquidated collateral that needs to be sent to SP in order to give SP depositors\n            // $110 of collateral for every 100 YUSD they are using to liquidate.\n            uint256 SPRatio = or_vals.debtToOffset.mul(_100pct).mul(MCR).div(toLiquidateCollValueUSD);\n\n            // But SP ratio is capped at collOffsetRatio:\n            SPRatio = LiquityMath._min(collOffsetRatio, SPRatio);\n\n            // if there is extra collateral left in the offset portion of the collateral after\n            // giving stability pool holders $110 of collateral for every 100 YUSD that is taken from them,\n            // then this is surplus collateral that can be claimed by the borrower\n            uint256 collSurplusRatio = collOffsetRatio.sub(SPRatio);\n\n            for (uint256 i; i < collsToLiquidateLen; ++i) {\n                or_vals.collToSendToSP.amounts[i] = _collsToLiquidate.amounts[i].mul(SPRatio).div(\n                    _100pct\n                ).div(_100pct);\n\n                or_vals.collSurplus.amounts[i] = _collsToLiquidate\n                    .amounts[i]\n                    .mul(collSurplusRatio)\n                    .div(_100pct)\n                    .div(_100pct);\n\n                // remaining collateral is redistributed:\n                or_vals.collToRedistribute.amounts[i] = _collsToLiquidate\n                    .amounts[i]\n                    .sub(or_vals.collToSendToSP.amounts[i])\n                    .sub(or_vals.collSurplus.amounts[i]);\n            }\n        } else {\n            // all colls are redistributed because no YUSD in stability pool to liquidate\n            or_vals.debtToOffset = 0;\n            for (uint256 i; i < collsToLiquidateLen; ++i) {\n                or_vals.collToRedistribute.amounts[i] = _collsToLiquidate.amounts[i];\n            }\n            or_vals.debtToRedistribute = _entireTroveDebt;\n        }\n    }\n\n    function _addLiquidationValuesToTotals(\n        LiquidationTotals memory oldTotals,\n        LiquidationValues memory singleLiquidation\n    ) internal view returns (LiquidationTotals memory newTotals) {\n        // Tally all the values with their respective running totals\n        //update one of these\n        newTotals.totalCollGasCompensation = _sumColls(\n            oldTotals.totalCollGasCompensation,\n            singleLiquidation.collGasCompensation\n        );\n        newTotals.totalSUSDGasCompensation = oldTotals.totalSUSDGasCompensation.add(\n            singleLiquidation.SUSDGasCompensation\n        );\n        newTotals.totalDebtInSequence = oldTotals.totalDebtInSequence.add(\n            singleLiquidation.entireTroveDebt\n        );\n        newTotals.totalDebtToOffset = oldTotals.totalDebtToOffset.add(\n            singleLiquidation.debtToOffset\n        );\n        newTotals.totalCollToSendToSP = _sumColls(\n            oldTotals.totalCollToSendToSP,\n            singleLiquidation.collToSendToSP\n        );\n        newTotals.totalDebtToRedistribute = oldTotals.totalDebtToRedistribute.add(\n            singleLiquidation.debtToRedistribute\n        );\n        newTotals.totalCollToRedistribute = _sumColls(\n            oldTotals.totalCollToRedistribute,\n            singleLiquidation.collToRedistribute\n        );\n        newTotals.totalCollSurplus = _sumColls(\n            oldTotals.totalCollSurplus,\n            singleLiquidation.collSurplus\n        );\n    }\n\n    /*\n    *  Get its offset coll/debt and Collateral gas comp, and close the trove.\n    */\n    function _getCappedOffsetVals\n    (\n        uint _entireTroveDebt,\n        address[] memory _troveTokens,\n        uint[] memory _troveAmounts,\n        uint _MCR\n    )\n    internal\n    view\n    returns (LiquidationValues memory singleLiquidation)\n    {\n        newColls memory _entireTroveColl;\n        _entireTroveColl.tokens = _troveTokens;\n        _entireTroveColl.amounts = _troveAmounts;\n\n        uint USD_Value_To_Send_To_SP = _MCR.mul(_entireTroveDebt).div(_100pct);\n        uint USD_Value_of_Trove_Colls = _getUSDColls(_entireTroveColl);\n\n        uint SPRatio = USD_Value_To_Send_To_SP.mul(_100pct).div(USD_Value_of_Trove_Colls);\n        SPRatio = LiquityMath._min(SPRatio, _100pct);\n\n        singleLiquidation.entireTroveDebt = _entireTroveDebt;\n        singleLiquidation.entireTroveColl = _entireTroveColl;\n\n        singleLiquidation.SUSDGasCompensation = SUSD_GAS_COMPENSATION;\n\n        singleLiquidation.debtToOffset = _entireTroveDebt;\n        singleLiquidation.debtToRedistribute = 0;\n\n        singleLiquidation.collToSendToSP.tokens = _troveTokens;\n        uint256 troveTokensLen = _troveTokens.length;\n        \n        singleLiquidation.collToSendToSP.amounts = new uint[](troveTokensLen);\n\n        singleLiquidation.collSurplus.tokens = _troveTokens;\n        singleLiquidation.collSurplus.amounts = new uint[](troveTokensLen);\n\n        singleLiquidation.collGasCompensation.tokens = _troveTokens;\n        singleLiquidation.collGasCompensation.amounts = new uint[](troveTokensLen);\n\n        for (uint256 i; i < troveTokensLen; ++i) {\n            uint _cappedCollAmount = SPRatio.mul(_troveAmounts[i]).div(_100pct);\n            uint _gasComp = _cappedCollAmount.div(PERCENT_DIVISOR);\n            uint _toSP = _cappedCollAmount.sub(_gasComp);\n            uint _collSurplus = _troveAmounts[i].sub(_cappedCollAmount);\n\n            singleLiquidation.collGasCompensation.amounts[i] = _gasComp;\n            singleLiquidation.collToSendToSP.amounts[i] = _toSP;\n            singleLiquidation.collSurplus.amounts[i] = _collSurplus;\n        }\n    }\n\n    function _sendGasCompensation(\n        IActivePool _activePool,\n        address _liquidator,\n        uint256 _SUSD,\n        address[] memory _tokens,\n        uint256[] memory _amounts\n    ) internal {\n        if (_SUSD != 0) {\n            susdTokenContract.returnFromPool(gasPoolAddress, _liquidator, _SUSD);\n        }\n\n        // This contract owns the rewards temporarily until the liquidation is complete\n        _activePool.sendCollateralsUnwrap(address(this), _liquidator, _tokens, _amounts);\n    }\n\n    /*\n     * Update rewards tracking so future rewards go to Yeti Finance Treasury\n     * for the trove's asset that have been liquidated and moved to either the\n     * Stability Pool or Default Pool\n    */\n    function _updateWAssetsRewardOwner(newColls memory _colls, address _borrower, address _newOwner) internal {\n        uint256 collsLen = _colls.tokens.length;\n        for (uint256 i; i < collsLen; ++i) {\n            address token = _colls.tokens[i];\n            if (whitelist.isWrapped(token)) {\n                IWAsset(token).updateReward(_borrower, _newOwner, _colls.amounts[i]);\n            }\n        }\n    }\n\n    function _requireCallerisTroveManager() internal view {\n        require(msg.sender == troveManagerAddress, \"Caller not TM\");\n    }\n\n\n    // Return the amount of collateral to be drawn from a trove's collateral and sent as gas compensation.\n    function _getCollGasCompensation(newColls memory _coll) internal pure returns (newColls memory) {\n        require(_coll.tokens.length == _coll.amounts.length, \"Not same length\");\n\n        uint[] memory amounts = new uint[](_coll.tokens.length);\n        for (uint256 i; i < _coll.tokens.length; ++i) {\n            amounts[i] = _coll.amounts[i] / PERCENT_DIVISOR;\n        }\n        return newColls(_coll.tokens, amounts);\n    }\n\n\n    // Check whether or not the system *would be* in Recovery Mode, given the entire system coll and debt.\n    // returns true if the system would be in recovery mode and false if not\n    function _checkPotentialRecoveryMode(uint _entireSystemColl, uint _entireSystemDebt)\n    internal\n    pure\n    returns (bool)\n    {\n        uint TCR = LiquityMath._computeCR(_entireSystemColl, _entireSystemDebt);\n\n        return TCR < CCR;\n    }\n}",
  "sourcePath": "/Users/phaxsam/Core-Stability_Truffle/contracts/TroveManagerLiquidations.sol",
  "compiler": {
    "name": "solc",
    "version": "0.6.11+commit.5ef660b1.Emscripten.clang"
  },
  "schemaVersion": "3.4.9",
  "updatedAt": "2022-08-15T22:38:51.860Z",
  "devdoc": {
    "kind": "dev",
    "methods": {
      "isOwner()": {
        "details": "Returns true if the caller is the current owner."
      },
      "owner()": {
        "details": "Returns the address of the current owner."
      }
    },
    "version": 1
  },
  "userdoc": {
    "kind": "user",
    "methods": {
      "batchLiquidateTroves(address[],address)": {
        "notice": "Function for liquidating a list of troves in a single transaction. Will perform as many as it can  and looks at if it is eligible for liquidation based on the current ICR value. "
      }
    },
    "notice": "TroveManagerLiquidations is derived from TroveManager and has all the functions  related to Liquidations. ",
    "version": 1
  }
}