{
  "contractName": "TroveManagerRedemptions",
  "abi": [
    {
      "anonymous": false,
      "inputs": [
        {
          "indexed": true,
          "internalType": "address",
          "name": "previousOwner",
          "type": "address"
        },
        {
          "indexed": true,
          "internalType": "address",
          "name": "newOwner",
          "type": "address"
        }
      ],
      "name": "OwnershipTransferred",
      "type": "event"
    },
    {
      "anonymous": false,
      "inputs": [
        {
          "indexed": false,
          "internalType": "uint256",
          "name": "_attemptedSUSDAmount",
          "type": "uint256"
        },
        {
          "indexed": false,
          "internalType": "uint256",
          "name": "_actualSUSDAmount",
          "type": "uint256"
        },
        {
          "indexed": false,
          "internalType": "uint256",
          "name": "SUSDfee",
          "type": "uint256"
        },
        {
          "indexed": false,
          "internalType": "address[]",
          "name": "tokens",
          "type": "address[]"
        },
        {
          "indexed": false,
          "internalType": "uint256[]",
          "name": "amounts",
          "type": "uint256[]"
        }
      ],
      "name": "Redemption",
      "type": "event"
    },
    {
      "anonymous": false,
      "inputs": [
        {
          "indexed": true,
          "internalType": "address",
          "name": "_borrower",
          "type": "address"
        },
        {
          "indexed": false,
          "internalType": "uint256",
          "name": "_debt",
          "type": "uint256"
        },
        {
          "indexed": false,
          "internalType": "address[]",
          "name": "_tokens",
          "type": "address[]"
        },
        {
          "indexed": false,
          "internalType": "uint256[]",
          "name": "_amounts",
          "type": "uint256[]"
        },
        {
          "indexed": false,
          "internalType": "enum TroveManagerBase.TroveManagerOperation",
          "name": "operation",
          "type": "uint8"
        }
      ],
      "name": "TroveUpdated",
      "type": "event"
    },
    {
      "inputs": [],
      "name": "BETA",
      "outputs": [
        {
          "internalType": "uint256",
          "name": "",
          "type": "uint256"
        }
      ],
      "stateMutability": "view",
      "type": "function"
    },
    {
      "inputs": [],
      "name": "BOOTSTRAP_PERIOD",
      "outputs": [
        {
          "internalType": "uint256",
          "name": "",
          "type": "uint256"
        }
      ],
      "stateMutability": "view",
      "type": "function"
    },
    {
      "inputs": [],
      "name": "BORROWING_FEE_FLOOR",
      "outputs": [
        {
          "internalType": "uint256",
          "name": "",
          "type": "uint256"
        }
      ],
      "stateMutability": "view",
      "type": "function"
    },
    {
      "inputs": [],
      "name": "CCR",
      "outputs": [
        {
          "internalType": "uint256",
          "name": "",
          "type": "uint256"
        }
      ],
      "stateMutability": "view",
      "type": "function"
    },
    {
      "inputs": [],
      "name": "DECIMAL_PRECISION",
      "outputs": [
        {
          "internalType": "uint256",
          "name": "",
          "type": "uint256"
        }
      ],
      "stateMutability": "view",
      "type": "function"
    },
    {
      "inputs": [],
      "name": "MCR",
      "outputs": [
        {
          "internalType": "uint256",
          "name": "",
          "type": "uint256"
        }
      ],
      "stateMutability": "view",
      "type": "function"
    },
    {
      "inputs": [],
      "name": "MIN_NET_DEBT",
      "outputs": [
        {
          "internalType": "uint256",
          "name": "",
          "type": "uint256"
        }
      ],
      "stateMutability": "view",
      "type": "function"
    },
    {
      "inputs": [],
      "name": "NAME",
      "outputs": [
        {
          "internalType": "bytes32",
          "name": "",
          "type": "bytes32"
        }
      ],
      "stateMutability": "view",
      "type": "function"
    },
    {
      "inputs": [],
      "name": "REDEMPTION_FEE_FLOOR",
      "outputs": [
        {
          "internalType": "uint256",
          "name": "",
          "type": "uint256"
        }
      ],
      "stateMutability": "view",
      "type": "function"
    },
    {
      "inputs": [],
      "name": "SUSD_GAS_COMPENSATION",
      "outputs": [
        {
          "internalType": "uint256",
          "name": "",
          "type": "uint256"
        }
      ],
      "stateMutability": "view",
      "type": "function"
    },
    {
      "inputs": [],
      "name": "getEntireSystemColl",
      "outputs": [
        {
          "internalType": "uint256",
          "name": "",
          "type": "uint256"
        }
      ],
      "stateMutability": "view",
      "type": "function"
    },
    {
      "inputs": [],
      "name": "getEntireSystemDebt",
      "outputs": [
        {
          "internalType": "uint256",
          "name": "",
          "type": "uint256"
        }
      ],
      "stateMutability": "view",
      "type": "function"
    },
    {
      "inputs": [],
      "name": "isOwner",
      "outputs": [
        {
          "internalType": "bool",
          "name": "",
          "type": "bool"
        }
      ],
      "stateMutability": "view",
      "type": "function"
    },
    {
      "inputs": [],
      "name": "owner",
      "outputs": [
        {
          "internalType": "address",
          "name": "",
          "type": "address"
        }
      ],
      "stateMutability": "view",
      "type": "function"
    },
    {
      "inputs": [
        {
          "internalType": "address",
          "name": "_borrowerOperationsAddress",
          "type": "address"
        },
        {
          "internalType": "address",
          "name": "_activePoolAddress",
          "type": "address"
        },
        {
          "internalType": "address",
          "name": "_defaultPoolAddress",
          "type": "address"
        },
        {
          "internalType": "address",
          "name": "_stabilityPoolAddress",
          "type": "address"
        },
        {
          "internalType": "address",
          "name": "_gasPoolAddress",
          "type": "address"
        },
        {
          "internalType": "address",
          "name": "_collSurplusPoolAddress",
          "type": "address"
        },
        {
          "internalType": "address",
          "name": "_susdTokenAddress",
          "type": "address"
        },
        {
          "internalType": "address",
          "name": "_sortedTrovesAddress",
          "type": "address"
        },
        {
          "internalType": "address",
          "name": "_stbTokenAddress",
          "type": "address"
        },
        {
          "internalType": "address",
          "name": "_sSTBAddress",
          "type": "address"
        },
        {
          "internalType": "address",
          "name": "_whitelistAddress",
          "type": "address"
        },
        {
          "internalType": "address",
          "name": "_troveManagerAddress",
          "type": "address"
        }
      ],
      "name": "setAddresses",
      "outputs": [],
      "stateMutability": "nonpayable",
      "type": "function"
    },
    {
      "inputs": [
        {
          "internalType": "uint256",
          "name": "_SUSDamount",
          "type": "uint256"
        },
        {
          "internalType": "uint256",
          "name": "_SUSDMaxFee",
          "type": "uint256"
        },
        {
          "internalType": "address",
          "name": "_firstRedemptionHint",
          "type": "address"
        },
        {
          "internalType": "address",
          "name": "_upperPartialRedemptionHint",
          "type": "address"
        },
        {
          "internalType": "address",
          "name": "_lowerPartialRedemptionHint",
          "type": "address"
        },
        {
          "internalType": "uint256",
          "name": "_partialRedemptionHintICR",
          "type": "uint256"
        },
        {
          "internalType": "uint256",
          "name": "_maxIterations",
          "type": "uint256"
        },
        {
          "internalType": "address",
          "name": "_redeemer",
          "type": "address"
        }
      ],
      "name": "redeemCollateral",
      "outputs": [],
      "stateMutability": "nonpayable",
      "type": "function"
    },
    {
      "inputs": [
        {
          "internalType": "uint256",
          "name": "_SUSDamount",
          "type": "uint256"
        },
        {
          "internalType": "uint256",
          "name": "_SUSDMaxFee",
          "type": "uint256"
        },
        {
          "internalType": "address",
          "name": "_firstRedemptionHint",
          "type": "address"
        },
        {
          "internalType": "address",
          "name": "_upperPartialRedemptionHint",
          "type": "address"
        },
        {
          "internalType": "address",
          "name": "_lowerPartialRedemptionHint",
          "type": "address"
        },
        {
          "internalType": "uint256",
          "name": "_partialRedemptionHintRICR",
          "type": "uint256"
        },
        {
          "internalType": "address",
          "name": "_collToRedeem",
          "type": "address"
        }
      ],
      "name": "redeemCollateralSingle",
      "outputs": [],
      "stateMutability": "nonpayable",
      "type": "function"
    }
  ],
  "bytecode": "0x608060405234801561001057600080fd5b5033600360006101000a81548173ffffffffffffffffffffffffffffffffffffffff021916908373ffffffffffffffffffffffffffffffffffffffff1602179055503373ffffffffffffffffffffffffffffffffffffffff16600073ffffffffffffffffffffffffffffffffffffffff167f8be0079c531659141344cd1fd0a4f28419497f9722a3daafe3b4186f6b6457e060405160405180910390a3616c2c80620000bd6000396000f3fe608060405234801561001057600080fd5b506004361061010b5760003560e01c806387dc6656116100a2578063a20baee611610071578063a20baee6146104d3578063a3f4df7e146104f1578063c2f6202d1461050f578063c35bc550146105dc578063f92d3433146105fa5761010b565b806387dc66561461042b578063887105d3146104495780638da5cb5b146104675780638f32d59b146104b15761010b565b80635733d58f116100de5780635733d58f1461022c578063734f622d1461024a578063794e5724146103ef578063795d26c31461040d5761010b565b8063071a7541146101105780631bf435551461012e57806328d28b5b1461014c578063433383721461016a575b600080fd5b610118610618565b6040518082815260200191505060405180910390f35b61013661061d565b6040518082815260200191505060405180910390f35b61015461062a565b6040518082815260200191505060405180910390f35b61022a600480360360e081101561018057600080fd5b810190808035906020019092919080359060200190929190803573ffffffffffffffffffffffffffffffffffffffff169060200190929190803573ffffffffffffffffffffffffffffffffffffffff169060200190929190803573ffffffffffffffffffffffffffffffffffffffff16906020019092919080359060200190929190803573ffffffffffffffffffffffffffffffffffffffff169060200190929190505050610644565b005b610234611fa5565b6040518082815260200191505060405180910390f35b6103ed600480360361018081101561026157600080fd5b81019080803573ffffffffffffffffffffffffffffffffffffffff169060200190929190803573ffffffffffffffffffffffffffffffffffffffff169060200190929190803573ffffffffffffffffffffffffffffffffffffffff169060200190929190803573ffffffffffffffffffffffffffffffffffffffff169060200190929190803573ffffffffffffffffffffffffffffffffffffffff169060200190929190803573ffffffffffffffffffffffffffffffffffffffff169060200190929190803573ffffffffffffffffffffffffffffffffffffffff169060200190929190803573ffffffffffffffffffffffffffffffffffffffff169060200190929190803573ffffffffffffffffffffffffffffffffffffffff169060200190929190803573ffffffffffffffffffffffffffffffffffffffff169060200190929190803573ffffffffffffffffffffffffffffffffffffffff169060200190929190803573ffffffffffffffffffffffffffffffffffffffff169060200190929190505050611fb1565b005b6103f761234c565b6040518082815260200191505060405180910390f35b610415612358565b6040518082815260200191505060405180910390f35b6104336124c1565b6040518082815260200191505060405180910390f35b6104516124ce565b6040518082815260200191505060405180910390f35b61046f612578565b604051808273ffffffffffffffffffffffffffffffffffffffff1673ffffffffffffffffffffffffffffffffffffffff16815260200191505060405180910390f35b6104b96125a2565b604051808215151515815260200191505060405180910390f35b6104db6125fa565b6040518082815260200191505060405180910390f35b6104f9612606565b6040518082815260200191505060405180910390f35b6105da600480360361010081101561052657600080fd5b810190808035906020019092919080359060200190929190803573ffffffffffffffffffffffffffffffffffffffff169060200190929190803573ffffffffffffffffffffffffffffffffffffffff169060200190929190803573ffffffffffffffffffffffffffffffffffffffff1690602001909291908035906020019092919080359060200190929190803573ffffffffffffffffffffffffffffffffffffffff16906020019092919050505061262a565b005b6105e4613420565b6040518082815260200191505060405180910390f35b610602613427565b6040518082815260200191505060405180910390f35b600281565b68056bc75e2d6310000081565b60056103e8670de0b6b3a76400008161063f57fe5b040281565b61064c616982565b6040518060e00160405280600160009054906101000a900473ffffffffffffffffffffffffffffffffffffffff1673ffffffffffffffffffffffffffffffffffffffff168152602001600260009054906101000a900473ffffffffffffffffffffffffffffffffffffffff1673ffffffffffffffffffffffffffffffffffffffff168152602001600760009054906101000a900473ffffffffffffffffffffffffffffffffffffffff1673ffffffffffffffffffffffffffffffffffffffff168152602001600960009054906101000a900473ffffffffffffffffffffffffffffffffffffffff1673ffffffffffffffffffffffffffffffffffffffff168152602001600c60009054906101000a900473ffffffffffffffffffffffffffffffffffffffff1673ffffffffffffffffffffffffffffffffffffffff168152602001600d60009054906101000a900473ffffffffffffffffffffffffffffffffffffffff1673ffffffffffffffffffffffffffffffffffffffff168152602001600b60009054906101000a900473ffffffffffffffffffffffffffffffffffffffff1673ffffffffffffffffffffffffffffffffffffffff168152509050610811616a59565b610819616a9c565b87816040019073ffffffffffffffffffffffffffffffffffffffff16908173ffffffffffffffffffffffffffffffffffffffff16815250508481606001818152505086816000019073ffffffffffffffffffffffffffffffffffffffff16908173ffffffffffffffffffffffffffffffffffffffff168152505085816020019073ffffffffffffffffffffffffffffffffffffffff16908173ffffffffffffffffffffffffffffffffffffffff16815250506108d58a8a613441565b6108dd613581565b6108e56136a6565b6108ee8a61372d565b6108f6612358565b8260a00181815250508160a00151836040015173ffffffffffffffffffffffffffffffffffffffff166370a08231336040518263ffffffff1660e01b8152600401808273ffffffffffffffffffffffffffffffffffffffff1673ffffffffffffffffffffffffffffffffffffffff16815260200191505060206040518083038186803b15801561098557600080fd5b505afa158015610999573d6000803e3d6000fd5b505050506040513d60208110156109af57600080fd5b81019080805190602001909291905050501115610a34576040517f08c379a000000000000000000000000000000000000000000000000000000000815260040180806020018281038252601e8152602001807f544d523a52656465656d657220535553442042616c20746f6f2068696768000081525060200191505060405180910390fd5b89826000018181525050610a50836080015182604001516137a7565b610aa5576040517f08c379a0000000000000000000000000000000000000000000000000000000008152600401808060200182810382526021815260200180616b706021913960400191505060405180910390fd5b600660009054906101000a900473ffffffffffffffffffffffffffffffffffffffff1673ffffffffffffffffffffffffffffffffffffffff16630b07655782604001516040518263ffffffff1660e01b8152600401808273ffffffffffffffffffffffffffffffffffffffff1673ffffffffffffffffffffffffffffffffffffffff168152602001915050600060405180830381600087803b158015610b4a57600080fd5b505af1158015610b5e573d6000803e3d6000fd5b50505050610b6a616b06565b6000600660009054906101000a900473ffffffffffffffffffffffffffffffffffffffff1673ffffffffffffffffffffffffffffffffffffffff1663d66a255384604001516040518263ffffffff1660e01b8152600401808273ffffffffffffffffffffffffffffffffffffffff1673ffffffffffffffffffffffffffffffffffffffff16815260200191505060206040518083038186803b158015610c0f57600080fd5b505afa158015610c23573d6000803e3d6000fd5b505050506040513d6020811015610c3957600080fd5b81019080805190602001909291905050509050610c758460000151610c706802b5e3af16b188000084613b7290919063ffffffff16565b613bbc565b826000018181525050610c86616b2f565b600660009054906101000a900473ffffffffffffffffffffffffffffffffffffffff1673ffffffffffffffffffffffffffffffffffffffff166335a058b485604001516040518263ffffffff1660e01b8152600401808273ffffffffffffffffffffffffffffffffffffffff1673ffffffffffffffffffffffffffffffffffffffff16815260200191505060006040518083038186803b158015610d2957600080fd5b505afa158015610d3d573d6000803e3d6000fd5b505050506040513d6000823e3d601f19601f820116820180604052506060811015610d6757600080fd5b8101908080516040519392919084640100000000821115610d8757600080fd5b83820191506020820185811115610d9d57600080fd5b8251866020820283011164010000000082111715610dba57600080fd5b8083526020830192505050908051906020019060200280838360005b83811015610df1578082015181840152602081019050610dd6565b5050505090500160405260200180516040519392919084640100000000821115610e1a57600080fd5b83820191506020820185811115610e3057600080fd5b8251866020820283011164010000000082111715610e4d57600080fd5b8083526020830192505050908051906020019060200280838360005b83811015610e84578082015181840152602081019050610e69565b50505050905001604052602001805190602001909291905050505082600001836020018290528290525050600080826000015151905060008092505b81831015610f27578973ffffffffffffffffffffffffffffffffffffffff1684600001518481518110610eef57fe5b602002602001015173ffffffffffffffffffffffffffffffffffffffff161415610f1c5760019050610f27565b826001019250610ec0565b80610f9a576040517f08c379a00000000000000000000000000000000000000000000000000000000081526004018080602001828103825260158152602001807f544d523a436f6c6c206e6f7420696e2074726f7665000000000000000000000081525060200191505060405180910390fd5b5060008060009054906101000a900473ffffffffffffffffffffffffffffffffffffffff1673ffffffffffffffffffffffffffffffffffffffff1663cacabd278b86602001518681518110610feb57fe5b60200260200101516040518363ffffffff1660e01b8152600401808373ffffffffffffffffffffffffffffffffffffffff1673ffffffffffffffffffffffffffffffffffffffff1681526020018281526020019250505060206040518083038186803b15801561105a57600080fd5b505afa15801561106e573d6000803e3d6000fd5b505050506040513d602081101561108457600080fd5b810190808051906020019092919050505090506110a5818760000151613bbc565b86600001818152505083600001518660200151600001819052508167ffffffffffffffff811180156110d657600080fd5b506040519080825280602002602001820160405280156111055781602001602082028036833780820191505090505b508660200151602001819052506000611154826111468760200151878151811061112b57fe5b60200260200101518a60000151613bd590919063ffffffff16565b613c7890919063ffffffff16565b9050611180818660200151868151811061116a57fe5b6020026020010151613b7290919063ffffffff16565b8560200151858151811061119057fe5b6020026020010181815250508087602001516020015185815181106111b157fe5b60200260200101818152505050506111d6856000015185613b7290919063ffffffff16565b93506802b5e3af16b188000084141561152057600660009054906101000a900473ffffffffffffffffffffffffffffffffffffffff1673ffffffffffffffffffffffffffffffffffffffff1663c550c36287604001516040518263ffffffff1660e01b8152600401808273ffffffffffffffffffffffffffffffffffffffff1673ffffffffffffffffffffffffffffffffffffffff168152602001915050600060405180830381600087803b15801561128e57600080fd5b505af11580156112a2573d6000803e3d6000fd5b50505050600660009054906101000a900473ffffffffffffffffffffffffffffffffffffffff1673ffffffffffffffffffffffffffffffffffffffff1663bd5ef3f987604001516040518263ffffffff1660e01b8152600401808273ffffffffffffffffffffffffffffffffffffffff1673ffffffffffffffffffffffffffffffffffffffff168152602001915050600060405180830381600087803b15801561134b57600080fd5b505af115801561135f573d6000803e3d6000fd5b505050506113858887604001516802b5e3af16b188000086600001518760200151613cc2565b6060600067ffffffffffffffff8111801561139f57600080fd5b506040519080825280602002602001820160405280156113ce5781602001602082028036833780820191505090505b5090506060600067ffffffffffffffff811180156113eb57600080fd5b5060405190808252806020026020018201604052801561141a5781602001602082028036833780820191505090505b509050876040015173ffffffffffffffffffffffffffffffffffffffff167f98c96bbf8d2aa6be678259387225d169084fca483ed9598bde8ea258036bcacf60008484600360405180858152602001806020018060200184600381111561147d57fe5b60ff168152602001838103835286818151815260200191508051906020019060200280838360005b838110156114c05780820151818401526020810190506114a5565b50505050905001838103825285818151815260200191508051906020019060200280838360005b838110156115025780820151818401526020810190506114e7565b50505050905001965050505050505060405180910390a25050611add565b600061152c848661405b565b905061154c66470de4df820000886060015161407c90919063ffffffff16565b81101580611577575061157366470de4df8200008860600151613b7290919063ffffffff16565b8111155b80611592575068056bc75e2d6310000061159086614104565b105b156115e8576040517f08c379a000000000000000000000000000000000000000000000000000000000815260040180806020018281038252603c815260200180616bbb603c913960400191505060405180910390fd5b886080015173ffffffffffffffffffffffffffffffffffffffff16632be212608860400151838a600001518b602001516040518563ffffffff1660e01b8152600401808573ffffffffffffffffffffffffffffffffffffffff1673ffffffffffffffffffffffffffffffffffffffff1681526020018481526020018373ffffffffffffffffffffffffffffffffffffffff1673ffffffffffffffffffffffffffffffffffffffff1681526020018273ffffffffffffffffffffffffffffffffffffffff1673ffffffffffffffffffffffffffffffffffffffff168152602001945050505050600060405180830381600087803b1580156116e757600080fd5b505af11580156116fb573d6000803e3d6000fd5b50505050600660009054906101000a900473ffffffffffffffffffffffffffffffffffffffff1673ffffffffffffffffffffffffffffffffffffffff166331bafd9b8860400151876040518363ffffffff1660e01b8152600401808373ffffffffffffffffffffffffffffffffffffffff1673ffffffffffffffffffffffffffffffffffffffff16815260200182815260200192505050600060405180830381600087803b1580156117ac57600080fd5b505af11580156117c0573d6000803e3d6000fd5b50505050600660009054906101000a900473ffffffffffffffffffffffffffffffffffffffff1673ffffffffffffffffffffffffffffffffffffffff16631843bf888860400151866000015187602001516040518463ffffffff1660e01b8152600401808473ffffffffffffffffffffffffffffffffffffffff1673ffffffffffffffffffffffffffffffffffffffff1681526020018060200180602001838103835285818151815260200191508051906020019060200280838360005b8381101561189957808201518184015260208101905061187e565b50505050905001838103825284818151815260200191508051906020019060200280838360005b838110156118db5780820151818401526020810190506118c0565b5050505090500195505050505050600060405180830381600087803b15801561190357600080fd5b505af1158015611917573d6000803e3d6000fd5b50505050600660009054906101000a900473ffffffffffffffffffffffffffffffffffffffff1673ffffffffffffffffffffffffffffffffffffffff166318f2817a88604001516040518263ffffffff1660e01b8152600401808273ffffffffffffffffffffffffffffffffffffffff1673ffffffffffffffffffffffffffffffffffffffff168152602001915050600060405180830381600087803b1580156119c057600080fd5b505af11580156119d4573d6000803e3d6000fd5b50505050866040015173ffffffffffffffffffffffffffffffffffffffff167f98c96bbf8d2aa6be678259387225d169084fca483ed9598bde8ea258036bcacf86866000015187602001516003604051808581526020018060200180602001846003811115611a3f57fe5b60ff168152602001838103835286818151815260200191508051906020019060200280838360005b83811015611a82578082015181840152602081019050611a67565b50505050905001838103825285818151815260200191508051906020019060200280838360005b83811015611ac4578082015181840152602081019050611aa9565b50505050905001965050505050505060405180910390a2505b846000015187602001818152505084602001518760400181905250611b058760400151614129565b611b77576040517f08c379a00000000000000000000000000000000000000000000000000000000081526004018080602001828103825260188152602001807f544d523a206e6f6e207a65726f20636f6c6c73447261776e000000000000000081525060200191505060405180910390fd5b611b8987602001518860a00151614180565b50611b978760200151614330565b876060018181525050611bc9886040015133611bc48a606001518b6000015161407c90919063ffffffff16565b6143e5565b611bd787606001518f614517565b611c1033896060015189606001518b6040015173ffffffffffffffffffffffffffffffffffffffff16614591909392919063ffffffff16565b7f7335fe3ff0d234203ba5c8aac0cb19ed9bc9651b015ffcbcca39e73531b32e8d8760000151886020015189606001518a60400151600001518b6040015160200151604051808681526020018581526020018481526020018060200180602001838103835285818151815260200191508051906020019060200280838360005b83811015611cab578082015181840152602081019050611c90565b50505050905001838103825284818151815260200191508051906020019060200280838360005b83811015611ced578082015181840152602081019050611cd2565b5050505090500197505050505050505060405180910390a1876040015173ffffffffffffffffffffffffffffffffffffffff16639dc29fac3389602001516040518363ffffffff1660e01b8152600401808373ffffffffffffffffffffffffffffffffffffffff1673ffffffffffffffffffffffffffffffffffffffff16815260200182815260200192505050600060405180830381600087803b158015611d9457600080fd5b505af1158015611da8573d6000803e3d6000fd5b50505050876000015173ffffffffffffffffffffffffffffffffffffffff1663eae6f90888602001516040518263ffffffff1660e01b815260040180828152602001915050600060405180830381600087803b158015611e0757600080fd5b505af1158015611e1b573d6000803e3d6000fd5b50505050876000015173ffffffffffffffffffffffffffffffffffffffff16633733a1338760400151338a60400151600001518b60400151602001516040518563ffffffff1660e01b8152600401808573ffffffffffffffffffffffffffffffffffffffff1673ffffffffffffffffffffffffffffffffffffffff1681526020018473ffffffffffffffffffffffffffffffffffffffff1673ffffffffffffffffffffffffffffffffffffffff1681526020018060200180602001838103835285818151815260200191508051906020019060200280838360005b83811015611f11578082015181840152602081019050611ef6565b50505050905001838103825284818151815260200191508051906020019060200280838360005b83811015611f53578082015181840152602081019050611f38565b505050509050019650505050505050600060405180830381600087803b158015611f7c57600080fd5b505af1158015611f90573d6000803e3d6000fd5b50505050505050505050505050505050505050565b6714d1120d7b16000081565b611fb96125a2565b61202b576040517f08c379a000000000000000000000000000000000000000000000000000000000815260040180806020018281038252600e8152602001807f43616c6c65724e6f744f776e657200000000000000000000000000000000000081525060200191505060405180910390fd5b8b600460006101000a81548173ffffffffffffffffffffffffffffffffffffffff021916908373ffffffffffffffffffffffffffffffffffffffff1602179055508a600160006101000a81548173ffffffffffffffffffffffffffffffffffffffff021916908373ffffffffffffffffffffffffffffffffffffffff16021790555089600260006101000a81548173ffffffffffffffffffffffffffffffffffffffff021916908373ffffffffffffffffffffffffffffffffffffffff16021790555088600560006101000a81548173ffffffffffffffffffffffffffffffffffffffff021916908373ffffffffffffffffffffffffffffffffffffffff160217905550816000806101000a81548173ffffffffffffffffffffffffffffffffffffffff021916908373ffffffffffffffffffffffffffffffffffffffff16021790555087600b60006101000a81548173ffffffffffffffffffffffffffffffffffffffff021916908373ffffffffffffffffffffffffffffffffffffffff16021790555086600d60006101000a81548173ffffffffffffffffffffffffffffffffffffffff021916908373ffffffffffffffffffffffffffffffffffffffff16021790555085600760006101000a81548173ffffffffffffffffffffffffffffffffffffffff021916908373ffffffffffffffffffffffffffffffffffffffff16021790555084600c60006101000a81548173ffffffffffffffffffffffffffffffffffffffff021916908373ffffffffffffffffffffffffffffffffffffffff16021790555083600860006101000a81548173ffffffffffffffffffffffffffffffffffffffff021916908373ffffffffffffffffffffffffffffffffffffffff16021790555082600960006101000a81548173ffffffffffffffffffffffffffffffffffffffff021916908373ffffffffffffffffffffffffffffffffffffffff16021790555080600660006101000a81548173ffffffffffffffffffffffffffffffffffffffff021916908373ffffffffffffffffffffffffffffffffffffffff16021790555061233e61467e565b505050505050505050505050565b670f43fc2c04ee000081565b600080600160009054906101000a900473ffffffffffffffffffffffffffffffffffffffff1673ffffffffffffffffffffffffffffffffffffffff1663c24103646040518163ffffffff1660e01b815260040160206040518083038186803b1580156123c357600080fd5b505afa1580156123d7573d6000803e3d6000fd5b505050506040513d60208110156123ed57600080fd5b810190808051906020019092919050505090506000600260009054906101000a900473ffffffffffffffffffffffffffffffffffffffff1673ffffffffffffffffffffffffffffffffffffffff1663c24103646040518163ffffffff1660e01b815260040160206040518083038186803b15801561246a57600080fd5b505afa15801561247e573d6000803e3d6000fd5b505050506040513d602081101561249457600080fd5b810190808051906020019092919050505090506124ba818361407c90919063ffffffff16565b9250505090565b6802b5e3af16b188000081565b6000600160009054906101000a900473ffffffffffffffffffffffffffffffffffffffff1673ffffffffffffffffffffffffffffffffffffffff1663651340c46040518163ffffffff1660e01b815260040160206040518083038186803b15801561253857600080fd5b505afa15801561254c573d6000803e3d6000fd5b505050506040513d602081101561256257600080fd5b8101908080519060200190929190505050905090565b6000600360009054906101000a900473ffffffffffffffffffffffffffffffffffffffff16905090565b6000600360009054906101000a900473ffffffffffffffffffffffffffffffffffffffff1673ffffffffffffffffffffffffffffffffffffffff163373ffffffffffffffffffffffffffffffffffffffff1614905090565b670de0b6b3a764000081565b7f54726f76654d616e61676572526564656d7074696f6e7300000000000000000081565b61263261473f565b61263a616982565b6040518060e00160405280600160009054906101000a900473ffffffffffffffffffffffffffffffffffffffff1673ffffffffffffffffffffffffffffffffffffffff168152602001600260009054906101000a900473ffffffffffffffffffffffffffffffffffffffff1673ffffffffffffffffffffffffffffffffffffffff168152602001600760009054906101000a900473ffffffffffffffffffffffffffffffffffffffff1673ffffffffffffffffffffffffffffffffffffffff168152602001600960009054906101000a900473ffffffffffffffffffffffffffffffffffffffff1673ffffffffffffffffffffffffffffffffffffffff168152602001600c60009054906101000a900473ffffffffffffffffffffffffffffffffffffffff1673ffffffffffffffffffffffffffffffffffffffff168152602001600d60009054906101000a900473ffffffffffffffffffffffffffffffffffffffff1673ffffffffffffffffffffffffffffffffffffffff168152602001600b60009054906101000a900473ffffffffffffffffffffffffffffffffffffffff1673ffffffffffffffffffffffffffffffffffffffff1681525090506127ff616a59565b6128098a8a613441565b612811613581565b6128196136a6565b6128228a61372d565b61282a612358565b8160a00181815250508060a00151826040015173ffffffffffffffffffffffffffffffffffffffff166370a08231856040518263ffffffff1660e01b8152600401808273ffffffffffffffffffffffffffffffffffffffff1673ffffffffffffffffffffffffffffffffffffffff16815260200191505060206040518083038186803b1580156128b957600080fd5b505afa1580156128cd573d6000803e3d6000fd5b505050506040513d60208110156128e357600080fd5b81019080805190602001909291905050501115612968576040517f08c379a000000000000000000000000000000000000000000000000000000000815260040180806020018281038252601e8152602001807f544d523a2072656465656d65722062616c616e636520746f6f2068696768000081525060200191505060405180910390fd5b89816000018181525050600061298283608001518a6137a7565b1561298f57889050612bfd565b826080015173ffffffffffffffffffffffffffffffffffffffff16634d6228316040518163ffffffff1660e01b815260040160206040518083038186803b1580156129d957600080fd5b505afa1580156129ed573d6000803e3d6000fd5b505050506040513d6020811015612a0357600080fd5b810190808051906020019092919050505090505b600073ffffffffffffffffffffffffffffffffffffffff168173ffffffffffffffffffffffffffffffffffffffff1614158015612b345750670f43fc2c04ee0000600660009054906101000a900473ffffffffffffffffffffffffffffffffffffffff1673ffffffffffffffffffffffffffffffffffffffff166315d02fe6836040518263ffffffff1660e01b8152600401808273ffffffffffffffffffffffffffffffffffffffff1673ffffffffffffffffffffffffffffffffffffffff16815260200191505060206040518083038186803b158015612af757600080fd5b505afa158015612b0b573d6000803e3d6000fd5b505050506040513d6020811015612b2157600080fd5b8101908080519060200190929190505050105b15612bfc57826080015173ffffffffffffffffffffffffffffffffffffffff1663b72703ac826040518263ffffffff1660e01b8152600401808273ffffffffffffffffffffffffffffffffffffffff1673ffffffffffffffffffffffffffffffffffffffff16815260200191505060206040518083038186803b158015612bba57600080fd5b505afa158015612bce573d6000803e3d6000fd5b505050506040513d6020811015612be457600080fd5b81019080805190602001909291905050509050612a17565b5b6000851415612c2a577fffffffffffffffffffffffffffffffffffffffffffffffffffffffffffffffff94505b5b600073ffffffffffffffffffffffffffffffffffffffff168173ffffffffffffffffffffffffffffffffffffffff1614158015612c6d57506000826000015114155b8015612c7a575060008514155b15612f83578480600190039550506000836080015173ffffffffffffffffffffffffffffffffffffffff1663b72703ac836040518263ffffffff1660e01b8152600401808273ffffffffffffffffffffffffffffffffffffffff1673ffffffffffffffffffffffffffffffffffffffff16815260200191505060206040518083038186803b158015612d0b57600080fd5b505afa158015612d1f573d6000803e3d6000fd5b505050506040513d6020811015612d3557600080fd5b81019080805190602001909291905050509050670f43fc2c04ee0000600660009054906101000a900473ffffffffffffffffffffffffffffffffffffffff1673ffffffffffffffffffffffffffffffffffffffff166315d02fe6846040518263ffffffff1660e01b8152600401808273ffffffffffffffffffffffffffffffffffffffff1673ffffffffffffffffffffffffffffffffffffffff16815260200191505060206040518083038186803b158015612df057600080fd5b505afa158015612e04573d6000803e3d6000fd5b505050506040513d6020811015612e1a57600080fd5b810190808051906020019092919050505010612f7a57600660009054906101000a900473ffffffffffffffffffffffffffffffffffffffff1673ffffffffffffffffffffffffffffffffffffffff16630b076557836040518263ffffffff1660e01b8152600401808273ffffffffffffffffffffffffffffffffffffffff1673ffffffffffffffffffffffffffffffffffffffff168152602001915050600060405180830381600087803b158015612ed157600080fd5b505af1158015612ee5573d6000803e3d6000fd5b50505050612ef1616b06565b612f03858486600001518d8d8d614804565b9050806040015115612f16575050612f83565b612f318160000151856020015161407c90919063ffffffff16565b846020018181525050612f4c84604001518260200151615803565b8460400181905250612f6f81600001518560000151613b7290919063ffffffff16565b846000018181525050505b80915050612c2b565b612f908260400151614129565b613002576040517f08c379a00000000000000000000000000000000000000000000000000000000081526004018080602001828103825260108152602001807f544d523a6e6f436f6c6c73447261776e0000000000000000000000000000000081525060200191505060405180910390fd5b61301482602001518360a00151614180565b506130228260200151614330565b82606001818152505061305083604001518561304b85606001518f61407c90919063ffffffff16565b6143e5565b61305e82606001518b614517565b6130978484606001518460600151866040015173ffffffffffffffffffffffffffffffffffffffff16614591909392919063ffffffff16565b7f7335fe3ff0d234203ba5c8aac0cb19ed9bc9651b015ffcbcca39e73531b32e8d8b83602001518460600151856040015160000151866040015160200151604051808681526020018581526020018481526020018060200180602001838103835285818151815260200191508051906020019060200280838360005b8381101561312e578082015181840152602081019050613113565b50505050905001838103825284818151815260200191508051906020019060200280838360005b83811015613170578082015181840152602081019050613155565b5050505090500197505050505050505060405180910390a1826040015173ffffffffffffffffffffffffffffffffffffffff16639dc29fac8584602001516040518363ffffffff1660e01b8152600401808373ffffffffffffffffffffffffffffffffffffffff1673ffffffffffffffffffffffffffffffffffffffff16815260200182815260200192505050600060405180830381600087803b15801561321757600080fd5b505af115801561322b573d6000803e3d6000fd5b50505050826000015173ffffffffffffffffffffffffffffffffffffffff1663eae6f90883602001516040518263ffffffff1660e01b815260040180828152602001915050600060405180830381600087803b15801561328a57600080fd5b505af115801561329e573d6000803e3d6000fd5b50505050826000015173ffffffffffffffffffffffffffffffffffffffff16633733a13330868560400151600001518660400151602001516040518563ffffffff1660e01b8152600401808573ffffffffffffffffffffffffffffffffffffffff1673ffffffffffffffffffffffffffffffffffffffff1681526020018473ffffffffffffffffffffffffffffffffffffffff1673ffffffffffffffffffffffffffffffffffffffff1681526020018060200180602001838103835285818151815260200191508051906020019060200280838360005b83811015613390578082015181840152602081019050613375565b50505050905001838103825284818151815260200191508051906020019060200280838360005b838110156133d25780820151818401526020810190506133b7565b505050509050019650505050505050600060405180830381600087803b1580156133fb57600080fd5b505af115801561340f573d6000803e3d6000fd5b505050505050505050505050505050565b6212750081565b60056103e8670de0b6b3a76400008161343c57fe5b040281565b600061347083613462670de0b6b3a764000085613bd590919063ffffffff16565b613c7890919063ffffffff16565b905060056103e8670de0b6b3a76400008161348757fe5b04028110156134fe576040517f08c379a000000000000000000000000000000000000000000000000000000000815260040180806020018281038252601b8152602001807f544d523a50617373656420696e206d617820666565203c302e3525000000000081525060200191505060405180910390fd5b670de0b6b3a764000081111561357c576040517f08c379a000000000000000000000000000000000000000000000000000000000815260040180806020018281038252601b8152602001807f544d523a50617373656420696e206d617820666565203e31303025000000000081525060200191505060405180910390fd5b505050565b6000600860009054906101000a900473ffffffffffffffffffffffffffffffffffffffff1673ffffffffffffffffffffffffffffffffffffffff16633c84b7c26040518163ffffffff1660e01b815260040160206040518083038186803b1580156135eb57600080fd5b505afa1580156135ff573d6000803e3d6000fd5b505050506040513d602081101561361557600080fd5b810190808051906020019092919050505090506212750081014210156136a3576040517f08c379a00000000000000000000000000000000000000000000000000000000081526004018080602001828103825260208152602001807f544d523a4e6f526564656d7074696f6e73447572696e67426f6f74737472617081525060200191505060405180910390fd5b50565b670f43fc2c04ee00006136b7615eaf565b101561372b576040517f08c379a000000000000000000000000000000000000000000000000000000000815260040180806020018281038252601f8152602001807f544d523a2043616e6e6f742072656465656d207768656e205443523c4d43520081525060200191505060405180910390fd5b565b60008114156137a4576040517f08c379a00000000000000000000000000000000000000000000000000000000081526004018080602001828103825260148152602001807f544d523a5265714e6f6e7a65726f416d6f756e7400000000000000000000000081525060200191505060405180910390fd5b50565b60008073ffffffffffffffffffffffffffffffffffffffff168273ffffffffffffffffffffffffffffffffffffffff16148061389857508273ffffffffffffffffffffffffffffffffffffffff16635dbe47e8836040518263ffffffff1660e01b8152600401808273ffffffffffffffffffffffffffffffffffffffff1673ffffffffffffffffffffffffffffffffffffffff16815260200191505060206040518083038186803b15801561385b57600080fd5b505afa15801561386f573d6000803e3d6000fd5b505050506040513d602081101561388557600080fd5b8101908080519060200190929190505050155b806139835750670f43fc2c04ee0000600660009054906101000a900473ffffffffffffffffffffffffffffffffffffffff1673ffffffffffffffffffffffffffffffffffffffff166315d02fe6846040518263ffffffff1660e01b8152600401808273ffffffffffffffffffffffffffffffffffffffff1673ffffffffffffffffffffffffffffffffffffffff16815260200191505060206040518083038186803b15801561394657600080fd5b505afa15801561395a573d6000803e3d6000fd5b505050506040513d602081101561397057600080fd5b8101908080519060200190929190505050105b156139915760009050613b6c565b60008373ffffffffffffffffffffffffffffffffffffffff1663765e0159846040518263ffffffff1660e01b8152600401808273ffffffffffffffffffffffffffffffffffffffff1673ffffffffffffffffffffffffffffffffffffffff16815260200191505060206040518083038186803b158015613a1057600080fd5b505afa158015613a24573d6000803e3d6000fd5b505050506040513d6020811015613a3a57600080fd5b81019080805190602001909291905050509050600073ffffffffffffffffffffffffffffffffffffffff168173ffffffffffffffffffffffffffffffffffffffff161480613b685750670f43fc2c04ee0000600660009054906101000a900473ffffffffffffffffffffffffffffffffffffffff1673ffffffffffffffffffffffffffffffffffffffff166327fb7d89836040518263ffffffff1660e01b8152600401808273ffffffffffffffffffffffffffffffffffffffff1673ffffffffffffffffffffffffffffffffffffffff16815260200191505060206040518083038186803b158015613b2b57600080fd5b505afa158015613b3f573d6000803e3d6000fd5b505050506040513d6020811015613b5557600080fd5b8101908080519060200190929190505050105b9150505b92915050565b6000613bb483836040518060400160405280600c81526020017f737562206f766572666c6f770000000000000000000000000000000000000000815250615f7e565b905092915050565b6000818310613bcb5781613bcd565b825b905092915050565b600080831415613be85760009050613c72565b6000828402905082848281613bf957fe5b0414613c6d576040517f08c379a000000000000000000000000000000000000000000000000000000000815260040180806020018281038252600c8152602001807f6d756c206f766572666c6f77000000000000000000000000000000000000000081525060200191505060405180910390fd5b809150505b92915050565b6000613cba83836040518060400160405280600881526020017f646976206279203000000000000000000000000000000000000000000000000081525061603e565b905092915050565b846040015173ffffffffffffffffffffffffffffffffffffffff16639dc29fac600b60009054906101000a900473ffffffffffffffffffffffffffffffffffffffff16856040518363ffffffff1660e01b8152600401808373ffffffffffffffffffffffffffffffffffffffff1673ffffffffffffffffffffffffffffffffffffffff16815260200182815260200192505050600060405180830381600087803b158015613d6f57600080fd5b505af1158015613d83573d6000803e3d6000fd5b50505050846000015173ffffffffffffffffffffffffffffffffffffffff1663eae6f908846040518263ffffffff1660e01b815260040180828152602001915050600060405180830381600087803b158015613dde57600080fd5b505af1158015613df2573d6000803e3d6000fd5b505050508460a0015173ffffffffffffffffffffffffffffffffffffffff16639efc9e208584846040518463ffffffff1660e01b8152600401808473ffffffffffffffffffffffffffffffffffffffff1673ffffffffffffffffffffffffffffffffffffffff1681526020018060200180602001838103835285818151815260200191508051906020019060200280838360005b83811015613ea1578082015181840152602081019050613e86565b50505050905001838103825284818151815260200191508051906020019060200280838360005b83811015613ee3578082015181840152602081019050613ec8565b5050505090500195505050505050600060405180830381600087803b158015613f0b57600080fd5b505af1158015613f1f573d6000803e3d6000fd5b50505050846000015173ffffffffffffffffffffffffffffffffffffffff1663d0d8c20d8660a0015184846040518463ffffffff1660e01b8152600401808473ffffffffffffffffffffffffffffffffffffffff1673ffffffffffffffffffffffffffffffffffffffff1681526020018060200180602001838103835285818151815260200191508051906020019060200280838360005b83811015613fd2578082015181840152602081019050613fb7565b50505050905001838103825284818151815260200191508051906020019060200280838360005b83811015614014578082015181840152602081019050613ff9565b5050505090500195505050505050600060405180830381600087803b15801561403c57600080fd5b505af1158015614050573d6000803e3d6000fd5b505050505050505050565b60008061406784616105565b9050614073818461624d565b91505092915050565b6000808284019050838110156140fa576040517f08c379a000000000000000000000000000000000000000000000000000000000815260040180806020018281038252600c8152602001807f616464206f766572666c6f77000000000000000000000000000000000000000081525060200191505060405180910390fd5b8091505092915050565b60006141226802b5e3af16b188000083613b7290919063ffffffff16565b9050919050565b600080826020015151905060005b818110156141745760008460200151828151811061415157fe5b6020026020010151146141695760019250505061417b565b806001019050614137565b5060009150505b919050565b600080600660009054906101000a900473ffffffffffffffffffffffffffffffffffffffff1673ffffffffffffffffffffffffffffffffffffffff1663459799786040518163ffffffff1660e01b815260040160206040518083038186803b1580156141eb57600080fd5b505afa1580156141ff573d6000803e3d6000fd5b505050506040513d602081101561421557600080fd5b81019080805190602001909291905050509050600061425784614249670de0b6b3a764000088613bd590919063ffffffff16565b613c7890919063ffffffff16565b90506000614281614272600284613c7890919063ffffffff16565b8461407c90919063ffffffff16565b905061429581670de0b6b3a7640000613bbc565b9050600660009054906101000a900473ffffffffffffffffffffffffffffffffffffffff1673ffffffffffffffffffffffffffffffffffffffff1663330283aa826040518263ffffffff1660e01b815260040180828152602001915050600060405180830381600087803b15801561430c57600080fd5b505af1158015614320573d6000803e3d6000fd5b5050505080935050505092915050565b60006143de600660009054906101000a900473ffffffffffffffffffffffffffffffffffffffff1673ffffffffffffffffffffffffffffffffffffffff16632b11551a6040518163ffffffff1660e01b815260040160206040518083038186803b15801561439d57600080fd5b505afa1580156143b1573d6000803e3d6000fd5b505050506040513d60208110156143c757600080fd5b8101908080519060200190929190505050836162ba565b9050919050565b808373ffffffffffffffffffffffffffffffffffffffff166370a08231846040518263ffffffff1660e01b8152600401808273ffffffffffffffffffffffffffffffffffffffff1673ffffffffffffffffffffffffffffffffffffffff16815260200191505060206040518083038186803b15801561446357600080fd5b505afa158015614477573d6000803e3d6000fd5b505050506040513d602081101561448d57600080fd5b81019080805190602001909291905050501015614512576040517f08c379a000000000000000000000000000000000000000000000000000000000815260040180806020018281038252601b8152602001807f544d523a496e73756666696369656e745355534442616c616e6365000000000081525060200191505060405180910390fd5b505050565b8082111561458d576040517f08c379a00000000000000000000000000000000000000000000000000000000081526004018080602001828103825260188152602001807f544d523a55736572206d7573742061636365707420666565000000000000000081525060200191505060405180910390fd5b5050565b614678846323b872dd60e01b858585604051602401808473ffffffffffffffffffffffffffffffffffffffff1673ffffffffffffffffffffffffffffffffffffffff1681526020018373ffffffffffffffffffffffffffffffffffffffff1673ffffffffffffffffffffffffffffffffffffffff1681526020018281526020019350505050604051602081830303815290604052907bffffffffffffffffffffffffffffffffffffffffffffffffffffffff19166020820180517bffffffffffffffffffffffffffffffffffffffffffffffffffffffff838183161783525050505061636b565b50505050565b600073ffffffffffffffffffffffffffffffffffffffff16600360009054906101000a900473ffffffffffffffffffffffffffffffffffffffff1673ffffffffffffffffffffffffffffffffffffffff167f8be0079c531659141344cd1fd0a4f28419497f9722a3daafe3b4186f6b6457e060405160405180910390a36000600360006101000a81548173ffffffffffffffffffffffffffffffffffffffff021916908373ffffffffffffffffffffffffffffffffffffffff160217905550565b600660009054906101000a900473ffffffffffffffffffffffffffffffffffffffff1673ffffffffffffffffffffffffffffffffffffffff163373ffffffffffffffffffffffffffffffffffffffff1614614802576040517f08c379a00000000000000000000000000000000000000000000000000000000081526004018080602001828103825260118152602001807f544d523a43616c6c6572206e6f7420544d00000000000000000000000000000081525060200191505060405180910390fd5b565b61480c616b06565b61490a856149056802b5e3af16b1880000600660009054906101000a900473ffffffffffffffffffffffffffffffffffffffff1673ffffffffffffffffffffffffffffffffffffffff1663d66a25538b6040518263ffffffff1660e01b8152600401808273ffffffffffffffffffffffffffffffffffffffff1673ffffffffffffffffffffffffffffffffffffffff16815260200191505060206040518083038186803b1580156148bc57600080fd5b505afa1580156148d0573d6000803e3d6000fd5b505050506040513d60208110156148e657600080fd5b8101908080519060200190929190505050613b7290919063ffffffff16565b613bbc565b81600001818152505061491b616b2f565b6000600660009054906101000a900473ffffffffffffffffffffffffffffffffffffffff1673ffffffffffffffffffffffffffffffffffffffff166335a058b4896040518263ffffffff1660e01b8152600401808273ffffffffffffffffffffffffffffffffffffffff1673ffffffffffffffffffffffffffffffffffffffff16815260200191505060006040518083038186803b1580156149bc57600080fd5b505afa1580156149d0573d6000803e3d6000fd5b505050506040513d6000823e3d601f19601f8201168201806040525060608110156149fa57600080fd5b8101908080516040519392919084640100000000821115614a1a57600080fd5b83820191506020820185811115614a3057600080fd5b8251866020820283011164010000000082111715614a4d57600080fd5b8083526020830192505050908051906020019060200280838360005b83811015614a84578082015181840152602081019050614a69565b5050505090500160405260200180516040519392919084640100000000821115614aad57600080fd5b83820191506020820185811115614ac357600080fd5b8251866020820283011164010000000082111715614ae057600080fd5b8083526020830192505050908051906020019060200280838360005b83811015614b17578082015181840152602081019050614afc565b505050509050016040526020018051906020019092919050505084600001856020018295508390528390525050506000826000015151905060608167ffffffffffffffff81118015614b6857600080fd5b50604051908082528060200260200182016040528015614b975781602001602082028036833780820191505090505b50905083600001518560200151600001819052508167ffffffffffffffff81118015614bc257600080fd5b50604051908082528060200260200182016040528015614bf15781602001602082028036833780820191505090505b508560200151602001819052506000614c0985616459565b90506000614c2c670de0b6b3a76400008860000151613bd590919063ffffffff16565b905060005b84811015614ee2576000614c91670de0b6b3a7640000614c8386614c758c602001518781518110614c5e57fe5b602002602001015188613bd590919063ffffffff16565b613c7890919063ffffffff16565b613c7890919063ffffffff16565b9050614cbd8189602001518481518110614ca757fe5b6020026020010151613b7290919063ffffffff16565b858381518110614cc957fe5b602002602001018181525050808960200151602001518381518110614cea57fe5b6020026020010181815250506000809054906101000a900473ffffffffffffffffffffffffffffffffffffffff1673ffffffffffffffffffffffffffffffffffffffff1663495ee13e89600001518481518110614d4357fe5b60200260200101516040518263ffffffff1660e01b8152600401808273ffffffffffffffffffffffffffffffffffffffff1673ffffffffffffffffffffffffffffffffffffffff16815260200191505060206040518083038186803b158015614dab57600080fd5b505afa158015614dbf573d6000803e3d6000fd5b505050506040513d6020811015614dd557600080fd5b810190808051906020019092919050505015614ed65787600001518281518110614dfb57fe5b602002602001015173ffffffffffffffffffffffffffffffffffffffff16632c8e8dfa8f30846040518463ffffffff1660e01b8152600401808473ffffffffffffffffffffffffffffffffffffffff1673ffffffffffffffffffffffffffffffffffffffff1681526020018373ffffffffffffffffffffffffffffffffffffffff1673ffffffffffffffffffffffffffffffffffffffff1681526020018281526020019350505050600060405180830381600087803b158015614ebd57600080fd5b505af1158015614ed1573d6000803e3d6000fd5b505050505b50806001019050614c31565b5050506000614efe866000015185613b7290919063ffffffff16565b90506802b5e3af16b188000081141561523457600660009054906101000a900473ffffffffffffffffffffffffffffffffffffffff1673ffffffffffffffffffffffffffffffffffffffff1663c550c3628c6040518263ffffffff1660e01b8152600401808273ffffffffffffffffffffffffffffffffffffffff1673ffffffffffffffffffffffffffffffffffffffff168152602001915050600060405180830381600087803b158015614fb257600080fd5b505af1158015614fc6573d6000803e3d6000fd5b50505050600660009054906101000a900473ffffffffffffffffffffffffffffffffffffffff1673ffffffffffffffffffffffffffffffffffffffff1663bd5ef3f98c6040518263ffffffff1660e01b8152600401808273ffffffffffffffffffffffffffffffffffffffff1673ffffffffffffffffffffffffffffffffffffffff168152602001915050600060405180830381600087803b15801561506b57600080fd5b505af115801561507f573d6000803e3d6000fd5b5050505061509d8c8c6802b5e3af16b1880000886000015186613cc2565b6060600067ffffffffffffffff811180156150b757600080fd5b506040519080825280602002602001820160405280156150e65781602001602082028036833780820191505090505b5090506060600067ffffffffffffffff8111801561510357600080fd5b506040519080825280602002602001820160405280156151325781602001602082028036833780820191505090505b5090508c73ffffffffffffffffffffffffffffffffffffffff167f98c96bbf8d2aa6be678259387225d169084fca483ed9598bde8ea258036bcacf60008484600360405180858152602001806020018060200184600381111561519157fe5b60ff168152602001838103835286818151815260200191508051906020019060200280838360005b838110156151d45780820151818401526020810190506151b9565b50505050905001838103825285818151815260200191508051906020019060200280838360005b838110156152165780820151818401526020810190506151fb565b50505050905001965050505050505060405180910390a250506157f3565b600061524d6152478760000151856165a1565b8361624d565b905061526966470de4df8200008961407c90919063ffffffff16565b81101580615290575061528c66470de4df82000089613b7290919063ffffffff16565b8111155b806152ab575068056bc75e2d631000006152a983614104565b105b156152cf5760018760400190151590811515815250508696505050505050506157f9565b8c6080015173ffffffffffffffffffffffffffffffffffffffff16632be212608d838d8d6040518563ffffffff1660e01b8152600401808573ffffffffffffffffffffffffffffffffffffffff1673ffffffffffffffffffffffffffffffffffffffff1681526020018481526020018373ffffffffffffffffffffffffffffffffffffffff1673ffffffffffffffffffffffffffffffffffffffff1681526020018273ffffffffffffffffffffffffffffffffffffffff1673ffffffffffffffffffffffffffffffffffffffff168152602001945050505050600060405180830381600087803b1580156153c257600080fd5b505af11580156153d6573d6000803e3d6000fd5b50505050600660009054906101000a900473ffffffffffffffffffffffffffffffffffffffff1673ffffffffffffffffffffffffffffffffffffffff166331bafd9b8d846040518363ffffffff1660e01b8152600401808373ffffffffffffffffffffffffffffffffffffffff1673ffffffffffffffffffffffffffffffffffffffff16815260200182815260200192505050600060405180830381600087803b15801561548357600080fd5b505af1158015615497573d6000803e3d6000fd5b50505050856000015151935060005b848110156154e9578381815181106154ba57fe5b6020026020010151876020015182815181106154d257fe5b6020026020010181815250508060010190506154a6565b50600660009054906101000a900473ffffffffffffffffffffffffffffffffffffffff1673ffffffffffffffffffffffffffffffffffffffff16631843bf888d886000015189602001516040518463ffffffff1660e01b8152600401808473ffffffffffffffffffffffffffffffffffffffff1673ffffffffffffffffffffffffffffffffffffffff1681526020018060200180602001838103835285818151815260200191508051906020019060200280838360005b838110156155bb5780820151818401526020810190506155a0565b50505050905001838103825284818151815260200191508051906020019060200280838360005b838110156155fd5780820151818401526020810190506155e2565b5050505090500195505050505050600060405180830381600087803b15801561562557600080fd5b505af1158015615639573d6000803e3d6000fd5b50505050600660009054906101000a900473ffffffffffffffffffffffffffffffffffffffff1673ffffffffffffffffffffffffffffffffffffffff166318f2817a8d6040518263ffffffff1660e01b8152600401808273ffffffffffffffffffffffffffffffffffffffff1673ffffffffffffffffffffffffffffffffffffffff168152602001915050600060405180830381600087803b1580156156de57600080fd5b505af11580156156f2573d6000803e3d6000fd5b505050508b73ffffffffffffffffffffffffffffffffffffffff167f98c96bbf8d2aa6be678259387225d169084fca483ed9598bde8ea258036bcacf83886000015186600360405180858152602001806020018060200184600381111561575557fe5b60ff168152602001838103835286818151815260200191508051906020019060200280838360005b8381101561579857808201518184015260208101905061577d565b50505050905001838103825285818151815260200191508051906020019060200280838360005b838110156157da5780820151818401526020810190506157bf565b50505050905001965050505050505060405180910390a2505b50505050505b9695505050505050565b61580b616b2f565b6000826000015151905060008114156158275783915050615ea9565b61582f616b2f565b6000809054906101000a900473ffffffffffffffffffffffffffffffffffffffff1673ffffffffffffffffffffffffffffffffffffffff16639d6aea0a6040518163ffffffff1660e01b815260040160006040518083038186803b15801561589657600080fd5b505afa1580156158aa573d6000803e3d6000fd5b505050506040513d6000823e3d601f19601f8201168201806040525060208110156158d457600080fd5b81019080805160405193929190846401000000008211156158f457600080fd5b8382019150602082018581111561590a57600080fd5b825186602082028301116401000000008211171561592757600080fd5b8083526020830192505050908051906020019060200280838360005b8381101561595e578082015181840152602081019050615943565b50505050905001604052505050816000018190525060008560000151519050600082600001515190508067ffffffffffffffff8111801561599e57600080fd5b506040519080825280602002602001820160405280156159cd5781602001602082028036833780820191505090505b5083602001819052506000805b83811015615b3e5760008060009054906101000a900473ffffffffffffffffffffffffffffffffffffffff1673ffffffffffffffffffffffffffffffffffffffff1663b31610db8b600001518481518110615a3157fe5b60200260200101516040518263ffffffff1660e01b8152600401808273ffffffffffffffffffffffffffffffffffffffff1673ffffffffffffffffffffffffffffffffffffffff16815260200191505060206040518083038186803b158015615a9957600080fd5b505afa158015615aad573d6000803e3d6000fd5b505050506040513d6020811015615ac357600080fd5b8101908080519060200190929190505050905060008a602001518381518110615ae857fe5b602002602001015114615b3257828060010193505089602001518281518110615b0d57fe5b602002602001015186602001518281518110615b2557fe5b6020026020010181815250505b508060010190506159da565b5060005b85811015615d295760008060009054906101000a900473ffffffffffffffffffffffffffffffffffffffff1673ffffffffffffffffffffffffffffffffffffffff1663b31610db8a600001518481518110615b9957fe5b60200260200101516040518263ffffffff1660e01b8152600401808273ffffffffffffffffffffffffffffffffffffffff1673ffffffffffffffffffffffffffffffffffffffff16815260200191505060206040518083038186803b158015615c0157600080fd5b505afa158015615c15573d6000803e3d6000fd5b505050506040513d6020811015615c2b57600080fd5b81019080805190602001909291905050509050600089602001518381518110615c5057fe5b602002602001015114615d1d57600086602001518281518110615c6f57fe5b60200260200101511415615cbe5788602001518281518110615c8d57fe5b602002602001015186602001518281518110615ca557fe5b6020026020010181815250508280600101935050615d1c565b615cff89602001518381518110615cd157fe5b602002602001015187602001518381518110615ce957fe5b602002602001015161407c90919063ffffffff16565b86602001518281518110615d0f57fe5b6020026020010181815250505b5b50806001019050615b42565b5060608167ffffffffffffffff81118015615d4357600080fd5b50604051908082528060200260200182016040528015615d725781602001602082028036833780820191505090505b50905060608267ffffffffffffffff81118015615d8e57600080fd5b50604051908082528060200260200182016040528015615dbd5781602001602082028036833780820191505090505b5090506000805b85811015615e8d57600088602001518281518110615dde57fe5b602002602001015114615e825787600001518181518110615dfb57fe5b6020026020010151848381518110615e0f57fe5b602002602001019073ffffffffffffffffffffffffffffffffffffffff16908173ffffffffffffffffffffffffffffffffffffffff168152505087602001518181518110615e5957fe5b6020026020010151838381518110615e6d57fe5b60200260200101818152505081806001019250505b806001019050615dc4565b5082896000018190525081896020018190525050505050505050505b92915050565b600080600160009054906101000a900473ffffffffffffffffffffffffffffffffffffffff1673ffffffffffffffffffffffffffffffffffffffff1663a24214646040518163ffffffff1660e01b8152600401604080518083038186803b158015615f1957600080fd5b505afa158015615f2d573d6000803e3d6000fd5b505050506040513d6040811015615f4357600080fd5b8101908080519060200190929190805190602001909291905050509150506000615f6b612358565b9050615f77828261624d565b9250505090565b600083831115829061602b576040517f08c379a00000000000000000000000000000000000000000000000000000000081526004018080602001828103825283818151815260200191508051906020019080838360005b83811015615ff0578082015181840152602081019050615fd5565b50505050905090810190601f16801561601d5780820380516001836020036101000a031916815260200191505b509250505060405180910390fd5b5060008385039050809150509392505050565b60008083141582906160eb576040517f08c379a00000000000000000000000000000000000000000000000000000000081526004018080602001828103825283818151815260200191508051906020019080838360005b838110156160b0578082015181840152602081019050616095565b50505050905090810190601f1680156160dd5780820380516001836020036101000a031916815260200191505b509250505060405180910390fd5b5060008385816160f757fe5b049050809150509392505050565b60008060009054906101000a900473ffffffffffffffffffffffffffffffffffffffff1673ffffffffffffffffffffffffffffffffffffffff1663617ddfff836000015184602001516040518363ffffffff1660e01b8152600401808060200180602001838103835285818151815260200191508051906020019060200280838360005b838110156161a4578082015181840152602081019050616189565b50505050905001838103825284818151815260200191508051906020019060200280838360005b838110156161e65780820151818401526020810190506161cb565b5050505090500194505050505060206040518083038186803b15801561620b57600080fd5b505afa15801561621f573d6000803e3d6000fd5b505050506040513d602081101561623557600080fd5b81019080805190602001909291905050509050919050565b600080821461629057600061628583616277670de0b6b3a764000087613bd590919063ffffffff16565b613c7890919063ffffffff16565b9050809150506162b4565b7fffffffffffffffffffffffffffffffffffffffffffffffffffffffffffffffff90505b92915050565b6000806162ea670de0b6b3a76400006162dc8587613bd590919063ffffffff16565b613c7890919063ffffffff16565b9050828110616361576040517f08c379a00000000000000000000000000000000000000000000000000000000081526004018080602001828103825260178152602001807f544d3a20466565203e20535553442052656465656d656400000000000000000081525060200191505060405180910390fd5b8091505092915050565b60606163cd826040518060400160405280602081526020017f5361666545524332303a206c6f772d6c6576656c2063616c6c206661696c65648152508573ffffffffffffffffffffffffffffffffffffffff166166e29092919063ffffffff16565b90506000815114616454578080602001905160208110156163ed57600080fd5b8101908080519060200190929190505050616453576040517f08c379a000000000000000000000000000000000000000000000000000000000815260040180806020018281038252602a815260200180616b91602a913960400191505060405180910390fd5b5b505050565b60008060009054906101000a900473ffffffffffffffffffffffffffffffffffffffff1673ffffffffffffffffffffffffffffffffffffffff16633b1c2906836000015184602001516040518363ffffffff1660e01b8152600401808060200180602001838103835285818151815260200191508051906020019060200280838360005b838110156164f85780820151818401526020810190506164dd565b50505050905001838103825284818151815260200191508051906020019060200280838360005b8381101561653a57808201518184015260208101905061651f565b5050505090500194505050505060206040518083038186803b15801561655f57600080fd5b505afa158015616573573d6000803e3d6000fd5b505050506040513d602081101561658957600080fd5b81019080805190602001909291905050509050919050565b60008060009054906101000a900473ffffffffffffffffffffffffffffffffffffffff1673ffffffffffffffffffffffffffffffffffffffff1663617ddfff84846040518363ffffffff1660e01b8152600401808060200180602001838103835285818151815260200191508051906020019060200280838360005b8381101561663857808201518184015260208101905061661d565b50505050905001838103825284818151815260200191508051906020019060200280838360005b8381101561667a57808201518184015260208101905061665f565b5050505090500194505050505060206040518083038186803b15801561669f57600080fd5b505afa1580156166b3573d6000803e3d6000fd5b505050506040513d60208110156166c957600080fd5b8101908080519060200190929190505050905092915050565b60606166f184846000856166fa565b90509392505050565b606082471015616755576040517f08c379a0000000000000000000000000000000000000000000000000000000008152600401808060200182810382526026815260200180616b4a6026913960400191505060405180910390fd5b61675e856168a3565b6167d0576040517f08c379a000000000000000000000000000000000000000000000000000000000815260040180806020018281038252601d8152602001807f416464726573733a2063616c6c20746f206e6f6e2d636f6e747261637400000081525060200191505060405180910390fd5b600060608673ffffffffffffffffffffffffffffffffffffffff1685876040518082805190602001908083835b6020831061682057805182526020820191506020810190506020830392506167fd565b6001836020036101000a03801982511681845116808217855250505050505090500191505060006040518083038185875af1925050503d8060008114616882576040519150601f19603f3d011682016040523d82523d6000602084013e616887565b606091505b50915091506168978282866168b7565b92505050949350505050565b600080823b90506000811415915050919050565b606083156168c75782905061697b565b60008351146168d95782518084602001fd5b816040517f08c379a00000000000000000000000000000000000000000000000000000000081526004018080602001828103825283818151815260200191508051906020019080838360005b83811015616940578082015181840152602081019050616925565b50505050905090810190601f16801561696d5780820380516001836020036101000a031916815260200191505b509250505060405180910390fd5b9392505050565b6040518060e00160405280600073ffffffffffffffffffffffffffffffffffffffff168152602001600073ffffffffffffffffffffffffffffffffffffffff168152602001600073ffffffffffffffffffffffffffffffffffffffff168152602001600073ffffffffffffffffffffffffffffffffffffffff168152602001600073ffffffffffffffffffffffffffffffffffffffff168152602001600073ffffffffffffffffffffffffffffffffffffffff168152602001600073ffffffffffffffffffffffffffffffffffffffff1681525090565b6040518060e001604052806000815260200160008152602001616a7a616b2f565b8152602001600081526020016000815260200160008152602001600081525090565b6040518060800160405280600073ffffffffffffffffffffffffffffffffffffffff168152602001600073ffffffffffffffffffffffffffffffffffffffff168152602001600073ffffffffffffffffffffffffffffffffffffffff168152602001600081525090565b604051806060016040528060008152602001616b20616b2f565b81526020016000151581525090565b60405180604001604052806060815260200160608152509056fe416464726573733a20696e73756666696369656e742062616c616e636520666f722063616c6c544d523a496e76616c696420666972737420726564656d7074696f6e2068696e745361666545524332303a204552433230206f7065726174696f6e20646964206e6f742073756363656564496e76616c6964207061727469616c20726564656d7074696f6e2068696e74206f722072656d61696e696e67206465627420697320746f6f206c6f77a2646970667358221220eb2ff25e9608cc90ed6647d53298b80e785d4cd3203ce03278eb45c802ec5d9b64736f6c634300060b0033",
  "immutableReferences": {},
  "source": "// SPDX-License-Identifier: UNLICENSED\n\npragma solidity 0.6.11;\n\nimport \"../Interfaces/IWAsset.sol\";\nimport \"../Dependencies/TroveManagerBase.sol\";\nimport \"../Dependencies/SafeERC20.sol\";\n\n/** \n * TroveManagerRedemptions is derived from TroveManager and handles all redemption activity of troves. \n * Instead of calculating redemption fees in ETH like Liquity used to, we now calculate it as a portion \n * of YUSD passed in to redeem. The YUSDAmount is still how much we would like to redeem, but the \n * YUSDFee is now the maximum amount of YUSD extra that will be paid and must be in the balance of the \n * redeemer for the redemption to succeed. This fee is the same as before in terms of percentage of value, \n * but now it is in terms of YUSD. We now use a helper function to be able to estimate how much YUSD will \n * be actually needed to perform a redemption of a certain amount, and also given an amount of YUSD balance,\n * the max amount of YUSD that can be used for a redemption, and a max fee such that it will always go through. \n * \n * Given a balance of YUSD, Z, the amount that can actually be redeemed is : \n * Y = YUSD you can actually redeem\n * BR = decayed base rate \n * X = YUSD Fee\n * S = Total YUSD Supply\n * The redemption fee rate is = (Y / S * 1 / BETA + BR + 0.5%)\n * This is because the new base rate = BR + Y / S * 1 / BETA\n * We pass in X + Y = Z, and want to find X and Y. \n * Y is calculated to be = S * (sqrt((1.005 + BR)**2 + BETA * Z / S) - 1.005 - BR)\n * through the quadratic formula, and X = Z - Y. \n * Therefore the amount we can actually redeem given Z is Y, and the max fee is X. \n * \n * To find how much the fee is given Y, we can multiply Y by the new base rate, which is BR + Y / S * 1 / BETA. \n * \n * To the redemption function, we pass in Y and X. \n */\n\ncontract TroveManagerRedemptions is TroveManagerBase, ITroveManagerRedemptions {\n    bytes32 constant public NAME = \"TroveManagerRedemptions\";\n\n    using SafeERC20 for ISUSDToken;\n\n\n    address internal borrowerOperationsAddress;\n\n    IStabilityPool internal stabilityPoolContract;\n\n    ITroveManager internal troveManager;\n\n    ISUSDToken internal susdTokenContract;\n\n    ISTBToken internal stbTokenContract;\n\n    ISSTB internal sSTBContract;\n\n    ITroveManagerRedemptions internal troveManagerRedemptions;\n\n    address internal gasPoolAddress;\n\n    ISortedTroves internal sortedTroves;\n\n    ICollSurplusPool internal collSurplusPool;\n\n    struct RedemptionTotals {\n        uint256 remainingSUSD;\n        uint256 totalSUSDToRedeem;\n        newColls CollsDrawn;\n        uint256 SUSDfee;\n        uint256 decayedBaseRate;\n        uint256 totalSUSDSupplyAtStart;\n        uint256 maxSUSDFeeAmount;\n    }\n    struct Hints {\n        address upper;\n        address lower;\n        address target;\n        uint256 ricr;\n    }\n\n    /*\n     * BETA: 18 digit decimal. Parameter by which to divide the redeemed fraction, in order to calc the new base rate from a redemption.\n     * Corresponds to (1 / ALPHA) in the white paper.\n     */\n    uint256 public constant BETA = 2;\n\n    uint256 public constant BOOTSTRAP_PERIOD = 14 days;\n\n    event Redemption(\n        uint256 _attemptedSUSDAmount,\n        uint256 _actualSUSDAmount,\n        uint256 SUSDfee,\n        address[] tokens,\n        uint256[] amounts\n    );\n\n    function setAddresses(\n        address _borrowerOperationsAddress,\n        address _activePoolAddress,\n        address _defaultPoolAddress,\n        address _stabilityPoolAddress,\n        address _gasPoolAddress,\n        address _collSurplusPoolAddress,\n        address _susdTokenAddress,\n        address _sortedTrovesAddress,\n        address _stbTokenAddress,\n        address _sSTBAddress,\n        address _whitelistAddress,\n        address _troveManagerAddress\n    ) external onlyOwner {\n\n        borrowerOperationsAddress = _borrowerOperationsAddress;\n        activePool = IActivePool(_activePoolAddress);\n        defaultPool = IDefaultPool(_defaultPoolAddress);\n        stabilityPoolContract = IStabilityPool(_stabilityPoolAddress);\n        whitelist = IWhitelist(_whitelistAddress);\n        gasPoolAddress = _gasPoolAddress;\n        collSurplusPool = ICollSurplusPool(_collSurplusPoolAddress);\n        susdTokenContract = ISUSDToken(_susdTokenAddress);\n        sortedTroves = ISortedTroves(_sortedTrovesAddress);\n        stbTokenContract = ISTBToken(_stbTokenAddress);\n        sSTBContract = ISSTB(_sSTBAddress);\n        troveManager = ITroveManager(_troveManagerAddress);\n\n        _renounceOwnership();\n    }\n\n    /** \n     * Main function for redeeming collateral. See above for how YUSDMaxFee is calculated.\n     * @param _SUSDamount is equal to the amount of YUSD to actually redeem. \n     * @param _SUSDMaxFee is equal to the max fee in YUSD that the sender is willing to pay\n     * _YUSDamount + _YUSDMaxFee must be less than the balance of the sender.\n     */\n    function redeemCollateral(\n        uint256 _SUSDamount,\n        uint256 _SUSDMaxFee,\n        address _firstRedemptionHint,\n        address _upperPartialRedemptionHint,\n        address _lowerPartialRedemptionHint,\n        uint256 _partialRedemptionHintICR,\n        uint256 _maxIterations,\n        address _redeemer\n    ) external override {\n        _requireCallerisTroveManager();\n        ContractsCache memory contractsCache = ContractsCache(\n            activePool,\n            defaultPool,\n            susdTokenContract,\n            sSTBContract,\n            sortedTroves,\n            collSurplusPool,\n            gasPoolAddress\n        );\n        RedemptionTotals memory totals;\n\n        _requireValidMaxFee(_SUSDamount, _SUSDMaxFee);\n        _requireAfterBootstrapPeriod();\n        _requireTCRoverMCR();\n        _requireAmountGreaterThanZero(_SUSDamount);\n\n        totals.totalSUSDSupplyAtStart = getEntireSystemDebt();\n\n        // Confirm redeemer's balance is less than total YUSD supply\n        require(contractsCache.susdToken.balanceOf(_redeemer) <= totals.totalSUSDSupplyAtStart, \"TMR: redeemer balance too high\");\n\n        totals.remainingSUSD = _SUSDamount;\n        address currentBorrower;\n        if (_isValidFirstRedemptionHint(contractsCache.sortedTroves, _firstRedemptionHint)) {\n            currentBorrower = _firstRedemptionHint;\n        } else {\n            currentBorrower = contractsCache.sortedTroves.getLast();\n            // Find the first trove with ICR >= MCR\n            while (\n                currentBorrower != address(0) && troveManager.getCurrentRICR(currentBorrower) < MCR \n            ) {\n                currentBorrower = contractsCache.sortedTroves.getPrev(currentBorrower);\n            }\n        }\n        // Loop through the Troves starting from the one with lowest collateral ratio until _amount of YUSD is exchanged for collateral\n        if (_maxIterations == 0) {\n            _maxIterations = uint256(-1);\n        }\n        while (currentBorrower != address(0) && totals.remainingSUSD != 0 && _maxIterations != 0) {\n            _maxIterations--;\n            // Save the address of the Trove preceding the current one, before potentially modifying the list\n            address nextUserToCheck = contractsCache.sortedTroves.getPrev(currentBorrower);\n\n            if (troveManager.getCurrentRICR(currentBorrower) >= MCR) { \n                troveManager.applyPendingRewards(currentBorrower);\n\n                SingleRedemptionValues memory singleRedemption = _redeemCollateralFromTrove(\n                    contractsCache,\n                    currentBorrower,\n                    totals.remainingSUSD,\n                    _upperPartialRedemptionHint,\n                    _lowerPartialRedemptionHint,\n                    _partialRedemptionHintICR\n                );\n\n                if (singleRedemption.cancelledPartial) break; // Partial redemption was cancelled (out-of-date hint, or new net debt < minimum), therefore we could not redeem from the last Trove\n\n                totals.totalSUSDToRedeem = totals.totalSUSDToRedeem.add(singleRedemption.SUSDLot); \n\n                totals.CollsDrawn = _sumColls(totals.CollsDrawn, singleRedemption.CollLot);\n                totals.remainingSUSD = totals.remainingSUSD.sub(singleRedemption.SUSDLot);\n            }\n\n            currentBorrower = nextUserToCheck;\n        }\n\n        require(isNonzero(totals.CollsDrawn), \"TMR:noCollsDrawn\");\n        // Decay the baseRate due to time passed, and then increase it according to the size of this redemption.\n        // Use the saved total YUSD supply value, from before it was reduced by the redemption.\n        _updateBaseRateFromRedemption(totals.totalSUSDToRedeem, totals.totalSUSDSupplyAtStart);\n\n        totals.SUSDfee = _getRedemptionFee(totals.totalSUSDToRedeem);\n        // check user has enough YUSD to pay fee and redemptions\n        _requireSUSDBalanceCoversRedemption(\n            contractsCache.susdToken,\n            _redeemer,\n            _SUSDamount.add(totals.SUSDfee)\n        );\n\n        // check to see that the fee doesn't exceed the max fee\n        _requireUserAcceptsFeeRedemption(totals.SUSDfee, _SUSDMaxFee);\n\n        // send fee from user to YETI stakers\n        contractsCache.susdToken.safeTransferFrom(\n            _redeemer,\n            address(contractsCache.sSTB),\n            totals.SUSDfee\n        );\n\n        emit Redemption(\n            _SUSDamount,\n            totals.totalSUSDToRedeem,\n            totals.SUSDfee,\n            totals.CollsDrawn.tokens,\n            totals.CollsDrawn.amounts\n        );\n        // Burn the total YUSD that is cancelled with debt\n        contractsCache.susdToken.burn(_redeemer, totals.totalSUSDToRedeem);\n        // Update Active Pool YUSD, and send Collaterals to account\n        contractsCache.activePool.decreaseSUSDDebt(totals.totalSUSDToRedeem);\n\n        contractsCache.activePool.sendCollateralsUnwrap(\n            address(this), // This contract accumulates rewards for all the wrapped assets short term.\n            _redeemer,\n            totals.CollsDrawn.tokens,\n            totals.CollsDrawn.amounts\n        );\n    }\n\n    /** \n     * Secondary function for redeeming collateral. See above for how YUSDMaxFee is calculated.\n     * @param _SUSDamount is equal to the amount of YUSD to actually redeem. \n     * @param _SUSDMaxFee is equal to the max fee in YUSD that the sender is willing to pay\n     * _YUSDamount + _YUSDMaxFee must be less than the balance of the sender.\n     */\n    function redeemCollateralSingle(\n        uint256 _SUSDamount,\n        uint256 _SUSDMaxFee,\n        address _firstRedemptionHint,\n        address _upperPartialRedemptionHint,\n        address _lowerPartialRedemptionHint,\n        uint256 _partialRedemptionHintRICR,\n        address _collToRedeem\n    ) external {\n        // _requireCallerisTroveManager(); todo \n        ContractsCache memory contractsCache = ContractsCache(\n            activePool,\n            defaultPool,\n            susdTokenContract,\n            sSTBContract,\n            sortedTroves,\n            collSurplusPool,\n            gasPoolAddress\n        );\n        RedemptionTotals memory totals;\n        Hints memory hints;\n\n        hints.target = _firstRedemptionHint;\n        hints.ricr = _partialRedemptionHintRICR; \n        hints.upper = _upperPartialRedemptionHint;\n        hints.lower = _lowerPartialRedemptionHint;\n        \n        _requireValidMaxFee(_SUSDamount, _SUSDMaxFee);\n        _requireAfterBootstrapPeriod();\n        _requireTCRoverMCR(); // todo recalculates system debt, could save a calculation\n        _requireAmountGreaterThanZero(_SUSDamount);\n        // address _redeemer = msg.sender;\n        totals.totalSUSDSupplyAtStart = getEntireSystemDebt();\n\n        // Confirm redeemer's balance is less than total YUSD supply\n        require(contractsCache.susdToken.balanceOf(msg.sender) <= totals.totalSUSDSupplyAtStart, \"TMR:Redeemer SUSD Bal too high\");\n\n        totals.remainingSUSD = _SUSDamount;\n        require(_isValidFirstRedemptionHint(contractsCache.sortedTroves, hints.target), \"TMR:Invalid first redemption hint\");\n        troveManager.applyPendingRewards(hints.target);\n\n        // Stitched in _redeemCollateralFromTrove\n        /////////////////////////////////////////////////////////////////////////////////////////////////////////////////////////\n\n        SingleRedemptionValues memory singleRedemption;\n        // Determine the remaining amount (lot) to be redeemed, capped by the entire debt of the Trove minus the liquidation reserve\n        uint troveDebt = troveManager.getTroveDebt(hints.target);\n        singleRedemption.SUSDLot = LiquityMath._min(\n            totals.remainingSUSD,\n            troveDebt.sub(SUSD_GAS_COMPENSATION)\n        );\n\n        newColls memory colls;\n        (colls.tokens, colls.amounts, ) = troveManager.getCurrentTroveState(hints.target);\n\n        uint256 i; // i term will be used as the index of the collateral to redeem later too\n        uint256 tokensLen = colls.tokens.length;\n        {//Limit scope\n            //Make sure single collateral to redeem exists in trove\n            bool foundCollateral;\n            \n            for (i = 0; i < tokensLen; ++i) {\n                if (colls.tokens[i] == _collToRedeem) {\n                    foundCollateral = true;\n                    break;\n                }\n            }\n            require(foundCollateral, \"TMR:Coll not in trove\");\n        }\n\n        {// Limit scope\n            uint256 singleCollUSD = whitelist.getValueUSD(_collToRedeem, colls.amounts[i]); //Get usd value of only the collateral being redeemed\n            \n            //Cap redemption amount to the max amount of collateral that can be redeemed\n            singleRedemption.SUSDLot = LiquityMath._min(\n                singleCollUSD,\n                singleRedemption.SUSDLot\n            );\n            \n\n            // redemption addresses are the same as coll addresses for trove\n            // Calculation for how much collateral to send of each type. \n            singleRedemption.CollLot.tokens = colls.tokens;\n            singleRedemption.CollLot.amounts = new uint256[](tokensLen);\n            \n            uint tokenAmountToRedeem = singleRedemption.SUSDLot.mul(colls.amounts[i]).div(singleCollUSD);\n            colls.amounts[i] = colls.amounts[i].sub(tokenAmountToRedeem);\n            singleRedemption.CollLot.amounts[i] = tokenAmountToRedeem;\n        }\n\n        \n        // Decrease the debt and collateral of the current Trove according to the YUSD lot and corresponding Collateral to send\n        troveDebt = troveDebt.sub(singleRedemption.SUSDLot);\n        \n\n        if (troveDebt == SUSD_GAS_COMPENSATION) {\n            // No debt left in the Trove (except for the liquidation reserve), therefore the trove gets closed\n            troveManager.removeStakeTMR(hints.target);\n            troveManager.closeTroveRedemption(hints.target);\n            _redeemCloseTrove(\n                contractsCache,\n                hints.target,\n                SUSD_GAS_COMPENSATION,\n                colls.tokens,\n                colls.amounts\n            );\n\n            address[] memory emptyTokens = new address[](0);\n            uint256[] memory emptyAmounts = new uint256[](0);\n\n            emit TroveUpdated(\n                hints.target,\n                0,\n                emptyTokens,\n                emptyAmounts,\n                TroveManagerOperation.redeemCollateral\n            );\n        } else {\n            \n            uint256 newRICR = _getRICRColls(colls, troveDebt); \n\n            /*\n            * If the provided hint is too inaccurate of date, we bail since trying to reinsert without a good hint will almost\n            * certainly result in running out of gas. Arbitrary measures of this mean newRICR must be greater than hint RICR - 2%, \n            * and smaller than hint ICR + 2%.\n            *\n            * If the resultant net debt of the partial is less than the minimum, net debt we bail.\n            */\n            {//Stack scope\n                if (newRICR >= hints.ricr.add(2e16) ||\n                    newRICR <= hints.ricr.sub(2e16) || \n                    _getNetDebt(troveDebt) < MIN_NET_DEBT) {\n                    revert(\"Invalid partial redemption hint or remaining debt is too low\");\n                    // singleRedemption.cancelledPartial = true;\n                    // return singleRedemption;\n                }\n            \n                contractsCache.sortedTroves.reInsert(\n                    hints.target,\n                    newRICR, \n                    hints.upper,\n                    hints.lower\n                );\n            }\n            troveManager.updateTroveDebt(hints.target, troveDebt);\n            // for (uint256 k = 0; k < colls.tokens.length; k++) {\n            //     colls.amounts[k] = finalAmounts[k];\n            // }\n            troveManager.updateTroveCollTMR(hints.target, colls.tokens, colls.amounts);\n            troveManager.updateStakeAndTotalStakes(hints.target);\n\n            emit TroveUpdated(\n                hints.target,\n                troveDebt,\n                colls.tokens,\n                colls.amounts,\n                TroveManagerOperation.redeemCollateral\n            );\n        }\n    \n        //////////////////////////////////////////////////////////////////////////////////////////////////////////////////\n\n\n        totals.totalSUSDToRedeem = singleRedemption.SUSDLot; \n\n        totals.CollsDrawn = singleRedemption.CollLot;\n        // totals.remainingYUSD = totals.remainingYUSD.sub(singleRedemption.YUSDLot);\n\n        require(isNonzero(totals.CollsDrawn), \"TMR: non zero collsDrawn\");\n        // Decay the baseRate due to time passed, and then increase it according to the size of this redemption.\n        // Use the saved total YUSD supply value, from before it was reduced by the redemption.\n        _updateBaseRateFromRedemption(totals.totalSUSDToRedeem, totals.totalSUSDSupplyAtStart);\n\n        totals.SUSDfee = _getRedemptionFee(totals.totalSUSDToRedeem);\n        // check user has enough YUSD to pay fee and redemptions\n        _requireSUSDBalanceCoversRedemption(\n            contractsCache.susdToken,\n            msg.sender,\n            totals.remainingSUSD.add(totals.SUSDfee)\n        );\n\n        // check to see that the fee doesn't exceed the max fee\n        _requireUserAcceptsFeeRedemption(totals.SUSDfee, _SUSDMaxFee);\n\n        // send fee from user to YETI stakers\n        contractsCache.susdToken.safeTransferFrom( // todo \n            msg.sender,\n            address(contractsCache.sSTB),\n            totals.SUSDfee\n        );\n\n        emit Redemption(\n            totals.remainingSUSD,\n            totals.totalSUSDToRedeem,\n            totals.SUSDfee,\n            totals.CollsDrawn.tokens,\n            totals.CollsDrawn.amounts\n        );\n        // Burn the total YUSD that is cancelled with debt\n        contractsCache.susdToken.burn(msg.sender, totals.totalSUSDToRedeem);\n        // Update Active Pool YUSD, and send Collaterals to account\n        contractsCache.activePool.decreaseSUSDDebt(totals.totalSUSDToRedeem);\n\n        contractsCache.activePool.sendCollateralsUnwrap(\n            hints.target, // rewards from\n            msg.sender, // tokens to\n            totals.CollsDrawn.tokens,\n            totals.CollsDrawn.amounts\n        );\n    }\n\n    /** \n     * Redeem as much collateral as possible from _borrower's Trove in exchange for YUSD up to _maxYUSDamount\n     * Special calculation for determining how much collateral to send of each type to send. \n     * We want to redeem equivalent to the USD value instead of the VC value here, so we take the YUSD amount\n     * which we are redeeming from this trove, and calculate the ratios at which we would redeem a single \n     * collateral type compared to all others. \n     * For example if we are redeeming 10,000 from this trove, and it has collateral A with a safety ratio of 1, \n     * collateral B with safety ratio of 0.5. Let's say their price is each 1. The trove is composed of 10,000 A and \n     * 10,000 B, so we would redeem 5,000 A and 5,000 B, instead of 6,666 A and 3,333 B. To do calculate this we take \n     * the USD value of that collateral type, and divide it by the total USD value of all collateral types. The price \n     * actually cancels out here so we just do YUSD amount * token amount / total USD value, instead of\n     * YUSD amount * token value / total USD value / token price, since we are trying to find token amount.\n     */\n    function _redeemCollateralFromTrove(\n        ContractsCache memory _contractsCache,\n        address _borrower,\n        uint256 _maxSUSDAmount,\n        address _upperPartialRedemptionHint,\n        address _lowerPartialRedemptionHint,\n        uint256 _partialRedemptionHintRICR\n    ) internal returns (SingleRedemptionValues memory singleRedemption) {\n        // Determine the remaining amount (lot) to be redeemed, capped by the entire debt of the Trove minus the liquidation reserve\n        singleRedemption.SUSDLot = LiquityMath._min(\n            _maxSUSDAmount,\n            troveManager.getTroveDebt(_borrower).sub(SUSD_GAS_COMPENSATION)\n        );\n\n        newColls memory colls;\n        uint troveDebt;\n        (colls.tokens, colls.amounts, troveDebt) = troveManager.getCurrentTroveState(_borrower);\n\n        uint256 collsLen = colls.tokens.length;\n        uint256[] memory finalAmounts = new uint256[](collsLen);\n\n\n        // redemption addresses are the same as coll addresses for trove\n        // Calculation for how much collateral to send of each type. \n        singleRedemption.CollLot.tokens = colls.tokens;\n        singleRedemption.CollLot.amounts = new uint256[](collsLen);\n        { // limit scope\n\n            uint256 totalCollUSD = _getUSDColls(colls);\n            uint256 baseLot = singleRedemption.SUSDLot.mul(DECIMAL_PRECISION);\n            for (uint256 i; i < collsLen; ++i) {\n                uint tokenAmountToRedeem = baseLot.mul(colls.amounts[i]).div(totalCollUSD).div(1e18);\n                finalAmounts[i] = colls.amounts[i].sub(tokenAmountToRedeem);\n                singleRedemption.CollLot.amounts[i] = tokenAmountToRedeem;\n                // For wrapped assets, update the wrapped token reward to this contract temporarily \n                // to consolidate all trove's rewards. This is transferred all to the redeemer later. \n                if (whitelist.isWrapped(colls.tokens[i])) {\n                    IWAsset(colls.tokens[i]).updateReward(_borrower, address(this), tokenAmountToRedeem);\n                }\n            }\n        }\n\n        // Decrease the debt and collateral of the current Trove according to the YUSD lot and corresponding Collateral to send\n        uint256 newDebt = troveDebt.sub(singleRedemption.SUSDLot);\n\n        if (newDebt == SUSD_GAS_COMPENSATION) {\n            // No debt left in the Trove (except for the liquidation reserve), therefore the trove gets closed\n            troveManager.removeStakeTMR(_borrower);\n            troveManager.closeTroveRedemption(_borrower);\n            _redeemCloseTrove(\n                _contractsCache,\n                _borrower,\n                SUSD_GAS_COMPENSATION,\n                colls.tokens,\n                finalAmounts\n            );\n\n            address[] memory emptyTokens = new address[](0);\n            uint256[] memory emptyAmounts = new uint256[](0);\n\n            emit TroveUpdated(\n                _borrower,\n                0,\n                emptyTokens,\n                emptyAmounts,\n                TroveManagerOperation.redeemCollateral\n            );\n        } else {\n            uint256 newRICR = LiquityMath._computeCR(_getRVC(colls.tokens, finalAmounts), newDebt); \n\n            /*\n             * If the provided hint is too inaccurate of date, we bail since trying to reinsert without a good hint will almost\n             * certainly result in running out of gas. Arbitrary measures of this mean newICR must be greater than hint ICR - 2%, \n             * and smaller than hint ICR + 2%.\n             *\n             * If the resultant net debt of the partial is less than the minimum, net debt we bail.\n             */\n\n            if (newRICR >= _partialRedemptionHintRICR.add(2e16) || \n                newRICR <= _partialRedemptionHintRICR.sub(2e16) || \n                _getNetDebt(newDebt) < MIN_NET_DEBT) {\n                singleRedemption.cancelledPartial = true;\n                return singleRedemption;\n            }\n\n            _contractsCache.sortedTroves.reInsert(\n                _borrower,\n                newRICR, \n                _upperPartialRedemptionHint,\n                _lowerPartialRedemptionHint\n            );\n\n            troveManager.updateTroveDebt(_borrower, newDebt);\n            collsLen = colls.tokens.length;\n            for (uint256 i; i < collsLen; ++i) {\n                colls.amounts[i] = finalAmounts[i];\n            }\n            troveManager.updateTroveCollTMR(_borrower, colls.tokens, colls.amounts);\n            troveManager.updateStakeAndTotalStakes(_borrower);\n\n            emit TroveUpdated(\n                _borrower,\n                newDebt,\n                colls.tokens,\n                finalAmounts,\n                TroveManagerOperation.redeemCollateral\n            );\n        }\n    }\n\n    /*\n     * Called when a full redemption occurs, and closes the trove.\n     * The redeemer swaps (debt - liquidation reserve) YUSD for (debt - liquidation reserve) worth of Collateral, so the YUSD liquidation reserve left corresponds to the remaining debt.\n     * In order to close the trove, the YUSD liquidation reserve is burned, and the corresponding debt is removed from the active pool.\n     * The debt recorded on the trove's struct is zero'd elswhere, in _closeTrove.\n     * Any surplus Collateral left in the trove, is sent to the Coll surplus pool, and can be later claimed by the borrower.\n     */\n    function _redeemCloseTrove(\n        ContractsCache memory _contractsCache,\n        address _borrower,\n        uint256 _SUSD,\n        address[] memory _remainingColls,\n        uint256[] memory _remainingCollsAmounts\n    ) internal {\n        _contractsCache.susdToken.burn(gasPoolAddress, _SUSD);\n        // Update Active Pool YUSD, and send Collateral to account\n        _contractsCache.activePool.decreaseSUSDDebt(_SUSD);\n\n        // send Collaterals from Active Pool to CollSurplus Pool\n        _contractsCache.collSurplusPool.accountSurplus(\n            _borrower,\n            _remainingColls,\n            _remainingCollsAmounts\n        );\n        _contractsCache.activePool.sendCollaterals(\n            address(_contractsCache.collSurplusPool),\n            _remainingColls,\n            _remainingCollsAmounts\n        );\n    }\n\n    /*\n     * This function has two impacts on the baseRate state variable:\n     * 1) decays the baseRate based on time passed since last redemption or YUSD borrowing operation.\n     * then,\n     * 2) increases the baseRate based on the amount redeemed, as a proportion of total supply\n     */\n    function _updateBaseRateFromRedemption(uint256 _SUSDDrawn, uint256 _totalSUSDSupply)\n        internal\n        returns (uint256)\n    {\n        uint256 decayedBaseRate = troveManager.calcDecayedBaseRate();\n\n        /* Convert the drawn Collateral back to YUSD at face value rate (1 YUSD:1 USD), in order to get\n         * the fraction of total supply that was redeemed at face value. */\n        uint256 redeemedSUSDFraction = _SUSDDrawn.mul(1e18).div(_totalSUSDSupply);\n\n        uint256 newBaseRate = decayedBaseRate.add(redeemedSUSDFraction.div(BETA));\n        newBaseRate = LiquityMath._min(newBaseRate, DECIMAL_PRECISION); // cap baseRate at a maximum of 100%\n\n        troveManager.updateBaseRate(newBaseRate);\n        return newBaseRate;\n    }\n\n    function _isValidFirstRedemptionHint(ISortedTroves _sortedTroves, address _firstRedemptionHint) \n        internal\n        view\n        returns (bool)\n    {\n        if (\n            _firstRedemptionHint == address(0) ||\n            !_sortedTroves.contains(_firstRedemptionHint) || \n            troveManager.getCurrentRICR(_firstRedemptionHint) < MCR\n        ) {\n            return false;\n        }\n\n        address nextTrove = _sortedTroves.getNext(_firstRedemptionHint);\n        return nextTrove == address(0) || troveManager.getCurrentICR(nextTrove) < MCR;\n    }\n\n    function _requireUserAcceptsFeeRedemption(uint256 _actualFee, uint256 _maxFee) internal pure {\n        require(_actualFee <= _maxFee, \"TMR:User must accept fee\");\n    }\n\n    function _requireValidMaxFee(uint256 _SUSDAmount, uint256 _maxSUSDFee) internal pure {\n        uint256 _maxFeePercentage = _maxSUSDFee.mul(DECIMAL_PRECISION).div(_SUSDAmount);\n        require(_maxFeePercentage >= REDEMPTION_FEE_FLOOR, \"TMR:Passed in max fee <0.5%\");\n        require(_maxFeePercentage <= DECIMAL_PRECISION, \"TMR:Passed in max fee >100%\");\n    }\n\n    function _requireAfterBootstrapPeriod() internal view {\n        uint256 systemDeploymentTime = stbTokenContract.getDeploymentStartTime();\n        require(\n            block.timestamp >= systemDeploymentTime + BOOTSTRAP_PERIOD,\n            \"TMR:NoRedemptionsDuringBootstrap\"\n        );\n    }\n\n    function _requireTCRoverMCR() internal view {\n        require(_getTCR() >= MCR, \"TMR: Cannot redeem when TCR<MCR\");\n    }\n\n    function _requireAmountGreaterThanZero(uint256 _amount) internal pure {\n        require(_amount != 0, \"TMR:ReqNonzeroAmount\");\n    }\n\n    function _requireSUSDBalanceCoversRedemption(\n        ISUSDToken _susdToken,\n        address _redeemer,\n        uint256 _amount\n    ) internal view {\n        require(\n            _susdToken.balanceOf(_redeemer) >= _amount,\n            \"TMR:InsufficientSUSDBalance\"\n        );\n    }\n\n    function isNonzero(newColls memory coll) internal pure returns (bool) {\n        uint256 collsLen = coll.amounts.length;\n        for (uint256 i; i < collsLen; ++i) {\n            if (coll.amounts[i] != 0) {\n                return true;\n            }\n        }\n        return false;\n    }\n\n    function _requireCallerisTroveManager() internal view {\n        require(msg.sender == address(troveManager), \"TMR:Caller not TM\");\n    }\n\n    function _getRedemptionFee(uint256 _SUSDRedeemed) internal view returns (uint256) {\n        return _calcRedemptionFee(troveManager.getRedemptionRate(), _SUSDRedeemed);\n    }\n\n    function _calcRedemptionFee(uint256 _redemptionRate, uint256 _SUSDRedeemed)\n        internal\n        pure\n        returns (uint256)\n    {\n        uint256 redemptionFee = _redemptionRate.mul(_SUSDRedeemed).div(DECIMAL_PRECISION);\n        require(\n            redemptionFee < _SUSDRedeemed,\n            \"TM: Fee > SUSD Redeemed\"\n        );\n        return redemptionFee;\n    }\n\n    function _calcRedemptionRate(uint256 _baseRate) internal pure returns (uint256) {\n        return\n            LiquityMath._min(\n                REDEMPTION_FEE_FLOOR.add(_baseRate),\n                DECIMAL_PRECISION // cap at a maximum of 100%\n            );\n    }\n}",
  "sourcePath": "/Users/phaxsam/Core-Stability_Truffle/contracts/TroveManagerRedemptions.sol",
  "compiler": {
    "name": "solc",
    "version": "0.6.11+commit.5ef660b1.Emscripten.clang"
  },
  "schemaVersion": "3.4.9",
  "updatedAt": "2022-08-15T22:38:51.878Z",
  "devdoc": {
    "kind": "dev",
    "methods": {
      "isOwner()": {
        "details": "Returns true if the caller is the current owner."
      },
      "owner()": {
        "details": "Returns the address of the current owner."
      },
      "redeemCollateral(uint256,uint256,address,address,address,uint256,uint256,address)": {
        "params": {
          "_SUSDMaxFee": "is equal to the max fee in YUSD that the sender is willing to pay _YUSDamount + _YUSDMaxFee must be less than the balance of the sender.",
          "_SUSDamount": "is equal to the amount of YUSD to actually redeem. "
        }
      },
      "redeemCollateralSingle(uint256,uint256,address,address,address,uint256,address)": {
        "params": {
          "_SUSDMaxFee": "is equal to the max fee in YUSD that the sender is willing to pay _YUSDamount + _YUSDMaxFee must be less than the balance of the sender.",
          "_SUSDamount": "is equal to the amount of YUSD to actually redeem. "
        }
      }
    },
    "version": 1
  },
  "userdoc": {
    "kind": "user",
    "methods": {
      "redeemCollateral(uint256,uint256,address,address,address,uint256,uint256,address)": {
        "notice": "Main function for redeeming collateral. See above for how YUSDMaxFee is calculated."
      },
      "redeemCollateralSingle(uint256,uint256,address,address,address,uint256,address)": {
        "notice": "Secondary function for redeeming collateral. See above for how YUSDMaxFee is calculated."
      }
    },
    "notice": "TroveManagerRedemptions is derived from TroveManager and handles all redemption activity of troves.  Instead of calculating redemption fees in ETH like Liquity used to, we now calculate it as a portion  of YUSD passed in to redeem. The YUSDAmount is still how much we would like to redeem, but the  YUSDFee is now the maximum amount of YUSD extra that will be paid and must be in the balance of the  redeemer for the redemption to succeed. This fee is the same as before in terms of percentage of value,  but now it is in terms of YUSD. We now use a helper function to be able to estimate how much YUSD will  be actually needed to perform a redemption of a certain amount, and also given an amount of YUSD balance, the max amount of YUSD that can be used for a redemption, and a max fee such that it will always go through.   Given a balance of YUSD, Z, the amount that can actually be redeemed is :  Y = YUSD you can actually redeem BR = decayed base rate  X = YUSD Fee S = Total YUSD Supply The redemption fee rate is = (Y / S * 1 / BETA + BR + 0.5%) This is because the new base rate = BR + Y / S * 1 / BETA We pass in X + Y = Z, and want to find X and Y.  Y is calculated to be = S * (sqrt((1.005 + BR)**2 + BETA * Z / S) - 1.005 - BR) through the quadratic formula, and X = Z - Y.  Therefore the amount we can actually redeem given Z is Y, and the max fee is X.   To find how much the fee is given Y, we can multiply Y by the new base rate, which is BR + Y / S * 1 / BETA.   To the redemption function, we pass in Y and X. ",
    "version": 1
  }
}