{
  "contractName": "Whitelist",
  "abi": [
    {
      "anonymous": false,
      "inputs": [
        {
          "indexed": false,
          "internalType": "address",
          "name": "_collateral",
          "type": "address"
        }
      ],
      "name": "CollateralAdded",
      "type": "event"
    },
    {
      "anonymous": false,
      "inputs": [
        {
          "indexed": false,
          "internalType": "address",
          "name": "_collateral",
          "type": "address"
        }
      ],
      "name": "CollateralDeprecated",
      "type": "event"
    },
    {
      "anonymous": false,
      "inputs": [
        {
          "indexed": false,
          "internalType": "address",
          "name": "_collateral",
          "type": "address"
        }
      ],
      "name": "CollateralUndeprecated",
      "type": "event"
    },
    {
      "anonymous": false,
      "inputs": [
        {
          "indexed": false,
          "internalType": "address",
          "name": "_collateral",
          "type": "address"
        },
        {
          "indexed": false,
          "internalType": "address",
          "name": "_newOracle",
          "type": "address"
        }
      ],
      "name": "OracleChanged",
      "type": "event"
    },
    {
      "anonymous": false,
      "inputs": [
        {
          "indexed": true,
          "internalType": "address",
          "name": "previousOwner",
          "type": "address"
        },
        {
          "indexed": true,
          "internalType": "address",
          "name": "newOwner",
          "type": "address"
        }
      ],
      "name": "OwnershipTransferred",
      "type": "event"
    },
    {
      "anonymous": false,
      "inputs": [
        {
          "indexed": false,
          "internalType": "address",
          "name": "_collateral",
          "type": "address"
        },
        {
          "indexed": false,
          "internalType": "address",
          "name": "_newPriceCurve",
          "type": "address"
        }
      ],
      "name": "PriceCurveChanged",
      "type": "event"
    },
    {
      "anonymous": false,
      "inputs": [
        {
          "indexed": false,
          "internalType": "address",
          "name": "_collateral",
          "type": "address"
        },
        {
          "indexed": false,
          "internalType": "uint256",
          "name": "_newRecoveryRatio",
          "type": "uint256"
        }
      ],
      "name": "RecoveryRatioChanged",
      "type": "event"
    },
    {
      "anonymous": false,
      "inputs": [
        {
          "indexed": false,
          "internalType": "address",
          "name": "_collateral",
          "type": "address"
        },
        {
          "indexed": false,
          "internalType": "uint256",
          "name": "_newSafetyRatio",
          "type": "uint256"
        }
      ],
      "name": "SafetyRatioChanged",
      "type": "event"
    },
    {
      "inputs": [
        {
          "internalType": "address",
          "name": "",
          "type": "address"
        }
      ],
      "name": "collateralParams",
      "outputs": [
        {
          "internalType": "uint256",
          "name": "safetyRatio",
          "type": "uint256"
        },
        {
          "internalType": "uint256",
          "name": "recoveryRatio",
          "type": "uint256"
        },
        {
          "internalType": "address",
          "name": "oracle",
          "type": "address"
        },
        {
          "internalType": "uint256",
          "name": "decimals",
          "type": "uint256"
        },
        {
          "internalType": "address",
          "name": "priceCurve",
          "type": "address"
        },
        {
          "internalType": "uint256",
          "name": "index",
          "type": "uint256"
        },
        {
          "internalType": "address",
          "name": "defaultRouter",
          "type": "address"
        },
        {
          "internalType": "bool",
          "name": "active",
          "type": "bool"
        },
        {
          "internalType": "bool",
          "name": "isWrapped",
          "type": "bool"
        }
      ],
      "stateMutability": "view",
      "type": "function"
    },
    {
      "inputs": [],
      "name": "isOwner",
      "outputs": [
        {
          "internalType": "bool",
          "name": "",
          "type": "bool"
        }
      ],
      "stateMutability": "view",
      "type": "function"
    },
    {
      "inputs": [],
      "name": "owner",
      "outputs": [
        {
          "internalType": "address",
          "name": "",
          "type": "address"
        }
      ],
      "stateMutability": "view",
      "type": "function"
    },
    {
      "inputs": [
        {
          "internalType": "uint256",
          "name": "",
          "type": "uint256"
        }
      ],
      "name": "validCollateral",
      "outputs": [
        {
          "internalType": "address",
          "name": "",
          "type": "address"
        }
      ],
      "stateMutability": "view",
      "type": "function"
    },
    {
      "inputs": [
        {
          "internalType": "address",
          "name": "_activePoolAddress",
          "type": "address"
        },
        {
          "internalType": "address",
          "name": "_defaultPoolAddress",
          "type": "address"
        },
        {
          "internalType": "address",
          "name": "_stabilityPoolAddress",
          "type": "address"
        },
        {
          "internalType": "address",
          "name": "_collSurplusPoolAddress",
          "type": "address"
        },
        {
          "internalType": "address",
          "name": "_borrowerOperationsAddress",
          "type": "address"
        }
      ],
      "name": "setAddresses",
      "outputs": [],
      "stateMutability": "nonpayable",
      "type": "function"
    },
    {
      "inputs": [
        {
          "internalType": "address",
          "name": "_collateral",
          "type": "address"
        },
        {
          "internalType": "uint256",
          "name": "_safetyRatio",
          "type": "uint256"
        },
        {
          "internalType": "uint256",
          "name": "_recoveryRatio",
          "type": "uint256"
        },
        {
          "internalType": "address",
          "name": "_oracle",
          "type": "address"
        },
        {
          "internalType": "uint256",
          "name": "_decimals",
          "type": "uint256"
        },
        {
          "internalType": "address",
          "name": "_priceCurve",
          "type": "address"
        },
        {
          "internalType": "bool",
          "name": "_isWrapped",
          "type": "bool"
        },
        {
          "internalType": "address",
          "name": "_routerAddress",
          "type": "address"
        }
      ],
      "name": "addCollateral",
      "outputs": [],
      "stateMutability": "nonpayable",
      "type": "function"
    },
    {
      "inputs": [
        {
          "internalType": "address",
          "name": "_collateral",
          "type": "address"
        }
      ],
      "name": "deprecateCollateral",
      "outputs": [],
      "stateMutability": "nonpayable",
      "type": "function"
    },
    {
      "inputs": [
        {
          "internalType": "address",
          "name": "_collateral",
          "type": "address"
        }
      ],
      "name": "undeprecateCollateral",
      "outputs": [],
      "stateMutability": "nonpayable",
      "type": "function"
    },
    {
      "inputs": [
        {
          "internalType": "address",
          "name": "_collateral",
          "type": "address"
        },
        {
          "internalType": "address",
          "name": "_oracle",
          "type": "address"
        }
      ],
      "name": "changeOracle",
      "outputs": [],
      "stateMutability": "nonpayable",
      "type": "function"
    },
    {
      "inputs": [
        {
          "internalType": "address",
          "name": "_collateral",
          "type": "address"
        },
        {
          "internalType": "address",
          "name": "_priceCurve",
          "type": "address"
        }
      ],
      "name": "changePriceCurve",
      "outputs": [],
      "stateMutability": "nonpayable",
      "type": "function"
    },
    {
      "inputs": [
        {
          "internalType": "address",
          "name": "_collateral",
          "type": "address"
        },
        {
          "internalType": "uint256",
          "name": "_newSafetyRatio",
          "type": "uint256"
        }
      ],
      "name": "changeSafetyRatio",
      "outputs": [],
      "stateMutability": "nonpayable",
      "type": "function"
    },
    {
      "inputs": [
        {
          "internalType": "address",
          "name": "_collateral",
          "type": "address"
        },
        {
          "internalType": "uint256",
          "name": "_newRecoveryRatio",
          "type": "uint256"
        }
      ],
      "name": "changeRecoveryRatio",
      "outputs": [],
      "stateMutability": "nonpayable",
      "type": "function"
    },
    {
      "inputs": [
        {
          "internalType": "address",
          "name": "_collateral",
          "type": "address"
        },
        {
          "internalType": "address",
          "name": "_router",
          "type": "address"
        }
      ],
      "name": "setDefaultRouter",
      "outputs": [],
      "stateMutability": "nonpayable",
      "type": "function"
    },
    {
      "inputs": [
        {
          "internalType": "address",
          "name": "_collateral",
          "type": "address"
        }
      ],
      "name": "getDefaultRouterAddress",
      "outputs": [
        {
          "internalType": "address",
          "name": "",
          "type": "address"
        }
      ],
      "stateMutability": "view",
      "type": "function"
    },
    {
      "inputs": [
        {
          "internalType": "address",
          "name": "_collateral",
          "type": "address"
        }
      ],
      "name": "isWrapped",
      "outputs": [
        {
          "internalType": "bool",
          "name": "",
          "type": "bool"
        }
      ],
      "stateMutability": "view",
      "type": "function"
    },
    {
      "inputs": [],
      "name": "getValidCollateral",
      "outputs": [
        {
          "internalType": "address[]",
          "name": "",
          "type": "address[]"
        }
      ],
      "stateMutability": "view",
      "type": "function"
    },
    {
      "inputs": [
        {
          "internalType": "address",
          "name": "_collateral",
          "type": "address"
        }
      ],
      "name": "getSafetyRatio",
      "outputs": [
        {
          "internalType": "uint256",
          "name": "",
          "type": "uint256"
        }
      ],
      "stateMutability": "view",
      "type": "function"
    },
    {
      "inputs": [
        {
          "internalType": "address",
          "name": "_collateral",
          "type": "address"
        }
      ],
      "name": "getRecoveryRatio",
      "outputs": [
        {
          "internalType": "uint256",
          "name": "",
          "type": "uint256"
        }
      ],
      "stateMutability": "view",
      "type": "function"
    },
    {
      "inputs": [
        {
          "internalType": "address",
          "name": "_collateral",
          "type": "address"
        }
      ],
      "name": "getOracle",
      "outputs": [
        {
          "internalType": "address",
          "name": "",
          "type": "address"
        }
      ],
      "stateMutability": "view",
      "type": "function"
    },
    {
      "inputs": [
        {
          "internalType": "address",
          "name": "_collateral",
          "type": "address"
        }
      ],
      "name": "getPriceCurve",
      "outputs": [
        {
          "internalType": "address",
          "name": "",
          "type": "address"
        }
      ],
      "stateMutability": "view",
      "type": "function"
    },
    {
      "inputs": [
        {
          "internalType": "address",
          "name": "_collateral",
          "type": "address"
        }
      ],
      "name": "getIsActive",
      "outputs": [
        {
          "internalType": "bool",
          "name": "",
          "type": "bool"
        }
      ],
      "stateMutability": "view",
      "type": "function"
    },
    {
      "inputs": [
        {
          "internalType": "address",
          "name": "_collateral",
          "type": "address"
        }
      ],
      "name": "getDecimals",
      "outputs": [
        {
          "internalType": "uint256",
          "name": "",
          "type": "uint256"
        }
      ],
      "stateMutability": "view",
      "type": "function"
    },
    {
      "inputs": [
        {
          "internalType": "address",
          "name": "_collateral",
          "type": "address"
        }
      ],
      "name": "getIndex",
      "outputs": [
        {
          "internalType": "uint256",
          "name": "",
          "type": "uint256"
        }
      ],
      "stateMutability": "view",
      "type": "function"
    },
    {
      "inputs": [
        {
          "internalType": "address",
          "name": "_collateral",
          "type": "address"
        },
        {
          "internalType": "uint256",
          "name": "_collateralVCInput",
          "type": "uint256"
        },
        {
          "internalType": "uint256",
          "name": "_collateralVCSystemBalance",
          "type": "uint256"
        },
        {
          "internalType": "uint256",
          "name": "_totalVCBalancePre",
          "type": "uint256"
        },
        {
          "internalType": "uint256",
          "name": "_totalVCBalancePost",
          "type": "uint256"
        }
      ],
      "name": "getFee",
      "outputs": [
        {
          "internalType": "uint256",
          "name": "fee",
          "type": "uint256"
        }
      ],
      "stateMutability": "view",
      "type": "function"
    },
    {
      "inputs": [
        {
          "internalType": "address",
          "name": "_collateral",
          "type": "address"
        },
        {
          "internalType": "uint256",
          "name": "_collateralVCInput",
          "type": "uint256"
        },
        {
          "internalType": "uint256",
          "name": "_collateralVCSystemBalance",
          "type": "uint256"
        },
        {
          "internalType": "uint256",
          "name": "_totalVCBalancePre",
          "type": "uint256"
        },
        {
          "internalType": "uint256",
          "name": "_totalVCBalancePost",
          "type": "uint256"
        }
      ],
      "name": "getFeeAndUpdate",
      "outputs": [
        {
          "internalType": "uint256",
          "name": "fee",
          "type": "uint256"
        }
      ],
      "stateMutability": "nonpayable",
      "type": "function"
    },
    {
      "inputs": [
        {
          "internalType": "address",
          "name": "_collateral",
          "type": "address"
        }
      ],
      "name": "getPrice",
      "outputs": [
        {
          "internalType": "uint256",
          "name": "",
          "type": "uint256"
        }
      ],
      "stateMutability": "view",
      "type": "function"
    },
    {
      "inputs": [
        {
          "internalType": "address",
          "name": "_collateral",
          "type": "address"
        },
        {
          "internalType": "uint256",
          "name": "_amount",
          "type": "uint256"
        }
      ],
      "name": "getValueUSD",
      "outputs": [
        {
          "internalType": "uint256",
          "name": "",
          "type": "uint256"
        }
      ],
      "stateMutability": "view",
      "type": "function"
    },
    {
      "inputs": [
        {
          "internalType": "address[]",
          "name": "_collaterals",
          "type": "address[]"
        },
        {
          "internalType": "uint256[]",
          "name": "_amounts",
          "type": "uint256[]"
        }
      ],
      "name": "getValuesUSD",
      "outputs": [
        {
          "internalType": "uint256",
          "name": "USDValue",
          "type": "uint256"
        }
      ],
      "stateMutability": "view",
      "type": "function"
    },
    {
      "inputs": [
        {
          "internalType": "address",
          "name": "_collateral",
          "type": "address"
        },
        {
          "internalType": "uint256",
          "name": "_amount",
          "type": "uint256"
        }
      ],
      "name": "getValueVC",
      "outputs": [
        {
          "internalType": "uint256",
          "name": "",
          "type": "uint256"
        }
      ],
      "stateMutability": "view",
      "type": "function"
    },
    {
      "inputs": [
        {
          "internalType": "address[]",
          "name": "_collaterals",
          "type": "address[]"
        },
        {
          "internalType": "uint256[]",
          "name": "_amounts",
          "type": "uint256[]"
        }
      ],
      "name": "getValuesVC",
      "outputs": [
        {
          "internalType": "uint256",
          "name": "VCValue",
          "type": "uint256"
        }
      ],
      "stateMutability": "view",
      "type": "function"
    },
    {
      "inputs": [
        {
          "internalType": "address",
          "name": "_collateral",
          "type": "address"
        },
        {
          "internalType": "uint256",
          "name": "_amount",
          "type": "uint256"
        }
      ],
      "name": "getValueRVC",
      "outputs": [
        {
          "internalType": "uint256",
          "name": "",
          "type": "uint256"
        }
      ],
      "stateMutability": "view",
      "type": "function"
    },
    {
      "inputs": [
        {
          "internalType": "address[]",
          "name": "_collaterals",
          "type": "address[]"
        },
        {
          "internalType": "uint256[]",
          "name": "_amounts",
          "type": "uint256[]"
        }
      ],
      "name": "getValuesRVC",
      "outputs": [
        {
          "internalType": "uint256",
          "name": "RVCValue",
          "type": "uint256"
        }
      ],
      "stateMutability": "view",
      "type": "function"
    },
    {
      "inputs": [
        {
          "internalType": "address",
          "name": "_collateral",
          "type": "address"
        },
        {
          "internalType": "uint256",
          "name": "_amount",
          "type": "uint256"
        }
      ],
      "name": "getValueVCforTCR",
      "outputs": [
        {
          "internalType": "uint256",
          "name": "",
          "type": "uint256"
        },
        {
          "internalType": "uint256",
          "name": "",
          "type": "uint256"
        }
      ],
      "stateMutability": "view",
      "type": "function"
    },
    {
      "inputs": [
        {
          "internalType": "address[]",
          "name": "_collaterals",
          "type": "address[]"
        },
        {
          "internalType": "uint256[]",
          "name": "_amounts",
          "type": "uint256[]"
        }
      ],
      "name": "getValuesVCforTCR",
      "outputs": [
        {
          "internalType": "uint256",
          "name": "VCValue",
          "type": "uint256"
        },
        {
          "internalType": "uint256",
          "name": "RVCValue",
          "type": "uint256"
        }
      ],
      "stateMutability": "view",
      "type": "function"
    },
    {
      "inputs": [
        {
          "internalType": "address",
          "name": "_caller",
          "type": "address"
        }
      ],
      "name": "isValidCaller",
      "outputs": [
        {
          "internalType": "bool",
          "name": "",
          "type": "bool"
        }
      ],
      "stateMutability": "view",
      "type": "function"
    },
    {
      "inputs": [
        {
          "internalType": "address",
          "name": "_contract",
          "type": "address"
        }
      ],
      "name": "getValidCaller",
      "outputs": [
        {
          "internalType": "address",
          "name": "",
          "type": "address"
        }
      ],
      "stateMutability": "view",
      "type": "function"
    },
    {
      "inputs": [
        {
          "internalType": "address",
          "name": "_contract",
          "type": "address"
        },
        {
          "internalType": "address",
          "name": "_caller",
          "type": "address"
        }
      ],
      "name": "updateValidCaller",
      "outputs": [],
      "stateMutability": "nonpayable",
      "type": "function"
    },
    {
      "inputs": [
        {
          "internalType": "address",
          "name": "_contract",
          "type": "address"
        },
        {
          "internalType": "bool",
          "name": "_lock",
          "type": "bool"
        }
      ],
      "name": "updatePendingLockCaller",
      "outputs": [],
      "stateMutability": "nonpayable",
      "type": "function"
    },
    {
      "inputs": [
        {
          "internalType": "address",
          "name": "_contract",
          "type": "address"
        }
      ],
      "name": "lockCaller",
      "outputs": [],
      "stateMutability": "nonpayable",
      "type": "function"
    },
    {
      "inputs": [
        {
          "internalType": "uint256",
          "name": "_newMax",
          "type": "uint256"
        }
      ],
      "name": "updateMaxCollsInTrove",
      "outputs": [],
      "stateMutability": "nonpayable",
      "type": "function"
    }
  ],
  "bytecode": "0x60806040526032600b5534801561001557600080fd5b50336000806101000a81548173ffffffffffffffffffffffffffffffffffffffff021916908373ffffffffffffffffffffffffffffffffffffffff1602179055503373ffffffffffffffffffffffffffffffffffffffff16600073ffffffffffffffffffffffffffffffffffffffff167f8be0079c531659141344cd1fd0a4f28419497f9722a3daafe3b4186f6b6457e060405160405180910390a3614909806100c06000396000f3fe608060405234801561001057600080fd5b50600436106102485760003560e01c80637d26a2691161013b57806398be9e34116100b8578063cacabd271161007c578063cacabd27146114a3578063cf54aaa014611505578063d98bb5b11461155d578063efda2a3a146115b5578063f088b7011461161957610248565b806398be9e34146112e85780639d6aea0a1461134c578063b31610db146113ab578063bb1010e914611403578063c3b7f9fb1461145f57610248565b80638d3f8298116100ff5780638d3f82981461103a5780638da5cb5b146110ba5780638f32d59b146111045780639160f5f91461112657806397a4b9f71461118857610248565b80637d26a26914610da857806380d4ab9b14610e0c578063885db07014610f2857806388bfbdcb14610fa857806389f121b114610ff657610248565b80633b667865116101c957806350f5be911161018d57806350f5be9114610a8957806355dae74c14610ad75780635dd68acd14610b40578063617ddfff14610c0457806374b472ba14610d6457610248565b80633b6678651461089557806341976e0914610919578063459dd8bd14610971578063495ee13e146109c95780634dc809ce14610a2557610248565b8063246eae9211610210578063246eae92146105915780632a6e7603146106155780632a979a98146106835780632e2b1a88146106d35780633b1c29061461073557610248565b806310d3d22e1461024d57806315d2c23a146102d157806317ae1fc5146102ff5780631ee2d29e1461035b5780631f7e74cf1461042a575b600080fd5b61028f6004803603602081101561026357600080fd5b81019080803573ffffffffffffffffffffffffffffffffffffffff16906020019092919050505061169d565b604051808273ffffffffffffffffffffffffffffffffffffffff1673ffffffffffffffffffffffffffffffffffffffff16815260200191505060405180910390f35b6102fd600480360360208110156102e757600080fd5b8101908080359060200190929190505050611714565b005b6103416004803603602081101561031557600080fd5b81019080803573ffffffffffffffffffffffffffffffffffffffff169060200190929190505050611798565b604051808215151515815260200191505060405180910390f35b610428600480360361010081101561037257600080fd5b81019080803573ffffffffffffffffffffffffffffffffffffffff1690602001909291908035906020019092919080359060200190929190803573ffffffffffffffffffffffffffffffffffffffff16906020019092919080359060200190929190803573ffffffffffffffffffffffffffffffffffffffff169060200190929190803515159060200190929190803573ffffffffffffffffffffffffffffffffffffffff1690602001909291905050506117fc565b005b6105746004803603604081101561044057600080fd5b810190808035906020019064010000000081111561045d57600080fd5b82018360208201111561046f57600080fd5b8035906020019184602083028401116401000000008311171561049157600080fd5b919080806020026020016040519081016040528093929190818152602001838360200280828437600081840152601f19601f820116905080830192505050505050509192919290803590602001906401000000008111156104f157600080fd5b82018360208201111561050357600080fd5b8035906020019184602083028401116401000000008311171561052557600080fd5b919080806020026020016040519081016040528093929190818152602001838360200280828437600081840152601f19601f8201169050808301925050505050505091929192905050506120e6565b604051808381526020018281526020019250505060405180910390f35b6105d3600480360360208110156105a757600080fd5b81019080803573ffffffffffffffffffffffffffffffffffffffff169060200190929190505050612171565b604051808273ffffffffffffffffffffffffffffffffffffffff1673ffffffffffffffffffffffffffffffffffffffff16815260200191505060405180910390f35b6106416004803603602081101561062b57600080fd5b81019080803590602001909291905050506121e8565b604051808273ffffffffffffffffffffffffffffffffffffffff1673ffffffffffffffffffffffffffffffffffffffff16815260200191505060405180910390f35b6106d16004803603604081101561069957600080fd5b81019080803573ffffffffffffffffffffffffffffffffffffffff169060200190929190803515159060200190929190505050612224565b005b61071f600480360360408110156106e957600080fd5b81019080803573ffffffffffffffffffffffffffffffffffffffff169060200190929190803590602001909291905050506122f9565b6040518082815260200191505060405180910390f35b61087f6004803603604081101561074b57600080fd5b810190808035906020019064010000000081111561076857600080fd5b82018360208201111561077a57600080fd5b8035906020019184602083028401116401000000008311171561079c57600080fd5b919080806020026020016040519081016040528093929190818152602001838360200280828437600081840152601f19601f820116905080830192505050505050509192919290803590602001906401000000008111156107fc57600080fd5b82018360208201111561080e57600080fd5b8035906020019184602083028401116401000000008311171561083057600080fd5b919080806020026020016040519081016040528093929190818152602001838360200280828437600081840152601f19601f82011690508083019250505050505050919291929050505061230d565b6040518082815260200191505060405180910390f35b6108d7600480360360208110156108ab57600080fd5b81019080803573ffffffffffffffffffffffffffffffffffffffff169060200190929190505050612376565b604051808273ffffffffffffffffffffffffffffffffffffffff1673ffffffffffffffffffffffffffffffffffffffff16815260200191505060405180910390f35b61095b6004803603602081101561092f57600080fd5b81019080803573ffffffffffffffffffffffffffffffffffffffff1690602001909291905050506123ed565b6040518082815260200191505060405180910390f35b6109b36004803603602081101561098757600080fd5b81019080803573ffffffffffffffffffffffffffffffffffffffff1690602001909291905050506124de565b6040518082815260200191505060405180910390f35b610a0b600480360360208110156109df57600080fd5b81019080803573ffffffffffffffffffffffffffffffffffffffff169060200190929190505050612535565b604051808215151515815260200191505060405180910390f35b610a8760048036036040811015610a3b57600080fd5b81019080803573ffffffffffffffffffffffffffffffffffffffff169060200190929190803573ffffffffffffffffffffffffffffffffffffffff16906020019092919050505061258e565b005b610ad560048036036040811015610a9f57600080fd5b81019080803573ffffffffffffffffffffffffffffffffffffffff16906020019092919080359060200190929190505050612741565b005b610b2360048036036040811015610aed57600080fd5b81019080803573ffffffffffffffffffffffffffffffffffffffff16906020019092919080359060200190929190505050612993565b604051808381526020018281526020019250505060405180910390f35b610c02600480360360a0811015610b5657600080fd5b81019080803573ffffffffffffffffffffffffffffffffffffffff169060200190929190803573ffffffffffffffffffffffffffffffffffffffff169060200190929190803573ffffffffffffffffffffffffffffffffffffffff169060200190929190803573ffffffffffffffffffffffffffffffffffffffff169060200190929190803573ffffffffffffffffffffffffffffffffffffffff1690602001909291905050506129ab565b005b610d4e60048036036040811015610c1a57600080fd5b8101908080359060200190640100000000811115610c3757600080fd5b820183602082011115610c4957600080fd5b80359060200191846020830284011164010000000083111715610c6b57600080fd5b919080806020026020016040519081016040528093929190818152602001838360200280828437600081840152601f19601f82011690508083019250505050505050919291929080359060200190640100000000811115610ccb57600080fd5b820183602082011115610cdd57600080fd5b80359060200191846020830284011164010000000083111715610cff57600080fd5b919080806020026020016040519081016040528093929190818152602001838360200280828437600081840152601f19601f820116905080830192505050505050509192919290505050612c3c565b6040518082815260200191505060405180910390f35b610da660048036036020811015610d7a57600080fd5b81019080803573ffffffffffffffffffffffffffffffffffffffff169060200190929190505050612ca5565b005b610e0a60048036036040811015610dbe57600080fd5b81019080803573ffffffffffffffffffffffffffffffffffffffff169060200190929190803573ffffffffffffffffffffffffffffffffffffffff169060200190929190505050612eb7565b005b610e4e60048036036020811015610e2257600080fd5b81019080803573ffffffffffffffffffffffffffffffffffffffff1690602001909291905050506131d2565b604051808a81526020018981526020018873ffffffffffffffffffffffffffffffffffffffff1673ffffffffffffffffffffffffffffffffffffffff1681526020018781526020018673ffffffffffffffffffffffffffffffffffffffff1673ffffffffffffffffffffffffffffffffffffffff1681526020018581526020018473ffffffffffffffffffffffffffffffffffffffff1673ffffffffffffffffffffffffffffffffffffffff1681526020018315151515815260200182151515158152602001995050505050505050505060405180910390f35b610f92600480360360a0811015610f3e57600080fd5b81019080803573ffffffffffffffffffffffffffffffffffffffff1690602001909291908035906020019092919080359060200190929190803590602001909291908035906020019092919050505061329a565b6040518082815260200191505060405180910390f35b610ff460048036036040811015610fbe57600080fd5b81019080803573ffffffffffffffffffffffffffffffffffffffff169060200190929190803590602001909291905050506133be565b005b6110386004803603602081101561100c57600080fd5b81019080803573ffffffffffffffffffffffffffffffffffffffff1690602001909291905050506134f9565b005b6110a4600480360360a081101561105057600080fd5b81019080803573ffffffffffffffffffffffffffffffffffffffff16906020019092919080359060200190929190803590602001909291908035906020019092919080359060200190929190505050613619565b6040518082815260200191505060405180910390f35b6110c2613802565b604051808273ffffffffffffffffffffffffffffffffffffffff1673ffffffffffffffffffffffffffffffffffffffff16815260200191505060405180910390f35b61110c61382b565b604051808215151515815260200191505060405180910390f35b6111726004803603604081101561113c57600080fd5b81019080803573ffffffffffffffffffffffffffffffffffffffff16906020019092919080359060200190929190505050613882565b6040518082815260200191505060405180910390f35b6112d26004803603604081101561119e57600080fd5b81019080803590602001906401000000008111156111bb57600080fd5b8201836020820111156111cd57600080fd5b803590602001918460208302840111640100000000831117156111ef57600080fd5b919080806020026020016040519081016040528093929190818152602001838360200280828437600081840152601f19601f8201169050808301925050505050505091929192908035906020019064010000000081111561124f57600080fd5b82018360208201111561126157600080fd5b8035906020019184602083028401116401000000008311171561128357600080fd5b919080806020026020016040519081016040528093929190818152602001838360200280828437600081840152601f19601f820116905080830192505050505050509192919290505050613896565b6040518082815260200191505060405180910390f35b61134a600480360360408110156112fe57600080fd5b81019080803573ffffffffffffffffffffffffffffffffffffffff169060200190929190803573ffffffffffffffffffffffffffffffffffffffff1690602001909291905050506138ff565b005b611354613a9e565b6040518080602001828103825283818151815260200191508051906020019060200280838360005b8381101561139757808201518184015260208101905061137c565b505050509050019250505060405180910390f35b6113ed600480360360208110156113c157600080fd5b81019080803573ffffffffffffffffffffffffffffffffffffffff169060200190929190505050613b2c565b6040518082815260200191505060405180910390f35b6114456004803603602081101561141957600080fd5b81019080803573ffffffffffffffffffffffffffffffffffffffff169060200190929190505050613b83565b604051808215151515815260200191505060405180910390f35b6114a16004803603602081101561147557600080fd5b81019080803573ffffffffffffffffffffffffffffffffffffffff169060200190929190505050613c1a565b005b6114ef600480360360408110156114b957600080fd5b81019080803573ffffffffffffffffffffffffffffffffffffffff16906020019092919080359060200190929190505050613e2b565b6040518082815260200191505060405180910390f35b6115476004803603602081101561151b57600080fd5b81019080803573ffffffffffffffffffffffffffffffffffffffff169060200190929190505050613e3f565b6040518082815260200191505060405180910390f35b61159f6004803603602081101561157357600080fd5b81019080803573ffffffffffffffffffffffffffffffffffffffff169060200190929190505050613e96565b6040518082815260200191505060405180910390f35b611617600480360360408110156115cb57600080fd5b81019080803573ffffffffffffffffffffffffffffffffffffffff169060200190929190803573ffffffffffffffffffffffffffffffffffffffff169060200190929190505050613ee2565b005b61165b6004803603602081101561162f57600080fd5b81019080803573ffffffffffffffffffffffffffffffffffffffff169060200190929190505050613ff5565b604051808273ffffffffffffffffffffffffffffffffffffffff1673ffffffffffffffffffffffffffffffffffffffff16815260200191505060405180910390f35b6000816116a98161405e565b600960008473ffffffffffffffffffffffffffffffffffffffff1673ffffffffffffffffffffffffffffffffffffffff16815260200190815260200160002060020160009054906101000a900473ffffffffffffffffffffffffffffffffffffffff16915050919050565b61171c61382b565b61178e576040517f08c379a000000000000000000000000000000000000000000000000000000000815260040180806020018281038252600e8152602001807f43616c6c65724e6f744f776e657200000000000000000000000000000000000081525060200191505060405180910390fd5b80600b8190555050565b6000816117a48161405e565b600960008473ffffffffffffffffffffffffffffffffffffffff1673ffffffffffffffffffffffffffffffffffffffff16815260200190815260200160002060060160149054906101000a900460ff16915050919050565b61180461382b565b611876576040517f08c379a000000000000000000000000000000000000000000000000000000000815260040180806020018281038252600e8152602001807f43616c6c65724e6f744f776e657200000000000000000000000000000000000081525060200191505060405180910390fd5b61187f88614186565b61188885614186565b61189183614186565b61189a81614186565b670f43fc2c04ee00008710611917576040517f08c379a000000000000000000000000000000000000000000000000000000000815260040180806020018281038252601c8152602001807f726174696f206d757374206265206c657373207468616e20312e31300000000081525060200191505060405180910390fd5b6000600a8054905014611a4d578773ffffffffffffffffffffffffffffffffffffffff16600a60008154811061194957fe5b9060005260206000200160009054906101000a900473ffffffffffffffffffffffffffffffffffffffff1673ffffffffffffffffffffffffffffffffffffffff16141580156119da57506000600960008a73ffffffffffffffffffffffffffffffffffffffff1673ffffffffffffffffffffffffffffffffffffffff16815260200190815260200160002060050154145b611a4c576040517f08c379a00000000000000000000000000000000000000000000000000000000081526004018080602001828103825260198152602001807f636f6c6c61746572616c20616c7265616479206578697374730000000000000081525060200191505060405180910390fd5b5b600a889080600181540180825580915050600190039060005260206000200160009091909190916101000a81548173ffffffffffffffffffffffffffffffffffffffff021916908373ffffffffffffffffffffffffffffffffffffffff1602179055506040518061012001604052808881526020018781526020018673ffffffffffffffffffffffffffffffffffffffff1681526020018581526020018473ffffffffffffffffffffffffffffffffffffffff1681526020016001600a805490500381526020018273ffffffffffffffffffffffffffffffffffffffff168152602001600115158152602001831515815250600960008a73ffffffffffffffffffffffffffffffffffffffff1673ffffffffffffffffffffffffffffffffffffffff168152602001908152602001600020600082015181600001556020820151816001015560408201518160020160006101000a81548173ffffffffffffffffffffffffffffffffffffffff021916908373ffffffffffffffffffffffffffffffffffffffff1602179055506060820151816003015560808201518160040160006101000a81548173ffffffffffffffffffffffffffffffffffffffff021916908373ffffffffffffffffffffffffffffffffffffffff16021790555060a0820151816005015560c08201518160060160006101000a81548173ffffffffffffffffffffffffffffffffffffffff021916908373ffffffffffffffffffffffffffffffffffffffff16021790555060e08201518160060160146101000a81548160ff0219169083151502179055506101008201518160060160156101000a81548160ff021916908315150217905550905050600160009054906101000a900473ffffffffffffffffffffffffffffffffffffffff1673ffffffffffffffffffffffffffffffffffffffff1663ec0d5e0c896040518263ffffffff1660e01b8152600401808273ffffffffffffffffffffffffffffffffffffffff1673ffffffffffffffffffffffffffffffffffffffff168152602001915050600060405180830381600087803b158015611d6057600080fd5b505af1158015611d74573d6000803e3d6000fd5b50505050600260009054906101000a900473ffffffffffffffffffffffffffffffffffffffff1673ffffffffffffffffffffffffffffffffffffffff1663ec0d5e0c896040518263ffffffff1660e01b8152600401808273ffffffffffffffffffffffffffffffffffffffff1673ffffffffffffffffffffffffffffffffffffffff168152602001915050600060405180830381600087803b158015611e1957600080fd5b505af1158015611e2d573d6000803e3d6000fd5b50505050600360009054906101000a900473ffffffffffffffffffffffffffffffffffffffff1673ffffffffffffffffffffffffffffffffffffffff1663ec0d5e0c896040518263ffffffff1660e01b8152600401808273ffffffffffffffffffffffffffffffffffffffff1673ffffffffffffffffffffffffffffffffffffffff168152602001915050600060405180830381600087803b158015611ed257600080fd5b505af1158015611ee6573d6000803e3d6000fd5b50505050600460009054906101000a900473ffffffffffffffffffffffffffffffffffffffff1673ffffffffffffffffffffffffffffffffffffffff1663ec0d5e0c896040518263ffffffff1660e01b8152600401808273ffffffffffffffffffffffffffffffffffffffff1673ffffffffffffffffffffffffffffffffffffffff168152602001915050600060405180830381600087803b158015611f8b57600080fd5b505af1158015611f9f573d6000803e3d6000fd5b505050507f7db05e63d635a68c62fd7fd8f3107ae8ab584a383e102d1bd8a40f4c977e465f88604051808273ffffffffffffffffffffffffffffffffffffffff1673ffffffffffffffffffffffffffffffffffffffff16815260200191505060405180910390a17ff6ae66b8b8a2c280dea3d848e11ca05d93d43fd60af2bbfbd95626e9f7555f148888604051808373ffffffffffffffffffffffffffffffffffffffff1673ffffffffffffffffffffffffffffffffffffffff1681526020018281526020019250505060405180910390a17fd19d8a7e8c72d051b3257649d28e9dfc396f83b51ee2280b712ec3e1e9b028c68887604051808373ffffffffffffffffffffffffffffffffffffffff1673ffffffffffffffffffffffffffffffffffffffff1681526020018281526020019250505060405180910390a15050505050505050565b60008060008451905060005b818110156121685760008061212d88848151811061210c57fe5b602002602001015188858151811061212057fe5b60200260200101516142aa565b91509150612144828761441890919063ffffffff16565b9550612159818661441890919063ffffffff16565b945050508060010190506120f2565b50509250929050565b60008161217d8161405e565b600960008473ffffffffffffffffffffffffffffffffffffffff1673ffffffffffffffffffffffffffffffffffffffff16815260200190815260200160002060040160009054906101000a900473ffffffffffffffffffffffffffffffffffffffff16915050919050565b600a81815481106121f557fe5b906000526020600020016000915054906101000a900473ffffffffffffffffffffffffffffffffffffffff1681565b61222c61382b565b61229e576040517f08c379a000000000000000000000000000000000000000000000000000000000815260040180806020018281038252600e8152602001807f43616c6c65724e6f744f776e657200000000000000000000000000000000000081525060200191505060405180910390fd5b80600760008473ffffffffffffffffffffffffffffffffffffffff1673ffffffffffffffffffffffffffffffffffffffff16815260200190815260200160002060006101000a81548160ff0219169083151502179055505050565b600061230583836144a0565b905092915050565b6000808351905060005b8181101561236e5761236161235286838151811061233157fe5b602002602001015186848151811061234557fe5b6020026020010151614573565b8461441890919063ffffffff16565b9250806001019050612317565b505092915050565b6000816123828161405e565b600960008473ffffffffffffffffffffffffffffffffffffffff1673ffffffffffffffffffffffffffffffffffffffff16815260200190815260200160002060060160009054906101000a900473ffffffffffffffffffffffffffffffffffffffff16915050919050565b600080600960008473ffffffffffffffffffffffffffffffffffffffff1673ffffffffffffffffffffffffffffffffffffffff16815260200190815260200160002060020160009054906101000a900473ffffffffffffffffffffffffffffffffffffffff1690508073ffffffffffffffffffffffffffffffffffffffff16639c3bc3e66040518163ffffffff1660e01b815260040160206040518083038186803b15801561249b57600080fd5b505afa1580156124af573d6000803e3d6000fd5b505050506040513d60208110156124c557600080fd5b8101908080519060200190929190505050915050919050565b6000816124ea8161405e565b600960008473ffffffffffffffffffffffffffffffffffffffff1673ffffffffffffffffffffffffffffffffffffffff16815260200190815260200160002060010154915050919050565b6000600960008373ffffffffffffffffffffffffffffffffffffffff1673ffffffffffffffffffffffffffffffffffffffff16815260200190815260200160002060060160159054906101000a900460ff169050919050565b816125988161405e565b6125a061382b565b612612576040517f08c379a000000000000000000000000000000000000000000000000000000000815260040180806020018281038252600e8152602001807f43616c6c65724e6f744f776e657200000000000000000000000000000000000081525060200191505060405180910390fd5b61261b83614186565b61262482614186565b81600960008573ffffffffffffffffffffffffffffffffffffffff1673ffffffffffffffffffffffffffffffffffffffff16815260200190815260200160002060020160006101000a81548173ffffffffffffffffffffffffffffffffffffffff021916908373ffffffffffffffffffffffffffffffffffffffff1602179055507f05cd89403c6bdeac21c2ff33de395121a31fa1bc2bf3adf4825f1f86e79969dd8383604051808373ffffffffffffffffffffffffffffffffffffffff1673ffffffffffffffffffffffffffffffffffffffff1681526020018273ffffffffffffffffffffffffffffffffffffffff1673ffffffffffffffffffffffffffffffffffffffff1681526020019250505060405180910390a1505050565b8161274b8161405e565b61275361382b565b6127c5576040517f08c379a000000000000000000000000000000000000000000000000000000000815260040180806020018281038252600e8152602001807f43616c6c65724e6f744f776e657200000000000000000000000000000000000081525060200191505060405180910390fd5b670f43fc2c04ee00008210612842576040517f08c379a000000000000000000000000000000000000000000000000000000000815260040180806020018281038252601c8152602001807f726174696f206d757374206265206c657373207468616e20312e31300000000081525060200191505060405180910390fd5b81600960008573ffffffffffffffffffffffffffffffffffffffff1673ffffffffffffffffffffffffffffffffffffffff16815260200190815260200160002060000154106128dc576040517f08c379a00000000000000000000000000000000000000000000000000000000081526004018080602001828103825260278152602001806148826027913960400191505060405180910390fd5b81600960008573ffffffffffffffffffffffffffffffffffffffff1673ffffffffffffffffffffffffffffffffffffffff168152602001908152602001600020600001819055507ff6ae66b8b8a2c280dea3d848e11ca05d93d43fd60af2bbfbd95626e9f7555f148383604051808373ffffffffffffffffffffffffffffffffffffffff1673ffffffffffffffffffffffffffffffffffffffff1681526020018281526020019250505060405180910390a1505050565b6000806129a084846142aa565b915091509250929050565b6129b361382b565b612a25576040517f08c379a000000000000000000000000000000000000000000000000000000000815260040180806020018281038252600e8152602001807f43616c6c65724e6f744f776e657200000000000000000000000000000000000081525060200191505060405180910390fd5b600560149054906101000a900460ff1615612aa8576040517f08c379a00000000000000000000000000000000000000000000000000000000081526004018080602001828103825260158152602001807f61646472657373657320616c726561647920736574000000000000000000000081525060200191505060405180910390fd5b612ab185614186565b612aba84614186565b612ac383614186565b612acc82614186565b612ad581614186565b84600160006101000a81548173ffffffffffffffffffffffffffffffffffffffff021916908373ffffffffffffffffffffffffffffffffffffffff16021790555083600260006101000a81548173ffffffffffffffffffffffffffffffffffffffff021916908373ffffffffffffffffffffffffffffffffffffffff16021790555082600360006101000a81548173ffffffffffffffffffffffffffffffffffffffff021916908373ffffffffffffffffffffffffffffffffffffffff16021790555081600460006101000a81548173ffffffffffffffffffffffffffffffffffffffff021916908373ffffffffffffffffffffffffffffffffffffffff16021790555080600560006101000a81548173ffffffffffffffffffffffffffffffffffffffff021916908373ffffffffffffffffffffffffffffffffffffffff1602179055506001600560146101000a81548160ff0219169083151502179055505050505050565b6000808351905060005b81811015612c9d57612c90612c81868381518110612c6057fe5b6020026020010151868481518110612c7457fe5b60200260200101516145fa565b8461441890919063ffffffff16565b9250806001019050612c46565b505092915050565b80612caf8161405e565b612cb761382b565b612d29576040517f08c379a000000000000000000000000000000000000000000000000000000000815260040180806020018281038252600e8152602001807f43616c6c65724e6f744f776e657200000000000000000000000000000000000081525060200191505060405180910390fd5b612d3282614186565b600960008373ffffffffffffffffffffffffffffffffffffffff1673ffffffffffffffffffffffffffffffffffffffff16815260200190815260200160002060060160149054906101000a900460ff1615612df5576040517f08c379a000000000000000000000000000000000000000000000000000000000815260040180806020018281038252601c8152602001807f636f6c6c61746572616c20697320616c7265616479206163746976650000000081525060200191505060405180910390fd5b6001600960008473ffffffffffffffffffffffffffffffffffffffff1673ffffffffffffffffffffffffffffffffffffffff16815260200190815260200160002060060160146101000a81548160ff0219169083151502179055507f075d7641153b3cf9af121a3c31a038deb6bcd961e86618d9a224d1a79e960a7082604051808273ffffffffffffffffffffffffffffffffffffffff1673ffffffffffffffffffffffffffffffffffffffff16815260200191505060405180910390a15050565b81612ec18161405e565b612ec961382b565b612f3b576040517f08c379a000000000000000000000000000000000000000000000000000000000815260040180806020018281038252600e8152602001807f43616c6c65724e6f744f776e657200000000000000000000000000000000000081525060200191505060405180910390fd5b612f4483614186565b612f4d82614186565b600080600960008673ffffffffffffffffffffffffffffffffffffffff1673ffffffffffffffffffffffffffffffffffffffff16815260200190815260200160002060040160009054906101000a900473ffffffffffffffffffffffffffffffffffffffff1673ffffffffffffffffffffffffffffffffffffffff1663f2cfd5516040518163ffffffff1660e01b8152600401604080518083038186803b158015612ff757600080fd5b505afa15801561300b573d6000803e3d6000fd5b505050506040513d604081101561302157600080fd5b810190808051906020019092919080519060200190929190505050915091508373ffffffffffffffffffffffffffffffffffffffff16632c3609a083836040518363ffffffff1660e01b81526004018083815260200182815260200192505050600060405180830381600087803b15801561309b57600080fd5b505af11580156130af573d6000803e3d6000fd5b5050505083600960008773ffffffffffffffffffffffffffffffffffffffff1673ffffffffffffffffffffffffffffffffffffffff16815260200190815260200160002060040160006101000a81548173ffffffffffffffffffffffffffffffffffffffff021916908373ffffffffffffffffffffffffffffffffffffffff1602179055507f7a04be6ecf4910d06bdc1ab858a788b152c4dda61d6a6b3d7bb665f98dd0df608585604051808373ffffffffffffffffffffffffffffffffffffffff1673ffffffffffffffffffffffffffffffffffffffff1681526020018273ffffffffffffffffffffffffffffffffffffffff1673ffffffffffffffffffffffffffffffffffffffff1681526020019250505060405180910390a15050505050565b60096020528060005260406000206000915090508060000154908060010154908060020160009054906101000a900473ffffffffffffffffffffffffffffffffffffffff16908060030154908060040160009054906101000a900473ffffffffffffffffffffffffffffffffffffffff16908060050154908060060160009054906101000a900473ffffffffffffffffffffffffffffffffffffffff16908060060160149054906101000a900460ff16908060060160159054906101000a900460ff16905089565b6000856132a68161405e565b6000600960008973ffffffffffffffffffffffffffffffffffffffff1673ffffffffffffffffffffffffffffffffffffffff16815260200190815260200160002060040160009054906101000a900473ffffffffffffffffffffffffffffffffffffffff1690508073ffffffffffffffffffffffffffffffffffffffff166373ddaef4888888886040518563ffffffff1660e01b81526004018085815260200184815260200183815260200182815260200194505050505060206040518083038186803b15801561337657600080fd5b505afa15801561338a573d6000803e3d6000fd5b505050506040513d60208110156133a057600080fd5b81019080805190602001909291905050509250505095945050505050565b816133c88161405e565b6133d061382b565b613442576040517f08c379a000000000000000000000000000000000000000000000000000000000815260040180806020018281038252600e8152602001807f43616c6c65724e6f744f776e657200000000000000000000000000000000000081525060200191505060405180910390fd5b81600960008573ffffffffffffffffffffffffffffffffffffffff1673ffffffffffffffffffffffffffffffffffffffff168152602001908152602001600020600101819055507fd19d8a7e8c72d051b3257649d28e9dfc396f83b51ee2280b712ec3e1e9b028c68383604051808373ffffffffffffffffffffffffffffffffffffffff1673ffffffffffffffffffffffffffffffffffffffff1681526020018281526020019250505060405180910390a1505050565b61350161382b565b613573576040517f08c379a000000000000000000000000000000000000000000000000000000000815260040180806020018281038252600e8152602001807f43616c6c65724e6f744f776e657200000000000000000000000000000000000081525060200191505060405180910390fd5b600760008273ffffffffffffffffffffffffffffffffffffffff1673ffffffffffffffffffffffffffffffffffffffff16815260200190815260200160002060009054906101000a900460ff16600860008373ffffffffffffffffffffffffffffffffffffffff1673ffffffffffffffffffffffffffffffffffffffff16815260200190815260200160002060006101000a81548160ff02191690831515021790555050565b6000856136258161405e565b600560009054906101000a900473ffffffffffffffffffffffffffffffffffffffff1673ffffffffffffffffffffffffffffffffffffffff163373ffffffffffffffffffffffffffffffffffffffff16146136e8576040517f08c379a00000000000000000000000000000000000000000000000000000000081526004018080602001828103825260118152602001807f63616c6c6572206d75737420626520424f00000000000000000000000000000081525060200191505060405180910390fd5b6000600960008973ffffffffffffffffffffffffffffffffffffffff1673ffffffffffffffffffffffffffffffffffffffff16815260200190815260200160002060040160009054906101000a900473ffffffffffffffffffffffffffffffffffffffff1690508073ffffffffffffffffffffffffffffffffffffffff1663e98f6176888888886040518563ffffffff1660e01b815260040180858152602001848152602001838152602001828152602001945050505050602060405180830381600087803b1580156137ba57600080fd5b505af11580156137ce573d6000803e3d6000fd5b505050506040513d60208110156137e457600080fd5b81019080805190602001909291905050509250505095945050505050565b60008060009054906101000a900473ffffffffffffffffffffffffffffffffffffffff16905090565b60008060009054906101000a900473ffffffffffffffffffffffffffffffffffffffff1673ffffffffffffffffffffffffffffffffffffffff163373ffffffffffffffffffffffffffffffffffffffff1614905090565b600061388e83836145fa565b905092915050565b6000808351905060005b818110156138f7576138ea6138db8683815181106138ba57fe5b60200260200101518684815181106138ce57fe5b60200260200101516144a0565b8461441890919063ffffffff16565b92508060010190506138a0565b505092915050565b61390761382b565b613979576040517f08c379a000000000000000000000000000000000000000000000000000000000815260040180806020018281038252600e8152602001807f43616c6c65724e6f744f776e657200000000000000000000000000000000000081525060200191505060405180910390fd5b600860008373ffffffffffffffffffffffffffffffffffffffff1673ffffffffffffffffffffffffffffffffffffffff16815260200190815260200160002060009054906101000a900460ff1615613a1c576040517f08c379a000000000000000000000000000000000000000000000000000000000815260040180806020018281038252602b8152602001806148a9602b913960400191505060405180910390fd5b80600660008473ffffffffffffffffffffffffffffffffffffffff1673ffffffffffffffffffffffffffffffffffffffff16815260200190815260200160002060006101000a81548173ffffffffffffffffffffffffffffffffffffffff021916908373ffffffffffffffffffffffffffffffffffffffff1602179055505050565b6060600a805480602002602001604051908101604052809291908181526020018280548015613b2257602002820191906000526020600020905b8160009054906101000a900473ffffffffffffffffffffffffffffffffffffffff1673ffffffffffffffffffffffffffffffffffffffff1681526020019060010190808311613ad8575b5050505050905090565b600081613b388161405e565b600960008473ffffffffffffffffffffffffffffffffffffffff1673ffffffffffffffffffffffffffffffffffffffff16815260200190815260200160002060050154915050919050565b60008173ffffffffffffffffffffffffffffffffffffffff16600660003373ffffffffffffffffffffffffffffffffffffffff1673ffffffffffffffffffffffffffffffffffffffff16815260200190815260200160002060009054906101000a900473ffffffffffffffffffffffffffffffffffffffff1673ffffffffffffffffffffffffffffffffffffffff16149050919050565b80613c248161405e565b613c2c61382b565b613c9e576040517f08c379a000000000000000000000000000000000000000000000000000000000815260040180806020018281038252600e8152602001807f43616c6c65724e6f744f776e657200000000000000000000000000000000000081525060200191505060405180910390fd5b613ca782614186565b600960008373ffffffffffffffffffffffffffffffffffffffff1673ffffffffffffffffffffffffffffffffffffffff16815260200190815260200160002060060160149054906101000a900460ff16613d69576040517f08c379a000000000000000000000000000000000000000000000000000000000815260040180806020018281038252601d8152602001807f636f6c6c61746572616c20616c7265616479206465707265636174656400000081525060200191505060405180910390fd5b6000600960008473ffffffffffffffffffffffffffffffffffffffff1673ffffffffffffffffffffffffffffffffffffffff16815260200190815260200160002060060160146101000a81548160ff0219169083151502179055507f97cc48cf2f097cb5786b83cfac928f0b821dea349f79ae098db30ab260b8345882604051808273ffffffffffffffffffffffffffffffffffffffff1673ffffffffffffffffffffffffffffffffffffffff16815260200191505060405180910390a15050565b6000613e378383614573565b905092915050565b600081613e4b8161405e565b600960008473ffffffffffffffffffffffffffffffffffffffff1673ffffffffffffffffffffffffffffffffffffffff16815260200190815260200160002060030154915050919050565b6000600960008373ffffffffffffffffffffffffffffffffffffffff1673ffffffffffffffffffffffffffffffffffffffff168152602001908152602001600020600001549050919050565b613eea61382b565b613f5c576040517f08c379a000000000000000000000000000000000000000000000000000000000815260040180806020018281038252600e8152602001807f43616c6c65724e6f744f776e657200000000000000000000000000000000000081525060200191505060405180910390fd5b81613f668161405e565b613f6f82614186565b81600960008573ffffffffffffffffffffffffffffffffffffffff1673ffffffffffffffffffffffffffffffffffffffff16815260200190815260200160002060060160006101000a81548173ffffffffffffffffffffffffffffffffffffffff021916908373ffffffffffffffffffffffffffffffffffffffff160217905550505050565b6000600660008373ffffffffffffffffffffffffffffffffffffffff1673ffffffffffffffffffffffffffffffffffffffff16815260200190815260200160002060009054906101000a900473ffffffffffffffffffffffffffffffffffffffff169050919050565b8073ffffffffffffffffffffffffffffffffffffffff16600a60008154811061408357fe5b9060005260206000200160009054906101000a900473ffffffffffffffffffffffffffffffffffffffff1673ffffffffffffffffffffffffffffffffffffffff1614614183576000600960008373ffffffffffffffffffffffffffffffffffffffff1673ffffffffffffffffffffffffffffffffffffffff168152602001908152602001600020600501541415614182576040517f08c379a00000000000000000000000000000000000000000000000000000000081526004018080602001828103825260198152602001807f636f6c6c61746572616c20646f6573206e6f742065786973740000000000000081525060200191505060405180910390fd5b5b50565b600073ffffffffffffffffffffffffffffffffffffffff168173ffffffffffffffffffffffffffffffffffffffff161415614229576040517f08c379a000000000000000000000000000000000000000000000000000000000815260040180806020018281038252601e8152602001807f4163636f756e742063616e6e6f74206265207a65726f2061646472657373000081525060200191505060405180910390fd5b6000813b905060008114156142a6576040517f08c379a00000000000000000000000000000000000000000000000000000000081526004018080602001828103825260208152602001807f4163636f756e7420636f64652073697a652063616e6e6f74206265207a65726f81525060200191505060405180910390fd5b5050565b60008060006142b8856123ed565b90506000600960008773ffffffffffffffffffffffffffffffffffffffff1673ffffffffffffffffffffffffffffffffffffffff1681526020019081526020016000206003015490506000600960008873ffffffffffffffffffffffffffffffffffffffff1673ffffffffffffffffffffffffffffffffffffffff1681526020019081526020016000206000015490506000600960008973ffffffffffffffffffffffffffffffffffffffff1673ffffffffffffffffffffffffffffffffffffffff1681526020019081526020016000206001015490506143cc83601201600a0a6143be846143b08b896146cd90919063ffffffff16565b6146cd90919063ffffffff16565b61477090919063ffffffff16565b955061440b83601201600a0a6143fd836143ef8b896146cd90919063ffffffff16565b6146cd90919063ffffffff16565b61477090919063ffffffff16565b9450505050509250929050565b600080828401905083811015614496576040517f08c379a000000000000000000000000000000000000000000000000000000000815260040180806020018281038252600c8152602001807f616464206f766572666c6f77000000000000000000000000000000000000000081525060200191505060405180910390fd5b8091505092915050565b600061456b600960008573ffffffffffffffffffffffffffffffffffffffff1673ffffffffffffffffffffffffffffffffffffffff16815260200190815260200160002060030154601201600a0a61455d600960008773ffffffffffffffffffffffffffffffffffffffff1673ffffffffffffffffffffffffffffffffffffffff1681526020019081526020016000206000015461454f86614541896123ed565b6146cd90919063ffffffff16565b6146cd90919063ffffffff16565b61477090919063ffffffff16565b905092915050565b600080600960008573ffffffffffffffffffffffffffffffffffffffff1673ffffffffffffffffffffffffffffffffffffffff16815260200190815260200160002060030154905060006145c6856123ed565b90506145f082600a0a6145e286846146cd90919063ffffffff16565b61477090919063ffffffff16565b9250505092915050565b60006146c5600960008573ffffffffffffffffffffffffffffffffffffffff1673ffffffffffffffffffffffffffffffffffffffff16815260200190815260200160002060030154601201600a0a6146b7600960008773ffffffffffffffffffffffffffffffffffffffff1673ffffffffffffffffffffffffffffffffffffffff168152602001908152602001600020600101546146a98661469b896123ed565b6146cd90919063ffffffff16565b6146cd90919063ffffffff16565b61477090919063ffffffff16565b905092915050565b6000808314156146e0576000905061476a565b60008284029050828482816146f157fe5b0414614765576040517f08c379a000000000000000000000000000000000000000000000000000000000815260040180806020018281038252600c8152602001807f6d756c206f766572666c6f77000000000000000000000000000000000000000081525060200191505060405180910390fd5b809150505b92915050565b60006147b283836040518060400160405280600881526020017f64697620627920300000000000000000000000000000000000000000000000008152506147ba565b905092915050565b6000808314158290614867576040517f08c379a00000000000000000000000000000000000000000000000000000000081526004018080602001828103825283818151815260200191508051906020019080838360005b8381101561482c578082015181840152602081019050614811565b50505050905090810190601f1680156148595780820380516001836020036101000a031916815260200191505b509250505060405180910390fd5b50600083858161487357fe5b04905080915050939250505056fe4e6577205352206d7573742062652067726561746572207468616e2070726576696f757320535263616e6e6f74207570646174652076616c69642063616c6c6572206f66207468697320636f6e7472616374a2646970667358221220e266ee7718b6686b39939cb28d226a19c0dcf25d5c3c2738bc8f4dfc83e9edbc64736f6c634300060b0033",
  "immutableReferences": {},
  "source": "// SPDX-License-Identifier: UNLICENSED\n\npragma solidity 0.6.11;\n\nimport \"./Ownable.sol\";\nimport \"../Interfaces/IBaseOracle.sol\";\nimport \"../Interfaces/IWhitelist.sol\";\nimport \"../Interfaces/IPriceFeed.sol\";\nimport \"../Interfaces/IPriceCurve.sol\";\nimport \"../Interfaces/IActivePool.sol\";\nimport \"../Interfaces/IDefaultPool.sol\";\nimport \"../Interfaces/IStabilityPool.sol\";\nimport \"../Interfaces/ICollSurplusPool.sol\";\nimport \"../Interfaces/IERC20.sol\";\nimport \"./LiquityMath.sol\";\nimport \"./CheckContract.sol\";\n\n\n/**\n * Whitelist is the contract that keeps track of all the assets that the system takes as collateral.\n * It has onlyOwner functions to add or deprecate collaterals from the whitelist, change the price\n * curve, price feed, safety ratio, etc.\n */\n\ncontract Whitelist is Ownable, IWhitelist, IBaseOracle, CheckContract {\n    using SafeMath for uint256;\n\n    struct CollateralParams {\n        // Safety ratio\n        uint256 safetyRatio; // 10**18 * the ratio. i.e. ratio = .95 * 10**18 for 95%. More risky collateral has a lower ratio\n        uint256 recoveryRatio;\n        address oracle;\n        uint256 decimals;\n        address priceCurve;\n        uint256 index;\n        address defaultRouter;\n        bool active;\n        bool isWrapped;\n    }\n\n    IActivePool activePool;\n    IDefaultPool defaultPool;\n    IStabilityPool stabilityPool;\n    ICollSurplusPool collSurplusPool;\n    address borrowerOperationsAddress;\n    bool private addressesSet;\n\n    mapping(address => address) validCallers;\n    mapping(address => bool) pendingLockCallers;\n    mapping(address => bool) cannotUpdateValidCaller;\n\n    mapping(address => CollateralParams) public collateralParams;\n    // list of all collateral types in collateralParams (active and deprecated)\n    // Addresses for easy access\n    address[] public validCollateral; // index maps to token address.\n\n    uint256 maxCollsInTrove = 50; // TODO: update to a reasonable number\n\n    event CollateralAdded(address _collateral);\n    event CollateralDeprecated(address _collateral);\n    event CollateralUndeprecated(address _collateral);\n    event OracleChanged(address _collateral, address _newOracle);\n    event PriceCurveChanged(address _collateral, address _newPriceCurve);\n    event SafetyRatioChanged(address _collateral, uint256 _newSafetyRatio);\n    event RecoveryRatioChanged(address _collateral, uint256 _newRecoveryRatio);\n\n    // Require that the collateral exists in the whitelist. If it is not the 0th index, and the\n    // index is still 0 then it does not exist in the mapping.\n    // no require here for valid collateral 0 index because that means it exists. \n    modifier exists(address _collateral) {\n        _exists(_collateral);\n        _;\n    }\n\n    // Calling from here makes it not inline, reducing contract size significantly. \n    function _exists(address _collateral) internal view {\n        if (validCollateral[0] != _collateral) {\n            require(collateralParams[_collateral].index != 0, \"collateral does not exist\");\n        }\n    }\n\n    // ----------Only Owner Setter Functions----------\n\n    function setAddresses(\n        address _activePoolAddress,\n        address _defaultPoolAddress,\n        address _stabilityPoolAddress,\n        address _collSurplusPoolAddress,\n        address _borrowerOperationsAddress\n    ) external override onlyOwner {\n        require(!addressesSet, \"addresses already set\");\n        checkContract(_activePoolAddress);\n        checkContract(_defaultPoolAddress);\n        checkContract(_stabilityPoolAddress);\n        checkContract(_collSurplusPoolAddress);\n        checkContract(_borrowerOperationsAddress);\n\n        activePool = IActivePool(_activePoolAddress);\n        defaultPool = IDefaultPool(_defaultPoolAddress);\n        stabilityPool = IStabilityPool(_stabilityPoolAddress);\n        collSurplusPool = ICollSurplusPool(_collSurplusPoolAddress);\n        borrowerOperationsAddress = _borrowerOperationsAddress;\n        addressesSet = true;\n    }\n\n    function addCollateral(\n        address _collateral,\n        uint256 _safetyRatio,\n        uint256 _recoveryRatio,\n        address _oracle,\n        uint256 _decimals,\n        address _priceCurve, \n        bool _isWrapped, \n        address _routerAddress\n    ) external onlyOwner {\n        checkContract(_collateral);\n        checkContract(_oracle);\n        checkContract(_priceCurve);\n        checkContract(_routerAddress);\n        // If collateral list is not 0, and if the 0th index is not equal to this collateral,\n        // then if index is 0 that means it is not set yet.\n        require(_safetyRatio < 11e17, \"ratio must be less than 1.10\"); //=> greater than 1.1 would mean taking out more YUSD than collateral VC\n\n        if (validCollateral.length != 0) {\n            require(validCollateral[0] != _collateral && collateralParams[_collateral].index == 0, \"collateral already exists\");\n        }\n\n        validCollateral.push(_collateral);\n        collateralParams[_collateral] = CollateralParams(\n            _safetyRatio,\n            _recoveryRatio,\n            _oracle,\n            _decimals,\n            _priceCurve,\n            validCollateral.length - 1, \n            _routerAddress,\n            true,\n            _isWrapped\n        );\n\n        activePool.addCollateralType(_collateral);\n        defaultPool.addCollateralType(_collateral);\n        stabilityPool.addCollateralType(_collateral);\n        collSurplusPool.addCollateralType(_collateral);\n\n        // throw event\n        emit CollateralAdded(_collateral);\n        emit SafetyRatioChanged(_collateral, _safetyRatio);\n        emit RecoveryRatioChanged(_collateral, _recoveryRatio);\n    }\n\n    /**\n     * Deprecate collateral by not allowing any more collateral to be added of this type.\n     * Still can interact with it via validCollateral and CollateralParams\n     */\n    function deprecateCollateral(address _collateral) external exists(_collateral) onlyOwner {\n        checkContract(_collateral);\n\n        require(collateralParams[_collateral].active, \"collateral already deprecated\");\n\n        collateralParams[_collateral].active = false;\n\n        // throw event\n        emit CollateralDeprecated(_collateral);\n    }\n\n    /**\n     * Undeprecate collateral by allowing more collateral to be added of this type.\n     * Still can interact with it via validCollateral and CollateralParams\n     */\n    function undeprecateCollateral(address _collateral) external exists(_collateral) onlyOwner {\n        checkContract(_collateral);\n\n        require(!collateralParams[_collateral].active, \"collateral is already active\");\n\n        collateralParams[_collateral].active = true;\n\n        // throw event\n        emit CollateralUndeprecated(_collateral);\n    }\n\n    /**\n     * Function to change oracles\n     */\n    function changeOracle(address _collateral, address _oracle)\n        external\n        exists(_collateral)\n        onlyOwner\n    {\n        checkContract(_collateral);\n        checkContract(_oracle);\n        collateralParams[_collateral].oracle = _oracle;\n\n        // throw event\n        emit OracleChanged(_collateral, _oracle);\n    }\n\n    /**\n     * Function to change price curve\n     */\n    function changePriceCurve(address _collateral, address _priceCurve)\n        external\n        exists(_collateral)\n        onlyOwner\n    {\n        checkContract(_collateral);\n        checkContract(_priceCurve);\n\n        (uint256 lastFeePercent, uint256 lastFeeTime) = IPriceCurve(collateralParams[_collateral].priceCurve).getFeeCapAndTime();\n        IPriceCurve(_priceCurve).setFeeCapAndTime(lastFeePercent, lastFeeTime);\n        collateralParams[_collateral].priceCurve = _priceCurve;\n\n        // throw event\n        emit PriceCurveChanged(_collateral, _priceCurve);\n    }\n\n    /**\n     * Function to change Safety ratio.\n     */\n    function changeSafetyRatio(address _collateral, uint256 _newSafetyRatio)\n        external\n        exists(_collateral)\n        onlyOwner\n    {\n        require(_newSafetyRatio < 11e17, \"ratio must be less than 1.10\"); //=> greater than 1.1 would mean taking out more YUSD than collateral VC\n        require(collateralParams[_collateral].safetyRatio < _newSafetyRatio, \"New SR must be greater than previous SR\");\n        collateralParams[_collateral].safetyRatio = _newSafetyRatio;\n\n        // throw event\n        emit SafetyRatioChanged(_collateral, _newSafetyRatio);\n    }\n\n    /**\n     * Function to change Stable Adjusted Safety ratio. \n     */\n    function changeRecoveryRatio(address _collateral, uint256 _newRecoveryRatio)\n        external\n        exists(_collateral)\n        onlyOwner\n    {\n        collateralParams[_collateral].recoveryRatio = _newRecoveryRatio;\n\n        // throw event\n        emit RecoveryRatioChanged(_collateral, _newRecoveryRatio);\n    }\n\n    // -----------Routers--------------\n\n    function setDefaultRouter(address _collateral, address _router) external override onlyOwner exists(_collateral) {\n        checkContract(_router);\n        collateralParams[_collateral].defaultRouter = _router;\n    }\n\n    function getDefaultRouterAddress(address _collateral) external view override exists(_collateral) returns (address) {\n        return collateralParams[_collateral].defaultRouter;\n    }\n\n\n    // ---------- View Functions -----------\n\n    function isWrapped(address _collateral) external view override returns (bool) {\n        return collateralParams[_collateral].isWrapped;\n    }\n\n    function getValidCollateral() external view override returns (address[] memory) {\n        return validCollateral;\n    }\n\n    // Get safety ratio used in VC Calculation\n    function getSafetyRatio(address _collateral)\n        external\n        view\n        override\n        returns (uint256)\n    {\n        return collateralParams[_collateral].safetyRatio;\n    }\n\n    // Get safety ratio used in TCR calculation, as well as for redemptions. \n    // Often similar to Safety Ratio except for stables.\n    function getRecoveryRatio(address _collateral)\n        external\n        view\n        override\n        exists(_collateral)\n        returns (uint256)\n    {\n        return collateralParams[_collateral].recoveryRatio;\n    }\n\n    function getOracle(address _collateral)\n        external\n        view\n        override\n        exists(_collateral)\n        returns (address)\n    {\n        return collateralParams[_collateral].oracle;\n    }\n\n    function getPriceCurve(address _collateral)\n        external\n        view\n        override\n        exists(_collateral)\n        returns (address)\n    {\n        return collateralParams[_collateral].priceCurve;\n    }\n\n    function getIsActive(address _collateral)\n        external\n        view\n        override\n        exists(_collateral)\n        returns (bool)\n    {\n        return collateralParams[_collateral].active;\n    }\n\n    function getDecimals(address _collateral)\n        external\n        view\n        override\n        exists(_collateral)\n        returns (uint256)\n    {\n        return collateralParams[_collateral].decimals;\n    }\n\n    function getIndex(address _collateral)\n        external\n        view\n        override\n        exists(_collateral)\n        returns (uint256)\n    {\n        return (collateralParams[_collateral].index);\n    }\n\n    // Returned as fee percentage * 10**18. View function for external callers.\n    function getFee(\n        address _collateral,\n        uint256 _collateralVCInput,\n        uint256 _collateralVCSystemBalance,\n        uint256 _totalVCBalancePre,\n        uint256 _totalVCBalancePost\n    ) external view override exists(_collateral) returns (uint256 fee) {\n        IPriceCurve priceCurve = IPriceCurve(collateralParams[_collateral].priceCurve);\n        return priceCurve.getFee(_collateralVCInput, _collateralVCSystemBalance, _totalVCBalancePre, _totalVCBalancePost);\n    }\n\n    // Returned as fee percentage * 10**18. Non view function for just borrower operations to call.\n    function getFeeAndUpdate(\n        address _collateral,\n        uint256 _collateralVCInput,\n        uint256 _collateralVCSystemBalance,\n        uint256 _totalVCBalancePre,\n        uint256 _totalVCBalancePost\n    ) external override exists(_collateral) returns (uint256 fee) {\n        require(\n            msg.sender == borrowerOperationsAddress,\n            \"caller must be BO\"\n        );\n        IPriceCurve priceCurve = IPriceCurve(collateralParams[_collateral].priceCurve);\n        return\n            priceCurve.getFeeAndUpdate(\n                _collateralVCInput,\n                _collateralVCSystemBalance,\n                _totalVCBalancePre,\n                _totalVCBalancePost\n            );\n    }\n\n    // should return 10**18 times the price in USD of 1 of the given _collateral\n    function getPrice(address _collateral)\n        public\n        view\n        override\n        returns (uint256)\n    {\n        IPriceFeed collateral_priceFeed = IPriceFeed(collateralParams[_collateral].oracle);\n        return collateral_priceFeed.fetchPrice_v();\n    }\n\n    // Gets the value of that collateral type, of that amount, in USD terms.\n    function getValueUSD(address _collateral, uint256 _amount)\n        external\n        view\n        override\n        returns (uint256)\n    {\n        return _getValueUSD(_collateral, _amount);\n    }\n\n    // Aggregates all usd values of passed in collateral / amounts\n    function getValuesUSD(address[] memory _collaterals, uint256[] memory _amounts)\n        external\n        view\n        override\n        returns (uint256 USDValue)\n    {\n        uint256 tokensLen = _collaterals.length;\n        for (uint i; i < tokensLen; ++i) {\n            USDValue = USDValue.add(_getValueUSD(_collaterals[i], _amounts[i]));\n        }\n    }\n\n    function _getValueUSD(address _collateral, uint256 _amount)\n        internal\n        view\n        returns (uint256)\n    {\n        uint256 decimals = collateralParams[_collateral].decimals;\n        uint256 price = getPrice(_collateral);\n        return price.mul(_amount).div(10**decimals);\n    }\n\n    // Gets the value of that collateral type, of that amount, in VC terms.\n    function getValueVC(address _collateral, uint256 _amount)\n        external\n        view\n        override\n        returns (uint256)\n    {\n        return _getValueVC(_collateral, _amount);\n    }\n\n    function getValuesVC(address[] memory _collaterals, uint256[] memory _amounts)\n        external\n        view\n        override\n        returns (uint256 VCValue)\n    {\n        uint256 tokensLen = _collaterals.length;\n        for (uint i; i < tokensLen; ++i) {\n            VCValue = VCValue.add(_getValueVC(_collaterals[i], _amounts[i]));\n        }\n    }\n\n    function _getValueVC(address _collateral, uint256 _amount) \n        internal \n        view \n        returns (uint256) {\n        // Multiply price by amount and safety ratio to get in VC terms, as well as dividing by amount of decimals to normalize. \n        return ((getPrice(_collateral)).mul(_amount).mul(collateralParams[_collateral].safetyRatio).div(10**(18 + collateralParams[_collateral].decimals)));\n    }\n\n    // Gets the value of that collateral type, of that amount, in Recovery VC terms.\n    function getValueRVC(address _collateral, uint256 _amount)\n        external\n        view\n        override\n        returns (uint256)\n    {\n        return _getValueRVC(_collateral, _amount);\n    }\n\n    function getValuesRVC(address[] memory _collaterals, uint256[] memory _amounts)\n        external\n        view\n        override\n        returns (uint256 RVCValue)\n    {\n        uint256 tokensLen = _collaterals.length;\n        for (uint i; i < tokensLen; ++i) {\n            RVCValue = RVCValue.add(_getValueRVC(_collaterals[i], _amounts[i]));\n        }\n    }\n\n    function _getValueRVC(address _collateral, uint256 _amount) \n        internal \n        view \n        returns (uint256) {\n        // Multiply price by amount and recovery ratio to get in Recovery VC terms, as well as dividing by amount of decimals to normalize. \n        return ((getPrice(_collateral)).mul(_amount).mul(collateralParams[_collateral].recoveryRatio).div(10**(18 + collateralParams[_collateral].decimals)));\n    }\n\n    // Gets the TCR value of that collateral type, of that amount, in TCR VC terms. Also returns the regular Value VC. \n    // Used in the active pool and default pool VC calculations. \n    function getValueVCforTCR(address _collateral, uint256 _amount)\n        external\n        view\n        override\n        returns (uint256, uint256)\n    {\n        return _getValueVCforTCR(_collateral, _amount);\n    }\n\n    function getValuesVCforTCR(address[] memory _collaterals, uint256[] memory _amounts)\n        external\n        view\n        override\n        returns (uint256 VCValue, uint256 RVCValue)\n    {\n        uint256 tokensLen = _collaterals.length;\n        for (uint i; i < tokensLen; ++i) {\n            (uint256 tempVCValue, uint256 tempRVCValue) = _getValueVCforTCR(_collaterals[i], _amounts[i]);\n            VCValue = VCValue.add(tempVCValue);\n            RVCValue = RVCValue.add(tempRVCValue);\n        }\n    }\n\n    function _getValueVCforTCR(address _collateral, uint256 _amount) \n        internal \n        view \n        returns (uint256 VC, uint256 VCforTCR) {\n        uint256 price = getPrice(_collateral);\n        uint256 decimals = collateralParams[_collateral].decimals;\n        uint256 safetyRatio = collateralParams[_collateral].safetyRatio;\n        uint256 recoveryRatio = collateralParams[_collateral].recoveryRatio;\n        VC = price.mul(_amount).mul(safetyRatio).div(10**(18 + decimals));\n        VCforTCR = price.mul(_amount).mul(recoveryRatio).div(10**(18 + decimals));\n    }\n\n\n    // ===== Contract Callers ======\n\n    /* msg.sender is the Yeti contract calling this function\n     * _caller is the caller of that contract on the Yeti contract\n     * this function confirms whether the caller of the Yeti Contract is\n     * allowed to call that function\n     */\n    function isValidCaller(address _caller) external override view returns (bool) {\n        return (validCallers[msg.sender] == _caller);\n    }\n\n\n    function getValidCaller(address _contract) external override view returns (address) {\n        return validCallers[_contract];\n    }\n\n    // Changing/Locking Contract Callers:\n\n    function updateValidCaller(address _contract, address _caller) onlyOwner external {\n        require(!cannotUpdateValidCaller[_contract], \"cannot update valid caller of this contract\");\n        validCallers[_contract] = _caller;\n    }\n\n\n    function updatePendingLockCaller(address _contract, bool _lock) onlyOwner external {\n        pendingLockCallers[_contract] = _lock;\n    }\n\n\n    function lockCaller(address _contract) onlyOwner external {\n        cannotUpdateValidCaller[_contract] = pendingLockCallers[_contract];\n    }\n\n    // Max Colls in Trove Functions\n\n    function updateMaxCollsInTrove(uint _newMax) onlyOwner external {\n        maxCollsInTrove = _newMax;\n    }\n}",
  "sourcePath": "/Users/phaxsam/Core-Stability_Truffle/Dependencies/Whitelist.sol",
  "compiler": {
    "name": "solc",
    "version": "0.6.11+commit.5ef660b1.Emscripten.clang"
  },
  "schemaVersion": "3.4.9",
  "updatedAt": "2022-08-15T22:38:51.733Z",
  "devdoc": {
    "kind": "dev",
    "methods": {
      "isOwner()": {
        "details": "Returns true if the caller is the current owner."
      },
      "owner()": {
        "details": "Returns the address of the current owner."
      }
    },
    "version": 1
  },
  "userdoc": {
    "kind": "user",
    "methods": {
      "changeOracle(address,address)": {
        "notice": "Function to change oracles"
      },
      "changePriceCurve(address,address)": {
        "notice": "Function to change price curve"
      },
      "changeRecoveryRatio(address,uint256)": {
        "notice": "Function to change Stable Adjusted Safety ratio. "
      },
      "changeSafetyRatio(address,uint256)": {
        "notice": "Function to change Safety ratio."
      },
      "deprecateCollateral(address)": {
        "notice": "Deprecate collateral by not allowing any more collateral to be added of this type. Still can interact with it via validCollateral and CollateralParams"
      },
      "undeprecateCollateral(address)": {
        "notice": "Undeprecate collateral by allowing more collateral to be added of this type. Still can interact with it via validCollateral and CollateralParams"
      }
    },
    "notice": "Whitelist is the contract that keeps track of all the assets that the system takes as collateral. It has onlyOwner functions to add or deprecate collaterals from the whitelist, change the price curve, price feed, safety ratio, etc.",
    "version": 1
  }
}